{"contracts/XmentoVault.sol":{"YieldOracle":{"abi":[{"inputs":[],"stateMutability":"nonpayable","type":"constructor"},{"inputs":[{"internalType":"address","name":"owner","type":"address"}],"name":"OwnableInvalidOwner","type":"error"},{"inputs":[{"internalType":"address","name":"account","type":"address"}],"name":"OwnableUnauthorizedAccount","type":"error"},{"anonymous":false,"inputs":[{"indexed":true,"internalType":"address","name":"previousOwner","type":"address"},{"indexed":true,"internalType":"address","name":"newOwner","type":"address"}],"name":"OwnershipTransferred","type":"event"},{"inputs":[{"internalType":"address","name":"","type":"address"}],"name":"apy","outputs":[{"internalType":"uint256","name":"","type":"uint256"}],"stateMutability":"view","type":"function"},{"inputs":[{"internalType":"address[]","name":"tokens","type":"address[]"}],"name":"getAPYs","outputs":[{"internalType":"uint256[]","name":"","type":"uint256[]"}],"stateMutability":"view","type":"function"},{"inputs":[],"name":"owner","outputs":[{"internalType":"address","name":"","type":"address"}],"stateMutability":"view","type":"function"},{"inputs":[],"name":"renounceOwnership","outputs":[],"stateMutability":"nonpayable","type":"function"},{"inputs":[{"internalType":"address","name":"newOwner","type":"address"}],"name":"transferOwnership","outputs":[],"stateMutability":"nonpayable","type":"function"},{"inputs":[{"internalType":"address","name":"token","type":"address"},{"internalType":"uint256","name":"newAPY","type":"uint256"}],"name":"updateAPY","outputs":[],"stateMutability":"nonpayable","type":"function"}],"evm":{"bytecode":{"linkReferences":{},"object":"6080806040523461007a5733156100645760008054336001600160a01b03198216811783556040519290916001600160a01b0316907f8be0079c531659141344cd1fd0a4f28419497f9722a3daafe3b4186f6b6457e09080a36103fd90816100808239f35b631e4fbdf760e01b815260006004820152602490fd5b600080fdfe6080604081815260048036101561001557600080fd5b600092833560e01c9081632b3adc1c1461031e57508063715018a6146102c15780638da5cb5b14610299578063a4e6a6fb1461025d578063de5a63a4146100ee5763f2fde38b1461006557600080fd5b346100ea5760203660031901126100ea5761007e610352565b9061008761036d565b6001600160a01b039182169283156100d457505082546001600160a01b0319811683178455167f8be0079c531659141344cd1fd0a4f28419497f9722a3daafe3b4186f6b6457e08380a380f35b51631e4fbdf760e01b8152908101849052602490fd5b8280fd5b50346100ea576020806003193601126102595781359367ffffffffffffffff92838611610255573660238701121561025557858101358481116100ea576024916005973684848b1b8301011161025157601f979861014b84610399565b8a518a199a909991018a1689019081118982101761023f578a999896979a5283865261017684610399565b868b019801368937865b8481106101c85750505050505083519485948186019282875251809352850193925b8281106101b157505050500390f35b8351855286955093810193928101926001016101a2565b80829b9897999a9b1b86818501013560018060a01b03811680910361023b578852600189528b882054908a51831015610229578a01890152600019811461021757600101999897959699610180565b634e487b7160e01b8752601184528587fd5b634e487b7160e01b8952603286528789fd5b8880fd5b634e487b7160e01b8752604184528587fd5b8480fd5b5080fd5b8380fd5b505034610255578060031936011261025557610277610352565b61027f61036d565b6001600160a01b0316825260016020528120602435905580f35b505034610255578160031936011261025557905490516001600160a01b039091168152602090f35b833461031b578060031936011261031b576102da61036d565b80546001600160a01b03198116825581906001600160a01b03167f8be0079c531659141344cd1fd0a4f28419497f9722a3daafe3b4186f6b6457e08280a380f35b80fd5b849084346100ea5760203660031901126100ea576020926001600160a01b03610345610352565b1681526001845220548152f35b600435906001600160a01b038216820361036857565b600080fd5b6000546001600160a01b0316330361038157565b60405163118cdaa760e01b8152336004820152602490fd5b67ffffffffffffffff81116103b15760051b60200190565b634e487b7160e01b600052604160045260246000fdfea2646970667358221220d73e13dbd2eae11c53eb56d0f3be8244d9712b1784330f34ee1e65f17628722364736f6c63430008140033","opcodes":"PUSH1 0x80 DUP1 PUSH1 0x40 MSTORE CALLVALUE PUSH2 0x7A JUMPI CALLER ISZERO PUSH2 0x64 JUMPI PUSH1 0x0 DUP1 SLOAD CALLER PUSH1 0x1 PUSH1 0x1 PUSH1 0xA0 SHL SUB NOT DUP3 AND DUP2 OR DUP4 SSTORE PUSH1 0x40 MLOAD SWAP3 SWAP1 SWAP2 PUSH1 0x1 PUSH1 0x1 PUSH1 0xA0 SHL SUB AND SWAP1 PUSH32 0x8BE0079C531659141344CD1FD0A4F28419497F9722A3DAAFE3B4186F6B6457E0 SWAP1 DUP1 LOG3 PUSH2 0x3FD SWAP1 DUP2 PUSH2 0x80 DUP3 CODECOPY RETURN JUMPDEST PUSH4 0x1E4FBDF7 PUSH1 0xE0 SHL DUP2 MSTORE PUSH1 0x0 PUSH1 0x4 DUP3 ADD MSTORE PUSH1 0x24 SWAP1 REVERT JUMPDEST PUSH1 0x0 DUP1 REVERT INVALID PUSH1 0x80 PUSH1 0x40 DUP2 DUP2 MSTORE PUSH1 0x4 DUP1 CALLDATASIZE LT ISZERO PUSH2 0x15 JUMPI PUSH1 0x0 DUP1 REVERT JUMPDEST PUSH1 0x0 SWAP3 DUP4 CALLDATALOAD PUSH1 0xE0 SHR SWAP1 DUP2 PUSH4 0x2B3ADC1C EQ PUSH2 0x31E JUMPI POP DUP1 PUSH4 0x715018A6 EQ PUSH2 0x2C1 JUMPI DUP1 PUSH4 0x8DA5CB5B EQ PUSH2 0x299 JUMPI DUP1 PUSH4 0xA4E6A6FB EQ PUSH2 0x25D JUMPI DUP1 PUSH4 0xDE5A63A4 EQ PUSH2 0xEE JUMPI PUSH4 0xF2FDE38B EQ PUSH2 0x65 JUMPI PUSH1 0x0 DUP1 REVERT JUMPDEST CALLVALUE PUSH2 0xEA JUMPI PUSH1 0x20 CALLDATASIZE PUSH1 0x3 NOT ADD SLT PUSH2 0xEA JUMPI PUSH2 0x7E PUSH2 0x352 JUMP JUMPDEST SWAP1 PUSH2 0x87 PUSH2 0x36D JUMP JUMPDEST PUSH1 0x1 PUSH1 0x1 PUSH1 0xA0 SHL SUB SWAP2 DUP3 AND SWAP3 DUP4 ISZERO PUSH2 0xD4 JUMPI POP POP DUP3 SLOAD PUSH1 0x1 PUSH1 0x1 PUSH1 0xA0 SHL SUB NOT DUP2 AND DUP4 OR DUP5 SSTORE AND PUSH32 0x8BE0079C531659141344CD1FD0A4F28419497F9722A3DAAFE3B4186F6B6457E0 DUP4 DUP1 LOG3 DUP1 RETURN JUMPDEST MLOAD PUSH4 0x1E4FBDF7 PUSH1 0xE0 SHL DUP2 MSTORE SWAP1 DUP2 ADD DUP5 SWAP1 MSTORE PUSH1 0x24 SWAP1 REVERT JUMPDEST DUP3 DUP1 REVERT JUMPDEST POP CALLVALUE PUSH2 0xEA JUMPI PUSH1 0x20 DUP1 PUSH1 0x3 NOT CALLDATASIZE ADD SLT PUSH2 0x259 JUMPI DUP2 CALLDATALOAD SWAP4 PUSH8 0xFFFFFFFFFFFFFFFF SWAP3 DUP4 DUP7 GT PUSH2 0x255 JUMPI CALLDATASIZE PUSH1 0x23 DUP8 ADD SLT ISZERO PUSH2 0x255 JUMPI DUP6 DUP2 ADD CALLDATALOAD DUP5 DUP2 GT PUSH2 0xEA JUMPI PUSH1 0x24 SWAP2 PUSH1 0x5 SWAP8 CALLDATASIZE DUP5 DUP5 DUP12 SHL DUP4 ADD ADD GT PUSH2 0x251 JUMPI PUSH1 0x1F SWAP8 SWAP9 PUSH2 0x14B DUP5 PUSH2 0x399 JUMP JUMPDEST DUP11 MLOAD DUP11 NOT SWAP11 SWAP1 SWAP10 SWAP2 ADD DUP11 AND DUP10 ADD SWAP1 DUP2 GT DUP10 DUP3 LT OR PUSH2 0x23F JUMPI DUP11 SWAP10 SWAP9 SWAP7 SWAP8 SWAP11 MSTORE DUP4 DUP7 MSTORE PUSH2 0x176 DUP5 PUSH2 0x399 JUMP JUMPDEST DUP7 DUP12 ADD SWAP9 ADD CALLDATASIZE DUP10 CALLDATACOPY DUP7 JUMPDEST DUP5 DUP2 LT PUSH2 0x1C8 JUMPI POP POP POP POP POP POP DUP4 MLOAD SWAP5 DUP6 SWAP5 DUP2 DUP7 ADD SWAP3 DUP3 DUP8 MSTORE MLOAD DUP1 SWAP4 MSTORE DUP6 ADD SWAP4 SWAP3 JUMPDEST DUP3 DUP2 LT PUSH2 0x1B1 JUMPI POP POP POP POP SUB SWAP1 RETURN JUMPDEST DUP4 MLOAD DUP6 MSTORE DUP7 SWAP6 POP SWAP4 DUP2 ADD SWAP4 SWAP3 DUP2 ADD SWAP3 PUSH1 0x1 ADD PUSH2 0x1A2 JUMP JUMPDEST DUP1 DUP3 SWAP12 SWAP9 SWAP8 SWAP10 SWAP11 SWAP12 SHL DUP7 DUP2 DUP6 ADD ADD CALLDATALOAD PUSH1 0x1 DUP1 PUSH1 0xA0 SHL SUB DUP2 AND DUP1 SWAP2 SUB PUSH2 0x23B JUMPI DUP9 MSTORE PUSH1 0x1 DUP10 MSTORE DUP12 DUP9 KECCAK256 SLOAD SWAP1 DUP11 MLOAD DUP4 LT ISZERO PUSH2 0x229 JUMPI DUP11 ADD DUP10 ADD MSTORE PUSH1 0x0 NOT DUP2 EQ PUSH2 0x217 JUMPI PUSH1 0x1 ADD SWAP10 SWAP9 SWAP8 SWAP6 SWAP7 SWAP10 PUSH2 0x180 JUMP JUMPDEST PUSH4 0x4E487B71 PUSH1 0xE0 SHL DUP8 MSTORE PUSH1 0x11 DUP5 MSTORE DUP6 DUP8 REVERT JUMPDEST PUSH4 0x4E487B71 PUSH1 0xE0 SHL DUP10 MSTORE PUSH1 0x32 DUP7 MSTORE DUP8 DUP10 REVERT JUMPDEST DUP9 DUP1 REVERT JUMPDEST PUSH4 0x4E487B71 PUSH1 0xE0 SHL DUP8 MSTORE PUSH1 0x41 DUP5 MSTORE DUP6 DUP8 REVERT JUMPDEST DUP5 DUP1 REVERT JUMPDEST POP DUP1 REVERT JUMPDEST DUP4 DUP1 REVERT JUMPDEST POP POP CALLVALUE PUSH2 0x255 JUMPI DUP1 PUSH1 0x3 NOT CALLDATASIZE ADD SLT PUSH2 0x255 JUMPI PUSH2 0x277 PUSH2 0x352 JUMP JUMPDEST PUSH2 0x27F PUSH2 0x36D JUMP JUMPDEST PUSH1 0x1 PUSH1 0x1 PUSH1 0xA0 SHL SUB AND DUP3 MSTORE PUSH1 0x1 PUSH1 0x20 MSTORE DUP2 KECCAK256 PUSH1 0x24 CALLDATALOAD SWAP1 SSTORE DUP1 RETURN JUMPDEST POP POP CALLVALUE PUSH2 0x255 JUMPI DUP2 PUSH1 0x3 NOT CALLDATASIZE ADD SLT PUSH2 0x255 JUMPI SWAP1 SLOAD SWAP1 MLOAD PUSH1 0x1 PUSH1 0x1 PUSH1 0xA0 SHL SUB SWAP1 SWAP2 AND DUP2 MSTORE PUSH1 0x20 SWAP1 RETURN JUMPDEST DUP4 CALLVALUE PUSH2 0x31B JUMPI DUP1 PUSH1 0x3 NOT CALLDATASIZE ADD SLT PUSH2 0x31B JUMPI PUSH2 0x2DA PUSH2 0x36D JUMP JUMPDEST DUP1 SLOAD PUSH1 0x1 PUSH1 0x1 PUSH1 0xA0 SHL SUB NOT DUP2 AND DUP3 SSTORE DUP2 SWAP1 PUSH1 0x1 PUSH1 0x1 PUSH1 0xA0 SHL SUB AND PUSH32 0x8BE0079C531659141344CD1FD0A4F28419497F9722A3DAAFE3B4186F6B6457E0 DUP3 DUP1 LOG3 DUP1 RETURN JUMPDEST DUP1 REVERT JUMPDEST DUP5 SWAP1 DUP5 CALLVALUE PUSH2 0xEA JUMPI PUSH1 0x20 CALLDATASIZE PUSH1 0x3 NOT ADD SLT PUSH2 0xEA JUMPI PUSH1 0x20 SWAP3 PUSH1 0x1 PUSH1 0x1 PUSH1 0xA0 SHL SUB PUSH2 0x345 PUSH2 0x352 JUMP JUMPDEST AND DUP2 MSTORE PUSH1 0x1 DUP5 MSTORE KECCAK256 SLOAD DUP2 MSTORE RETURN JUMPDEST PUSH1 0x4 CALLDATALOAD SWAP1 PUSH1 0x1 PUSH1 0x1 PUSH1 0xA0 SHL SUB DUP3 AND DUP3 SUB PUSH2 0x368 JUMPI JUMP JUMPDEST PUSH1 0x0 DUP1 REVERT JUMPDEST PUSH1 0x0 SLOAD PUSH1 0x1 PUSH1 0x1 PUSH1 0xA0 SHL SUB AND CALLER SUB PUSH2 0x381 JUMPI JUMP JUMPDEST PUSH1 0x40 MLOAD PUSH4 0x118CDAA7 PUSH1 0xE0 SHL DUP2 MSTORE CALLER PUSH1 0x4 DUP3 ADD MSTORE PUSH1 0x24 SWAP1 REVERT JUMPDEST PUSH8 0xFFFFFFFFFFFFFFFF DUP2 GT PUSH2 0x3B1 JUMPI PUSH1 0x5 SHL PUSH1 0x20 ADD SWAP1 JUMP JUMPDEST PUSH4 0x4E487B71 PUSH1 0xE0 SHL PUSH1 0x0 MSTORE PUSH1 0x41 PUSH1 0x4 MSTORE PUSH1 0x24 PUSH1 0x0 REVERT INVALID LOG2 PUSH5 0x6970667358 0x22 SLT KECCAK256 0xD7 RETURNDATACOPY SGT 0xDB 0xD2 0xEA 0xE1 SHR MSTORE8 0xEB JUMP 0xD0 RETURN 0xBE DUP3 PREVRANDAO 0xD9 PUSH18 0x2B1784330F34EE1E65F17628722364736F6C PUSH4 0x43000814 STOP CALLER "},"methodIdentifiers":{"apy(address)":"2b3adc1c","getAPYs(address[])":"de5a63a4","owner()":"8da5cb5b","renounceOwnership()":"715018a6","transferOwnership(address)":"f2fde38b","updateAPY(address,uint256)":"a4e6a6fb"}}}}}