{"contracts/XmentoVault.sol":{"DummyDex":{"abi":[{"inputs":[{"internalType":"address","name":"from","type":"address"},{"internalType":"address","name":"to","type":"address"},{"internalType":"uint256","name":"amount","type":"uint256"}],"name":"swap","outputs":[{"internalType":"uint256","name":"","type":"uint256"}],"stateMutability":"pure","type":"function"}],"evm":{"bytecode":{"linkReferences":{},"object":"60808060405234601457609b908161001a8239f35b600080fdfe6080806040526004361015601257600080fd5b600090813560e01c63df791e5014602857600080fd5b34605d576060366003190112605d576001600160a01b036004358181160360615760243590811603605d576020906044358152f35b5080fd5b8280fdfea2646970667358221220954cbb29a31a4cc9e21c72959d0dd90662ab1e41b8989fd2be0810d722a84e8264736f6c63430008140033","opcodes":"PUSH1 0x80 DUP1 PUSH1 0x40 MSTORE CALLVALUE PUSH1 0x14 JUMPI PUSH1 0x9B SWAP1 DUP2 PUSH2 0x1A DUP3 CODECOPY RETURN JUMPDEST PUSH1 0x0 DUP1 REVERT INVALID PUSH1 0x80 DUP1 PUSH1 0x40 MSTORE PUSH1 0x4 CALLDATASIZE LT ISZERO PUSH1 0x12 JUMPI PUSH1 0x0 DUP1 REVERT JUMPDEST PUSH1 0x0 SWAP1 DUP2 CALLDATALOAD PUSH1 0xE0 SHR PUSH4 0xDF791E50 EQ PUSH1 0x28 JUMPI PUSH1 0x0 DUP1 REVERT JUMPDEST CALLVALUE PUSH1 0x5D JUMPI PUSH1 0x60 CALLDATASIZE PUSH1 0x3 NOT ADD SLT PUSH1 0x5D JUMPI PUSH1 0x1 PUSH1 0x1 PUSH1 0xA0 SHL SUB PUSH1 0x4 CALLDATALOAD DUP2 DUP2 AND SUB PUSH1 0x61 JUMPI PUSH1 0x24 CALLDATALOAD SWAP1 DUP2 AND SUB PUSH1 0x5D JUMPI PUSH1 0x20 SWAP1 PUSH1 0x44 CALLDATALOAD DUP2 MSTORE RETURN JUMPDEST POP DUP1 REVERT JUMPDEST DUP3 DUP1 REVERT INVALID LOG2 PUSH5 0x6970667358 0x22 SLT KECCAK256 SWAP6 0x4C 0xBB 0x29 LOG3 BYTE 0x4C 0xC9 0xE2 SHR PUSH19 0x959D0DD90662AB1E41B8989FD2BE0810D722A8 0x4E DUP3 PUSH5 0x736F6C6343 STOP ADDMOD EQ STOP CALLER "},"methodIdentifiers":{"swap(address,address,uint256)":"df791e50"}}}}}