{"contracts/XmentoVault.sol":{"XmentoVault":{"abi":[{"inputs":[{"internalType":"address","name":"_factory","type":"address"},{"internalType":"address","name":"_cUSD","type":"address"},{"internalType":"address","name":"_cEUR","type":"address"},{"internalType":"address","name":"_cREAL","type":"address"},{"internalType":"address","name":"_dex","type":"address"},{"internalType":"address","name":"_yieldOracle","type":"address"}],"stateMutability":"nonpayable","type":"constructor"},{"inputs":[],"name":"AccessControlBadConfirmation","type":"error"},{"inputs":[{"internalType":"address","name":"account","type":"address"},{"internalType":"bytes32","name":"neededRole","type":"bytes32"}],"name":"AccessControlUnauthorizedAccount","type":"error"},{"inputs":[{"internalType":"address","name":"sender","type":"address"},{"internalType":"uint256","name":"tokenId","type":"uint256"},{"internalType":"address","name":"owner","type":"address"}],"name":"ERC721IncorrectOwner","type":"error"},{"inputs":[{"internalType":"address","name":"operator","type":"address"},{"internalType":"uint256","name":"tokenId","type":"uint256"}],"name":"ERC721InsufficientApproval","type":"error"},{"inputs":[{"internalType":"address","name":"approver","type":"address"}],"name":"ERC721InvalidApprover","type":"error"},{"inputs":[{"internalType":"address","name":"operator","type":"address"}],"name":"ERC721InvalidOperator","type":"error"},{"inputs":[{"internalType":"address","name":"owner","type":"address"}],"name":"ERC721InvalidOwner","type":"error"},{"inputs":[{"internalType":"address","name":"receiver","type":"address"}],"name":"ERC721InvalidReceiver","type":"error"},{"inputs":[{"internalType":"address","name":"sender","type":"address"}],"name":"ERC721InvalidSender","type":"error"},{"inputs":[{"internalType":"uint256","name":"tokenId","type":"uint256"}],"name":"ERC721NonexistentToken","type":"error"},{"inputs":[{"internalType":"address","name":"owner","type":"address"}],"name":"OwnableInvalidOwner","type":"error"},{"inputs":[{"internalType":"address","name":"account","type":"address"}],"name":"OwnableUnauthorizedAccount","type":"error"},{"inputs":[],"name":"ReentrancyGuardReentrantCall","type":"error"},{"inputs":[{"internalType":"address","name":"token","type":"address"}],"name":"SafeERC20FailedOperation","type":"error"},{"anonymous":false,"inputs":[{"indexed":true,"internalType":"address","name":"owner","type":"address"},{"indexed":true,"internalType":"address","name":"approved","type":"address"},{"indexed":true,"internalType":"uint256","name":"tokenId","type":"uint256"}],"name":"Approval","type":"event"},{"anonymous":false,"inputs":[{"indexed":true,"internalType":"address","name":"owner","type":"address"},{"indexed":true,"internalType":"address","name":"operator","type":"address"},{"indexed":false,"internalType":"bool","name":"approved","type":"bool"}],"name":"ApprovalForAll","type":"event"},{"anonymous":false,"inputs":[{"indexed":false,"internalType":"string","name":"message","type":"string"},{"indexed":false,"internalType":"bytes","name":"values","type":"bytes"}],"name":"DebugLog","type":"event"},{"anonymous":false,"inputs":[{"indexed":true,"internalType":"address","name":"user","type":"address"},{"indexed":true,"internalType":"address","name":"token","type":"address"},{"indexed":false,"internalType":"uint256","name":"amount","type":"uint256"},{"indexed":false,"internalType":"uint256","name":"tokenId","type":"uint256"}],"name":"Deposited","type":"event"},{"anonymous":false,"inputs":[{"indexed":true,"internalType":"address","name":"factory","type":"address"},{"indexed":false,"internalType":"address","name":"cUSD","type":"address"},{"indexed":false,"internalType":"address","name":"cEUR","type":"address"},{"indexed":false,"internalType":"address","name":"cREAL","type":"address"},{"indexed":false,"internalType":"address","name":"dex","type":"address"},{"indexed":false,"internalType":"address","name":"yieldOracle","type":"address"}],"name":"Initialized","type":"event"},{"anonymous":false,"inputs":[{"indexed":true,"internalType":"address","name":"previousOwner","type":"address"},{"indexed":true,"internalType":"address","name":"newOwner","type":"address"}],"name":"OwnershipTransferred","type":"event"},{"anonymous":false,"inputs":[{"indexed":true,"internalType":"bytes32","name":"role","type":"bytes32"},{"indexed":true,"internalType":"bytes32","name":"previousAdminRole","type":"bytes32"},{"indexed":true,"internalType":"bytes32","name":"newAdminRole","type":"bytes32"}],"name":"RoleAdminChanged","type":"event"},{"anonymous":false,"inputs":[{"indexed":true,"internalType":"bytes32","name":"role","type":"bytes32"},{"indexed":true,"internalType":"address","name":"account","type":"address"},{"indexed":true,"internalType":"address","name":"sender","type":"address"}],"name":"RoleGranted","type":"event"},{"anonymous":false,"inputs":[{"indexed":true,"internalType":"bytes32","name":"role","type":"bytes32"},{"indexed":true,"internalType":"address","name":"account","type":"address"},{"indexed":true,"internalType":"address","name":"sender","type":"address"}],"name":"RoleRevoked","type":"event"},{"anonymous":false,"inputs":[{"indexed":true,"internalType":"address","name":"token","type":"address"},{"indexed":true,"internalType":"address","name":"from","type":"address"},{"indexed":true,"internalType":"address","name":"to","type":"address"},{"indexed":false,"internalType":"uint256","name":"amount","type":"uint256"},{"indexed":false,"internalType":"bool","name":"success","type":"bool"},{"indexed":false,"internalType":"bytes","name":"data","type":"bytes"}],"name":"TokenTransferAttempt","type":"event"},{"anonymous":false,"inputs":[{"indexed":true,"internalType":"address","name":"from","type":"address"},{"indexed":true,"internalType":"address","name":"to","type":"address"},{"indexed":true,"internalType":"uint256","name":"tokenId","type":"uint256"}],"name":"Transfer","type":"event"},{"anonymous":false,"inputs":[{"indexed":true,"internalType":"address","name":"user","type":"address"},{"indexed":true,"internalType":"address","name":"token","type":"address"},{"indexed":false,"internalType":"uint256","name":"amount","type":"uint256"},{"indexed":false,"internalType":"uint256","name":"tokenId","type":"uint256"}],"name":"Withdrawn","type":"event"},{"anonymous":false,"inputs":[{"indexed":true,"internalType":"address","name":"user","type":"address"},{"indexed":true,"internalType":"address","name":"token","type":"address"},{"indexed":false,"internalType":"uint256","name":"amount","type":"uint256"},{"indexed":false,"internalType":"uint256","name":"tokenId","type":"uint256"}],"name":"YieldClaimed","type":"event"},{"inputs":[],"name":"DEFAULT_ADMIN_ROLE","outputs":[{"internalType":"bytes32","name":"","type":"bytes32"}],"stateMutability":"view","type":"function"},{"inputs":[{"internalType":"address","name":"to","type":"address"},{"internalType":"uint256","name":"tokenId","type":"uint256"}],"name":"approve","outputs":[],"stateMutability":"nonpayable","type":"function"},{"inputs":[{"internalType":"address","name":"owner","type":"address"}],"name":"balanceOf","outputs":[{"internalType":"uint256","name":"","type":"uint256"}],"stateMutability":"view","type":"function"},{"inputs":[],"name":"cEUR","outputs":[{"internalType":"contract IERC20","name":"","type":"address"}],"stateMutability":"view","type":"function"},{"inputs":[],"name":"cREAL","outputs":[{"internalType":"contract IERC20","name":"","type":"address"}],"stateMutability":"view","type":"function"},{"inputs":[],"name":"cUSD","outputs":[{"internalType":"contract IERC20","name":"","type":"address"}],"stateMutability":"view","type":"function"},{"inputs":[{"internalType":"uint256","name":"tokenId","type":"uint256"}],"name":"calculateYield","outputs":[{"internalType":"uint256","name":"","type":"uint256"}],"stateMutability":"view","type":"function"},{"inputs":[{"internalType":"uint256","name":"tokenId","type":"uint256"}],"name":"claimYield","outputs":[],"stateMutability":"nonpayable","type":"function"},{"inputs":[{"internalType":"address","name":"token","type":"address"},{"internalType":"uint256","name":"amount","type":"uint256"}],"name":"deposit","outputs":[],"stateMutability":"nonpayable","type":"function"},{"inputs":[],"name":"dex","outputs":[{"internalType":"contract IDEX","name":"","type":"address"}],"stateMutability":"view","type":"function"},{"inputs":[],"name":"factory","outputs":[{"internalType":"contract IXmentoVaultFactory","name":"","type":"address"}],"stateMutability":"view","type":"function"},{"inputs":[{"internalType":"uint256","name":"tokenId","type":"uint256"}],"name":"getApproved","outputs":[{"internalType":"address","name":"","type":"address"}],"stateMutability":"view","type":"function"},{"inputs":[],"name":"getOptimalAllocation","outputs":[{"internalType":"uint256[3]","name":"","type":"uint256[3]"}],"stateMutability":"view","type":"function"},{"inputs":[{"internalType":"bytes32","name":"role","type":"bytes32"}],"name":"getRoleAdmin","outputs":[{"internalType":"bytes32","name":"","type":"bytes32"}],"stateMutability":"view","type":"function"},{"inputs":[{"internalType":"bytes32","name":"role","type":"bytes32"},{"internalType":"address","name":"account","type":"address"}],"name":"grantRole","outputs":[],"stateMutability":"nonpayable","type":"function"},{"inputs":[{"internalType":"bytes32","name":"role","type":"bytes32"},{"internalType":"address","name":"account","type":"address"}],"name":"hasRole","outputs":[{"internalType":"bool","name":"","type":"bool"}],"stateMutability":"view","type":"function"},{"inputs":[{"internalType":"address","name":"owner","type":"address"},{"internalType":"address","name":"operator","type":"address"}],"name":"isApprovedForAll","outputs":[{"internalType":"bool","name":"","type":"bool"}],"stateMutability":"view","type":"function"},{"inputs":[],"name":"name","outputs":[{"internalType":"string","name":"","type":"string"}],"stateMutability":"view","type":"function"},{"inputs":[],"name":"nextTokenId","outputs":[{"internalType":"uint256","name":"","type":"uint256"}],"stateMutability":"view","type":"function"},{"inputs":[],"name":"owner","outputs":[{"internalType":"address","name":"","type":"address"}],"stateMutability":"view","type":"function"},{"inputs":[{"internalType":"uint256","name":"tokenId","type":"uint256"}],"name":"ownerOf","outputs":[{"internalType":"address","name":"","type":"address"}],"stateMutability":"view","type":"function"},{"inputs":[{"internalType":"uint256","name":"","type":"uint256"}],"name":"positions","outputs":[{"internalType":"address","name":"token","type":"address"},{"internalType":"uint256","name":"amount","type":"uint256"},{"internalType":"uint256","name":"timestamp","type":"uint256"},{"internalType":"uint256","name":"yieldRate","type":"uint256"},{"internalType":"bool","name":"isActive","type":"bool"}],"stateMutability":"view","type":"function"},{"inputs":[{"internalType":"uint256","name":"tokenId","type":"uint256"}],"name":"rebalance","outputs":[],"stateMutability":"nonpayable","type":"function"},{"inputs":[{"internalType":"uint256","name":"tokenId","type":"uint256"}],"name":"redeem","outputs":[],"stateMutability":"nonpayable","type":"function"},{"inputs":[],"name":"renounceOwnership","outputs":[],"stateMutability":"nonpayable","type":"function"},{"inputs":[{"internalType":"bytes32","name":"role","type":"bytes32"},{"internalType":"address","name":"callerConfirmation","type":"address"}],"name":"renounceRole","outputs":[],"stateMutability":"nonpayable","type":"function"},{"inputs":[{"internalType":"bytes32","name":"role","type":"bytes32"},{"internalType":"address","name":"account","type":"address"}],"name":"revokeRole","outputs":[],"stateMutability":"nonpayable","type":"function"},{"inputs":[{"internalType":"address","name":"from","type":"address"},{"internalType":"address","name":"to","type":"address"},{"internalType":"uint256","name":"tokenId","type":"uint256"}],"name":"safeTransferFrom","outputs":[],"stateMutability":"nonpayable","type":"function"},{"inputs":[{"internalType":"address","name":"from","type":"address"},{"internalType":"address","name":"to","type":"address"},{"internalType":"uint256","name":"tokenId","type":"uint256"},{"internalType":"bytes","name":"data","type":"bytes"}],"name":"safeTransferFrom","outputs":[],"stateMutability":"nonpayable","type":"function"},{"inputs":[{"internalType":"address","name":"operator","type":"address"},{"internalType":"bool","name":"approved","type":"bool"}],"name":"setApprovalForAll","outputs":[],"stateMutability":"nonpayable","type":"function"},{"inputs":[{"internalType":"bytes4","name":"interfaceId","type":"bytes4"}],"name":"supportsInterface","outputs":[{"internalType":"bool","name":"","type":"bool"}],"stateMutability":"view","type":"function"},{"inputs":[],"name":"symbol","outputs":[{"internalType":"string","name":"","type":"string"}],"stateMutability":"view","type":"function"},{"inputs":[{"internalType":"uint256","name":"tokenId","type":"uint256"}],"name":"tokenURI","outputs":[{"internalType":"string","name":"","type":"string"}],"stateMutability":"view","type":"function"},{"inputs":[{"internalType":"address","name":"","type":"address"}],"name":"totalDeposits","outputs":[{"internalType":"uint256","name":"","type":"uint256"}],"stateMutability":"view","type":"function"},{"inputs":[{"internalType":"address","name":"","type":"address"}],"name":"totalYield","outputs":[{"internalType":"uint256","name":"","type":"uint256"}],"stateMutability":"view","type":"function"},{"inputs":[{"internalType":"address","name":"from","type":"address"},{"internalType":"address","name":"to","type":"address"},{"internalType":"uint256","name":"tokenId","type":"uint256"}],"name":"transferFrom","outputs":[],"stateMutability":"nonpayable","type":"function"},{"inputs":[{"internalType":"address","name":"newOwner","type":"address"}],"name":"transferOwnership","outputs":[],"stateMutability":"nonpayable","type":"function"},{"inputs":[],"name":"yieldOracle","outputs":[{"internalType":"contract IYieldOracle","name":"","type":"address"}],"stateMutability":"view","type":"function"}],"evm":{"bytecode":{"linkReferences":{},"object":"60a0346200067157601f620030cf38819003918201601f191683019291906001600160401b0384118385101762000568578160c092849260409687528339810103126200067157620000518162000696565b90620000606020820162000696565b906200006e84820162000696565b906200007d6060820162000696565b6200009960a0620000916080850162000696565b930162000696565b92620000a462000676565b600b81526a161b595b9d1bd5985d5b1d60aa1b6020820152620000c662000676565b60078152661613559055531560ca1b6020820152815190916001600160401b038211620005685760005490600182811c9216801562000666575b6020831014620005475781601f84931162000606575b50602090601f83116001146200058a576000926200057e575b50508160011b916000199060031b1c1916176000555b8051906001600160401b038211620005685760015490600182811c921680156200055d575b6020831014620005475781601f849311620004e3575b50602090601f831160011462000469576000926200045d575b50508160011b916000199060031b1c1916176001555b3315620004455760068054336001600160a01b0319808316821790935589519892976001600160a01b0393909284929083167f8be0079c531659141344cd1fd0a4f28419497f9722a3daafe3b4186f6b6457e0600080a360016008556001600e55169788156200040357508116918215620003bf5781169283156200037b57811693841562000337578116948515620002f35716958615620002af5760805284600954161760095583600a541617600a5582600b541617600b5581600c541617600c55600d541617600d556200028533620006ab565b506001600e55600160ff1960125416176012555161295190816200073e8239608051816106420152f35b875162461bcd60e51b815260206004820152601660248201527f496e76616c6964206f7261636c652061646472657373000000000000000000006044820152606490fd5b885162461bcd60e51b815260206004820152601360248201527f496e76616c6964204445582061646472657373000000000000000000000000006044820152606490fd5b885162461bcd60e51b815260206004820152601560248201527f496e76616c696420635245414c206164647265737300000000000000000000006044820152606490fd5b885162461bcd60e51b815260206004820152601460248201527f496e76616c6964206345555220616464726573730000000000000000000000006044820152606490fd5b885162461bcd60e51b815260206004820152601460248201527f496e76616c6964206355534420616464726573730000000000000000000000006044820152606490fd5b62461bcd60e51b815260206004820152601760248201527f496e76616c696420666163746f727920616464726573730000000000000000006044820152606490fd5b8651631e4fbdf760e01b815260006004820152602490fd5b01519050388062000199565b60016000908152600080516020620030af8339815191529350601f198516905b818110620004ca5750908460019594939210620004b0575b505050811b01600155620001af565b015160001960f88460031b161c19169055388080620004a1565b9293602060018192878601518155019501930162000489565b6001600052909150600080516020620030af833981519152601f840160051c810191602085106200053c575b90601f859493920160051c01905b8181106200052c575062000180565b600081558493506001016200051d565b90915081906200050f565b634e487b7160e01b600052602260045260246000fd5b91607f16916200016a565b634e487b7160e01b600052604160045260246000fd5b0151905038806200012f565b600080805293506000805160206200308f83398151915291905b601f1984168510620005ea576001945083601f19811610620005d0575b505050811b0160005562000145565b015160001960f88460031b161c19169055388080620005c1565b81810151835560209485019460019093019290910190620005a4565b600080529091506000805160206200308f833981519152601f840160051c8101602085106200065e575b90849392915b601f830160051c820181106200064e57505062000116565b6000815585945060010162000636565b508062000630565b91607f169162000100565b600080fd5b60408051919082016001600160401b038111838210176200056857604052565b51906001600160a01b03821682036200067157565b6001600160a01b031660008181527f6d5257204ebe7d88fd91ae87941cb2dd9d8062b64ae5a2bd2d28ec40b9fbf6df602052604081205490919060ff16620007395781805260076020526040822081835260205260408220600160ff1982541617905533917f2f8788117e7eff1d82e926ec794901d17c78024a50270940304540a733656f0d8180a4600190565b509056fe608080604052600436101561001357600080fd5b60003560e01c90816301ffc9a714611b075750806306fdde0314611a48578063081812fc14611a0a578063095ea7b3146119235780631fccf672146118fa57806323b872dd146118e3578063248a9ca3146118b45780632f2ff15d1461187557806333a7ad761461182f57806336568abe146117e857806340bd2e23146116f657806342842e0e146116ce57806347e7ef2414610b885780636352211e14610b58578063692058c214610b2f57806370a0823114610ad6578063715018a614610a7957806375794a3c14610a5b5780637d1f2de714610a3257806380a3301b14610a0c5780638da5cb5b146109e357806391d148541461099657806395d89b411461088b57806399fbab8814610827578063a217fddf1461080b578063a22cb4651461075d578063a7f0e34214610734578063b26dd040146106fa578063b88d4fde14610671578063c45a01551461062c578063c87b56dd146105d5578063d47ce0a6146105ac578063d547741f1461056b578063db006a75146103b5578063e94032561461037b578063e985e9c514610325578063f2fde38b1461029c5763f4993018146101c157600080fd5b34610297576020366003190112610297576004356101de81612177565b6001600160a01b03906101f4908216331461240c565b81600052600f602052604060002090808254166001830192835490606461022361021c612619565b51846122b3565b048095556002429101556040519081528460208201527f91fb9d98b786c57d74c099ccd2beca1739e9f6a81fb49001ca465c4b7591bbe260403392a3600954169160405191825260208201527ff5681f9d0db1b911ac18ee83d515a1cf1051853a9eae418316a2fdf7dea427c560403392a3005b600080fd5b34610297576020366003190112610297576102b5611bd4565b6102bd611e50565b6001600160a01b0390811690811561030c57600654826001600160601b0360a01b821617600655167f8be0079c531659141344cd1fd0a4f28419497f9722a3daafe3b4186f6b6457e0600080a3005b604051631e4fbdf760e01b815260006004820152602490fd5b346102975760403660031901126102975761033e611bd4565b610346611bea565b9060018060a01b03809116600052600560205260406000209116600052602052602060ff604060002054166040519015158152f35b34610297576020366003190112610297576001600160a01b0361039c611bd4565b1660005260106020526020604060002054604051908152f35b346102975760208060031936011261029757600435906103d482612177565b6001600160a01b0392906103eb908416331461240c565b80600052600f825260406000209260405161040581611c35565b6104458286541680835260018701549060ff600488860199848b5260028101546040880152600381015460608801520154161515608085015233906125a9565b845182825116600052601085526104626040600020918254612448565b9055826000526002845281604060002054168360008215928315610538575b828252600288526040822080546001600160a01b03191690557fddf252ad1be2c89b69c2b068fc378daa952ba7f163c4a11628f55a4df523b3ef8280a461051f5782600052600f84526000600460408220828155826001820155826002820155826003820155015551169251916040519283528201527f91fb9d98b786c57d74c099ccd2beca1739e9f6a81fb49001ca465c4b7591bbe260403392a3005b604051637e27328960e01b815260048101849052602490fd5b600083815260046020526040902080546001600160a01b0319169055808252600388526040822082198154019055610481565b34610297576040366003190112610297576105aa60043561058a611bea565b908060005260076020526105a5600160406000200154611d15565b611dd9565b005b3461029757600036600319011261029757600b546040516001600160a01b039091168152602090f35b34610297576020366003190112610297576105f1600435612177565b50600060405161060081611c83565b5261062860405161061081611c83565b60008152604051918291602083526020830190611baf565b0390f35b34610297576000366003190112610297576040517f00000000000000000000000000000000000000000000000000000000000000006001600160a01b03168152602090f35b346102975760803660031901126102975761068a611bd4565b610692611bea565b6064359167ffffffffffffffff83116102975736602384011215610297578260040135916106bf83611cf9565b926106cd6040519485611cd7565b80845236602482870101116102975760208160009260246105aa9801838801378501015260443591612022565b34610297576020366003190112610297576001600160a01b0361071b611bd4565b1660005260116020526020604060002054604051908152f35b3461029757600036600319011261029757600d546040516001600160a01b039091168152602090f35b3461029757604036600319011261029757610776611bd4565b6024359081151590818303610297576001600160a01b03169182156107f2576107c49033600052600560205260406000208460005260205260406000209060ff801983541691151516179055565b6040519081527f17307eab39ab6107e8899845ad3d59bd9653f200f220920489ca2b5937696c3160203392a3005b604051630b61174360e31b815260048101849052602490fd5b3461029757600036600319011261029757602060405160008152f35b3461029757602036600319011261029757600435600052600f60205260a06040600020600180831b0381541690600181015490600281015460ff60046003840154930154169260405194855260208501526040840152606083015215156080820152f35b3461029757600036600319011261029757604051600060019081549182811c9181841691821561098c575b60209485851084146109765785879486865291826000146109565750506001146108fc575b506108e892500383611cd7565b610628604051928284938452830190611baf565b6000818152859250907fb10e2d527612073b26eecdfd717e6a320cf44b4afac2b0732d9fcbe2b7fa0cf65b85831061093e5750506108e89350820101856108db565b80548389018501528794508693909201918101610927565b60ff1916858201526108e895151560051b85010192508791506108db9050565b634e487b7160e01b600052602260045260246000fd5b92607f16926108b6565b34610297576040366003190112610297576109af611bea565b600435600052600760205260406000209060018060a01b0316600052602052602060ff604060002054166040519015158152f35b34610297576000366003190112610297576006546040516001600160a01b039091168152602090f35b34610297576020366003190112610297576020610a2a600435612455565b604051908152f35b3461029757600036600319011261029757600a546040516001600160a01b039091168152602090f35b34610297576000366003190112610297576020600e54604051908152f35b3461029757600036600319011261029757610a92611e50565b600680546001600160a01b031981169091556000906001600160a01b03167f8be0079c531659141344cd1fd0a4f28419497f9722a3daafe3b4186f6b6457e08280a3005b34610297576020366003190112610297576001600160a01b03610af7611bd4565b168015610b165760005260036020526020604060002054604051908152f35b6040516322718ad960e21b815260006004820152602490fd5b3461029757600036600319011261029757600c546040516001600160a01b039091168152602090f35b34610297576020366003190112610297576020610b76600435612177565b6040516001600160a01b039091168152f35b3461029757604036600319011261029757610ba1611bd4565b6002600854146116bc576002600855604051903360601b8060208401526001600160601b03198260601b1660348401526000805160206128fc833981519152610c356024948535604882015260488152610bfa81611c9f565b60405191829160408352601060408401526f14dd185c9d1a5b99c819195c1bdcda5d60821b6060840152608060208401526080830190611baf565b0390a1823515611678576001600160a01b0382161561163457610eb7610c5a836122c6565b6009546001600160a01b031690610c70826122c6565b600a546001600160a01b031692906000805160206128fc83398151915290610d9b90610d61603d610ca0886122c6565b600b546001600160a01b03169790610cb7896122c6565b906040519586936602a37b5b2b71d160cd1b6020860152610ce2815180926020602789019101611b8c565b84016601031aaa9a21d160cd1b6027820152610d08825180936020602e85019101611b8c565b016601031a2aaa91d160cd1b602e820152610d2d825180936020603585019101611b8c565b016701031a922a0a61d160c51b6035820152610d528251809360208785019101611b8c565b0103601d810184520182611cd7565b60405191829160408352600f60408401526e546f6b656e2061646472657373657360881b6060840152608060208401526080830190611baf565b0390a16001600160a01b0386168114918215611621575b821561160e575b610eb291605e91610de4610dde610dd8610dd28c6122c6565b946122c6565b976122c6565b916122c6565b906040519687937202ab739bab83837b93a32b2103a37b5b2b71d1606d1b6020860152610e1b815180926020603389019101611b8c565b84017f2e20537570706f7274656420746f6b656e733a20635553443a200000000000006033820152610e57825180936020604d85019101611b8c565b01670161031a2aaa91d160c51b604d820152610e7d825180936020605585019101611b8c565b01680161031a922a0a61d160bd1b6055820152610ea38251809360208785019101611b8c565b0103603e810185520183611cd7565b6121d2565b6000805160206128fc833981519152610f346040516001600160601b03198560601b16602082015260148152610eec81611cbb565b60405191829160408352601c60408401527f546f6b656e20737570706f7274656420636865636b20706173736564000000006060840152608060208401526080830190611baf565b0390a1604051636eb1769f60e11b815233600482015230848201526020816044816001600160a01b0387165afa90811561159a576000916115da575b506110526000805160206128fc83398151915291610ff46040517f496e73756666696369656e7420616c6c6f77616e63652e20526571756972656460208201526101d160f51b6040820152873560428201526b0161020b8383937bb32b21d160a51b606282015282606e820152606e8152610fea81611c35565b87358310156121d2565b604051906020820152853560408201526040815261101181611c67565b604051918291604083526016604084015275105b1b1bddd85b98d94818da1958dac81c185cdcd95960521b6060840152608060208401526080830190611baf565b0390a16040516370a0823160e01b815233600482015260208185816001600160a01b0387165afa90811561159a576000916115a6575b506111636000805160206128fc833981519152916111076040517f496e73756666696369656e7420746f6b656e2062616c616e63652e2052657175602082015265034b932b21d160d51b6040820152873560468201526c0161020bb30b4b630b136329d1609d1b606682015282607382015260738152610fea81611c35565b604051906020820152853560408201526040815261112481611c67565b60405191829160408352601460408401527310985b185b98d94818da1958dac81c185cdcd95960621b6060840152608060208401526080830190611baf565b0390a16111a76040516323b872dd60e01b60208201523385820152306044820152843560648201526064815261119881611c35565b6001600160a01b038416612230565b600e54906111b4826121fe565b600e55600d5460405163c4f9870b60e01b81526001600160a01b0385811660048301529091602091839188918391165afa801561159a57600090611566575b61128c91506040519061120582611c35565b60018060a01b03861682528635602083015242604083015260608201526001608082015283600052600f6020526004608060406000209260018060a01b038151166001600160601b0360a01b8554161784556020810151600185015560408101516002850155606081015160038501550151151591019060ff801983541691151516179055565b6000805160206128fc83398151915261130f6040518460208201526001600160601b03198660601b16604082015286356054820152426074820152607481526112d481611c35565b60405191829160408352601060408401526f141bdcda5d1a5bdb8818dc99585d195960821b6060840152608060208401526080830190611baf565b0390a160018060a01b0383166000526010602052604060002061133485358254612223565b905560018060a01b03831660005260106020526000805160206128fc8339815191526113c9604060002054604051906001600160601b03198760601b16602083015260348201526034815261138881611c67565b604051918291604083526016604084015275151bdd185b0819195c1bdcda5d1cc81d5c19185d195960521b6060840152608060208401526080830190611baf565b0390a1331561154e576000828152600260205260409020546001600160a01b031680151590839082611517575b3360005260036020526040600020600181540190558160005260026020526040600020336001600160601b0360a01b82541617905533907fddf252ad1be2c89b69c2b068fc378daa952ba7f163c4a11628f55a4df523b3ef600080a46114ff576114ba6000805160206128fc833981519152916040519084602083015260408201526034815261148581611c67565b60405191829160408352600a604084015269139195081b5a5b9d195960b21b6060840152608060208401526080830190611baf565b0390a160405192358352602083015260018060a01b0316907ff5681f9d0db1b911ac18ee83d515a1cf1051853a9eae418316a2fdf7dea427c560403392a36001600855005b6040516339e3563760e11b8152600060048201528490fd5b600082815260046020526040902080546001600160a01b0319169055806000526003602052604060002060001981540190556113f6565b604051633250574960e11b8152600060048201528490fd5b506020813d602011611592575b8161158060209383611cd7565b810103126102975761128c90516111f3565b3d9150611573565b6040513d6000823e3d90fd5b90506020813d6020116115d2575b816115c160209383611cd7565b810103126102975751611163611088565b3d91506115b4565b90506020813d602011611606575b816115f560209383611cd7565b810103126102975751611052610f70565b3d91506115e8565b6001600160a01b03871681149250610db9565b6001600160a01b03871684149250610db2565b60405162461bcd60e51b815260206004820152601c818501527f546f6b656e20616464726573732063616e6e6f74206265207a65726f000000006044820152606490fd5b60405162461bcd60e51b815260206004820152601d818501527f416d6f756e74206d7573742062652067726561746572207468616e20300000006044820152606490fd5b604051633ee5aeb560e01b8152600490fd5b34610297576105aa6116df36611c00565b90604051926116ed84611c83565b60008452612022565b346102975760203660031901126102975760043561171381612177565b6001600160a01b0390611729908216331461240c565b61173282612455565b9081156117af5782600052600f60205260406000204260028201558181541660005260116020526040600020611769848254612223565b90556117798333848454166125a9565b54169160405191825260208201527fb10c79aa8ce52424b7676b33fe7b45ea2516b75f43f3b5c0c730e52ca8ef36a560403392a3005b60405162461bcd60e51b81526020600482015260116024820152704e6f207969656c6420746f20636c61696d60781b6044820152606490fd5b3461029757604036600319011261029757611801611bea565b336001600160a01b0382160361181d576105aa90600435611dd9565b60405163334bd91960e11b8152600490fd5b3461029757600036600319011261029757611848612619565b60405190600090825b6003831061185e57606084f35b600190825181526020809101920192019190611851565b34610297576040366003190112610297576105aa600435611894611bea565b908060005260076020526118af600160406000200154611d15565b611d59565b346102975760203660031901126102975760043560005260076020526020600160406000200154604051908152f35b34610297576105aa6118f436611c00565b91611e7c565b34610297576000366003190112610297576009546040516001600160a01b039091168152602090f35b346102975760403660031901126102975761193c611bd4565b60243561194881612177565b331515806119f7575b806119ca575b6119b2576001600160a01b039283169282918491167f8c5be1e5ebec7d5bd14f71427d1e84f3dd0314c0f7b2291e5b200ac8c7c3b925600080a4600090815260046020526040902080546001600160a01b0319169091179055005b60405163a9fbf51f60e01b8152336004820152602490fd5b5060018060a01b038116600052600560205260406000203360005260205260ff6040600020541615611957565b506001600160a01b038116331415611951565b3461029757602036600319011261029757600435611a2781612177565b506000526004602052602060018060a01b0360406000205416604051908152f35b34610297576000366003190112610297576040516000805490600182811c91818416918215611afd575b6020948585108414610976578587948686529182600014610956575050600114611aa357506108e892500383611cd7565b6000808052859250907f290decd9548b62a8d60345a988386fc84ba6bc95484008f6362f93160ef3e5635b858310611ae55750506108e89350820101856108db565b80548389018501528794508693909201918101611ace565b92607f1692611a72565b34610297576020366003190112610297576004359063ffffffff60e01b821680920361029757602091637965db0b60e01b8114908115611b49575b5015158152f35b6380ac58cd60e01b811491508115611b7b575b8115611b6a575b5083611b42565b6301ffc9a760e01b14905083611b63565b635b5e139f60e01b81149150611b5c565b60005b838110611b9f5750506000910152565b8181015183820152602001611b8f565b90602091611bc881518092818552858086019101611b8c565b601f01601f1916010190565b600435906001600160a01b038216820361029757565b602435906001600160a01b038216820361029757565b6060906003190112610297576001600160a01b0390600435828116810361029757916024359081168103610297579060443590565b60a0810190811067ffffffffffffffff821117611c5157604052565b634e487b7160e01b600052604160045260246000fd5b6060810190811067ffffffffffffffff821117611c5157604052565b6020810190811067ffffffffffffffff821117611c5157604052565b6080810190811067ffffffffffffffff821117611c5157604052565b6040810190811067ffffffffffffffff821117611c5157604052565b90601f8019910116810190811067ffffffffffffffff821117611c5157604052565b67ffffffffffffffff8111611c5157601f01601f191660200190565b80600052600760205260406000203360005260205260ff6040600020541615611d3b5750565b6044906040519063e2517d3f60e01b82523360048301526024820152fd5b906000918083526007602052604083209160018060a01b03169182845260205260ff60408420541615600014611dd45780835260076020526040832082845260205260408320600160ff198254161790557f2f8788117e7eff1d82e926ec794901d17c78024a50270940304540a733656f0d339380a4600190565b505090565b906000918083526007602052604083209160018060a01b03169182845260205260ff604084205416600014611dd4578083526007602052604083208284526020526040832060ff1981541690557ff6391f5c32d9c69d2a47ea670b442974b53935d1edc7fd64eb21e047a839171b339380a4600190565b6006546001600160a01b03163303611e6457565b60405163118cdaa760e01b8152336004820152602490fd5b6001600160a01b03918216929091831561200957600092828452826020956002875260409684888820541696879133151580611f6c575b509060027fddf252ad1be2c89b69c2b068fc378daa952ba7f163c4a11628f55a4df523b3ef9284611f39575b858352600381528b8320805460010190558683525289812080546001600160a01b0319168517905580a41692838303611f185750505050565b6064945051926364283d7b60e01b8452600484015260248301526044820152fd5b600087815260046020526040902080546001600160a01b0319169055848352600381528b83208054600019019055611edf565b91939450915080611fc8575b15611f8857859291879138611eb3565b878688611fa5576024915190637e27328960e01b82526004820152fd5b905163177e802f60e01b81523360048201526024810191909152604490fd5b0390fd5b503387148015611fed575b80611f785750858252600481523385898420541614611f78565b5086825260058152878220338352815260ff8883205416611fd3565b604051633250574960e11b815260006004820152602490fd5b929092612030838583611e7c565b833b61203d575b50505050565b604051630a85bd0160e11b8082523360048301526001600160a01b0392831660248301526044820194909452608060648201529493169260209290918590612089906084830190611baf565b039483816000978189895af1869181612133575b506120fe575050503d6000146120f5573d6120b781611cf9565b906120c56040519283611cd7565b81528093823d92013e5b825192836120f057604051633250574960e11b815260048101849052602490fd5b019050fd5b606092506120cf565b919450915063ffffffff60e01b160361211b575038808080612037565b60249060405190633250574960e11b82526004820152fd5b9091508481813d8311612170575b61214b8183611cd7565b8101031261216c57516001600160e01b03198116810361216c57903861209d565b8680fd5b503d612141565b6000818152600260205260409020546001600160a01b031690811561219a575090565b60249060405190637e27328960e01b82526004820152fd5b81156121bc570490565b634e487b7160e01b600052601260045260246000fd5b156121da5750565b60405162461bcd60e51b815260206004820152908190611fc4906024830190611baf565b600019811461220d5760010190565b634e487b7160e01b600052601160045260246000fd5b9190820180921161220d57565b906000602091828151910182855af11561159a576000513d61228357506001600160a01b0381163b155b6122615750565b604051635274afe760e01b81526001600160a01b039091166004820152602490fd5b6001141561225a565b90815181101561229d570160200190565b634e487b7160e01b600052603260045260246000fd5b8181029291811591840414171561220d57565b604051906001600160a01b03166122dc82611cbb565b6010825260206f181899199a1a9b1b9c1cb0b131b232b360811b818401526040519261230784611c67565b602a8452818401604036823784511561229d576030905383519260019384101561229d576078602186015360005b6014811061234557505050505090565b600c810180821161220d578481101561229d5782901a60046001600160f81b0319600f8161237785851c83168961228c565b511693858a1b946002908787048214881517156123f7578682018092116123f7576123ac6123b49493928e9260001a9261228c565b53168761228c565b51169060039283018093116123e25750906123d76123dd939260001a918961228c565b536121fe565b612335565b601190634e487b7160e01b6000525260246000fd5b601186634e487b7160e01b6000525260246000fd5b1561241357565b60405162461bcd60e51b815260206004820152600d60248201526c2737ba1027232a1037bbb732b960991b6044820152606490fd5b9190820391821161220d57565b6001600160a01b03908161246882612177565b1615612564576000908152602090600f825260408120906040519061248c82611c35565b848354168252836124cc60018501549482850195865260ff6004600283015492836040890152600381015460608901520154161515608086015242612448565b9580600d541693511660246040518095819363c4f9870b60e01b835260048301525afa93841561255757819461251d575b505050916125146125199263bbf81e0094516122b3565b6122b3565b0490565b909180939450813d8311612550575b6125368183611cd7565b8101031261254d57505190612514816125196124fd565b80fd5b503d61252c565b50604051903d90823e3d90fd5b60405162461bcd60e51b815260206004820152601760248201527f506f736974696f6e20646f6573206e6f742065786973740000000000000000006044820152606490fd5b60405163a9059cbb60e01b60208201526001600160a01b039290921660248301526044808301939093529181526125ea916125e5606483611cd7565b612230565b565b80511561229d5760200190565b80516001101561229d5760400190565b80516002101561229d5760600190565b60406060815161262881611c67565b36903780519061263782611c9f565b6003825260208083019060603683376009546001600160a01b039190821661265e866125ec565b5281600a541661266d866125f9565b5281600b541661267c86612609565b5281600d54168451809463379698e960e21b8252602494858301600499868b860152518091526044840192916000905b878383106128de57505050505091818060009403915afa9283156128d357600093612826575b506126fc6126f36126e2856125ec565b516126ec866125f9565b5190612223565b6126ec85612609565b9182156128045784519561270f87611c67565b612718856125ec565b5192606493848102908082048614901517156127f05785612738916121b2565b8852612743866125f9565b51848102908082048614901517156127f0578561275f916121b2565b9088015261276c856125ec565b51838102908082048514901517156127dc5784612788916121b2565b8303948386116127dc5761279b906125f9565b518381029381850414901517156127c95750506127c292916127bc916121b2565b90612448565b9082015290565b601190634e487b7160e01b600052526000fd5b50601190634e487b7160e01b600052526000fd5b83601184634e487b7160e01b600052526000fd5b5093505050806021602292519361281a85611c67565b81855284015282015290565b90923d8082843e6128378184611cd7565b820190848383031261254d57825167ffffffffffffffff938482116128cf570182601f820112156128cb5780519384116128b9578360051b9187519461287f88850187611cd7565b8552868086019383010193841161254d575085809101915b8383106128a9575050505091386126d2565b8251815291810191869101612897565b634e487b7160e01b8252604188528482fd5b5080fd5b8280fd5b84513d6000823e3d90fd5b8451821686528a96509485019490930192600191909101906126ac56fe0c1267f8b6a6608f6166ea98ce91e23fe3bf0d92464854249481dd7d07a5d464a2646970667358221220cf01ea5c534e0061cace20f91221ff24de1fac12ce7298851a7d60aea024029664736f6c63430008140033290decd9548b62a8d60345a988386fc84ba6bc95484008f6362f93160ef3e563b10e2d527612073b26eecdfd717e6a320cf44b4afac2b0732d9fcbe2b7fa0cf6","opcodes":"PUSH1 0xA0 CALLVALUE PUSH3 0x671 JUMPI PUSH1 0x1F PUSH3 0x30CF CODESIZE DUP2 SWAP1 SUB SWAP2 DUP3 ADD PUSH1 0x1F NOT AND DUP4 ADD SWAP3 SWAP2 SWAP1 PUSH1 0x1 PUSH1 0x1 PUSH1 0x40 SHL SUB DUP5 GT DUP4 DUP6 LT OR PUSH3 0x568 JUMPI DUP2 PUSH1 0xC0 SWAP3 DUP5 SWAP3 PUSH1 0x40 SWAP7 DUP8 MSTORE DUP4 CODECOPY DUP2 ADD SUB SLT PUSH3 0x671 JUMPI PUSH3 0x51 DUP2 PUSH3 0x696 JUMP JUMPDEST SWAP1 PUSH3 0x60 PUSH1 0x20 DUP3 ADD PUSH3 0x696 JUMP JUMPDEST SWAP1 PUSH3 0x6E DUP5 DUP3 ADD PUSH3 0x696 JUMP JUMPDEST SWAP1 PUSH3 0x7D PUSH1 0x60 DUP3 ADD PUSH3 0x696 JUMP JUMPDEST PUSH3 0x99 PUSH1 0xA0 PUSH3 0x91 PUSH1 0x80 DUP6 ADD PUSH3 0x696 JUMP JUMPDEST SWAP4 ADD PUSH3 0x696 JUMP JUMPDEST SWAP3 PUSH3 0xA4 PUSH3 0x676 JUMP JUMPDEST PUSH1 0xB DUP2 MSTORE PUSH11 0x161B595B9D1BD5985D5B1D PUSH1 0xAA SHL PUSH1 0x20 DUP3 ADD MSTORE PUSH3 0xC6 PUSH3 0x676 JUMP JUMPDEST PUSH1 0x7 DUP2 MSTORE PUSH7 0x16135590555315 PUSH1 0xCA SHL PUSH1 0x20 DUP3 ADD MSTORE DUP2 MLOAD SWAP1 SWAP2 PUSH1 0x1 PUSH1 0x1 PUSH1 0x40 SHL SUB DUP3 GT PUSH3 0x568 JUMPI PUSH1 0x0 SLOAD SWAP1 PUSH1 0x1 DUP3 DUP2 SHR SWAP3 AND DUP1 ISZERO PUSH3 0x666 JUMPI JUMPDEST PUSH1 0x20 DUP4 LT EQ PUSH3 0x547 JUMPI DUP2 PUSH1 0x1F DUP5 SWAP4 GT PUSH3 0x606 JUMPI JUMPDEST POP PUSH1 0x20 SWAP1 PUSH1 0x1F DUP4 GT PUSH1 0x1 EQ PUSH3 0x58A JUMPI PUSH1 0x0 SWAP3 PUSH3 0x57E JUMPI JUMPDEST POP POP DUP2 PUSH1 0x1 SHL SWAP2 PUSH1 0x0 NOT SWAP1 PUSH1 0x3 SHL SHR NOT AND OR PUSH1 0x0 SSTORE JUMPDEST DUP1 MLOAD SWAP1 PUSH1 0x1 PUSH1 0x1 PUSH1 0x40 SHL SUB DUP3 GT PUSH3 0x568 JUMPI PUSH1 0x1 SLOAD SWAP1 PUSH1 0x1 DUP3 DUP2 SHR SWAP3 AND DUP1 ISZERO PUSH3 0x55D JUMPI JUMPDEST PUSH1 0x20 DUP4 LT EQ PUSH3 0x547 JUMPI DUP2 PUSH1 0x1F DUP5 SWAP4 GT PUSH3 0x4E3 JUMPI JUMPDEST POP PUSH1 0x20 SWAP1 PUSH1 0x1F DUP4 GT PUSH1 0x1 EQ PUSH3 0x469 JUMPI PUSH1 0x0 SWAP3 PUSH3 0x45D JUMPI JUMPDEST POP POP DUP2 PUSH1 0x1 SHL SWAP2 PUSH1 0x0 NOT SWAP1 PUSH1 0x3 SHL SHR NOT AND OR PUSH1 0x1 SSTORE JUMPDEST CALLER ISZERO PUSH3 0x445 JUMPI PUSH1 0x6 DUP1 SLOAD CALLER PUSH1 0x1 PUSH1 0x1 PUSH1 0xA0 SHL SUB NOT DUP1 DUP4 AND DUP3 OR SWAP1 SWAP4 SSTORE DUP10 MLOAD SWAP9 SWAP3 SWAP8 PUSH1 0x1 PUSH1 0x1 PUSH1 0xA0 SHL SUB SWAP4 SWAP1 SWAP3 DUP5 SWAP3 SWAP1 DUP4 AND PUSH32 0x8BE0079C531659141344CD1FD0A4F28419497F9722A3DAAFE3B4186F6B6457E0 PUSH1 0x0 DUP1 LOG3 PUSH1 0x1 PUSH1 0x8 SSTORE PUSH1 0x1 PUSH1 0xE SSTORE AND SWAP8 DUP9 ISZERO PUSH3 0x403 JUMPI POP DUP2 AND SWAP2 DUP3 ISZERO PUSH3 0x3BF JUMPI DUP2 AND SWAP3 DUP4 ISZERO PUSH3 0x37B JUMPI DUP2 AND SWAP4 DUP5 ISZERO PUSH3 0x337 JUMPI DUP2 AND SWAP5 DUP6 ISZERO PUSH3 0x2F3 JUMPI AND SWAP6 DUP7 ISZERO PUSH3 0x2AF JUMPI PUSH1 0x80 MSTORE DUP5 PUSH1 0x9 SLOAD AND OR PUSH1 0x9 SSTORE DUP4 PUSH1 0xA SLOAD AND OR PUSH1 0xA SSTORE DUP3 PUSH1 0xB SLOAD AND OR PUSH1 0xB SSTORE DUP2 PUSH1 0xC SLOAD AND OR PUSH1 0xC SSTORE PUSH1 0xD SLOAD AND OR PUSH1 0xD SSTORE PUSH3 0x285 CALLER PUSH3 0x6AB JUMP JUMPDEST POP PUSH1 0x1 PUSH1 0xE SSTORE PUSH1 0x1 PUSH1 0xFF NOT PUSH1 0x12 SLOAD AND OR PUSH1 0x12 SSTORE MLOAD PUSH2 0x2951 SWAP1 DUP2 PUSH3 0x73E DUP3 CODECOPY PUSH1 0x80 MLOAD DUP2 PUSH2 0x642 ADD MSTORE RETURN JUMPDEST DUP8 MLOAD PUSH3 0x461BCD PUSH1 0xE5 SHL DUP2 MSTORE PUSH1 0x20 PUSH1 0x4 DUP3 ADD MSTORE PUSH1 0x16 PUSH1 0x24 DUP3 ADD MSTORE PUSH32 0x496E76616C6964206F7261636C65206164647265737300000000000000000000 PUSH1 0x44 DUP3 ADD MSTORE PUSH1 0x64 SWAP1 REVERT JUMPDEST DUP9 MLOAD PUSH3 0x461BCD PUSH1 0xE5 SHL DUP2 MSTORE PUSH1 0x20 PUSH1 0x4 DUP3 ADD MSTORE PUSH1 0x13 PUSH1 0x24 DUP3 ADD MSTORE PUSH32 0x496E76616C696420444558206164647265737300000000000000000000000000 PUSH1 0x44 DUP3 ADD MSTORE PUSH1 0x64 SWAP1 REVERT JUMPDEST DUP9 MLOAD PUSH3 0x461BCD PUSH1 0xE5 SHL DUP2 MSTORE PUSH1 0x20 PUSH1 0x4 DUP3 ADD MSTORE PUSH1 0x15 PUSH1 0x24 DUP3 ADD MSTORE PUSH32 0x496E76616C696420635245414C20616464726573730000000000000000000000 PUSH1 0x44 DUP3 ADD MSTORE PUSH1 0x64 SWAP1 REVERT JUMPDEST DUP9 MLOAD PUSH3 0x461BCD PUSH1 0xE5 SHL DUP2 MSTORE PUSH1 0x20 PUSH1 0x4 DUP3 ADD MSTORE PUSH1 0x14 PUSH1 0x24 DUP3 ADD MSTORE PUSH32 0x496E76616C696420634555522061646472657373000000000000000000000000 PUSH1 0x44 DUP3 ADD MSTORE PUSH1 0x64 SWAP1 REVERT JUMPDEST DUP9 MLOAD PUSH3 0x461BCD PUSH1 0xE5 SHL DUP2 MSTORE PUSH1 0x20 PUSH1 0x4 DUP3 ADD MSTORE PUSH1 0x14 PUSH1 0x24 DUP3 ADD MSTORE PUSH32 0x496E76616C696420635553442061646472657373000000000000000000000000 PUSH1 0x44 DUP3 ADD MSTORE PUSH1 0x64 SWAP1 REVERT JUMPDEST PUSH3 0x461BCD PUSH1 0xE5 SHL DUP2 MSTORE PUSH1 0x20 PUSH1 0x4 DUP3 ADD MSTORE PUSH1 0x17 PUSH1 0x24 DUP3 ADD MSTORE PUSH32 0x496E76616C696420666163746F72792061646472657373000000000000000000 PUSH1 0x44 DUP3 ADD MSTORE PUSH1 0x64 SWAP1 REVERT JUMPDEST DUP7 MLOAD PUSH4 0x1E4FBDF7 PUSH1 0xE0 SHL DUP2 MSTORE PUSH1 0x0 PUSH1 0x4 DUP3 ADD MSTORE PUSH1 0x24 SWAP1 REVERT JUMPDEST ADD MLOAD SWAP1 POP CODESIZE DUP1 PUSH3 0x199 JUMP JUMPDEST PUSH1 0x1 PUSH1 0x0 SWAP1 DUP2 MSTORE PUSH1 0x0 DUP1 MLOAD PUSH1 0x20 PUSH3 0x30AF DUP4 CODECOPY DUP2 MLOAD SWAP2 MSTORE SWAP4 POP PUSH1 0x1F NOT DUP6 AND SWAP1 JUMPDEST DUP2 DUP2 LT PUSH3 0x4CA JUMPI POP SWAP1 DUP5 PUSH1 0x1 SWAP6 SWAP5 SWAP4 SWAP3 LT PUSH3 0x4B0 JUMPI JUMPDEST POP POP POP DUP2 SHL ADD PUSH1 0x1 SSTORE PUSH3 0x1AF JUMP JUMPDEST ADD MLOAD PUSH1 0x0 NOT PUSH1 0xF8 DUP5 PUSH1 0x3 SHL AND SHR NOT AND SWAP1 SSTORE CODESIZE DUP1 DUP1 PUSH3 0x4A1 JUMP JUMPDEST SWAP3 SWAP4 PUSH1 0x20 PUSH1 0x1 DUP2 SWAP3 DUP8 DUP7 ADD MLOAD DUP2 SSTORE ADD SWAP6 ADD SWAP4 ADD PUSH3 0x489 JUMP JUMPDEST PUSH1 0x1 PUSH1 0x0 MSTORE SWAP1 SWAP2 POP PUSH1 0x0 DUP1 MLOAD PUSH1 0x20 PUSH3 0x30AF DUP4 CODECOPY DUP2 MLOAD SWAP2 MSTORE PUSH1 0x1F DUP5 ADD PUSH1 0x5 SHR DUP2 ADD SWAP2 PUSH1 0x20 DUP6 LT PUSH3 0x53C JUMPI JUMPDEST SWAP1 PUSH1 0x1F DUP6 SWAP5 SWAP4 SWAP3 ADD PUSH1 0x5 SHR ADD SWAP1 JUMPDEST DUP2 DUP2 LT PUSH3 0x52C JUMPI POP PUSH3 0x180 JUMP JUMPDEST PUSH1 0x0 DUP2 SSTORE DUP5 SWAP4 POP PUSH1 0x1 ADD PUSH3 0x51D JUMP JUMPDEST SWAP1 SWAP2 POP DUP2 SWAP1 PUSH3 0x50F JUMP JUMPDEST PUSH4 0x4E487B71 PUSH1 0xE0 SHL PUSH1 0x0 MSTORE PUSH1 0x22 PUSH1 0x4 MSTORE PUSH1 0x24 PUSH1 0x0 REVERT JUMPDEST SWAP2 PUSH1 0x7F AND SWAP2 PUSH3 0x16A JUMP JUMPDEST PUSH4 0x4E487B71 PUSH1 0xE0 SHL PUSH1 0x0 MSTORE PUSH1 0x41 PUSH1 0x4 MSTORE PUSH1 0x24 PUSH1 0x0 REVERT JUMPDEST ADD MLOAD SWAP1 POP CODESIZE DUP1 PUSH3 0x12F JUMP JUMPDEST PUSH1 0x0 DUP1 DUP1 MSTORE SWAP4 POP PUSH1 0x0 DUP1 MLOAD PUSH1 0x20 PUSH3 0x308F DUP4 CODECOPY DUP2 MLOAD SWAP2 MSTORE SWAP2 SWAP1 JUMPDEST PUSH1 0x1F NOT DUP5 AND DUP6 LT PUSH3 0x5EA JUMPI PUSH1 0x1 SWAP5 POP DUP4 PUSH1 0x1F NOT DUP2 AND LT PUSH3 0x5D0 JUMPI JUMPDEST POP POP POP DUP2 SHL ADD PUSH1 0x0 SSTORE PUSH3 0x145 JUMP JUMPDEST ADD MLOAD PUSH1 0x0 NOT PUSH1 0xF8 DUP5 PUSH1 0x3 SHL AND SHR NOT AND SWAP1 SSTORE CODESIZE DUP1 DUP1 PUSH3 0x5C1 JUMP JUMPDEST DUP2 DUP2 ADD MLOAD DUP4 SSTORE PUSH1 0x20 SWAP5 DUP6 ADD SWAP5 PUSH1 0x1 SWAP1 SWAP4 ADD SWAP3 SWAP1 SWAP2 ADD SWAP1 PUSH3 0x5A4 JUMP JUMPDEST PUSH1 0x0 DUP1 MSTORE SWAP1 SWAP2 POP PUSH1 0x0 DUP1 MLOAD PUSH1 0x20 PUSH3 0x308F DUP4 CODECOPY DUP2 MLOAD SWAP2 MSTORE PUSH1 0x1F DUP5 ADD PUSH1 0x5 SHR DUP2 ADD PUSH1 0x20 DUP6 LT PUSH3 0x65E JUMPI JUMPDEST SWAP1 DUP5 SWAP4 SWAP3 SWAP2 JUMPDEST PUSH1 0x1F DUP4 ADD PUSH1 0x5 SHR DUP3 ADD DUP2 LT PUSH3 0x64E JUMPI POP POP PUSH3 0x116 JUMP JUMPDEST PUSH1 0x0 DUP2 SSTORE DUP6 SWAP5 POP PUSH1 0x1 ADD PUSH3 0x636 JUMP JUMPDEST POP DUP1 PUSH3 0x630 JUMP JUMPDEST SWAP2 PUSH1 0x7F AND SWAP2 PUSH3 0x100 JUMP JUMPDEST PUSH1 0x0 DUP1 REVERT JUMPDEST PUSH1 0x40 DUP1 MLOAD SWAP2 SWAP1 DUP3 ADD PUSH1 0x1 PUSH1 0x1 PUSH1 0x40 SHL SUB DUP2 GT DUP4 DUP3 LT OR PUSH3 0x568 JUMPI PUSH1 0x40 MSTORE JUMP JUMPDEST MLOAD SWAP1 PUSH1 0x1 PUSH1 0x1 PUSH1 0xA0 SHL SUB DUP3 AND DUP3 SUB PUSH3 0x671 JUMPI JUMP JUMPDEST PUSH1 0x1 PUSH1 0x1 PUSH1 0xA0 SHL SUB AND PUSH1 0x0 DUP2 DUP2 MSTORE PUSH32 0x6D5257204EBE7D88FD91AE87941CB2DD9D8062B64AE5A2BD2D28EC40B9FBF6DF PUSH1 0x20 MSTORE PUSH1 0x40 DUP2 KECCAK256 SLOAD SWAP1 SWAP2 SWAP1 PUSH1 0xFF AND PUSH3 0x739 JUMPI DUP2 DUP1 MSTORE PUSH1 0x7 PUSH1 0x20 MSTORE PUSH1 0x40 DUP3 KECCAK256 DUP2 DUP4 MSTORE PUSH1 0x20 MSTORE PUSH1 0x40 DUP3 KECCAK256 PUSH1 0x1 PUSH1 0xFF NOT DUP3 SLOAD AND OR SWAP1 SSTORE CALLER SWAP2 PUSH32 0x2F8788117E7EFF1D82E926EC794901D17C78024A50270940304540A733656F0D DUP2 DUP1 LOG4 PUSH1 0x1 SWAP1 JUMP JUMPDEST POP SWAP1 JUMP INVALID PUSH1 0x80 DUP1 PUSH1 0x40 MSTORE PUSH1 0x4 CALLDATASIZE LT ISZERO PUSH2 0x13 JUMPI PUSH1 0x0 DUP1 REVERT JUMPDEST PUSH1 0x0 CALLDATALOAD PUSH1 0xE0 SHR SWAP1 DUP2 PUSH4 0x1FFC9A7 EQ PUSH2 0x1B07 JUMPI POP DUP1 PUSH4 0x6FDDE03 EQ PUSH2 0x1A48 JUMPI DUP1 PUSH4 0x81812FC EQ PUSH2 0x1A0A JUMPI DUP1 PUSH4 0x95EA7B3 EQ PUSH2 0x1923 JUMPI DUP1 PUSH4 0x1FCCF672 EQ PUSH2 0x18FA JUMPI DUP1 PUSH4 0x23B872DD EQ PUSH2 0x18E3 JUMPI DUP1 PUSH4 0x248A9CA3 EQ PUSH2 0x18B4 JUMPI DUP1 PUSH4 0x2F2FF15D EQ PUSH2 0x1875 JUMPI DUP1 PUSH4 0x33A7AD76 EQ PUSH2 0x182F JUMPI DUP1 PUSH4 0x36568ABE EQ PUSH2 0x17E8 JUMPI DUP1 PUSH4 0x40BD2E23 EQ PUSH2 0x16F6 JUMPI DUP1 PUSH4 0x42842E0E EQ PUSH2 0x16CE JUMPI DUP1 PUSH4 0x47E7EF24 EQ PUSH2 0xB88 JUMPI DUP1 PUSH4 0x6352211E EQ PUSH2 0xB58 JUMPI DUP1 PUSH4 0x692058C2 EQ PUSH2 0xB2F JUMPI DUP1 PUSH4 0x70A08231 EQ PUSH2 0xAD6 JUMPI DUP1 PUSH4 0x715018A6 EQ PUSH2 0xA79 JUMPI DUP1 PUSH4 0x75794A3C EQ PUSH2 0xA5B JUMPI DUP1 PUSH4 0x7D1F2DE7 EQ PUSH2 0xA32 JUMPI DUP1 PUSH4 0x80A3301B EQ PUSH2 0xA0C JUMPI DUP1 PUSH4 0x8DA5CB5B EQ PUSH2 0x9E3 JUMPI DUP1 PUSH4 0x91D14854 EQ PUSH2 0x996 JUMPI DUP1 PUSH4 0x95D89B41 EQ PUSH2 0x88B JUMPI DUP1 PUSH4 0x99FBAB88 EQ PUSH2 0x827 JUMPI DUP1 PUSH4 0xA217FDDF EQ PUSH2 0x80B JUMPI DUP1 PUSH4 0xA22CB465 EQ PUSH2 0x75D JUMPI DUP1 PUSH4 0xA7F0E342 EQ PUSH2 0x734 JUMPI DUP1 PUSH4 0xB26DD040 EQ PUSH2 0x6FA JUMPI DUP1 PUSH4 0xB88D4FDE EQ PUSH2 0x671 JUMPI DUP1 PUSH4 0xC45A0155 EQ PUSH2 0x62C JUMPI DUP1 PUSH4 0xC87B56DD EQ PUSH2 0x5D5 JUMPI DUP1 PUSH4 0xD47CE0A6 EQ PUSH2 0x5AC JUMPI DUP1 PUSH4 0xD547741F EQ PUSH2 0x56B JUMPI DUP1 PUSH4 0xDB006A75 EQ PUSH2 0x3B5 JUMPI DUP1 PUSH4 0xE9403256 EQ PUSH2 0x37B JUMPI DUP1 PUSH4 0xE985E9C5 EQ PUSH2 0x325 JUMPI DUP1 PUSH4 0xF2FDE38B EQ PUSH2 0x29C JUMPI PUSH4 0xF4993018 EQ PUSH2 0x1C1 JUMPI PUSH1 0x0 DUP1 REVERT JUMPDEST CALLVALUE PUSH2 0x297 JUMPI PUSH1 0x20 CALLDATASIZE PUSH1 0x3 NOT ADD SLT PUSH2 0x297 JUMPI PUSH1 0x4 CALLDATALOAD PUSH2 0x1DE DUP2 PUSH2 0x2177 JUMP JUMPDEST PUSH1 0x1 PUSH1 0x1 PUSH1 0xA0 SHL SUB SWAP1 PUSH2 0x1F4 SWAP1 DUP3 AND CALLER EQ PUSH2 0x240C JUMP JUMPDEST DUP2 PUSH1 0x0 MSTORE PUSH1 0xF PUSH1 0x20 MSTORE PUSH1 0x40 PUSH1 0x0 KECCAK256 SWAP1 DUP1 DUP3 SLOAD AND PUSH1 0x1 DUP4 ADD SWAP3 DUP4 SLOAD SWAP1 PUSH1 0x64 PUSH2 0x223 PUSH2 0x21C PUSH2 0x2619 JUMP JUMPDEST MLOAD DUP5 PUSH2 0x22B3 JUMP JUMPDEST DIV DUP1 SWAP6 SSTORE PUSH1 0x2 TIMESTAMP SWAP2 ADD SSTORE PUSH1 0x40 MLOAD SWAP1 DUP2 MSTORE DUP5 PUSH1 0x20 DUP3 ADD MSTORE PUSH32 0x91FB9D98B786C57D74C099CCD2BECA1739E9F6A81FB49001CA465C4B7591BBE2 PUSH1 0x40 CALLER SWAP3 LOG3 PUSH1 0x9 SLOAD AND SWAP2 PUSH1 0x40 MLOAD SWAP2 DUP3 MSTORE PUSH1 0x20 DUP3 ADD MSTORE PUSH32 0xF5681F9D0DB1B911AC18EE83D515A1CF1051853A9EAE418316A2FDF7DEA427C5 PUSH1 0x40 CALLER SWAP3 LOG3 STOP JUMPDEST PUSH1 0x0 DUP1 REVERT JUMPDEST CALLVALUE PUSH2 0x297 JUMPI PUSH1 0x20 CALLDATASIZE PUSH1 0x3 NOT ADD SLT PUSH2 0x297 JUMPI PUSH2 0x2B5 PUSH2 0x1BD4 JUMP JUMPDEST PUSH2 0x2BD PUSH2 0x1E50 JUMP JUMPDEST PUSH1 0x1 PUSH1 0x1 PUSH1 0xA0 SHL SUB SWAP1 DUP2 AND SWAP1 DUP2 ISZERO PUSH2 0x30C JUMPI PUSH1 0x6 SLOAD DUP3 PUSH1 0x1 PUSH1 0x1 PUSH1 0x60 SHL SUB PUSH1 0xA0 SHL DUP3 AND OR PUSH1 0x6 SSTORE AND PUSH32 0x8BE0079C531659141344CD1FD0A4F28419497F9722A3DAAFE3B4186F6B6457E0 PUSH1 0x0 DUP1 LOG3 STOP JUMPDEST PUSH1 0x40 MLOAD PUSH4 0x1E4FBDF7 PUSH1 0xE0 SHL DUP2 MSTORE PUSH1 0x0 PUSH1 0x4 DUP3 ADD MSTORE PUSH1 0x24 SWAP1 REVERT JUMPDEST CALLVALUE PUSH2 0x297 JUMPI PUSH1 0x40 CALLDATASIZE PUSH1 0x3 NOT ADD SLT PUSH2 0x297 JUMPI PUSH2 0x33E PUSH2 0x1BD4 JUMP JUMPDEST PUSH2 0x346 PUSH2 0x1BEA JUMP JUMPDEST SWAP1 PUSH1 0x1 DUP1 PUSH1 0xA0 SHL SUB DUP1 SWAP2 AND PUSH1 0x0 MSTORE PUSH1 0x5 PUSH1 0x20 MSTORE PUSH1 0x40 PUSH1 0x0 KECCAK256 SWAP2 AND PUSH1 0x0 MSTORE PUSH1 0x20 MSTORE PUSH1 0x20 PUSH1 0xFF PUSH1 0x40 PUSH1 0x0 KECCAK256 SLOAD AND PUSH1 0x40 MLOAD SWAP1 ISZERO ISZERO DUP2 MSTORE RETURN JUMPDEST CALLVALUE PUSH2 0x297 JUMPI PUSH1 0x20 CALLDATASIZE PUSH1 0x3 NOT ADD SLT PUSH2 0x297 JUMPI PUSH1 0x1 PUSH1 0x1 PUSH1 0xA0 SHL SUB PUSH2 0x39C PUSH2 0x1BD4 JUMP JUMPDEST AND PUSH1 0x0 MSTORE PUSH1 0x10 PUSH1 0x20 MSTORE PUSH1 0x20 PUSH1 0x40 PUSH1 0x0 KECCAK256 SLOAD PUSH1 0x40 MLOAD SWAP1 DUP2 MSTORE RETURN JUMPDEST CALLVALUE PUSH2 0x297 JUMPI PUSH1 0x20 DUP1 PUSH1 0x3 NOT CALLDATASIZE ADD SLT PUSH2 0x297 JUMPI PUSH1 0x4 CALLDATALOAD SWAP1 PUSH2 0x3D4 DUP3 PUSH2 0x2177 JUMP JUMPDEST PUSH1 0x1 PUSH1 0x1 PUSH1 0xA0 SHL SUB SWAP3 SWAP1 PUSH2 0x3EB SWAP1 DUP5 AND CALLER EQ PUSH2 0x240C JUMP JUMPDEST DUP1 PUSH1 0x0 MSTORE PUSH1 0xF DUP3 MSTORE PUSH1 0x40 PUSH1 0x0 KECCAK256 SWAP3 PUSH1 0x40 MLOAD PUSH2 0x405 DUP2 PUSH2 0x1C35 JUMP JUMPDEST PUSH2 0x445 DUP3 DUP7 SLOAD AND DUP1 DUP4 MSTORE PUSH1 0x1 DUP8 ADD SLOAD SWAP1 PUSH1 0xFF PUSH1 0x4 DUP9 DUP7 ADD SWAP10 DUP5 DUP12 MSTORE PUSH1 0x2 DUP2 ADD SLOAD PUSH1 0x40 DUP9 ADD MSTORE PUSH1 0x3 DUP2 ADD SLOAD PUSH1 0x60 DUP9 ADD MSTORE ADD SLOAD AND ISZERO ISZERO PUSH1 0x80 DUP6 ADD MSTORE CALLER SWAP1 PUSH2 0x25A9 JUMP JUMPDEST DUP5 MLOAD DUP3 DUP3 MLOAD AND PUSH1 0x0 MSTORE PUSH1 0x10 DUP6 MSTORE PUSH2 0x462 PUSH1 0x40 PUSH1 0x0 KECCAK256 SWAP2 DUP3 SLOAD PUSH2 0x2448 JUMP JUMPDEST SWAP1 SSTORE DUP3 PUSH1 0x0 MSTORE PUSH1 0x2 DUP5 MSTORE DUP2 PUSH1 0x40 PUSH1 0x0 KECCAK256 SLOAD AND DUP4 PUSH1 0x0 DUP3 ISZERO SWAP3 DUP4 ISZERO PUSH2 0x538 JUMPI JUMPDEST DUP3 DUP3 MSTORE PUSH1 0x2 DUP9 MSTORE PUSH1 0x40 DUP3 KECCAK256 DUP1 SLOAD PUSH1 0x1 PUSH1 0x1 PUSH1 0xA0 SHL SUB NOT AND SWAP1 SSTORE PUSH32 0xDDF252AD1BE2C89B69C2B068FC378DAA952BA7F163C4A11628F55A4DF523B3EF DUP3 DUP1 LOG4 PUSH2 0x51F JUMPI DUP3 PUSH1 0x0 MSTORE PUSH1 0xF DUP5 MSTORE PUSH1 0x0 PUSH1 0x4 PUSH1 0x40 DUP3 KECCAK256 DUP3 DUP2 SSTORE DUP3 PUSH1 0x1 DUP3 ADD SSTORE DUP3 PUSH1 0x2 DUP3 ADD SSTORE DUP3 PUSH1 0x3 DUP3 ADD SSTORE ADD SSTORE MLOAD AND SWAP3 MLOAD SWAP2 PUSH1 0x40 MLOAD SWAP3 DUP4 MSTORE DUP3 ADD MSTORE PUSH32 0x91FB9D98B786C57D74C099CCD2BECA1739E9F6A81FB49001CA465C4B7591BBE2 PUSH1 0x40 CALLER SWAP3 LOG3 STOP JUMPDEST PUSH1 0x40 MLOAD PUSH4 0x7E273289 PUSH1 0xE0 SHL DUP2 MSTORE PUSH1 0x4 DUP2 ADD DUP5 SWAP1 MSTORE PUSH1 0x24 SWAP1 REVERT JUMPDEST PUSH1 0x0 DUP4 DUP2 MSTORE PUSH1 0x4 PUSH1 0x20 MSTORE PUSH1 0x40 SWAP1 KECCAK256 DUP1 SLOAD PUSH1 0x1 PUSH1 0x1 PUSH1 0xA0 SHL SUB NOT AND SWAP1 SSTORE DUP1 DUP3 MSTORE PUSH1 0x3 DUP9 MSTORE PUSH1 0x40 DUP3 KECCAK256 DUP3 NOT DUP2 SLOAD ADD SWAP1 SSTORE PUSH2 0x481 JUMP JUMPDEST CALLVALUE PUSH2 0x297 JUMPI PUSH1 0x40 CALLDATASIZE PUSH1 0x3 NOT ADD SLT PUSH2 0x297 JUMPI PUSH2 0x5AA PUSH1 0x4 CALLDATALOAD PUSH2 0x58A PUSH2 0x1BEA JUMP JUMPDEST SWAP1 DUP1 PUSH1 0x0 MSTORE PUSH1 0x7 PUSH1 0x20 MSTORE PUSH2 0x5A5 PUSH1 0x1 PUSH1 0x40 PUSH1 0x0 KECCAK256 ADD SLOAD PUSH2 0x1D15 JUMP JUMPDEST PUSH2 0x1DD9 JUMP JUMPDEST STOP JUMPDEST CALLVALUE PUSH2 0x297 JUMPI PUSH1 0x0 CALLDATASIZE PUSH1 0x3 NOT ADD SLT PUSH2 0x297 JUMPI PUSH1 0xB SLOAD PUSH1 0x40 MLOAD PUSH1 0x1 PUSH1 0x1 PUSH1 0xA0 SHL SUB SWAP1 SWAP2 AND DUP2 MSTORE PUSH1 0x20 SWAP1 RETURN JUMPDEST CALLVALUE PUSH2 0x297 JUMPI PUSH1 0x20 CALLDATASIZE PUSH1 0x3 NOT ADD SLT PUSH2 0x297 JUMPI PUSH2 0x5F1 PUSH1 0x4 CALLDATALOAD PUSH2 0x2177 JUMP JUMPDEST POP PUSH1 0x0 PUSH1 0x40 MLOAD PUSH2 0x600 DUP2 PUSH2 0x1C83 JUMP JUMPDEST MSTORE PUSH2 0x628 PUSH1 0x40 MLOAD PUSH2 0x610 DUP2 PUSH2 0x1C83 JUMP JUMPDEST PUSH1 0x0 DUP2 MSTORE PUSH1 0x40 MLOAD SWAP2 DUP3 SWAP2 PUSH1 0x20 DUP4 MSTORE PUSH1 0x20 DUP4 ADD SWAP1 PUSH2 0x1BAF JUMP JUMPDEST SUB SWAP1 RETURN JUMPDEST CALLVALUE PUSH2 0x297 JUMPI PUSH1 0x0 CALLDATASIZE PUSH1 0x3 NOT ADD SLT PUSH2 0x297 JUMPI PUSH1 0x40 MLOAD PUSH32 0x0 PUSH1 0x1 PUSH1 0x1 PUSH1 0xA0 SHL SUB AND DUP2 MSTORE PUSH1 0x20 SWAP1 RETURN JUMPDEST CALLVALUE PUSH2 0x297 JUMPI PUSH1 0x80 CALLDATASIZE PUSH1 0x3 NOT ADD SLT PUSH2 0x297 JUMPI PUSH2 0x68A PUSH2 0x1BD4 JUMP JUMPDEST PUSH2 0x692 PUSH2 0x1BEA JUMP JUMPDEST PUSH1 0x64 CALLDATALOAD SWAP2 PUSH8 0xFFFFFFFFFFFFFFFF DUP4 GT PUSH2 0x297 JUMPI CALLDATASIZE PUSH1 0x23 DUP5 ADD SLT ISZERO PUSH2 0x297 JUMPI DUP3 PUSH1 0x4 ADD CALLDATALOAD SWAP2 PUSH2 0x6BF DUP4 PUSH2 0x1CF9 JUMP JUMPDEST SWAP3 PUSH2 0x6CD PUSH1 0x40 MLOAD SWAP5 DUP6 PUSH2 0x1CD7 JUMP JUMPDEST DUP1 DUP5 MSTORE CALLDATASIZE PUSH1 0x24 DUP3 DUP8 ADD ADD GT PUSH2 0x297 JUMPI PUSH1 0x20 DUP2 PUSH1 0x0 SWAP3 PUSH1 0x24 PUSH2 0x5AA SWAP9 ADD DUP4 DUP9 ADD CALLDATACOPY DUP6 ADD ADD MSTORE PUSH1 0x44 CALLDATALOAD SWAP2 PUSH2 0x2022 JUMP JUMPDEST CALLVALUE PUSH2 0x297 JUMPI PUSH1 0x20 CALLDATASIZE PUSH1 0x3 NOT ADD SLT PUSH2 0x297 JUMPI PUSH1 0x1 PUSH1 0x1 PUSH1 0xA0 SHL SUB PUSH2 0x71B PUSH2 0x1BD4 JUMP JUMPDEST AND PUSH1 0x0 MSTORE PUSH1 0x11 PUSH1 0x20 MSTORE PUSH1 0x20 PUSH1 0x40 PUSH1 0x0 KECCAK256 SLOAD PUSH1 0x40 MLOAD SWAP1 DUP2 MSTORE RETURN JUMPDEST CALLVALUE PUSH2 0x297 JUMPI PUSH1 0x0 CALLDATASIZE PUSH1 0x3 NOT ADD SLT PUSH2 0x297 JUMPI PUSH1 0xD SLOAD PUSH1 0x40 MLOAD PUSH1 0x1 PUSH1 0x1 PUSH1 0xA0 SHL SUB SWAP1 SWAP2 AND DUP2 MSTORE PUSH1 0x20 SWAP1 RETURN JUMPDEST CALLVALUE PUSH2 0x297 JUMPI PUSH1 0x40 CALLDATASIZE PUSH1 0x3 NOT ADD SLT PUSH2 0x297 JUMPI PUSH2 0x776 PUSH2 0x1BD4 JUMP JUMPDEST PUSH1 0x24 CALLDATALOAD SWAP1 DUP2 ISZERO ISZERO SWAP1 DUP2 DUP4 SUB PUSH2 0x297 JUMPI PUSH1 0x1 PUSH1 0x1 PUSH1 0xA0 SHL SUB AND SWAP2 DUP3 ISZERO PUSH2 0x7F2 JUMPI PUSH2 0x7C4 SWAP1 CALLER PUSH1 0x0 MSTORE PUSH1 0x5 PUSH1 0x20 MSTORE PUSH1 0x40 PUSH1 0x0 KECCAK256 DUP5 PUSH1 0x0 MSTORE PUSH1 0x20 MSTORE PUSH1 0x40 PUSH1 0x0 KECCAK256 SWAP1 PUSH1 0xFF DUP1 NOT DUP4 SLOAD AND SWAP2 ISZERO ISZERO AND OR SWAP1 SSTORE JUMP JUMPDEST PUSH1 0x40 MLOAD SWAP1 DUP2 MSTORE PUSH32 0x17307EAB39AB6107E8899845AD3D59BD9653F200F220920489CA2B5937696C31 PUSH1 0x20 CALLER SWAP3 LOG3 STOP JUMPDEST PUSH1 0x40 MLOAD PUSH4 0xB611743 PUSH1 0xE3 SHL DUP2 MSTORE PUSH1 0x4 DUP2 ADD DUP5 SWAP1 MSTORE PUSH1 0x24 SWAP1 REVERT JUMPDEST CALLVALUE PUSH2 0x297 JUMPI PUSH1 0x0 CALLDATASIZE PUSH1 0x3 NOT ADD SLT PUSH2 0x297 JUMPI PUSH1 0x20 PUSH1 0x40 MLOAD PUSH1 0x0 DUP2 MSTORE RETURN JUMPDEST CALLVALUE PUSH2 0x297 JUMPI PUSH1 0x20 CALLDATASIZE PUSH1 0x3 NOT ADD SLT PUSH2 0x297 JUMPI PUSH1 0x4 CALLDATALOAD PUSH1 0x0 MSTORE PUSH1 0xF PUSH1 0x20 MSTORE PUSH1 0xA0 PUSH1 0x40 PUSH1 0x0 KECCAK256 PUSH1 0x1 DUP1 DUP4 SHL SUB DUP2 SLOAD AND SWAP1 PUSH1 0x1 DUP2 ADD SLOAD SWAP1 PUSH1 0x2 DUP2 ADD SLOAD PUSH1 0xFF PUSH1 0x4 PUSH1 0x3 DUP5 ADD SLOAD SWAP4 ADD SLOAD AND SWAP3 PUSH1 0x40 MLOAD SWAP5 DUP6 MSTORE PUSH1 0x20 DUP6 ADD MSTORE PUSH1 0x40 DUP5 ADD MSTORE PUSH1 0x60 DUP4 ADD MSTORE ISZERO ISZERO PUSH1 0x80 DUP3 ADD MSTORE RETURN JUMPDEST CALLVALUE PUSH2 0x297 JUMPI PUSH1 0x0 CALLDATASIZE PUSH1 0x3 NOT ADD SLT PUSH2 0x297 JUMPI PUSH1 0x40 MLOAD PUSH1 0x0 PUSH1 0x1 SWAP1 DUP2 SLOAD SWAP2 DUP3 DUP2 SHR SWAP2 DUP2 DUP5 AND SWAP2 DUP3 ISZERO PUSH2 0x98C JUMPI JUMPDEST PUSH1 0x20 SWAP5 DUP6 DUP6 LT DUP5 EQ PUSH2 0x976 JUMPI DUP6 DUP8 SWAP5 DUP7 DUP7 MSTORE SWAP2 DUP3 PUSH1 0x0 EQ PUSH2 0x956 JUMPI POP POP PUSH1 0x1 EQ PUSH2 0x8FC JUMPI JUMPDEST POP PUSH2 0x8E8 SWAP3 POP SUB DUP4 PUSH2 0x1CD7 JUMP JUMPDEST PUSH2 0x628 PUSH1 0x40 MLOAD SWAP3 DUP3 DUP5 SWAP4 DUP5 MSTORE DUP4 ADD SWAP1 PUSH2 0x1BAF JUMP JUMPDEST PUSH1 0x0 DUP2 DUP2 MSTORE DUP6 SWAP3 POP SWAP1 PUSH32 0xB10E2D527612073B26EECDFD717E6A320CF44B4AFAC2B0732D9FCBE2B7FA0CF6 JUMPDEST DUP6 DUP4 LT PUSH2 0x93E JUMPI POP POP PUSH2 0x8E8 SWAP4 POP DUP3 ADD ADD DUP6 PUSH2 0x8DB JUMP JUMPDEST DUP1 SLOAD DUP4 DUP10 ADD DUP6 ADD MSTORE DUP8 SWAP5 POP DUP7 SWAP4 SWAP1 SWAP3 ADD SWAP2 DUP2 ADD PUSH2 0x927 JUMP JUMPDEST PUSH1 0xFF NOT AND DUP6 DUP3 ADD MSTORE PUSH2 0x8E8 SWAP6 ISZERO ISZERO PUSH1 0x5 SHL DUP6 ADD ADD SWAP3 POP DUP8 SWAP2 POP PUSH2 0x8DB SWAP1 POP JUMP JUMPDEST PUSH4 0x4E487B71 PUSH1 0xE0 SHL PUSH1 0x0 MSTORE PUSH1 0x22 PUSH1 0x4 MSTORE PUSH1 0x24 PUSH1 0x0 REVERT JUMPDEST SWAP3 PUSH1 0x7F AND SWAP3 PUSH2 0x8B6 JUMP JUMPDEST CALLVALUE PUSH2 0x297 JUMPI PUSH1 0x40 CALLDATASIZE PUSH1 0x3 NOT ADD SLT PUSH2 0x297 JUMPI PUSH2 0x9AF PUSH2 0x1BEA JUMP JUMPDEST PUSH1 0x4 CALLDATALOAD PUSH1 0x0 MSTORE PUSH1 0x7 PUSH1 0x20 MSTORE PUSH1 0x40 PUSH1 0x0 KECCAK256 SWAP1 PUSH1 0x1 DUP1 PUSH1 0xA0 SHL SUB AND PUSH1 0x0 MSTORE PUSH1 0x20 MSTORE PUSH1 0x20 PUSH1 0xFF PUSH1 0x40 PUSH1 0x0 KECCAK256 SLOAD AND PUSH1 0x40 MLOAD SWAP1 ISZERO ISZERO DUP2 MSTORE RETURN JUMPDEST CALLVALUE PUSH2 0x297 JUMPI PUSH1 0x0 CALLDATASIZE PUSH1 0x3 NOT ADD SLT PUSH2 0x297 JUMPI PUSH1 0x6 SLOAD PUSH1 0x40 MLOAD PUSH1 0x1 PUSH1 0x1 PUSH1 0xA0 SHL SUB SWAP1 SWAP2 AND DUP2 MSTORE PUSH1 0x20 SWAP1 RETURN JUMPDEST CALLVALUE PUSH2 0x297 JUMPI PUSH1 0x20 CALLDATASIZE PUSH1 0x3 NOT ADD SLT PUSH2 0x297 JUMPI PUSH1 0x20 PUSH2 0xA2A PUSH1 0x4 CALLDATALOAD PUSH2 0x2455 JUMP JUMPDEST PUSH1 0x40 MLOAD SWAP1 DUP2 MSTORE RETURN JUMPDEST CALLVALUE PUSH2 0x297 JUMPI PUSH1 0x0 CALLDATASIZE PUSH1 0x3 NOT ADD SLT PUSH2 0x297 JUMPI PUSH1 0xA SLOAD PUSH1 0x40 MLOAD PUSH1 0x1 PUSH1 0x1 PUSH1 0xA0 SHL SUB SWAP1 SWAP2 AND DUP2 MSTORE PUSH1 0x20 SWAP1 RETURN JUMPDEST CALLVALUE PUSH2 0x297 JUMPI PUSH1 0x0 CALLDATASIZE PUSH1 0x3 NOT ADD SLT PUSH2 0x297 JUMPI PUSH1 0x20 PUSH1 0xE SLOAD PUSH1 0x40 MLOAD SWAP1 DUP2 MSTORE RETURN JUMPDEST CALLVALUE PUSH2 0x297 JUMPI PUSH1 0x0 CALLDATASIZE PUSH1 0x3 NOT ADD SLT PUSH2 0x297 JUMPI PUSH2 0xA92 PUSH2 0x1E50 JUMP JUMPDEST PUSH1 0x6 DUP1 SLOAD PUSH1 0x1 PUSH1 0x1 PUSH1 0xA0 SHL SUB NOT DUP2 AND SWAP1 SWAP2 SSTORE PUSH1 0x0 SWAP1 PUSH1 0x1 PUSH1 0x1 PUSH1 0xA0 SHL SUB AND PUSH32 0x8BE0079C531659141344CD1FD0A4F28419497F9722A3DAAFE3B4186F6B6457E0 DUP3 DUP1 LOG3 STOP JUMPDEST CALLVALUE PUSH2 0x297 JUMPI PUSH1 0x20 CALLDATASIZE PUSH1 0x3 NOT ADD SLT PUSH2 0x297 JUMPI PUSH1 0x1 PUSH1 0x1 PUSH1 0xA0 SHL SUB PUSH2 0xAF7 PUSH2 0x1BD4 JUMP JUMPDEST AND DUP1 ISZERO PUSH2 0xB16 JUMPI PUSH1 0x0 MSTORE PUSH1 0x3 PUSH1 0x20 MSTORE PUSH1 0x20 PUSH1 0x40 PUSH1 0x0 KECCAK256 SLOAD PUSH1 0x40 MLOAD SWAP1 DUP2 MSTORE RETURN JUMPDEST PUSH1 0x40 MLOAD PUSH4 0x22718AD9 PUSH1 0xE2 SHL DUP2 MSTORE PUSH1 0x0 PUSH1 0x4 DUP3 ADD MSTORE PUSH1 0x24 SWAP1 REVERT JUMPDEST CALLVALUE PUSH2 0x297 JUMPI PUSH1 0x0 CALLDATASIZE PUSH1 0x3 NOT ADD SLT PUSH2 0x297 JUMPI PUSH1 0xC SLOAD PUSH1 0x40 MLOAD PUSH1 0x1 PUSH1 0x1 PUSH1 0xA0 SHL SUB SWAP1 SWAP2 AND DUP2 MSTORE PUSH1 0x20 SWAP1 RETURN JUMPDEST CALLVALUE PUSH2 0x297 JUMPI PUSH1 0x20 CALLDATASIZE PUSH1 0x3 NOT ADD SLT PUSH2 0x297 JUMPI PUSH1 0x20 PUSH2 0xB76 PUSH1 0x4 CALLDATALOAD PUSH2 0x2177 JUMP JUMPDEST PUSH1 0x40 MLOAD PUSH1 0x1 PUSH1 0x1 PUSH1 0xA0 SHL SUB SWAP1 SWAP2 AND DUP2 MSTORE RETURN JUMPDEST CALLVALUE PUSH2 0x297 JUMPI PUSH1 0x40 CALLDATASIZE PUSH1 0x3 NOT ADD SLT PUSH2 0x297 JUMPI PUSH2 0xBA1 PUSH2 0x1BD4 JUMP JUMPDEST PUSH1 0x2 PUSH1 0x8 SLOAD EQ PUSH2 0x16BC JUMPI PUSH1 0x2 PUSH1 0x8 SSTORE PUSH1 0x40 MLOAD SWAP1 CALLER PUSH1 0x60 SHL DUP1 PUSH1 0x20 DUP5 ADD MSTORE PUSH1 0x1 PUSH1 0x1 PUSH1 0x60 SHL SUB NOT DUP3 PUSH1 0x60 SHL AND PUSH1 0x34 DUP5 ADD MSTORE PUSH1 0x0 DUP1 MLOAD PUSH1 0x20 PUSH2 0x28FC DUP4 CODECOPY DUP2 MLOAD SWAP2 MSTORE PUSH2 0xC35 PUSH1 0x24 SWAP5 DUP6 CALLDATALOAD PUSH1 0x48 DUP3 ADD MSTORE PUSH1 0x48 DUP2 MSTORE PUSH2 0xBFA DUP2 PUSH2 0x1C9F JUMP JUMPDEST PUSH1 0x40 MLOAD SWAP2 DUP3 SWAP2 PUSH1 0x40 DUP4 MSTORE PUSH1 0x10 PUSH1 0x40 DUP5 ADD MSTORE PUSH16 0x14DD185C9D1A5B99C819195C1BDCDA5D PUSH1 0x82 SHL PUSH1 0x60 DUP5 ADD MSTORE PUSH1 0x80 PUSH1 0x20 DUP5 ADD MSTORE PUSH1 0x80 DUP4 ADD SWAP1 PUSH2 0x1BAF JUMP JUMPDEST SUB SWAP1 LOG1 DUP3 CALLDATALOAD ISZERO PUSH2 0x1678 JUMPI PUSH1 0x1 PUSH1 0x1 PUSH1 0xA0 SHL SUB DUP3 AND ISZERO PUSH2 0x1634 JUMPI PUSH2 0xEB7 PUSH2 0xC5A DUP4 PUSH2 0x22C6 JUMP JUMPDEST PUSH1 0x9 SLOAD PUSH1 0x1 PUSH1 0x1 PUSH1 0xA0 SHL SUB AND SWAP1 PUSH2 0xC70 DUP3 PUSH2 0x22C6 JUMP JUMPDEST PUSH1 0xA SLOAD PUSH1 0x1 PUSH1 0x1 PUSH1 0xA0 SHL SUB AND SWAP3 SWAP1 PUSH1 0x0 DUP1 MLOAD PUSH1 0x20 PUSH2 0x28FC DUP4 CODECOPY DUP2 MLOAD SWAP2 MSTORE SWAP1 PUSH2 0xD9B SWAP1 PUSH2 0xD61 PUSH1 0x3D PUSH2 0xCA0 DUP9 PUSH2 0x22C6 JUMP JUMPDEST PUSH1 0xB SLOAD PUSH1 0x1 PUSH1 0x1 PUSH1 0xA0 SHL SUB AND SWAP8 SWAP1 PUSH2 0xCB7 DUP10 PUSH2 0x22C6 JUMP JUMPDEST SWAP1 PUSH1 0x40 MLOAD SWAP6 DUP7 SWAP4 PUSH7 0x2A37B5B2B71D1 PUSH1 0xCD SHL PUSH1 0x20 DUP7 ADD MSTORE PUSH2 0xCE2 DUP2 MLOAD DUP1 SWAP3 PUSH1 0x20 PUSH1 0x27 DUP10 ADD SWAP2 ADD PUSH2 0x1B8C JUMP JUMPDEST DUP5 ADD PUSH7 0x1031AAA9A21D1 PUSH1 0xCD SHL PUSH1 0x27 DUP3 ADD MSTORE PUSH2 0xD08 DUP3 MLOAD DUP1 SWAP4 PUSH1 0x20 PUSH1 0x2E DUP6 ADD SWAP2 ADD PUSH2 0x1B8C JUMP JUMPDEST ADD PUSH7 0x1031A2AAA91D1 PUSH1 0xCD SHL PUSH1 0x2E DUP3 ADD MSTORE PUSH2 0xD2D DUP3 MLOAD DUP1 SWAP4 PUSH1 0x20 PUSH1 0x35 DUP6 ADD SWAP2 ADD PUSH2 0x1B8C JUMP JUMPDEST ADD PUSH8 0x1031A922A0A61D1 PUSH1 0xC5 SHL PUSH1 0x35 DUP3 ADD MSTORE PUSH2 0xD52 DUP3 MLOAD DUP1 SWAP4 PUSH1 0x20 DUP8 DUP6 ADD SWAP2 ADD PUSH2 0x1B8C JUMP JUMPDEST ADD SUB PUSH1 0x1D DUP2 ADD DUP5 MSTORE ADD DUP3 PUSH2 0x1CD7 JUMP JUMPDEST PUSH1 0x40 MLOAD SWAP2 DUP3 SWAP2 PUSH1 0x40 DUP4 MSTORE PUSH1 0xF PUSH1 0x40 DUP5 ADD MSTORE PUSH15 0x546F6B656E20616464726573736573 PUSH1 0x88 SHL PUSH1 0x60 DUP5 ADD MSTORE PUSH1 0x80 PUSH1 0x20 DUP5 ADD MSTORE PUSH1 0x80 DUP4 ADD SWAP1 PUSH2 0x1BAF JUMP JUMPDEST SUB SWAP1 LOG1 PUSH1 0x1 PUSH1 0x1 PUSH1 0xA0 SHL SUB DUP7 AND DUP2 EQ SWAP2 DUP3 ISZERO PUSH2 0x1621 JUMPI JUMPDEST DUP3 ISZERO PUSH2 0x160E JUMPI JUMPDEST PUSH2 0xEB2 SWAP2 PUSH1 0x5E SWAP2 PUSH2 0xDE4 PUSH2 0xDDE PUSH2 0xDD8 PUSH2 0xDD2 DUP13 PUSH2 0x22C6 JUMP JUMPDEST SWAP5 PUSH2 0x22C6 JUMP JUMPDEST SWAP8 PUSH2 0x22C6 JUMP JUMPDEST SWAP2 PUSH2 0x22C6 JUMP JUMPDEST SWAP1 PUSH1 0x40 MLOAD SWAP7 DUP8 SWAP4 PUSH19 0x2AB739BAB83837B93A32B2103A37B5B2B71D1 PUSH1 0x6D SHL PUSH1 0x20 DUP7 ADD MSTORE PUSH2 0xE1B DUP2 MLOAD DUP1 SWAP3 PUSH1 0x20 PUSH1 0x33 DUP10 ADD SWAP2 ADD PUSH2 0x1B8C JUMP JUMPDEST DUP5 ADD PUSH32 0x2E20537570706F7274656420746F6B656E733A20635553443A20000000000000 PUSH1 0x33 DUP3 ADD MSTORE PUSH2 0xE57 DUP3 MLOAD DUP1 SWAP4 PUSH1 0x20 PUSH1 0x4D DUP6 ADD SWAP2 ADD PUSH2 0x1B8C JUMP JUMPDEST ADD PUSH8 0x161031A2AAA91D1 PUSH1 0xC5 SHL PUSH1 0x4D DUP3 ADD MSTORE PUSH2 0xE7D DUP3 MLOAD DUP1 SWAP4 PUSH1 0x20 PUSH1 0x55 DUP6 ADD SWAP2 ADD PUSH2 0x1B8C JUMP JUMPDEST ADD PUSH9 0x161031A922A0A61D1 PUSH1 0xBD SHL PUSH1 0x55 DUP3 ADD MSTORE PUSH2 0xEA3 DUP3 MLOAD DUP1 SWAP4 PUSH1 0x20 DUP8 DUP6 ADD SWAP2 ADD PUSH2 0x1B8C JUMP JUMPDEST ADD SUB PUSH1 0x3E DUP2 ADD DUP6 MSTORE ADD DUP4 PUSH2 0x1CD7 JUMP JUMPDEST PUSH2 0x21D2 JUMP JUMPDEST PUSH1 0x0 DUP1 MLOAD PUSH1 0x20 PUSH2 0x28FC DUP4 CODECOPY DUP2 MLOAD SWAP2 MSTORE PUSH2 0xF34 PUSH1 0x40 MLOAD PUSH1 0x1 PUSH1 0x1 PUSH1 0x60 SHL SUB NOT DUP6 PUSH1 0x60 SHL AND PUSH1 0x20 DUP3 ADD MSTORE PUSH1 0x14 DUP2 MSTORE PUSH2 0xEEC DUP2 PUSH2 0x1CBB JUMP JUMPDEST PUSH1 0x40 MLOAD SWAP2 DUP3 SWAP2 PUSH1 0x40 DUP4 MSTORE PUSH1 0x1C PUSH1 0x40 DUP5 ADD MSTORE PUSH32 0x546F6B656E20737570706F7274656420636865636B2070617373656400000000 PUSH1 0x60 DUP5 ADD MSTORE PUSH1 0x80 PUSH1 0x20 DUP5 ADD MSTORE PUSH1 0x80 DUP4 ADD SWAP1 PUSH2 0x1BAF JUMP JUMPDEST SUB SWAP1 LOG1 PUSH1 0x40 MLOAD PUSH4 0x6EB1769F PUSH1 0xE1 SHL DUP2 MSTORE CALLER PUSH1 0x4 DUP3 ADD MSTORE ADDRESS DUP5 DUP3 ADD MSTORE PUSH1 0x20 DUP2 PUSH1 0x44 DUP2 PUSH1 0x1 PUSH1 0x1 PUSH1 0xA0 SHL SUB DUP8 AND GAS STATICCALL SWAP1 DUP2 ISZERO PUSH2 0x159A JUMPI PUSH1 0x0 SWAP2 PUSH2 0x15DA JUMPI JUMPDEST POP PUSH2 0x1052 PUSH1 0x0 DUP1 MLOAD PUSH1 0x20 PUSH2 0x28FC DUP4 CODECOPY DUP2 MLOAD SWAP2 MSTORE SWAP2 PUSH2 0xFF4 PUSH1 0x40 MLOAD PUSH32 0x496E73756666696369656E7420616C6C6F77616E63652E205265717569726564 PUSH1 0x20 DUP3 ADD MSTORE PUSH2 0x1D1 PUSH1 0xF5 SHL PUSH1 0x40 DUP3 ADD MSTORE DUP8 CALLDATALOAD PUSH1 0x42 DUP3 ADD MSTORE PUSH12 0x161020B8383937BB32B21D1 PUSH1 0xA5 SHL PUSH1 0x62 DUP3 ADD MSTORE DUP3 PUSH1 0x6E DUP3 ADD MSTORE PUSH1 0x6E DUP2 MSTORE PUSH2 0xFEA DUP2 PUSH2 0x1C35 JUMP JUMPDEST DUP8 CALLDATALOAD DUP4 LT ISZERO PUSH2 0x21D2 JUMP JUMPDEST PUSH1 0x40 MLOAD SWAP1 PUSH1 0x20 DUP3 ADD MSTORE DUP6 CALLDATALOAD PUSH1 0x40 DUP3 ADD MSTORE PUSH1 0x40 DUP2 MSTORE PUSH2 0x1011 DUP2 PUSH2 0x1C67 JUMP JUMPDEST PUSH1 0x40 MLOAD SWAP2 DUP3 SWAP2 PUSH1 0x40 DUP4 MSTORE PUSH1 0x16 PUSH1 0x40 DUP5 ADD MSTORE PUSH22 0x105B1B1BDDD85B98D94818DA1958DAC81C185CDCD959 PUSH1 0x52 SHL PUSH1 0x60 DUP5 ADD MSTORE PUSH1 0x80 PUSH1 0x20 DUP5 ADD MSTORE PUSH1 0x80 DUP4 ADD SWAP1 PUSH2 0x1BAF JUMP JUMPDEST SUB SWAP1 LOG1 PUSH1 0x40 MLOAD PUSH4 0x70A08231 PUSH1 0xE0 SHL DUP2 MSTORE CALLER PUSH1 0x4 DUP3 ADD MSTORE PUSH1 0x20 DUP2 DUP6 DUP2 PUSH1 0x1 PUSH1 0x1 PUSH1 0xA0 SHL SUB DUP8 AND GAS STATICCALL SWAP1 DUP2 ISZERO PUSH2 0x159A JUMPI PUSH1 0x0 SWAP2 PUSH2 0x15A6 JUMPI JUMPDEST POP PUSH2 0x1163 PUSH1 0x0 DUP1 MLOAD PUSH1 0x20 PUSH2 0x28FC DUP4 CODECOPY DUP2 MLOAD SWAP2 MSTORE SWAP2 PUSH2 0x1107 PUSH1 0x40 MLOAD PUSH32 0x496E73756666696369656E7420746F6B656E2062616C616E63652E2052657175 PUSH1 0x20 DUP3 ADD MSTORE PUSH6 0x34B932B21D1 PUSH1 0xD5 SHL PUSH1 0x40 DUP3 ADD MSTORE DUP8 CALLDATALOAD PUSH1 0x46 DUP3 ADD MSTORE PUSH13 0x161020BB30B4B630B136329D1 PUSH1 0x9D SHL PUSH1 0x66 DUP3 ADD MSTORE DUP3 PUSH1 0x73 DUP3 ADD MSTORE PUSH1 0x73 DUP2 MSTORE PUSH2 0xFEA DUP2 PUSH2 0x1C35 JUMP JUMPDEST PUSH1 0x40 MLOAD SWAP1 PUSH1 0x20 DUP3 ADD MSTORE DUP6 CALLDATALOAD PUSH1 0x40 DUP3 ADD MSTORE PUSH1 0x40 DUP2 MSTORE PUSH2 0x1124 DUP2 PUSH2 0x1C67 JUMP JUMPDEST PUSH1 0x40 MLOAD SWAP2 DUP3 SWAP2 PUSH1 0x40 DUP4 MSTORE PUSH1 0x14 PUSH1 0x40 DUP5 ADD MSTORE PUSH20 0x10985B185B98D94818DA1958DAC81C185CDCD959 PUSH1 0x62 SHL PUSH1 0x60 DUP5 ADD MSTORE PUSH1 0x80 PUSH1 0x20 DUP5 ADD MSTORE PUSH1 0x80 DUP4 ADD SWAP1 PUSH2 0x1BAF JUMP JUMPDEST SUB SWAP1 LOG1 PUSH2 0x11A7 PUSH1 0x40 MLOAD PUSH4 0x23B872DD PUSH1 0xE0 SHL PUSH1 0x20 DUP3 ADD MSTORE CALLER DUP6 DUP3 ADD MSTORE ADDRESS PUSH1 0x44 DUP3 ADD MSTORE DUP5 CALLDATALOAD PUSH1 0x64 DUP3 ADD MSTORE PUSH1 0x64 DUP2 MSTORE PUSH2 0x1198 DUP2 PUSH2 0x1C35 JUMP JUMPDEST PUSH1 0x1 PUSH1 0x1 PUSH1 0xA0 SHL SUB DUP5 AND PUSH2 0x2230 JUMP JUMPDEST PUSH1 0xE SLOAD SWAP1 PUSH2 0x11B4 DUP3 PUSH2 0x21FE JUMP JUMPDEST PUSH1 0xE SSTORE PUSH1 0xD SLOAD PUSH1 0x40 MLOAD PUSH4 0xC4F9870B PUSH1 0xE0 SHL DUP2 MSTORE PUSH1 0x1 PUSH1 0x1 PUSH1 0xA0 SHL SUB DUP6 DUP2 AND PUSH1 0x4 DUP4 ADD MSTORE SWAP1 SWAP2 PUSH1 0x20 SWAP2 DUP4 SWAP2 DUP9 SWAP2 DUP4 SWAP2 AND GAS STATICCALL DUP1 ISZERO PUSH2 0x159A JUMPI PUSH1 0x0 SWAP1 PUSH2 0x1566 JUMPI JUMPDEST PUSH2 0x128C SWAP2 POP PUSH1 0x40 MLOAD SWAP1 PUSH2 0x1205 DUP3 PUSH2 0x1C35 JUMP JUMPDEST PUSH1 0x1 DUP1 PUSH1 0xA0 SHL SUB DUP7 AND DUP3 MSTORE DUP7 CALLDATALOAD PUSH1 0x20 DUP4 ADD MSTORE TIMESTAMP PUSH1 0x40 DUP4 ADD MSTORE PUSH1 0x60 DUP3 ADD MSTORE PUSH1 0x1 PUSH1 0x80 DUP3 ADD MSTORE DUP4 PUSH1 0x0 MSTORE PUSH1 0xF PUSH1 0x20 MSTORE PUSH1 0x4 PUSH1 0x80 PUSH1 0x40 PUSH1 0x0 KECCAK256 SWAP3 PUSH1 0x1 DUP1 PUSH1 0xA0 SHL SUB DUP2 MLOAD AND PUSH1 0x1 PUSH1 0x1 PUSH1 0x60 SHL SUB PUSH1 0xA0 SHL DUP6 SLOAD AND OR DUP5 SSTORE PUSH1 0x20 DUP2 ADD MLOAD PUSH1 0x1 DUP6 ADD SSTORE PUSH1 0x40 DUP2 ADD MLOAD PUSH1 0x2 DUP6 ADD SSTORE PUSH1 0x60 DUP2 ADD MLOAD PUSH1 0x3 DUP6 ADD SSTORE ADD MLOAD ISZERO ISZERO SWAP2 ADD SWAP1 PUSH1 0xFF DUP1 NOT DUP4 SLOAD AND SWAP2 ISZERO ISZERO AND OR SWAP1 SSTORE JUMP JUMPDEST PUSH1 0x0 DUP1 MLOAD PUSH1 0x20 PUSH2 0x28FC DUP4 CODECOPY DUP2 MLOAD SWAP2 MSTORE PUSH2 0x130F PUSH1 0x40 MLOAD DUP5 PUSH1 0x20 DUP3 ADD MSTORE PUSH1 0x1 PUSH1 0x1 PUSH1 0x60 SHL SUB NOT DUP7 PUSH1 0x60 SHL AND PUSH1 0x40 DUP3 ADD MSTORE DUP7 CALLDATALOAD PUSH1 0x54 DUP3 ADD MSTORE TIMESTAMP PUSH1 0x74 DUP3 ADD MSTORE PUSH1 0x74 DUP2 MSTORE PUSH2 0x12D4 DUP2 PUSH2 0x1C35 JUMP JUMPDEST PUSH1 0x40 MLOAD SWAP2 DUP3 SWAP2 PUSH1 0x40 DUP4 MSTORE PUSH1 0x10 PUSH1 0x40 DUP5 ADD MSTORE PUSH16 0x141BDCDA5D1A5BDB8818DC99585D1959 PUSH1 0x82 SHL PUSH1 0x60 DUP5 ADD MSTORE PUSH1 0x80 PUSH1 0x20 DUP5 ADD MSTORE PUSH1 0x80 DUP4 ADD SWAP1 PUSH2 0x1BAF JUMP JUMPDEST SUB SWAP1 LOG1 PUSH1 0x1 DUP1 PUSH1 0xA0 SHL SUB DUP4 AND PUSH1 0x0 MSTORE PUSH1 0x10 PUSH1 0x20 MSTORE PUSH1 0x40 PUSH1 0x0 KECCAK256 PUSH2 0x1334 DUP6 CALLDATALOAD DUP3 SLOAD PUSH2 0x2223 JUMP JUMPDEST SWAP1 SSTORE PUSH1 0x1 DUP1 PUSH1 0xA0 SHL SUB DUP4 AND PUSH1 0x0 MSTORE PUSH1 0x10 PUSH1 0x20 MSTORE PUSH1 0x0 DUP1 MLOAD PUSH1 0x20 PUSH2 0x28FC DUP4 CODECOPY DUP2 MLOAD SWAP2 MSTORE PUSH2 0x13C9 PUSH1 0x40 PUSH1 0x0 KECCAK256 SLOAD PUSH1 0x40 MLOAD SWAP1 PUSH1 0x1 PUSH1 0x1 PUSH1 0x60 SHL SUB NOT DUP8 PUSH1 0x60 SHL AND PUSH1 0x20 DUP4 ADD MSTORE PUSH1 0x34 DUP3 ADD MSTORE PUSH1 0x34 DUP2 MSTORE PUSH2 0x1388 DUP2 PUSH2 0x1C67 JUMP JUMPDEST PUSH1 0x40 MLOAD SWAP2 DUP3 SWAP2 PUSH1 0x40 DUP4 MSTORE PUSH1 0x16 PUSH1 0x40 DUP5 ADD MSTORE PUSH22 0x151BDD185B0819195C1BDCDA5D1CC81D5C19185D1959 PUSH1 0x52 SHL PUSH1 0x60 DUP5 ADD MSTORE PUSH1 0x80 PUSH1 0x20 DUP5 ADD MSTORE PUSH1 0x80 DUP4 ADD SWAP1 PUSH2 0x1BAF JUMP JUMPDEST SUB SWAP1 LOG1 CALLER ISZERO PUSH2 0x154E JUMPI PUSH1 0x0 DUP3 DUP2 MSTORE PUSH1 0x2 PUSH1 0x20 MSTORE PUSH1 0x40 SWAP1 KECCAK256 SLOAD PUSH1 0x1 PUSH1 0x1 PUSH1 0xA0 SHL SUB AND DUP1 ISZERO ISZERO SWAP1 DUP4 SWAP1 DUP3 PUSH2 0x1517 JUMPI JUMPDEST CALLER PUSH1 0x0 MSTORE PUSH1 0x3 PUSH1 0x20 MSTORE PUSH1 0x40 PUSH1 0x0 KECCAK256 PUSH1 0x1 DUP2 SLOAD ADD SWAP1 SSTORE DUP2 PUSH1 0x0 MSTORE PUSH1 0x2 PUSH1 0x20 MSTORE PUSH1 0x40 PUSH1 0x0 KECCAK256 CALLER PUSH1 0x1 PUSH1 0x1 PUSH1 0x60 SHL SUB PUSH1 0xA0 SHL DUP3 SLOAD AND OR SWAP1 SSTORE CALLER SWAP1 PUSH32 0xDDF252AD1BE2C89B69C2B068FC378DAA952BA7F163C4A11628F55A4DF523B3EF PUSH1 0x0 DUP1 LOG4 PUSH2 0x14FF JUMPI PUSH2 0x14BA PUSH1 0x0 DUP1 MLOAD PUSH1 0x20 PUSH2 0x28FC DUP4 CODECOPY DUP2 MLOAD SWAP2 MSTORE SWAP2 PUSH1 0x40 MLOAD SWAP1 DUP5 PUSH1 0x20 DUP4 ADD MSTORE PUSH1 0x40 DUP3 ADD MSTORE PUSH1 0x34 DUP2 MSTORE PUSH2 0x1485 DUP2 PUSH2 0x1C67 JUMP JUMPDEST PUSH1 0x40 MLOAD SWAP2 DUP3 SWAP2 PUSH1 0x40 DUP4 MSTORE PUSH1 0xA PUSH1 0x40 DUP5 ADD MSTORE PUSH10 0x139195081B5A5B9D1959 PUSH1 0xB2 SHL PUSH1 0x60 DUP5 ADD MSTORE PUSH1 0x80 PUSH1 0x20 DUP5 ADD MSTORE PUSH1 0x80 DUP4 ADD SWAP1 PUSH2 0x1BAF JUMP JUMPDEST SUB SWAP1 LOG1 PUSH1 0x40 MLOAD SWAP3 CALLDATALOAD DUP4 MSTORE PUSH1 0x20 DUP4 ADD MSTORE PUSH1 0x1 DUP1 PUSH1 0xA0 SHL SUB AND SWAP1 PUSH32 0xF5681F9D0DB1B911AC18EE83D515A1CF1051853A9EAE418316A2FDF7DEA427C5 PUSH1 0x40 CALLER SWAP3 LOG3 PUSH1 0x1 PUSH1 0x8 SSTORE STOP JUMPDEST PUSH1 0x40 MLOAD PUSH4 0x39E35637 PUSH1 0xE1 SHL DUP2 MSTORE PUSH1 0x0 PUSH1 0x4 DUP3 ADD MSTORE DUP5 SWAP1 REVERT JUMPDEST PUSH1 0x0 DUP3 DUP2 MSTORE PUSH1 0x4 PUSH1 0x20 MSTORE PUSH1 0x40 SWAP1 KECCAK256 DUP1 SLOAD PUSH1 0x1 PUSH1 0x1 PUSH1 0xA0 SHL SUB NOT AND SWAP1 SSTORE DUP1 PUSH1 0x0 MSTORE PUSH1 0x3 PUSH1 0x20 MSTORE PUSH1 0x40 PUSH1 0x0 KECCAK256 PUSH1 0x0 NOT DUP2 SLOAD ADD SWAP1 SSTORE PUSH2 0x13F6 JUMP JUMPDEST PUSH1 0x40 MLOAD PUSH4 0x32505749 PUSH1 0xE1 SHL DUP2 MSTORE PUSH1 0x0 PUSH1 0x4 DUP3 ADD MSTORE DUP5 SWAP1 REVERT JUMPDEST POP PUSH1 0x20 DUP2 RETURNDATASIZE PUSH1 0x20 GT PUSH2 0x1592 JUMPI JUMPDEST DUP2 PUSH2 0x1580 PUSH1 0x20 SWAP4 DUP4 PUSH2 0x1CD7 JUMP JUMPDEST DUP2 ADD SUB SLT PUSH2 0x297 JUMPI PUSH2 0x128C SWAP1 MLOAD PUSH2 0x11F3 JUMP JUMPDEST RETURNDATASIZE SWAP2 POP PUSH2 0x1573 JUMP JUMPDEST PUSH1 0x40 MLOAD RETURNDATASIZE PUSH1 0x0 DUP3 RETURNDATACOPY RETURNDATASIZE SWAP1 REVERT JUMPDEST SWAP1 POP PUSH1 0x20 DUP2 RETURNDATASIZE PUSH1 0x20 GT PUSH2 0x15D2 JUMPI JUMPDEST DUP2 PUSH2 0x15C1 PUSH1 0x20 SWAP4 DUP4 PUSH2 0x1CD7 JUMP JUMPDEST DUP2 ADD SUB SLT PUSH2 0x297 JUMPI MLOAD PUSH2 0x1163 PUSH2 0x1088 JUMP JUMPDEST RETURNDATASIZE SWAP2 POP PUSH2 0x15B4 JUMP JUMPDEST SWAP1 POP PUSH1 0x20 DUP2 RETURNDATASIZE PUSH1 0x20 GT PUSH2 0x1606 JUMPI JUMPDEST DUP2 PUSH2 0x15F5 PUSH1 0x20 SWAP4 DUP4 PUSH2 0x1CD7 JUMP JUMPDEST DUP2 ADD SUB SLT PUSH2 0x297 JUMPI MLOAD PUSH2 0x1052 PUSH2 0xF70 JUMP JUMPDEST RETURNDATASIZE SWAP2 POP PUSH2 0x15E8 JUMP JUMPDEST PUSH1 0x1 PUSH1 0x1 PUSH1 0xA0 SHL SUB DUP8 AND DUP2 EQ SWAP3 POP PUSH2 0xDB9 JUMP JUMPDEST PUSH1 0x1 PUSH1 0x1 PUSH1 0xA0 SHL SUB DUP8 AND DUP5 EQ SWAP3 POP PUSH2 0xDB2 JUMP JUMPDEST PUSH1 0x40 MLOAD PUSH3 0x461BCD PUSH1 0xE5 SHL DUP2 MSTORE PUSH1 0x20 PUSH1 0x4 DUP3 ADD MSTORE PUSH1 0x1C DUP2 DUP6 ADD MSTORE PUSH32 0x546F6B656E20616464726573732063616E6E6F74206265207A65726F00000000 PUSH1 0x44 DUP3 ADD MSTORE PUSH1 0x64 SWAP1 REVERT JUMPDEST PUSH1 0x40 MLOAD PUSH3 0x461BCD PUSH1 0xE5 SHL DUP2 MSTORE PUSH1 0x20 PUSH1 0x4 DUP3 ADD MSTORE PUSH1 0x1D DUP2 DUP6 ADD MSTORE PUSH32 0x416D6F756E74206D7573742062652067726561746572207468616E2030000000 PUSH1 0x44 DUP3 ADD MSTORE PUSH1 0x64 SWAP1 REVERT JUMPDEST PUSH1 0x40 MLOAD PUSH4 0x3EE5AEB5 PUSH1 0xE0 SHL DUP2 MSTORE PUSH1 0x4 SWAP1 REVERT JUMPDEST CALLVALUE PUSH2 0x297 JUMPI PUSH2 0x5AA PUSH2 0x16DF CALLDATASIZE PUSH2 0x1C00 JUMP JUMPDEST SWAP1 PUSH1 0x40 MLOAD SWAP3 PUSH2 0x16ED DUP5 PUSH2 0x1C83 JUMP JUMPDEST PUSH1 0x0 DUP5 MSTORE PUSH2 0x2022 JUMP JUMPDEST CALLVALUE PUSH2 0x297 JUMPI PUSH1 0x20 CALLDATASIZE PUSH1 0x3 NOT ADD SLT PUSH2 0x297 JUMPI PUSH1 0x4 CALLDATALOAD PUSH2 0x1713 DUP2 PUSH2 0x2177 JUMP JUMPDEST PUSH1 0x1 PUSH1 0x1 PUSH1 0xA0 SHL SUB SWAP1 PUSH2 0x1729 SWAP1 DUP3 AND CALLER EQ PUSH2 0x240C JUMP JUMPDEST PUSH2 0x1732 DUP3 PUSH2 0x2455 JUMP JUMPDEST SWAP1 DUP2 ISZERO PUSH2 0x17AF JUMPI DUP3 PUSH1 0x0 MSTORE PUSH1 0xF PUSH1 0x20 MSTORE PUSH1 0x40 PUSH1 0x0 KECCAK256 TIMESTAMP PUSH1 0x2 DUP3 ADD SSTORE DUP2 DUP2 SLOAD AND PUSH1 0x0 MSTORE PUSH1 0x11 PUSH1 0x20 MSTORE PUSH1 0x40 PUSH1 0x0 KECCAK256 PUSH2 0x1769 DUP5 DUP3 SLOAD PUSH2 0x2223 JUMP JUMPDEST SWAP1 SSTORE PUSH2 0x1779 DUP4 CALLER DUP5 DUP5 SLOAD AND PUSH2 0x25A9 JUMP JUMPDEST SLOAD AND SWAP2 PUSH1 0x40 MLOAD SWAP2 DUP3 MSTORE PUSH1 0x20 DUP3 ADD MSTORE PUSH32 0xB10C79AA8CE52424B7676B33FE7B45EA2516B75F43F3B5C0C730E52CA8EF36A5 PUSH1 0x40 CALLER SWAP3 LOG3 STOP JUMPDEST PUSH1 0x40 MLOAD PUSH3 0x461BCD PUSH1 0xE5 SHL DUP2 MSTORE PUSH1 0x20 PUSH1 0x4 DUP3 ADD MSTORE PUSH1 0x11 PUSH1 0x24 DUP3 ADD MSTORE PUSH17 0x4E6F207969656C6420746F20636C61696D PUSH1 0x78 SHL PUSH1 0x44 DUP3 ADD MSTORE PUSH1 0x64 SWAP1 REVERT JUMPDEST CALLVALUE PUSH2 0x297 JUMPI PUSH1 0x40 CALLDATASIZE PUSH1 0x3 NOT ADD SLT PUSH2 0x297 JUMPI PUSH2 0x1801 PUSH2 0x1BEA JUMP JUMPDEST CALLER PUSH1 0x1 PUSH1 0x1 PUSH1 0xA0 SHL SUB DUP3 AND SUB PUSH2 0x181D JUMPI PUSH2 0x5AA SWAP1 PUSH1 0x4 CALLDATALOAD PUSH2 0x1DD9 JUMP JUMPDEST PUSH1 0x40 MLOAD PUSH4 0x334BD919 PUSH1 0xE1 SHL DUP2 MSTORE PUSH1 0x4 SWAP1 REVERT JUMPDEST CALLVALUE PUSH2 0x297 JUMPI PUSH1 0x0 CALLDATASIZE PUSH1 0x3 NOT ADD SLT PUSH2 0x297 JUMPI PUSH2 0x1848 PUSH2 0x2619 JUMP JUMPDEST PUSH1 0x40 MLOAD SWAP1 PUSH1 0x0 SWAP1 DUP3 JUMPDEST PUSH1 0x3 DUP4 LT PUSH2 0x185E JUMPI PUSH1 0x60 DUP5 RETURN JUMPDEST PUSH1 0x1 SWAP1 DUP3 MLOAD DUP2 MSTORE PUSH1 0x20 DUP1 SWAP2 ADD SWAP3 ADD SWAP3 ADD SWAP2 SWAP1 PUSH2 0x1851 JUMP JUMPDEST CALLVALUE PUSH2 0x297 JUMPI PUSH1 0x40 CALLDATASIZE PUSH1 0x3 NOT ADD SLT PUSH2 0x297 JUMPI PUSH2 0x5AA PUSH1 0x4 CALLDATALOAD PUSH2 0x1894 PUSH2 0x1BEA JUMP JUMPDEST SWAP1 DUP1 PUSH1 0x0 MSTORE PUSH1 0x7 PUSH1 0x20 MSTORE PUSH2 0x18AF PUSH1 0x1 PUSH1 0x40 PUSH1 0x0 KECCAK256 ADD SLOAD PUSH2 0x1D15 JUMP JUMPDEST PUSH2 0x1D59 JUMP JUMPDEST CALLVALUE PUSH2 0x297 JUMPI PUSH1 0x20 CALLDATASIZE PUSH1 0x3 NOT ADD SLT PUSH2 0x297 JUMPI PUSH1 0x4 CALLDATALOAD PUSH1 0x0 MSTORE PUSH1 0x7 PUSH1 0x20 MSTORE PUSH1 0x20 PUSH1 0x1 PUSH1 0x40 PUSH1 0x0 KECCAK256 ADD SLOAD PUSH1 0x40 MLOAD SWAP1 DUP2 MSTORE RETURN JUMPDEST CALLVALUE PUSH2 0x297 JUMPI PUSH2 0x5AA PUSH2 0x18F4 CALLDATASIZE PUSH2 0x1C00 JUMP JUMPDEST SWAP2 PUSH2 0x1E7C JUMP JUMPDEST CALLVALUE PUSH2 0x297 JUMPI PUSH1 0x0 CALLDATASIZE PUSH1 0x3 NOT ADD SLT PUSH2 0x297 JUMPI PUSH1 0x9 SLOAD PUSH1 0x40 MLOAD PUSH1 0x1 PUSH1 0x1 PUSH1 0xA0 SHL SUB SWAP1 SWAP2 AND DUP2 MSTORE PUSH1 0x20 SWAP1 RETURN JUMPDEST CALLVALUE PUSH2 0x297 JUMPI PUSH1 0x40 CALLDATASIZE PUSH1 0x3 NOT ADD SLT PUSH2 0x297 JUMPI PUSH2 0x193C PUSH2 0x1BD4 JUMP JUMPDEST PUSH1 0x24 CALLDATALOAD PUSH2 0x1948 DUP2 PUSH2 0x2177 JUMP JUMPDEST CALLER ISZERO ISZERO DUP1 PUSH2 0x19F7 JUMPI JUMPDEST DUP1 PUSH2 0x19CA JUMPI JUMPDEST PUSH2 0x19B2 JUMPI PUSH1 0x1 PUSH1 0x1 PUSH1 0xA0 SHL SUB SWAP3 DUP4 AND SWAP3 DUP3 SWAP2 DUP5 SWAP2 AND PUSH32 0x8C5BE1E5EBEC7D5BD14F71427D1E84F3DD0314C0F7B2291E5B200AC8C7C3B925 PUSH1 0x0 DUP1 LOG4 PUSH1 0x0 SWAP1 DUP2 MSTORE PUSH1 0x4 PUSH1 0x20 MSTORE PUSH1 0x40 SWAP1 KECCAK256 DUP1 SLOAD PUSH1 0x1 PUSH1 0x1 PUSH1 0xA0 SHL SUB NOT AND SWAP1 SWAP2 OR SWAP1 SSTORE STOP JUMPDEST PUSH1 0x40 MLOAD PUSH4 0xA9FBF51F PUSH1 0xE0 SHL DUP2 MSTORE CALLER PUSH1 0x4 DUP3 ADD MSTORE PUSH1 0x24 SWAP1 REVERT JUMPDEST POP PUSH1 0x1 DUP1 PUSH1 0xA0 SHL SUB DUP2 AND PUSH1 0x0 MSTORE PUSH1 0x5 PUSH1 0x20 MSTORE PUSH1 0x40 PUSH1 0x0 KECCAK256 CALLER PUSH1 0x0 MSTORE PUSH1 0x20 MSTORE PUSH1 0xFF PUSH1 0x40 PUSH1 0x0 KECCAK256 SLOAD AND ISZERO PUSH2 0x1957 JUMP JUMPDEST POP PUSH1 0x1 PUSH1 0x1 PUSH1 0xA0 SHL SUB DUP2 AND CALLER EQ ISZERO PUSH2 0x1951 JUMP JUMPDEST CALLVALUE PUSH2 0x297 JUMPI PUSH1 0x20 CALLDATASIZE PUSH1 0x3 NOT ADD SLT PUSH2 0x297 JUMPI PUSH1 0x4 CALLDATALOAD PUSH2 0x1A27 DUP2 PUSH2 0x2177 JUMP JUMPDEST POP PUSH1 0x0 MSTORE PUSH1 0x4 PUSH1 0x20 MSTORE PUSH1 0x20 PUSH1 0x1 DUP1 PUSH1 0xA0 SHL SUB PUSH1 0x40 PUSH1 0x0 KECCAK256 SLOAD AND PUSH1 0x40 MLOAD SWAP1 DUP2 MSTORE RETURN JUMPDEST CALLVALUE PUSH2 0x297 JUMPI PUSH1 0x0 CALLDATASIZE PUSH1 0x3 NOT ADD SLT PUSH2 0x297 JUMPI PUSH1 0x40 MLOAD PUSH1 0x0 DUP1 SLOAD SWAP1 PUSH1 0x1 DUP3 DUP2 SHR SWAP2 DUP2 DUP5 AND SWAP2 DUP3 ISZERO PUSH2 0x1AFD JUMPI JUMPDEST PUSH1 0x20 SWAP5 DUP6 DUP6 LT DUP5 EQ PUSH2 0x976 JUMPI DUP6 DUP8 SWAP5 DUP7 DUP7 MSTORE SWAP2 DUP3 PUSH1 0x0 EQ PUSH2 0x956 JUMPI POP POP PUSH1 0x1 EQ PUSH2 0x1AA3 JUMPI POP PUSH2 0x8E8 SWAP3 POP SUB DUP4 PUSH2 0x1CD7 JUMP JUMPDEST PUSH1 0x0 DUP1 DUP1 MSTORE DUP6 SWAP3 POP SWAP1 PUSH32 0x290DECD9548B62A8D60345A988386FC84BA6BC95484008F6362F93160EF3E563 JUMPDEST DUP6 DUP4 LT PUSH2 0x1AE5 JUMPI POP POP PUSH2 0x8E8 SWAP4 POP DUP3 ADD ADD DUP6 PUSH2 0x8DB JUMP JUMPDEST DUP1 SLOAD DUP4 DUP10 ADD DUP6 ADD MSTORE DUP8 SWAP5 POP DUP7 SWAP4 SWAP1 SWAP3 ADD SWAP2 DUP2 ADD PUSH2 0x1ACE JUMP JUMPDEST SWAP3 PUSH1 0x7F AND SWAP3 PUSH2 0x1A72 JUMP JUMPDEST CALLVALUE PUSH2 0x297 JUMPI PUSH1 0x20 CALLDATASIZE PUSH1 0x3 NOT ADD SLT PUSH2 0x297 JUMPI PUSH1 0x4 CALLDATALOAD SWAP1 PUSH4 0xFFFFFFFF PUSH1 0xE0 SHL DUP3 AND DUP1 SWAP3 SUB PUSH2 0x297 JUMPI PUSH1 0x20 SWAP2 PUSH4 0x7965DB0B PUSH1 0xE0 SHL DUP2 EQ SWAP1 DUP2 ISZERO PUSH2 0x1B49 JUMPI JUMPDEST POP ISZERO ISZERO DUP2 MSTORE RETURN JUMPDEST PUSH4 0x80AC58CD PUSH1 0xE0 SHL DUP2 EQ SWAP2 POP DUP2 ISZERO PUSH2 0x1B7B JUMPI JUMPDEST DUP2 ISZERO PUSH2 0x1B6A JUMPI JUMPDEST POP DUP4 PUSH2 0x1B42 JUMP JUMPDEST PUSH4 0x1FFC9A7 PUSH1 0xE0 SHL EQ SWAP1 POP DUP4 PUSH2 0x1B63 JUMP JUMPDEST PUSH4 0x5B5E139F PUSH1 0xE0 SHL DUP2 EQ SWAP2 POP PUSH2 0x1B5C JUMP JUMPDEST PUSH1 0x0 JUMPDEST DUP4 DUP2 LT PUSH2 0x1B9F JUMPI POP POP PUSH1 0x0 SWAP2 ADD MSTORE JUMP JUMPDEST DUP2 DUP2 ADD MLOAD DUP4 DUP3 ADD MSTORE PUSH1 0x20 ADD PUSH2 0x1B8F JUMP JUMPDEST SWAP1 PUSH1 0x20 SWAP2 PUSH2 0x1BC8 DUP2 MLOAD DUP1 SWAP3 DUP2 DUP6 MSTORE DUP6 DUP1 DUP7 ADD SWAP2 ADD PUSH2 0x1B8C JUMP JUMPDEST PUSH1 0x1F ADD PUSH1 0x1F NOT AND ADD ADD SWAP1 JUMP JUMPDEST PUSH1 0x4 CALLDATALOAD SWAP1 PUSH1 0x1 PUSH1 0x1 PUSH1 0xA0 SHL SUB DUP3 AND DUP3 SUB PUSH2 0x297 JUMPI JUMP JUMPDEST PUSH1 0x24 CALLDATALOAD SWAP1 PUSH1 0x1 PUSH1 0x1 PUSH1 0xA0 SHL SUB DUP3 AND DUP3 SUB PUSH2 0x297 JUMPI JUMP JUMPDEST PUSH1 0x60 SWAP1 PUSH1 0x3 NOT ADD SLT PUSH2 0x297 JUMPI PUSH1 0x1 PUSH1 0x1 PUSH1 0xA0 SHL SUB SWAP1 PUSH1 0x4 CALLDATALOAD DUP3 DUP2 AND DUP2 SUB PUSH2 0x297 JUMPI SWAP2 PUSH1 0x24 CALLDATALOAD SWAP1 DUP2 AND DUP2 SUB PUSH2 0x297 JUMPI SWAP1 PUSH1 0x44 CALLDATALOAD SWAP1 JUMP JUMPDEST PUSH1 0xA0 DUP2 ADD SWAP1 DUP2 LT PUSH8 0xFFFFFFFFFFFFFFFF DUP3 GT OR PUSH2 0x1C51 JUMPI PUSH1 0x40 MSTORE JUMP JUMPDEST PUSH4 0x4E487B71 PUSH1 0xE0 SHL PUSH1 0x0 MSTORE PUSH1 0x41 PUSH1 0x4 MSTORE PUSH1 0x24 PUSH1 0x0 REVERT JUMPDEST PUSH1 0x60 DUP2 ADD SWAP1 DUP2 LT PUSH8 0xFFFFFFFFFFFFFFFF DUP3 GT OR PUSH2 0x1C51 JUMPI PUSH1 0x40 MSTORE JUMP JUMPDEST PUSH1 0x20 DUP2 ADD SWAP1 DUP2 LT PUSH8 0xFFFFFFFFFFFFFFFF DUP3 GT OR PUSH2 0x1C51 JUMPI PUSH1 0x40 MSTORE JUMP JUMPDEST PUSH1 0x80 DUP2 ADD SWAP1 DUP2 LT PUSH8 0xFFFFFFFFFFFFFFFF DUP3 GT OR PUSH2 0x1C51 JUMPI PUSH1 0x40 MSTORE JUMP JUMPDEST PUSH1 0x40 DUP2 ADD SWAP1 DUP2 LT PUSH8 0xFFFFFFFFFFFFFFFF DUP3 GT OR PUSH2 0x1C51 JUMPI PUSH1 0x40 MSTORE JUMP JUMPDEST SWAP1 PUSH1 0x1F DUP1 NOT SWAP2 ADD AND DUP2 ADD SWAP1 DUP2 LT PUSH8 0xFFFFFFFFFFFFFFFF DUP3 GT OR PUSH2 0x1C51 JUMPI PUSH1 0x40 MSTORE JUMP JUMPDEST PUSH8 0xFFFFFFFFFFFFFFFF DUP2 GT PUSH2 0x1C51 JUMPI PUSH1 0x1F ADD PUSH1 0x1F NOT AND PUSH1 0x20 ADD SWAP1 JUMP JUMPDEST DUP1 PUSH1 0x0 MSTORE PUSH1 0x7 PUSH1 0x20 MSTORE PUSH1 0x40 PUSH1 0x0 KECCAK256 CALLER PUSH1 0x0 MSTORE PUSH1 0x20 MSTORE PUSH1 0xFF PUSH1 0x40 PUSH1 0x0 KECCAK256 SLOAD AND ISZERO PUSH2 0x1D3B JUMPI POP JUMP JUMPDEST PUSH1 0x44 SWAP1 PUSH1 0x40 MLOAD SWAP1 PUSH4 0xE2517D3F PUSH1 0xE0 SHL DUP3 MSTORE CALLER PUSH1 0x4 DUP4 ADD MSTORE PUSH1 0x24 DUP3 ADD MSTORE REVERT JUMPDEST SWAP1 PUSH1 0x0 SWAP2 DUP1 DUP4 MSTORE PUSH1 0x7 PUSH1 0x20 MSTORE PUSH1 0x40 DUP4 KECCAK256 SWAP2 PUSH1 0x1 DUP1 PUSH1 0xA0 SHL SUB AND SWAP2 DUP3 DUP5 MSTORE PUSH1 0x20 MSTORE PUSH1 0xFF PUSH1 0x40 DUP5 KECCAK256 SLOAD AND ISZERO PUSH1 0x0 EQ PUSH2 0x1DD4 JUMPI DUP1 DUP4 MSTORE PUSH1 0x7 PUSH1 0x20 MSTORE PUSH1 0x40 DUP4 KECCAK256 DUP3 DUP5 MSTORE PUSH1 0x20 MSTORE PUSH1 0x40 DUP4 KECCAK256 PUSH1 0x1 PUSH1 0xFF NOT DUP3 SLOAD AND OR SWAP1 SSTORE PUSH32 0x2F8788117E7EFF1D82E926EC794901D17C78024A50270940304540A733656F0D CALLER SWAP4 DUP1 LOG4 PUSH1 0x1 SWAP1 JUMP JUMPDEST POP POP SWAP1 JUMP JUMPDEST SWAP1 PUSH1 0x0 SWAP2 DUP1 DUP4 MSTORE PUSH1 0x7 PUSH1 0x20 MSTORE PUSH1 0x40 DUP4 KECCAK256 SWAP2 PUSH1 0x1 DUP1 PUSH1 0xA0 SHL SUB AND SWAP2 DUP3 DUP5 MSTORE PUSH1 0x20 MSTORE PUSH1 0xFF PUSH1 0x40 DUP5 KECCAK256 SLOAD AND PUSH1 0x0 EQ PUSH2 0x1DD4 JUMPI DUP1 DUP4 MSTORE PUSH1 0x7 PUSH1 0x20 MSTORE PUSH1 0x40 DUP4 KECCAK256 DUP3 DUP5 MSTORE PUSH1 0x20 MSTORE PUSH1 0x40 DUP4 KECCAK256 PUSH1 0xFF NOT DUP2 SLOAD AND SWAP1 SSTORE PUSH32 0xF6391F5C32D9C69D2A47EA670B442974B53935D1EDC7FD64EB21E047A839171B CALLER SWAP4 DUP1 LOG4 PUSH1 0x1 SWAP1 JUMP JUMPDEST PUSH1 0x6 SLOAD PUSH1 0x1 PUSH1 0x1 PUSH1 0xA0 SHL SUB AND CALLER SUB PUSH2 0x1E64 JUMPI JUMP JUMPDEST PUSH1 0x40 MLOAD PUSH4 0x118CDAA7 PUSH1 0xE0 SHL DUP2 MSTORE CALLER PUSH1 0x4 DUP3 ADD MSTORE PUSH1 0x24 SWAP1 REVERT JUMPDEST PUSH1 0x1 PUSH1 0x1 PUSH1 0xA0 SHL SUB SWAP2 DUP3 AND SWAP3 SWAP1 SWAP2 DUP4 ISZERO PUSH2 0x2009 JUMPI PUSH1 0x0 SWAP3 DUP3 DUP5 MSTORE DUP3 PUSH1 0x20 SWAP6 PUSH1 0x2 DUP8 MSTORE PUSH1 0x40 SWAP7 DUP5 DUP9 DUP9 KECCAK256 SLOAD AND SWAP7 DUP8 SWAP2 CALLER ISZERO ISZERO DUP1 PUSH2 0x1F6C JUMPI JUMPDEST POP SWAP1 PUSH1 0x2 PUSH32 0xDDF252AD1BE2C89B69C2B068FC378DAA952BA7F163C4A11628F55A4DF523B3EF SWAP3 DUP5 PUSH2 0x1F39 JUMPI JUMPDEST DUP6 DUP4 MSTORE PUSH1 0x3 DUP2 MSTORE DUP12 DUP4 KECCAK256 DUP1 SLOAD PUSH1 0x1 ADD SWAP1 SSTORE DUP7 DUP4 MSTORE MSTORE DUP10 DUP2 KECCAK256 DUP1 SLOAD PUSH1 0x1 PUSH1 0x1 PUSH1 0xA0 SHL SUB NOT AND DUP6 OR SWAP1 SSTORE DUP1 LOG4 AND SWAP3 DUP4 DUP4 SUB PUSH2 0x1F18 JUMPI POP POP POP POP JUMP JUMPDEST PUSH1 0x64 SWAP5 POP MLOAD SWAP3 PUSH4 0x64283D7B PUSH1 0xE0 SHL DUP5 MSTORE PUSH1 0x4 DUP5 ADD MSTORE PUSH1 0x24 DUP4 ADD MSTORE PUSH1 0x44 DUP3 ADD MSTORE REVERT JUMPDEST PUSH1 0x0 DUP8 DUP2 MSTORE PUSH1 0x4 PUSH1 0x20 MSTORE PUSH1 0x40 SWAP1 KECCAK256 DUP1 SLOAD PUSH1 0x1 PUSH1 0x1 PUSH1 0xA0 SHL SUB NOT AND SWAP1 SSTORE DUP5 DUP4 MSTORE PUSH1 0x3 DUP2 MSTORE DUP12 DUP4 KECCAK256 DUP1 SLOAD PUSH1 0x0 NOT ADD SWAP1 SSTORE PUSH2 0x1EDF JUMP JUMPDEST SWAP2 SWAP4 SWAP5 POP SWAP2 POP DUP1 PUSH2 0x1FC8 JUMPI JUMPDEST ISZERO PUSH2 0x1F88 JUMPI DUP6 SWAP3 SWAP2 DUP8 SWAP2 CODESIZE PUSH2 0x1EB3 JUMP JUMPDEST DUP8 DUP7 DUP9 PUSH2 0x1FA5 JUMPI PUSH1 0x24 SWAP2 MLOAD SWAP1 PUSH4 0x7E273289 PUSH1 0xE0 SHL DUP3 MSTORE PUSH1 0x4 DUP3 ADD MSTORE REVERT JUMPDEST SWAP1 MLOAD PUSH4 0x177E802F PUSH1 0xE0 SHL DUP2 MSTORE CALLER PUSH1 0x4 DUP3 ADD MSTORE PUSH1 0x24 DUP2 ADD SWAP2 SWAP1 SWAP2 MSTORE PUSH1 0x44 SWAP1 REVERT JUMPDEST SUB SWAP1 REVERT JUMPDEST POP CALLER DUP8 EQ DUP1 ISZERO PUSH2 0x1FED JUMPI JUMPDEST DUP1 PUSH2 0x1F78 JUMPI POP DUP6 DUP3 MSTORE PUSH1 0x4 DUP2 MSTORE CALLER DUP6 DUP10 DUP5 KECCAK256 SLOAD AND EQ PUSH2 0x1F78 JUMP JUMPDEST POP DUP7 DUP3 MSTORE PUSH1 0x5 DUP2 MSTORE DUP8 DUP3 KECCAK256 CALLER DUP4 MSTORE DUP2 MSTORE PUSH1 0xFF DUP9 DUP4 KECCAK256 SLOAD AND PUSH2 0x1FD3 JUMP JUMPDEST PUSH1 0x40 MLOAD PUSH4 0x32505749 PUSH1 0xE1 SHL DUP2 MSTORE PUSH1 0x0 PUSH1 0x4 DUP3 ADD MSTORE PUSH1 0x24 SWAP1 REVERT JUMPDEST SWAP3 SWAP1 SWAP3 PUSH2 0x2030 DUP4 DUP6 DUP4 PUSH2 0x1E7C JUMP JUMPDEST DUP4 EXTCODESIZE PUSH2 0x203D JUMPI JUMPDEST POP POP POP POP JUMP JUMPDEST PUSH1 0x40 MLOAD PUSH4 0xA85BD01 PUSH1 0xE1 SHL DUP1 DUP3 MSTORE CALLER PUSH1 0x4 DUP4 ADD MSTORE PUSH1 0x1 PUSH1 0x1 PUSH1 0xA0 SHL SUB SWAP3 DUP4 AND PUSH1 0x24 DUP4 ADD MSTORE PUSH1 0x44 DUP3 ADD SWAP5 SWAP1 SWAP5 MSTORE PUSH1 0x80 PUSH1 0x64 DUP3 ADD MSTORE SWAP5 SWAP4 AND SWAP3 PUSH1 0x20 SWAP3 SWAP1 SWAP2 DUP6 SWAP1 PUSH2 0x2089 SWAP1 PUSH1 0x84 DUP4 ADD SWAP1 PUSH2 0x1BAF JUMP JUMPDEST SUB SWAP5 DUP4 DUP2 PUSH1 0x0 SWAP8 DUP2 DUP10 DUP10 GAS CALL DUP7 SWAP2 DUP2 PUSH2 0x2133 JUMPI JUMPDEST POP PUSH2 0x20FE JUMPI POP POP POP RETURNDATASIZE PUSH1 0x0 EQ PUSH2 0x20F5 JUMPI RETURNDATASIZE PUSH2 0x20B7 DUP2 PUSH2 0x1CF9 JUMP JUMPDEST SWAP1 PUSH2 0x20C5 PUSH1 0x40 MLOAD SWAP3 DUP4 PUSH2 0x1CD7 JUMP JUMPDEST DUP2 MSTORE DUP1 SWAP4 DUP3 RETURNDATASIZE SWAP3 ADD RETURNDATACOPY JUMPDEST DUP3 MLOAD SWAP3 DUP4 PUSH2 0x20F0 JUMPI PUSH1 0x40 MLOAD PUSH4 0x32505749 PUSH1 0xE1 SHL DUP2 MSTORE PUSH1 0x4 DUP2 ADD DUP5 SWAP1 MSTORE PUSH1 0x24 SWAP1 REVERT JUMPDEST ADD SWAP1 POP REVERT JUMPDEST PUSH1 0x60 SWAP3 POP PUSH2 0x20CF JUMP JUMPDEST SWAP2 SWAP5 POP SWAP2 POP PUSH4 0xFFFFFFFF PUSH1 0xE0 SHL AND SUB PUSH2 0x211B JUMPI POP CODESIZE DUP1 DUP1 DUP1 PUSH2 0x2037 JUMP JUMPDEST PUSH1 0x24 SWAP1 PUSH1 0x40 MLOAD SWAP1 PUSH4 0x32505749 PUSH1 0xE1 SHL DUP3 MSTORE PUSH1 0x4 DUP3 ADD MSTORE REVERT JUMPDEST SWAP1 SWAP2 POP DUP5 DUP2 DUP2 RETURNDATASIZE DUP4 GT PUSH2 0x2170 JUMPI JUMPDEST PUSH2 0x214B DUP2 DUP4 PUSH2 0x1CD7 JUMP JUMPDEST DUP2 ADD SUB SLT PUSH2 0x216C JUMPI MLOAD PUSH1 0x1 PUSH1 0x1 PUSH1 0xE0 SHL SUB NOT DUP2 AND DUP2 SUB PUSH2 0x216C JUMPI SWAP1 CODESIZE PUSH2 0x209D JUMP JUMPDEST DUP7 DUP1 REVERT JUMPDEST POP RETURNDATASIZE PUSH2 0x2141 JUMP JUMPDEST PUSH1 0x0 DUP2 DUP2 MSTORE PUSH1 0x2 PUSH1 0x20 MSTORE PUSH1 0x40 SWAP1 KECCAK256 SLOAD PUSH1 0x1 PUSH1 0x1 PUSH1 0xA0 SHL SUB AND SWAP1 DUP2 ISZERO PUSH2 0x219A JUMPI POP SWAP1 JUMP JUMPDEST PUSH1 0x24 SWAP1 PUSH1 0x40 MLOAD SWAP1 PUSH4 0x7E273289 PUSH1 0xE0 SHL DUP3 MSTORE PUSH1 0x4 DUP3 ADD MSTORE REVERT JUMPDEST DUP2 ISZERO PUSH2 0x21BC JUMPI DIV SWAP1 JUMP JUMPDEST PUSH4 0x4E487B71 PUSH1 0xE0 SHL PUSH1 0x0 MSTORE PUSH1 0x12 PUSH1 0x4 MSTORE PUSH1 0x24 PUSH1 0x0 REVERT JUMPDEST ISZERO PUSH2 0x21DA JUMPI POP JUMP JUMPDEST PUSH1 0x40 MLOAD PUSH3 0x461BCD PUSH1 0xE5 SHL DUP2 MSTORE PUSH1 0x20 PUSH1 0x4 DUP3 ADD MSTORE SWAP1 DUP2 SWAP1 PUSH2 0x1FC4 SWAP1 PUSH1 0x24 DUP4 ADD SWAP1 PUSH2 0x1BAF JUMP JUMPDEST PUSH1 0x0 NOT DUP2 EQ PUSH2 0x220D JUMPI PUSH1 0x1 ADD SWAP1 JUMP JUMPDEST PUSH4 0x4E487B71 PUSH1 0xE0 SHL PUSH1 0x0 MSTORE PUSH1 0x11 PUSH1 0x4 MSTORE PUSH1 0x24 PUSH1 0x0 REVERT JUMPDEST SWAP2 SWAP1 DUP3 ADD DUP1 SWAP3 GT PUSH2 0x220D JUMPI JUMP JUMPDEST SWAP1 PUSH1 0x0 PUSH1 0x20 SWAP2 DUP3 DUP2 MLOAD SWAP2 ADD DUP3 DUP6 GAS CALL ISZERO PUSH2 0x159A JUMPI PUSH1 0x0 MLOAD RETURNDATASIZE PUSH2 0x2283 JUMPI POP PUSH1 0x1 PUSH1 0x1 PUSH1 0xA0 SHL SUB DUP2 AND EXTCODESIZE ISZERO JUMPDEST PUSH2 0x2261 JUMPI POP JUMP JUMPDEST PUSH1 0x40 MLOAD PUSH4 0x5274AFE7 PUSH1 0xE0 SHL DUP2 MSTORE PUSH1 0x1 PUSH1 0x1 PUSH1 0xA0 SHL SUB SWAP1 SWAP2 AND PUSH1 0x4 DUP3 ADD MSTORE PUSH1 0x24 SWAP1 REVERT JUMPDEST PUSH1 0x1 EQ ISZERO PUSH2 0x225A JUMP JUMPDEST SWAP1 DUP2 MLOAD DUP2 LT ISZERO PUSH2 0x229D JUMPI ADD PUSH1 0x20 ADD SWAP1 JUMP JUMPDEST PUSH4 0x4E487B71 PUSH1 0xE0 SHL PUSH1 0x0 MSTORE PUSH1 0x32 PUSH1 0x4 MSTORE PUSH1 0x24 PUSH1 0x0 REVERT JUMPDEST DUP2 DUP2 MUL SWAP3 SWAP2 DUP2 ISZERO SWAP2 DUP5 DIV EQ OR ISZERO PUSH2 0x220D JUMPI JUMP JUMPDEST PUSH1 0x40 MLOAD SWAP1 PUSH1 0x1 PUSH1 0x1 PUSH1 0xA0 SHL SUB AND PUSH2 0x22DC DUP3 PUSH2 0x1CBB JUMP JUMPDEST PUSH1 0x10 DUP3 MSTORE PUSH1 0x20 PUSH16 0x181899199A1A9B1B9C1CB0B131B232B3 PUSH1 0x81 SHL DUP2 DUP5 ADD MSTORE PUSH1 0x40 MLOAD SWAP3 PUSH2 0x2307 DUP5 PUSH2 0x1C67 JUMP JUMPDEST PUSH1 0x2A DUP5 MSTORE DUP2 DUP5 ADD PUSH1 0x40 CALLDATASIZE DUP3 CALLDATACOPY DUP5 MLOAD ISZERO PUSH2 0x229D JUMPI PUSH1 0x30 SWAP1 MSTORE8 DUP4 MLOAD SWAP3 PUSH1 0x1 SWAP4 DUP5 LT ISZERO PUSH2 0x229D JUMPI PUSH1 0x78 PUSH1 0x21 DUP7 ADD MSTORE8 PUSH1 0x0 JUMPDEST PUSH1 0x14 DUP2 LT PUSH2 0x2345 JUMPI POP POP POP POP POP SWAP1 JUMP JUMPDEST PUSH1 0xC DUP2 ADD DUP1 DUP3 GT PUSH2 0x220D JUMPI DUP5 DUP2 LT ISZERO PUSH2 0x229D JUMPI DUP3 SWAP1 BYTE PUSH1 0x4 PUSH1 0x1 PUSH1 0x1 PUSH1 0xF8 SHL SUB NOT PUSH1 0xF DUP2 PUSH2 0x2377 DUP6 DUP6 SHR DUP4 AND DUP10 PUSH2 0x228C JUMP JUMPDEST MLOAD AND SWAP4 DUP6 DUP11 SHL SWAP5 PUSH1 0x2 SWAP1 DUP8 DUP8 DIV DUP3 EQ DUP9 ISZERO OR ISZERO PUSH2 0x23F7 JUMPI DUP7 DUP3 ADD DUP1 SWAP3 GT PUSH2 0x23F7 JUMPI PUSH2 0x23AC PUSH2 0x23B4 SWAP5 SWAP4 SWAP3 DUP15 SWAP3 PUSH1 0x0 BYTE SWAP3 PUSH2 0x228C JUMP JUMPDEST MSTORE8 AND DUP8 PUSH2 0x228C JUMP JUMPDEST MLOAD AND SWAP1 PUSH1 0x3 SWAP3 DUP4 ADD DUP1 SWAP4 GT PUSH2 0x23E2 JUMPI POP SWAP1 PUSH2 0x23D7 PUSH2 0x23DD SWAP4 SWAP3 PUSH1 0x0 BYTE SWAP2 DUP10 PUSH2 0x228C JUMP JUMPDEST MSTORE8 PUSH2 0x21FE JUMP JUMPDEST PUSH2 0x2335 JUMP JUMPDEST PUSH1 0x11 SWAP1 PUSH4 0x4E487B71 PUSH1 0xE0 SHL PUSH1 0x0 MSTORE MSTORE PUSH1 0x24 PUSH1 0x0 REVERT JUMPDEST PUSH1 0x11 DUP7 PUSH4 0x4E487B71 PUSH1 0xE0 SHL PUSH1 0x0 MSTORE MSTORE PUSH1 0x24 PUSH1 0x0 REVERT JUMPDEST ISZERO PUSH2 0x2413 JUMPI JUMP JUMPDEST PUSH1 0x40 MLOAD PUSH3 0x461BCD PUSH1 0xE5 SHL DUP2 MSTORE PUSH1 0x20 PUSH1 0x4 DUP3 ADD MSTORE PUSH1 0xD PUSH1 0x24 DUP3 ADD MSTORE PUSH13 0x2737BA1027232A1037BBB732B9 PUSH1 0x99 SHL PUSH1 0x44 DUP3 ADD MSTORE PUSH1 0x64 SWAP1 REVERT JUMPDEST SWAP2 SWAP1 DUP3 SUB SWAP2 DUP3 GT PUSH2 0x220D JUMPI JUMP JUMPDEST PUSH1 0x1 PUSH1 0x1 PUSH1 0xA0 SHL SUB SWAP1 DUP2 PUSH2 0x2468 DUP3 PUSH2 0x2177 JUMP JUMPDEST AND ISZERO PUSH2 0x2564 JUMPI PUSH1 0x0 SWAP1 DUP2 MSTORE PUSH1 0x20 SWAP1 PUSH1 0xF DUP3 MSTORE PUSH1 0x40 DUP2 KECCAK256 SWAP1 PUSH1 0x40 MLOAD SWAP1 PUSH2 0x248C DUP3 PUSH2 0x1C35 JUMP JUMPDEST DUP5 DUP4 SLOAD AND DUP3 MSTORE DUP4 PUSH2 0x24CC PUSH1 0x1 DUP6 ADD SLOAD SWAP5 DUP3 DUP6 ADD SWAP6 DUP7 MSTORE PUSH1 0xFF PUSH1 0x4 PUSH1 0x2 DUP4 ADD SLOAD SWAP3 DUP4 PUSH1 0x40 DUP10 ADD MSTORE PUSH1 0x3 DUP2 ADD SLOAD PUSH1 0x60 DUP10 ADD MSTORE ADD SLOAD AND ISZERO ISZERO PUSH1 0x80 DUP7 ADD MSTORE TIMESTAMP PUSH2 0x2448 JUMP JUMPDEST SWAP6 DUP1 PUSH1 0xD SLOAD AND SWAP4 MLOAD AND PUSH1 0x24 PUSH1 0x40 MLOAD DUP1 SWAP6 DUP2 SWAP4 PUSH4 0xC4F9870B PUSH1 0xE0 SHL DUP4 MSTORE PUSH1 0x4 DUP4 ADD MSTORE GAS STATICCALL SWAP4 DUP5 ISZERO PUSH2 0x2557 JUMPI DUP2 SWAP5 PUSH2 0x251D JUMPI JUMPDEST POP POP POP SWAP2 PUSH2 0x2514 PUSH2 0x2519 SWAP3 PUSH4 0xBBF81E00 SWAP5 MLOAD PUSH2 0x22B3 JUMP JUMPDEST PUSH2 0x22B3 JUMP JUMPDEST DIV SWAP1 JUMP JUMPDEST SWAP1 SWAP2 DUP1 SWAP4 SWAP5 POP DUP2 RETURNDATASIZE DUP4 GT PUSH2 0x2550 JUMPI JUMPDEST PUSH2 0x2536 DUP2 DUP4 PUSH2 0x1CD7 JUMP JUMPDEST DUP2 ADD SUB SLT PUSH2 0x254D JUMPI POP MLOAD SWAP1 PUSH2 0x2514 DUP2 PUSH2 0x2519 PUSH2 0x24FD JUMP JUMPDEST DUP1 REVERT JUMPDEST POP RETURNDATASIZE PUSH2 0x252C JUMP JUMPDEST POP PUSH1 0x40 MLOAD SWAP1 RETURNDATASIZE SWAP1 DUP3 RETURNDATACOPY RETURNDATASIZE SWAP1 REVERT JUMPDEST PUSH1 0x40 MLOAD PUSH3 0x461BCD PUSH1 0xE5 SHL DUP2 MSTORE PUSH1 0x20 PUSH1 0x4 DUP3 ADD MSTORE PUSH1 0x17 PUSH1 0x24 DUP3 ADD MSTORE PUSH32 0x506F736974696F6E20646F6573206E6F74206578697374000000000000000000 PUSH1 0x44 DUP3 ADD MSTORE PUSH1 0x64 SWAP1 REVERT JUMPDEST PUSH1 0x40 MLOAD PUSH4 0xA9059CBB PUSH1 0xE0 SHL PUSH1 0x20 DUP3 ADD MSTORE PUSH1 0x1 PUSH1 0x1 PUSH1 0xA0 SHL SUB SWAP3 SWAP1 SWAP3 AND PUSH1 0x24 DUP4 ADD MSTORE PUSH1 0x44 DUP1 DUP4 ADD SWAP4 SWAP1 SWAP4 MSTORE SWAP2 DUP2 MSTORE PUSH2 0x25EA SWAP2 PUSH2 0x25E5 PUSH1 0x64 DUP4 PUSH2 0x1CD7 JUMP JUMPDEST PUSH2 0x2230 JUMP JUMPDEST JUMP JUMPDEST DUP1 MLOAD ISZERO PUSH2 0x229D JUMPI PUSH1 0x20 ADD SWAP1 JUMP JUMPDEST DUP1 MLOAD PUSH1 0x1 LT ISZERO PUSH2 0x229D JUMPI PUSH1 0x40 ADD SWAP1 JUMP JUMPDEST DUP1 MLOAD PUSH1 0x2 LT ISZERO PUSH2 0x229D JUMPI PUSH1 0x60 ADD SWAP1 JUMP JUMPDEST PUSH1 0x40 PUSH1 0x60 DUP2 MLOAD PUSH2 0x2628 DUP2 PUSH2 0x1C67 JUMP JUMPDEST CALLDATASIZE SWAP1 CALLDATACOPY DUP1 MLOAD SWAP1 PUSH2 0x2637 DUP3 PUSH2 0x1C9F JUMP JUMPDEST PUSH1 0x3 DUP3 MSTORE PUSH1 0x20 DUP1 DUP4 ADD SWAP1 PUSH1 0x60 CALLDATASIZE DUP4 CALLDATACOPY PUSH1 0x9 SLOAD PUSH1 0x1 PUSH1 0x1 PUSH1 0xA0 SHL SUB SWAP2 SWAP1 DUP3 AND PUSH2 0x265E DUP7 PUSH2 0x25EC JUMP JUMPDEST MSTORE DUP2 PUSH1 0xA SLOAD AND PUSH2 0x266D DUP7 PUSH2 0x25F9 JUMP JUMPDEST MSTORE DUP2 PUSH1 0xB SLOAD AND PUSH2 0x267C DUP7 PUSH2 0x2609 JUMP JUMPDEST MSTORE DUP2 PUSH1 0xD SLOAD AND DUP5 MLOAD DUP1 SWAP5 PUSH4 0x379698E9 PUSH1 0xE2 SHL DUP3 MSTORE PUSH1 0x24 SWAP5 DUP6 DUP4 ADD PUSH1 0x4 SWAP10 DUP7 DUP12 DUP7 ADD MSTORE MLOAD DUP1 SWAP2 MSTORE PUSH1 0x44 DUP5 ADD SWAP3 SWAP2 PUSH1 0x0 SWAP1 JUMPDEST DUP8 DUP4 DUP4 LT PUSH2 0x28DE JUMPI POP POP POP POP POP SWAP2 DUP2 DUP1 PUSH1 0x0 SWAP5 SUB SWAP2 GAS STATICCALL SWAP3 DUP4 ISZERO PUSH2 0x28D3 JUMPI PUSH1 0x0 SWAP4 PUSH2 0x2826 JUMPI JUMPDEST POP PUSH2 0x26FC PUSH2 0x26F3 PUSH2 0x26E2 DUP6 PUSH2 0x25EC JUMP JUMPDEST MLOAD PUSH2 0x26EC DUP7 PUSH2 0x25F9 JUMP JUMPDEST MLOAD SWAP1 PUSH2 0x2223 JUMP JUMPDEST PUSH2 0x26EC DUP6 PUSH2 0x2609 JUMP JUMPDEST SWAP2 DUP3 ISZERO PUSH2 0x2804 JUMPI DUP5 MLOAD SWAP6 PUSH2 0x270F DUP8 PUSH2 0x1C67 JUMP JUMPDEST PUSH2 0x2718 DUP6 PUSH2 0x25EC JUMP JUMPDEST MLOAD SWAP3 PUSH1 0x64 SWAP4 DUP5 DUP2 MUL SWAP1 DUP1 DUP3 DIV DUP7 EQ SWAP1 ISZERO OR ISZERO PUSH2 0x27F0 JUMPI DUP6 PUSH2 0x2738 SWAP2 PUSH2 0x21B2 JUMP JUMPDEST DUP9 MSTORE PUSH2 0x2743 DUP7 PUSH2 0x25F9 JUMP JUMPDEST MLOAD DUP5 DUP2 MUL SWAP1 DUP1 DUP3 DIV DUP7 EQ SWAP1 ISZERO OR ISZERO PUSH2 0x27F0 JUMPI DUP6 PUSH2 0x275F SWAP2 PUSH2 0x21B2 JUMP JUMPDEST SWAP1 DUP9 ADD MSTORE PUSH2 0x276C DUP6 PUSH2 0x25EC JUMP JUMPDEST MLOAD DUP4 DUP2 MUL SWAP1 DUP1 DUP3 DIV DUP6 EQ SWAP1 ISZERO OR ISZERO PUSH2 0x27DC JUMPI DUP5 PUSH2 0x2788 SWAP2 PUSH2 0x21B2 JUMP JUMPDEST DUP4 SUB SWAP5 DUP4 DUP7 GT PUSH2 0x27DC JUMPI PUSH2 0x279B SWAP1 PUSH2 0x25F9 JUMP JUMPDEST MLOAD DUP4 DUP2 MUL SWAP4 DUP2 DUP6 DIV EQ SWAP1 ISZERO OR ISZERO PUSH2 0x27C9 JUMPI POP POP PUSH2 0x27C2 SWAP3 SWAP2 PUSH2 0x27BC SWAP2 PUSH2 0x21B2 JUMP JUMPDEST SWAP1 PUSH2 0x2448 JUMP JUMPDEST SWAP1 DUP3 ADD MSTORE SWAP1 JUMP JUMPDEST PUSH1 0x11 SWAP1 PUSH4 0x4E487B71 PUSH1 0xE0 SHL PUSH1 0x0 MSTORE MSTORE PUSH1 0x0 REVERT JUMPDEST POP PUSH1 0x11 SWAP1 PUSH4 0x4E487B71 PUSH1 0xE0 SHL PUSH1 0x0 MSTORE MSTORE PUSH1 0x0 REVERT JUMPDEST DUP4 PUSH1 0x11 DUP5 PUSH4 0x4E487B71 PUSH1 0xE0 SHL PUSH1 0x0 MSTORE MSTORE PUSH1 0x0 REVERT JUMPDEST POP SWAP4 POP POP POP DUP1 PUSH1 0x21 PUSH1 0x22 SWAP3 MLOAD SWAP4 PUSH2 0x281A DUP6 PUSH2 0x1C67 JUMP JUMPDEST DUP2 DUP6 MSTORE DUP5 ADD MSTORE DUP3 ADD MSTORE SWAP1 JUMP JUMPDEST SWAP1 SWAP3 RETURNDATASIZE DUP1 DUP3 DUP5 RETURNDATACOPY PUSH2 0x2837 DUP2 DUP5 PUSH2 0x1CD7 JUMP JUMPDEST DUP3 ADD SWAP1 DUP5 DUP4 DUP4 SUB SLT PUSH2 0x254D JUMPI DUP3 MLOAD PUSH8 0xFFFFFFFFFFFFFFFF SWAP4 DUP5 DUP3 GT PUSH2 0x28CF JUMPI ADD DUP3 PUSH1 0x1F DUP3 ADD SLT ISZERO PUSH2 0x28CB JUMPI DUP1 MLOAD SWAP4 DUP5 GT PUSH2 0x28B9 JUMPI DUP4 PUSH1 0x5 SHL SWAP2 DUP8 MLOAD SWAP5 PUSH2 0x287F DUP9 DUP6 ADD DUP8 PUSH2 0x1CD7 JUMP JUMPDEST DUP6 MSTORE DUP7 DUP1 DUP7 ADD SWAP4 DUP4 ADD ADD SWAP4 DUP5 GT PUSH2 0x254D JUMPI POP DUP6 DUP1 SWAP2 ADD SWAP2 JUMPDEST DUP4 DUP4 LT PUSH2 0x28A9 JUMPI POP POP POP POP SWAP2 CODESIZE PUSH2 0x26D2 JUMP JUMPDEST DUP3 MLOAD DUP2 MSTORE SWAP2 DUP2 ADD SWAP2 DUP7 SWAP2 ADD PUSH2 0x2897 JUMP JUMPDEST PUSH4 0x4E487B71 PUSH1 0xE0 SHL DUP3 MSTORE PUSH1 0x41 DUP9 MSTORE DUP5 DUP3 REVERT JUMPDEST POP DUP1 REVERT JUMPDEST DUP3 DUP1 REVERT JUMPDEST DUP5 MLOAD RETURNDATASIZE PUSH1 0x0 DUP3 RETURNDATACOPY RETURNDATASIZE SWAP1 REVERT JUMPDEST DUP5 MLOAD DUP3 AND DUP7 MSTORE DUP11 SWAP7 POP SWAP5 DUP6 ADD SWAP5 SWAP1 SWAP4 ADD SWAP3 PUSH1 0x1 SWAP2 SWAP1 SWAP2 ADD SWAP1 PUSH2 0x26AC JUMP INVALID 0xC SLT PUSH8 0xF8B6A6608F6166EA SWAP9 0xCE SWAP2 0xE2 EXTCODEHASH 0xE3 0xBF 0xD SWAP3 CHAINID BASEFEE SLOAD 0x24 SWAP5 DUP2 0xDD PUSH30 0x7A5D464A2646970667358221220CF01EA5C534E0061CACE20F91221FF24 0xDE 0x1F 0xAC SLT 0xCE PUSH19 0x98851A7D60AEA024029664736F6C6343000814 STOP CALLER 0x29 0xD 0xEC 0xD9 SLOAD DUP12 PUSH3 0xA8D603 GASLIMIT 0xA9 DUP9 CODESIZE PUSH16 0xC84BA6BC95484008F6362F93160EF3E5 PUSH4 0xB10E2D52 PUSH23 0x12073B26EECDFD717E6A320CF44B4AFAC2B0732D9FCBE2 0xB7 STATICCALL 0xC 0xF6 "},"methodIdentifiers":{"DEFAULT_ADMIN_ROLE()":"a217fddf","approve(address,uint256)":"095ea7b3","balanceOf(address)":"70a08231","cEUR()":"7d1f2de7","cREAL()":"d47ce0a6","cUSD()":"1fccf672","calculateYield(uint256)":"80a3301b","claimYield(uint256)":"40bd2e23","deposit(address,uint256)":"47e7ef24","dex()":"692058c2","factory()":"c45a0155","getApproved(uint256)":"081812fc","getOptimalAllocation()":"33a7ad76","getRoleAdmin(bytes32)":"248a9ca3","grantRole(bytes32,address)":"2f2ff15d","hasRole(bytes32,address)":"91d14854","isApprovedForAll(address,address)":"e985e9c5","name()":"06fdde03","nextTokenId()":"75794a3c","owner()":"8da5cb5b","ownerOf(uint256)":"6352211e","positions(uint256)":"99fbab88","rebalance(uint256)":"f4993018","redeem(uint256)":"db006a75","renounceOwnership()":"715018a6","renounceRole(bytes32,address)":"36568abe","revokeRole(bytes32,address)":"d547741f","safeTransferFrom(address,address,uint256)":"42842e0e","safeTransferFrom(address,address,uint256,bytes)":"b88d4fde","setApprovalForAll(address,bool)":"a22cb465","supportsInterface(bytes4)":"01ffc9a7","symbol()":"95d89b41","tokenURI(uint256)":"c87b56dd","totalDeposits(address)":"e9403256","totalYield(address)":"b26dd040","transferFrom(address,address,uint256)":"23b872dd","transferOwnership(address)":"f2fde38b","yieldOracle()":"a7f0e342"}}}}}