{"contracts/XmentoVault.sol":{"DummyDex":{"abi":[{"inputs":[{"internalType":"address","name":"from","type":"address"},{"internalType":"address","name":"to","type":"address"},{"internalType":"uint256","name":"amount","type":"uint256"}],"name":"swap","outputs":[{"internalType":"uint256","name":"","type":"uint256"}],"stateMutability":"pure","type":"function"}],"evm":{"bytecode":{"linkReferences":{},"object":"608060405234801561001057600080fd5b5060d88061001f6000396000f3fe6080604052348015600f57600080fd5b506004361060285760003560e01c8063df791e5014602d575b600080fd5b603e6038366004606b565b92915050565b60405190815260200160405180910390f35b80356001600160a01b0381168114606657600080fd5b919050565b600080600060608486031215607f57600080fd5b6086846050565b92506092602085016050565b915060408401359050925092509256fea2646970667358221220829695f5a5c6d7d32bdc45093084e116b23b5b4ce9f2124d4f18fa2c5762b56564736f6c63430008140033","opcodes":"PUSH1 0x80 PUSH1 0x40 MSTORE CALLVALUE DUP1 ISZERO PUSH2 0x10 JUMPI PUSH1 0x0 DUP1 REVERT JUMPDEST POP PUSH1 0xD8 DUP1 PUSH2 0x1F PUSH1 0x0 CODECOPY PUSH1 0x0 RETURN INVALID PUSH1 0x80 PUSH1 0x40 MSTORE CALLVALUE DUP1 ISZERO PUSH1 0xF JUMPI PUSH1 0x0 DUP1 REVERT JUMPDEST POP PUSH1 0x4 CALLDATASIZE LT PUSH1 0x28 JUMPI PUSH1 0x0 CALLDATALOAD PUSH1 0xE0 SHR DUP1 PUSH4 0xDF791E50 EQ PUSH1 0x2D JUMPI JUMPDEST PUSH1 0x0 DUP1 REVERT JUMPDEST PUSH1 0x3E PUSH1 0x38 CALLDATASIZE PUSH1 0x4 PUSH1 0x6B JUMP JUMPDEST SWAP3 SWAP2 POP POP JUMP JUMPDEST PUSH1 0x40 MLOAD SWAP1 DUP2 MSTORE PUSH1 0x20 ADD PUSH1 0x40 MLOAD DUP1 SWAP2 SUB SWAP1 RETURN JUMPDEST DUP1 CALLDATALOAD PUSH1 0x1 PUSH1 0x1 PUSH1 0xA0 SHL SUB DUP2 AND DUP2 EQ PUSH1 0x66 JUMPI PUSH1 0x0 DUP1 REVERT JUMPDEST SWAP2 SWAP1 POP JUMP JUMPDEST PUSH1 0x0 DUP1 PUSH1 0x0 PUSH1 0x60 DUP5 DUP7 SUB SLT ISZERO PUSH1 0x7F JUMPI PUSH1 0x0 DUP1 REVERT JUMPDEST PUSH1 0x86 DUP5 PUSH1 0x50 JUMP JUMPDEST SWAP3 POP PUSH1 0x92 PUSH1 0x20 DUP6 ADD PUSH1 0x50 JUMP JUMPDEST SWAP2 POP PUSH1 0x40 DUP5 ADD CALLDATALOAD SWAP1 POP SWAP3 POP SWAP3 POP SWAP3 JUMP INVALID LOG2 PUSH5 0x6970667358 0x22 SLT KECCAK256 DUP3 SWAP7 SWAP6 CREATE2 0xA5 0xC6 0xD7 0xD3 0x2B 0xDC GASLIMIT MULMOD ADDRESS DUP5 0xE1 AND 0xB2 EXTCODESIZE JUMPDEST 0x4C 0xE9 CALLCODE SLT 0x4D 0x4F XOR STATICCALL 0x2C JUMPI PUSH3 0xB56564 PUSH20 0x6F6C634300081400330000000000000000000000 "},"methodIdentifiers":{"swap(address,address,uint256)":"df791e50"}},"storageLayout":{"storage":[],"types":null}}}}