{"contracts/XmentoVault.sol":{"XmentoVault":{"abi":[{"inputs":[],"stateMutability":"nonpayable","type":"constructor"},{"anonymous":false,"inputs":[{"indexed":false,"internalType":"address","name":"previousAdmin","type":"address"},{"indexed":false,"internalType":"address","name":"newAdmin","type":"address"}],"name":"AdminChanged","type":"event"},{"anonymous":false,"inputs":[{"indexed":true,"internalType":"address","name":"owner","type":"address"},{"indexed":true,"internalType":"address","name":"approved","type":"address"},{"indexed":true,"internalType":"uint256","name":"tokenId","type":"uint256"}],"name":"Approval","type":"event"},{"anonymous":false,"inputs":[{"indexed":true,"internalType":"address","name":"owner","type":"address"},{"indexed":true,"internalType":"address","name":"operator","type":"address"},{"indexed":false,"internalType":"bool","name":"approved","type":"bool"}],"name":"ApprovalForAll","type":"event"},{"anonymous":false,"inputs":[{"indexed":true,"internalType":"address","name":"beacon","type":"address"}],"name":"BeaconUpgraded","type":"event"},{"anonymous":false,"inputs":[{"indexed":false,"internalType":"string","name":"message","type":"string"},{"indexed":false,"internalType":"bytes","name":"values","type":"bytes"}],"name":"DebugLog","type":"event"},{"anonymous":false,"inputs":[{"indexed":true,"internalType":"address","name":"user","type":"address"},{"indexed":true,"internalType":"address","name":"token","type":"address"},{"indexed":false,"internalType":"uint256","name":"amount","type":"uint256"},{"indexed":false,"internalType":"uint256","name":"tokenId","type":"uint256"}],"name":"Deposited","type":"event"},{"anonymous":false,"inputs":[{"indexed":false,"internalType":"uint8","name":"version","type":"uint8"}],"name":"Initialized","type":"event"},{"anonymous":false,"inputs":[{"indexed":true,"internalType":"address","name":"factory","type":"address"},{"indexed":false,"internalType":"address","name":"cUSD","type":"address"},{"indexed":false,"internalType":"address","name":"cEUR","type":"address"},{"indexed":false,"internalType":"address","name":"cREAL","type":"address"},{"indexed":false,"internalType":"address","name":"dex","type":"address"},{"indexed":false,"internalType":"address","name":"yieldOracle","type":"address"}],"name":"Initialized","type":"event"},{"anonymous":false,"inputs":[{"indexed":true,"internalType":"address","name":"previousOwner","type":"address"},{"indexed":true,"internalType":"address","name":"newOwner","type":"address"}],"name":"OwnershipTransferred","type":"event"},{"anonymous":false,"inputs":[{"indexed":true,"internalType":"bytes32","name":"role","type":"bytes32"},{"indexed":true,"internalType":"bytes32","name":"previousAdminRole","type":"bytes32"},{"indexed":true,"internalType":"bytes32","name":"newAdminRole","type":"bytes32"}],"name":"RoleAdminChanged","type":"event"},{"anonymous":false,"inputs":[{"indexed":true,"internalType":"bytes32","name":"role","type":"bytes32"},{"indexed":true,"internalType":"address","name":"account","type":"address"},{"indexed":true,"internalType":"address","name":"sender","type":"address"}],"name":"RoleGranted","type":"event"},{"anonymous":false,"inputs":[{"indexed":true,"internalType":"bytes32","name":"role","type":"bytes32"},{"indexed":true,"internalType":"address","name":"account","type":"address"},{"indexed":true,"internalType":"address","name":"sender","type":"address"}],"name":"RoleRevoked","type":"event"},{"anonymous":false,"inputs":[{"indexed":true,"internalType":"address","name":"from","type":"address"},{"indexed":true,"internalType":"address","name":"to","type":"address"},{"indexed":true,"internalType":"uint256","name":"tokenId","type":"uint256"}],"name":"Transfer","type":"event"},{"anonymous":false,"inputs":[{"indexed":true,"internalType":"address","name":"implementation","type":"address"}],"name":"Upgraded","type":"event"},{"anonymous":false,"inputs":[{"indexed":true,"internalType":"address","name":"user","type":"address"},{"indexed":true,"internalType":"address","name":"token","type":"address"},{"indexed":false,"internalType":"uint256","name":"amount","type":"uint256"},{"indexed":false,"internalType":"uint256","name":"tokenId","type":"uint256"}],"name":"Withdrawn","type":"event"},{"anonymous":false,"inputs":[{"indexed":true,"internalType":"address","name":"user","type":"address"},{"indexed":true,"internalType":"address","name":"token","type":"address"},{"indexed":false,"internalType":"uint256","name":"amount","type":"uint256"},{"indexed":false,"internalType":"uint256","name":"tokenId","type":"uint256"}],"name":"YieldClaimed","type":"event"},{"inputs":[],"name":"DEFAULT_ADMIN_ROLE","outputs":[{"internalType":"bytes32","name":"","type":"bytes32"}],"stateMutability":"view","type":"function"},{"inputs":[{"internalType":"address","name":"to","type":"address"},{"internalType":"uint256","name":"tokenId","type":"uint256"}],"name":"approve","outputs":[],"stateMutability":"nonpayable","type":"function"},{"inputs":[{"internalType":"address","name":"owner","type":"address"}],"name":"balanceOf","outputs":[{"internalType":"uint256","name":"","type":"uint256"}],"stateMutability":"view","type":"function"},{"inputs":[],"name":"cEUR","outputs":[{"internalType":"contract IERC20","name":"","type":"address"}],"stateMutability":"view","type":"function"},{"inputs":[],"name":"cREAL","outputs":[{"internalType":"contract IERC20","name":"","type":"address"}],"stateMutability":"view","type":"function"},{"inputs":[],"name":"cUSD","outputs":[{"internalType":"contract IERC20","name":"","type":"address"}],"stateMutability":"view","type":"function"},{"inputs":[{"internalType":"uint256","name":"tokenId","type":"uint256"}],"name":"calculateYield","outputs":[{"internalType":"uint256","name":"","type":"uint256"}],"stateMutability":"view","type":"function"},{"inputs":[{"internalType":"uint256","name":"tokenId","type":"uint256"}],"name":"claimYield","outputs":[],"stateMutability":"nonpayable","type":"function"},{"inputs":[{"internalType":"address","name":"token","type":"address"},{"internalType":"uint256","name":"amount","type":"uint256"}],"name":"deposit","outputs":[],"stateMutability":"nonpayable","type":"function"},{"inputs":[],"name":"dex","outputs":[{"internalType":"contract IDEX","name":"","type":"address"}],"stateMutability":"view","type":"function"},{"inputs":[],"name":"factory","outputs":[{"internalType":"contract IXmentoVaultFactory","name":"","type":"address"}],"stateMutability":"view","type":"function"},{"inputs":[{"internalType":"uint256","name":"tokenId","type":"uint256"}],"name":"getApproved","outputs":[{"internalType":"address","name":"","type":"address"}],"stateMutability":"view","type":"function"},{"inputs":[],"name":"getOptimalAllocation","outputs":[{"internalType":"uint256[3]","name":"","type":"uint256[3]"}],"stateMutability":"view","type":"function"},{"inputs":[{"internalType":"bytes32","name":"role","type":"bytes32"}],"name":"getRoleAdmin","outputs":[{"internalType":"bytes32","name":"","type":"bytes32"}],"stateMutability":"view","type":"function"},{"inputs":[{"internalType":"bytes32","name":"role","type":"bytes32"},{"internalType":"address","name":"account","type":"address"}],"name":"grantRole","outputs":[],"stateMutability":"nonpayable","type":"function"},{"inputs":[{"internalType":"bytes32","name":"role","type":"bytes32"},{"internalType":"address","name":"account","type":"address"}],"name":"hasRole","outputs":[{"internalType":"bool","name":"","type":"bool"}],"stateMutability":"view","type":"function"},{"inputs":[{"internalType":"address","name":"_factory","type":"address"},{"internalType":"address","name":"_cUSD","type":"address"},{"internalType":"address","name":"_cEUR","type":"address"},{"internalType":"address","name":"_cREAL","type":"address"},{"internalType":"address","name":"_dex","type":"address"},{"internalType":"address","name":"_yieldOracle","type":"address"}],"name":"initialize","outputs":[],"stateMutability":"nonpayable","type":"function"},{"inputs":[{"internalType":"address","name":"owner","type":"address"},{"internalType":"address","name":"operator","type":"address"}],"name":"isApprovedForAll","outputs":[{"internalType":"bool","name":"","type":"bool"}],"stateMutability":"view","type":"function"},{"inputs":[],"name":"name","outputs":[{"internalType":"string","name":"","type":"string"}],"stateMutability":"view","type":"function"},{"inputs":[],"name":"nextTokenId","outputs":[{"internalType":"uint256","name":"","type":"uint256"}],"stateMutability":"view","type":"function"},{"inputs":[],"name":"owner","outputs":[{"internalType":"address","name":"","type":"address"}],"stateMutability":"view","type":"function"},{"inputs":[{"internalType":"uint256","name":"tokenId","type":"uint256"}],"name":"ownerOf","outputs":[{"internalType":"address","name":"","type":"address"}],"stateMutability":"view","type":"function"},{"inputs":[{"internalType":"uint256","name":"","type":"uint256"}],"name":"positions","outputs":[{"internalType":"address","name":"token","type":"address"},{"internalType":"uint256","name":"amount","type":"uint256"},{"internalType":"uint256","name":"timestamp","type":"uint256"},{"internalType":"uint256","name":"yieldRate","type":"uint256"},{"internalType":"bool","name":"isActive","type":"bool"}],"stateMutability":"view","type":"function"},{"inputs":[],"name":"proxiableUUID","outputs":[{"internalType":"bytes32","name":"","type":"bytes32"}],"stateMutability":"view","type":"function"},{"inputs":[{"internalType":"uint256","name":"tokenId","type":"uint256"}],"name":"rebalance","outputs":[],"stateMutability":"nonpayable","type":"function"},{"inputs":[{"internalType":"uint256","name":"tokenId","type":"uint256"}],"name":"redeem","outputs":[],"stateMutability":"nonpayable","type":"function"},{"inputs":[],"name":"renounceOwnership","outputs":[],"stateMutability":"nonpayable","type":"function"},{"inputs":[{"internalType":"bytes32","name":"role","type":"bytes32"},{"internalType":"address","name":"account","type":"address"}],"name":"renounceRole","outputs":[],"stateMutability":"nonpayable","type":"function"},{"inputs":[{"internalType":"bytes32","name":"role","type":"bytes32"},{"internalType":"address","name":"account","type":"address"}],"name":"revokeRole","outputs":[],"stateMutability":"nonpayable","type":"function"},{"inputs":[{"internalType":"address","name":"from","type":"address"},{"internalType":"address","name":"to","type":"address"},{"internalType":"uint256","name":"tokenId","type":"uint256"}],"name":"safeTransferFrom","outputs":[],"stateMutability":"nonpayable","type":"function"},{"inputs":[{"internalType":"address","name":"from","type":"address"},{"internalType":"address","name":"to","type":"address"},{"internalType":"uint256","name":"tokenId","type":"uint256"},{"internalType":"bytes","name":"data","type":"bytes"}],"name":"safeTransferFrom","outputs":[],"stateMutability":"nonpayable","type":"function"},{"inputs":[{"internalType":"address","name":"operator","type":"address"},{"internalType":"bool","name":"approved","type":"bool"}],"name":"setApprovalForAll","outputs":[],"stateMutability":"nonpayable","type":"function"},{"inputs":[{"internalType":"bytes4","name":"interfaceId","type":"bytes4"}],"name":"supportsInterface","outputs":[{"internalType":"bool","name":"","type":"bool"}],"stateMutability":"view","type":"function"},{"inputs":[],"name":"symbol","outputs":[{"internalType":"string","name":"","type":"string"}],"stateMutability":"view","type":"function"},{"inputs":[{"internalType":"uint256","name":"tokenId","type":"uint256"}],"name":"tokenURI","outputs":[{"internalType":"string","name":"","type":"string"}],"stateMutability":"view","type":"function"},{"inputs":[{"internalType":"address","name":"","type":"address"}],"name":"totalDeposits","outputs":[{"internalType":"uint256","name":"","type":"uint256"}],"stateMutability":"view","type":"function"},{"inputs":[{"internalType":"address","name":"","type":"address"}],"name":"totalYield","outputs":[{"internalType":"uint256","name":"","type":"uint256"}],"stateMutability":"view","type":"function"},{"inputs":[{"internalType":"address","name":"from","type":"address"},{"internalType":"address","name":"to","type":"address"},{"internalType":"uint256","name":"tokenId","type":"uint256"}],"name":"transferFrom","outputs":[],"stateMutability":"nonpayable","type":"function"},{"inputs":[{"internalType":"address","name":"newOwner","type":"address"}],"name":"transferOwnership","outputs":[],"stateMutability":"nonpayable","type":"function"},{"inputs":[{"internalType":"address","name":"newImplementation","type":"address"}],"name":"upgradeTo","outputs":[],"stateMutability":"nonpayable","type":"function"},{"inputs":[{"internalType":"address","name":"newImplementation","type":"address"},{"internalType":"bytes","name":"data","type":"bytes"}],"name":"upgradeToAndCall","outputs":[],"stateMutability":"payable","type":"function"},{"inputs":[],"name":"yieldOracle","outputs":[{"internalType":"contract IYieldOracle","name":"","type":"address"}],"stateMutability":"view","type":"function"}],"evm":{"bytecode":{"linkReferences":{},"object":"60a0604052306080526001610197553480156200001b57600080fd5b50620000266200002c565b620000ed565b600054610100900460ff1615620000995760405162461bcd60e51b815260206004820152602760248201527f496e697469616c697a61626c653a20636f6e747261637420697320696e697469604482015266616c697a696e6760c81b606482015260840160405180910390fd5b60005460ff90811614620000eb576000805460ff191660ff9081179091556040519081527f7f26b83ff96e1f2b6a682f133852f6798a09c465da95921460cefb38474024989060200160405180910390a15b565b6080516148ef6200012560003960008181610de901528181610e2901528181611c3501528181611c750152611d0401526148ef6000f3fe6080604052600436106102515760003560e01c80637d1f2de711610139578063b88d4fde116100b6578063d547741f1161007a578063d547741f14610763578063db006a7514610783578063e9403256146107a3578063e985e9c5146107d1578063f2fde38b1461081a578063f49930181461083a57600080fd5b8063b88d4fde146106c1578063c45a0155146106e1578063c87b56dd14610702578063cc2a9a5b14610722578063d47ce0a61461074257600080fd5b806399fbab88116100fd57806399fbab88146105b1578063a217fddf1461063d578063a22cb46514610652578063a7f0e34214610672578063b26dd0401461069357600080fd5b80637d1f2de71461051d57806380a3301b1461053e5780638da5cb5b1461055e57806391d148541461057c57806395d89b411461059c57600080fd5b80633659cfe6116101d257806352d1902d1161019657806352d1902d1461047b5780636352211e14610490578063692058c2146104b057806370a08231146104d1578063715018a6146104f157806375794a3c1461050657600080fd5b80633659cfe6146103e857806340bd2e231461040857806342842e0e1461042857806347e7ef24146104485780634f1ef2861461046857600080fd5b806323b872dd1161021957806323b872dd14610328578063248a9ca3146103485780632f2ff15d1461038657806333a7ad76146103a657806336568abe146103c857600080fd5b806301ffc9a71461025657806306fdde031461028b578063081812fc146102ad578063095ea7b3146102e55780631fccf67214610307575b600080fd5b34801561026257600080fd5b50610276610271366004613c3e565b61085a565b60405190151581526020015b60405180910390f35b34801561029757600080fd5b506102a061086b565b6040516102829190613cab565b3480156102b957600080fd5b506102cd6102c8366004613cbe565b6108fd565b6040516001600160a01b039091168152602001610282565b3480156102f157600080fd5b50610305610300366004613cf3565b610924565b005b34801561031357600080fd5b50610192546102cd906001600160a01b031681565b34801561033457600080fd5b50610305610343366004613d1d565b610a3e565b34801561035457600080fd5b50610378610363366004613cbe565b600090815260c9602052604090206001015490565b604051908152602001610282565b34801561039257600080fd5b506103056103a1366004613d59565b610a6f565b3480156103b257600080fd5b506103bb610a94565b6040516102829190613d85565b3480156103d457600080fd5b506103056103e3366004613d59565b610d61565b3480156103f457600080fd5b50610305610403366004613db6565b610ddf565b34801561041457600080fd5b50610305610423366004613cbe565b610ebe565b34801561043457600080fd5b50610305610443366004613d1d565b610fe7565b34801561045457600080fd5b50610305610463366004613cf3565b611002565b610305610476366004613e88565b611c2b565b34801561048757600080fd5b50610378611cf7565b34801561049c57600080fd5b506102cd6104ab366004613cbe565b611daa565b3480156104bc57600080fd5b50610195546102cd906001600160a01b031681565b3480156104dd57600080fd5b506103786104ec366004613db6565b611e0a565b3480156104fd57600080fd5b50610305611e90565b34801561051257600080fd5b506103786101975481565b34801561052957600080fd5b50610193546102cd906001600160a01b031681565b34801561054a57600080fd5b50610378610559366004613cbe565b611ea4565b34801561056a57600080fd5b506097546001600160a01b03166102cd565b34801561058857600080fd5b50610276610597366004613d59565b612014565b3480156105a857600080fd5b506102a061203f565b3480156105bd57600080fd5b506106096105cc366004613cbe565b61019860205260009081526040902080546001820154600283015460038401546004909401546001600160a01b0390931693919290919060ff1685565b604080516001600160a01b03909616865260208601949094529284019190915260608301521515608082015260a001610282565b34801561064957600080fd5b50610378600081565b34801561065e57600080fd5b5061030561066d366004613ee4565b61204e565b34801561067e57600080fd5b50610196546102cd906001600160a01b031681565b34801561069f57600080fd5b506103786106ae366004613db6565b61019a6020526000908152604090205481565b3480156106cd57600080fd5b506103056106dc366004613f1b565b612059565b3480156106ed57600080fd5b50610191546102cd906001600160a01b031681565b34801561070e57600080fd5b506102a061071d366004613cbe565b612091565b34801561072e57600080fd5b5061030561073d366004613f83565b612105565b34801561074e57600080fd5b50610194546102cd906001600160a01b031681565b34801561076f57600080fd5b5061030561077e366004613d59565b6124db565b34801561078f57600080fd5b5061030561079e366004613cbe565b612500565b3480156107af57600080fd5b506103786107be366004613db6565b6101996020526000908152604090205481565b3480156107dd57600080fd5b506102766107ec366004613ff7565b6001600160a01b039182166000908152606a6020908152604080832093909416825291909152205460ff1690565b34801561082657600080fd5b50610305610835366004613db6565b612665565b34801561084657600080fd5b50610305610855366004613cbe565b6126db565b600061086582612800565b92915050565b60606065805461087a90614021565b80601f01602080910402602001604051908101604052809291908181526020018280546108a690614021565b80156108f35780601f106108c8576101008083540402835291602001916108f3565b820191906000526020600020905b8154815290600101906020018083116108d657829003601f168201915b5050505050905090565b600061090882612825565b506000908152606960205260409020546001600160a01b031690565b600061092f82611daa565b9050806001600160a01b0316836001600160a01b0316036109a15760405162461bcd60e51b815260206004820152602160248201527f4552433732313a20617070726f76616c20746f2063757272656e74206f776e656044820152603960f91b60648201526084015b60405180910390fd5b336001600160a01b03821614806109bd57506109bd81336107ec565b610a2f5760405162461bcd60e51b815260206004820152603d60248201527f4552433732313a20617070726f76652063616c6c6572206973206e6f7420746f60448201527f6b656e206f776e6572206f7220617070726f76656420666f7220616c6c0000006064820152608401610998565b610a398383612884565b505050565b610a4833826128f2565b610a645760405162461bcd60e51b81526004016109989061405b565b610a39838383612971565b600082815260c96020526040902060010154610a8a81612ad5565b610a398383612adf565b610a9c613c0a565b604080516003808252608082019092526000916020820160608036833750506101925482519293506001600160a01b031691839150600090610ae057610ae06140a8565b6001600160a01b03928316602091820292909201015261019354825191169082906001908110610b1257610b126140a8565b6001600160a01b03928316602091820292909201015261019454825191169082906002908110610b4457610b446140a8565b6001600160a01b0392831660209182029290920101526101965460405163379698e960e21b8152600092919091169063de5a63a490610b879085906004016140be565b600060405180830381865afa158015610ba4573d6000803e3d6000fd5b505050506040513d6000823e601f3d908101601f19168201604052610bcc919081019061410b565b9050600081600281518110610be357610be36140a8565b602002602001015182600181518110610bfe57610bfe6140a8565b602002602001015183600081518110610c1957610c196140a8565b6020026020010151610c2b91906141c7565b610c3591906141c7565b905080600003610c6557604051806060016040528060218152602001602181526020016022815250935050505090565b60405180606001604052808284600081518110610c8457610c846140a8565b60200260200101516064610c9891906141da565b610ca291906141f1565b81526020018284600181518110610cbb57610cbb6140a8565b60200260200101516064610ccf91906141da565b610cd991906141f1565b81526020018284600181518110610cf257610cf26140a8565b60200260200101516064610d0691906141da565b610d1091906141f1565b8385600081518110610d2457610d246140a8565b60200260200101516064610d3891906141da565b610d4291906141f1565b610d4d906064614213565b610d579190614213565b9052949350505050565b6001600160a01b0381163314610dd15760405162461bcd60e51b815260206004820152602f60248201527f416363657373436f6e74726f6c3a2063616e206f6e6c792072656e6f756e636560448201526e103937b632b9903337b91039b2b63360891b6064820152608401610998565b610ddb8282612b65565b5050565b6001600160a01b037f0000000000000000000000000000000000000000000000000000000000000000163003610e275760405162461bcd60e51b815260040161099890614226565b7f00000000000000000000000000000000000000000000000000000000000000006001600160a01b0316610e70600080516020614853833981519152546001600160a01b031690565b6001600160a01b031614610e965760405162461bcd60e51b815260040161099890614272565b610e9f81612bcc565b60408051600080825260208201909252610ebb91839190612bd4565b50565b33610ec882611daa565b6001600160a01b031614610eee5760405162461bcd60e51b8152600401610998906142be565b6000610ef982611ea4565b905060008111610f3f5760405162461bcd60e51b81526020600482015260116024820152704e6f207969656c6420746f20636c61696d60781b6044820152606401610998565b60008281526101986020908152604080832042600282015580546001600160a01b0316845261019a9092528220805491928492610f7d9084906141c7565b90915550508054610f98906001600160a01b03163384612d3f565b805460408051848152602081018690526001600160a01b039092169133917fb10c79aa8ce52424b7676b33fe7b45ea2516b75f43f3b5c0c730e52ca8ef36a591015b60405180910390a3505050565b610a3983838360405180602001604052806000815250612059565b61100a612da2565b600061101e6097546001600160a01b031690565b6001600160a01b0316036110745760405162461bcd60e51b815260206004820152601860248201527f436f6e7472616374206e6f7420696e697469616c697a656400000000000000006044820152606401610998565b6040516603a37b5b2b71d160cd1b60208201526001600160601b0319606084901b1660278201526801030b6b7bab73a1d160bd1b603b8201526044810182905260008051602061489a8339815191529060640160408051601f19818403018152908290526110e1916142e5565b60405180910390a16001600160a01b0382166111495760405162461bcd60e51b815260206004820152602160248201527f584d563a20546f6b656e20616464726573732063616e6e6f74206265207a65726044820152606f60f81b6064820152608401610998565b600081116111a45760405162461bcd60e51b815260206004820152602260248201527f584d563a20416d6f756e74206d7573742062652067726561746572207468616e604482015261020360f41b6064820152608401610998565b6040516603a37b5b2b71d160cd1b60208201526001600160601b0319606084901b16602782015260008051602061489a83398151915290603b0160408051601f19818403018152908290526111f891614322565b60405180910390a1610192546000906001600160a01b038481169116148061122e5750610193546001600160a01b038481169116145b806112475750610194546001600160a01b038481169116145b9050806112965760405162461bcd60e51b815260206004820152601860248201527f584d563a20546f6b656e206e6f7420737570706f7274656400000000000000006044820152606401610998565b60008051602061489a8339815191526040516112ea906040808252601590820152740ccb88151bdad95b881a5cc81cdd5c1c1bdc9d1959605a1b606082015260806020820181905260009082015260a00190565b60405180910390a160008051602061489a8339815191526040516113599060408082526022908201527f342e2047657474696e672062616c616e6365206265666f7265207472616e736660608201526132b960f11b608082015260a06020820181905260009082015260c00190565b60405180910390a16040516370a0823160e01b81523060048201526000906001600160a01b038516906370a0823190602401602060405180830381865afa1580156113a8573d6000803e3d6000fd5b505050506040513d601f19601f820116820180604052508101906113cc9190614369565b905060008051602061489a833981519152816040516020016113f091815260200190565b60408051601f198184030181529082905261140a91614382565b60405180910390a160008051602061489a83398151915260405161147d9060408082526026908201527f362e20436865636b696e6720757365722062616c616e636520616e6420616c6c6060820152656f77616e636560d01b608082015260a06020820181905260009082015260c00190565b60405180910390a16040516370a0823160e01b815233600482015284906000906001600160a01b038316906370a0823190602401602060405180830381865afa1580156114ce573d6000803e3d6000fd5b505050506040513d601f19601f820116820180604052508101906114f29190614369565b604051636eb1769f60e11b81523360048201523060248201529091506000906001600160a01b0384169063dd62ed3e90604401602060405180830381865afa158015611542573d6000803e3d6000fd5b505050506040513d601f19601f820116820180604052508101906115669190614369565b6040516803130b630b731b29d160bd1b6020820152602981018490526b01030b63637bbb0b731b29d160a51b6049820152605581018290526a0103932b8bab4b932b21d160ad1b60758201526080810188905290915060008051602061489a8339815191529060a00160408051601f19818403018152908290526115e9916143c9565b60405180910390a1858210156116415760405162461bcd60e51b815260206004820152601960248201527f584d563a20496e73756666696369656e742062616c616e6365000000000000006044820152606401610998565b858110156116915760405162461bcd60e51b815260206004820152601b60248201527f584d563a20496e73756666696369656e7420616c6c6f77616e636500000000006044820152606401610998565b60008051602061489a8339815191526040516116ed906040808252601c908201527f382e20496e6974696174696e6720746f6b656e207472616e7366657200000000606082015260806020820181905260009082015260a00190565b60405180910390a161170a6001600160a01b038416333089612dfb565b60008051602061489a83398151915260405161175f906040808252601690820152750e4b88151c985b9cd9995c881cdd58d8d95cdcd99d5b60521b606082015260806020820181905260009082015260a00190565b60405180910390a160008051602061489a8339815191526040516117bc90604080825260169082015275189817102b32b934b33cb4b733903a3930b739b332b960511b606082015260806020820181905260009082015260a00190565b60405180910390a16040516370a0823160e01b81523060048201526000906001600160a01b038516906370a0823190602401602060405180830381865afa15801561180b573d6000803e3d6000fd5b505050506040513d601f19601f8201168201806040525081019061182f9190614369565b905060008051602061489a8339815191528161184b89886141c7565b60405167030b1ba3ab0b61d160c51b602082015260288101929092526a01032bc3832b1ba32b21d160ad1b6048830152605382015260730160408051601f198184030181529082905261189d91614410565b60405180910390a16118af87866141c7565b81146118fd5760405162461bcd60e51b815260206004820152601a60248201527f584d563a20546f6b656e207472616e73666572206661696c65640000000000006044820152606401610998565b60008051602061489a833981519152604051611951906040808252601590820152740c4c8b88151c985b9cd9995c881d995c9a599a5959605a1b606082015260806020820181905260009082015260a00190565b60405180910390a161019780546000918261196b83614457565b909155506040805160a0810182526001600160a01b038c8116808352602083018d9052428385015261019654935163c4f9870b60e01b81526004810191909152939450909260608401929091169063c4f9870b90602401602060405180830381865afa1580156119df573d6000803e3d6000fd5b505050506040513d601f19601f82011682018060405250810190611a039190614369565b815260016020918201819052600084815261019883526040808220855181546001600160a01b0319166001600160a01b039182161782558686015194820194909455858201516002820155606086015160038201556080909501516004909501805460ff191695151595909517909455908c16815261019990915290812080548a9290611a919084906141c7565b90915550611aa190503382612e33565b60408051602081018390526001600160601b031960608c901b16918101919091526054810189905242607482015260008051602061489a8339815191529060940160408051601f1981840301815290829052611afc91614470565b60405180910390a16001600160a01b0389166000908152610199602090815260409182902054915160008051602061489a83398151915292611b58928d920160609290921b6001600160601b0319168252601482015260340190565b60408051601f1981840301815290829052611b72916144aa565b60405180910390a160008051602061489a8339815191528133604051602001611bb292919091825260601b6001600160601b031916602082015260340190565b60408051601f1981840301815290829052611bcc916144ea565b60405180910390a160408051898152602081018390526001600160a01b038b169133917ff5681f9d0db1b911ac18ee83d515a1cf1051853a9eae418316a2fdf7dea427c5910160405180910390a350505050505050610ddb600160fb55565b6001600160a01b037f0000000000000000000000000000000000000000000000000000000000000000163003611c735760405162461bcd60e51b815260040161099890614226565b7f00000000000000000000000000000000000000000000000000000000000000006001600160a01b0316611cbc600080516020614853833981519152546001600160a01b031690565b6001600160a01b031614611ce25760405162461bcd60e51b815260040161099890614272565b611ceb82612bcc565b610ddb82826001612bd4565b6000306001600160a01b037f00000000000000000000000000000000000000000000000000000000000000001614611d975760405162461bcd60e51b815260206004820152603860248201527f555550535570677261646561626c653a206d757374206e6f742062652063616c60448201527f6c6564207468726f7567682064656c656761746563616c6c00000000000000006064820152608401610998565b5060008051602061485383398151915290565b6000818152606760205260408120546001600160a01b0316806108655760405162461bcd60e51b8152602060048201526018602482015277115490cdcc8c4e881a5b9d985b1a59081d1bdad95b88125160421b6044820152606401610998565b60006001600160a01b038216611e745760405162461bcd60e51b815260206004820152602960248201527f4552433732313a2061646472657373207a65726f206973206e6f7420612076616044820152683634b21037bbb732b960b91b6064820152608401610998565b506001600160a01b031660009081526068602052604090205490565b611e98612fc5565b611ea2600061301f565b565b600080611eb083611daa565b6001600160a01b031603611f065760405162461bcd60e51b815260206004820152601760248201527f506f736974696f6e20646f6573206e6f742065786973740000000000000000006044820152606401610998565b600082815261019860209081526040808320815160a08101835281546001600160a01b031681526001820154938101939093526002810154918301829052600381015460608401526004015460ff1615156080830152909190611f699042614213565b61019654835160405163c4f9870b60e01b81526001600160a01b03918216600482015292935060009291169063c4f9870b90602401602060405180830381865afa158015611fbb573d6000803e3d6000fd5b505050506040513d601f19601f82011682018060405250810190611fdf9190614369565b905063bbf81e0082828560200151611ff791906141da565b61200191906141da565b61200b91906141f1565b95945050505050565b600091825260c9602090815260408084206001600160a01b0393909316845291905290205460ff1690565b60606066805461087a90614021565b610ddb338383613071565b61206333836128f2565b61207f5760405162461bcd60e51b81526004016109989061405b565b61208b84848484613137565b50505050565b606061209c82612825565b60006120b360408051602081019091526000815290565b905060008151116120d357604051806020016040528060008152506120fe565b806120dd8461316a565b6040516020016120ee92919061451e565b6040516020818303038152906040525b9392505050565b600054610100900460ff16158080156121255750600054600160ff909116105b8061213f5750303b15801561213f575060005460ff166001145b6121a25760405162461bcd60e51b815260206004820152602e60248201527f496e697469616c697a61626c653a20636f6e747261637420697320616c72656160448201526d191e481a5b9a5d1a585b1a5e995960921b6064820152608401610998565b6000805460ff1916600117905580156121c5576000805461ff0019166101001790555b6122116040518060400160405280600b81526020016a161b595b9d1bd5985d5b1d60aa1b815250604051806040016040528060078152602001661613559055531560ca1b8152506131fd565b61221961322e565b61222161325d565b612229613284565b61223161325d565b6001600160a01b0387166122875760405162461bcd60e51b815260206004820152601760248201527f496e76616c696420666163746f727920616464726573730000000000000000006044820152606401610998565b6001600160a01b0386166122d45760405162461bcd60e51b8152602060048201526014602482015273496e76616c69642063555344206164647265737360601b6044820152606401610998565b6001600160a01b0385166123215760405162461bcd60e51b8152602060048201526014602482015273496e76616c69642063455552206164647265737360601b6044820152606401610998565b6001600160a01b03841661236f5760405162461bcd60e51b8152602060048201526015602482015274496e76616c696420635245414c206164647265737360581b6044820152606401610998565b6001600160a01b0383166123bb5760405162461bcd60e51b8152602060048201526013602482015272496e76616c696420444558206164647265737360681b6044820152606401610998565b6001600160a01b03821661240a5760405162461bcd60e51b8152602060048201526016602482015275496e76616c6964206f7261636c65206164647265737360501b6044820152606401610998565b6124133361301f565b61019180546001600160a01b03199081166001600160a01b038a811691909117909255610192805482168984161790556101938054821688841617905561019480548216878416179055610195805482168684161790556101968054909116918416919091179055612486600088612adf565b60016101975580156124d2576000805461ff0019169055604051600181527f7f26b83ff96e1f2b6a682f133852f6798a09c465da95921460cefb38474024989060200160405180910390a15b50505050505050565b600082815260c960205260409020600101546124f681612ad5565b610a398383612b65565b3361250a82611daa565b6001600160a01b0316146125305760405162461bcd60e51b8152600401610998906142be565b60008181526101986020908152604091829020825160a08101845281546001600160a01b031680825260018301549382018490526002830154948201949094526003820154606082015260049091015460ff161515608082015291612596913390612d3f565b60208082015182516001600160a01b03166000908152610199909252604082208054919290916125c7908490614213565b909155506125d69050826132b3565b60008281526101986020908152604080832080546001600160a01b0319168155600181018490556002810184905560038101939093556004909201805460ff1916905582518382015183519081529182018590526001600160a01b03169133917f91fb9d98b786c57d74c099ccd2beca1739e9f6a81fb49001ca465c4b7591bbe2910160405180910390a35050565b61266d612fc5565b6001600160a01b0381166126d25760405162461bcd60e51b815260206004820152602660248201527f4f776e61626c653a206e6577206f776e657220697320746865207a65726f206160448201526564647265737360d01b6064820152608401610998565b610ebb8161301f565b336126e582611daa565b6001600160a01b03161461270b5760405162461bcd60e51b8152600401610998906142be565b6000818152610198602052604081208054600182015491926001600160a01b039091169190612738610a94565b805190915060009060649061274d90856141da565b61275791906141f1565b6001860181905542600287015560408051858152602081018990529192506001600160a01b0386169133917f91fb9d98b786c57d74c099ccd2beca1739e9f6a81fb49001ca465c4b7591bbe2910160405180910390a36101925460408051838152602081018990526001600160a01b039092169133917ff5681f9d0db1b911ac18ee83d515a1cf1051853a9eae418316a2fdf7dea427c5910160405180910390a3505050505050565b60006001600160e01b03198216637965db0b60e01b1480610865575061086582613348565b6000818152606760205260409020546001600160a01b0316610ebb5760405162461bcd60e51b8152602060048201526018602482015277115490cdcc8c4e881a5b9d985b1a59081d1bdad95b88125160421b6044820152606401610998565b600081815260696020526040902080546001600160a01b0319166001600160a01b03841690811790915581906128b982611daa565b6001600160a01b03167f8c5be1e5ebec7d5bd14f71427d1e84f3dd0314c0f7b2291e5b200ac8c7c3b92560405160405180910390a45050565b6000806128fe83611daa565b9050806001600160a01b0316846001600160a01b0316148061294557506001600160a01b038082166000908152606a602090815260408083209388168352929052205460ff165b806129695750836001600160a01b031661295e846108fd565b6001600160a01b0316145b949350505050565b826001600160a01b031661298482611daa565b6001600160a01b0316146129aa5760405162461bcd60e51b81526004016109989061454d565b6001600160a01b038216612a0c5760405162461bcd60e51b8152602060048201526024808201527f4552433732313a207472616e7366657220746f20746865207a65726f206164646044820152637265737360e01b6064820152608401610998565b826001600160a01b0316612a1f82611daa565b6001600160a01b031614612a455760405162461bcd60e51b81526004016109989061454d565b600081815260696020908152604080832080546001600160a01b03199081169091556001600160a01b0387811680865260688552838620805460001901905590871680865283862080546001019055868652606790945282852080549092168417909155905184937fddf252ad1be2c89b69c2b068fc378daa952ba7f163c4a11628f55a4df523b3ef91a4505050565b610ebb8133613398565b612ae98282612014565b610ddb57600082815260c9602090815260408083206001600160a01b03851684529091529020805460ff19166001179055612b213390565b6001600160a01b0316816001600160a01b0316837f2f8788117e7eff1d82e926ec794901d17c78024a50270940304540a733656f0d60405160405180910390a45050565b612b6f8282612014565b15610ddb57600082815260c9602090815260408083206001600160a01b0385168085529252808320805460ff1916905551339285917ff6391f5c32d9c69d2a47ea670b442974b53935d1edc7fd64eb21e047a839171b9190a45050565b610ebb612fc5565b7f4910fdfa16fed3260ed0e7147f7cc6da11a60208b5b9406d12a635614ffd91435460ff1615612c0757610a39836133f1565b826001600160a01b03166352d1902d6040518163ffffffff1660e01b8152600401602060405180830381865afa925050508015612c61575060408051601f3d908101601f19168201909252612c5e91810190614369565b60015b612cc45760405162461bcd60e51b815260206004820152602e60248201527f45524331393637557067726164653a206e657720696d706c656d656e7461746960448201526d6f6e206973206e6f74205555505360901b6064820152608401610998565b6000805160206148538339815191528114612d335760405162461bcd60e51b815260206004820152602960248201527f45524331393637557067726164653a20756e737570706f727465642070726f786044820152681a58589b195555525160ba1b6064820152608401610998565b50610a3983838361348d565b6040516001600160a01b038316602482015260448101829052610a3990849063a9059cbb60e01b906064015b60408051601f198184030181529190526020810180516001600160e01b03166001600160e01b0319909316929092179091526134b2565b600260fb5403612df45760405162461bcd60e51b815260206004820152601f60248201527f5265656e7472616e637947756172643a207265656e7472616e742063616c6c006044820152606401610998565b600260fb55565b6040516001600160a01b038085166024830152831660448201526064810182905261208b9085906323b872dd60e01b90608401612d6b565b6001600160a01b038216612e895760405162461bcd60e51b815260206004820181905260248201527f4552433732313a206d696e7420746f20746865207a65726f20616464726573736044820152606401610998565b6000818152606760205260409020546001600160a01b031615612eee5760405162461bcd60e51b815260206004820152601c60248201527f4552433732313a20746f6b656e20616c7265616479206d696e746564000000006044820152606401610998565b6000818152606760205260409020546001600160a01b031615612f535760405162461bcd60e51b815260206004820152601c60248201527f4552433732313a20746f6b656e20616c7265616479206d696e746564000000006044820152606401610998565b6001600160a01b038216600081815260686020908152604080832080546001019055848352606790915280822080546001600160a01b0319168417905551839291907fddf252ad1be2c89b69c2b068fc378daa952ba7f163c4a11628f55a4df523b3ef908290a45050565b600160fb55565b6097546001600160a01b03163314611ea25760405162461bcd60e51b815260206004820181905260248201527f4f776e61626c653a2063616c6c6572206973206e6f7420746865206f776e65726044820152606401610998565b609780546001600160a01b038381166001600160a01b0319831681179093556040519116919082907f8be0079c531659141344cd1fd0a4f28419497f9722a3daafe3b4186f6b6457e090600090a35050565b816001600160a01b0316836001600160a01b0316036130d25760405162461bcd60e51b815260206004820152601960248201527f4552433732313a20617070726f766520746f2063616c6c6572000000000000006044820152606401610998565b6001600160a01b038381166000818152606a6020908152604080832094871680845294825291829020805460ff191686151590811790915591519182527f17307eab39ab6107e8899845ad3d59bd9653f200f220920489ca2b5937696c319101610fda565b613142848484612971565b61314e84848484613587565b61208b5760405162461bcd60e51b815260040161099890614592565b6060600061317783613688565b600101905060008167ffffffffffffffff81111561319757613197613dd1565b6040519080825280601f01601f1916602001820160405280156131c1576020820181803683370190505b5090508181016020015b600019016f181899199a1a9b1b9c1cb0b131b232b360811b600a86061a8153600a85049450846131cb57509392505050565b600054610100900460ff166132245760405162461bcd60e51b8152600401610998906145e4565b610ddb8282613760565b600054610100900460ff166132555760405162461bcd60e51b8152600401610998906145e4565b611ea26137a0565b600054610100900460ff16611ea25760405162461bcd60e51b8152600401610998906145e4565b600054610100900460ff166132ab5760405162461bcd60e51b8152600401610998906145e4565b611ea26137d0565b60006132be82611daa565b90506132c982611daa565b600083815260696020908152604080832080546001600160a01b03199081169091556001600160a01b0385168085526068845282852080546000190190558785526067909352818420805490911690555192935084927fddf252ad1be2c89b69c2b068fc378daa952ba7f163c4a11628f55a4df523b3ef908390a45050565b60006001600160e01b031982166380ac58cd60e01b148061337957506001600160e01b03198216635b5e139f60e01b145b8061086557506301ffc9a760e01b6001600160e01b0319831614610865565b6133a28282612014565b610ddb576133af816137f7565b6133ba836020613809565b6040516020016133cb92919061462f565b60408051601f198184030181529082905262461bcd60e51b825261099891600401613cab565b6001600160a01b0381163b61345e5760405162461bcd60e51b815260206004820152602d60248201527f455243313936373a206e657720696d706c656d656e746174696f6e206973206e60448201526c1bdd08184818dbdb9d1c9858dd609a1b6064820152608401610998565b60008051602061485383398151915280546001600160a01b0319166001600160a01b0392909216919091179055565b613496836139a5565b6000825111806134a35750805b15610a395761208b83836139e5565b6000613507826040518060400160405280602081526020017f5361666545524332303a206c6f772d6c6576656c2063616c6c206661696c6564815250856001600160a01b0316613a0a9092919063ffffffff16565b905080516000148061352857508080602001905181019061352891906146a4565b610a395760405162461bcd60e51b815260206004820152602a60248201527f5361666545524332303a204552433230206f7065726174696f6e20646964206e6044820152691bdd081cdd58d8d9595960b21b6064820152608401610998565b60006001600160a01b0384163b1561367d57604051630a85bd0160e11b81526001600160a01b0385169063150b7a02906135cb9033908990889088906004016146c1565b6020604051808303816000875af1925050508015613606575060408051601f3d908101601f19168201909252613603918101906146f4565b60015b613663573d808015613634576040519150601f19603f3d011682016040523d82523d6000602084013e613639565b606091505b50805160000361365b5760405162461bcd60e51b815260040161099890614592565b805181602001fd5b6001600160e01b031916630a85bd0160e11b149050612969565b506001949350505050565b60008072184f03e93ff9f4daa797ed6e38ed64bf6a1f0160401b83106136c75772184f03e93ff9f4daa797ed6e38ed64bf6a1f0160401b830492506040015b6d04ee2d6d415b85acef810000000083106136f3576d04ee2d6d415b85acef8100000000830492506020015b662386f26fc10000831061371157662386f26fc10000830492506010015b6305f5e1008310613729576305f5e100830492506008015b612710831061373d57612710830492506004015b6064831061374f576064830492506002015b600a83106108655760010192915050565b600054610100900460ff166137875760405162461bcd60e51b8152600401610998906145e4565b6065613793838261475f565b506066610a39828261475f565b600054610100900460ff166137c75760405162461bcd60e51b8152600401610998906145e4565b611ea23361301f565b600054610100900460ff16612fbe5760405162461bcd60e51b8152600401610998906145e4565b60606108656001600160a01b03831660145b606060006138188360026141da565b6138239060026141c7565b67ffffffffffffffff81111561383b5761383b613dd1565b6040519080825280601f01601f191660200182016040528015613865576020820181803683370190505b509050600360fc1b81600081518110613880576138806140a8565b60200101906001600160f81b031916908160001a905350600f60fb1b816001815181106138af576138af6140a8565b60200101906001600160f81b031916908160001a90535060006138d38460026141da565b6138de9060016141c7565b90505b6001811115613956576f181899199a1a9b1b9c1cb0b131b232b360811b85600f1660108110613912576139126140a8565b1a60f81b828281518110613928576139286140a8565b60200101906001600160f81b031916908160001a90535060049490941c9361394f8161481f565b90506138e1565b5083156120fe5760405162461bcd60e51b815260206004820181905260248201527f537472696e67733a20686578206c656e67746820696e73756666696369656e746044820152606401610998565b6139ae816133f1565b6040516001600160a01b038216907fbc7cd75a20ee27fd9adebab32041f755214dbc6bffa90cc0225b39da2e5c2d3b90600090a250565b60606120fe838360405180606001604052806027815260200161487360279139613a19565b60606129698484600085613a91565b6060600080856001600160a01b031685604051613a369190614836565b600060405180830381855af49150503d8060008114613a71576040519150601f19603f3d011682016040523d82523d6000602084013e613a76565b606091505b5091509150613a8786838387613b6c565b9695505050505050565b606082471015613af25760405162461bcd60e51b815260206004820152602660248201527f416464726573733a20696e73756666696369656e742062616c616e636520666f6044820152651c8818d85b1b60d21b6064820152608401610998565b600080866001600160a01b03168587604051613b0e9190614836565b60006040518083038185875af1925050503d8060008114613b4b576040519150601f19603f3d011682016040523d82523d6000602084013e613b50565b606091505b5091509150613b6187838387613b6c565b979650505050505050565b60608315613bdb578251600003613bd4576001600160a01b0385163b613bd45760405162461bcd60e51b815260206004820152601d60248201527f416464726573733a2063616c6c20746f206e6f6e2d636f6e74726163740000006044820152606401610998565b5081612969565b6129698383815115613bf05781518083602001fd5b8060405162461bcd60e51b81526004016109989190613cab565b60405180606001604052806003906020820280368337509192915050565b6001600160e01b031981168114610ebb57600080fd5b600060208284031215613c5057600080fd5b81356120fe81613c28565b60005b83811015613c76578181015183820152602001613c5e565b50506000910152565b60008151808452613c97816020860160208601613c5b565b601f01601f19169290920160200192915050565b6020815260006120fe6020830184613c7f565b600060208284031215613cd057600080fd5b5035919050565b80356001600160a01b0381168114613cee57600080fd5b919050565b60008060408385031215613d0657600080fd5b613d0f83613cd7565b946020939093013593505050565b600080600060608486031215613d3257600080fd5b613d3b84613cd7565b9250613d4960208501613cd7565b9150604084013590509250925092565b60008060408385031215613d6c57600080fd5b82359150613d7c60208401613cd7565b90509250929050565b60608101818360005b6003811015613dad578151835260209283019290910190600101613d8e565b50505092915050565b600060208284031215613dc857600080fd5b6120fe82613cd7565b634e487b7160e01b600052604160045260246000fd5b604051601f8201601f1916810167ffffffffffffffff81118282101715613e1057613e10613dd1565b604052919050565b600082601f830112613e2957600080fd5b813567ffffffffffffffff811115613e4357613e43613dd1565b613e56601f8201601f1916602001613de7565b818152846020838601011115613e6b57600080fd5b816020850160208301376000918101602001919091529392505050565b60008060408385031215613e9b57600080fd5b613ea483613cd7565b9150602083013567ffffffffffffffff811115613ec057600080fd5b613ecc85828601613e18565b9150509250929050565b8015158114610ebb57600080fd5b60008060408385031215613ef757600080fd5b613f0083613cd7565b91506020830135613f1081613ed6565b809150509250929050565b60008060008060808587031215613f3157600080fd5b613f3a85613cd7565b9350613f4860208601613cd7565b925060408501359150606085013567ffffffffffffffff811115613f6b57600080fd5b613f7787828801613e18565b91505092959194509250565b60008060008060008060c08789031215613f9c57600080fd5b613fa587613cd7565b9550613fb360208801613cd7565b9450613fc160408801613cd7565b9350613fcf60608801613cd7565b9250613fdd60808801613cd7565b9150613feb60a08801613cd7565b90509295509295509295565b6000806040838503121561400a57600080fd5b61401383613cd7565b9150613d7c60208401613cd7565b600181811c9082168061403557607f821691505b60208210810361405557634e487b7160e01b600052602260045260246000fd5b50919050565b6020808252602d908201527f4552433732313a2063616c6c6572206973206e6f7420746f6b656e206f776e6560408201526c1c881bdc88185c1c1c9bdd9959609a1b606082015260800190565b634e487b7160e01b600052603260045260246000fd5b6020808252825182820181905260009190848201906040850190845b818110156140ff5783516001600160a01b0316835292840192918401916001016140da565b50909695505050505050565b6000602080838503121561411e57600080fd5b825167ffffffffffffffff8082111561413657600080fd5b818501915085601f83011261414a57600080fd5b81518181111561415c5761415c613dd1565b8060051b915061416d848301613de7565b818152918301840191848101908884111561418757600080fd5b938501935b838510156141a55784518252938501939085019061418c565b98975050505050505050565b634e487b7160e01b600052601160045260246000fd5b80820180821115610865576108656141b1565b8082028115828204841417610865576108656141b1565b60008261420e57634e487b7160e01b600052601260045260246000fd5b500490565b81810381811115610865576108656141b1565b6020808252602c908201527f46756e6374696f6e206d7573742062652063616c6c6564207468726f7567682060408201526b19195b1959d85d1958d85b1b60a21b606082015260800190565b6020808252602c908201527f46756e6374696f6e206d7573742062652063616c6c6564207468726f7567682060408201526b6163746976652070726f787960a01b606082015260800190565b6020808252600d908201526c2737ba1027232a1037bbb732b960991b604082015260600190565b6040815260136040820152720c4b8814dd185c9d1a5b99c819195c1bdcda5d606a1b60608201526080602082015260006120fe6080830184613c7f565b60408152601960408201527f322e20436865636b696e6720746f6b656e20737570706f72740000000000000060608201526080602082015260006120fe6080830184613c7f565b60006020828403121561437b57600080fd5b5051919050565b60408152601a60408201527f352e2042616c616e6365206265666f7265207472616e7366657200000000000060608201526080602082015260006120fe6080830184613c7f565b60408152601d60408201527f372e20557365722062616c616e636520616e6420616c6c6f77616e636500000060608201526080602082015260006120fe6080830184613c7f565b60408152601a60408201527f31312e2042616c616e6365206166746572207472616e7366657200000000000060608201526080602082015260006120fe6080830184613c7f565b600060018201614469576144696141b1565b5060010190565b60408152601060408201526f141bdcda5d1a5bdb8818dc99585d195960821b60608201526080602082015260006120fe6080830184613c7f565b604081526016604082015275151bdd185b0819195c1bdcda5d1cc81d5c19185d195960521b60608201526080602082015260006120fe6080830184613c7f565b60408152600a604082015269139195081b5a5b9d195960b21b60608201526080602082015260006120fe6080830184613c7f565b60008351614530818460208801613c5b565b835190830190614544818360208801613c5b565b01949350505050565b60208082526025908201527f4552433732313a207472616e736665722066726f6d20696e636f72726563742060408201526437bbb732b960d91b606082015260800190565b60208082526032908201527f4552433732313a207472616e7366657220746f206e6f6e20455243373231526560408201527131b2b4bb32b91034b6b83632b6b2b73a32b960711b606082015260800190565b6020808252602b908201527f496e697469616c697a61626c653a20636f6e7472616374206973206e6f74206960408201526a6e697469616c697a696e6760a81b606082015260800190565b7f416363657373436f6e74726f6c3a206163636f756e7420000000000000000000815260008351614667816017850160208801613c5b565b7001034b99036b4b9b9b4b733903937b6329607d1b6017918401918201528351614698816028840160208801613c5b565b01602801949350505050565b6000602082840312156146b657600080fd5b81516120fe81613ed6565b6001600160a01b0385811682528416602082015260408101839052608060608201819052600090613a8790830184613c7f565b60006020828403121561470657600080fd5b81516120fe81613c28565b601f821115610a3957600081815260208120601f850160051c810160208610156147385750805b601f850160051c820191505b8181101561475757828155600101614744565b505050505050565b815167ffffffffffffffff81111561477957614779613dd1565b61478d816147878454614021565b84614711565b602080601f8311600181146147c257600084156147aa5750858301515b600019600386901b1c1916600185901b178555614757565b600085815260208120601f198616915b828110156147f1578886015182559484019460019091019084016147d2565b508582101561480f5787850151600019600388901b60f8161c191681555b5050505050600190811b01905550565b60008161482e5761482e6141b1565b506000190190565b60008251614848818460208701613c5b565b919091019291505056fe360894a13ba1a3210667c828492db98dca3e2076cc3735a920a3ca505d382bbc416464726573733a206c6f772d6c6576656c2064656c65676174652063616c6c206661696c65640c1267f8b6a6608f6166ea98ce91e23fe3bf0d92464854249481dd7d07a5d464a264697066735822122056961e50705eb3ef41687b187dc80812ab4c5c5c7f2205aa27d73737ab151be464736f6c63430008140033","opcodes":"PUSH1 0xA0 PUSH1 0x40 MSTORE ADDRESS PUSH1 0x80 MSTORE PUSH1 0x1 PUSH2 0x197 SSTORE CALLVALUE DUP1 ISZERO PUSH3 0x1B JUMPI PUSH1 0x0 DUP1 REVERT JUMPDEST POP PUSH3 0x26 PUSH3 0x2C JUMP JUMPDEST PUSH3 0xED JUMP JUMPDEST PUSH1 0x0 SLOAD PUSH2 0x100 SWAP1 DIV PUSH1 0xFF AND ISZERO PUSH3 0x99 JUMPI PUSH1 0x40 MLOAD PUSH3 0x461BCD PUSH1 0xE5 SHL DUP2 MSTORE PUSH1 0x20 PUSH1 0x4 DUP3 ADD MSTORE PUSH1 0x27 PUSH1 0x24 DUP3 ADD MSTORE PUSH32 0x496E697469616C697A61626C653A20636F6E747261637420697320696E697469 PUSH1 0x44 DUP3 ADD MSTORE PUSH7 0x616C697A696E67 PUSH1 0xC8 SHL PUSH1 0x64 DUP3 ADD MSTORE PUSH1 0x84 ADD PUSH1 0x40 MLOAD DUP1 SWAP2 SUB SWAP1 REVERT JUMPDEST PUSH1 0x0 SLOAD PUSH1 0xFF SWAP1 DUP2 AND EQ PUSH3 0xEB JUMPI PUSH1 0x0 DUP1 SLOAD PUSH1 0xFF NOT AND PUSH1 0xFF SWAP1 DUP2 OR SWAP1 SWAP2 SSTORE PUSH1 0x40 MLOAD SWAP1 DUP2 MSTORE PUSH32 0x7F26B83FF96E1F2B6A682F133852F6798A09C465DA95921460CEFB3847402498 SWAP1 PUSH1 0x20 ADD PUSH1 0x40 MLOAD DUP1 SWAP2 SUB SWAP1 LOG1 JUMPDEST JUMP JUMPDEST PUSH1 0x80 MLOAD PUSH2 0x48EF PUSH3 0x125 PUSH1 0x0 CODECOPY PUSH1 0x0 DUP2 DUP2 PUSH2 0xDE9 ADD MSTORE DUP2 DUP2 PUSH2 0xE29 ADD MSTORE DUP2 DUP2 PUSH2 0x1C35 ADD MSTORE DUP2 DUP2 PUSH2 0x1C75 ADD MSTORE PUSH2 0x1D04 ADD MSTORE PUSH2 0x48EF PUSH1 0x0 RETURN INVALID PUSH1 0x80 PUSH1 0x40 MSTORE PUSH1 0x4 CALLDATASIZE LT PUSH2 0x251 JUMPI PUSH1 0x0 CALLDATALOAD PUSH1 0xE0 SHR DUP1 PUSH4 0x7D1F2DE7 GT PUSH2 0x139 JUMPI DUP1 PUSH4 0xB88D4FDE GT PUSH2 0xB6 JUMPI DUP1 PUSH4 0xD547741F GT PUSH2 0x7A JUMPI DUP1 PUSH4 0xD547741F EQ PUSH2 0x763 JUMPI DUP1 PUSH4 0xDB006A75 EQ PUSH2 0x783 JUMPI DUP1 PUSH4 0xE9403256 EQ PUSH2 0x7A3 JUMPI DUP1 PUSH4 0xE985E9C5 EQ PUSH2 0x7D1 JUMPI DUP1 PUSH4 0xF2FDE38B EQ PUSH2 0x81A JUMPI DUP1 PUSH4 0xF4993018 EQ PUSH2 0x83A JUMPI PUSH1 0x0 DUP1 REVERT JUMPDEST DUP1 PUSH4 0xB88D4FDE EQ PUSH2 0x6C1 JUMPI DUP1 PUSH4 0xC45A0155 EQ PUSH2 0x6E1 JUMPI DUP1 PUSH4 0xC87B56DD EQ PUSH2 0x702 JUMPI DUP1 PUSH4 0xCC2A9A5B EQ PUSH2 0x722 JUMPI DUP1 PUSH4 0xD47CE0A6 EQ PUSH2 0x742 JUMPI PUSH1 0x0 DUP1 REVERT JUMPDEST DUP1 PUSH4 0x99FBAB88 GT PUSH2 0xFD JUMPI DUP1 PUSH4 0x99FBAB88 EQ PUSH2 0x5B1 JUMPI DUP1 PUSH4 0xA217FDDF EQ PUSH2 0x63D JUMPI DUP1 PUSH4 0xA22CB465 EQ PUSH2 0x652 JUMPI DUP1 PUSH4 0xA7F0E342 EQ PUSH2 0x672 JUMPI DUP1 PUSH4 0xB26DD040 EQ PUSH2 0x693 JUMPI PUSH1 0x0 DUP1 REVERT JUMPDEST DUP1 PUSH4 0x7D1F2DE7 EQ PUSH2 0x51D JUMPI DUP1 PUSH4 0x80A3301B EQ PUSH2 0x53E JUMPI DUP1 PUSH4 0x8DA5CB5B EQ PUSH2 0x55E JUMPI DUP1 PUSH4 0x91D14854 EQ PUSH2 0x57C JUMPI DUP1 PUSH4 0x95D89B41 EQ PUSH2 0x59C JUMPI PUSH1 0x0 DUP1 REVERT JUMPDEST DUP1 PUSH4 0x3659CFE6 GT PUSH2 0x1D2 JUMPI DUP1 PUSH4 0x52D1902D GT PUSH2 0x196 JUMPI DUP1 PUSH4 0x52D1902D EQ PUSH2 0x47B JUMPI DUP1 PUSH4 0x6352211E EQ PUSH2 0x490 JUMPI DUP1 PUSH4 0x692058C2 EQ PUSH2 0x4B0 JUMPI DUP1 PUSH4 0x70A08231 EQ PUSH2 0x4D1 JUMPI DUP1 PUSH4 0x715018A6 EQ PUSH2 0x4F1 JUMPI DUP1 PUSH4 0x75794A3C EQ PUSH2 0x506 JUMPI PUSH1 0x0 DUP1 REVERT JUMPDEST DUP1 PUSH4 0x3659CFE6 EQ PUSH2 0x3E8 JUMPI DUP1 PUSH4 0x40BD2E23 EQ PUSH2 0x408 JUMPI DUP1 PUSH4 0x42842E0E EQ PUSH2 0x428 JUMPI DUP1 PUSH4 0x47E7EF24 EQ PUSH2 0x448 JUMPI DUP1 PUSH4 0x4F1EF286 EQ PUSH2 0x468 JUMPI PUSH1 0x0 DUP1 REVERT JUMPDEST DUP1 PUSH4 0x23B872DD GT PUSH2 0x219 JUMPI DUP1 PUSH4 0x23B872DD EQ PUSH2 0x328 JUMPI DUP1 PUSH4 0x248A9CA3 EQ PUSH2 0x348 JUMPI DUP1 PUSH4 0x2F2FF15D EQ PUSH2 0x386 JUMPI DUP1 PUSH4 0x33A7AD76 EQ PUSH2 0x3A6 JUMPI DUP1 PUSH4 0x36568ABE EQ PUSH2 0x3C8 JUMPI PUSH1 0x0 DUP1 REVERT JUMPDEST DUP1 PUSH4 0x1FFC9A7 EQ PUSH2 0x256 JUMPI DUP1 PUSH4 0x6FDDE03 EQ PUSH2 0x28B JUMPI DUP1 PUSH4 0x81812FC EQ PUSH2 0x2AD JUMPI DUP1 PUSH4 0x95EA7B3 EQ PUSH2 0x2E5 JUMPI DUP1 PUSH4 0x1FCCF672 EQ PUSH2 0x307 JUMPI JUMPDEST PUSH1 0x0 DUP1 REVERT JUMPDEST CALLVALUE DUP1 ISZERO PUSH2 0x262 JUMPI PUSH1 0x0 DUP1 REVERT JUMPDEST POP PUSH2 0x276 PUSH2 0x271 CALLDATASIZE PUSH1 0x4 PUSH2 0x3C3E JUMP JUMPDEST PUSH2 0x85A JUMP JUMPDEST PUSH1 0x40 MLOAD SWAP1 ISZERO ISZERO DUP2 MSTORE PUSH1 0x20 ADD JUMPDEST PUSH1 0x40 MLOAD DUP1 SWAP2 SUB SWAP1 RETURN JUMPDEST CALLVALUE DUP1 ISZERO PUSH2 0x297 JUMPI PUSH1 0x0 DUP1 REVERT JUMPDEST POP PUSH2 0x2A0 PUSH2 0x86B JUMP JUMPDEST PUSH1 0x40 MLOAD PUSH2 0x282 SWAP2 SWAP1 PUSH2 0x3CAB JUMP JUMPDEST CALLVALUE DUP1 ISZERO PUSH2 0x2B9 JUMPI PUSH1 0x0 DUP1 REVERT JUMPDEST POP PUSH2 0x2CD PUSH2 0x2C8 CALLDATASIZE PUSH1 0x4 PUSH2 0x3CBE JUMP JUMPDEST PUSH2 0x8FD JUMP JUMPDEST PUSH1 0x40 MLOAD PUSH1 0x1 PUSH1 0x1 PUSH1 0xA0 SHL SUB SWAP1 SWAP2 AND DUP2 MSTORE PUSH1 0x20 ADD PUSH2 0x282 JUMP JUMPDEST CALLVALUE DUP1 ISZERO PUSH2 0x2F1 JUMPI PUSH1 0x0 DUP1 REVERT JUMPDEST POP PUSH2 0x305 PUSH2 0x300 CALLDATASIZE PUSH1 0x4 PUSH2 0x3CF3 JUMP JUMPDEST PUSH2 0x924 JUMP JUMPDEST STOP JUMPDEST CALLVALUE DUP1 ISZERO PUSH2 0x313 JUMPI PUSH1 0x0 DUP1 REVERT JUMPDEST POP PUSH2 0x192 SLOAD PUSH2 0x2CD SWAP1 PUSH1 0x1 PUSH1 0x1 PUSH1 0xA0 SHL SUB AND DUP2 JUMP JUMPDEST CALLVALUE DUP1 ISZERO PUSH2 0x334 JUMPI PUSH1 0x0 DUP1 REVERT JUMPDEST POP PUSH2 0x305 PUSH2 0x343 CALLDATASIZE PUSH1 0x4 PUSH2 0x3D1D JUMP JUMPDEST PUSH2 0xA3E JUMP JUMPDEST CALLVALUE DUP1 ISZERO PUSH2 0x354 JUMPI PUSH1 0x0 DUP1 REVERT JUMPDEST POP PUSH2 0x378 PUSH2 0x363 CALLDATASIZE PUSH1 0x4 PUSH2 0x3CBE JUMP JUMPDEST PUSH1 0x0 SWAP1 DUP2 MSTORE PUSH1 0xC9 PUSH1 0x20 MSTORE PUSH1 0x40 SWAP1 KECCAK256 PUSH1 0x1 ADD SLOAD SWAP1 JUMP JUMPDEST PUSH1 0x40 MLOAD SWAP1 DUP2 MSTORE PUSH1 0x20 ADD PUSH2 0x282 JUMP JUMPDEST CALLVALUE DUP1 ISZERO PUSH2 0x392 JUMPI PUSH1 0x0 DUP1 REVERT JUMPDEST POP PUSH2 0x305 PUSH2 0x3A1 CALLDATASIZE PUSH1 0x4 PUSH2 0x3D59 JUMP JUMPDEST PUSH2 0xA6F JUMP JUMPDEST CALLVALUE DUP1 ISZERO PUSH2 0x3B2 JUMPI PUSH1 0x0 DUP1 REVERT JUMPDEST POP PUSH2 0x3BB PUSH2 0xA94 JUMP JUMPDEST PUSH1 0x40 MLOAD PUSH2 0x282 SWAP2 SWAP1 PUSH2 0x3D85 JUMP JUMPDEST CALLVALUE DUP1 ISZERO PUSH2 0x3D4 JUMPI PUSH1 0x0 DUP1 REVERT JUMPDEST POP PUSH2 0x305 PUSH2 0x3E3 CALLDATASIZE PUSH1 0x4 PUSH2 0x3D59 JUMP JUMPDEST PUSH2 0xD61 JUMP JUMPDEST CALLVALUE DUP1 ISZERO PUSH2 0x3F4 JUMPI PUSH1 0x0 DUP1 REVERT JUMPDEST POP PUSH2 0x305 PUSH2 0x403 CALLDATASIZE PUSH1 0x4 PUSH2 0x3DB6 JUMP JUMPDEST PUSH2 0xDDF JUMP JUMPDEST CALLVALUE DUP1 ISZERO PUSH2 0x414 JUMPI PUSH1 0x0 DUP1 REVERT JUMPDEST POP PUSH2 0x305 PUSH2 0x423 CALLDATASIZE PUSH1 0x4 PUSH2 0x3CBE JUMP JUMPDEST PUSH2 0xEBE JUMP JUMPDEST CALLVALUE DUP1 ISZERO PUSH2 0x434 JUMPI PUSH1 0x0 DUP1 REVERT JUMPDEST POP PUSH2 0x305 PUSH2 0x443 CALLDATASIZE PUSH1 0x4 PUSH2 0x3D1D JUMP JUMPDEST PUSH2 0xFE7 JUMP JUMPDEST CALLVALUE DUP1 ISZERO PUSH2 0x454 JUMPI PUSH1 0x0 DUP1 REVERT JUMPDEST POP PUSH2 0x305 PUSH2 0x463 CALLDATASIZE PUSH1 0x4 PUSH2 0x3CF3 JUMP JUMPDEST PUSH2 0x1002 JUMP JUMPDEST PUSH2 0x305 PUSH2 0x476 CALLDATASIZE PUSH1 0x4 PUSH2 0x3E88 JUMP JUMPDEST PUSH2 0x1C2B JUMP JUMPDEST CALLVALUE DUP1 ISZERO PUSH2 0x487 JUMPI PUSH1 0x0 DUP1 REVERT JUMPDEST POP PUSH2 0x378 PUSH2 0x1CF7 JUMP JUMPDEST CALLVALUE DUP1 ISZERO PUSH2 0x49C JUMPI PUSH1 0x0 DUP1 REVERT JUMPDEST POP PUSH2 0x2CD PUSH2 0x4AB CALLDATASIZE PUSH1 0x4 PUSH2 0x3CBE JUMP JUMPDEST PUSH2 0x1DAA JUMP JUMPDEST CALLVALUE DUP1 ISZERO PUSH2 0x4BC JUMPI PUSH1 0x0 DUP1 REVERT JUMPDEST POP PUSH2 0x195 SLOAD PUSH2 0x2CD SWAP1 PUSH1 0x1 PUSH1 0x1 PUSH1 0xA0 SHL SUB AND DUP2 JUMP JUMPDEST CALLVALUE DUP1 ISZERO PUSH2 0x4DD JUMPI PUSH1 0x0 DUP1 REVERT JUMPDEST POP PUSH2 0x378 PUSH2 0x4EC CALLDATASIZE PUSH1 0x4 PUSH2 0x3DB6 JUMP JUMPDEST PUSH2 0x1E0A JUMP JUMPDEST CALLVALUE DUP1 ISZERO PUSH2 0x4FD JUMPI PUSH1 0x0 DUP1 REVERT JUMPDEST POP PUSH2 0x305 PUSH2 0x1E90 JUMP JUMPDEST CALLVALUE DUP1 ISZERO PUSH2 0x512 JUMPI PUSH1 0x0 DUP1 REVERT JUMPDEST POP PUSH2 0x378 PUSH2 0x197 SLOAD DUP2 JUMP JUMPDEST CALLVALUE DUP1 ISZERO PUSH2 0x529 JUMPI PUSH1 0x0 DUP1 REVERT JUMPDEST POP PUSH2 0x193 SLOAD PUSH2 0x2CD SWAP1 PUSH1 0x1 PUSH1 0x1 PUSH1 0xA0 SHL SUB AND DUP2 JUMP JUMPDEST CALLVALUE DUP1 ISZERO PUSH2 0x54A JUMPI PUSH1 0x0 DUP1 REVERT JUMPDEST POP PUSH2 0x378 PUSH2 0x559 CALLDATASIZE PUSH1 0x4 PUSH2 0x3CBE JUMP JUMPDEST PUSH2 0x1EA4 JUMP JUMPDEST CALLVALUE DUP1 ISZERO PUSH2 0x56A JUMPI PUSH1 0x0 DUP1 REVERT JUMPDEST POP PUSH1 0x97 SLOAD PUSH1 0x1 PUSH1 0x1 PUSH1 0xA0 SHL SUB AND PUSH2 0x2CD JUMP JUMPDEST CALLVALUE DUP1 ISZERO PUSH2 0x588 JUMPI PUSH1 0x0 DUP1 REVERT JUMPDEST POP PUSH2 0x276 PUSH2 0x597 CALLDATASIZE PUSH1 0x4 PUSH2 0x3D59 JUMP JUMPDEST PUSH2 0x2014 JUMP JUMPDEST CALLVALUE DUP1 ISZERO PUSH2 0x5A8 JUMPI PUSH1 0x0 DUP1 REVERT JUMPDEST POP PUSH2 0x2A0 PUSH2 0x203F JUMP JUMPDEST CALLVALUE DUP1 ISZERO PUSH2 0x5BD JUMPI PUSH1 0x0 DUP1 REVERT JUMPDEST POP PUSH2 0x609 PUSH2 0x5CC CALLDATASIZE PUSH1 0x4 PUSH2 0x3CBE JUMP JUMPDEST PUSH2 0x198 PUSH1 0x20 MSTORE PUSH1 0x0 SWAP1 DUP2 MSTORE PUSH1 0x40 SWAP1 KECCAK256 DUP1 SLOAD PUSH1 0x1 DUP3 ADD SLOAD PUSH1 0x2 DUP4 ADD SLOAD PUSH1 0x3 DUP5 ADD SLOAD PUSH1 0x4 SWAP1 SWAP5 ADD SLOAD PUSH1 0x1 PUSH1 0x1 PUSH1 0xA0 SHL SUB SWAP1 SWAP4 AND SWAP4 SWAP2 SWAP3 SWAP1 SWAP2 SWAP1 PUSH1 0xFF AND DUP6 JUMP JUMPDEST PUSH1 0x40 DUP1 MLOAD PUSH1 0x1 PUSH1 0x1 PUSH1 0xA0 SHL SUB SWAP1 SWAP7 AND DUP7 MSTORE PUSH1 0x20 DUP7 ADD SWAP5 SWAP1 SWAP5 MSTORE SWAP3 DUP5 ADD SWAP2 SWAP1 SWAP2 MSTORE PUSH1 0x60 DUP4 ADD MSTORE ISZERO ISZERO PUSH1 0x80 DUP3 ADD MSTORE PUSH1 0xA0 ADD PUSH2 0x282 JUMP JUMPDEST CALLVALUE DUP1 ISZERO PUSH2 0x649 JUMPI PUSH1 0x0 DUP1 REVERT JUMPDEST POP PUSH2 0x378 PUSH1 0x0 DUP2 JUMP JUMPDEST CALLVALUE DUP1 ISZERO PUSH2 0x65E JUMPI PUSH1 0x0 DUP1 REVERT JUMPDEST POP PUSH2 0x305 PUSH2 0x66D CALLDATASIZE PUSH1 0x4 PUSH2 0x3EE4 JUMP JUMPDEST PUSH2 0x204E JUMP JUMPDEST CALLVALUE DUP1 ISZERO PUSH2 0x67E JUMPI PUSH1 0x0 DUP1 REVERT JUMPDEST POP PUSH2 0x196 SLOAD PUSH2 0x2CD SWAP1 PUSH1 0x1 PUSH1 0x1 PUSH1 0xA0 SHL SUB AND DUP2 JUMP JUMPDEST CALLVALUE DUP1 ISZERO PUSH2 0x69F JUMPI PUSH1 0x0 DUP1 REVERT JUMPDEST POP PUSH2 0x378 PUSH2 0x6AE CALLDATASIZE PUSH1 0x4 PUSH2 0x3DB6 JUMP JUMPDEST PUSH2 0x19A PUSH1 0x20 MSTORE PUSH1 0x0 SWAP1 DUP2 MSTORE PUSH1 0x40 SWAP1 KECCAK256 SLOAD DUP2 JUMP JUMPDEST CALLVALUE DUP1 ISZERO PUSH2 0x6CD JUMPI PUSH1 0x0 DUP1 REVERT JUMPDEST POP PUSH2 0x305 PUSH2 0x6DC CALLDATASIZE PUSH1 0x4 PUSH2 0x3F1B JUMP JUMPDEST PUSH2 0x2059 JUMP JUMPDEST CALLVALUE DUP1 ISZERO PUSH2 0x6ED JUMPI PUSH1 0x0 DUP1 REVERT JUMPDEST POP PUSH2 0x191 SLOAD PUSH2 0x2CD SWAP1 PUSH1 0x1 PUSH1 0x1 PUSH1 0xA0 SHL SUB AND DUP2 JUMP JUMPDEST CALLVALUE DUP1 ISZERO PUSH2 0x70E JUMPI PUSH1 0x0 DUP1 REVERT JUMPDEST POP PUSH2 0x2A0 PUSH2 0x71D CALLDATASIZE PUSH1 0x4 PUSH2 0x3CBE JUMP JUMPDEST PUSH2 0x2091 JUMP JUMPDEST CALLVALUE DUP1 ISZERO PUSH2 0x72E JUMPI PUSH1 0x0 DUP1 REVERT JUMPDEST POP PUSH2 0x305 PUSH2 0x73D CALLDATASIZE PUSH1 0x4 PUSH2 0x3F83 JUMP JUMPDEST PUSH2 0x2105 JUMP JUMPDEST CALLVALUE DUP1 ISZERO PUSH2 0x74E JUMPI PUSH1 0x0 DUP1 REVERT JUMPDEST POP PUSH2 0x194 SLOAD PUSH2 0x2CD SWAP1 PUSH1 0x1 PUSH1 0x1 PUSH1 0xA0 SHL SUB AND DUP2 JUMP JUMPDEST CALLVALUE DUP1 ISZERO PUSH2 0x76F JUMPI PUSH1 0x0 DUP1 REVERT JUMPDEST POP PUSH2 0x305 PUSH2 0x77E CALLDATASIZE PUSH1 0x4 PUSH2 0x3D59 JUMP JUMPDEST PUSH2 0x24DB JUMP JUMPDEST CALLVALUE DUP1 ISZERO PUSH2 0x78F JUMPI PUSH1 0x0 DUP1 REVERT JUMPDEST POP PUSH2 0x305 PUSH2 0x79E CALLDATASIZE PUSH1 0x4 PUSH2 0x3CBE JUMP JUMPDEST PUSH2 0x2500 JUMP JUMPDEST CALLVALUE DUP1 ISZERO PUSH2 0x7AF JUMPI PUSH1 0x0 DUP1 REVERT JUMPDEST POP PUSH2 0x378 PUSH2 0x7BE CALLDATASIZE PUSH1 0x4 PUSH2 0x3DB6 JUMP JUMPDEST PUSH2 0x199 PUSH1 0x20 MSTORE PUSH1 0x0 SWAP1 DUP2 MSTORE PUSH1 0x40 SWAP1 KECCAK256 SLOAD DUP2 JUMP JUMPDEST CALLVALUE DUP1 ISZERO PUSH2 0x7DD JUMPI PUSH1 0x0 DUP1 REVERT JUMPDEST POP PUSH2 0x276 PUSH2 0x7EC CALLDATASIZE PUSH1 0x4 PUSH2 0x3FF7 JUMP JUMPDEST PUSH1 0x1 PUSH1 0x1 PUSH1 0xA0 SHL SUB SWAP2 DUP3 AND PUSH1 0x0 SWAP1 DUP2 MSTORE PUSH1 0x6A PUSH1 0x20 SWAP1 DUP2 MSTORE PUSH1 0x40 DUP1 DUP4 KECCAK256 SWAP4 SWAP1 SWAP5 AND DUP3 MSTORE SWAP2 SWAP1 SWAP2 MSTORE KECCAK256 SLOAD PUSH1 0xFF AND SWAP1 JUMP JUMPDEST CALLVALUE DUP1 ISZERO PUSH2 0x826 JUMPI PUSH1 0x0 DUP1 REVERT JUMPDEST POP PUSH2 0x305 PUSH2 0x835 CALLDATASIZE PUSH1 0x4 PUSH2 0x3DB6 JUMP JUMPDEST PUSH2 0x2665 JUMP JUMPDEST CALLVALUE DUP1 ISZERO PUSH2 0x846 JUMPI PUSH1 0x0 DUP1 REVERT JUMPDEST POP PUSH2 0x305 PUSH2 0x855 CALLDATASIZE PUSH1 0x4 PUSH2 0x3CBE JUMP JUMPDEST PUSH2 0x26DB JUMP JUMPDEST PUSH1 0x0 PUSH2 0x865 DUP3 PUSH2 0x2800 JUMP JUMPDEST SWAP3 SWAP2 POP POP JUMP JUMPDEST PUSH1 0x60 PUSH1 0x65 DUP1 SLOAD PUSH2 0x87A SWAP1 PUSH2 0x4021 JUMP JUMPDEST DUP1 PUSH1 0x1F ADD PUSH1 0x20 DUP1 SWAP2 DIV MUL PUSH1 0x20 ADD PUSH1 0x40 MLOAD SWAP1 DUP2 ADD PUSH1 0x40 MSTORE DUP1 SWAP3 SWAP2 SWAP1 DUP2 DUP2 MSTORE PUSH1 0x20 ADD DUP3 DUP1 SLOAD PUSH2 0x8A6 SWAP1 PUSH2 0x4021 JUMP JUMPDEST DUP1 ISZERO PUSH2 0x8F3 JUMPI DUP1 PUSH1 0x1F LT PUSH2 0x8C8 JUMPI PUSH2 0x100 DUP1 DUP4 SLOAD DIV MUL DUP4 MSTORE SWAP2 PUSH1 0x20 ADD SWAP2 PUSH2 0x8F3 JUMP JUMPDEST DUP3 ADD SWAP2 SWAP1 PUSH1 0x0 MSTORE PUSH1 0x20 PUSH1 0x0 KECCAK256 SWAP1 JUMPDEST DUP2 SLOAD DUP2 MSTORE SWAP1 PUSH1 0x1 ADD SWAP1 PUSH1 0x20 ADD DUP1 DUP4 GT PUSH2 0x8D6 JUMPI DUP3 SWAP1 SUB PUSH1 0x1F AND DUP3 ADD SWAP2 JUMPDEST POP POP POP POP POP SWAP1 POP SWAP1 JUMP JUMPDEST PUSH1 0x0 PUSH2 0x908 DUP3 PUSH2 0x2825 JUMP JUMPDEST POP PUSH1 0x0 SWAP1 DUP2 MSTORE PUSH1 0x69 PUSH1 0x20 MSTORE PUSH1 0x40 SWAP1 KECCAK256 SLOAD PUSH1 0x1 PUSH1 0x1 PUSH1 0xA0 SHL SUB AND SWAP1 JUMP JUMPDEST PUSH1 0x0 PUSH2 0x92F DUP3 PUSH2 0x1DAA JUMP JUMPDEST SWAP1 POP DUP1 PUSH1 0x1 PUSH1 0x1 PUSH1 0xA0 SHL SUB AND DUP4 PUSH1 0x1 PUSH1 0x1 PUSH1 0xA0 SHL SUB AND SUB PUSH2 0x9A1 JUMPI PUSH1 0x40 MLOAD PUSH3 0x461BCD PUSH1 0xE5 SHL DUP2 MSTORE PUSH1 0x20 PUSH1 0x4 DUP3 ADD MSTORE PUSH1 0x21 PUSH1 0x24 DUP3 ADD MSTORE PUSH32 0x4552433732313A20617070726F76616C20746F2063757272656E74206F776E65 PUSH1 0x44 DUP3 ADD MSTORE PUSH1 0x39 PUSH1 0xF9 SHL PUSH1 0x64 DUP3 ADD MSTORE PUSH1 0x84 ADD JUMPDEST PUSH1 0x40 MLOAD DUP1 SWAP2 SUB SWAP1 REVERT JUMPDEST CALLER PUSH1 0x1 PUSH1 0x1 PUSH1 0xA0 SHL SUB DUP3 AND EQ DUP1 PUSH2 0x9BD JUMPI POP PUSH2 0x9BD DUP2 CALLER PUSH2 0x7EC JUMP JUMPDEST PUSH2 0xA2F JUMPI PUSH1 0x40 MLOAD PUSH3 0x461BCD PUSH1 0xE5 SHL DUP2 MSTORE PUSH1 0x20 PUSH1 0x4 DUP3 ADD MSTORE PUSH1 0x3D PUSH1 0x24 DUP3 ADD MSTORE PUSH32 0x4552433732313A20617070726F76652063616C6C6572206973206E6F7420746F PUSH1 0x44 DUP3 ADD MSTORE PUSH32 0x6B656E206F776E6572206F7220617070726F76656420666F7220616C6C000000 PUSH1 0x64 DUP3 ADD MSTORE PUSH1 0x84 ADD PUSH2 0x998 JUMP JUMPDEST PUSH2 0xA39 DUP4 DUP4 PUSH2 0x2884 JUMP JUMPDEST POP POP POP JUMP JUMPDEST PUSH2 0xA48 CALLER DUP3 PUSH2 0x28F2 JUMP JUMPDEST PUSH2 0xA64 JUMPI PUSH1 0x40 MLOAD PUSH3 0x461BCD PUSH1 0xE5 SHL DUP2 MSTORE PUSH1 0x4 ADD PUSH2 0x998 SWAP1 PUSH2 0x405B JUMP JUMPDEST PUSH2 0xA39 DUP4 DUP4 DUP4 PUSH2 0x2971 JUMP JUMPDEST PUSH1 0x0 DUP3 DUP2 MSTORE PUSH1 0xC9 PUSH1 0x20 MSTORE PUSH1 0x40 SWAP1 KECCAK256 PUSH1 0x1 ADD SLOAD PUSH2 0xA8A DUP2 PUSH2 0x2AD5 JUMP JUMPDEST PUSH2 0xA39 DUP4 DUP4 PUSH2 0x2ADF JUMP JUMPDEST PUSH2 0xA9C PUSH2 0x3C0A JUMP JUMPDEST PUSH1 0x40 DUP1 MLOAD PUSH1 0x3 DUP1 DUP3 MSTORE PUSH1 0x80 DUP3 ADD SWAP1 SWAP3 MSTORE PUSH1 0x0 SWAP2 PUSH1 0x20 DUP3 ADD PUSH1 0x60 DUP1 CALLDATASIZE DUP4 CALLDATACOPY POP POP PUSH2 0x192 SLOAD DUP3 MLOAD SWAP3 SWAP4 POP PUSH1 0x1 PUSH1 0x1 PUSH1 0xA0 SHL SUB AND SWAP2 DUP4 SWAP2 POP PUSH1 0x0 SWAP1 PUSH2 0xAE0 JUMPI PUSH2 0xAE0 PUSH2 0x40A8 JUMP JUMPDEST PUSH1 0x1 PUSH1 0x1 PUSH1 0xA0 SHL SUB SWAP3 DUP4 AND PUSH1 0x20 SWAP2 DUP3 MUL SWAP3 SWAP1 SWAP3 ADD ADD MSTORE PUSH2 0x193 SLOAD DUP3 MLOAD SWAP2 AND SWAP1 DUP3 SWAP1 PUSH1 0x1 SWAP1 DUP2 LT PUSH2 0xB12 JUMPI PUSH2 0xB12 PUSH2 0x40A8 JUMP JUMPDEST PUSH1 0x1 PUSH1 0x1 PUSH1 0xA0 SHL SUB SWAP3 DUP4 AND PUSH1 0x20 SWAP2 DUP3 MUL SWAP3 SWAP1 SWAP3 ADD ADD MSTORE PUSH2 0x194 SLOAD DUP3 MLOAD SWAP2 AND SWAP1 DUP3 SWAP1 PUSH1 0x2 SWAP1 DUP2 LT PUSH2 0xB44 JUMPI PUSH2 0xB44 PUSH2 0x40A8 JUMP JUMPDEST PUSH1 0x1 PUSH1 0x1 PUSH1 0xA0 SHL SUB SWAP3 DUP4 AND PUSH1 0x20 SWAP2 DUP3 MUL SWAP3 SWAP1 SWAP3 ADD ADD MSTORE PUSH2 0x196 SLOAD PUSH1 0x40 MLOAD PUSH4 0x379698E9 PUSH1 0xE2 SHL DUP2 MSTORE PUSH1 0x0 SWAP3 SWAP2 SWAP1 SWAP2 AND SWAP1 PUSH4 0xDE5A63A4 SWAP1 PUSH2 0xB87 SWAP1 DUP6 SWAP1 PUSH1 0x4 ADD PUSH2 0x40BE JUMP JUMPDEST PUSH1 0x0 PUSH1 0x40 MLOAD DUP1 DUP4 SUB DUP2 DUP7 GAS STATICCALL ISZERO DUP1 ISZERO PUSH2 0xBA4 JUMPI RETURNDATASIZE PUSH1 0x0 DUP1 RETURNDATACOPY RETURNDATASIZE PUSH1 0x0 REVERT JUMPDEST POP POP POP POP PUSH1 0x40 MLOAD RETURNDATASIZE PUSH1 0x0 DUP3 RETURNDATACOPY PUSH1 0x1F RETURNDATASIZE SWAP1 DUP2 ADD PUSH1 0x1F NOT AND DUP3 ADD PUSH1 0x40 MSTORE PUSH2 0xBCC SWAP2 SWAP1 DUP2 ADD SWAP1 PUSH2 0x410B JUMP JUMPDEST SWAP1 POP PUSH1 0x0 DUP2 PUSH1 0x2 DUP2 MLOAD DUP2 LT PUSH2 0xBE3 JUMPI PUSH2 0xBE3 PUSH2 0x40A8 JUMP JUMPDEST PUSH1 0x20 MUL PUSH1 0x20 ADD ADD MLOAD DUP3 PUSH1 0x1 DUP2 MLOAD DUP2 LT PUSH2 0xBFE JUMPI PUSH2 0xBFE PUSH2 0x40A8 JUMP JUMPDEST PUSH1 0x20 MUL PUSH1 0x20 ADD ADD MLOAD DUP4 PUSH1 0x0 DUP2 MLOAD DUP2 LT PUSH2 0xC19 JUMPI PUSH2 0xC19 PUSH2 0x40A8 JUMP JUMPDEST PUSH1 0x20 MUL PUSH1 0x20 ADD ADD MLOAD PUSH2 0xC2B SWAP2 SWAP1 PUSH2 0x41C7 JUMP JUMPDEST PUSH2 0xC35 SWAP2 SWAP1 PUSH2 0x41C7 JUMP JUMPDEST SWAP1 POP DUP1 PUSH1 0x0 SUB PUSH2 0xC65 JUMPI PUSH1 0x40 MLOAD DUP1 PUSH1 0x60 ADD PUSH1 0x40 MSTORE DUP1 PUSH1 0x21 DUP2 MSTORE PUSH1 0x20 ADD PUSH1 0x21 DUP2 MSTORE PUSH1 0x20 ADD PUSH1 0x22 DUP2 MSTORE POP SWAP4 POP POP POP POP SWAP1 JUMP JUMPDEST PUSH1 0x40 MLOAD DUP1 PUSH1 0x60 ADD PUSH1 0x40 MSTORE DUP1 DUP3 DUP5 PUSH1 0x0 DUP2 MLOAD DUP2 LT PUSH2 0xC84 JUMPI PUSH2 0xC84 PUSH2 0x40A8 JUMP JUMPDEST PUSH1 0x20 MUL PUSH1 0x20 ADD ADD MLOAD PUSH1 0x64 PUSH2 0xC98 SWAP2 SWAP1 PUSH2 0x41DA JUMP JUMPDEST PUSH2 0xCA2 SWAP2 SWAP1 PUSH2 0x41F1 JUMP JUMPDEST DUP2 MSTORE PUSH1 0x20 ADD DUP3 DUP5 PUSH1 0x1 DUP2 MLOAD DUP2 LT PUSH2 0xCBB JUMPI PUSH2 0xCBB PUSH2 0x40A8 JUMP JUMPDEST PUSH1 0x20 MUL PUSH1 0x20 ADD ADD MLOAD PUSH1 0x64 PUSH2 0xCCF SWAP2 SWAP1 PUSH2 0x41DA JUMP JUMPDEST PUSH2 0xCD9 SWAP2 SWAP1 PUSH2 0x41F1 JUMP JUMPDEST DUP2 MSTORE PUSH1 0x20 ADD DUP3 DUP5 PUSH1 0x1 DUP2 MLOAD DUP2 LT PUSH2 0xCF2 JUMPI PUSH2 0xCF2 PUSH2 0x40A8 JUMP JUMPDEST PUSH1 0x20 MUL PUSH1 0x20 ADD ADD MLOAD PUSH1 0x64 PUSH2 0xD06 SWAP2 SWAP1 PUSH2 0x41DA JUMP JUMPDEST PUSH2 0xD10 SWAP2 SWAP1 PUSH2 0x41F1 JUMP JUMPDEST DUP4 DUP6 PUSH1 0x0 DUP2 MLOAD DUP2 LT PUSH2 0xD24 JUMPI PUSH2 0xD24 PUSH2 0x40A8 JUMP JUMPDEST PUSH1 0x20 MUL PUSH1 0x20 ADD ADD MLOAD PUSH1 0x64 PUSH2 0xD38 SWAP2 SWAP1 PUSH2 0x41DA JUMP JUMPDEST PUSH2 0xD42 SWAP2 SWAP1 PUSH2 0x41F1 JUMP JUMPDEST PUSH2 0xD4D SWAP1 PUSH1 0x64 PUSH2 0x4213 JUMP JUMPDEST PUSH2 0xD57 SWAP2 SWAP1 PUSH2 0x4213 JUMP JUMPDEST SWAP1 MSTORE SWAP5 SWAP4 POP POP POP POP JUMP JUMPDEST PUSH1 0x1 PUSH1 0x1 PUSH1 0xA0 SHL SUB DUP2 AND CALLER EQ PUSH2 0xDD1 JUMPI PUSH1 0x40 MLOAD PUSH3 0x461BCD PUSH1 0xE5 SHL DUP2 MSTORE PUSH1 0x20 PUSH1 0x4 DUP3 ADD MSTORE PUSH1 0x2F PUSH1 0x24 DUP3 ADD MSTORE PUSH32 0x416363657373436F6E74726F6C3A2063616E206F6E6C792072656E6F756E6365 PUSH1 0x44 DUP3 ADD MSTORE PUSH15 0x103937B632B9903337B91039B2B633 PUSH1 0x89 SHL PUSH1 0x64 DUP3 ADD MSTORE PUSH1 0x84 ADD PUSH2 0x998 JUMP JUMPDEST PUSH2 0xDDB DUP3 DUP3 PUSH2 0x2B65 JUMP JUMPDEST POP POP JUMP JUMPDEST PUSH1 0x1 PUSH1 0x1 PUSH1 0xA0 SHL SUB PUSH32 0x0 AND ADDRESS SUB PUSH2 0xE27 JUMPI PUSH1 0x40 MLOAD PUSH3 0x461BCD PUSH1 0xE5 SHL DUP2 MSTORE PUSH1 0x4 ADD PUSH2 0x998 SWAP1 PUSH2 0x4226 JUMP JUMPDEST PUSH32 0x0 PUSH1 0x1 PUSH1 0x1 PUSH1 0xA0 SHL SUB AND PUSH2 0xE70 PUSH1 0x0 DUP1 MLOAD PUSH1 0x20 PUSH2 0x4853 DUP4 CODECOPY DUP2 MLOAD SWAP2 MSTORE SLOAD PUSH1 0x1 PUSH1 0x1 PUSH1 0xA0 SHL SUB AND SWAP1 JUMP JUMPDEST PUSH1 0x1 PUSH1 0x1 PUSH1 0xA0 SHL SUB AND EQ PUSH2 0xE96 JUMPI PUSH1 0x40 MLOAD PUSH3 0x461BCD PUSH1 0xE5 SHL DUP2 MSTORE PUSH1 0x4 ADD PUSH2 0x998 SWAP1 PUSH2 0x4272 JUMP JUMPDEST PUSH2 0xE9F DUP2 PUSH2 0x2BCC JUMP JUMPDEST PUSH1 0x40 DUP1 MLOAD PUSH1 0x0 DUP1 DUP3 MSTORE PUSH1 0x20 DUP3 ADD SWAP1 SWAP3 MSTORE PUSH2 0xEBB SWAP2 DUP4 SWAP2 SWAP1 PUSH2 0x2BD4 JUMP JUMPDEST POP JUMP JUMPDEST CALLER PUSH2 0xEC8 DUP3 PUSH2 0x1DAA JUMP JUMPDEST PUSH1 0x1 PUSH1 0x1 PUSH1 0xA0 SHL SUB AND EQ PUSH2 0xEEE JUMPI PUSH1 0x40 MLOAD PUSH3 0x461BCD PUSH1 0xE5 SHL DUP2 MSTORE PUSH1 0x4 ADD PUSH2 0x998 SWAP1 PUSH2 0x42BE JUMP JUMPDEST PUSH1 0x0 PUSH2 0xEF9 DUP3 PUSH2 0x1EA4 JUMP JUMPDEST SWAP1 POP PUSH1 0x0 DUP2 GT PUSH2 0xF3F JUMPI PUSH1 0x40 MLOAD PUSH3 0x461BCD PUSH1 0xE5 SHL DUP2 MSTORE PUSH1 0x20 PUSH1 0x4 DUP3 ADD MSTORE PUSH1 0x11 PUSH1 0x24 DUP3 ADD MSTORE PUSH17 0x4E6F207969656C6420746F20636C61696D PUSH1 0x78 SHL PUSH1 0x44 DUP3 ADD MSTORE PUSH1 0x64 ADD PUSH2 0x998 JUMP JUMPDEST PUSH1 0x0 DUP3 DUP2 MSTORE PUSH2 0x198 PUSH1 0x20 SWAP1 DUP2 MSTORE PUSH1 0x40 DUP1 DUP4 KECCAK256 TIMESTAMP PUSH1 0x2 DUP3 ADD SSTORE DUP1 SLOAD PUSH1 0x1 PUSH1 0x1 PUSH1 0xA0 SHL SUB AND DUP5 MSTORE PUSH2 0x19A SWAP1 SWAP3 MSTORE DUP3 KECCAK256 DUP1 SLOAD SWAP2 SWAP3 DUP5 SWAP3 PUSH2 0xF7D SWAP1 DUP5 SWAP1 PUSH2 0x41C7 JUMP JUMPDEST SWAP1 SWAP2 SSTORE POP POP DUP1 SLOAD PUSH2 0xF98 SWAP1 PUSH1 0x1 PUSH1 0x1 PUSH1 0xA0 SHL SUB AND CALLER DUP5 PUSH2 0x2D3F JUMP JUMPDEST DUP1 SLOAD PUSH1 0x40 DUP1 MLOAD DUP5 DUP2 MSTORE PUSH1 0x20 DUP2 ADD DUP7 SWAP1 MSTORE PUSH1 0x1 PUSH1 0x1 PUSH1 0xA0 SHL SUB SWAP1 SWAP3 AND SWAP2 CALLER SWAP2 PUSH32 0xB10C79AA8CE52424B7676B33FE7B45EA2516B75F43F3B5C0C730E52CA8EF36A5 SWAP2 ADD JUMPDEST PUSH1 0x40 MLOAD DUP1 SWAP2 SUB SWAP1 LOG3 POP POP POP JUMP JUMPDEST PUSH2 0xA39 DUP4 DUP4 DUP4 PUSH1 0x40 MLOAD DUP1 PUSH1 0x20 ADD PUSH1 0x40 MSTORE DUP1 PUSH1 0x0 DUP2 MSTORE POP PUSH2 0x2059 JUMP JUMPDEST PUSH2 0x100A PUSH2 0x2DA2 JUMP JUMPDEST PUSH1 0x0 PUSH2 0x101E PUSH1 0x97 SLOAD PUSH1 0x1 PUSH1 0x1 PUSH1 0xA0 SHL SUB AND SWAP1 JUMP JUMPDEST PUSH1 0x1 PUSH1 0x1 PUSH1 0xA0 SHL SUB AND SUB PUSH2 0x1074 JUMPI PUSH1 0x40 MLOAD PUSH3 0x461BCD PUSH1 0xE5 SHL DUP2 MSTORE PUSH1 0x20 PUSH1 0x4 DUP3 ADD MSTORE PUSH1 0x18 PUSH1 0x24 DUP3 ADD MSTORE PUSH32 0x436F6E7472616374206E6F7420696E697469616C697A65640000000000000000 PUSH1 0x44 DUP3 ADD MSTORE PUSH1 0x64 ADD PUSH2 0x998 JUMP JUMPDEST PUSH1 0x40 MLOAD PUSH7 0x3A37B5B2B71D1 PUSH1 0xCD SHL PUSH1 0x20 DUP3 ADD MSTORE PUSH1 0x1 PUSH1 0x1 PUSH1 0x60 SHL SUB NOT PUSH1 0x60 DUP5 SWAP1 SHL AND PUSH1 0x27 DUP3 ADD MSTORE PUSH9 0x1030B6B7BAB73A1D1 PUSH1 0xBD SHL PUSH1 0x3B DUP3 ADD MSTORE PUSH1 0x44 DUP2 ADD DUP3 SWAP1 MSTORE PUSH1 0x0 DUP1 MLOAD PUSH1 0x20 PUSH2 0x489A DUP4 CODECOPY DUP2 MLOAD SWAP2 MSTORE SWAP1 PUSH1 0x64 ADD PUSH1 0x40 DUP1 MLOAD PUSH1 0x1F NOT DUP2 DUP5 SUB ADD DUP2 MSTORE SWAP1 DUP3 SWAP1 MSTORE PUSH2 0x10E1 SWAP2 PUSH2 0x42E5 JUMP JUMPDEST PUSH1 0x40 MLOAD DUP1 SWAP2 SUB SWAP1 LOG1 PUSH1 0x1 PUSH1 0x1 PUSH1 0xA0 SHL SUB DUP3 AND PUSH2 0x1149 JUMPI PUSH1 0x40 MLOAD PUSH3 0x461BCD PUSH1 0xE5 SHL DUP2 MSTORE PUSH1 0x20 PUSH1 0x4 DUP3 ADD MSTORE PUSH1 0x21 PUSH1 0x24 DUP3 ADD MSTORE PUSH32 0x584D563A20546F6B656E20616464726573732063616E6E6F74206265207A6572 PUSH1 0x44 DUP3 ADD MSTORE PUSH1 0x6F PUSH1 0xF8 SHL PUSH1 0x64 DUP3 ADD MSTORE PUSH1 0x84 ADD PUSH2 0x998 JUMP JUMPDEST PUSH1 0x0 DUP2 GT PUSH2 0x11A4 JUMPI PUSH1 0x40 MLOAD PUSH3 0x461BCD PUSH1 0xE5 SHL DUP2 MSTORE PUSH1 0x20 PUSH1 0x4 DUP3 ADD MSTORE PUSH1 0x22 PUSH1 0x24 DUP3 ADD MSTORE PUSH32 0x584D563A20416D6F756E74206D7573742062652067726561746572207468616E PUSH1 0x44 DUP3 ADD MSTORE PUSH2 0x203 PUSH1 0xF4 SHL PUSH1 0x64 DUP3 ADD MSTORE PUSH1 0x84 ADD PUSH2 0x998 JUMP JUMPDEST PUSH1 0x40 MLOAD PUSH7 0x3A37B5B2B71D1 PUSH1 0xCD SHL PUSH1 0x20 DUP3 ADD MSTORE PUSH1 0x1 PUSH1 0x1 PUSH1 0x60 SHL SUB NOT PUSH1 0x60 DUP5 SWAP1 SHL AND PUSH1 0x27 DUP3 ADD MSTORE PUSH1 0x0 DUP1 MLOAD PUSH1 0x20 PUSH2 0x489A DUP4 CODECOPY DUP2 MLOAD SWAP2 MSTORE SWAP1 PUSH1 0x3B ADD PUSH1 0x40 DUP1 MLOAD PUSH1 0x1F NOT DUP2 DUP5 SUB ADD DUP2 MSTORE SWAP1 DUP3 SWAP1 MSTORE PUSH2 0x11F8 SWAP2 PUSH2 0x4322 JUMP JUMPDEST PUSH1 0x40 MLOAD DUP1 SWAP2 SUB SWAP1 LOG1 PUSH2 0x192 SLOAD PUSH1 0x0 SWAP1 PUSH1 0x1 PUSH1 0x1 PUSH1 0xA0 SHL SUB DUP5 DUP2 AND SWAP2 AND EQ DUP1 PUSH2 0x122E JUMPI POP PUSH2 0x193 SLOAD PUSH1 0x1 PUSH1 0x1 PUSH1 0xA0 SHL SUB DUP5 DUP2 AND SWAP2 AND EQ JUMPDEST DUP1 PUSH2 0x1247 JUMPI POP PUSH2 0x194 SLOAD PUSH1 0x1 PUSH1 0x1 PUSH1 0xA0 SHL SUB DUP5 DUP2 AND SWAP2 AND EQ JUMPDEST SWAP1 POP DUP1 PUSH2 0x1296 JUMPI PUSH1 0x40 MLOAD PUSH3 0x461BCD PUSH1 0xE5 SHL DUP2 MSTORE PUSH1 0x20 PUSH1 0x4 DUP3 ADD MSTORE PUSH1 0x18 PUSH1 0x24 DUP3 ADD MSTORE PUSH32 0x584D563A20546F6B656E206E6F7420737570706F727465640000000000000000 PUSH1 0x44 DUP3 ADD MSTORE PUSH1 0x64 ADD PUSH2 0x998 JUMP JUMPDEST PUSH1 0x0 DUP1 MLOAD PUSH1 0x20 PUSH2 0x489A DUP4 CODECOPY DUP2 MLOAD SWAP2 MSTORE PUSH1 0x40 MLOAD PUSH2 0x12EA SWAP1 PUSH1 0x40 DUP1 DUP3 MSTORE PUSH1 0x15 SWAP1 DUP3 ADD MSTORE PUSH21 0xCCB88151BDAD95B881A5CC81CDD5C1C1BDC9D1959 PUSH1 0x5A SHL PUSH1 0x60 DUP3 ADD MSTORE PUSH1 0x80 PUSH1 0x20 DUP3 ADD DUP2 SWAP1 MSTORE PUSH1 0x0 SWAP1 DUP3 ADD MSTORE PUSH1 0xA0 ADD SWAP1 JUMP JUMPDEST PUSH1 0x40 MLOAD DUP1 SWAP2 SUB SWAP1 LOG1 PUSH1 0x0 DUP1 MLOAD PUSH1 0x20 PUSH2 0x489A DUP4 CODECOPY DUP2 MLOAD SWAP2 MSTORE PUSH1 0x40 MLOAD PUSH2 0x1359 SWAP1 PUSH1 0x40 DUP1 DUP3 MSTORE PUSH1 0x22 SWAP1 DUP3 ADD MSTORE PUSH32 0x342E2047657474696E672062616C616E6365206265666F7265207472616E7366 PUSH1 0x60 DUP3 ADD MSTORE PUSH2 0x32B9 PUSH1 0xF1 SHL PUSH1 0x80 DUP3 ADD MSTORE PUSH1 0xA0 PUSH1 0x20 DUP3 ADD DUP2 SWAP1 MSTORE PUSH1 0x0 SWAP1 DUP3 ADD MSTORE PUSH1 0xC0 ADD SWAP1 JUMP JUMPDEST PUSH1 0x40 MLOAD DUP1 SWAP2 SUB SWAP1 LOG1 PUSH1 0x40 MLOAD PUSH4 0x70A08231 PUSH1 0xE0 SHL DUP2 MSTORE ADDRESS PUSH1 0x4 DUP3 ADD MSTORE PUSH1 0x0 SWAP1 PUSH1 0x1 PUSH1 0x1 PUSH1 0xA0 SHL SUB DUP6 AND SWAP1 PUSH4 0x70A08231 SWAP1 PUSH1 0x24 ADD PUSH1 0x20 PUSH1 0x40 MLOAD DUP1 DUP4 SUB DUP2 DUP7 GAS STATICCALL ISZERO DUP1 ISZERO PUSH2 0x13A8 JUMPI RETURNDATASIZE PUSH1 0x0 DUP1 RETURNDATACOPY RETURNDATASIZE PUSH1 0x0 REVERT JUMPDEST POP POP POP POP PUSH1 0x40 MLOAD RETURNDATASIZE PUSH1 0x1F NOT PUSH1 0x1F DUP3 ADD AND DUP3 ADD DUP1 PUSH1 0x40 MSTORE POP DUP2 ADD SWAP1 PUSH2 0x13CC SWAP2 SWAP1 PUSH2 0x4369 JUMP JUMPDEST SWAP1 POP PUSH1 0x0 DUP1 MLOAD PUSH1 0x20 PUSH2 0x489A DUP4 CODECOPY DUP2 MLOAD SWAP2 MSTORE DUP2 PUSH1 0x40 MLOAD PUSH1 0x20 ADD PUSH2 0x13F0 SWAP2 DUP2 MSTORE PUSH1 0x20 ADD SWAP1 JUMP JUMPDEST PUSH1 0x40 DUP1 MLOAD PUSH1 0x1F NOT DUP2 DUP5 SUB ADD DUP2 MSTORE SWAP1 DUP3 SWAP1 MSTORE PUSH2 0x140A SWAP2 PUSH2 0x4382 JUMP JUMPDEST PUSH1 0x40 MLOAD DUP1 SWAP2 SUB SWAP1 LOG1 PUSH1 0x0 DUP1 MLOAD PUSH1 0x20 PUSH2 0x489A DUP4 CODECOPY DUP2 MLOAD SWAP2 MSTORE PUSH1 0x40 MLOAD PUSH2 0x147D SWAP1 PUSH1 0x40 DUP1 DUP3 MSTORE PUSH1 0x26 SWAP1 DUP3 ADD MSTORE PUSH32 0x362E20436865636B696E6720757365722062616C616E636520616E6420616C6C PUSH1 0x60 DUP3 ADD MSTORE PUSH6 0x6F77616E6365 PUSH1 0xD0 SHL PUSH1 0x80 DUP3 ADD MSTORE PUSH1 0xA0 PUSH1 0x20 DUP3 ADD DUP2 SWAP1 MSTORE PUSH1 0x0 SWAP1 DUP3 ADD MSTORE PUSH1 0xC0 ADD SWAP1 JUMP JUMPDEST PUSH1 0x40 MLOAD DUP1 SWAP2 SUB SWAP1 LOG1 PUSH1 0x40 MLOAD PUSH4 0x70A08231 PUSH1 0xE0 SHL DUP2 MSTORE CALLER PUSH1 0x4 DUP3 ADD MSTORE DUP5 SWAP1 PUSH1 0x0 SWAP1 PUSH1 0x1 PUSH1 0x1 PUSH1 0xA0 SHL SUB DUP4 AND SWAP1 PUSH4 0x70A08231 SWAP1 PUSH1 0x24 ADD PUSH1 0x20 PUSH1 0x40 MLOAD DUP1 DUP4 SUB DUP2 DUP7 GAS STATICCALL ISZERO DUP1 ISZERO PUSH2 0x14CE JUMPI RETURNDATASIZE PUSH1 0x0 DUP1 RETURNDATACOPY RETURNDATASIZE PUSH1 0x0 REVERT JUMPDEST POP POP POP POP PUSH1 0x40 MLOAD RETURNDATASIZE PUSH1 0x1F NOT PUSH1 0x1F DUP3 ADD AND DUP3 ADD DUP1 PUSH1 0x40 MSTORE POP DUP2 ADD SWAP1 PUSH2 0x14F2 SWAP2 SWAP1 PUSH2 0x4369 JUMP JUMPDEST PUSH1 0x40 MLOAD PUSH4 0x6EB1769F PUSH1 0xE1 SHL DUP2 MSTORE CALLER PUSH1 0x4 DUP3 ADD MSTORE ADDRESS PUSH1 0x24 DUP3 ADD MSTORE SWAP1 SWAP2 POP PUSH1 0x0 SWAP1 PUSH1 0x1 PUSH1 0x1 PUSH1 0xA0 SHL SUB DUP5 AND SWAP1 PUSH4 0xDD62ED3E SWAP1 PUSH1 0x44 ADD PUSH1 0x20 PUSH1 0x40 MLOAD DUP1 DUP4 SUB DUP2 DUP7 GAS STATICCALL ISZERO DUP1 ISZERO PUSH2 0x1542 JUMPI RETURNDATASIZE PUSH1 0x0 DUP1 RETURNDATACOPY RETURNDATASIZE PUSH1 0x0 REVERT JUMPDEST POP POP POP POP PUSH1 0x40 MLOAD RETURNDATASIZE PUSH1 0x1F NOT PUSH1 0x1F DUP3 ADD AND DUP3 ADD DUP1 PUSH1 0x40 MSTORE POP DUP2 ADD SWAP1 PUSH2 0x1566 SWAP2 SWAP1 PUSH2 0x4369 JUMP JUMPDEST PUSH1 0x40 MLOAD PUSH9 0x3130B630B731B29D1 PUSH1 0xBD SHL PUSH1 0x20 DUP3 ADD MSTORE PUSH1 0x29 DUP2 ADD DUP5 SWAP1 MSTORE PUSH12 0x1030B63637BBB0B731B29D1 PUSH1 0xA5 SHL PUSH1 0x49 DUP3 ADD MSTORE PUSH1 0x55 DUP2 ADD DUP3 SWAP1 MSTORE PUSH11 0x103932B8BAB4B932B21D1 PUSH1 0xAD SHL PUSH1 0x75 DUP3 ADD MSTORE PUSH1 0x80 DUP2 ADD DUP9 SWAP1 MSTORE SWAP1 SWAP2 POP PUSH1 0x0 DUP1 MLOAD PUSH1 0x20 PUSH2 0x489A DUP4 CODECOPY DUP2 MLOAD SWAP2 MSTORE SWAP1 PUSH1 0xA0 ADD PUSH1 0x40 DUP1 MLOAD PUSH1 0x1F NOT DUP2 DUP5 SUB ADD DUP2 MSTORE SWAP1 DUP3 SWAP1 MSTORE PUSH2 0x15E9 SWAP2 PUSH2 0x43C9 JUMP JUMPDEST PUSH1 0x40 MLOAD DUP1 SWAP2 SUB SWAP1 LOG1 DUP6 DUP3 LT ISZERO PUSH2 0x1641 JUMPI PUSH1 0x40 MLOAD PUSH3 0x461BCD PUSH1 0xE5 SHL DUP2 MSTORE PUSH1 0x20 PUSH1 0x4 DUP3 ADD MSTORE PUSH1 0x19 PUSH1 0x24 DUP3 ADD MSTORE PUSH32 0x584D563A20496E73756666696369656E742062616C616E636500000000000000 PUSH1 0x44 DUP3 ADD MSTORE PUSH1 0x64 ADD PUSH2 0x998 JUMP JUMPDEST DUP6 DUP2 LT ISZERO PUSH2 0x1691 JUMPI PUSH1 0x40 MLOAD PUSH3 0x461BCD PUSH1 0xE5 SHL DUP2 MSTORE PUSH1 0x20 PUSH1 0x4 DUP3 ADD MSTORE PUSH1 0x1B PUSH1 0x24 DUP3 ADD MSTORE PUSH32 0x584D563A20496E73756666696369656E7420616C6C6F77616E63650000000000 PUSH1 0x44 DUP3 ADD MSTORE PUSH1 0x64 ADD PUSH2 0x998 JUMP JUMPDEST PUSH1 0x0 DUP1 MLOAD PUSH1 0x20 PUSH2 0x489A DUP4 CODECOPY DUP2 MLOAD SWAP2 MSTORE PUSH1 0x40 MLOAD PUSH2 0x16ED SWAP1 PUSH1 0x40 DUP1 DUP3 MSTORE PUSH1 0x1C SWAP1 DUP3 ADD MSTORE PUSH32 0x382E20496E6974696174696E6720746F6B656E207472616E7366657200000000 PUSH1 0x60 DUP3 ADD MSTORE PUSH1 0x80 PUSH1 0x20 DUP3 ADD DUP2 SWAP1 MSTORE PUSH1 0x0 SWAP1 DUP3 ADD MSTORE PUSH1 0xA0 ADD SWAP1 JUMP JUMPDEST PUSH1 0x40 MLOAD DUP1 SWAP2 SUB SWAP1 LOG1 PUSH2 0x170A PUSH1 0x1 PUSH1 0x1 PUSH1 0xA0 SHL SUB DUP5 AND CALLER ADDRESS DUP10 PUSH2 0x2DFB JUMP JUMPDEST PUSH1 0x0 DUP1 MLOAD PUSH1 0x20 PUSH2 0x489A DUP4 CODECOPY DUP2 MLOAD SWAP2 MSTORE PUSH1 0x40 MLOAD PUSH2 0x175F SWAP1 PUSH1 0x40 DUP1 DUP3 MSTORE PUSH1 0x16 SWAP1 DUP3 ADD MSTORE PUSH22 0xE4B88151C985B9CD9995C881CDD58D8D95CDCD99D5B PUSH1 0x52 SHL PUSH1 0x60 DUP3 ADD MSTORE PUSH1 0x80 PUSH1 0x20 DUP3 ADD DUP2 SWAP1 MSTORE PUSH1 0x0 SWAP1 DUP3 ADD MSTORE PUSH1 0xA0 ADD SWAP1 JUMP JUMPDEST PUSH1 0x40 MLOAD DUP1 SWAP2 SUB SWAP1 LOG1 PUSH1 0x0 DUP1 MLOAD PUSH1 0x20 PUSH2 0x489A DUP4 CODECOPY DUP2 MLOAD SWAP2 MSTORE PUSH1 0x40 MLOAD PUSH2 0x17BC SWAP1 PUSH1 0x40 DUP1 DUP3 MSTORE PUSH1 0x16 SWAP1 DUP3 ADD MSTORE PUSH22 0x189817102B32B934B33CB4B733903A3930B739B332B9 PUSH1 0x51 SHL PUSH1 0x60 DUP3 ADD MSTORE PUSH1 0x80 PUSH1 0x20 DUP3 ADD DUP2 SWAP1 MSTORE PUSH1 0x0 SWAP1 DUP3 ADD MSTORE PUSH1 0xA0 ADD SWAP1 JUMP JUMPDEST PUSH1 0x40 MLOAD DUP1 SWAP2 SUB SWAP1 LOG1 PUSH1 0x40 MLOAD PUSH4 0x70A08231 PUSH1 0xE0 SHL DUP2 MSTORE ADDRESS PUSH1 0x4 DUP3 ADD MSTORE PUSH1 0x0 SWAP1 PUSH1 0x1 PUSH1 0x1 PUSH1 0xA0 SHL SUB DUP6 AND SWAP1 PUSH4 0x70A08231 SWAP1 PUSH1 0x24 ADD PUSH1 0x20 PUSH1 0x40 MLOAD DUP1 DUP4 SUB DUP2 DUP7 GAS STATICCALL ISZERO DUP1 ISZERO PUSH2 0x180B JUMPI RETURNDATASIZE PUSH1 0x0 DUP1 RETURNDATACOPY RETURNDATASIZE PUSH1 0x0 REVERT JUMPDEST POP POP POP POP PUSH1 0x40 MLOAD RETURNDATASIZE PUSH1 0x1F NOT PUSH1 0x1F DUP3 ADD AND DUP3 ADD DUP1 PUSH1 0x40 MSTORE POP DUP2 ADD SWAP1 PUSH2 0x182F SWAP2 SWAP1 PUSH2 0x4369 JUMP JUMPDEST SWAP1 POP PUSH1 0x0 DUP1 MLOAD PUSH1 0x20 PUSH2 0x489A DUP4 CODECOPY DUP2 MLOAD SWAP2 MSTORE DUP2 PUSH2 0x184B DUP10 DUP9 PUSH2 0x41C7 JUMP JUMPDEST PUSH1 0x40 MLOAD PUSH8 0x30B1BA3AB0B61D1 PUSH1 0xC5 SHL PUSH1 0x20 DUP3 ADD MSTORE PUSH1 0x28 DUP2 ADD SWAP3 SWAP1 SWAP3 MSTORE PUSH11 0x1032BC3832B1BA32B21D1 PUSH1 0xAD SHL PUSH1 0x48 DUP4 ADD MSTORE PUSH1 0x53 DUP3 ADD MSTORE PUSH1 0x73 ADD PUSH1 0x40 DUP1 MLOAD PUSH1 0x1F NOT DUP2 DUP5 SUB ADD DUP2 MSTORE SWAP1 DUP3 SWAP1 MSTORE PUSH2 0x189D SWAP2 PUSH2 0x4410 JUMP JUMPDEST PUSH1 0x40 MLOAD DUP1 SWAP2 SUB SWAP1 LOG1 PUSH2 0x18AF DUP8 DUP7 PUSH2 0x41C7 JUMP JUMPDEST DUP2 EQ PUSH2 0x18FD JUMPI PUSH1 0x40 MLOAD PUSH3 0x461BCD PUSH1 0xE5 SHL DUP2 MSTORE PUSH1 0x20 PUSH1 0x4 DUP3 ADD MSTORE PUSH1 0x1A PUSH1 0x24 DUP3 ADD MSTORE PUSH32 0x584D563A20546F6B656E207472616E73666572206661696C6564000000000000 PUSH1 0x44 DUP3 ADD MSTORE PUSH1 0x64 ADD PUSH2 0x998 JUMP JUMPDEST PUSH1 0x0 DUP1 MLOAD PUSH1 0x20 PUSH2 0x489A DUP4 CODECOPY DUP2 MLOAD SWAP2 MSTORE PUSH1 0x40 MLOAD PUSH2 0x1951 SWAP1 PUSH1 0x40 DUP1 DUP3 MSTORE PUSH1 0x15 SWAP1 DUP3 ADD MSTORE PUSH21 0xC4C8B88151C985B9CD9995C881D995C9A599A5959 PUSH1 0x5A SHL PUSH1 0x60 DUP3 ADD MSTORE PUSH1 0x80 PUSH1 0x20 DUP3 ADD DUP2 SWAP1 MSTORE PUSH1 0x0 SWAP1 DUP3 ADD MSTORE PUSH1 0xA0 ADD SWAP1 JUMP JUMPDEST PUSH1 0x40 MLOAD DUP1 SWAP2 SUB SWAP1 LOG1 PUSH2 0x197 DUP1 SLOAD PUSH1 0x0 SWAP2 DUP3 PUSH2 0x196B DUP4 PUSH2 0x4457 JUMP JUMPDEST SWAP1 SWAP2 SSTORE POP PUSH1 0x40 DUP1 MLOAD PUSH1 0xA0 DUP2 ADD DUP3 MSTORE PUSH1 0x1 PUSH1 0x1 PUSH1 0xA0 SHL SUB DUP13 DUP2 AND DUP1 DUP4 MSTORE PUSH1 0x20 DUP4 ADD DUP14 SWAP1 MSTORE TIMESTAMP DUP4 DUP6 ADD MSTORE PUSH2 0x196 SLOAD SWAP4 MLOAD PUSH4 0xC4F9870B PUSH1 0xE0 SHL DUP2 MSTORE PUSH1 0x4 DUP2 ADD SWAP2 SWAP1 SWAP2 MSTORE SWAP4 SWAP5 POP SWAP1 SWAP3 PUSH1 0x60 DUP5 ADD SWAP3 SWAP1 SWAP2 AND SWAP1 PUSH4 0xC4F9870B SWAP1 PUSH1 0x24 ADD PUSH1 0x20 PUSH1 0x40 MLOAD DUP1 DUP4 SUB DUP2 DUP7 GAS STATICCALL ISZERO DUP1 ISZERO PUSH2 0x19DF JUMPI RETURNDATASIZE PUSH1 0x0 DUP1 RETURNDATACOPY RETURNDATASIZE PUSH1 0x0 REVERT JUMPDEST POP POP POP POP PUSH1 0x40 MLOAD RETURNDATASIZE PUSH1 0x1F NOT PUSH1 0x1F DUP3 ADD AND DUP3 ADD DUP1 PUSH1 0x40 MSTORE POP DUP2 ADD SWAP1 PUSH2 0x1A03 SWAP2 SWAP1 PUSH2 0x4369 JUMP JUMPDEST DUP2 MSTORE PUSH1 0x1 PUSH1 0x20 SWAP2 DUP3 ADD DUP2 SWAP1 MSTORE PUSH1 0x0 DUP5 DUP2 MSTORE PUSH2 0x198 DUP4 MSTORE PUSH1 0x40 DUP1 DUP3 KECCAK256 DUP6 MLOAD DUP2 SLOAD PUSH1 0x1 PUSH1 0x1 PUSH1 0xA0 SHL SUB NOT AND PUSH1 0x1 PUSH1 0x1 PUSH1 0xA0 SHL SUB SWAP2 DUP3 AND OR DUP3 SSTORE DUP7 DUP7 ADD MLOAD SWAP5 DUP3 ADD SWAP5 SWAP1 SWAP5 SSTORE DUP6 DUP3 ADD MLOAD PUSH1 0x2 DUP3 ADD SSTORE PUSH1 0x60 DUP7 ADD MLOAD PUSH1 0x3 DUP3 ADD SSTORE PUSH1 0x80 SWAP1 SWAP6 ADD MLOAD PUSH1 0x4 SWAP1 SWAP6 ADD DUP1 SLOAD PUSH1 0xFF NOT AND SWAP6 ISZERO ISZERO SWAP6 SWAP1 SWAP6 OR SWAP1 SWAP5 SSTORE SWAP1 DUP13 AND DUP2 MSTORE PUSH2 0x199 SWAP1 SWAP2 MSTORE SWAP1 DUP2 KECCAK256 DUP1 SLOAD DUP11 SWAP3 SWAP1 PUSH2 0x1A91 SWAP1 DUP5 SWAP1 PUSH2 0x41C7 JUMP JUMPDEST SWAP1 SWAP2 SSTORE POP PUSH2 0x1AA1 SWAP1 POP CALLER DUP3 PUSH2 0x2E33 JUMP JUMPDEST PUSH1 0x40 DUP1 MLOAD PUSH1 0x20 DUP2 ADD DUP4 SWAP1 MSTORE PUSH1 0x1 PUSH1 0x1 PUSH1 0x60 SHL SUB NOT PUSH1 0x60 DUP13 SWAP1 SHL AND SWAP2 DUP2 ADD SWAP2 SWAP1 SWAP2 MSTORE PUSH1 0x54 DUP2 ADD DUP10 SWAP1 MSTORE TIMESTAMP PUSH1 0x74 DUP3 ADD MSTORE PUSH1 0x0 DUP1 MLOAD PUSH1 0x20 PUSH2 0x489A DUP4 CODECOPY DUP2 MLOAD SWAP2 MSTORE SWAP1 PUSH1 0x94 ADD PUSH1 0x40 DUP1 MLOAD PUSH1 0x1F NOT DUP2 DUP5 SUB ADD DUP2 MSTORE SWAP1 DUP3 SWAP1 MSTORE PUSH2 0x1AFC SWAP2 PUSH2 0x4470 JUMP JUMPDEST PUSH1 0x40 MLOAD DUP1 SWAP2 SUB SWAP1 LOG1 PUSH1 0x1 PUSH1 0x1 PUSH1 0xA0 SHL SUB DUP10 AND PUSH1 0x0 SWAP1 DUP2 MSTORE PUSH2 0x199 PUSH1 0x20 SWAP1 DUP2 MSTORE PUSH1 0x40 SWAP2 DUP3 SWAP1 KECCAK256 SLOAD SWAP2 MLOAD PUSH1 0x0 DUP1 MLOAD PUSH1 0x20 PUSH2 0x489A DUP4 CODECOPY DUP2 MLOAD SWAP2 MSTORE SWAP3 PUSH2 0x1B58 SWAP3 DUP14 SWAP3 ADD PUSH1 0x60 SWAP3 SWAP1 SWAP3 SHL PUSH1 0x1 PUSH1 0x1 PUSH1 0x60 SHL SUB NOT AND DUP3 MSTORE PUSH1 0x14 DUP3 ADD MSTORE PUSH1 0x34 ADD SWAP1 JUMP JUMPDEST PUSH1 0x40 DUP1 MLOAD PUSH1 0x1F NOT DUP2 DUP5 SUB ADD DUP2 MSTORE SWAP1 DUP3 SWAP1 MSTORE PUSH2 0x1B72 SWAP2 PUSH2 0x44AA JUMP JUMPDEST PUSH1 0x40 MLOAD DUP1 SWAP2 SUB SWAP1 LOG1 PUSH1 0x0 DUP1 MLOAD PUSH1 0x20 PUSH2 0x489A DUP4 CODECOPY DUP2 MLOAD SWAP2 MSTORE DUP2 CALLER PUSH1 0x40 MLOAD PUSH1 0x20 ADD PUSH2 0x1BB2 SWAP3 SWAP2 SWAP1 SWAP2 DUP3 MSTORE PUSH1 0x60 SHL PUSH1 0x1 PUSH1 0x1 PUSH1 0x60 SHL SUB NOT AND PUSH1 0x20 DUP3 ADD MSTORE PUSH1 0x34 ADD SWAP1 JUMP JUMPDEST PUSH1 0x40 DUP1 MLOAD PUSH1 0x1F NOT DUP2 DUP5 SUB ADD DUP2 MSTORE SWAP1 DUP3 SWAP1 MSTORE PUSH2 0x1BCC SWAP2 PUSH2 0x44EA JUMP JUMPDEST PUSH1 0x40 MLOAD DUP1 SWAP2 SUB SWAP1 LOG1 PUSH1 0x40 DUP1 MLOAD DUP10 DUP2 MSTORE PUSH1 0x20 DUP2 ADD DUP4 SWAP1 MSTORE PUSH1 0x1 PUSH1 0x1 PUSH1 0xA0 SHL SUB DUP12 AND SWAP2 CALLER SWAP2 PUSH32 0xF5681F9D0DB1B911AC18EE83D515A1CF1051853A9EAE418316A2FDF7DEA427C5 SWAP2 ADD PUSH1 0x40 MLOAD DUP1 SWAP2 SUB SWAP1 LOG3 POP POP POP POP POP POP POP PUSH2 0xDDB PUSH1 0x1 PUSH1 0xFB SSTORE JUMP JUMPDEST PUSH1 0x1 PUSH1 0x1 PUSH1 0xA0 SHL SUB PUSH32 0x0 AND ADDRESS SUB PUSH2 0x1C73 JUMPI PUSH1 0x40 MLOAD PUSH3 0x461BCD PUSH1 0xE5 SHL DUP2 MSTORE PUSH1 0x4 ADD PUSH2 0x998 SWAP1 PUSH2 0x4226 JUMP JUMPDEST PUSH32 0x0 PUSH1 0x1 PUSH1 0x1 PUSH1 0xA0 SHL SUB AND PUSH2 0x1CBC PUSH1 0x0 DUP1 MLOAD PUSH1 0x20 PUSH2 0x4853 DUP4 CODECOPY DUP2 MLOAD SWAP2 MSTORE SLOAD PUSH1 0x1 PUSH1 0x1 PUSH1 0xA0 SHL SUB AND SWAP1 JUMP JUMPDEST PUSH1 0x1 PUSH1 0x1 PUSH1 0xA0 SHL SUB AND EQ PUSH2 0x1CE2 JUMPI PUSH1 0x40 MLOAD PUSH3 0x461BCD PUSH1 0xE5 SHL DUP2 MSTORE PUSH1 0x4 ADD PUSH2 0x998 SWAP1 PUSH2 0x4272 JUMP JUMPDEST PUSH2 0x1CEB DUP3 PUSH2 0x2BCC JUMP JUMPDEST PUSH2 0xDDB DUP3 DUP3 PUSH1 0x1 PUSH2 0x2BD4 JUMP JUMPDEST PUSH1 0x0 ADDRESS PUSH1 0x1 PUSH1 0x1 PUSH1 0xA0 SHL SUB PUSH32 0x0 AND EQ PUSH2 0x1D97 JUMPI PUSH1 0x40 MLOAD PUSH3 0x461BCD PUSH1 0xE5 SHL DUP2 MSTORE PUSH1 0x20 PUSH1 0x4 DUP3 ADD MSTORE PUSH1 0x38 PUSH1 0x24 DUP3 ADD MSTORE PUSH32 0x555550535570677261646561626C653A206D757374206E6F742062652063616C PUSH1 0x44 DUP3 ADD MSTORE PUSH32 0x6C6564207468726F7567682064656C656761746563616C6C0000000000000000 PUSH1 0x64 DUP3 ADD MSTORE PUSH1 0x84 ADD PUSH2 0x998 JUMP JUMPDEST POP PUSH1 0x0 DUP1 MLOAD PUSH1 0x20 PUSH2 0x4853 DUP4 CODECOPY DUP2 MLOAD SWAP2 MSTORE SWAP1 JUMP JUMPDEST PUSH1 0x0 DUP2 DUP2 MSTORE PUSH1 0x67 PUSH1 0x20 MSTORE PUSH1 0x40 DUP2 KECCAK256 SLOAD PUSH1 0x1 PUSH1 0x1 PUSH1 0xA0 SHL SUB AND DUP1 PUSH2 0x865 JUMPI PUSH1 0x40 MLOAD PUSH3 0x461BCD PUSH1 0xE5 SHL DUP2 MSTORE PUSH1 0x20 PUSH1 0x4 DUP3 ADD MSTORE PUSH1 0x18 PUSH1 0x24 DUP3 ADD MSTORE PUSH24 0x115490CDCC8C4E881A5B9D985B1A59081D1BDAD95B881251 PUSH1 0x42 SHL PUSH1 0x44 DUP3 ADD MSTORE PUSH1 0x64 ADD PUSH2 0x998 JUMP JUMPDEST PUSH1 0x0 PUSH1 0x1 PUSH1 0x1 PUSH1 0xA0 SHL SUB DUP3 AND PUSH2 0x1E74 JUMPI PUSH1 0x40 MLOAD PUSH3 0x461BCD PUSH1 0xE5 SHL DUP2 MSTORE PUSH1 0x20 PUSH1 0x4 DUP3 ADD MSTORE PUSH1 0x29 PUSH1 0x24 DUP3 ADD MSTORE PUSH32 0x4552433732313A2061646472657373207A65726F206973206E6F742061207661 PUSH1 0x44 DUP3 ADD MSTORE PUSH9 0x3634B21037BBB732B9 PUSH1 0xB9 SHL PUSH1 0x64 DUP3 ADD MSTORE PUSH1 0x84 ADD PUSH2 0x998 JUMP JUMPDEST POP PUSH1 0x1 PUSH1 0x1 PUSH1 0xA0 SHL SUB AND PUSH1 0x0 SWAP1 DUP2 MSTORE PUSH1 0x68 PUSH1 0x20 MSTORE PUSH1 0x40 SWAP1 KECCAK256 SLOAD SWAP1 JUMP JUMPDEST PUSH2 0x1E98 PUSH2 0x2FC5 JUMP JUMPDEST PUSH2 0x1EA2 PUSH1 0x0 PUSH2 0x301F JUMP JUMPDEST JUMP JUMPDEST PUSH1 0x0 DUP1 PUSH2 0x1EB0 DUP4 PUSH2 0x1DAA JUMP JUMPDEST PUSH1 0x1 PUSH1 0x1 PUSH1 0xA0 SHL SUB AND SUB PUSH2 0x1F06 JUMPI PUSH1 0x40 MLOAD PUSH3 0x461BCD PUSH1 0xE5 SHL DUP2 MSTORE PUSH1 0x20 PUSH1 0x4 DUP3 ADD MSTORE PUSH1 0x17 PUSH1 0x24 DUP3 ADD MSTORE PUSH32 0x506F736974696F6E20646F6573206E6F74206578697374000000000000000000 PUSH1 0x44 DUP3 ADD MSTORE PUSH1 0x64 ADD PUSH2 0x998 JUMP JUMPDEST PUSH1 0x0 DUP3 DUP2 MSTORE PUSH2 0x198 PUSH1 0x20 SWAP1 DUP2 MSTORE PUSH1 0x40 DUP1 DUP4 KECCAK256 DUP2 MLOAD PUSH1 0xA0 DUP2 ADD DUP4 MSTORE DUP2 SLOAD PUSH1 0x1 PUSH1 0x1 PUSH1 0xA0 SHL SUB AND DUP2 MSTORE PUSH1 0x1 DUP3 ADD SLOAD SWAP4 DUP2 ADD SWAP4 SWAP1 SWAP4 MSTORE PUSH1 0x2 DUP2 ADD SLOAD SWAP2 DUP4 ADD DUP3 SWAP1 MSTORE PUSH1 0x3 DUP2 ADD SLOAD PUSH1 0x60 DUP5 ADD MSTORE PUSH1 0x4 ADD SLOAD PUSH1 0xFF AND ISZERO ISZERO PUSH1 0x80 DUP4 ADD MSTORE SWAP1 SWAP2 SWAP1 PUSH2 0x1F69 SWAP1 TIMESTAMP PUSH2 0x4213 JUMP JUMPDEST PUSH2 0x196 SLOAD DUP4 MLOAD PUSH1 0x40 MLOAD PUSH4 0xC4F9870B PUSH1 0xE0 SHL DUP2 MSTORE PUSH1 0x1 PUSH1 0x1 PUSH1 0xA0 SHL SUB SWAP2 DUP3 AND PUSH1 0x4 DUP3 ADD MSTORE SWAP3 SWAP4 POP PUSH1 0x0 SWAP3 SWAP2 AND SWAP1 PUSH4 0xC4F9870B SWAP1 PUSH1 0x24 ADD PUSH1 0x20 PUSH1 0x40 MLOAD DUP1 DUP4 SUB DUP2 DUP7 GAS STATICCALL ISZERO DUP1 ISZERO PUSH2 0x1FBB JUMPI RETURNDATASIZE PUSH1 0x0 DUP1 RETURNDATACOPY RETURNDATASIZE PUSH1 0x0 REVERT JUMPDEST POP POP POP POP PUSH1 0x40 MLOAD RETURNDATASIZE PUSH1 0x1F NOT PUSH1 0x1F DUP3 ADD AND DUP3 ADD DUP1 PUSH1 0x40 MSTORE POP DUP2 ADD SWAP1 PUSH2 0x1FDF SWAP2 SWAP1 PUSH2 0x4369 JUMP JUMPDEST SWAP1 POP PUSH4 0xBBF81E00 DUP3 DUP3 DUP6 PUSH1 0x20 ADD MLOAD PUSH2 0x1FF7 SWAP2 SWAP1 PUSH2 0x41DA JUMP JUMPDEST PUSH2 0x2001 SWAP2 SWAP1 PUSH2 0x41DA JUMP JUMPDEST PUSH2 0x200B SWAP2 SWAP1 PUSH2 0x41F1 JUMP JUMPDEST SWAP6 SWAP5 POP POP POP POP POP JUMP JUMPDEST PUSH1 0x0 SWAP2 DUP3 MSTORE PUSH1 0xC9 PUSH1 0x20 SWAP1 DUP2 MSTORE PUSH1 0x40 DUP1 DUP5 KECCAK256 PUSH1 0x1 PUSH1 0x1 PUSH1 0xA0 SHL SUB SWAP4 SWAP1 SWAP4 AND DUP5 MSTORE SWAP2 SWAP1 MSTORE SWAP1 KECCAK256 SLOAD PUSH1 0xFF AND SWAP1 JUMP JUMPDEST PUSH1 0x60 PUSH1 0x66 DUP1 SLOAD PUSH2 0x87A SWAP1 PUSH2 0x4021 JUMP JUMPDEST PUSH2 0xDDB CALLER DUP4 DUP4 PUSH2 0x3071 JUMP JUMPDEST PUSH2 0x2063 CALLER DUP4 PUSH2 0x28F2 JUMP JUMPDEST PUSH2 0x207F JUMPI PUSH1 0x40 MLOAD PUSH3 0x461BCD PUSH1 0xE5 SHL DUP2 MSTORE PUSH1 0x4 ADD PUSH2 0x998 SWAP1 PUSH2 0x405B JUMP JUMPDEST PUSH2 0x208B DUP5 DUP5 DUP5 DUP5 PUSH2 0x3137 JUMP JUMPDEST POP POP POP POP JUMP JUMPDEST PUSH1 0x60 PUSH2 0x209C DUP3 PUSH2 0x2825 JUMP JUMPDEST PUSH1 0x0 PUSH2 0x20B3 PUSH1 0x40 DUP1 MLOAD PUSH1 0x20 DUP2 ADD SWAP1 SWAP2 MSTORE PUSH1 0x0 DUP2 MSTORE SWAP1 JUMP JUMPDEST SWAP1 POP PUSH1 0x0 DUP2 MLOAD GT PUSH2 0x20D3 JUMPI PUSH1 0x40 MLOAD DUP1 PUSH1 0x20 ADD PUSH1 0x40 MSTORE DUP1 PUSH1 0x0 DUP2 MSTORE POP PUSH2 0x20FE JUMP JUMPDEST DUP1 PUSH2 0x20DD DUP5 PUSH2 0x316A JUMP JUMPDEST PUSH1 0x40 MLOAD PUSH1 0x20 ADD PUSH2 0x20EE SWAP3 SWAP2 SWAP1 PUSH2 0x451E JUMP JUMPDEST PUSH1 0x40 MLOAD PUSH1 0x20 DUP2 DUP4 SUB SUB DUP2 MSTORE SWAP1 PUSH1 0x40 MSTORE JUMPDEST SWAP4 SWAP3 POP POP POP JUMP JUMPDEST PUSH1 0x0 SLOAD PUSH2 0x100 SWAP1 DIV PUSH1 0xFF AND ISZERO DUP1 DUP1 ISZERO PUSH2 0x2125 JUMPI POP PUSH1 0x0 SLOAD PUSH1 0x1 PUSH1 0xFF SWAP1 SWAP2 AND LT JUMPDEST DUP1 PUSH2 0x213F JUMPI POP ADDRESS EXTCODESIZE ISZERO DUP1 ISZERO PUSH2 0x213F JUMPI POP PUSH1 0x0 SLOAD PUSH1 0xFF AND PUSH1 0x1 EQ JUMPDEST PUSH2 0x21A2 JUMPI PUSH1 0x40 MLOAD PUSH3 0x461BCD PUSH1 0xE5 SHL DUP2 MSTORE PUSH1 0x20 PUSH1 0x4 DUP3 ADD MSTORE PUSH1 0x2E PUSH1 0x24 DUP3 ADD MSTORE PUSH32 0x496E697469616C697A61626C653A20636F6E747261637420697320616C726561 PUSH1 0x44 DUP3 ADD MSTORE PUSH14 0x191E481A5B9A5D1A585B1A5E9959 PUSH1 0x92 SHL PUSH1 0x64 DUP3 ADD MSTORE PUSH1 0x84 ADD PUSH2 0x998 JUMP JUMPDEST PUSH1 0x0 DUP1 SLOAD PUSH1 0xFF NOT AND PUSH1 0x1 OR SWAP1 SSTORE DUP1 ISZERO PUSH2 0x21C5 JUMPI PUSH1 0x0 DUP1 SLOAD PUSH2 0xFF00 NOT AND PUSH2 0x100 OR SWAP1 SSTORE JUMPDEST PUSH2 0x2211 PUSH1 0x40 MLOAD DUP1 PUSH1 0x40 ADD PUSH1 0x40 MSTORE DUP1 PUSH1 0xB DUP2 MSTORE PUSH1 0x20 ADD PUSH11 0x161B595B9D1BD5985D5B1D PUSH1 0xAA SHL DUP2 MSTORE POP PUSH1 0x40 MLOAD DUP1 PUSH1 0x40 ADD PUSH1 0x40 MSTORE DUP1 PUSH1 0x7 DUP2 MSTORE PUSH1 0x20 ADD PUSH7 0x16135590555315 PUSH1 0xCA SHL DUP2 MSTORE POP PUSH2 0x31FD JUMP JUMPDEST PUSH2 0x2219 PUSH2 0x322E JUMP JUMPDEST PUSH2 0x2221 PUSH2 0x325D JUMP JUMPDEST PUSH2 0x2229 PUSH2 0x3284 JUMP JUMPDEST PUSH2 0x2231 PUSH2 0x325D JUMP JUMPDEST PUSH1 0x1 PUSH1 0x1 PUSH1 0xA0 SHL SUB DUP8 AND PUSH2 0x2287 JUMPI PUSH1 0x40 MLOAD PUSH3 0x461BCD PUSH1 0xE5 SHL DUP2 MSTORE PUSH1 0x20 PUSH1 0x4 DUP3 ADD MSTORE PUSH1 0x17 PUSH1 0x24 DUP3 ADD MSTORE PUSH32 0x496E76616C696420666163746F72792061646472657373000000000000000000 PUSH1 0x44 DUP3 ADD MSTORE PUSH1 0x64 ADD PUSH2 0x998 JUMP JUMPDEST PUSH1 0x1 PUSH1 0x1 PUSH1 0xA0 SHL SUB DUP7 AND PUSH2 0x22D4 JUMPI PUSH1 0x40 MLOAD PUSH3 0x461BCD PUSH1 0xE5 SHL DUP2 MSTORE PUSH1 0x20 PUSH1 0x4 DUP3 ADD MSTORE PUSH1 0x14 PUSH1 0x24 DUP3 ADD MSTORE PUSH20 0x496E76616C696420635553442061646472657373 PUSH1 0x60 SHL PUSH1 0x44 DUP3 ADD MSTORE PUSH1 0x64 ADD PUSH2 0x998 JUMP JUMPDEST PUSH1 0x1 PUSH1 0x1 PUSH1 0xA0 SHL SUB DUP6 AND PUSH2 0x2321 JUMPI PUSH1 0x40 MLOAD PUSH3 0x461BCD PUSH1 0xE5 SHL DUP2 MSTORE PUSH1 0x20 PUSH1 0x4 DUP3 ADD MSTORE PUSH1 0x14 PUSH1 0x24 DUP3 ADD MSTORE PUSH20 0x496E76616C696420634555522061646472657373 PUSH1 0x60 SHL PUSH1 0x44 DUP3 ADD MSTORE PUSH1 0x64 ADD PUSH2 0x998 JUMP JUMPDEST PUSH1 0x1 PUSH1 0x1 PUSH1 0xA0 SHL SUB DUP5 AND PUSH2 0x236F JUMPI PUSH1 0x40 MLOAD PUSH3 0x461BCD PUSH1 0xE5 SHL DUP2 MSTORE PUSH1 0x20 PUSH1 0x4 DUP3 ADD MSTORE PUSH1 0x15 PUSH1 0x24 DUP3 ADD MSTORE PUSH21 0x496E76616C696420635245414C2061646472657373 PUSH1 0x58 SHL PUSH1 0x44 DUP3 ADD MSTORE PUSH1 0x64 ADD PUSH2 0x998 JUMP JUMPDEST PUSH1 0x1 PUSH1 0x1 PUSH1 0xA0 SHL SUB DUP4 AND PUSH2 0x23BB JUMPI PUSH1 0x40 MLOAD PUSH3 0x461BCD PUSH1 0xE5 SHL DUP2 MSTORE PUSH1 0x20 PUSH1 0x4 DUP3 ADD MSTORE PUSH1 0x13 PUSH1 0x24 DUP3 ADD MSTORE PUSH19 0x496E76616C6964204445582061646472657373 PUSH1 0x68 SHL PUSH1 0x44 DUP3 ADD MSTORE PUSH1 0x64 ADD PUSH2 0x998 JUMP JUMPDEST PUSH1 0x1 PUSH1 0x1 PUSH1 0xA0 SHL SUB DUP3 AND PUSH2 0x240A JUMPI PUSH1 0x40 MLOAD PUSH3 0x461BCD PUSH1 0xE5 SHL DUP2 MSTORE PUSH1 0x20 PUSH1 0x4 DUP3 ADD MSTORE PUSH1 0x16 PUSH1 0x24 DUP3 ADD MSTORE PUSH22 0x496E76616C6964206F7261636C652061646472657373 PUSH1 0x50 SHL PUSH1 0x44 DUP3 ADD MSTORE PUSH1 0x64 ADD PUSH2 0x998 JUMP JUMPDEST PUSH2 0x2413 CALLER PUSH2 0x301F JUMP JUMPDEST PUSH2 0x191 DUP1 SLOAD PUSH1 0x1 PUSH1 0x1 PUSH1 0xA0 SHL SUB NOT SWAP1 DUP2 AND PUSH1 0x1 PUSH1 0x1 PUSH1 0xA0 SHL SUB DUP11 DUP2 AND SWAP2 SWAP1 SWAP2 OR SWAP1 SWAP3 SSTORE PUSH2 0x192 DUP1 SLOAD DUP3 AND DUP10 DUP5 AND OR SWAP1 SSTORE PUSH2 0x193 DUP1 SLOAD DUP3 AND DUP9 DUP5 AND OR SWAP1 SSTORE PUSH2 0x194 DUP1 SLOAD DUP3 AND DUP8 DUP5 AND OR SWAP1 SSTORE PUSH2 0x195 DUP1 SLOAD DUP3 AND DUP7 DUP5 AND OR SWAP1 SSTORE PUSH2 0x196 DUP1 SLOAD SWAP1 SWAP2 AND SWAP2 DUP5 AND SWAP2 SWAP1 SWAP2 OR SWAP1 SSTORE PUSH2 0x2486 PUSH1 0x0 DUP9 PUSH2 0x2ADF JUMP JUMPDEST PUSH1 0x1 PUSH2 0x197 SSTORE DUP1 ISZERO PUSH2 0x24D2 JUMPI PUSH1 0x0 DUP1 SLOAD PUSH2 0xFF00 NOT AND SWAP1 SSTORE PUSH1 0x40 MLOAD PUSH1 0x1 DUP2 MSTORE PUSH32 0x7F26B83FF96E1F2B6A682F133852F6798A09C465DA95921460CEFB3847402498 SWAP1 PUSH1 0x20 ADD PUSH1 0x40 MLOAD DUP1 SWAP2 SUB SWAP1 LOG1 JUMPDEST POP POP POP POP POP POP POP JUMP JUMPDEST PUSH1 0x0 DUP3 DUP2 MSTORE PUSH1 0xC9 PUSH1 0x20 MSTORE PUSH1 0x40 SWAP1 KECCAK256 PUSH1 0x1 ADD SLOAD PUSH2 0x24F6 DUP2 PUSH2 0x2AD5 JUMP JUMPDEST PUSH2 0xA39 DUP4 DUP4 PUSH2 0x2B65 JUMP JUMPDEST CALLER PUSH2 0x250A DUP3 PUSH2 0x1DAA JUMP JUMPDEST PUSH1 0x1 PUSH1 0x1 PUSH1 0xA0 SHL SUB AND EQ PUSH2 0x2530 JUMPI PUSH1 0x40 MLOAD PUSH3 0x461BCD PUSH1 0xE5 SHL DUP2 MSTORE PUSH1 0x4 ADD PUSH2 0x998 SWAP1 PUSH2 0x42BE JUMP JUMPDEST PUSH1 0x0 DUP2 DUP2 MSTORE PUSH2 0x198 PUSH1 0x20 SWAP1 DUP2 MSTORE PUSH1 0x40 SWAP2 DUP3 SWAP1 KECCAK256 DUP3 MLOAD PUSH1 0xA0 DUP2 ADD DUP5 MSTORE DUP2 SLOAD PUSH1 0x1 PUSH1 0x1 PUSH1 0xA0 SHL SUB AND DUP1 DUP3 MSTORE PUSH1 0x1 DUP4 ADD SLOAD SWAP4 DUP3 ADD DUP5 SWAP1 MSTORE PUSH1 0x2 DUP4 ADD SLOAD SWAP5 DUP3 ADD SWAP5 SWAP1 SWAP5 MSTORE PUSH1 0x3 DUP3 ADD SLOAD PUSH1 0x60 DUP3 ADD MSTORE PUSH1 0x4 SWAP1 SWAP2 ADD SLOAD PUSH1 0xFF AND ISZERO ISZERO PUSH1 0x80 DUP3 ADD MSTORE SWAP2 PUSH2 0x2596 SWAP2 CALLER SWAP1 PUSH2 0x2D3F JUMP JUMPDEST PUSH1 0x20 DUP1 DUP3 ADD MLOAD DUP3 MLOAD PUSH1 0x1 PUSH1 0x1 PUSH1 0xA0 SHL SUB AND PUSH1 0x0 SWAP1 DUP2 MSTORE PUSH2 0x199 SWAP1 SWAP3 MSTORE PUSH1 0x40 DUP3 KECCAK256 DUP1 SLOAD SWAP2 SWAP3 SWAP1 SWAP2 PUSH2 0x25C7 SWAP1 DUP5 SWAP1 PUSH2 0x4213 JUMP JUMPDEST SWAP1 SWAP2 SSTORE POP PUSH2 0x25D6 SWAP1 POP DUP3 PUSH2 0x32B3 JUMP JUMPDEST PUSH1 0x0 DUP3 DUP2 MSTORE PUSH2 0x198 PUSH1 0x20 SWAP1 DUP2 MSTORE PUSH1 0x40 DUP1 DUP4 KECCAK256 DUP1 SLOAD PUSH1 0x1 PUSH1 0x1 PUSH1 0xA0 SHL SUB NOT AND DUP2 SSTORE PUSH1 0x1 DUP2 ADD DUP5 SWAP1 SSTORE PUSH1 0x2 DUP2 ADD DUP5 SWAP1 SSTORE PUSH1 0x3 DUP2 ADD SWAP4 SWAP1 SWAP4 SSTORE PUSH1 0x4 SWAP1 SWAP3 ADD DUP1 SLOAD PUSH1 0xFF NOT AND SWAP1 SSTORE DUP3 MLOAD DUP4 DUP3 ADD MLOAD DUP4 MLOAD SWAP1 DUP2 MSTORE SWAP2 DUP3 ADD DUP6 SWAP1 MSTORE PUSH1 0x1 PUSH1 0x1 PUSH1 0xA0 SHL SUB AND SWAP2 CALLER SWAP2 PUSH32 0x91FB9D98B786C57D74C099CCD2BECA1739E9F6A81FB49001CA465C4B7591BBE2 SWAP2 ADD PUSH1 0x40 MLOAD DUP1 SWAP2 SUB SWAP1 LOG3 POP POP JUMP JUMPDEST PUSH2 0x266D PUSH2 0x2FC5 JUMP JUMPDEST PUSH1 0x1 PUSH1 0x1 PUSH1 0xA0 SHL SUB DUP2 AND PUSH2 0x26D2 JUMPI PUSH1 0x40 MLOAD PUSH3 0x461BCD PUSH1 0xE5 SHL DUP2 MSTORE PUSH1 0x20 PUSH1 0x4 DUP3 ADD MSTORE PUSH1 0x26 PUSH1 0x24 DUP3 ADD MSTORE PUSH32 0x4F776E61626C653A206E6577206F776E657220697320746865207A65726F2061 PUSH1 0x44 DUP3 ADD MSTORE PUSH6 0x646472657373 PUSH1 0xD0 SHL PUSH1 0x64 DUP3 ADD MSTORE PUSH1 0x84 ADD PUSH2 0x998 JUMP JUMPDEST PUSH2 0xEBB DUP2 PUSH2 0x301F JUMP JUMPDEST CALLER PUSH2 0x26E5 DUP3 PUSH2 0x1DAA JUMP JUMPDEST PUSH1 0x1 PUSH1 0x1 PUSH1 0xA0 SHL SUB AND EQ PUSH2 0x270B JUMPI PUSH1 0x40 MLOAD PUSH3 0x461BCD PUSH1 0xE5 SHL DUP2 MSTORE PUSH1 0x4 ADD PUSH2 0x998 SWAP1 PUSH2 0x42BE JUMP JUMPDEST PUSH1 0x0 DUP2 DUP2 MSTORE PUSH2 0x198 PUSH1 0x20 MSTORE PUSH1 0x40 DUP2 KECCAK256 DUP1 SLOAD PUSH1 0x1 DUP3 ADD SLOAD SWAP2 SWAP3 PUSH1 0x1 PUSH1 0x1 PUSH1 0xA0 SHL SUB SWAP1 SWAP2 AND SWAP2 SWAP1 PUSH2 0x2738 PUSH2 0xA94 JUMP JUMPDEST DUP1 MLOAD SWAP1 SWAP2 POP PUSH1 0x0 SWAP1 PUSH1 0x64 SWAP1 PUSH2 0x274D SWAP1 DUP6 PUSH2 0x41DA JUMP JUMPDEST PUSH2 0x2757 SWAP2 SWAP1 PUSH2 0x41F1 JUMP JUMPDEST PUSH1 0x1 DUP7 ADD DUP2 SWAP1 SSTORE TIMESTAMP PUSH1 0x2 DUP8 ADD SSTORE PUSH1 0x40 DUP1 MLOAD DUP6 DUP2 MSTORE PUSH1 0x20 DUP2 ADD DUP10 SWAP1 MSTORE SWAP2 SWAP3 POP PUSH1 0x1 PUSH1 0x1 PUSH1 0xA0 SHL SUB DUP7 AND SWAP2 CALLER SWAP2 PUSH32 0x91FB9D98B786C57D74C099CCD2BECA1739E9F6A81FB49001CA465C4B7591BBE2 SWAP2 ADD PUSH1 0x40 MLOAD DUP1 SWAP2 SUB SWAP1 LOG3 PUSH2 0x192 SLOAD PUSH1 0x40 DUP1 MLOAD DUP4 DUP2 MSTORE PUSH1 0x20 DUP2 ADD DUP10 SWAP1 MSTORE PUSH1 0x1 PUSH1 0x1 PUSH1 0xA0 SHL SUB SWAP1 SWAP3 AND SWAP2 CALLER SWAP2 PUSH32 0xF5681F9D0DB1B911AC18EE83D515A1CF1051853A9EAE418316A2FDF7DEA427C5 SWAP2 ADD PUSH1 0x40 MLOAD DUP1 SWAP2 SUB SWAP1 LOG3 POP POP POP POP POP POP JUMP JUMPDEST PUSH1 0x0 PUSH1 0x1 PUSH1 0x1 PUSH1 0xE0 SHL SUB NOT DUP3 AND PUSH4 0x7965DB0B PUSH1 0xE0 SHL EQ DUP1 PUSH2 0x865 JUMPI POP PUSH2 0x865 DUP3 PUSH2 0x3348 JUMP JUMPDEST PUSH1 0x0 DUP2 DUP2 MSTORE PUSH1 0x67 PUSH1 0x20 MSTORE PUSH1 0x40 SWAP1 KECCAK256 SLOAD PUSH1 0x1 PUSH1 0x1 PUSH1 0xA0 SHL SUB AND PUSH2 0xEBB JUMPI PUSH1 0x40 MLOAD PUSH3 0x461BCD PUSH1 0xE5 SHL DUP2 MSTORE PUSH1 0x20 PUSH1 0x4 DUP3 ADD MSTORE PUSH1 0x18 PUSH1 0x24 DUP3 ADD MSTORE PUSH24 0x115490CDCC8C4E881A5B9D985B1A59081D1BDAD95B881251 PUSH1 0x42 SHL PUSH1 0x44 DUP3 ADD MSTORE PUSH1 0x64 ADD PUSH2 0x998 JUMP JUMPDEST PUSH1 0x0 DUP2 DUP2 MSTORE PUSH1 0x69 PUSH1 0x20 MSTORE PUSH1 0x40 SWAP1 KECCAK256 DUP1 SLOAD PUSH1 0x1 PUSH1 0x1 PUSH1 0xA0 SHL SUB NOT AND PUSH1 0x1 PUSH1 0x1 PUSH1 0xA0 SHL SUB DUP5 AND SWAP1 DUP2 OR SWAP1 SWAP2 SSTORE DUP2 SWAP1 PUSH2 0x28B9 DUP3 PUSH2 0x1DAA JUMP JUMPDEST PUSH1 0x1 PUSH1 0x1 PUSH1 0xA0 SHL SUB AND PUSH32 0x8C5BE1E5EBEC7D5BD14F71427D1E84F3DD0314C0F7B2291E5B200AC8C7C3B925 PUSH1 0x40 MLOAD PUSH1 0x40 MLOAD DUP1 SWAP2 SUB SWAP1 LOG4 POP POP JUMP JUMPDEST PUSH1 0x0 DUP1 PUSH2 0x28FE DUP4 PUSH2 0x1DAA JUMP JUMPDEST SWAP1 POP DUP1 PUSH1 0x1 PUSH1 0x1 PUSH1 0xA0 SHL SUB AND DUP5 PUSH1 0x1 PUSH1 0x1 PUSH1 0xA0 SHL SUB AND EQ DUP1 PUSH2 0x2945 JUMPI POP PUSH1 0x1 PUSH1 0x1 PUSH1 0xA0 SHL SUB DUP1 DUP3 AND PUSH1 0x0 SWAP1 DUP2 MSTORE PUSH1 0x6A PUSH1 0x20 SWAP1 DUP2 MSTORE PUSH1 0x40 DUP1 DUP4 KECCAK256 SWAP4 DUP9 AND DUP4 MSTORE SWAP3 SWAP1 MSTORE KECCAK256 SLOAD PUSH1 0xFF AND JUMPDEST DUP1 PUSH2 0x2969 JUMPI POP DUP4 PUSH1 0x1 PUSH1 0x1 PUSH1 0xA0 SHL SUB AND PUSH2 0x295E DUP5 PUSH2 0x8FD JUMP JUMPDEST PUSH1 0x1 PUSH1 0x1 PUSH1 0xA0 SHL SUB AND EQ JUMPDEST SWAP5 SWAP4 POP POP POP POP JUMP JUMPDEST DUP3 PUSH1 0x1 PUSH1 0x1 PUSH1 0xA0 SHL SUB AND PUSH2 0x2984 DUP3 PUSH2 0x1DAA JUMP JUMPDEST PUSH1 0x1 PUSH1 0x1 PUSH1 0xA0 SHL SUB AND EQ PUSH2 0x29AA JUMPI PUSH1 0x40 MLOAD PUSH3 0x461BCD PUSH1 0xE5 SHL DUP2 MSTORE PUSH1 0x4 ADD PUSH2 0x998 SWAP1 PUSH2 0x454D JUMP JUMPDEST PUSH1 0x1 PUSH1 0x1 PUSH1 0xA0 SHL SUB DUP3 AND PUSH2 0x2A0C JUMPI PUSH1 0x40 MLOAD PUSH3 0x461BCD PUSH1 0xE5 SHL DUP2 MSTORE PUSH1 0x20 PUSH1 0x4 DUP3 ADD MSTORE PUSH1 0x24 DUP1 DUP3 ADD MSTORE PUSH32 0x4552433732313A207472616E7366657220746F20746865207A65726F20616464 PUSH1 0x44 DUP3 ADD MSTORE PUSH4 0x72657373 PUSH1 0xE0 SHL PUSH1 0x64 DUP3 ADD MSTORE PUSH1 0x84 ADD PUSH2 0x998 JUMP JUMPDEST DUP3 PUSH1 0x1 PUSH1 0x1 PUSH1 0xA0 SHL SUB AND PUSH2 0x2A1F DUP3 PUSH2 0x1DAA JUMP JUMPDEST PUSH1 0x1 PUSH1 0x1 PUSH1 0xA0 SHL SUB AND EQ PUSH2 0x2A45 JUMPI PUSH1 0x40 MLOAD PUSH3 0x461BCD PUSH1 0xE5 SHL DUP2 MSTORE PUSH1 0x4 ADD PUSH2 0x998 SWAP1 PUSH2 0x454D JUMP JUMPDEST PUSH1 0x0 DUP2 DUP2 MSTORE PUSH1 0x69 PUSH1 0x20 SWAP1 DUP2 MSTORE PUSH1 0x40 DUP1 DUP4 KECCAK256 DUP1 SLOAD PUSH1 0x1 PUSH1 0x1 PUSH1 0xA0 SHL SUB NOT SWAP1 DUP2 AND SWAP1 SWAP2 SSTORE PUSH1 0x1 PUSH1 0x1 PUSH1 0xA0 SHL SUB DUP8 DUP2 AND DUP1 DUP7 MSTORE PUSH1 0x68 DUP6 MSTORE DUP4 DUP7 KECCAK256 DUP1 SLOAD PUSH1 0x0 NOT ADD SWAP1 SSTORE SWAP1 DUP8 AND DUP1 DUP7 MSTORE DUP4 DUP7 KECCAK256 DUP1 SLOAD PUSH1 0x1 ADD SWAP1 SSTORE DUP7 DUP7 MSTORE PUSH1 0x67 SWAP1 SWAP5 MSTORE DUP3 DUP6 KECCAK256 DUP1 SLOAD SWAP1 SWAP3 AND DUP5 OR SWAP1 SWAP2 SSTORE SWAP1 MLOAD DUP5 SWAP4 PUSH32 0xDDF252AD1BE2C89B69C2B068FC378DAA952BA7F163C4A11628F55A4DF523B3EF SWAP2 LOG4 POP POP POP JUMP JUMPDEST PUSH2 0xEBB DUP2 CALLER PUSH2 0x3398 JUMP JUMPDEST PUSH2 0x2AE9 DUP3 DUP3 PUSH2 0x2014 JUMP JUMPDEST PUSH2 0xDDB JUMPI PUSH1 0x0 DUP3 DUP2 MSTORE PUSH1 0xC9 PUSH1 0x20 SWAP1 DUP2 MSTORE PUSH1 0x40 DUP1 DUP4 KECCAK256 PUSH1 0x1 PUSH1 0x1 PUSH1 0xA0 SHL SUB DUP6 AND DUP5 MSTORE SWAP1 SWAP2 MSTORE SWAP1 KECCAK256 DUP1 SLOAD PUSH1 0xFF NOT AND PUSH1 0x1 OR SWAP1 SSTORE PUSH2 0x2B21 CALLER SWAP1 JUMP JUMPDEST PUSH1 0x1 PUSH1 0x1 PUSH1 0xA0 SHL SUB AND DUP2 PUSH1 0x1 PUSH1 0x1 PUSH1 0xA0 SHL SUB AND DUP4 PUSH32 0x2F8788117E7EFF1D82E926EC794901D17C78024A50270940304540A733656F0D PUSH1 0x40 MLOAD PUSH1 0x40 MLOAD DUP1 SWAP2 SUB SWAP1 LOG4 POP POP JUMP JUMPDEST PUSH2 0x2B6F DUP3 DUP3 PUSH2 0x2014 JUMP JUMPDEST ISZERO PUSH2 0xDDB JUMPI PUSH1 0x0 DUP3 DUP2 MSTORE PUSH1 0xC9 PUSH1 0x20 SWAP1 DUP2 MSTORE PUSH1 0x40 DUP1 DUP4 KECCAK256 PUSH1 0x1 PUSH1 0x1 PUSH1 0xA0 SHL SUB DUP6 AND DUP1 DUP6 MSTORE SWAP3 MSTORE DUP1 DUP4 KECCAK256 DUP1 SLOAD PUSH1 0xFF NOT AND SWAP1 SSTORE MLOAD CALLER SWAP3 DUP6 SWAP2 PUSH32 0xF6391F5C32D9C69D2A47EA670B442974B53935D1EDC7FD64EB21E047A839171B SWAP2 SWAP1 LOG4 POP POP JUMP JUMPDEST PUSH2 0xEBB PUSH2 0x2FC5 JUMP JUMPDEST PUSH32 0x4910FDFA16FED3260ED0E7147F7CC6DA11A60208B5B9406D12A635614FFD9143 SLOAD PUSH1 0xFF AND ISZERO PUSH2 0x2C07 JUMPI PUSH2 0xA39 DUP4 PUSH2 0x33F1 JUMP JUMPDEST DUP3 PUSH1 0x1 PUSH1 0x1 PUSH1 0xA0 SHL SUB AND PUSH4 0x52D1902D PUSH1 0x40 MLOAD DUP2 PUSH4 0xFFFFFFFF AND PUSH1 0xE0 SHL DUP2 MSTORE PUSH1 0x4 ADD PUSH1 0x20 PUSH1 0x40 MLOAD DUP1 DUP4 SUB DUP2 DUP7 GAS STATICCALL SWAP3 POP POP POP DUP1 ISZERO PUSH2 0x2C61 JUMPI POP PUSH1 0x40 DUP1 MLOAD PUSH1 0x1F RETURNDATASIZE SWAP1 DUP2 ADD PUSH1 0x1F NOT AND DUP3 ADD SWAP1 SWAP3 MSTORE PUSH2 0x2C5E SWAP2 DUP2 ADD SWAP1 PUSH2 0x4369 JUMP JUMPDEST PUSH1 0x1 JUMPDEST PUSH2 0x2CC4 JUMPI PUSH1 0x40 MLOAD PUSH3 0x461BCD PUSH1 0xE5 SHL DUP2 MSTORE PUSH1 0x20 PUSH1 0x4 DUP3 ADD MSTORE PUSH1 0x2E PUSH1 0x24 DUP3 ADD MSTORE PUSH32 0x45524331393637557067726164653A206E657720696D706C656D656E74617469 PUSH1 0x44 DUP3 ADD MSTORE PUSH14 0x6F6E206973206E6F742055555053 PUSH1 0x90 SHL PUSH1 0x64 DUP3 ADD MSTORE PUSH1 0x84 ADD PUSH2 0x998 JUMP JUMPDEST PUSH1 0x0 DUP1 MLOAD PUSH1 0x20 PUSH2 0x4853 DUP4 CODECOPY DUP2 MLOAD SWAP2 MSTORE DUP2 EQ PUSH2 0x2D33 JUMPI PUSH1 0x40 MLOAD PUSH3 0x461BCD PUSH1 0xE5 SHL DUP2 MSTORE PUSH1 0x20 PUSH1 0x4 DUP3 ADD MSTORE PUSH1 0x29 PUSH1 0x24 DUP3 ADD MSTORE PUSH32 0x45524331393637557067726164653A20756E737570706F727465642070726F78 PUSH1 0x44 DUP3 ADD MSTORE PUSH9 0x1A58589B1955555251 PUSH1 0xBA SHL PUSH1 0x64 DUP3 ADD MSTORE PUSH1 0x84 ADD PUSH2 0x998 JUMP JUMPDEST POP PUSH2 0xA39 DUP4 DUP4 DUP4 PUSH2 0x348D JUMP JUMPDEST PUSH1 0x40 MLOAD PUSH1 0x1 PUSH1 0x1 PUSH1 0xA0 SHL SUB DUP4 AND PUSH1 0x24 DUP3 ADD MSTORE PUSH1 0x44 DUP2 ADD DUP3 SWAP1 MSTORE PUSH2 0xA39 SWAP1 DUP5 SWAP1 PUSH4 0xA9059CBB PUSH1 0xE0 SHL SWAP1 PUSH1 0x64 ADD JUMPDEST PUSH1 0x40 DUP1 MLOAD PUSH1 0x1F NOT DUP2 DUP5 SUB ADD DUP2 MSTORE SWAP2 SWAP1 MSTORE PUSH1 0x20 DUP2 ADD DUP1 MLOAD PUSH1 0x1 PUSH1 0x1 PUSH1 0xE0 SHL SUB AND PUSH1 0x1 PUSH1 0x1 PUSH1 0xE0 SHL SUB NOT SWAP1 SWAP4 AND SWAP3 SWAP1 SWAP3 OR SWAP1 SWAP2 MSTORE PUSH2 0x34B2 JUMP JUMPDEST PUSH1 0x2 PUSH1 0xFB SLOAD SUB PUSH2 0x2DF4 JUMPI PUSH1 0x40 MLOAD PUSH3 0x461BCD PUSH1 0xE5 SHL DUP2 MSTORE PUSH1 0x20 PUSH1 0x4 DUP3 ADD MSTORE PUSH1 0x1F PUSH1 0x24 DUP3 ADD MSTORE PUSH32 0x5265656E7472616E637947756172643A207265656E7472616E742063616C6C00 PUSH1 0x44 DUP3 ADD MSTORE PUSH1 0x64 ADD PUSH2 0x998 JUMP JUMPDEST PUSH1 0x2 PUSH1 0xFB SSTORE JUMP JUMPDEST PUSH1 0x40 MLOAD PUSH1 0x1 PUSH1 0x1 PUSH1 0xA0 SHL SUB DUP1 DUP6 AND PUSH1 0x24 DUP4 ADD MSTORE DUP4 AND PUSH1 0x44 DUP3 ADD MSTORE PUSH1 0x64 DUP2 ADD DUP3 SWAP1 MSTORE PUSH2 0x208B SWAP1 DUP6 SWAP1 PUSH4 0x23B872DD PUSH1 0xE0 SHL SWAP1 PUSH1 0x84 ADD PUSH2 0x2D6B JUMP JUMPDEST PUSH1 0x1 PUSH1 0x1 PUSH1 0xA0 SHL SUB DUP3 AND PUSH2 0x2E89 JUMPI PUSH1 0x40 MLOAD PUSH3 0x461BCD PUSH1 0xE5 SHL DUP2 MSTORE PUSH1 0x20 PUSH1 0x4 DUP3 ADD DUP2 SWAP1 MSTORE PUSH1 0x24 DUP3 ADD MSTORE PUSH32 0x4552433732313A206D696E7420746F20746865207A65726F2061646472657373 PUSH1 0x44 DUP3 ADD MSTORE PUSH1 0x64 ADD PUSH2 0x998 JUMP JUMPDEST PUSH1 0x0 DUP2 DUP2 MSTORE PUSH1 0x67 PUSH1 0x20 MSTORE PUSH1 0x40 SWAP1 KECCAK256 SLOAD PUSH1 0x1 PUSH1 0x1 PUSH1 0xA0 SHL SUB AND ISZERO PUSH2 0x2EEE JUMPI PUSH1 0x40 MLOAD PUSH3 0x461BCD PUSH1 0xE5 SHL DUP2 MSTORE PUSH1 0x20 PUSH1 0x4 DUP3 ADD MSTORE PUSH1 0x1C PUSH1 0x24 DUP3 ADD MSTORE PUSH32 0x4552433732313A20746F6B656E20616C7265616479206D696E74656400000000 PUSH1 0x44 DUP3 ADD MSTORE PUSH1 0x64 ADD PUSH2 0x998 JUMP JUMPDEST PUSH1 0x0 DUP2 DUP2 MSTORE PUSH1 0x67 PUSH1 0x20 MSTORE PUSH1 0x40 SWAP1 KECCAK256 SLOAD PUSH1 0x1 PUSH1 0x1 PUSH1 0xA0 SHL SUB AND ISZERO PUSH2 0x2F53 JUMPI PUSH1 0x40 MLOAD PUSH3 0x461BCD PUSH1 0xE5 SHL DUP2 MSTORE PUSH1 0x20 PUSH1 0x4 DUP3 ADD MSTORE PUSH1 0x1C PUSH1 0x24 DUP3 ADD MSTORE PUSH32 0x4552433732313A20746F6B656E20616C7265616479206D696E74656400000000 PUSH1 0x44 DUP3 ADD MSTORE PUSH1 0x64 ADD PUSH2 0x998 JUMP JUMPDEST PUSH1 0x1 PUSH1 0x1 PUSH1 0xA0 SHL SUB DUP3 AND PUSH1 0x0 DUP2 DUP2 MSTORE PUSH1 0x68 PUSH1 0x20 SWAP1 DUP2 MSTORE PUSH1 0x40 DUP1 DUP4 KECCAK256 DUP1 SLOAD PUSH1 0x1 ADD SWAP1 SSTORE DUP5 DUP4 MSTORE PUSH1 0x67 SWAP1 SWAP2 MSTORE DUP1 DUP3 KECCAK256 DUP1 SLOAD PUSH1 0x1 PUSH1 0x1 PUSH1 0xA0 SHL SUB NOT AND DUP5 OR SWAP1 SSTORE MLOAD DUP4 SWAP3 SWAP2 SWAP1 PUSH32 0xDDF252AD1BE2C89B69C2B068FC378DAA952BA7F163C4A11628F55A4DF523B3EF SWAP1 DUP3 SWAP1 LOG4 POP POP JUMP JUMPDEST PUSH1 0x1 PUSH1 0xFB SSTORE JUMP JUMPDEST PUSH1 0x97 SLOAD PUSH1 0x1 PUSH1 0x1 PUSH1 0xA0 SHL SUB AND CALLER EQ PUSH2 0x1EA2 JUMPI PUSH1 0x40 MLOAD PUSH3 0x461BCD PUSH1 0xE5 SHL DUP2 MSTORE PUSH1 0x20 PUSH1 0x4 DUP3 ADD DUP2 SWAP1 MSTORE PUSH1 0x24 DUP3 ADD MSTORE PUSH32 0x4F776E61626C653A2063616C6C6572206973206E6F7420746865206F776E6572 PUSH1 0x44 DUP3 ADD MSTORE PUSH1 0x64 ADD PUSH2 0x998 JUMP JUMPDEST PUSH1 0x97 DUP1 SLOAD PUSH1 0x1 PUSH1 0x1 PUSH1 0xA0 SHL SUB DUP4 DUP2 AND PUSH1 0x1 PUSH1 0x1 PUSH1 0xA0 SHL SUB NOT DUP4 AND DUP2 OR SWAP1 SWAP4 SSTORE PUSH1 0x40 MLOAD SWAP2 AND SWAP2 SWAP1 DUP3 SWAP1 PUSH32 0x8BE0079C531659141344CD1FD0A4F28419497F9722A3DAAFE3B4186F6B6457E0 SWAP1 PUSH1 0x0 SWAP1 LOG3 POP POP JUMP JUMPDEST DUP2 PUSH1 0x1 PUSH1 0x1 PUSH1 0xA0 SHL SUB AND DUP4 PUSH1 0x1 PUSH1 0x1 PUSH1 0xA0 SHL SUB AND SUB PUSH2 0x30D2 JUMPI PUSH1 0x40 MLOAD PUSH3 0x461BCD PUSH1 0xE5 SHL DUP2 MSTORE PUSH1 0x20 PUSH1 0x4 DUP3 ADD MSTORE PUSH1 0x19 PUSH1 0x24 DUP3 ADD MSTORE PUSH32 0x4552433732313A20617070726F766520746F2063616C6C657200000000000000 PUSH1 0x44 DUP3 ADD MSTORE PUSH1 0x64 ADD PUSH2 0x998 JUMP JUMPDEST PUSH1 0x1 PUSH1 0x1 PUSH1 0xA0 SHL SUB DUP4 DUP2 AND PUSH1 0x0 DUP2 DUP2 MSTORE PUSH1 0x6A PUSH1 0x20 SWAP1 DUP2 MSTORE PUSH1 0x40 DUP1 DUP4 KECCAK256 SWAP5 DUP8 AND DUP1 DUP5 MSTORE SWAP5 DUP3 MSTORE SWAP2 DUP3 SWAP1 KECCAK256 DUP1 SLOAD PUSH1 0xFF NOT AND DUP7 ISZERO ISZERO SWAP1 DUP2 OR SWAP1 SWAP2 SSTORE SWAP2 MLOAD SWAP2 DUP3 MSTORE PUSH32 0x17307EAB39AB6107E8899845AD3D59BD9653F200F220920489CA2B5937696C31 SWAP2 ADD PUSH2 0xFDA JUMP JUMPDEST PUSH2 0x3142 DUP5 DUP5 DUP5 PUSH2 0x2971 JUMP JUMPDEST PUSH2 0x314E DUP5 DUP5 DUP5 DUP5 PUSH2 0x3587 JUMP JUMPDEST PUSH2 0x208B JUMPI PUSH1 0x40 MLOAD PUSH3 0x461BCD PUSH1 0xE5 SHL DUP2 MSTORE PUSH1 0x4 ADD PUSH2 0x998 SWAP1 PUSH2 0x4592 JUMP JUMPDEST PUSH1 0x60 PUSH1 0x0 PUSH2 0x3177 DUP4 PUSH2 0x3688 JUMP JUMPDEST PUSH1 0x1 ADD SWAP1 POP PUSH1 0x0 DUP2 PUSH8 0xFFFFFFFFFFFFFFFF DUP2 GT ISZERO PUSH2 0x3197 JUMPI PUSH2 0x3197 PUSH2 0x3DD1 JUMP JUMPDEST PUSH1 0x40 MLOAD SWAP1 DUP1 DUP3 MSTORE DUP1 PUSH1 0x1F ADD PUSH1 0x1F NOT AND PUSH1 0x20 ADD DUP3 ADD PUSH1 0x40 MSTORE DUP1 ISZERO PUSH2 0x31C1 JUMPI PUSH1 0x20 DUP3 ADD DUP2 DUP1 CALLDATASIZE DUP4 CALLDATACOPY ADD SWAP1 POP JUMPDEST POP SWAP1 POP DUP2 DUP2 ADD PUSH1 0x20 ADD JUMPDEST PUSH1 0x0 NOT ADD PUSH16 0x181899199A1A9B1B9C1CB0B131B232B3 PUSH1 0x81 SHL PUSH1 0xA DUP7 MOD BYTE DUP2 MSTORE8 PUSH1 0xA DUP6 DIV SWAP5 POP DUP5 PUSH2 0x31CB JUMPI POP SWAP4 SWAP3 POP POP POP JUMP JUMPDEST PUSH1 0x0 SLOAD PUSH2 0x100 SWAP1 DIV PUSH1 0xFF AND PUSH2 0x3224 JUMPI PUSH1 0x40 MLOAD PUSH3 0x461BCD PUSH1 0xE5 SHL DUP2 MSTORE PUSH1 0x4 ADD PUSH2 0x998 SWAP1 PUSH2 0x45E4 JUMP JUMPDEST PUSH2 0xDDB DUP3 DUP3 PUSH2 0x3760 JUMP JUMPDEST PUSH1 0x0 SLOAD PUSH2 0x100 SWAP1 DIV PUSH1 0xFF AND PUSH2 0x3255 JUMPI PUSH1 0x40 MLOAD PUSH3 0x461BCD PUSH1 0xE5 SHL DUP2 MSTORE PUSH1 0x4 ADD PUSH2 0x998 SWAP1 PUSH2 0x45E4 JUMP JUMPDEST PUSH2 0x1EA2 PUSH2 0x37A0 JUMP JUMPDEST PUSH1 0x0 SLOAD PUSH2 0x100 SWAP1 DIV PUSH1 0xFF AND PUSH2 0x1EA2 JUMPI PUSH1 0x40 MLOAD PUSH3 0x461BCD PUSH1 0xE5 SHL DUP2 MSTORE PUSH1 0x4 ADD PUSH2 0x998 SWAP1 PUSH2 0x45E4 JUMP JUMPDEST PUSH1 0x0 SLOAD PUSH2 0x100 SWAP1 DIV PUSH1 0xFF AND PUSH2 0x32AB JUMPI PUSH1 0x40 MLOAD PUSH3 0x461BCD PUSH1 0xE5 SHL DUP2 MSTORE PUSH1 0x4 ADD PUSH2 0x998 SWAP1 PUSH2 0x45E4 JUMP JUMPDEST PUSH2 0x1EA2 PUSH2 0x37D0 JUMP JUMPDEST PUSH1 0x0 PUSH2 0x32BE DUP3 PUSH2 0x1DAA JUMP JUMPDEST SWAP1 POP PUSH2 0x32C9 DUP3 PUSH2 0x1DAA JUMP JUMPDEST PUSH1 0x0 DUP4 DUP2 MSTORE PUSH1 0x69 PUSH1 0x20 SWAP1 DUP2 MSTORE PUSH1 0x40 DUP1 DUP4 KECCAK256 DUP1 SLOAD PUSH1 0x1 PUSH1 0x1 PUSH1 0xA0 SHL SUB NOT SWAP1 DUP2 AND SWAP1 SWAP2 SSTORE PUSH1 0x1 PUSH1 0x1 PUSH1 0xA0 SHL SUB DUP6 AND DUP1 DUP6 MSTORE PUSH1 0x68 DUP5 MSTORE DUP3 DUP6 KECCAK256 DUP1 SLOAD PUSH1 0x0 NOT ADD SWAP1 SSTORE DUP8 DUP6 MSTORE PUSH1 0x67 SWAP1 SWAP4 MSTORE DUP2 DUP5 KECCAK256 DUP1 SLOAD SWAP1 SWAP2 AND SWAP1 SSTORE MLOAD SWAP3 SWAP4 POP DUP5 SWAP3 PUSH32 0xDDF252AD1BE2C89B69C2B068FC378DAA952BA7F163C4A11628F55A4DF523B3EF SWAP1 DUP4 SWAP1 LOG4 POP POP JUMP JUMPDEST PUSH1 0x0 PUSH1 0x1 PUSH1 0x1 PUSH1 0xE0 SHL SUB NOT DUP3 AND PUSH4 0x80AC58CD PUSH1 0xE0 SHL EQ DUP1 PUSH2 0x3379 JUMPI POP PUSH1 0x1 PUSH1 0x1 PUSH1 0xE0 SHL SUB NOT DUP3 AND PUSH4 0x5B5E139F PUSH1 0xE0 SHL EQ JUMPDEST DUP1 PUSH2 0x865 JUMPI POP PUSH4 0x1FFC9A7 PUSH1 0xE0 SHL PUSH1 0x1 PUSH1 0x1 PUSH1 0xE0 SHL SUB NOT DUP4 AND EQ PUSH2 0x865 JUMP JUMPDEST PUSH2 0x33A2 DUP3 DUP3 PUSH2 0x2014 JUMP JUMPDEST PUSH2 0xDDB JUMPI PUSH2 0x33AF DUP2 PUSH2 0x37F7 JUMP JUMPDEST PUSH2 0x33BA DUP4 PUSH1 0x20 PUSH2 0x3809 JUMP JUMPDEST PUSH1 0x40 MLOAD PUSH1 0x20 ADD PUSH2 0x33CB SWAP3 SWAP2 SWAP1 PUSH2 0x462F JUMP JUMPDEST PUSH1 0x40 DUP1 MLOAD PUSH1 0x1F NOT DUP2 DUP5 SUB ADD DUP2 MSTORE SWAP1 DUP3 SWAP1 MSTORE PUSH3 0x461BCD PUSH1 0xE5 SHL DUP3 MSTORE PUSH2 0x998 SWAP2 PUSH1 0x4 ADD PUSH2 0x3CAB JUMP JUMPDEST PUSH1 0x1 PUSH1 0x1 PUSH1 0xA0 SHL SUB DUP2 AND EXTCODESIZE PUSH2 0x345E JUMPI PUSH1 0x40 MLOAD PUSH3 0x461BCD PUSH1 0xE5 SHL DUP2 MSTORE PUSH1 0x20 PUSH1 0x4 DUP3 ADD MSTORE PUSH1 0x2D PUSH1 0x24 DUP3 ADD MSTORE PUSH32 0x455243313936373A206E657720696D706C656D656E746174696F6E206973206E PUSH1 0x44 DUP3 ADD MSTORE PUSH13 0x1BDD08184818DBDB9D1C9858DD PUSH1 0x9A SHL PUSH1 0x64 DUP3 ADD MSTORE PUSH1 0x84 ADD PUSH2 0x998 JUMP JUMPDEST PUSH1 0x0 DUP1 MLOAD PUSH1 0x20 PUSH2 0x4853 DUP4 CODECOPY DUP2 MLOAD SWAP2 MSTORE DUP1 SLOAD PUSH1 0x1 PUSH1 0x1 PUSH1 0xA0 SHL SUB NOT AND PUSH1 0x1 PUSH1 0x1 PUSH1 0xA0 SHL SUB SWAP3 SWAP1 SWAP3 AND SWAP2 SWAP1 SWAP2 OR SWAP1 SSTORE JUMP JUMPDEST PUSH2 0x3496 DUP4 PUSH2 0x39A5 JUMP JUMPDEST PUSH1 0x0 DUP3 MLOAD GT DUP1 PUSH2 0x34A3 JUMPI POP DUP1 JUMPDEST ISZERO PUSH2 0xA39 JUMPI PUSH2 0x208B DUP4 DUP4 PUSH2 0x39E5 JUMP JUMPDEST PUSH1 0x0 PUSH2 0x3507 DUP3 PUSH1 0x40 MLOAD DUP1 PUSH1 0x40 ADD PUSH1 0x40 MSTORE DUP1 PUSH1 0x20 DUP2 MSTORE PUSH1 0x20 ADD PUSH32 0x5361666545524332303A206C6F772D6C6576656C2063616C6C206661696C6564 DUP2 MSTORE POP DUP6 PUSH1 0x1 PUSH1 0x1 PUSH1 0xA0 SHL SUB AND PUSH2 0x3A0A SWAP1 SWAP3 SWAP2 SWAP1 PUSH4 0xFFFFFFFF AND JUMP JUMPDEST SWAP1 POP DUP1 MLOAD PUSH1 0x0 EQ DUP1 PUSH2 0x3528 JUMPI POP DUP1 DUP1 PUSH1 0x20 ADD SWAP1 MLOAD DUP2 ADD SWAP1 PUSH2 0x3528 SWAP2 SWAP1 PUSH2 0x46A4 JUMP JUMPDEST PUSH2 0xA39 JUMPI PUSH1 0x40 MLOAD PUSH3 0x461BCD PUSH1 0xE5 SHL DUP2 MSTORE PUSH1 0x20 PUSH1 0x4 DUP3 ADD MSTORE PUSH1 0x2A PUSH1 0x24 DUP3 ADD MSTORE PUSH32 0x5361666545524332303A204552433230206F7065726174696F6E20646964206E PUSH1 0x44 DUP3 ADD MSTORE PUSH10 0x1BDD081CDD58D8D95959 PUSH1 0xB2 SHL PUSH1 0x64 DUP3 ADD MSTORE PUSH1 0x84 ADD PUSH2 0x998 JUMP JUMPDEST PUSH1 0x0 PUSH1 0x1 PUSH1 0x1 PUSH1 0xA0 SHL SUB DUP5 AND EXTCODESIZE ISZERO PUSH2 0x367D JUMPI PUSH1 0x40 MLOAD PUSH4 0xA85BD01 PUSH1 0xE1 SHL DUP2 MSTORE PUSH1 0x1 PUSH1 0x1 PUSH1 0xA0 SHL SUB DUP6 AND SWAP1 PUSH4 0x150B7A02 SWAP1 PUSH2 0x35CB SWAP1 CALLER SWAP1 DUP10 SWAP1 DUP9 SWAP1 DUP9 SWAP1 PUSH1 0x4 ADD PUSH2 0x46C1 JUMP JUMPDEST PUSH1 0x20 PUSH1 0x40 MLOAD DUP1 DUP4 SUB DUP2 PUSH1 0x0 DUP8 GAS CALL SWAP3 POP POP POP DUP1 ISZERO PUSH2 0x3606 JUMPI POP PUSH1 0x40 DUP1 MLOAD PUSH1 0x1F RETURNDATASIZE SWAP1 DUP2 ADD PUSH1 0x1F NOT AND DUP3 ADD SWAP1 SWAP3 MSTORE PUSH2 0x3603 SWAP2 DUP2 ADD SWAP1 PUSH2 0x46F4 JUMP JUMPDEST PUSH1 0x1 JUMPDEST PUSH2 0x3663 JUMPI RETURNDATASIZE DUP1 DUP1 ISZERO PUSH2 0x3634 JUMPI PUSH1 0x40 MLOAD SWAP2 POP PUSH1 0x1F NOT PUSH1 0x3F RETURNDATASIZE ADD AND DUP3 ADD PUSH1 0x40 MSTORE RETURNDATASIZE DUP3 MSTORE RETURNDATASIZE PUSH1 0x0 PUSH1 0x20 DUP5 ADD RETURNDATACOPY PUSH2 0x3639 JUMP JUMPDEST PUSH1 0x60 SWAP2 POP JUMPDEST POP DUP1 MLOAD PUSH1 0x0 SUB PUSH2 0x365B JUMPI PUSH1 0x40 MLOAD PUSH3 0x461BCD PUSH1 0xE5 SHL DUP2 MSTORE PUSH1 0x4 ADD PUSH2 0x998 SWAP1 PUSH2 0x4592 JUMP JUMPDEST DUP1 MLOAD DUP2 PUSH1 0x20 ADD REVERT JUMPDEST PUSH1 0x1 PUSH1 0x1 PUSH1 0xE0 SHL SUB NOT AND PUSH4 0xA85BD01 PUSH1 0xE1 SHL EQ SWAP1 POP PUSH2 0x2969 JUMP JUMPDEST POP PUSH1 0x1 SWAP5 SWAP4 POP POP POP POP JUMP JUMPDEST PUSH1 0x0 DUP1 PUSH19 0x184F03E93FF9F4DAA797ED6E38ED64BF6A1F01 PUSH1 0x40 SHL DUP4 LT PUSH2 0x36C7 JUMPI PUSH19 0x184F03E93FF9F4DAA797ED6E38ED64BF6A1F01 PUSH1 0x40 SHL DUP4 DIV SWAP3 POP PUSH1 0x40 ADD JUMPDEST PUSH14 0x4EE2D6D415B85ACEF8100000000 DUP4 LT PUSH2 0x36F3 JUMPI PUSH14 0x4EE2D6D415B85ACEF8100000000 DUP4 DIV SWAP3 POP PUSH1 0x20 ADD JUMPDEST PUSH7 0x2386F26FC10000 DUP4 LT PUSH2 0x3711 JUMPI PUSH7 0x2386F26FC10000 DUP4 DIV SWAP3 POP PUSH1 0x10 ADD JUMPDEST PUSH4 0x5F5E100 DUP4 LT PUSH2 0x3729 JUMPI PUSH4 0x5F5E100 DUP4 DIV SWAP3 POP PUSH1 0x8 ADD JUMPDEST PUSH2 0x2710 DUP4 LT PUSH2 0x373D JUMPI PUSH2 0x2710 DUP4 DIV SWAP3 POP PUSH1 0x4 ADD JUMPDEST PUSH1 0x64 DUP4 LT PUSH2 0x374F JUMPI PUSH1 0x64 DUP4 DIV SWAP3 POP PUSH1 0x2 ADD JUMPDEST PUSH1 0xA DUP4 LT PUSH2 0x865 JUMPI PUSH1 0x1 ADD SWAP3 SWAP2 POP POP JUMP JUMPDEST PUSH1 0x0 SLOAD PUSH2 0x100 SWAP1 DIV PUSH1 0xFF AND PUSH2 0x3787 JUMPI PUSH1 0x40 MLOAD PUSH3 0x461BCD PUSH1 0xE5 SHL DUP2 MSTORE PUSH1 0x4 ADD PUSH2 0x998 SWAP1 PUSH2 0x45E4 JUMP JUMPDEST PUSH1 0x65 PUSH2 0x3793 DUP4 DUP3 PUSH2 0x475F JUMP JUMPDEST POP PUSH1 0x66 PUSH2 0xA39 DUP3 DUP3 PUSH2 0x475F JUMP JUMPDEST PUSH1 0x0 SLOAD PUSH2 0x100 SWAP1 DIV PUSH1 0xFF AND PUSH2 0x37C7 JUMPI PUSH1 0x40 MLOAD PUSH3 0x461BCD PUSH1 0xE5 SHL DUP2 MSTORE PUSH1 0x4 ADD PUSH2 0x998 SWAP1 PUSH2 0x45E4 JUMP JUMPDEST PUSH2 0x1EA2 CALLER PUSH2 0x301F JUMP JUMPDEST PUSH1 0x0 SLOAD PUSH2 0x100 SWAP1 DIV PUSH1 0xFF AND PUSH2 0x2FBE JUMPI PUSH1 0x40 MLOAD PUSH3 0x461BCD PUSH1 0xE5 SHL DUP2 MSTORE PUSH1 0x4 ADD PUSH2 0x998 SWAP1 PUSH2 0x45E4 JUMP JUMPDEST PUSH1 0x60 PUSH2 0x865 PUSH1 0x1 PUSH1 0x1 PUSH1 0xA0 SHL SUB DUP4 AND PUSH1 0x14 JUMPDEST PUSH1 0x60 PUSH1 0x0 PUSH2 0x3818 DUP4 PUSH1 0x2 PUSH2 0x41DA JUMP JUMPDEST PUSH2 0x3823 SWAP1 PUSH1 0x2 PUSH2 0x41C7 JUMP JUMPDEST PUSH8 0xFFFFFFFFFFFFFFFF DUP2 GT ISZERO PUSH2 0x383B JUMPI PUSH2 0x383B PUSH2 0x3DD1 JUMP JUMPDEST PUSH1 0x40 MLOAD SWAP1 DUP1 DUP3 MSTORE DUP1 PUSH1 0x1F ADD PUSH1 0x1F NOT AND PUSH1 0x20 ADD DUP3 ADD PUSH1 0x40 MSTORE DUP1 ISZERO PUSH2 0x3865 JUMPI PUSH1 0x20 DUP3 ADD DUP2 DUP1 CALLDATASIZE DUP4 CALLDATACOPY ADD SWAP1 POP JUMPDEST POP SWAP1 POP PUSH1 0x3 PUSH1 0xFC SHL DUP2 PUSH1 0x0 DUP2 MLOAD DUP2 LT PUSH2 0x3880 JUMPI PUSH2 0x3880 PUSH2 0x40A8 JUMP JUMPDEST PUSH1 0x20 ADD ADD SWAP1 PUSH1 0x1 PUSH1 0x1 PUSH1 0xF8 SHL SUB NOT AND SWAP1 DUP2 PUSH1 0x0 BYTE SWAP1 MSTORE8 POP PUSH1 0xF PUSH1 0xFB SHL DUP2 PUSH1 0x1 DUP2 MLOAD DUP2 LT PUSH2 0x38AF JUMPI PUSH2 0x38AF PUSH2 0x40A8 JUMP JUMPDEST PUSH1 0x20 ADD ADD SWAP1 PUSH1 0x1 PUSH1 0x1 PUSH1 0xF8 SHL SUB NOT AND SWAP1 DUP2 PUSH1 0x0 BYTE SWAP1 MSTORE8 POP PUSH1 0x0 PUSH2 0x38D3 DUP5 PUSH1 0x2 PUSH2 0x41DA JUMP JUMPDEST PUSH2 0x38DE SWAP1 PUSH1 0x1 PUSH2 0x41C7 JUMP JUMPDEST SWAP1 POP JUMPDEST PUSH1 0x1 DUP2 GT ISZERO PUSH2 0x3956 JUMPI PUSH16 0x181899199A1A9B1B9C1CB0B131B232B3 PUSH1 0x81 SHL DUP6 PUSH1 0xF AND PUSH1 0x10 DUP2 LT PUSH2 0x3912 JUMPI PUSH2 0x3912 PUSH2 0x40A8 JUMP JUMPDEST BYTE PUSH1 0xF8 SHL DUP3 DUP3 DUP2 MLOAD DUP2 LT PUSH2 0x3928 JUMPI PUSH2 0x3928 PUSH2 0x40A8 JUMP JUMPDEST PUSH1 0x20 ADD ADD SWAP1 PUSH1 0x1 PUSH1 0x1 PUSH1 0xF8 SHL SUB NOT AND SWAP1 DUP2 PUSH1 0x0 BYTE SWAP1 MSTORE8 POP PUSH1 0x4 SWAP5 SWAP1 SWAP5 SHR SWAP4 PUSH2 0x394F DUP2 PUSH2 0x481F JUMP JUMPDEST SWAP1 POP PUSH2 0x38E1 JUMP JUMPDEST POP DUP4 ISZERO PUSH2 0x20FE JUMPI PUSH1 0x40 MLOAD PUSH3 0x461BCD PUSH1 0xE5 SHL DUP2 MSTORE PUSH1 0x20 PUSH1 0x4 DUP3 ADD DUP2 SWAP1 MSTORE PUSH1 0x24 DUP3 ADD MSTORE PUSH32 0x537472696E67733A20686578206C656E67746820696E73756666696369656E74 PUSH1 0x44 DUP3 ADD MSTORE PUSH1 0x64 ADD PUSH2 0x998 JUMP JUMPDEST PUSH2 0x39AE DUP2 PUSH2 0x33F1 JUMP JUMPDEST PUSH1 0x40 MLOAD PUSH1 0x1 PUSH1 0x1 PUSH1 0xA0 SHL SUB DUP3 AND SWAP1 PUSH32 0xBC7CD75A20EE27FD9ADEBAB32041F755214DBC6BFFA90CC0225B39DA2E5C2D3B SWAP1 PUSH1 0x0 SWAP1 LOG2 POP JUMP JUMPDEST PUSH1 0x60 PUSH2 0x20FE DUP4 DUP4 PUSH1 0x40 MLOAD DUP1 PUSH1 0x60 ADD PUSH1 0x40 MSTORE DUP1 PUSH1 0x27 DUP2 MSTORE PUSH1 0x20 ADD PUSH2 0x4873 PUSH1 0x27 SWAP2 CODECOPY PUSH2 0x3A19 JUMP JUMPDEST PUSH1 0x60 PUSH2 0x2969 DUP5 DUP5 PUSH1 0x0 DUP6 PUSH2 0x3A91 JUMP JUMPDEST PUSH1 0x60 PUSH1 0x0 DUP1 DUP6 PUSH1 0x1 PUSH1 0x1 PUSH1 0xA0 SHL SUB AND DUP6 PUSH1 0x40 MLOAD PUSH2 0x3A36 SWAP2 SWAP1 PUSH2 0x4836 JUMP JUMPDEST PUSH1 0x0 PUSH1 0x40 MLOAD DUP1 DUP4 SUB DUP2 DUP6 GAS DELEGATECALL SWAP2 POP POP RETURNDATASIZE DUP1 PUSH1 0x0 DUP2 EQ PUSH2 0x3A71 JUMPI PUSH1 0x40 MLOAD SWAP2 POP PUSH1 0x1F NOT PUSH1 0x3F RETURNDATASIZE ADD AND DUP3 ADD PUSH1 0x40 MSTORE RETURNDATASIZE DUP3 MSTORE RETURNDATASIZE PUSH1 0x0 PUSH1 0x20 DUP5 ADD RETURNDATACOPY PUSH2 0x3A76 JUMP JUMPDEST PUSH1 0x60 SWAP2 POP JUMPDEST POP SWAP2 POP SWAP2 POP PUSH2 0x3A87 DUP7 DUP4 DUP4 DUP8 PUSH2 0x3B6C JUMP JUMPDEST SWAP7 SWAP6 POP POP POP POP POP POP JUMP JUMPDEST PUSH1 0x60 DUP3 SELFBALANCE LT ISZERO PUSH2 0x3AF2 JUMPI PUSH1 0x40 MLOAD PUSH3 0x461BCD PUSH1 0xE5 SHL DUP2 MSTORE PUSH1 0x20 PUSH1 0x4 DUP3 ADD MSTORE PUSH1 0x26 PUSH1 0x24 DUP3 ADD MSTORE PUSH32 0x416464726573733A20696E73756666696369656E742062616C616E636520666F PUSH1 0x44 DUP3 ADD MSTORE PUSH6 0x1C8818D85B1B PUSH1 0xD2 SHL PUSH1 0x64 DUP3 ADD MSTORE PUSH1 0x84 ADD PUSH2 0x998 JUMP JUMPDEST PUSH1 0x0 DUP1 DUP7 PUSH1 0x1 PUSH1 0x1 PUSH1 0xA0 SHL SUB AND DUP6 DUP8 PUSH1 0x40 MLOAD PUSH2 0x3B0E SWAP2 SWAP1 PUSH2 0x4836 JUMP JUMPDEST PUSH1 0x0 PUSH1 0x40 MLOAD DUP1 DUP4 SUB DUP2 DUP6 DUP8 GAS CALL SWAP3 POP POP POP RETURNDATASIZE DUP1 PUSH1 0x0 DUP2 EQ PUSH2 0x3B4B JUMPI PUSH1 0x40 MLOAD SWAP2 POP PUSH1 0x1F NOT PUSH1 0x3F RETURNDATASIZE ADD AND DUP3 ADD PUSH1 0x40 MSTORE RETURNDATASIZE DUP3 MSTORE RETURNDATASIZE PUSH1 0x0 PUSH1 0x20 DUP5 ADD RETURNDATACOPY PUSH2 0x3B50 JUMP JUMPDEST PUSH1 0x60 SWAP2 POP JUMPDEST POP SWAP2 POP SWAP2 POP PUSH2 0x3B61 DUP8 DUP4 DUP4 DUP8 PUSH2 0x3B6C JUMP JUMPDEST SWAP8 SWAP7 POP POP POP POP POP POP POP JUMP JUMPDEST PUSH1 0x60 DUP4 ISZERO PUSH2 0x3BDB JUMPI DUP3 MLOAD PUSH1 0x0 SUB PUSH2 0x3BD4 JUMPI PUSH1 0x1 PUSH1 0x1 PUSH1 0xA0 SHL SUB DUP6 AND EXTCODESIZE PUSH2 0x3BD4 JUMPI PUSH1 0x40 MLOAD PUSH3 0x461BCD PUSH1 0xE5 SHL DUP2 MSTORE PUSH1 0x20 PUSH1 0x4 DUP3 ADD MSTORE PUSH1 0x1D PUSH1 0x24 DUP3 ADD MSTORE PUSH32 0x416464726573733A2063616C6C20746F206E6F6E2D636F6E7472616374000000 PUSH1 0x44 DUP3 ADD MSTORE PUSH1 0x64 ADD PUSH2 0x998 JUMP JUMPDEST POP DUP2 PUSH2 0x2969 JUMP JUMPDEST PUSH2 0x2969 DUP4 DUP4 DUP2 MLOAD ISZERO PUSH2 0x3BF0 JUMPI DUP2 MLOAD DUP1 DUP4 PUSH1 0x20 ADD REVERT JUMPDEST DUP1 PUSH1 0x40 MLOAD PUSH3 0x461BCD PUSH1 0xE5 SHL DUP2 MSTORE PUSH1 0x4 ADD PUSH2 0x998 SWAP2 SWAP1 PUSH2 0x3CAB JUMP JUMPDEST PUSH1 0x40 MLOAD DUP1 PUSH1 0x60 ADD PUSH1 0x40 MSTORE DUP1 PUSH1 0x3 SWAP1 PUSH1 0x20 DUP3 MUL DUP1 CALLDATASIZE DUP4 CALLDATACOPY POP SWAP2 SWAP3 SWAP2 POP POP JUMP JUMPDEST PUSH1 0x1 PUSH1 0x1 PUSH1 0xE0 SHL SUB NOT DUP2 AND DUP2 EQ PUSH2 0xEBB JUMPI PUSH1 0x0 DUP1 REVERT JUMPDEST PUSH1 0x0 PUSH1 0x20 DUP3 DUP5 SUB SLT ISZERO PUSH2 0x3C50 JUMPI PUSH1 0x0 DUP1 REVERT JUMPDEST DUP2 CALLDATALOAD PUSH2 0x20FE DUP2 PUSH2 0x3C28 JUMP JUMPDEST PUSH1 0x0 JUMPDEST DUP4 DUP2 LT ISZERO PUSH2 0x3C76 JUMPI DUP2 DUP2 ADD MLOAD DUP4 DUP3 ADD MSTORE PUSH1 0x20 ADD PUSH2 0x3C5E JUMP JUMPDEST POP POP PUSH1 0x0 SWAP2 ADD MSTORE JUMP JUMPDEST PUSH1 0x0 DUP2 MLOAD DUP1 DUP5 MSTORE PUSH2 0x3C97 DUP2 PUSH1 0x20 DUP7 ADD PUSH1 0x20 DUP7 ADD PUSH2 0x3C5B JUMP JUMPDEST PUSH1 0x1F ADD PUSH1 0x1F NOT AND SWAP3 SWAP1 SWAP3 ADD PUSH1 0x20 ADD SWAP3 SWAP2 POP POP JUMP JUMPDEST PUSH1 0x20 DUP2 MSTORE PUSH1 0x0 PUSH2 0x20FE PUSH1 0x20 DUP4 ADD DUP5 PUSH2 0x3C7F JUMP JUMPDEST PUSH1 0x0 PUSH1 0x20 DUP3 DUP5 SUB SLT ISZERO PUSH2 0x3CD0 JUMPI PUSH1 0x0 DUP1 REVERT JUMPDEST POP CALLDATALOAD SWAP2 SWAP1 POP JUMP JUMPDEST DUP1 CALLDATALOAD PUSH1 0x1 PUSH1 0x1 PUSH1 0xA0 SHL SUB DUP2 AND DUP2 EQ PUSH2 0x3CEE JUMPI PUSH1 0x0 DUP1 REVERT JUMPDEST SWAP2 SWAP1 POP JUMP JUMPDEST PUSH1 0x0 DUP1 PUSH1 0x40 DUP4 DUP6 SUB SLT ISZERO PUSH2 0x3D06 JUMPI PUSH1 0x0 DUP1 REVERT JUMPDEST PUSH2 0x3D0F DUP4 PUSH2 0x3CD7 JUMP JUMPDEST SWAP5 PUSH1 0x20 SWAP4 SWAP1 SWAP4 ADD CALLDATALOAD SWAP4 POP POP POP JUMP JUMPDEST PUSH1 0x0 DUP1 PUSH1 0x0 PUSH1 0x60 DUP5 DUP7 SUB SLT ISZERO PUSH2 0x3D32 JUMPI PUSH1 0x0 DUP1 REVERT JUMPDEST PUSH2 0x3D3B DUP5 PUSH2 0x3CD7 JUMP JUMPDEST SWAP3 POP PUSH2 0x3D49 PUSH1 0x20 DUP6 ADD PUSH2 0x3CD7 JUMP JUMPDEST SWAP2 POP PUSH1 0x40 DUP5 ADD CALLDATALOAD SWAP1 POP SWAP3 POP SWAP3 POP SWAP3 JUMP JUMPDEST PUSH1 0x0 DUP1 PUSH1 0x40 DUP4 DUP6 SUB SLT ISZERO PUSH2 0x3D6C JUMPI PUSH1 0x0 DUP1 REVERT JUMPDEST DUP3 CALLDATALOAD SWAP2 POP PUSH2 0x3D7C PUSH1 0x20 DUP5 ADD PUSH2 0x3CD7 JUMP JUMPDEST SWAP1 POP SWAP3 POP SWAP3 SWAP1 POP JUMP JUMPDEST PUSH1 0x60 DUP2 ADD DUP2 DUP4 PUSH1 0x0 JUMPDEST PUSH1 0x3 DUP2 LT ISZERO PUSH2 0x3DAD JUMPI DUP2 MLOAD DUP4 MSTORE PUSH1 0x20 SWAP3 DUP4 ADD SWAP3 SWAP1 SWAP2 ADD SWAP1 PUSH1 0x1 ADD PUSH2 0x3D8E JUMP JUMPDEST POP POP POP SWAP3 SWAP2 POP POP JUMP JUMPDEST PUSH1 0x0 PUSH1 0x20 DUP3 DUP5 SUB SLT ISZERO PUSH2 0x3DC8 JUMPI PUSH1 0x0 DUP1 REVERT JUMPDEST PUSH2 0x20FE DUP3 PUSH2 0x3CD7 JUMP JUMPDEST PUSH4 0x4E487B71 PUSH1 0xE0 SHL PUSH1 0x0 MSTORE PUSH1 0x41 PUSH1 0x4 MSTORE PUSH1 0x24 PUSH1 0x0 REVERT JUMPDEST PUSH1 0x40 MLOAD PUSH1 0x1F DUP3 ADD PUSH1 0x1F NOT AND DUP2 ADD PUSH8 0xFFFFFFFFFFFFFFFF DUP2 GT DUP3 DUP3 LT OR ISZERO PUSH2 0x3E10 JUMPI PUSH2 0x3E10 PUSH2 0x3DD1 JUMP JUMPDEST PUSH1 0x40 MSTORE SWAP2 SWAP1 POP JUMP JUMPDEST PUSH1 0x0 DUP3 PUSH1 0x1F DUP4 ADD SLT PUSH2 0x3E29 JUMPI PUSH1 0x0 DUP1 REVERT JUMPDEST DUP2 CALLDATALOAD PUSH8 0xFFFFFFFFFFFFFFFF DUP2 GT ISZERO PUSH2 0x3E43 JUMPI PUSH2 0x3E43 PUSH2 0x3DD1 JUMP JUMPDEST PUSH2 0x3E56 PUSH1 0x1F DUP3 ADD PUSH1 0x1F NOT AND PUSH1 0x20 ADD PUSH2 0x3DE7 JUMP JUMPDEST DUP2 DUP2 MSTORE DUP5 PUSH1 0x20 DUP4 DUP7 ADD ADD GT ISZERO PUSH2 0x3E6B JUMPI PUSH1 0x0 DUP1 REVERT JUMPDEST DUP2 PUSH1 0x20 DUP6 ADD PUSH1 0x20 DUP4 ADD CALLDATACOPY PUSH1 0x0 SWAP2 DUP2 ADD PUSH1 0x20 ADD SWAP2 SWAP1 SWAP2 MSTORE SWAP4 SWAP3 POP POP POP JUMP JUMPDEST PUSH1 0x0 DUP1 PUSH1 0x40 DUP4 DUP6 SUB SLT ISZERO PUSH2 0x3E9B JUMPI PUSH1 0x0 DUP1 REVERT JUMPDEST PUSH2 0x3EA4 DUP4 PUSH2 0x3CD7 JUMP JUMPDEST SWAP2 POP PUSH1 0x20 DUP4 ADD CALLDATALOAD PUSH8 0xFFFFFFFFFFFFFFFF DUP2 GT ISZERO PUSH2 0x3EC0 JUMPI PUSH1 0x0 DUP1 REVERT JUMPDEST PUSH2 0x3ECC DUP6 DUP3 DUP7 ADD PUSH2 0x3E18 JUMP JUMPDEST SWAP2 POP POP SWAP3 POP SWAP3 SWAP1 POP JUMP JUMPDEST DUP1 ISZERO ISZERO DUP2 EQ PUSH2 0xEBB JUMPI PUSH1 0x0 DUP1 REVERT JUMPDEST PUSH1 0x0 DUP1 PUSH1 0x40 DUP4 DUP6 SUB SLT ISZERO PUSH2 0x3EF7 JUMPI PUSH1 0x0 DUP1 REVERT JUMPDEST PUSH2 0x3F00 DUP4 PUSH2 0x3CD7 JUMP JUMPDEST SWAP2 POP PUSH1 0x20 DUP4 ADD CALLDATALOAD PUSH2 0x3F10 DUP2 PUSH2 0x3ED6 JUMP JUMPDEST DUP1 SWAP2 POP POP SWAP3 POP SWAP3 SWAP1 POP JUMP JUMPDEST PUSH1 0x0 DUP1 PUSH1 0x0 DUP1 PUSH1 0x80 DUP6 DUP8 SUB SLT ISZERO PUSH2 0x3F31 JUMPI PUSH1 0x0 DUP1 REVERT JUMPDEST PUSH2 0x3F3A DUP6 PUSH2 0x3CD7 JUMP JUMPDEST SWAP4 POP PUSH2 0x3F48 PUSH1 0x20 DUP7 ADD PUSH2 0x3CD7 JUMP JUMPDEST SWAP3 POP PUSH1 0x40 DUP6 ADD CALLDATALOAD SWAP2 POP PUSH1 0x60 DUP6 ADD CALLDATALOAD PUSH8 0xFFFFFFFFFFFFFFFF DUP2 GT ISZERO PUSH2 0x3F6B JUMPI PUSH1 0x0 DUP1 REVERT JUMPDEST PUSH2 0x3F77 DUP8 DUP3 DUP9 ADD PUSH2 0x3E18 JUMP JUMPDEST SWAP2 POP POP SWAP3 SWAP6 SWAP2 SWAP5 POP SWAP3 POP JUMP JUMPDEST PUSH1 0x0 DUP1 PUSH1 0x0 DUP1 PUSH1 0x0 DUP1 PUSH1 0xC0 DUP8 DUP10 SUB SLT ISZERO PUSH2 0x3F9C JUMPI PUSH1 0x0 DUP1 REVERT JUMPDEST PUSH2 0x3FA5 DUP8 PUSH2 0x3CD7 JUMP JUMPDEST SWAP6 POP PUSH2 0x3FB3 PUSH1 0x20 DUP9 ADD PUSH2 0x3CD7 JUMP JUMPDEST SWAP5 POP PUSH2 0x3FC1 PUSH1 0x40 DUP9 ADD PUSH2 0x3CD7 JUMP JUMPDEST SWAP4 POP PUSH2 0x3FCF PUSH1 0x60 DUP9 ADD PUSH2 0x3CD7 JUMP JUMPDEST SWAP3 POP PUSH2 0x3FDD PUSH1 0x80 DUP9 ADD PUSH2 0x3CD7 JUMP JUMPDEST SWAP2 POP PUSH2 0x3FEB PUSH1 0xA0 DUP9 ADD PUSH2 0x3CD7 JUMP JUMPDEST SWAP1 POP SWAP3 SWAP6 POP SWAP3 SWAP6 POP SWAP3 SWAP6 JUMP JUMPDEST PUSH1 0x0 DUP1 PUSH1 0x40 DUP4 DUP6 SUB SLT ISZERO PUSH2 0x400A JUMPI PUSH1 0x0 DUP1 REVERT JUMPDEST PUSH2 0x4013 DUP4 PUSH2 0x3CD7 JUMP JUMPDEST SWAP2 POP PUSH2 0x3D7C PUSH1 0x20 DUP5 ADD PUSH2 0x3CD7 JUMP JUMPDEST PUSH1 0x1 DUP2 DUP2 SHR SWAP1 DUP3 AND DUP1 PUSH2 0x4035 JUMPI PUSH1 0x7F DUP3 AND SWAP2 POP JUMPDEST PUSH1 0x20 DUP3 LT DUP2 SUB PUSH2 0x4055 JUMPI PUSH4 0x4E487B71 PUSH1 0xE0 SHL PUSH1 0x0 MSTORE PUSH1 0x22 PUSH1 0x4 MSTORE PUSH1 0x24 PUSH1 0x0 REVERT JUMPDEST POP SWAP2 SWAP1 POP JUMP JUMPDEST PUSH1 0x20 DUP1 DUP3 MSTORE PUSH1 0x2D SWAP1 DUP3 ADD MSTORE PUSH32 0x4552433732313A2063616C6C6572206973206E6F7420746F6B656E206F776E65 PUSH1 0x40 DUP3 ADD MSTORE PUSH13 0x1C881BDC88185C1C1C9BDD9959 PUSH1 0x9A SHL PUSH1 0x60 DUP3 ADD MSTORE PUSH1 0x80 ADD SWAP1 JUMP JUMPDEST PUSH4 0x4E487B71 PUSH1 0xE0 SHL PUSH1 0x0 MSTORE PUSH1 0x32 PUSH1 0x4 MSTORE PUSH1 0x24 PUSH1 0x0 REVERT JUMPDEST PUSH1 0x20 DUP1 DUP3 MSTORE DUP3 MLOAD DUP3 DUP3 ADD DUP2 SWAP1 MSTORE PUSH1 0x0 SWAP2 SWAP1 DUP5 DUP3 ADD SWAP1 PUSH1 0x40 DUP6 ADD SWAP1 DUP5 JUMPDEST DUP2 DUP2 LT ISZERO PUSH2 0x40FF JUMPI DUP4 MLOAD PUSH1 0x1 PUSH1 0x1 PUSH1 0xA0 SHL SUB AND DUP4 MSTORE SWAP3 DUP5 ADD SWAP3 SWAP2 DUP5 ADD SWAP2 PUSH1 0x1 ADD PUSH2 0x40DA JUMP JUMPDEST POP SWAP1 SWAP7 SWAP6 POP POP POP POP POP POP JUMP JUMPDEST PUSH1 0x0 PUSH1 0x20 DUP1 DUP4 DUP6 SUB SLT ISZERO PUSH2 0x411E JUMPI PUSH1 0x0 DUP1 REVERT JUMPDEST DUP3 MLOAD PUSH8 0xFFFFFFFFFFFFFFFF DUP1 DUP3 GT ISZERO PUSH2 0x4136 JUMPI PUSH1 0x0 DUP1 REVERT JUMPDEST DUP2 DUP6 ADD SWAP2 POP DUP6 PUSH1 0x1F DUP4 ADD SLT PUSH2 0x414A JUMPI PUSH1 0x0 DUP1 REVERT JUMPDEST DUP2 MLOAD DUP2 DUP2 GT ISZERO PUSH2 0x415C JUMPI PUSH2 0x415C PUSH2 0x3DD1 JUMP JUMPDEST DUP1 PUSH1 0x5 SHL SWAP2 POP PUSH2 0x416D DUP5 DUP4 ADD PUSH2 0x3DE7 JUMP JUMPDEST DUP2 DUP2 MSTORE SWAP2 DUP4 ADD DUP5 ADD SWAP2 DUP5 DUP2 ADD SWAP1 DUP9 DUP5 GT ISZERO PUSH2 0x4187 JUMPI PUSH1 0x0 DUP1 REVERT JUMPDEST SWAP4 DUP6 ADD SWAP4 JUMPDEST DUP4 DUP6 LT ISZERO PUSH2 0x41A5 JUMPI DUP5 MLOAD DUP3 MSTORE SWAP4 DUP6 ADD SWAP4 SWAP1 DUP6 ADD SWAP1 PUSH2 0x418C JUMP JUMPDEST SWAP9 SWAP8 POP POP POP POP POP POP POP POP JUMP JUMPDEST PUSH4 0x4E487B71 PUSH1 0xE0 SHL PUSH1 0x0 MSTORE PUSH1 0x11 PUSH1 0x4 MSTORE PUSH1 0x24 PUSH1 0x0 REVERT JUMPDEST DUP1 DUP3 ADD DUP1 DUP3 GT ISZERO PUSH2 0x865 JUMPI PUSH2 0x865 PUSH2 0x41B1 JUMP JUMPDEST DUP1 DUP3 MUL DUP2 ISZERO DUP3 DUP3 DIV DUP5 EQ OR PUSH2 0x865 JUMPI PUSH2 0x865 PUSH2 0x41B1 JUMP JUMPDEST PUSH1 0x0 DUP3 PUSH2 0x420E JUMPI PUSH4 0x4E487B71 PUSH1 0xE0 SHL PUSH1 0x0 MSTORE PUSH1 0x12 PUSH1 0x4 MSTORE PUSH1 0x24 PUSH1 0x0 REVERT JUMPDEST POP DIV SWAP1 JUMP JUMPDEST DUP2 DUP2 SUB DUP2 DUP2 GT ISZERO PUSH2 0x865 JUMPI PUSH2 0x865 PUSH2 0x41B1 JUMP JUMPDEST PUSH1 0x20 DUP1 DUP3 MSTORE PUSH1 0x2C SWAP1 DUP3 ADD MSTORE PUSH32 0x46756E6374696F6E206D7573742062652063616C6C6564207468726F75676820 PUSH1 0x40 DUP3 ADD MSTORE PUSH12 0x19195B1959D85D1958D85B1B PUSH1 0xA2 SHL PUSH1 0x60 DUP3 ADD MSTORE PUSH1 0x80 ADD SWAP1 JUMP JUMPDEST PUSH1 0x20 DUP1 DUP3 MSTORE PUSH1 0x2C SWAP1 DUP3 ADD MSTORE PUSH32 0x46756E6374696F6E206D7573742062652063616C6C6564207468726F75676820 PUSH1 0x40 DUP3 ADD MSTORE PUSH12 0x6163746976652070726F7879 PUSH1 0xA0 SHL PUSH1 0x60 DUP3 ADD MSTORE PUSH1 0x80 ADD SWAP1 JUMP JUMPDEST PUSH1 0x20 DUP1 DUP3 MSTORE PUSH1 0xD SWAP1 DUP3 ADD MSTORE PUSH13 0x2737BA1027232A1037BBB732B9 PUSH1 0x99 SHL PUSH1 0x40 DUP3 ADD MSTORE PUSH1 0x60 ADD SWAP1 JUMP JUMPDEST PUSH1 0x40 DUP2 MSTORE PUSH1 0x13 PUSH1 0x40 DUP3 ADD MSTORE PUSH19 0xC4B8814DD185C9D1A5B99C819195C1BDCDA5D PUSH1 0x6A SHL PUSH1 0x60 DUP3 ADD MSTORE PUSH1 0x80 PUSH1 0x20 DUP3 ADD MSTORE PUSH1 0x0 PUSH2 0x20FE PUSH1 0x80 DUP4 ADD DUP5 PUSH2 0x3C7F JUMP JUMPDEST PUSH1 0x40 DUP2 MSTORE PUSH1 0x19 PUSH1 0x40 DUP3 ADD MSTORE PUSH32 0x322E20436865636B696E6720746F6B656E20737570706F727400000000000000 PUSH1 0x60 DUP3 ADD MSTORE PUSH1 0x80 PUSH1 0x20 DUP3 ADD MSTORE PUSH1 0x0 PUSH2 0x20FE PUSH1 0x80 DUP4 ADD DUP5 PUSH2 0x3C7F JUMP JUMPDEST PUSH1 0x0 PUSH1 0x20 DUP3 DUP5 SUB SLT ISZERO PUSH2 0x437B JUMPI PUSH1 0x0 DUP1 REVERT JUMPDEST POP MLOAD SWAP2 SWAP1 POP JUMP JUMPDEST PUSH1 0x40 DUP2 MSTORE PUSH1 0x1A PUSH1 0x40 DUP3 ADD MSTORE PUSH32 0x352E2042616C616E6365206265666F7265207472616E73666572000000000000 PUSH1 0x60 DUP3 ADD MSTORE PUSH1 0x80 PUSH1 0x20 DUP3 ADD MSTORE PUSH1 0x0 PUSH2 0x20FE PUSH1 0x80 DUP4 ADD DUP5 PUSH2 0x3C7F JUMP JUMPDEST PUSH1 0x40 DUP2 MSTORE PUSH1 0x1D PUSH1 0x40 DUP3 ADD MSTORE PUSH32 0x372E20557365722062616C616E636520616E6420616C6C6F77616E6365000000 PUSH1 0x60 DUP3 ADD MSTORE PUSH1 0x80 PUSH1 0x20 DUP3 ADD MSTORE PUSH1 0x0 PUSH2 0x20FE PUSH1 0x80 DUP4 ADD DUP5 PUSH2 0x3C7F JUMP JUMPDEST PUSH1 0x40 DUP2 MSTORE PUSH1 0x1A PUSH1 0x40 DUP3 ADD MSTORE PUSH32 0x31312E2042616C616E6365206166746572207472616E73666572000000000000 PUSH1 0x60 DUP3 ADD MSTORE PUSH1 0x80 PUSH1 0x20 DUP3 ADD MSTORE PUSH1 0x0 PUSH2 0x20FE PUSH1 0x80 DUP4 ADD DUP5 PUSH2 0x3C7F JUMP JUMPDEST PUSH1 0x0 PUSH1 0x1 DUP3 ADD PUSH2 0x4469 JUMPI PUSH2 0x4469 PUSH2 0x41B1 JUMP JUMPDEST POP PUSH1 0x1 ADD SWAP1 JUMP JUMPDEST PUSH1 0x40 DUP2 MSTORE PUSH1 0x10 PUSH1 0x40 DUP3 ADD MSTORE PUSH16 0x141BDCDA5D1A5BDB8818DC99585D1959 PUSH1 0x82 SHL PUSH1 0x60 DUP3 ADD MSTORE PUSH1 0x80 PUSH1 0x20 DUP3 ADD MSTORE PUSH1 0x0 PUSH2 0x20FE PUSH1 0x80 DUP4 ADD DUP5 PUSH2 0x3C7F JUMP JUMPDEST PUSH1 0x40 DUP2 MSTORE PUSH1 0x16 PUSH1 0x40 DUP3 ADD MSTORE PUSH22 0x151BDD185B0819195C1BDCDA5D1CC81D5C19185D1959 PUSH1 0x52 SHL PUSH1 0x60 DUP3 ADD MSTORE PUSH1 0x80 PUSH1 0x20 DUP3 ADD MSTORE PUSH1 0x0 PUSH2 0x20FE PUSH1 0x80 DUP4 ADD DUP5 PUSH2 0x3C7F JUMP JUMPDEST PUSH1 0x40 DUP2 MSTORE PUSH1 0xA PUSH1 0x40 DUP3 ADD MSTORE PUSH10 0x139195081B5A5B9D1959 PUSH1 0xB2 SHL PUSH1 0x60 DUP3 ADD MSTORE PUSH1 0x80 PUSH1 0x20 DUP3 ADD MSTORE PUSH1 0x0 PUSH2 0x20FE PUSH1 0x80 DUP4 ADD DUP5 PUSH2 0x3C7F JUMP JUMPDEST PUSH1 0x0 DUP4 MLOAD PUSH2 0x4530 DUP2 DUP5 PUSH1 0x20 DUP9 ADD PUSH2 0x3C5B JUMP JUMPDEST DUP4 MLOAD SWAP1 DUP4 ADD SWAP1 PUSH2 0x4544 DUP2 DUP4 PUSH1 0x20 DUP9 ADD PUSH2 0x3C5B JUMP JUMPDEST ADD SWAP5 SWAP4 POP POP POP POP JUMP JUMPDEST PUSH1 0x20 DUP1 DUP3 MSTORE PUSH1 0x25 SWAP1 DUP3 ADD MSTORE PUSH32 0x4552433732313A207472616E736665722066726F6D20696E636F727265637420 PUSH1 0x40 DUP3 ADD MSTORE PUSH5 0x37BBB732B9 PUSH1 0xD9 SHL PUSH1 0x60 DUP3 ADD MSTORE PUSH1 0x80 ADD SWAP1 JUMP JUMPDEST PUSH1 0x20 DUP1 DUP3 MSTORE PUSH1 0x32 SWAP1 DUP3 ADD MSTORE PUSH32 0x4552433732313A207472616E7366657220746F206E6F6E204552433732315265 PUSH1 0x40 DUP3 ADD MSTORE PUSH18 0x31B2B4BB32B91034B6B83632B6B2B73A32B9 PUSH1 0x71 SHL PUSH1 0x60 DUP3 ADD MSTORE PUSH1 0x80 ADD SWAP1 JUMP JUMPDEST PUSH1 0x20 DUP1 DUP3 MSTORE PUSH1 0x2B SWAP1 DUP3 ADD MSTORE PUSH32 0x496E697469616C697A61626C653A20636F6E7472616374206973206E6F742069 PUSH1 0x40 DUP3 ADD MSTORE PUSH11 0x6E697469616C697A696E67 PUSH1 0xA8 SHL PUSH1 0x60 DUP3 ADD MSTORE PUSH1 0x80 ADD SWAP1 JUMP JUMPDEST PUSH32 0x416363657373436F6E74726F6C3A206163636F756E7420000000000000000000 DUP2 MSTORE PUSH1 0x0 DUP4 MLOAD PUSH2 0x4667 DUP2 PUSH1 0x17 DUP6 ADD PUSH1 0x20 DUP9 ADD PUSH2 0x3C5B JUMP JUMPDEST PUSH17 0x1034B99036B4B9B9B4B733903937B6329 PUSH1 0x7D SHL PUSH1 0x17 SWAP2 DUP5 ADD SWAP2 DUP3 ADD MSTORE DUP4 MLOAD PUSH2 0x4698 DUP2 PUSH1 0x28 DUP5 ADD PUSH1 0x20 DUP9 ADD PUSH2 0x3C5B JUMP JUMPDEST ADD PUSH1 0x28 ADD SWAP5 SWAP4 POP POP POP POP JUMP JUMPDEST PUSH1 0x0 PUSH1 0x20 DUP3 DUP5 SUB SLT ISZERO PUSH2 0x46B6 JUMPI PUSH1 0x0 DUP1 REVERT JUMPDEST DUP2 MLOAD PUSH2 0x20FE DUP2 PUSH2 0x3ED6 JUMP JUMPDEST PUSH1 0x1 PUSH1 0x1 PUSH1 0xA0 SHL SUB DUP6 DUP2 AND DUP3 MSTORE DUP5 AND PUSH1 0x20 DUP3 ADD MSTORE PUSH1 0x40 DUP2 ADD DUP4 SWAP1 MSTORE PUSH1 0x80 PUSH1 0x60 DUP3 ADD DUP2 SWAP1 MSTORE PUSH1 0x0 SWAP1 PUSH2 0x3A87 SWAP1 DUP4 ADD DUP5 PUSH2 0x3C7F JUMP JUMPDEST PUSH1 0x0 PUSH1 0x20 DUP3 DUP5 SUB SLT ISZERO PUSH2 0x4706 JUMPI PUSH1 0x0 DUP1 REVERT JUMPDEST DUP2 MLOAD PUSH2 0x20FE DUP2 PUSH2 0x3C28 JUMP JUMPDEST PUSH1 0x1F DUP3 GT ISZERO PUSH2 0xA39 JUMPI PUSH1 0x0 DUP2 DUP2 MSTORE PUSH1 0x20 DUP2 KECCAK256 PUSH1 0x1F DUP6 ADD PUSH1 0x5 SHR DUP2 ADD PUSH1 0x20 DUP7 LT ISZERO PUSH2 0x4738 JUMPI POP DUP1 JUMPDEST PUSH1 0x1F DUP6 ADD PUSH1 0x5 SHR DUP3 ADD SWAP2 POP JUMPDEST DUP2 DUP2 LT ISZERO PUSH2 0x4757 JUMPI DUP3 DUP2 SSTORE PUSH1 0x1 ADD PUSH2 0x4744 JUMP JUMPDEST POP POP POP POP POP POP JUMP JUMPDEST DUP2 MLOAD PUSH8 0xFFFFFFFFFFFFFFFF DUP2 GT ISZERO PUSH2 0x4779 JUMPI PUSH2 0x4779 PUSH2 0x3DD1 JUMP JUMPDEST PUSH2 0x478D DUP2 PUSH2 0x4787 DUP5 SLOAD PUSH2 0x4021 JUMP JUMPDEST DUP5 PUSH2 0x4711 JUMP JUMPDEST PUSH1 0x20 DUP1 PUSH1 0x1F DUP4 GT PUSH1 0x1 DUP2 EQ PUSH2 0x47C2 JUMPI PUSH1 0x0 DUP5 ISZERO PUSH2 0x47AA JUMPI POP DUP6 DUP4 ADD MLOAD JUMPDEST PUSH1 0x0 NOT PUSH1 0x3 DUP7 SWAP1 SHL SHR NOT AND PUSH1 0x1 DUP6 SWAP1 SHL OR DUP6 SSTORE PUSH2 0x4757 JUMP JUMPDEST PUSH1 0x0 DUP6 DUP2 MSTORE PUSH1 0x20 DUP2 KECCAK256 PUSH1 0x1F NOT DUP7 AND SWAP2 JUMPDEST DUP3 DUP2 LT ISZERO PUSH2 0x47F1 JUMPI DUP9 DUP7 ADD MLOAD DUP3 SSTORE SWAP5 DUP5 ADD SWAP5 PUSH1 0x1 SWAP1 SWAP2 ADD SWAP1 DUP5 ADD PUSH2 0x47D2 JUMP JUMPDEST POP DUP6 DUP3 LT ISZERO PUSH2 0x480F JUMPI DUP8 DUP6 ADD MLOAD PUSH1 0x0 NOT PUSH1 0x3 DUP9 SWAP1 SHL PUSH1 0xF8 AND SHR NOT AND DUP2 SSTORE JUMPDEST POP POP POP POP POP PUSH1 0x1 SWAP1 DUP2 SHL ADD SWAP1 SSTORE POP JUMP JUMPDEST PUSH1 0x0 DUP2 PUSH2 0x482E JUMPI PUSH2 0x482E PUSH2 0x41B1 JUMP JUMPDEST POP PUSH1 0x0 NOT ADD SWAP1 JUMP JUMPDEST PUSH1 0x0 DUP3 MLOAD PUSH2 0x4848 DUP2 DUP5 PUSH1 0x20 DUP8 ADD PUSH2 0x3C5B JUMP JUMPDEST SWAP2 SWAP1 SWAP2 ADD SWAP3 SWAP2 POP POP JUMP INVALID CALLDATASIZE ADDMOD SWAP5 LOG1 EXTCODESIZE LOG1 LOG3 0x21 MOD PUSH8 0xC828492DB98DCA3E KECCAK256 PUSH23 0xCC3735A920A3CA505D382BBC416464726573733A206C6F PUSH24 0x2D6C6576656C2064656C65676174652063616C6C20666169 PUSH13 0x65640C1267F8B6A6608F6166EA SWAP9 0xCE SWAP2 0xE2 EXTCODEHASH 0xE3 0xBF 0xD SWAP3 CHAINID BASEFEE SLOAD 0x24 SWAP5 DUP2 0xDD PUSH30 0x7A5D464A264697066735822122056961E50705EB3EF41687B187DC80812 0xAB 0x4C 0x5C 0x5C PUSH32 0x2205AA27D73737AB151BE464736F6C6343000814003300000000000000000000 "},"methodIdentifiers":{"DEFAULT_ADMIN_ROLE()":"a217fddf","approve(address,uint256)":"095ea7b3","balanceOf(address)":"70a08231","cEUR()":"7d1f2de7","cREAL()":"d47ce0a6","cUSD()":"1fccf672","calculateYield(uint256)":"80a3301b","claimYield(uint256)":"40bd2e23","deposit(address,uint256)":"47e7ef24","dex()":"692058c2","factory()":"c45a0155","getApproved(uint256)":"081812fc","getOptimalAllocation()":"33a7ad76","getRoleAdmin(bytes32)":"248a9ca3","grantRole(bytes32,address)":"2f2ff15d","hasRole(bytes32,address)":"91d14854","initialize(address,address,address,address,address,address)":"cc2a9a5b","isApprovedForAll(address,address)":"e985e9c5","name()":"06fdde03","nextTokenId()":"75794a3c","owner()":"8da5cb5b","ownerOf(uint256)":"6352211e","positions(uint256)":"99fbab88","proxiableUUID()":"52d1902d","rebalance(uint256)":"f4993018","redeem(uint256)":"db006a75","renounceOwnership()":"715018a6","renounceRole(bytes32,address)":"36568abe","revokeRole(bytes32,address)":"d547741f","safeTransferFrom(address,address,uint256)":"42842e0e","safeTransferFrom(address,address,uint256,bytes)":"b88d4fde","setApprovalForAll(address,bool)":"a22cb465","supportsInterface(bytes4)":"01ffc9a7","symbol()":"95d89b41","tokenURI(uint256)":"c87b56dd","totalDeposits(address)":"e9403256","totalYield(address)":"b26dd040","transferFrom(address,address,uint256)":"23b872dd","transferOwnership(address)":"f2fde38b","upgradeTo(address)":"3659cfe6","upgradeToAndCall(address,bytes)":"4f1ef286","yieldOracle()":"a7f0e342"}},"storageLayout":{"storage":[{"astId":915,"contract":"contracts/XmentoVault.sol:XmentoVault","label":"_initialized","offset":0,"slot":"0","type":"t_uint8"},{"astId":918,"contract":"contracts/XmentoVault.sol:XmentoVault","label":"_initializing","offset":1,"slot":"0","type":"t_bool"},{"astId":2793,"contract":"contracts/XmentoVault.sol:XmentoVault","label":"__gap","offset":0,"slot":"1","type":"t_array(t_uint256)50_storage"},{"astId":3177,"contract":"contracts/XmentoVault.sol:XmentoVault","label":"__gap","offset":0,"slot":"51","type":"t_array(t_uint256)50_storage"},{"astId":1329,"contract":"contracts/XmentoVault.sol:XmentoVault","label":"_name","offset":0,"slot":"101","type":"t_string_storage"},{"astId":1331,"contract":"contracts/XmentoVault.sol:XmentoVault","label":"_symbol","offset":0,"slot":"102","type":"t_string_storage"},{"astId":1335,"contract":"contracts/XmentoVault.sol:XmentoVault","label":"_owners","offset":0,"slot":"103","type":"t_mapping(t_uint256,t_address)"},{"astId":1339,"contract":"contracts/XmentoVault.sol:XmentoVault","label":"_balances","offset":0,"slot":"104","type":"t_mapping(t_address,t_uint256)"},{"astId":1343,"contract":"contracts/XmentoVault.sol:XmentoVault","label":"_tokenApprovals","offset":0,"slot":"105","type":"t_mapping(t_uint256,t_address)"},{"astId":1349,"contract":"contracts/XmentoVault.sol:XmentoVault","label":"_operatorApprovals","offset":0,"slot":"106","type":"t_mapping(t_address,t_mapping(t_address,t_bool))"},{"astId":2251,"contract":"contracts/XmentoVault.sol:XmentoVault","label":"__gap","offset":0,"slot":"107","type":"t_array(t_uint256)44_storage"},{"astId":421,"contract":"contracts/XmentoVault.sol:XmentoVault","label":"_owner","offset":0,"slot":"151","type":"t_address"},{"astId":541,"contract":"contracts/XmentoVault.sol:XmentoVault","label":"__gap","offset":0,"slot":"152","type":"t_array(t_uint256)49_storage"},{"astId":28,"contract":"contracts/XmentoVault.sol:XmentoVault","label":"_roles","offset":0,"slot":"201","type":"t_mapping(t_bytes32,t_struct(RoleData)23_storage)"},{"astId":335,"contract":"contracts/XmentoVault.sol:XmentoVault","label":"__gap","offset":0,"slot":"202","type":"t_array(t_uint256)49_storage"},{"astId":1229,"contract":"contracts/XmentoVault.sol:XmentoVault","label":"_status","offset":0,"slot":"251","type":"t_uint256"},{"astId":1298,"contract":"contracts/XmentoVault.sol:XmentoVault","label":"__gap","offset":0,"slot":"252","type":"t_array(t_uint256)49_storage"},{"astId":897,"contract":"contracts/XmentoVault.sol:XmentoVault","label":"__gap","offset":0,"slot":"301","type":"t_array(t_uint256)50_storage"},{"astId":1213,"contract":"contracts/XmentoVault.sol:XmentoVault","label":"__gap","offset":0,"slot":"351","type":"t_array(t_uint256)50_storage"},{"astId":6300,"contract":"contracts/XmentoVault.sol:XmentoVault","label":"factory","offset":0,"slot":"401","type":"t_contract(IXmentoVaultFactory)5790"},{"astId":6303,"contract":"contracts/XmentoVault.sol:XmentoVault","label":"cUSD","offset":0,"slot":"402","type":"t_contract(IERC20)4906"},{"astId":6306,"contract":"contracts/XmentoVault.sol:XmentoVault","label":"cEUR","offset":0,"slot":"403","type":"t_contract(IERC20)4906"},{"astId":6309,"contract":"contracts/XmentoVault.sol:XmentoVault","label":"cREAL","offset":0,"slot":"404","type":"t_contract(IERC20)4906"},{"astId":6312,"contract":"contracts/XmentoVault.sol:XmentoVault","label":"dex","offset":0,"slot":"405","type":"t_contract(IDEX)5782"},{"astId":6315,"contract":"contracts/XmentoVault.sol:XmentoVault","label":"yieldOracle","offset":0,"slot":"406","type":"t_contract(IYieldOracle)6281"},{"astId":6318,"contract":"contracts/XmentoVault.sol:XmentoVault","label":"nextTokenId","offset":0,"slot":"407","type":"t_uint256"},{"astId":6334,"contract":"contracts/XmentoVault.sol:XmentoVault","label":"positions","offset":0,"slot":"408","type":"t_mapping(t_uint256,t_struct(Position)6329_storage)"},{"astId":6338,"contract":"contracts/XmentoVault.sol:XmentoVault","label":"totalDeposits","offset":0,"slot":"409","type":"t_mapping(t_address,t_uint256)"},{"astId":6342,"contract":"contracts/XmentoVault.sol:XmentoVault","label":"totalYield","offset":0,"slot":"410","type":"t_mapping(t_address,t_uint256)"}],"types":{"t_address":{"encoding":"inplace","label":"address","numberOfBytes":"20"},"t_array(t_uint256)44_storage":{"base":"t_uint256","encoding":"inplace","label":"uint256[44]","numberOfBytes":"1408"},"t_array(t_uint256)49_storage":{"base":"t_uint256","encoding":"inplace","label":"uint256[49]","numberOfBytes":"1568"},"t_array(t_uint256)50_storage":{"base":"t_uint256","encoding":"inplace","label":"uint256[50]","numberOfBytes":"1600"},"t_bool":{"encoding":"inplace","label":"bool","numberOfBytes":"1"},"t_bytes32":{"encoding":"inplace","label":"bytes32","numberOfBytes":"32"},"t_contract(IDEX)5782":{"encoding":"inplace","label":"contract IDEX","numberOfBytes":"20"},"t_contract(IERC20)4906":{"encoding":"inplace","label":"contract IERC20","numberOfBytes":"20"},"t_contract(IXmentoVaultFactory)5790":{"encoding":"inplace","label":"contract IXmentoVaultFactory","numberOfBytes":"20"},"t_contract(IYieldOracle)6281":{"encoding":"inplace","label":"contract IYieldOracle","numberOfBytes":"20"},"t_mapping(t_address,t_bool)":{"encoding":"mapping","key":"t_address","label":"mapping(address => bool)","numberOfBytes":"32","value":"t_bool"},"t_mapping(t_address,t_mapping(t_address,t_bool))":{"encoding":"mapping","key":"t_address","label":"mapping(address => mapping(address => bool))","numberOfBytes":"32","value":"t_mapping(t_address,t_bool)"},"t_mapping(t_address,t_uint256)":{"encoding":"mapping","key":"t_address","label":"mapping(address => uint256)","numberOfBytes":"32","value":"t_uint256"},"t_mapping(t_bytes32,t_struct(RoleData)23_storage)":{"encoding":"mapping","key":"t_bytes32","label":"mapping(bytes32 => struct AccessControlUpgradeable.RoleData)","numberOfBytes":"32","value":"t_struct(RoleData)23_storage"},"t_mapping(t_uint256,t_address)":{"encoding":"mapping","key":"t_uint256","label":"mapping(uint256 => address)","numberOfBytes":"32","value":"t_address"},"t_mapping(t_uint256,t_struct(Position)6329_storage)":{"encoding":"mapping","key":"t_uint256","label":"mapping(uint256 => struct XmentoVault.Position)","numberOfBytes":"32","value":"t_struct(Position)6329_storage"},"t_string_storage":{"encoding":"bytes","label":"string","numberOfBytes":"32"},"t_struct(Position)6329_storage":{"encoding":"inplace","label":"struct XmentoVault.Position","members":[{"astId":6320,"contract":"contracts/XmentoVault.sol:XmentoVault","label":"token","offset":0,"slot":"0","type":"t_address"},{"astId":6322,"contract":"contracts/XmentoVault.sol:XmentoVault","label":"amount","offset":0,"slot":"1","type":"t_uint256"},{"astId":6324,"contract":"contracts/XmentoVault.sol:XmentoVault","label":"timestamp","offset":0,"slot":"2","type":"t_uint256"},{"astId":6326,"contract":"contracts/XmentoVault.sol:XmentoVault","label":"yieldRate","offset":0,"slot":"3","type":"t_uint256"},{"astId":6328,"contract":"contracts/XmentoVault.sol:XmentoVault","label":"isActive","offset":0,"slot":"4","type":"t_bool"}],"numberOfBytes":"160"},"t_struct(RoleData)23_storage":{"encoding":"inplace","label":"struct AccessControlUpgradeable.RoleData","members":[{"astId":20,"contract":"contracts/XmentoVault.sol:XmentoVault","label":"members","offset":0,"slot":"0","type":"t_mapping(t_address,t_bool)"},{"astId":22,"contract":"contracts/XmentoVault.sol:XmentoVault","label":"adminRole","offset":0,"slot":"1","type":"t_bytes32"}],"numberOfBytes":"64"},"t_uint256":{"encoding":"inplace","label":"uint256","numberOfBytes":"32"},"t_uint8":{"encoding":"inplace","label":"uint8","numberOfBytes":"1"}}}}}}