{"contracts/XmentoVaultFactory.sol":{"XmentoVaultFactory":{"abi":[{"inputs":[{"internalType":"address","name":"_vaultImplementation","type":"address"},{"internalType":"address","name":"_cUSD","type":"address"},{"internalType":"address","name":"_cEUR","type":"address"},{"internalType":"address","name":"_cREAL","type":"address"},{"internalType":"address","name":"_dex","type":"address"},{"internalType":"address","name":"_yieldOracle","type":"address"}],"stateMutability":"nonpayable","type":"constructor"},{"inputs":[],"name":"AccessControlBadConfirmation","type":"error"},{"inputs":[{"internalType":"address","name":"account","type":"address"},{"internalType":"bytes32","name":"neededRole","type":"bytes32"}],"name":"AccessControlUnauthorizedAccount","type":"error"},{"inputs":[],"name":"FailedDeployment","type":"error"},{"inputs":[{"internalType":"uint256","name":"balance","type":"uint256"},{"internalType":"uint256","name":"needed","type":"uint256"}],"name":"InsufficientBalance","type":"error"},{"inputs":[{"internalType":"address","name":"owner","type":"address"}],"name":"OwnableInvalidOwner","type":"error"},{"inputs":[{"internalType":"address","name":"account","type":"address"}],"name":"OwnableUnauthorizedAccount","type":"error"},{"inputs":[],"name":"ReentrancyGuardReentrantCall","type":"error"},{"anonymous":false,"inputs":[{"indexed":true,"internalType":"address","name":"newImplementation","type":"address"}],"name":"ImplementationUpdated","type":"event"},{"anonymous":false,"inputs":[{"indexed":true,"internalType":"address","name":"previousOwner","type":"address"},{"indexed":true,"internalType":"address","name":"newOwner","type":"address"}],"name":"OwnershipTransferred","type":"event"},{"anonymous":false,"inputs":[{"indexed":true,"internalType":"bytes32","name":"role","type":"bytes32"},{"indexed":true,"internalType":"bytes32","name":"previousAdminRole","type":"bytes32"},{"indexed":true,"internalType":"bytes32","name":"newAdminRole","type":"bytes32"}],"name":"RoleAdminChanged","type":"event"},{"anonymous":false,"inputs":[{"indexed":true,"internalType":"bytes32","name":"role","type":"bytes32"},{"indexed":true,"internalType":"address","name":"account","type":"address"},{"indexed":true,"internalType":"address","name":"sender","type":"address"}],"name":"RoleGranted","type":"event"},{"anonymous":false,"inputs":[{"indexed":true,"internalType":"bytes32","name":"role","type":"bytes32"},{"indexed":true,"internalType":"address","name":"account","type":"address"},{"indexed":true,"internalType":"address","name":"sender","type":"address"}],"name":"RoleRevoked","type":"event"},{"anonymous":false,"inputs":[{"indexed":true,"internalType":"address","name":"user","type":"address"},{"indexed":true,"internalType":"address","name":"vaultAddress","type":"address"}],"name":"VaultCreated","type":"event"},{"inputs":[],"name":"DEFAULT_ADMIN_ROLE","outputs":[{"internalType":"bytes32","name":"","type":"bytes32"}],"stateMutability":"view","type":"function"},{"inputs":[{"internalType":"uint256","name":"","type":"uint256"}],"name":"allVaults","outputs":[{"internalType":"address","name":"","type":"address"}],"stateMutability":"view","type":"function"},{"inputs":[],"name":"cEUR","outputs":[{"internalType":"address","name":"","type":"address"}],"stateMutability":"view","type":"function"},{"inputs":[],"name":"cREAL","outputs":[{"internalType":"address","name":"","type":"address"}],"stateMutability":"view","type":"function"},{"inputs":[],"name":"cUSD","outputs":[{"internalType":"address","name":"","type":"address"}],"stateMutability":"view","type":"function"},{"inputs":[],"name":"createVault","outputs":[{"internalType":"address","name":"","type":"address"}],"stateMutability":"nonpayable","type":"function"},{"inputs":[],"name":"dex","outputs":[{"internalType":"address","name":"","type":"address"}],"stateMutability":"view","type":"function"},{"inputs":[{"internalType":"bytes32","name":"role","type":"bytes32"}],"name":"getRoleAdmin","outputs":[{"internalType":"bytes32","name":"","type":"bytes32"}],"stateMutability":"view","type":"function"},{"inputs":[{"internalType":"address","name":"user","type":"address"}],"name":"getVaultAddress","outputs":[{"internalType":"address","name":"","type":"address"}],"stateMutability":"view","type":"function"},{"inputs":[],"name":"getVaultCount","outputs":[{"internalType":"uint256","name":"","type":"uint256"}],"stateMutability":"view","type":"function"},{"inputs":[],"name":"getVaults","outputs":[{"internalType":"address[]","name":"","type":"address[]"}],"stateMutability":"view","type":"function"},{"inputs":[{"internalType":"uint256","name":"start","type":"uint256"},{"internalType":"uint256","name":"count","type":"uint256"}],"name":"getVaults","outputs":[{"internalType":"address[]","name":"","type":"address[]"}],"stateMutability":"view","type":"function"},{"inputs":[{"internalType":"bytes32","name":"role","type":"bytes32"},{"internalType":"address","name":"account","type":"address"}],"name":"grantRole","outputs":[],"stateMutability":"nonpayable","type":"function"},{"inputs":[{"internalType":"bytes32","name":"role","type":"bytes32"},{"internalType":"address","name":"account","type":"address"}],"name":"hasRole","outputs":[{"internalType":"bool","name":"","type":"bool"}],"stateMutability":"view","type":"function"},{"inputs":[{"internalType":"address","name":"vault","type":"address"}],"name":"isVault","outputs":[{"internalType":"bool","name":"","type":"bool"}],"stateMutability":"view","type":"function"},{"inputs":[],"name":"owner","outputs":[{"internalType":"address","name":"","type":"address"}],"stateMutability":"view","type":"function"},{"inputs":[],"name":"renounceOwnership","outputs":[],"stateMutability":"nonpayable","type":"function"},{"inputs":[{"internalType":"bytes32","name":"role","type":"bytes32"},{"internalType":"address","name":"callerConfirmation","type":"address"}],"name":"renounceRole","outputs":[],"stateMutability":"nonpayable","type":"function"},{"inputs":[{"internalType":"bytes32","name":"role","type":"bytes32"},{"internalType":"address","name":"account","type":"address"}],"name":"revokeRole","outputs":[],"stateMutability":"nonpayable","type":"function"},{"inputs":[{"internalType":"address","name":"implementation","type":"address"}],"name":"setVaultImplementation","outputs":[],"stateMutability":"nonpayable","type":"function"},{"inputs":[{"internalType":"bytes4","name":"interfaceId","type":"bytes4"}],"name":"supportsInterface","outputs":[{"internalType":"bool","name":"","type":"bool"}],"stateMutability":"view","type":"function"},{"inputs":[{"internalType":"address","name":"newOwner","type":"address"}],"name":"transferOwnership","outputs":[],"stateMutability":"nonpayable","type":"function"},{"inputs":[{"internalType":"address","name":"","type":"address"}],"name":"userToVault","outputs":[{"internalType":"address","name":"","type":"address"}],"stateMutability":"view","type":"function"},{"inputs":[],"name":"vaultImplementation","outputs":[{"internalType":"address","name":"","type":"address"}],"stateMutability":"view","type":"function"},{"inputs":[],"name":"yieldOracle","outputs":[{"internalType":"address","name":"","type":"address"}],"stateMutability":"view","type":"function"}],"evm":{"bytecode":{"linkReferences":{},"object":"6080346200032a57601f620011fb38819003918201601f191683019291906001600160401b038411838510176200032f578160c092849260409687528339810103126200032a57620000518162000345565b906020916200006283830162000345565b916200007085820162000345565b6200007e6060830162000345565b906200009b60a0620000936080860162000345565b940162000345565b93331562000312576000549060018060a01b031996338884161760005589519260018060a01b03928391823391167f8be0079c531659141344cd1fd0a4f28419497f9722a3daafe3b4186f6b6457e0600080a36001805516928315620002d0575081169283156200028c5781169384156200024857811694851562000204578116958615620001c057169687156200017d575085600b541617600b55846006541617600655836007541617600755826008541617600855816009541617600955600a541617600a556200016e336200035a565b5051610e0e9081620003ed8239f35b60649089519062461bcd60e51b82526004820152601c60248201527f496e76616c6964207969656c64206f7261636c652061646472657373000000006044820152fd5b895162461bcd60e51b8152600481018a9052601360248201527f496e76616c6964204445582061646472657373000000000000000000000000006044820152606490fd5b895162461bcd60e51b8152600481018a9052601560248201527f496e76616c696420635245414c206164647265737300000000000000000000006044820152606490fd5b895162461bcd60e51b8152600481018a9052601460248201527f496e76616c6964206345555220616464726573730000000000000000000000006044820152606490fd5b895162461bcd60e51b8152600481018a9052601460248201527f496e76616c6964206355534420616464726573730000000000000000000000006044820152606490fd5b62461bcd60e51b8152600481018a9052601e60248201527f496e76616c696420696d706c656d656e746174696f6e206164647265737300006044820152606490fd5b8751631e4fbdf760e01b815260006004820152602490fd5b600080fd5b634e487b7160e01b600052604160045260246000fd5b51906001600160a01b03821682036200032a57565b6001600160a01b031660008181527fac33ff75c19e70fe83507db0d683fd3465c996598dc972688b7ace676c89077b602052604081205490919060ff16620003e85781805260026020526040822081835260205260408220600160ff1982541617905533917f2f8788117e7eff1d82e926ec794901d17c78024a50270940304540a733656f0d8180a4600190565b509056fe6080604081815260048036101561001557600080fd5b600092833560e01c90816301ffc9a71461098f575080631fccf67214610966578063248a9ca31461093c5780632f2ff15d1461091357806336568abe146108cc57806344d00f821461084157806353e78b6b146107915780635d12928b146104c7578063652b9b4114610489578063692058c214610460578063715018a61461040657806374d4e491146103e95780637d1f2de7146103c05780638da5cb5b146103985780639094a91e1461035857806391d1485414610313578063a217fddf146102f8578063a7f0e342146102cf578063b98cca3714610299578063bba48a9014610270578063bc721a96146101c9578063d47ce0a614610247578063d547741f14610208578063ef88c31e146101c95763f2fde38b1461013657600080fd5b346101c55760203660031901126101c55761014f6109fe565b90610158610be0565b6001600160a01b039182169283156101af575050600054826bffffffffffffffffffffffff60a01b821617600055167f8be0079c531659141344cd1fd0a4f28419497f9722a3daafe3b4186f6b6457e0600080a380f35b51631e4fbdf760e01b8152908101849052602490fd5b8280fd5b505034610204576020366003190112610204576020916001600160a01b03908290826101f36109fe565b168152600385522054169051908152f35b5080fd5b5090346101c557806003193601126101c557610243913561023e600161022c6109e3565b93838752600260205286200154610aa5565b610b69565b5080f35b50503461020457816003193601126102045760085490516001600160a01b039091168152602090f35b505034610204578160031936011261020457600b5490516001600160a01b039091168152602090f35b5091346102cc57816003193601126102cc57506102bd6102c8926024359035610c93565b905191829182610a14565b0390f35b80fd5b505034610204578160031936011261020457600a5490516001600160a01b039091168152602090f35b50503461020457816003193601126102045751908152602090f35b50346101c557816003193601126101c557816020936103306109e3565b9235815260028552209060018060a01b0316600052825260ff81600020541690519015158152f35b5091346102cc5760203660031901126102cc57823592548310156102cc5750610382602092610a58565b905491519160018060a01b039160031b1c168152f35b505034610204578160031936011261020457905490516001600160a01b039091168152602090f35b50503461020457816003193601126102045760075490516001600160a01b039091168152602090f35b50346101c557826003193601126101c55760209250549051908152f35b83346102cc57806003193601126102cc5761041f610be0565b600080546001600160a01b0319811682556001600160a01b03167f8be0079c531659141344cd1fd0a4f28419497f9722a3daafe3b4186f6b6457e08280a380f35b50503461020457816003193601126102045760095490516001600160a01b039091168152602090f35b5050346102045760203660031901126102045760209160ff9082906001600160a01b036104b46109fe565b1681526005855220541690519015158152f35b508290346102045781600319360112610204576001600281541461078257600281553383526020936003855260018060a01b039283828620541661074157600b54848116156106ff57608881901c62ffffff16763d602d80600a3d3981f3363d3d373d3d3d363d7300000017865260781b6effffffffffffffffffffffffffffff19166e5af43d82803e903d91602b57fd5bf3178652836037600987f0169384156106f0573386526003875282862080546001600160a01b031916861790558154680100000000000000008110156106dd5780856105a792018455610a58565b81549060031b908388831b921b1916179055848652600587528286208460ff198254161790558060065416908060075416908060085416816009541691600a541692883b156106d95786519463cc2a9a5b60e01b86523087870152602486015260448501526064840152608483015260a4820152858160c48183895af180156106cf576106bc575b50833b156106b85781519063f2fde38b60e01b82523390820152848160248183885af180156106ae578492918691610691575b505051937f5d9c31ffa0fecffd7cf379989a3c7af252f0335e0d2a1320b55245912c781f53339180a380558152f35b61069d91929350610c0c565b6106aa5782908487610662565b8380fd5b82513d87823e3d90fd5b8480fd5b6106c890959195610c0c565b938661062f565b83513d88823e3d90fd5b8980fd5b634e487b7160e01b875260418352602487fd5b50905163b06ebf3d60e01b8152fd5b5085606492519162461bcd60e51b8352820152601c60248201527f5661756c7420696d706c656d656e746174696f6e206e6f7420736574000000006044820152fd5b85606492519162461bcd60e51b8352820152601d60248201527f5661756c7420616c72656164792065786973747320666f7220757365720000006044820152fd5b508251633ee5aeb560e01b8152fd5b50346101c55760203660031901126101c5576107ab6109fe565b6107b3610be0565b6001600160a01b03169182156107fe575050600b80546001600160a01b031916821790557f310ba5f1d2ed074b51e2eccd052a47ae9ab7c6b800d1fca3db3999d6a592ca038280a280f35b906020606492519162461bcd60e51b8352820152601e60248201527f496e76616c696420696d706c656d656e746174696f6e206164647265737300006044820152fd5b509190346102045781600319360112610204578051918284549081815260208091019583527f8a35acfbc15ff81a39ae7d344fd709f28e8600b4aa8c65c6b64bfe7fe36bd19b92905b8282106108ac576102c886866108a2828b0383610c36565b5191829182610a14565b83546001600160a01b03168752958601956001938401939091019061088a565b509190346102045780600319360112610204576108e76109e3565b90336001600160a01b038316036109045750610243919235610b69565b5163334bd91960e11b81528390fd5b5090346101c557806003193601126101c5576102439135610937600161022c6109e3565b610ae9565b50346101c55760203660031901126101c55781602093600192358152600285522001549051908152f35b50503461020457816003193601126102045760065490516001600160a01b039091168152602090f35b925050346101c55760203660031901126101c5573563ffffffff60e01b81168091036101c55760209250637965db0b60e01b81149081156109d2575b5015158152f35b6301ffc9a760e01b149050386109cb565b602435906001600160a01b03821682036109f957565b600080fd5b600435906001600160a01b03821682036109f957565b6020908160408183019282815285518094520193019160005b828110610a3b575050505090565b83516001600160a01b031685529381019392810192600101610a2d565b600454811015610a8f5760046000527f8a35acfbc15ff81a39ae7d344fd709f28e8600b4aa8c65c6b64bfe7fe36bd19b0190600090565b634e487b7160e01b600052603260045260246000fd5b80600052600260205260406000203360005260205260ff6040600020541615610acb5750565b6044906040519063e2517d3f60e01b82523360048301526024820152fd5b906000918083526002602052604083209160018060a01b03169182845260205260ff60408420541615600014610b645780835260026020526040832082845260205260408320600160ff198254161790557f2f8788117e7eff1d82e926ec794901d17c78024a50270940304540a733656f0d339380a4600190565b505090565b906000918083526002602052604083209160018060a01b03169182845260205260ff604084205416600014610b64578083526002602052604083208284526020526040832060ff1981541690557ff6391f5c32d9c69d2a47ea670b442974b53935d1edc7fd64eb21e047a839171b339380a4600190565b6000546001600160a01b03163303610bf457565b60405163118cdaa760e01b8152336004820152602490fd5b67ffffffffffffffff8111610c2057604052565b634e487b7160e01b600052604160045260246000fd5b90601f8019910116810190811067ffffffffffffffff821117610c2057604052565b67ffffffffffffffff8111610c205760051b60200190565b91908203918211610c7d57565b634e487b7160e01b600052601160045260246000fd5b90600480549182841015610d9457830191828411610d7f57808311610d77575b50610cbe8383610c70565b92610cc884610c58565b93610cd66040519586610c36565b808552610ce5601f1991610c58565b016020903682870137815b848110610cff57505050505090565b610d0881610a58565b905490610d158584610c70565b918851831015610d615760039190911b1c6001600160a01b031660059190911b87018301526000198114610d4b57600101610cf0565b634e487b7160e01b600090815260118552602490fd5b634e487b7160e01b600090815260328852602490fd5b915038610cb3565b601182634e487b7160e01b6000525260246000fd5b50604051925060208301915067ffffffffffffffff821183831017610dc3575060405260008152600036813790565b604190634e487b7160e01b6000525260246000fdfea2646970667358221220a05ccb3c6ee1eb37c2ca99f1c5e2e1cd12148f52163a2924f3a518dc1b2089c464736f6c63430008140033","opcodes":"PUSH1 0x80 CALLVALUE PUSH3 0x32A JUMPI PUSH1 0x1F PUSH3 0x11FB CODESIZE DUP2 SWAP1 SUB SWAP2 DUP3 ADD PUSH1 0x1F NOT AND DUP4 ADD SWAP3 SWAP2 SWAP1 PUSH1 0x1 PUSH1 0x1 PUSH1 0x40 SHL SUB DUP5 GT DUP4 DUP6 LT OR PUSH3 0x32F JUMPI DUP2 PUSH1 0xC0 SWAP3 DUP5 SWAP3 PUSH1 0x40 SWAP7 DUP8 MSTORE DUP4 CODECOPY DUP2 ADD SUB SLT PUSH3 0x32A JUMPI PUSH3 0x51 DUP2 PUSH3 0x345 JUMP JUMPDEST SWAP1 PUSH1 0x20 SWAP2 PUSH3 0x62 DUP4 DUP4 ADD PUSH3 0x345 JUMP JUMPDEST SWAP2 PUSH3 0x70 DUP6 DUP3 ADD PUSH3 0x345 JUMP JUMPDEST PUSH3 0x7E PUSH1 0x60 DUP4 ADD PUSH3 0x345 JUMP JUMPDEST SWAP1 PUSH3 0x9B PUSH1 0xA0 PUSH3 0x93 PUSH1 0x80 DUP7 ADD PUSH3 0x345 JUMP JUMPDEST SWAP5 ADD PUSH3 0x345 JUMP JUMPDEST SWAP4 CALLER ISZERO PUSH3 0x312 JUMPI PUSH1 0x0 SLOAD SWAP1 PUSH1 0x1 DUP1 PUSH1 0xA0 SHL SUB NOT SWAP7 CALLER DUP9 DUP5 AND OR PUSH1 0x0 SSTORE DUP10 MLOAD SWAP3 PUSH1 0x1 DUP1 PUSH1 0xA0 SHL SUB SWAP3 DUP4 SWAP2 DUP3 CALLER SWAP2 AND PUSH32 0x8BE0079C531659141344CD1FD0A4F28419497F9722A3DAAFE3B4186F6B6457E0 PUSH1 0x0 DUP1 LOG3 PUSH1 0x1 DUP1 SSTORE AND SWAP3 DUP4 ISZERO PUSH3 0x2D0 JUMPI POP DUP2 AND SWAP3 DUP4 ISZERO PUSH3 0x28C JUMPI DUP2 AND SWAP4 DUP5 ISZERO PUSH3 0x248 JUMPI DUP2 AND SWAP5 DUP6 ISZERO PUSH3 0x204 JUMPI DUP2 AND SWAP6 DUP7 ISZERO PUSH3 0x1C0 JUMPI AND SWAP7 DUP8 ISZERO PUSH3 0x17D JUMPI POP DUP6 PUSH1 0xB SLOAD AND OR PUSH1 0xB SSTORE DUP5 PUSH1 0x6 SLOAD AND OR PUSH1 0x6 SSTORE DUP4 PUSH1 0x7 SLOAD AND OR PUSH1 0x7 SSTORE DUP3 PUSH1 0x8 SLOAD AND OR PUSH1 0x8 SSTORE DUP2 PUSH1 0x9 SLOAD AND OR PUSH1 0x9 SSTORE PUSH1 0xA SLOAD AND OR PUSH1 0xA SSTORE PUSH3 0x16E CALLER PUSH3 0x35A JUMP JUMPDEST POP MLOAD PUSH2 0xE0E SWAP1 DUP2 PUSH3 0x3ED DUP3 CODECOPY RETURN JUMPDEST PUSH1 0x64 SWAP1 DUP10 MLOAD SWAP1 PUSH3 0x461BCD PUSH1 0xE5 SHL DUP3 MSTORE PUSH1 0x4 DUP3 ADD MSTORE PUSH1 0x1C PUSH1 0x24 DUP3 ADD MSTORE PUSH32 0x496E76616C6964207969656C64206F7261636C65206164647265737300000000 PUSH1 0x44 DUP3 ADD MSTORE REVERT JUMPDEST DUP10 MLOAD PUSH3 0x461BCD PUSH1 0xE5 SHL DUP2 MSTORE PUSH1 0x4 DUP2 ADD DUP11 SWAP1 MSTORE PUSH1 0x13 PUSH1 0x24 DUP3 ADD MSTORE PUSH32 0x496E76616C696420444558206164647265737300000000000000000000000000 PUSH1 0x44 DUP3 ADD MSTORE PUSH1 0x64 SWAP1 REVERT JUMPDEST DUP10 MLOAD PUSH3 0x461BCD PUSH1 0xE5 SHL DUP2 MSTORE PUSH1 0x4 DUP2 ADD DUP11 SWAP1 MSTORE PUSH1 0x15 PUSH1 0x24 DUP3 ADD MSTORE PUSH32 0x496E76616C696420635245414C20616464726573730000000000000000000000 PUSH1 0x44 DUP3 ADD MSTORE PUSH1 0x64 SWAP1 REVERT JUMPDEST DUP10 MLOAD PUSH3 0x461BCD PUSH1 0xE5 SHL DUP2 MSTORE PUSH1 0x4 DUP2 ADD DUP11 SWAP1 MSTORE PUSH1 0x14 PUSH1 0x24 DUP3 ADD MSTORE PUSH32 0x496E76616C696420634555522061646472657373000000000000000000000000 PUSH1 0x44 DUP3 ADD MSTORE PUSH1 0x64 SWAP1 REVERT JUMPDEST DUP10 MLOAD PUSH3 0x461BCD PUSH1 0xE5 SHL DUP2 MSTORE PUSH1 0x4 DUP2 ADD DUP11 SWAP1 MSTORE PUSH1 0x14 PUSH1 0x24 DUP3 ADD MSTORE PUSH32 0x496E76616C696420635553442061646472657373000000000000000000000000 PUSH1 0x44 DUP3 ADD MSTORE PUSH1 0x64 SWAP1 REVERT JUMPDEST PUSH3 0x461BCD PUSH1 0xE5 SHL DUP2 MSTORE PUSH1 0x4 DUP2 ADD DUP11 SWAP1 MSTORE PUSH1 0x1E PUSH1 0x24 DUP3 ADD MSTORE PUSH32 0x496E76616C696420696D706C656D656E746174696F6E20616464726573730000 PUSH1 0x44 DUP3 ADD MSTORE PUSH1 0x64 SWAP1 REVERT JUMPDEST DUP8 MLOAD PUSH4 0x1E4FBDF7 PUSH1 0xE0 SHL DUP2 MSTORE PUSH1 0x0 PUSH1 0x4 DUP3 ADD MSTORE PUSH1 0x24 SWAP1 REVERT JUMPDEST PUSH1 0x0 DUP1 REVERT JUMPDEST PUSH4 0x4E487B71 PUSH1 0xE0 SHL PUSH1 0x0 MSTORE PUSH1 0x41 PUSH1 0x4 MSTORE PUSH1 0x24 PUSH1 0x0 REVERT JUMPDEST MLOAD SWAP1 PUSH1 0x1 PUSH1 0x1 PUSH1 0xA0 SHL SUB DUP3 AND DUP3 SUB PUSH3 0x32A JUMPI JUMP JUMPDEST PUSH1 0x1 PUSH1 0x1 PUSH1 0xA0 SHL SUB AND PUSH1 0x0 DUP2 DUP2 MSTORE PUSH32 0xAC33FF75C19E70FE83507DB0D683FD3465C996598DC972688B7ACE676C89077B PUSH1 0x20 MSTORE PUSH1 0x40 DUP2 KECCAK256 SLOAD SWAP1 SWAP2 SWAP1 PUSH1 0xFF AND PUSH3 0x3E8 JUMPI DUP2 DUP1 MSTORE PUSH1 0x2 PUSH1 0x20 MSTORE PUSH1 0x40 DUP3 KECCAK256 DUP2 DUP4 MSTORE PUSH1 0x20 MSTORE PUSH1 0x40 DUP3 KECCAK256 PUSH1 0x1 PUSH1 0xFF NOT DUP3 SLOAD AND OR SWAP1 SSTORE CALLER SWAP2 PUSH32 0x2F8788117E7EFF1D82E926EC794901D17C78024A50270940304540A733656F0D DUP2 DUP1 LOG4 PUSH1 0x1 SWAP1 JUMP JUMPDEST POP SWAP1 JUMP INVALID PUSH1 0x80 PUSH1 0x40 DUP2 DUP2 MSTORE PUSH1 0x4 DUP1 CALLDATASIZE LT ISZERO PUSH2 0x15 JUMPI PUSH1 0x0 DUP1 REVERT JUMPDEST PUSH1 0x0 SWAP3 DUP4 CALLDATALOAD PUSH1 0xE0 SHR SWAP1 DUP2 PUSH4 0x1FFC9A7 EQ PUSH2 0x98F JUMPI POP DUP1 PUSH4 0x1FCCF672 EQ PUSH2 0x966 JUMPI DUP1 PUSH4 0x248A9CA3 EQ PUSH2 0x93C JUMPI DUP1 PUSH4 0x2F2FF15D EQ PUSH2 0x913 JUMPI DUP1 PUSH4 0x36568ABE EQ PUSH2 0x8CC JUMPI DUP1 PUSH4 0x44D00F82 EQ PUSH2 0x841 JUMPI DUP1 PUSH4 0x53E78B6B EQ PUSH2 0x791 JUMPI DUP1 PUSH4 0x5D12928B EQ PUSH2 0x4C7 JUMPI DUP1 PUSH4 0x652B9B41 EQ PUSH2 0x489 JUMPI DUP1 PUSH4 0x692058C2 EQ PUSH2 0x460 JUMPI DUP1 PUSH4 0x715018A6 EQ PUSH2 0x406 JUMPI DUP1 PUSH4 0x74D4E491 EQ PUSH2 0x3E9 JUMPI DUP1 PUSH4 0x7D1F2DE7 EQ PUSH2 0x3C0 JUMPI DUP1 PUSH4 0x8DA5CB5B EQ PUSH2 0x398 JUMPI DUP1 PUSH4 0x9094A91E EQ PUSH2 0x358 JUMPI DUP1 PUSH4 0x91D14854 EQ PUSH2 0x313 JUMPI DUP1 PUSH4 0xA217FDDF EQ PUSH2 0x2F8 JUMPI DUP1 PUSH4 0xA7F0E342 EQ PUSH2 0x2CF JUMPI DUP1 PUSH4 0xB98CCA37 EQ PUSH2 0x299 JUMPI DUP1 PUSH4 0xBBA48A90 EQ PUSH2 0x270 JUMPI DUP1 PUSH4 0xBC721A96 EQ PUSH2 0x1C9 JUMPI DUP1 PUSH4 0xD47CE0A6 EQ PUSH2 0x247 JUMPI DUP1 PUSH4 0xD547741F EQ PUSH2 0x208 JUMPI DUP1 PUSH4 0xEF88C31E EQ PUSH2 0x1C9 JUMPI PUSH4 0xF2FDE38B EQ PUSH2 0x136 JUMPI PUSH1 0x0 DUP1 REVERT JUMPDEST CALLVALUE PUSH2 0x1C5 JUMPI PUSH1 0x20 CALLDATASIZE PUSH1 0x3 NOT ADD SLT PUSH2 0x1C5 JUMPI PUSH2 0x14F PUSH2 0x9FE JUMP JUMPDEST SWAP1 PUSH2 0x158 PUSH2 0xBE0 JUMP JUMPDEST PUSH1 0x1 PUSH1 0x1 PUSH1 0xA0 SHL SUB SWAP2 DUP3 AND SWAP3 DUP4 ISZERO PUSH2 0x1AF JUMPI POP POP PUSH1 0x0 SLOAD DUP3 PUSH12 0xFFFFFFFFFFFFFFFFFFFFFFFF PUSH1 0xA0 SHL DUP3 AND OR PUSH1 0x0 SSTORE AND PUSH32 0x8BE0079C531659141344CD1FD0A4F28419497F9722A3DAAFE3B4186F6B6457E0 PUSH1 0x0 DUP1 LOG3 DUP1 RETURN JUMPDEST MLOAD PUSH4 0x1E4FBDF7 PUSH1 0xE0 SHL DUP2 MSTORE SWAP1 DUP2 ADD DUP5 SWAP1 MSTORE PUSH1 0x24 SWAP1 REVERT JUMPDEST DUP3 DUP1 REVERT JUMPDEST POP POP CALLVALUE PUSH2 0x204 JUMPI PUSH1 0x20 CALLDATASIZE PUSH1 0x3 NOT ADD SLT PUSH2 0x204 JUMPI PUSH1 0x20 SWAP2 PUSH1 0x1 PUSH1 0x1 PUSH1 0xA0 SHL SUB SWAP1 DUP3 SWAP1 DUP3 PUSH2 0x1F3 PUSH2 0x9FE JUMP JUMPDEST AND DUP2 MSTORE PUSH1 0x3 DUP6 MSTORE KECCAK256 SLOAD AND SWAP1 MLOAD SWAP1 DUP2 MSTORE RETURN JUMPDEST POP DUP1 REVERT JUMPDEST POP SWAP1 CALLVALUE PUSH2 0x1C5 JUMPI DUP1 PUSH1 0x3 NOT CALLDATASIZE ADD SLT PUSH2 0x1C5 JUMPI PUSH2 0x243 SWAP2 CALLDATALOAD PUSH2 0x23E PUSH1 0x1 PUSH2 0x22C PUSH2 0x9E3 JUMP JUMPDEST SWAP4 DUP4 DUP8 MSTORE PUSH1 0x2 PUSH1 0x20 MSTORE DUP7 KECCAK256 ADD SLOAD PUSH2 0xAA5 JUMP JUMPDEST PUSH2 0xB69 JUMP JUMPDEST POP DUP1 RETURN JUMPDEST POP POP CALLVALUE PUSH2 0x204 JUMPI DUP2 PUSH1 0x3 NOT CALLDATASIZE ADD SLT PUSH2 0x204 JUMPI PUSH1 0x8 SLOAD SWAP1 MLOAD PUSH1 0x1 PUSH1 0x1 PUSH1 0xA0 SHL SUB SWAP1 SWAP2 AND DUP2 MSTORE PUSH1 0x20 SWAP1 RETURN JUMPDEST POP POP CALLVALUE PUSH2 0x204 JUMPI DUP2 PUSH1 0x3 NOT CALLDATASIZE ADD SLT PUSH2 0x204 JUMPI PUSH1 0xB SLOAD SWAP1 MLOAD PUSH1 0x1 PUSH1 0x1 PUSH1 0xA0 SHL SUB SWAP1 SWAP2 AND DUP2 MSTORE PUSH1 0x20 SWAP1 RETURN JUMPDEST POP SWAP2 CALLVALUE PUSH2 0x2CC JUMPI DUP2 PUSH1 0x3 NOT CALLDATASIZE ADD SLT PUSH2 0x2CC JUMPI POP PUSH2 0x2BD PUSH2 0x2C8 SWAP3 PUSH1 0x24 CALLDATALOAD SWAP1 CALLDATALOAD PUSH2 0xC93 JUMP JUMPDEST SWAP1 MLOAD SWAP2 DUP3 SWAP2 DUP3 PUSH2 0xA14 JUMP JUMPDEST SUB SWAP1 RETURN JUMPDEST DUP1 REVERT JUMPDEST POP POP CALLVALUE PUSH2 0x204 JUMPI DUP2 PUSH1 0x3 NOT CALLDATASIZE ADD SLT PUSH2 0x204 JUMPI PUSH1 0xA SLOAD SWAP1 MLOAD PUSH1 0x1 PUSH1 0x1 PUSH1 0xA0 SHL SUB SWAP1 SWAP2 AND DUP2 MSTORE PUSH1 0x20 SWAP1 RETURN JUMPDEST POP POP CALLVALUE PUSH2 0x204 JUMPI DUP2 PUSH1 0x3 NOT CALLDATASIZE ADD SLT PUSH2 0x204 JUMPI MLOAD SWAP1 DUP2 MSTORE PUSH1 0x20 SWAP1 RETURN JUMPDEST POP CALLVALUE PUSH2 0x1C5 JUMPI DUP2 PUSH1 0x3 NOT CALLDATASIZE ADD SLT PUSH2 0x1C5 JUMPI DUP2 PUSH1 0x20 SWAP4 PUSH2 0x330 PUSH2 0x9E3 JUMP JUMPDEST SWAP3 CALLDATALOAD DUP2 MSTORE PUSH1 0x2 DUP6 MSTORE KECCAK256 SWAP1 PUSH1 0x1 DUP1 PUSH1 0xA0 SHL SUB AND PUSH1 0x0 MSTORE DUP3 MSTORE PUSH1 0xFF DUP2 PUSH1 0x0 KECCAK256 SLOAD AND SWAP1 MLOAD SWAP1 ISZERO ISZERO DUP2 MSTORE RETURN JUMPDEST POP SWAP2 CALLVALUE PUSH2 0x2CC JUMPI PUSH1 0x20 CALLDATASIZE PUSH1 0x3 NOT ADD SLT PUSH2 0x2CC JUMPI DUP3 CALLDATALOAD SWAP3 SLOAD DUP4 LT ISZERO PUSH2 0x2CC JUMPI POP PUSH2 0x382 PUSH1 0x20 SWAP3 PUSH2 0xA58 JUMP JUMPDEST SWAP1 SLOAD SWAP2 MLOAD SWAP2 PUSH1 0x1 DUP1 PUSH1 0xA0 SHL SUB SWAP2 PUSH1 0x3 SHL SHR AND DUP2 MSTORE RETURN JUMPDEST POP POP CALLVALUE PUSH2 0x204 JUMPI DUP2 PUSH1 0x3 NOT CALLDATASIZE ADD SLT PUSH2 0x204 JUMPI SWAP1 SLOAD SWAP1 MLOAD PUSH1 0x1 PUSH1 0x1 PUSH1 0xA0 SHL SUB SWAP1 SWAP2 AND DUP2 MSTORE PUSH1 0x20 SWAP1 RETURN JUMPDEST POP POP CALLVALUE PUSH2 0x204 JUMPI DUP2 PUSH1 0x3 NOT CALLDATASIZE ADD SLT PUSH2 0x204 JUMPI PUSH1 0x7 SLOAD SWAP1 MLOAD PUSH1 0x1 PUSH1 0x1 PUSH1 0xA0 SHL SUB SWAP1 SWAP2 AND DUP2 MSTORE PUSH1 0x20 SWAP1 RETURN JUMPDEST POP CALLVALUE PUSH2 0x1C5 JUMPI DUP3 PUSH1 0x3 NOT CALLDATASIZE ADD SLT PUSH2 0x1C5 JUMPI PUSH1 0x20 SWAP3 POP SLOAD SWAP1 MLOAD SWAP1 DUP2 MSTORE RETURN JUMPDEST DUP4 CALLVALUE PUSH2 0x2CC JUMPI DUP1 PUSH1 0x3 NOT CALLDATASIZE ADD SLT PUSH2 0x2CC JUMPI PUSH2 0x41F PUSH2 0xBE0 JUMP JUMPDEST PUSH1 0x0 DUP1 SLOAD PUSH1 0x1 PUSH1 0x1 PUSH1 0xA0 SHL SUB NOT DUP2 AND DUP3 SSTORE PUSH1 0x1 PUSH1 0x1 PUSH1 0xA0 SHL SUB AND PUSH32 0x8BE0079C531659141344CD1FD0A4F28419497F9722A3DAAFE3B4186F6B6457E0 DUP3 DUP1 LOG3 DUP1 RETURN JUMPDEST POP POP CALLVALUE PUSH2 0x204 JUMPI DUP2 PUSH1 0x3 NOT CALLDATASIZE ADD SLT PUSH2 0x204 JUMPI PUSH1 0x9 SLOAD SWAP1 MLOAD PUSH1 0x1 PUSH1 0x1 PUSH1 0xA0 SHL SUB SWAP1 SWAP2 AND DUP2 MSTORE PUSH1 0x20 SWAP1 RETURN JUMPDEST POP POP CALLVALUE PUSH2 0x204 JUMPI PUSH1 0x20 CALLDATASIZE PUSH1 0x3 NOT ADD SLT PUSH2 0x204 JUMPI PUSH1 0x20 SWAP2 PUSH1 0xFF SWAP1 DUP3 SWAP1 PUSH1 0x1 PUSH1 0x1 PUSH1 0xA0 SHL SUB PUSH2 0x4B4 PUSH2 0x9FE JUMP JUMPDEST AND DUP2 MSTORE PUSH1 0x5 DUP6 MSTORE KECCAK256 SLOAD AND SWAP1 MLOAD SWAP1 ISZERO ISZERO DUP2 MSTORE RETURN JUMPDEST POP DUP3 SWAP1 CALLVALUE PUSH2 0x204 JUMPI DUP2 PUSH1 0x3 NOT CALLDATASIZE ADD SLT PUSH2 0x204 JUMPI PUSH1 0x1 PUSH1 0x2 DUP2 SLOAD EQ PUSH2 0x782 JUMPI PUSH1 0x2 DUP2 SSTORE CALLER DUP4 MSTORE PUSH1 0x20 SWAP4 PUSH1 0x3 DUP6 MSTORE PUSH1 0x1 DUP1 PUSH1 0xA0 SHL SUB SWAP3 DUP4 DUP3 DUP7 KECCAK256 SLOAD AND PUSH2 0x741 JUMPI PUSH1 0xB SLOAD DUP5 DUP2 AND ISZERO PUSH2 0x6FF JUMPI PUSH1 0x88 DUP2 SWAP1 SHR PUSH3 0xFFFFFF AND PUSH23 0x3D602D80600A3D3981F3363D3D373D3D3D363D73000000 OR DUP7 MSTORE PUSH1 0x78 SHL PUSH15 0xFFFFFFFFFFFFFFFFFFFFFFFFFFFFFF NOT AND PUSH15 0x5AF43D82803E903D91602B57FD5BF3 OR DUP7 MSTORE DUP4 PUSH1 0x37 PUSH1 0x9 DUP8 CREATE AND SWAP4 DUP5 ISZERO PUSH2 0x6F0 JUMPI CALLER DUP7 MSTORE PUSH1 0x3 DUP8 MSTORE DUP3 DUP7 KECCAK256 DUP1 SLOAD PUSH1 0x1 PUSH1 0x1 PUSH1 0xA0 SHL SUB NOT AND DUP7 OR SWAP1 SSTORE DUP2 SLOAD PUSH9 0x10000000000000000 DUP2 LT ISZERO PUSH2 0x6DD JUMPI DUP1 DUP6 PUSH2 0x5A7 SWAP3 ADD DUP5 SSTORE PUSH2 0xA58 JUMP JUMPDEST DUP2 SLOAD SWAP1 PUSH1 0x3 SHL SWAP1 DUP4 DUP9 DUP4 SHL SWAP3 SHL NOT AND OR SWAP1 SSTORE DUP5 DUP7 MSTORE PUSH1 0x5 DUP8 MSTORE DUP3 DUP7 KECCAK256 DUP5 PUSH1 0xFF NOT DUP3 SLOAD AND OR SWAP1 SSTORE DUP1 PUSH1 0x6 SLOAD AND SWAP1 DUP1 PUSH1 0x7 SLOAD AND SWAP1 DUP1 PUSH1 0x8 SLOAD AND DUP2 PUSH1 0x9 SLOAD AND SWAP2 PUSH1 0xA SLOAD AND SWAP3 DUP9 EXTCODESIZE ISZERO PUSH2 0x6D9 JUMPI DUP7 MLOAD SWAP5 PUSH4 0xCC2A9A5B PUSH1 0xE0 SHL DUP7 MSTORE ADDRESS DUP8 DUP8 ADD MSTORE PUSH1 0x24 DUP7 ADD MSTORE PUSH1 0x44 DUP6 ADD MSTORE PUSH1 0x64 DUP5 ADD MSTORE PUSH1 0x84 DUP4 ADD MSTORE PUSH1 0xA4 DUP3 ADD MSTORE DUP6 DUP2 PUSH1 0xC4 DUP2 DUP4 DUP10 GAS CALL DUP1 ISZERO PUSH2 0x6CF JUMPI PUSH2 0x6BC JUMPI JUMPDEST POP DUP4 EXTCODESIZE ISZERO PUSH2 0x6B8 JUMPI DUP2 MLOAD SWAP1 PUSH4 0xF2FDE38B PUSH1 0xE0 SHL DUP3 MSTORE CALLER SWAP1 DUP3 ADD MSTORE DUP5 DUP2 PUSH1 0x24 DUP2 DUP4 DUP9 GAS CALL DUP1 ISZERO PUSH2 0x6AE JUMPI DUP5 SWAP3 SWAP2 DUP7 SWAP2 PUSH2 0x691 JUMPI JUMPDEST POP POP MLOAD SWAP4 PUSH32 0x5D9C31FFA0FECFFD7CF379989A3C7AF252F0335E0D2A1320B55245912C781F53 CALLER SWAP2 DUP1 LOG3 DUP1 SSTORE DUP2 MSTORE RETURN JUMPDEST PUSH2 0x69D SWAP2 SWAP3 SWAP4 POP PUSH2 0xC0C JUMP JUMPDEST PUSH2 0x6AA JUMPI DUP3 SWAP1 DUP5 DUP8 PUSH2 0x662 JUMP JUMPDEST DUP4 DUP1 REVERT JUMPDEST DUP3 MLOAD RETURNDATASIZE DUP8 DUP3 RETURNDATACOPY RETURNDATASIZE SWAP1 REVERT JUMPDEST DUP5 DUP1 REVERT JUMPDEST PUSH2 0x6C8 SWAP1 SWAP6 SWAP2 SWAP6 PUSH2 0xC0C JUMP JUMPDEST SWAP4 DUP7 PUSH2 0x62F JUMP JUMPDEST DUP4 MLOAD RETURNDATASIZE DUP9 DUP3 RETURNDATACOPY RETURNDATASIZE SWAP1 REVERT JUMPDEST DUP10 DUP1 REVERT JUMPDEST PUSH4 0x4E487B71 PUSH1 0xE0 SHL DUP8 MSTORE PUSH1 0x41 DUP4 MSTORE PUSH1 0x24 DUP8 REVERT JUMPDEST POP SWAP1 MLOAD PUSH4 0xB06EBF3D PUSH1 0xE0 SHL DUP2 MSTORE REVERT JUMPDEST POP DUP6 PUSH1 0x64 SWAP3 MLOAD SWAP2 PUSH3 0x461BCD PUSH1 0xE5 SHL DUP4 MSTORE DUP3 ADD MSTORE PUSH1 0x1C PUSH1 0x24 DUP3 ADD MSTORE PUSH32 0x5661756C7420696D706C656D656E746174696F6E206E6F742073657400000000 PUSH1 0x44 DUP3 ADD MSTORE REVERT JUMPDEST DUP6 PUSH1 0x64 SWAP3 MLOAD SWAP2 PUSH3 0x461BCD PUSH1 0xE5 SHL DUP4 MSTORE DUP3 ADD MSTORE PUSH1 0x1D PUSH1 0x24 DUP3 ADD MSTORE PUSH32 0x5661756C7420616C72656164792065786973747320666F722075736572000000 PUSH1 0x44 DUP3 ADD MSTORE REVERT JUMPDEST POP DUP3 MLOAD PUSH4 0x3EE5AEB5 PUSH1 0xE0 SHL DUP2 MSTORE REVERT JUMPDEST POP CALLVALUE PUSH2 0x1C5 JUMPI PUSH1 0x20 CALLDATASIZE PUSH1 0x3 NOT ADD SLT PUSH2 0x1C5 JUMPI PUSH2 0x7AB PUSH2 0x9FE JUMP JUMPDEST PUSH2 0x7B3 PUSH2 0xBE0 JUMP JUMPDEST PUSH1 0x1 PUSH1 0x1 PUSH1 0xA0 SHL SUB AND SWAP2 DUP3 ISZERO PUSH2 0x7FE JUMPI POP POP PUSH1 0xB DUP1 SLOAD PUSH1 0x1 PUSH1 0x1 PUSH1 0xA0 SHL SUB NOT AND DUP3 OR SWAP1 SSTORE PUSH32 0x310BA5F1D2ED074B51E2ECCD052A47AE9AB7C6B800D1FCA3DB3999D6A592CA03 DUP3 DUP1 LOG2 DUP1 RETURN JUMPDEST SWAP1 PUSH1 0x20 PUSH1 0x64 SWAP3 MLOAD SWAP2 PUSH3 0x461BCD PUSH1 0xE5 SHL DUP4 MSTORE DUP3 ADD MSTORE PUSH1 0x1E PUSH1 0x24 DUP3 ADD MSTORE PUSH32 0x496E76616C696420696D706C656D656E746174696F6E20616464726573730000 PUSH1 0x44 DUP3 ADD MSTORE REVERT JUMPDEST POP SWAP2 SWAP1 CALLVALUE PUSH2 0x204 JUMPI DUP2 PUSH1 0x3 NOT CALLDATASIZE ADD SLT PUSH2 0x204 JUMPI DUP1 MLOAD SWAP2 DUP3 DUP5 SLOAD SWAP1 DUP2 DUP2 MSTORE PUSH1 0x20 DUP1 SWAP2 ADD SWAP6 DUP4 MSTORE PUSH32 0x8A35ACFBC15FF81A39AE7D344FD709F28E8600B4AA8C65C6B64BFE7FE36BD19B SWAP3 SWAP1 JUMPDEST DUP3 DUP3 LT PUSH2 0x8AC JUMPI PUSH2 0x2C8 DUP7 DUP7 PUSH2 0x8A2 DUP3 DUP12 SUB DUP4 PUSH2 0xC36 JUMP JUMPDEST MLOAD SWAP2 DUP3 SWAP2 DUP3 PUSH2 0xA14 JUMP JUMPDEST DUP4 SLOAD PUSH1 0x1 PUSH1 0x1 PUSH1 0xA0 SHL SUB AND DUP8 MSTORE SWAP6 DUP7 ADD SWAP6 PUSH1 0x1 SWAP4 DUP5 ADD SWAP4 SWAP1 SWAP2 ADD SWAP1 PUSH2 0x88A JUMP JUMPDEST POP SWAP2 SWAP1 CALLVALUE PUSH2 0x204 JUMPI DUP1 PUSH1 0x3 NOT CALLDATASIZE ADD SLT PUSH2 0x204 JUMPI PUSH2 0x8E7 PUSH2 0x9E3 JUMP JUMPDEST SWAP1 CALLER PUSH1 0x1 PUSH1 0x1 PUSH1 0xA0 SHL SUB DUP4 AND SUB PUSH2 0x904 JUMPI POP PUSH2 0x243 SWAP2 SWAP3 CALLDATALOAD PUSH2 0xB69 JUMP JUMPDEST MLOAD PUSH4 0x334BD919 PUSH1 0xE1 SHL DUP2 MSTORE DUP4 SWAP1 REVERT JUMPDEST POP SWAP1 CALLVALUE PUSH2 0x1C5 JUMPI DUP1 PUSH1 0x3 NOT CALLDATASIZE ADD SLT PUSH2 0x1C5 JUMPI PUSH2 0x243 SWAP2 CALLDATALOAD PUSH2 0x937 PUSH1 0x1 PUSH2 0x22C PUSH2 0x9E3 JUMP JUMPDEST PUSH2 0xAE9 JUMP JUMPDEST POP CALLVALUE PUSH2 0x1C5 JUMPI PUSH1 0x20 CALLDATASIZE PUSH1 0x3 NOT ADD SLT PUSH2 0x1C5 JUMPI DUP2 PUSH1 0x20 SWAP4 PUSH1 0x1 SWAP3 CALLDATALOAD DUP2 MSTORE PUSH1 0x2 DUP6 MSTORE KECCAK256 ADD SLOAD SWAP1 MLOAD SWAP1 DUP2 MSTORE RETURN JUMPDEST POP POP CALLVALUE PUSH2 0x204 JUMPI DUP2 PUSH1 0x3 NOT CALLDATASIZE ADD SLT PUSH2 0x204 JUMPI PUSH1 0x6 SLOAD SWAP1 MLOAD PUSH1 0x1 PUSH1 0x1 PUSH1 0xA0 SHL SUB SWAP1 SWAP2 AND DUP2 MSTORE PUSH1 0x20 SWAP1 RETURN JUMPDEST SWAP3 POP POP CALLVALUE PUSH2 0x1C5 JUMPI PUSH1 0x20 CALLDATASIZE PUSH1 0x3 NOT ADD SLT PUSH2 0x1C5 JUMPI CALLDATALOAD PUSH4 0xFFFFFFFF PUSH1 0xE0 SHL DUP2 AND DUP1 SWAP2 SUB PUSH2 0x1C5 JUMPI PUSH1 0x20 SWAP3 POP PUSH4 0x7965DB0B PUSH1 0xE0 SHL DUP2 EQ SWAP1 DUP2 ISZERO PUSH2 0x9D2 JUMPI JUMPDEST POP ISZERO ISZERO DUP2 MSTORE RETURN JUMPDEST PUSH4 0x1FFC9A7 PUSH1 0xE0 SHL EQ SWAP1 POP CODESIZE PUSH2 0x9CB JUMP JUMPDEST PUSH1 0x24 CALLDATALOAD SWAP1 PUSH1 0x1 PUSH1 0x1 PUSH1 0xA0 SHL SUB DUP3 AND DUP3 SUB PUSH2 0x9F9 JUMPI JUMP JUMPDEST PUSH1 0x0 DUP1 REVERT JUMPDEST PUSH1 0x4 CALLDATALOAD SWAP1 PUSH1 0x1 PUSH1 0x1 PUSH1 0xA0 SHL SUB DUP3 AND DUP3 SUB PUSH2 0x9F9 JUMPI JUMP JUMPDEST PUSH1 0x20 SWAP1 DUP2 PUSH1 0x40 DUP2 DUP4 ADD SWAP3 DUP3 DUP2 MSTORE DUP6 MLOAD DUP1 SWAP5 MSTORE ADD SWAP4 ADD SWAP2 PUSH1 0x0 JUMPDEST DUP3 DUP2 LT PUSH2 0xA3B JUMPI POP POP POP POP SWAP1 JUMP JUMPDEST DUP4 MLOAD PUSH1 0x1 PUSH1 0x1 PUSH1 0xA0 SHL SUB AND DUP6 MSTORE SWAP4 DUP2 ADD SWAP4 SWAP3 DUP2 ADD SWAP3 PUSH1 0x1 ADD PUSH2 0xA2D JUMP JUMPDEST PUSH1 0x4 SLOAD DUP2 LT ISZERO PUSH2 0xA8F JUMPI PUSH1 0x4 PUSH1 0x0 MSTORE PUSH32 0x8A35ACFBC15FF81A39AE7D344FD709F28E8600B4AA8C65C6B64BFE7FE36BD19B ADD SWAP1 PUSH1 0x0 SWAP1 JUMP JUMPDEST PUSH4 0x4E487B71 PUSH1 0xE0 SHL PUSH1 0x0 MSTORE PUSH1 0x32 PUSH1 0x4 MSTORE PUSH1 0x24 PUSH1 0x0 REVERT JUMPDEST DUP1 PUSH1 0x0 MSTORE PUSH1 0x2 PUSH1 0x20 MSTORE PUSH1 0x40 PUSH1 0x0 KECCAK256 CALLER PUSH1 0x0 MSTORE PUSH1 0x20 MSTORE PUSH1 0xFF PUSH1 0x40 PUSH1 0x0 KECCAK256 SLOAD AND ISZERO PUSH2 0xACB JUMPI POP JUMP JUMPDEST PUSH1 0x44 SWAP1 PUSH1 0x40 MLOAD SWAP1 PUSH4 0xE2517D3F PUSH1 0xE0 SHL DUP3 MSTORE CALLER PUSH1 0x4 DUP4 ADD MSTORE PUSH1 0x24 DUP3 ADD MSTORE REVERT JUMPDEST SWAP1 PUSH1 0x0 SWAP2 DUP1 DUP4 MSTORE PUSH1 0x2 PUSH1 0x20 MSTORE PUSH1 0x40 DUP4 KECCAK256 SWAP2 PUSH1 0x1 DUP1 PUSH1 0xA0 SHL SUB AND SWAP2 DUP3 DUP5 MSTORE PUSH1 0x20 MSTORE PUSH1 0xFF PUSH1 0x40 DUP5 KECCAK256 SLOAD AND ISZERO PUSH1 0x0 EQ PUSH2 0xB64 JUMPI DUP1 DUP4 MSTORE PUSH1 0x2 PUSH1 0x20 MSTORE PUSH1 0x40 DUP4 KECCAK256 DUP3 DUP5 MSTORE PUSH1 0x20 MSTORE PUSH1 0x40 DUP4 KECCAK256 PUSH1 0x1 PUSH1 0xFF NOT DUP3 SLOAD AND OR SWAP1 SSTORE PUSH32 0x2F8788117E7EFF1D82E926EC794901D17C78024A50270940304540A733656F0D CALLER SWAP4 DUP1 LOG4 PUSH1 0x1 SWAP1 JUMP JUMPDEST POP POP SWAP1 JUMP JUMPDEST SWAP1 PUSH1 0x0 SWAP2 DUP1 DUP4 MSTORE PUSH1 0x2 PUSH1 0x20 MSTORE PUSH1 0x40 DUP4 KECCAK256 SWAP2 PUSH1 0x1 DUP1 PUSH1 0xA0 SHL SUB AND SWAP2 DUP3 DUP5 MSTORE PUSH1 0x20 MSTORE PUSH1 0xFF PUSH1 0x40 DUP5 KECCAK256 SLOAD AND PUSH1 0x0 EQ PUSH2 0xB64 JUMPI DUP1 DUP4 MSTORE PUSH1 0x2 PUSH1 0x20 MSTORE PUSH1 0x40 DUP4 KECCAK256 DUP3 DUP5 MSTORE PUSH1 0x20 MSTORE PUSH1 0x40 DUP4 KECCAK256 PUSH1 0xFF NOT DUP2 SLOAD AND SWAP1 SSTORE PUSH32 0xF6391F5C32D9C69D2A47EA670B442974B53935D1EDC7FD64EB21E047A839171B CALLER SWAP4 DUP1 LOG4 PUSH1 0x1 SWAP1 JUMP JUMPDEST PUSH1 0x0 SLOAD PUSH1 0x1 PUSH1 0x1 PUSH1 0xA0 SHL SUB AND CALLER SUB PUSH2 0xBF4 JUMPI JUMP JUMPDEST PUSH1 0x40 MLOAD PUSH4 0x118CDAA7 PUSH1 0xE0 SHL DUP2 MSTORE CALLER PUSH1 0x4 DUP3 ADD MSTORE PUSH1 0x24 SWAP1 REVERT JUMPDEST PUSH8 0xFFFFFFFFFFFFFFFF DUP2 GT PUSH2 0xC20 JUMPI PUSH1 0x40 MSTORE JUMP JUMPDEST PUSH4 0x4E487B71 PUSH1 0xE0 SHL PUSH1 0x0 MSTORE PUSH1 0x41 PUSH1 0x4 MSTORE PUSH1 0x24 PUSH1 0x0 REVERT JUMPDEST SWAP1 PUSH1 0x1F DUP1 NOT SWAP2 ADD AND DUP2 ADD SWAP1 DUP2 LT PUSH8 0xFFFFFFFFFFFFFFFF DUP3 GT OR PUSH2 0xC20 JUMPI PUSH1 0x40 MSTORE JUMP JUMPDEST PUSH8 0xFFFFFFFFFFFFFFFF DUP2 GT PUSH2 0xC20 JUMPI PUSH1 0x5 SHL PUSH1 0x20 ADD SWAP1 JUMP JUMPDEST SWAP2 SWAP1 DUP3 SUB SWAP2 DUP3 GT PUSH2 0xC7D JUMPI JUMP JUMPDEST PUSH4 0x4E487B71 PUSH1 0xE0 SHL PUSH1 0x0 MSTORE PUSH1 0x11 PUSH1 0x4 MSTORE PUSH1 0x24 PUSH1 0x0 REVERT JUMPDEST SWAP1 PUSH1 0x4 DUP1 SLOAD SWAP2 DUP3 DUP5 LT ISZERO PUSH2 0xD94 JUMPI DUP4 ADD SWAP2 DUP3 DUP5 GT PUSH2 0xD7F JUMPI DUP1 DUP4 GT PUSH2 0xD77 JUMPI JUMPDEST POP PUSH2 0xCBE DUP4 DUP4 PUSH2 0xC70 JUMP JUMPDEST SWAP3 PUSH2 0xCC8 DUP5 PUSH2 0xC58 JUMP JUMPDEST SWAP4 PUSH2 0xCD6 PUSH1 0x40 MLOAD SWAP6 DUP7 PUSH2 0xC36 JUMP JUMPDEST DUP1 DUP6 MSTORE PUSH2 0xCE5 PUSH1 0x1F NOT SWAP2 PUSH2 0xC58 JUMP JUMPDEST ADD PUSH1 0x20 SWAP1 CALLDATASIZE DUP3 DUP8 ADD CALLDATACOPY DUP2 JUMPDEST DUP5 DUP2 LT PUSH2 0xCFF JUMPI POP POP POP POP POP SWAP1 JUMP JUMPDEST PUSH2 0xD08 DUP2 PUSH2 0xA58 JUMP JUMPDEST SWAP1 SLOAD SWAP1 PUSH2 0xD15 DUP6 DUP5 PUSH2 0xC70 JUMP JUMPDEST SWAP2 DUP9 MLOAD DUP4 LT ISZERO PUSH2 0xD61 JUMPI PUSH1 0x3 SWAP2 SWAP1 SWAP2 SHL SHR PUSH1 0x1 PUSH1 0x1 PUSH1 0xA0 SHL SUB AND PUSH1 0x5 SWAP2 SWAP1 SWAP2 SHL DUP8 ADD DUP4 ADD MSTORE PUSH1 0x0 NOT DUP2 EQ PUSH2 0xD4B JUMPI PUSH1 0x1 ADD PUSH2 0xCF0 JUMP JUMPDEST PUSH4 0x4E487B71 PUSH1 0xE0 SHL PUSH1 0x0 SWAP1 DUP2 MSTORE PUSH1 0x11 DUP6 MSTORE PUSH1 0x24 SWAP1 REVERT JUMPDEST PUSH4 0x4E487B71 PUSH1 0xE0 SHL PUSH1 0x0 SWAP1 DUP2 MSTORE PUSH1 0x32 DUP9 MSTORE PUSH1 0x24 SWAP1 REVERT JUMPDEST SWAP2 POP CODESIZE PUSH2 0xCB3 JUMP JUMPDEST PUSH1 0x11 DUP3 PUSH4 0x4E487B71 PUSH1 0xE0 SHL PUSH1 0x0 MSTORE MSTORE PUSH1 0x24 PUSH1 0x0 REVERT JUMPDEST POP PUSH1 0x40 MLOAD SWAP3 POP PUSH1 0x20 DUP4 ADD SWAP2 POP PUSH8 0xFFFFFFFFFFFFFFFF DUP3 GT DUP4 DUP4 LT OR PUSH2 0xDC3 JUMPI POP PUSH1 0x40 MSTORE PUSH1 0x0 DUP2 MSTORE PUSH1 0x0 CALLDATASIZE DUP2 CALLDATACOPY SWAP1 JUMP JUMPDEST PUSH1 0x41 SWAP1 PUSH4 0x4E487B71 PUSH1 0xE0 SHL PUSH1 0x0 MSTORE MSTORE PUSH1 0x24 PUSH1 0x0 REVERT INVALID LOG2 PUSH5 0x6970667358 0x22 SLT KECCAK256 LOG0 0x5C 0xCB EXTCODECOPY PUSH15 0xE1EB37C2CA99F1C5E2E1CD12148F52 AND GASPRICE 0x29 0x24 RETURN 0xA5 XOR 0xDC SHL KECCAK256 DUP10 0xC4 PUSH5 0x736F6C6343 STOP ADDMOD EQ STOP CALLER "},"methodIdentifiers":{"DEFAULT_ADMIN_ROLE()":"a217fddf","allVaults(uint256)":"9094a91e","cEUR()":"7d1f2de7","cREAL()":"d47ce0a6","cUSD()":"1fccf672","createVault()":"5d12928b","dex()":"692058c2","getRoleAdmin(bytes32)":"248a9ca3","getVaultAddress(address)":"ef88c31e","getVaultCount()":"74d4e491","getVaults()":"44d00f82","getVaults(uint256,uint256)":"b98cca37","grantRole(bytes32,address)":"2f2ff15d","hasRole(bytes32,address)":"91d14854","isVault(address)":"652b9b41","owner()":"8da5cb5b","renounceOwnership()":"715018a6","renounceRole(bytes32,address)":"36568abe","revokeRole(bytes32,address)":"d547741f","setVaultImplementation(address)":"53e78b6b","supportsInterface(bytes4)":"01ffc9a7","transferOwnership(address)":"f2fde38b","userToVault(address)":"bc721a96","vaultImplementation()":"bba48a90","yieldOracle()":"a7f0e342"}}}}}