{"contracts/XmentoVault.sol":{"XmentoVault":{"abi":[{"inputs":[],"stateMutability":"nonpayable","type":"constructor"},{"inputs":[],"name":"AccessControlBadConfirmation","type":"error"},{"inputs":[{"internalType":"address","name":"account","type":"address"},{"internalType":"bytes32","name":"neededRole","type":"bytes32"}],"name":"AccessControlUnauthorizedAccount","type":"error"},{"inputs":[{"internalType":"address","name":"sender","type":"address"},{"internalType":"uint256","name":"tokenId","type":"uint256"},{"internalType":"address","name":"owner","type":"address"}],"name":"ERC721IncorrectOwner","type":"error"},{"inputs":[{"internalType":"address","name":"operator","type":"address"},{"internalType":"uint256","name":"tokenId","type":"uint256"}],"name":"ERC721InsufficientApproval","type":"error"},{"inputs":[{"internalType":"address","name":"approver","type":"address"}],"name":"ERC721InvalidApprover","type":"error"},{"inputs":[{"internalType":"address","name":"operator","type":"address"}],"name":"ERC721InvalidOperator","type":"error"},{"inputs":[{"internalType":"address","name":"owner","type":"address"}],"name":"ERC721InvalidOwner","type":"error"},{"inputs":[{"internalType":"address","name":"receiver","type":"address"}],"name":"ERC721InvalidReceiver","type":"error"},{"inputs":[{"internalType":"address","name":"sender","type":"address"}],"name":"ERC721InvalidSender","type":"error"},{"inputs":[{"internalType":"uint256","name":"tokenId","type":"uint256"}],"name":"ERC721NonexistentToken","type":"error"},{"inputs":[],"name":"InvalidInitialization","type":"error"},{"inputs":[],"name":"NotInitializing","type":"error"},{"inputs":[{"internalType":"address","name":"owner","type":"address"}],"name":"OwnableInvalidOwner","type":"error"},{"inputs":[{"internalType":"address","name":"account","type":"address"}],"name":"OwnableUnauthorizedAccount","type":"error"},{"inputs":[],"name":"ReentrancyGuardReentrantCall","type":"error"},{"inputs":[{"internalType":"address","name":"token","type":"address"}],"name":"SafeERC20FailedOperation","type":"error"},{"anonymous":false,"inputs":[{"indexed":true,"internalType":"address","name":"owner","type":"address"},{"indexed":true,"internalType":"address","name":"approved","type":"address"},{"indexed":true,"internalType":"uint256","name":"tokenId","type":"uint256"}],"name":"Approval","type":"event"},{"anonymous":false,"inputs":[{"indexed":true,"internalType":"address","name":"owner","type":"address"},{"indexed":true,"internalType":"address","name":"operator","type":"address"},{"indexed":false,"internalType":"bool","name":"approved","type":"bool"}],"name":"ApprovalForAll","type":"event"},{"anonymous":false,"inputs":[{"indexed":false,"internalType":"string","name":"message","type":"string"},{"indexed":false,"internalType":"bytes","name":"values","type":"bytes"}],"name":"DebugLog","type":"event"},{"anonymous":false,"inputs":[{"indexed":true,"internalType":"address","name":"user","type":"address"},{"indexed":true,"internalType":"address","name":"token","type":"address"},{"indexed":false,"internalType":"uint256","name":"amount","type":"uint256"},{"indexed":false,"internalType":"uint256","name":"tokenId","type":"uint256"}],"name":"Deposited","type":"event"},{"anonymous":false,"inputs":[{"indexed":false,"internalType":"uint64","name":"version","type":"uint64"}],"name":"Initialized","type":"event"},{"anonymous":false,"inputs":[{"indexed":true,"internalType":"address","name":"factory","type":"address"},{"indexed":false,"internalType":"address","name":"cUSD","type":"address"},{"indexed":false,"internalType":"address","name":"cEUR","type":"address"},{"indexed":false,"internalType":"address","name":"cREAL","type":"address"},{"indexed":false,"internalType":"address","name":"dex","type":"address"},{"indexed":false,"internalType":"address","name":"yieldOracle","type":"address"}],"name":"Initialized","type":"event"},{"anonymous":false,"inputs":[{"indexed":true,"internalType":"address","name":"previousOwner","type":"address"},{"indexed":true,"internalType":"address","name":"newOwner","type":"address"}],"name":"OwnershipTransferred","type":"event"},{"anonymous":false,"inputs":[{"indexed":true,"internalType":"bytes32","name":"role","type":"bytes32"},{"indexed":true,"internalType":"bytes32","name":"previousAdminRole","type":"bytes32"},{"indexed":true,"internalType":"bytes32","name":"newAdminRole","type":"bytes32"}],"name":"RoleAdminChanged","type":"event"},{"anonymous":false,"inputs":[{"indexed":true,"internalType":"bytes32","name":"role","type":"bytes32"},{"indexed":true,"internalType":"address","name":"account","type":"address"},{"indexed":true,"internalType":"address","name":"sender","type":"address"}],"name":"RoleGranted","type":"event"},{"anonymous":false,"inputs":[{"indexed":true,"internalType":"bytes32","name":"role","type":"bytes32"},{"indexed":true,"internalType":"address","name":"account","type":"address"},{"indexed":true,"internalType":"address","name":"sender","type":"address"}],"name":"RoleRevoked","type":"event"},{"anonymous":false,"inputs":[{"indexed":true,"internalType":"address","name":"from","type":"address"},{"indexed":true,"internalType":"address","name":"to","type":"address"},{"indexed":true,"internalType":"uint256","name":"tokenId","type":"uint256"}],"name":"Transfer","type":"event"},{"anonymous":false,"inputs":[{"indexed":true,"internalType":"address","name":"user","type":"address"},{"indexed":true,"internalType":"address","name":"token","type":"address"},{"indexed":false,"internalType":"uint256","name":"amount","type":"uint256"},{"indexed":false,"internalType":"uint256","name":"tokenId","type":"uint256"}],"name":"Withdrawn","type":"event"},{"anonymous":false,"inputs":[{"indexed":true,"internalType":"address","name":"user","type":"address"},{"indexed":true,"internalType":"address","name":"token","type":"address"},{"indexed":false,"internalType":"uint256","name":"amount","type":"uint256"},{"indexed":false,"internalType":"uint256","name":"tokenId","type":"uint256"}],"name":"YieldClaimed","type":"event"},{"inputs":[],"name":"DEFAULT_ADMIN_ROLE","outputs":[{"internalType":"bytes32","name":"","type":"bytes32"}],"stateMutability":"view","type":"function"},{"inputs":[{"internalType":"address","name":"to","type":"address"},{"internalType":"uint256","name":"tokenId","type":"uint256"}],"name":"approve","outputs":[],"stateMutability":"nonpayable","type":"function"},{"inputs":[{"internalType":"address","name":"owner","type":"address"}],"name":"balanceOf","outputs":[{"internalType":"uint256","name":"","type":"uint256"}],"stateMutability":"view","type":"function"},{"inputs":[],"name":"cEUR","outputs":[{"internalType":"contract IERC20","name":"","type":"address"}],"stateMutability":"view","type":"function"},{"inputs":[],"name":"cREAL","outputs":[{"internalType":"contract IERC20","name":"","type":"address"}],"stateMutability":"view","type":"function"},{"inputs":[],"name":"cUSD","outputs":[{"internalType":"contract IERC20","name":"","type":"address"}],"stateMutability":"view","type":"function"},{"inputs":[{"internalType":"uint256","name":"tokenId","type":"uint256"}],"name":"calculateYield","outputs":[{"internalType":"uint256","name":"","type":"uint256"}],"stateMutability":"view","type":"function"},{"inputs":[{"internalType":"uint256","name":"tokenId","type":"uint256"}],"name":"claimYield","outputs":[],"stateMutability":"nonpayable","type":"function"},{"inputs":[{"internalType":"address","name":"token","type":"address"},{"internalType":"uint256","name":"amount","type":"uint256"}],"name":"deposit","outputs":[],"stateMutability":"nonpayable","type":"function"},{"inputs":[],"name":"dex","outputs":[{"internalType":"contract IDEX","name":"","type":"address"}],"stateMutability":"view","type":"function"},{"inputs":[],"name":"factory","outputs":[{"internalType":"contract IXmentoVaultFactory","name":"","type":"address"}],"stateMutability":"view","type":"function"},{"inputs":[{"internalType":"uint256","name":"tokenId","type":"uint256"}],"name":"getApproved","outputs":[{"internalType":"address","name":"","type":"address"}],"stateMutability":"view","type":"function"},{"inputs":[],"name":"getOptimalAllocation","outputs":[{"internalType":"uint256[3]","name":"","type":"uint256[3]"}],"stateMutability":"view","type":"function"},{"inputs":[{"internalType":"bytes32","name":"role","type":"bytes32"}],"name":"getRoleAdmin","outputs":[{"internalType":"bytes32","name":"","type":"bytes32"}],"stateMutability":"view","type":"function"},{"inputs":[{"internalType":"bytes32","name":"role","type":"bytes32"},{"internalType":"address","name":"account","type":"address"}],"name":"grantRole","outputs":[],"stateMutability":"nonpayable","type":"function"},{"inputs":[{"internalType":"bytes32","name":"role","type":"bytes32"},{"internalType":"address","name":"account","type":"address"}],"name":"hasRole","outputs":[{"internalType":"bool","name":"","type":"bool"}],"stateMutability":"view","type":"function"},{"inputs":[{"internalType":"address","name":"_factory","type":"address"},{"internalType":"address","name":"_cUSD","type":"address"},{"internalType":"address","name":"_cEUR","type":"address"},{"internalType":"address","name":"_cREAL","type":"address"},{"internalType":"address","name":"_dex","type":"address"},{"internalType":"address","name":"_yieldOracle","type":"address"}],"name":"initialize","outputs":[],"stateMutability":"nonpayable","type":"function"},{"inputs":[{"internalType":"address","name":"owner","type":"address"},{"internalType":"address","name":"operator","type":"address"}],"name":"isApprovedForAll","outputs":[{"internalType":"bool","name":"","type":"bool"}],"stateMutability":"view","type":"function"},{"inputs":[],"name":"name","outputs":[{"internalType":"string","name":"","type":"string"}],"stateMutability":"view","type":"function"},{"inputs":[],"name":"nextTokenId","outputs":[{"internalType":"uint256","name":"","type":"uint256"}],"stateMutability":"view","type":"function"},{"inputs":[],"name":"owner","outputs":[{"internalType":"address","name":"","type":"address"}],"stateMutability":"view","type":"function"},{"inputs":[{"internalType":"uint256","name":"tokenId","type":"uint256"}],"name":"ownerOf","outputs":[{"internalType":"address","name":"","type":"address"}],"stateMutability":"view","type":"function"},{"inputs":[{"internalType":"uint256","name":"","type":"uint256"}],"name":"positions","outputs":[{"internalType":"address","name":"token","type":"address"},{"internalType":"uint256","name":"amount","type":"uint256"},{"internalType":"uint256","name":"timestamp","type":"uint256"},{"internalType":"uint256","name":"yieldRate","type":"uint256"},{"internalType":"bool","name":"isActive","type":"bool"}],"stateMutability":"view","type":"function"},{"inputs":[{"internalType":"uint256","name":"tokenId","type":"uint256"}],"name":"rebalance","outputs":[],"stateMutability":"nonpayable","type":"function"},{"inputs":[{"internalType":"uint256","name":"tokenId","type":"uint256"}],"name":"redeem","outputs":[],"stateMutability":"nonpayable","type":"function"},{"inputs":[],"name":"renounceOwnership","outputs":[],"stateMutability":"nonpayable","type":"function"},{"inputs":[{"internalType":"bytes32","name":"role","type":"bytes32"},{"internalType":"address","name":"callerConfirmation","type":"address"}],"name":"renounceRole","outputs":[],"stateMutability":"nonpayable","type":"function"},{"inputs":[{"internalType":"bytes32","name":"role","type":"bytes32"},{"internalType":"address","name":"account","type":"address"}],"name":"revokeRole","outputs":[],"stateMutability":"nonpayable","type":"function"},{"inputs":[{"internalType":"address","name":"from","type":"address"},{"internalType":"address","name":"to","type":"address"},{"internalType":"uint256","name":"tokenId","type":"uint256"}],"name":"safeTransferFrom","outputs":[],"stateMutability":"nonpayable","type":"function"},{"inputs":[{"internalType":"address","name":"from","type":"address"},{"internalType":"address","name":"to","type":"address"},{"internalType":"uint256","name":"tokenId","type":"uint256"},{"internalType":"bytes","name":"data","type":"bytes"}],"name":"safeTransferFrom","outputs":[],"stateMutability":"nonpayable","type":"function"},{"inputs":[{"internalType":"address","name":"operator","type":"address"},{"internalType":"bool","name":"approved","type":"bool"}],"name":"setApprovalForAll","outputs":[],"stateMutability":"nonpayable","type":"function"},{"inputs":[{"internalType":"bytes4","name":"interfaceId","type":"bytes4"}],"name":"supportsInterface","outputs":[{"internalType":"bool","name":"","type":"bool"}],"stateMutability":"view","type":"function"},{"inputs":[],"name":"symbol","outputs":[{"internalType":"string","name":"","type":"string"}],"stateMutability":"view","type":"function"},{"inputs":[{"internalType":"uint256","name":"tokenId","type":"uint256"}],"name":"tokenURI","outputs":[{"internalType":"string","name":"","type":"string"}],"stateMutability":"view","type":"function"},{"inputs":[{"internalType":"address","name":"","type":"address"}],"name":"totalDeposits","outputs":[{"internalType":"uint256","name":"","type":"uint256"}],"stateMutability":"view","type":"function"},{"inputs":[{"internalType":"address","name":"","type":"address"}],"name":"totalYield","outputs":[{"internalType":"uint256","name":"","type":"uint256"}],"stateMutability":"view","type":"function"},{"inputs":[{"internalType":"address","name":"from","type":"address"},{"internalType":"address","name":"to","type":"address"},{"internalType":"uint256","name":"tokenId","type":"uint256"}],"name":"transferFrom","outputs":[],"stateMutability":"nonpayable","type":"function"},{"inputs":[{"internalType":"address","name":"newOwner","type":"address"}],"name":"transferOwnership","outputs":[],"stateMutability":"nonpayable","type":"function"},{"inputs":[],"name":"yieldOracle","outputs":[{"internalType":"contract IYieldOracle","name":"","type":"address"}],"stateMutability":"view","type":"function"}],"evm":{"bytecode":{"linkReferences":{},"object":"60803462000407576040906001600160401b0381830181811183821017620003f1578352600b82526020906a161b595b9d1bd5985d5b1d60aa1b8284015283519284840184811083821117620003f157855260078452661613559055531560ca1b83850152805193828511620003f1576000948554906001938483811c93168015620003e6575b87841014620002f0578190601f9384811162000393575b5087908483116001146200032f57899262000323575b5050600019600383901b1c191690841b1786555b8151918483116200030f5783548481811c9116801562000304575b87821014620002f057908183859493116200029b575b5086918311600114620002375787926200022b575b5050600019600383901b1c191690821b1781555b3315620002135760068054336001600160a01b0319821681179092558651956001600160a01b03909116907f8be0079c531659141344cd1fd0a4f28419497f9722a3daafe3b4186f6b6457e09080a380600855600f557ff0c57e16840df040f15088dc2f81fe391c3923bec73e23a9662efc9c229c6a0080549360ff85871c166200020457508180851603620001c1575b8451612e3890816200040d8239f35b6001600160401b0319909316811790925582519182527fc7f505b2f371ae2175ee4913f4499e1f2633a7b5936321eed1cdaeb6115181d291a138808080620001b2565b63f92ee8a960e01b8152600490fd5b8451631e4fbdf760e01b815260048101859052602490fd5b0151905038806200010d565b8488528688208594509190601f198416895b898282106200028457505084116200026a575b505050811b01815562000121565b015160001960f88460031b161c191690553880806200025c565b838501518655889790950194938401930162000249565b909192508488528688208380860160051c820192898710620002e6575b91869588929594930160051c01915b828110620002d7575050620000f8565b8a8155869550879101620002c7565b92508192620002b8565b634e487b7160e01b88526022600452602488fd5b90607f1690620000e2565b634e487b7160e01b87526041600452602487fd5b015190503880620000b3565b898052888a208794509190601f1984168b5b8b8282106200037c575050841162000362575b505050811b018655620000c7565b015160001960f88460031b161c1916905538808062000354565b8385015186558a9790950194938401930162000341565b9091508880528789208480850160051c8201928a8610620003dc575b918891869594930160051c01915b828110620003cd5750506200009d565b8b8155859450889101620003bd565b92508192620003af565b92607f169262000086565b634e487b7160e01b600052604160045260246000fd5b600080fdfe608080604052600436101561001357600080fd5b60003560e01c90816301ffc9a7146120e15750806306fdde0314612022578063081812fc14611fe4578063095ea7b314611efd5780631fccf67214611ed457806323b872dd14611ebd578063248a9ca314611e8e5780632f2ff15d14611e4f57806333a7ad7614611e0957806336568abe14611dc257806340bd2e2314611cd057806342842e0e14611ca857806347e7ef2414610e945780636352211e14610e64578063692058c214610e3b57806370a0823114610de2578063715018a614610d8557806375794a3c14610d675780637d1f2de714610d3e57806380a3301b14610d185780638da5cb5b14610cef57806391d1485414610ca257806395d89b4114610b9757806399fbab8814610b33578063a217fddf14610b17578063a22cb46514610a69578063a7f0e34214610a40578063b26dd04014610a06578063b88d4fde1461097d578063c45a015514610954578063c87b56dd146108fd578063cc2a9a5b146105a9578063d47ce0a614610580578063d547741f14610541578063db006a751461038b578063e940325614610351578063e985e9c5146102fb578063f2fde38b146102a75763f4993018146101cc57600080fd5b346102a25760203660031901126102a2576004356101e981612806565b6001600160a01b03906101ff90821633146128ca565b816000526010602052604060002090808254166001830192835490606461022e610227612b00565b5184612906565b048095556002429101556040519081528460208201527f91fb9d98b786c57d74c099ccd2beca1739e9f6a81fb49001ca465c4b7591bbe260403392a3600a54169160405191825260208201527ff5681f9d0db1b911ac18ee83d515a1cf1051853a9eae418316a2fdf7dea427c560403392a3005b600080fd5b346102a25760203660031901126102a2576102c06121a6565b6102c86124b3565b6001600160a01b038116156102e2576102e0906124df565b005b604051631e4fbdf760e01b815260006004820152602490fd5b346102a25760403660031901126102a2576103146121a6565b61031c6121bc565b9060018060a01b03809116600052600560205260406000209116600052602052602060ff604060002054166040519015158152f35b346102a25760203660031901126102a2576001600160a01b036103726121a6565b1660005260116020526020604060002054604051908152f35b346102a2576020806003193601126102a257600435906103aa82612806565b6001600160a01b0392906103c190841633146128ca565b80600052601082526040600020926040516103db81612207565b61041b8286541680835260018701549060ff600488860199848b526002810154604088015260038101546060880152015416151560808501523390612a7a565b845182825116600052601185526104386040600020918254612919565b905582600052600284528160406000205416836000821592831561050e575b828252600288526040822080546001600160a01b03191690557fddf252ad1be2c89b69c2b068fc378daa952ba7f163c4a11628f55a4df523b3ef8280a46104f55782600052601084526000600460408220828155826001820155826002820155826003820155015551169251916040519283528201527f91fb9d98b786c57d74c099ccd2beca1739e9f6a81fb49001ca465c4b7591bbe260403392a3005b604051637e27328960e01b815260048101849052602490fd5b600083815260046020526040902080546001600160a01b0319169055808252600388526040822082198154019055610457565b346102a25760403660031901126102a2576102e06004356105606121bc565b9080600052600760205261057b6001604060002001546122e7565b61243c565b346102a25760003660031901126102a257600c546040516001600160a01b039091168152602090f35b346102a25760c03660031901126102a2576105c26121a6565b6105ca6121bc565b906044906001600160a01b03908235828116908190036102a25760649485358481168091036102a257608435908582168092036102a25760a435938685168095036102a2577ff0c57e16840df040f15088dc2f81fe391c3923bec73e23a9662efc9c229c6a009788549760ff8960401c16159867ffffffffffffffff8116801590816108f5575b60011490816108eb575b1590816108e2575b506108d05767ffffffffffffffff1981166001178b55896108b1575b5080881695861561086e57169081156108345782156107fa5783156107bf57841561078657861561074a5750610701979899506106bb336124df565b6001600160601b0360a01b9485600954161760095584600a541617600a5583600b541617600b5582600c541617600c5581600d541617600d55600e541617600e5561232b565b506001600f5561070d57005b68ff00000000000000001981541690557fc7f505b2f371ae2175ee4913f4499e1f2633a7b5936321eed1cdaeb6115181d2602060405160018152a1005b8a9075496e76616c6964206f7261636c65206164647265737360501b6040519162461bcd60e51b83526020600484015260166024840152820152fd5b8a9072496e76616c696420444558206164647265737360681b6040519162461bcd60e51b83526020600484015260136024840152820152fd5b8a9074496e76616c696420635245414c206164647265737360581b6040519162461bcd60e51b83526020600484015260156024840152820152fd5b8a9073496e76616c69642063455552206164647265737360601b6040519162461bcd60e51b83526020600484015260146024840152820152fd5b8a9073496e76616c69642063555344206164647265737360601b6040519162461bcd60e51b83526020600484015260146024840152820152fd5b60405162461bcd60e51b815260206004820152601760248201527f496e76616c696420666163746f72792061646472657373000000000000000000818501528c90fd5b68ffffffffffffffffff191668010000000000000001178a558b61067f565b60405163f92ee8a960e01b8152600490fd5b9050158d610663565b303b15915061065b565b8b9150610651565b346102a25760203660031901126102a257610919600435612806565b50600060405161092881612255565b5261095060405161093881612255565b60008152604051918291602083526020830190612166565b0390f35b346102a25760003660031901126102a2576009546040516001600160a01b039091168152602090f35b346102a25760803660031901126102a2576109966121a6565b61099e6121bc565b6064359167ffffffffffffffff83116102a257366023840112156102a2578260040135916109cb836122cb565b926109d960405194856122a9565b80845236602482870101116102a25760208160009260246102e098018388013785010152604435916126b1565b346102a25760203660031901126102a2576001600160a01b03610a276121a6565b1660005260126020526020604060002054604051908152f35b346102a25760003660031901126102a257600e546040516001600160a01b039091168152602090f35b346102a25760403660031901126102a257610a826121a6565b60243590811515908183036102a2576001600160a01b0316918215610afe57610ad09033600052600560205260406000208460005260205260406000209060ff801983541691151516179055565b6040519081527f17307eab39ab6107e8899845ad3d59bd9653f200f220920489ca2b5937696c3160203392a3005b604051630b61174360e31b815260048101849052602490fd5b346102a25760003660031901126102a257602060405160008152f35b346102a25760203660031901126102a257600435600052601060205260a06040600020600180831b0381541690600181015490600281015460ff60046003840154930154169260405194855260208501526040840152606083015215156080820152f35b346102a25760003660031901126102a257604051600060019081549182811c91818416918215610c98575b6020948585108414610c82578587948686529182600014610c62575050600114610c08575b50610bf4925003836122a9565b610950604051928284938452830190612166565b6000818152859250907fb10e2d527612073b26eecdfd717e6a320cf44b4afac2b0732d9fcbe2b7fa0cf65b858310610c4a575050610bf4935082010185610be7565b80548389018501528794508693909201918101610c33565b60ff191685820152610bf495151560051b8501019250879150610be79050565b634e487b7160e01b600052602260045260246000fd5b92607f1692610bc2565b346102a25760403660031901126102a257610cbb6121bc565b600435600052600760205260406000209060018060a01b0316600052602052602060ff604060002054166040519015158152f35b346102a25760003660031901126102a2576006546040516001600160a01b039091168152602090f35b346102a25760203660031901126102a2576020610d36600435612926565b604051908152f35b346102a25760003660031901126102a257600b546040516001600160a01b039091168152602090f35b346102a25760003660031901126102a2576020600f54604051908152f35b346102a25760003660031901126102a257610d9e6124b3565b600680546001600160a01b031981169091556000906001600160a01b03167f8be0079c531659141344cd1fd0a4f28419497f9722a3daafe3b4186f6b6457e08280a3005b346102a25760203660031901126102a2576001600160a01b03610e036121a6565b168015610e225760005260036020526020604060002054604051908152f35b6040516322718ad960e21b815260006004820152602490fd5b346102a25760003660031901126102a257600d546040516001600160a01b039091168152602090f35b346102a25760203660031901126102a2576020610e82600435612806565b6040516001600160a01b039091168152f35b346102a25760403660031901126102a257610ead6121a6565b600260085414611c9657600260085560ff6013541615611c5157604051600080516020612de3833981519152610f666603a37b5b2b71d160cd1b928360208201526001600160601b03198560601b1660278201526801030b6b7bab73a1d160bd1b603b820152602435604482015260448152610f2881612271565b6040519182916040835260136040840152720c4b8814dd185c9d1a5b99c819195c1bdcda5d606a1b6060840152608060208401526080830190612166565b0390a16001600160a01b03821615611c025760243515611bb257611004600080516020612de3833981519152916040519060208201526001600160601b03198460601b166027820152601b8152610fbc8161228d565b60405191829160408352601960408401527f322e20436865636b696e6720746f6b656e20737570706f7274000000000000006060840152608060208401526080830190612166565b0390a1600a546001600160a01b038281169116148015611b9b575b8015611b84575b15611b3f57600080516020612de383398151915260a06040516040815260156040820152740ccb88151bdad95b881a5cc81cdd5c1c1bdc9d1959605a1b60608201526080602082015260006080820152a1600080516020612de383398151915260c060405160408152602260408201527f342e2047657474696e672062616c616e6365206265666f7265207472616e736660608201526132b960f11b608082015260a06020820152600060a0820152a16040516370a0823160e01b81523060048201526020816024816001600160a01b0386165afa90811561198057600091611b0d575b50600080516020612de383398151915261117b604051836020820152602081526111338161228d565b60405191829160408352601a60408401527f352e2042616c616e6365206265666f7265207472616e736665720000000000006060840152608060208401526080830190612166565b0390a1600080516020612de383398151915260c060405160408152602660408201527f362e20436865636b696e6720757365722062616c616e636520616e6420616c6c6060820152656f77616e636560d01b608082015260a06020820152600060a0820152a16040516370a0823160e01b81523360048201526020816024816001600160a01b0387165afa90811561198057600091611adb575b50604051636eb1769f60e11b8152336004820152306024820152906020826044816001600160a01b0388165afa91821561198057600092611aa7575b50600080516020612de383398151915261130b6040516803130b630b731b29d160bd1b60208201528360298201526b01030b63637bbb0b731b29d160a51b60498201528460558201526a0103932b8bab4b932b21d160ad1b60758201526024356080820152608081526112c381612207565b60405191829160408352601d60408401527f372e20557365722062616c616e636520616e6420616c6c6f77616e63650000006060840152608060208401526080830190612166565b0390a160243511611a625760243511611a1d57600080516020612de383398151915260a060405160408152601c60408201527f382e20496e6974696174696e6720746f6b656e207472616e736665720000000060608201526080602082015260006080820152a16113b56040516323b872dd60e01b60208201523360248201523060448201526024356064820152606481526113a681612207565b6001600160a01b03841661286e565b600080516020612de383398151915260a06040516040815260166040820152750e4b88151c985b9cd9995c881cdd58d8d95cdcd99d5b60521b60608201526080602082015260006080820152a1600080516020612de383398151915260a0604051604081526016604082015275189817102b32b934b33cb4b733903a3930b739b332b960511b60608201526080602082015260006080820152a16040516370a0823160e01b8152306004820152906020826024816001600160a01b0387165afa918215611980576000926119e7575b5061153c90600080516020612de38339815191526115306114a760243584612861565b6040519067030b1ba3ab0b61d160c51b60208301528660288301526a01032bc3832b1ba32b21d160ad1b60488301526053820152605381526114e881612271565b60405191829160408352601a60408401527f31312e2042616c616e6365206166746572207472616e736665720000000000006060840152608060208401526080830190612166565b0390a160243590612861565b036119a257600080516020612de383398151915260a06040516040815260156040820152740c4c8b88151c985b9cd9995c881d995c9a599a5959605a1b60608201526080602082015260006080820152a1600f549060001980831461198c5760018301600f55600e5460405163c4f9870b60e01b81526001600160a01b038481166004830152909160209183916024918391165afa9081156119805760009161194e575b506116746040516115f081612207565b60018060a01b038516815260046020820193602435855260408301904282526060840190815260808401916001835289600052601060205260406000209460018060a01b03905116966001600160601b0360a01b978887541617865551600186015551600285015551600384015551151591019060ff801983541691151516179055565b60018060a01b038316600052601160205260406000206116976024358254612861565b90553315611935576000848152600260205260409020546001600160a01b031680151592859290846118ff575b50336000526003602052604060002060018154019055826000526002602052604060002090339082541617905533907fddf252ad1be2c89b69c2b068fc378daa952ba7f163c4a11628f55a4df523b3ef600080a46118e657600080516020612de38339815191526117a06040518460208201526001600160601b03198460601b16604082015260243560548201524260748201526074815261176581612207565b60405191829160408352601060408401526f141bdcda5d1a5bdb8818dc99585d195960821b6060840152608060208401526080830190612166565b0390a160018060a01b0381166000526011602052600080516020612de3833981519152611836604060002054604051906001600160601b03198560601b1660208301526034820152603481526117f581612239565b604051918291604083526016604084015275151bdd185b0819195c1bdcda5d1cc81d5c19185d195960521b6060840152608060208401526080830190612166565b0390a1600080516020612de383398151915261189f6040518460208201523360601b60408201526034815261186a81612239565b60405191829160408352600a604084015269139195081b5a5b9d195960b21b6060840152608060208401526080830190612166565b0390a1604051916024358352602083015260018060a01b0316907ff5681f9d0db1b911ac18ee83d515a1cf1051853a9eae418316a2fdf7dea427c560403392a36001600855005b6040516339e3563760e11b815260006004820152602490fd5b600084815260046020526040902080546001600160a01b03191690558260005260036020526040600020908154019055866116c4565b604051633250574960e11b815260006004820152602490fd5b90506020813d602011611978575b81611969602093836122a9565b810103126102a25751846115e0565b3d915061195c565b6040513d6000823e3d90fd5b634e487b7160e01b600052601160045260246000fd5b60405162461bcd60e51b815260206004820152601a60248201527f584d563a20546f6b656e207472616e73666572206661696c65640000000000006044820152606490fd5b9091506020813d602011611a15575b81611a03602093836122a9565b810103126102a257519061153c611484565b3d91506119f6565b60405162461bcd60e51b815260206004820152601b60248201527f584d563a20496e73756666696369656e7420616c6c6f77616e636500000000006044820152606490fd5b60405162461bcd60e51b815260206004820152601960248201527f584d563a20496e73756666696369656e742062616c616e6365000000000000006044820152606490fd5b9091506020813d602011611ad3575b81611ac3602093836122a9565b810103126102a257519084611251565b3d9150611ab6565b90506020813d602011611b05575b81611af6602093836122a9565b810103126102a2575183611215565b3d9150611ae9565b90506020813d602011611b37575b81611b28602093836122a9565b810103126102a257518261110a565b3d9150611b1b565b60405162461bcd60e51b815260206004820152601860248201527f584d563a20546f6b656e206e6f7420737570706f7274656400000000000000006044820152606490fd5b50600c546001600160a01b03828116911614611026565b50600b546001600160a01b0382811691161461101f565b60405162461bcd60e51b815260206004820152602260248201527f584d563a20416d6f756e74206d7573742062652067726561746572207468616e604482015261020360f41b6064820152608490fd5b60405162461bcd60e51b815260206004820152602160248201527f584d563a20546f6b656e20616464726573732063616e6e6f74206265207a65726044820152606f60f81b6064820152608490fd5b60405162461bcd60e51b815260206004820152601860248201527f436f6e7472616374206e6f7420696e697469616c697a656400000000000000006044820152606490fd5b604051633ee5aeb560e01b8152600490fd5b346102a2576102e0611cb9366121d2565b9060405192611cc784612255565b600084526126b1565b346102a25760203660031901126102a257600435611ced81612806565b6001600160a01b0390611d0390821633146128ca565b611d0c82612926565b908115611d895782600052601060205260406000204260028201558181541660005260126020526040600020611d43848254612861565b9055611d53833384845416612a7a565b54169160405191825260208201527fb10c79aa8ce52424b7676b33fe7b45ea2516b75f43f3b5c0c730e52ca8ef36a560403392a3005b60405162461bcd60e51b81526020600482015260116024820152704e6f207969656c6420746f20636c61696d60781b6044820152606490fd5b346102a25760403660031901126102a257611ddb6121bc565b336001600160a01b03821603611df7576102e09060043561243c565b60405163334bd91960e11b8152600490fd5b346102a25760003660031901126102a257611e22612b00565b60405190600090825b60038310611e3857606084f35b600190825181526020809101920192019190611e2b565b346102a25760403660031901126102a2576102e0600435611e6e6121bc565b90806000526007602052611e896001604060002001546122e7565b6123bc565b346102a25760203660031901126102a25760043560005260076020526020600160406000200154604051908152f35b346102a2576102e0611ece366121d2565b91612528565b346102a25760003660031901126102a257600a546040516001600160a01b039091168152602090f35b346102a25760403660031901126102a257611f166121a6565b602435611f2281612806565b33151580611fd1575b80611fa4575b611f8c576001600160a01b039283169282918491167f8c5be1e5ebec7d5bd14f71427d1e84f3dd0314c0f7b2291e5b200ac8c7c3b925600080a4600090815260046020526040902080546001600160a01b0319169091179055005b60405163a9fbf51f60e01b8152336004820152602490fd5b5060018060a01b038116600052600560205260406000203360005260205260ff6040600020541615611f31565b506001600160a01b038116331415611f2b565b346102a25760203660031901126102a25760043561200181612806565b506000526004602052602060018060a01b0360406000205416604051908152f35b346102a25760003660031901126102a2576040516000805490600182811c918184169182156120d7575b6020948585108414610c82578587948686529182600014610c6257505060011461207d5750610bf4925003836122a9565b6000808052859250907f290decd9548b62a8d60345a988386fc84ba6bc95484008f6362f93160ef3e5635b8583106120bf575050610bf4935082010185610be7565b805483890185015287945086939092019181016120a8565b92607f169261204c565b346102a25760203660031901126102a2576004359063ffffffff60e01b82168092036102a257602091637965db0b60e01b8114908115612123575b5015158152f35b6380ac58cd60e01b811491508115612155575b8115612144575b508361211c565b6301ffc9a760e01b1490508361213d565b635b5e139f60e01b81149150612136565b919082519283825260005b848110612192575050826000602080949584010152601f8019910116010190565b602081830181015184830182015201612171565b600435906001600160a01b03821682036102a257565b602435906001600160a01b03821682036102a257565b60609060031901126102a2576001600160a01b039060043582811681036102a2579160243590811681036102a2579060443590565b60a0810190811067ffffffffffffffff82111761222357604052565b634e487b7160e01b600052604160045260246000fd5b6060810190811067ffffffffffffffff82111761222357604052565b6020810190811067ffffffffffffffff82111761222357604052565b6080810190811067ffffffffffffffff82111761222357604052565b6040810190811067ffffffffffffffff82111761222357604052565b90601f8019910116810190811067ffffffffffffffff82111761222357604052565b67ffffffffffffffff811161222357601f01601f191660200190565b80600052600760205260406000203360005260205260ff604060002054161561230d5750565b6044906040519063e2517d3f60e01b82523360048301526024820152fd5b6001600160a01b031660008181527f6d5257204ebe7d88fd91ae87941cb2dd9d8062b64ae5a2bd2d28ec40b9fbf6df602052604081205490919060ff166123b85781805260076020526040822081835260205260408220600160ff1982541617905533917f2f8788117e7eff1d82e926ec794901d17c78024a50270940304540a733656f0d8180a4600190565b5090565b906000918083526007602052604083209160018060a01b03169182845260205260ff604084205416156000146124375780835260076020526040832082845260205260408320600160ff198254161790557f2f8788117e7eff1d82e926ec794901d17c78024a50270940304540a733656f0d339380a4600190565b505090565b906000918083526007602052604083209160018060a01b03169182845260205260ff604084205416600014612437578083526007602052604083208284526020526040832060ff1981541690557ff6391f5c32d9c69d2a47ea670b442974b53935d1edc7fd64eb21e047a839171b339380a4600190565b6006546001600160a01b031633036124c757565b60405163118cdaa760e01b8152336004820152602490fd5b600680546001600160a01b039283166001600160a01b0319821681179092559091167f8be0079c531659141344cd1fd0a4f28419497f9722a3daafe3b4186f6b6457e0600080a3565b6001600160a01b03918216929091831561193557600092828452826020956002875260409684888820541696879133151580612618575b509060027fddf252ad1be2c89b69c2b068fc378daa952ba7f163c4a11628f55a4df523b3ef92846125e5575b858352600381528b8320805460010190558683525289812080546001600160a01b0319168517905580a416928383036125c45750505050565b6064945051926364283d7b60e01b8452600484015260248301526044820152fd5b600087815260046020526040902080546001600160a01b0319169055848352600381528b8320805460001901905561258b565b91939450915080612670575b156126345785929187913861255f565b878688612651576024915190637e27328960e01b82526004820152fd5b905163177e802f60e01b81523360048201526024810191909152604490fd5b503387148015612695575b806126245750858252600481523385898420541614612624565b5086825260058152878220338352815260ff888320541661267b565b9290926126bf838583612528565b833b6126cc575b50505050565b604051630a85bd0160e11b8082523360048301526001600160a01b0392831660248301526044820194909452608060648201529493169260209290918590612718906084830190612166565b039483816000978189895af18691816127c2575b5061278d575050503d600014612784573d612746816122cb565b9061275460405192836122a9565b81528093823d92013e5b8251928361277f57604051633250574960e11b815260048101849052602490fd5b019050fd5b6060925061275e565b919450915063ffffffff60e01b16036127aa5750388080806126c6565b60249060405190633250574960e11b82526004820152fd5b9091508481813d83116127ff575b6127da81836122a9565b810103126127fb57516001600160e01b0319811681036127fb57903861272c565b8680fd5b503d6127d0565b6000818152600260205260409020546001600160a01b0316908115612829575090565b60249060405190637e27328960e01b82526004820152fd5b811561284b570490565b634e487b7160e01b600052601260045260246000fd5b9190820180921161198c57565b906000602091828151910182855af115611980576000513d6128c157506001600160a01b0381163b155b61289f5750565b604051635274afe760e01b81526001600160a01b039091166004820152602490fd5b60011415612898565b156128d157565b60405162461bcd60e51b815260206004820152600d60248201526c2737ba1027232a1037bbb732b960991b6044820152606490fd5b8181029291811591840414171561198c57565b9190820391821161198c57565b6001600160a01b03908161293982612806565b1615612a355760009081526020906010825260408120906040519061295d82612207565b8483541682528361299d60018501549482850195865260ff6004600283015492836040890152600381015460608901520154161515608086015242612919565b9580600e541693511660246040518095819363c4f9870b60e01b835260048301525afa938415612a285781946129ee575b505050916129e56129ea9263bbf81e009451612906565b612906565b0490565b909180939450813d8311612a21575b612a0781836122a9565b81010312612a1e575051906129e5816129ea6129ce565b80fd5b503d6129fd565b50604051903d90823e3d90fd5b60405162461bcd60e51b815260206004820152601760248201527f506f736974696f6e20646f6573206e6f742065786973740000000000000000006044820152606490fd5b60405163a9059cbb60e01b60208201526001600160a01b03929092166024830152604480830193909352918152612abb91612ab66064836122a9565b61286e565b565b805115612aca5760200190565b634e487b7160e01b600052603260045260246000fd5b805160011015612aca5760400190565b805160021015612aca5760600190565b604060608151612b0f81612239565b369037805190612b1e82612271565b600382526020808301906060368337600a546001600160a01b0391908216612b4586612abd565b5281600b5416612b5486612ae0565b5281600c5416612b6386612af0565b5281600e54168451809463379698e960e21b8252602494858301600499868b860152518091526044840192916000905b87838310612dc557505050505091818060009403915afa928315612dba57600093612d0d575b50612be3612bda612bc985612abd565b51612bd386612ae0565b5190612861565b612bd385612af0565b918215612ceb57845195612bf687612239565b612bff85612abd565b519260649384810290808204861490151715612cd75785612c1f91612841565b8852612c2a86612ae0565b5184810290808204861490151715612cd75785612c4691612841565b90880152612c5385612abd565b5183810290808204851490151715612cc35784612c6f91612841565b830394838611612cc357612c8290612ae0565b51838102938185041490151715612cb0575050612ca99291612ca391612841565b90612919565b9082015290565b601190634e487b7160e01b600052526000fd5b50601190634e487b7160e01b600052526000fd5b83601184634e487b7160e01b600052526000fd5b50935050508060216022925193612d0185612239565b81855284015282015290565b90923d8082843e612d1e81846122a9565b8201908483830312612a1e57825167ffffffffffffffff93848211612db6570182601f82011215612db2578051938411612da0578360051b91875194612d66888501876122a9565b85528680860193830101938411612a1e575085809101915b838310612d9057505050509138612bb9565b8251815291810191869101612d7e565b634e487b7160e01b8252604188528482fd5b5080fd5b8280fd5b84513d6000823e3d90fd5b8451821686528a9650948501949093019260019190910190612b9356fe0c1267f8b6a6608f6166ea98ce91e23fe3bf0d92464854249481dd7d07a5d464a26469706673582212203ef4bd9233c6a101cf57d17df28b0c4a114d61916b3d8bb7eeba11d8d3243d4d64736f6c63430008140033","opcodes":"PUSH1 0x80 CALLVALUE PUSH3 0x407 JUMPI PUSH1 0x40 SWAP1 PUSH1 0x1 PUSH1 0x1 PUSH1 0x40 SHL SUB DUP2 DUP4 ADD DUP2 DUP2 GT DUP4 DUP3 LT OR PUSH3 0x3F1 JUMPI DUP4 MSTORE PUSH1 0xB DUP3 MSTORE PUSH1 0x20 SWAP1 PUSH11 0x161B595B9D1BD5985D5B1D PUSH1 0xAA SHL DUP3 DUP5 ADD MSTORE DUP4 MLOAD SWAP3 DUP5 DUP5 ADD DUP5 DUP2 LT DUP4 DUP3 GT OR PUSH3 0x3F1 JUMPI DUP6 MSTORE PUSH1 0x7 DUP5 MSTORE PUSH7 0x16135590555315 PUSH1 0xCA SHL DUP4 DUP6 ADD MSTORE DUP1 MLOAD SWAP4 DUP3 DUP6 GT PUSH3 0x3F1 JUMPI PUSH1 0x0 SWAP5 DUP6 SLOAD SWAP1 PUSH1 0x1 SWAP4 DUP5 DUP4 DUP2 SHR SWAP4 AND DUP1 ISZERO PUSH3 0x3E6 JUMPI JUMPDEST DUP8 DUP5 LT EQ PUSH3 0x2F0 JUMPI DUP2 SWAP1 PUSH1 0x1F SWAP4 DUP5 DUP2 GT PUSH3 0x393 JUMPI JUMPDEST POP DUP8 SWAP1 DUP5 DUP4 GT PUSH1 0x1 EQ PUSH3 0x32F JUMPI DUP10 SWAP3 PUSH3 0x323 JUMPI JUMPDEST POP POP PUSH1 0x0 NOT PUSH1 0x3 DUP4 SWAP1 SHL SHR NOT AND SWAP1 DUP5 SHL OR DUP7 SSTORE JUMPDEST DUP2 MLOAD SWAP2 DUP5 DUP4 GT PUSH3 0x30F JUMPI DUP4 SLOAD DUP5 DUP2 DUP2 SHR SWAP2 AND DUP1 ISZERO PUSH3 0x304 JUMPI JUMPDEST DUP8 DUP3 LT EQ PUSH3 0x2F0 JUMPI SWAP1 DUP2 DUP4 DUP6 SWAP5 SWAP4 GT PUSH3 0x29B JUMPI JUMPDEST POP DUP7 SWAP2 DUP4 GT PUSH1 0x1 EQ PUSH3 0x237 JUMPI DUP8 SWAP3 PUSH3 0x22B JUMPI JUMPDEST POP POP PUSH1 0x0 NOT PUSH1 0x3 DUP4 SWAP1 SHL SHR NOT AND SWAP1 DUP3 SHL OR DUP2 SSTORE JUMPDEST CALLER ISZERO PUSH3 0x213 JUMPI PUSH1 0x6 DUP1 SLOAD CALLER PUSH1 0x1 PUSH1 0x1 PUSH1 0xA0 SHL SUB NOT DUP3 AND DUP2 OR SWAP1 SWAP3 SSTORE DUP7 MLOAD SWAP6 PUSH1 0x1 PUSH1 0x1 PUSH1 0xA0 SHL SUB SWAP1 SWAP2 AND SWAP1 PUSH32 0x8BE0079C531659141344CD1FD0A4F28419497F9722A3DAAFE3B4186F6B6457E0 SWAP1 DUP1 LOG3 DUP1 PUSH1 0x8 SSTORE PUSH1 0xF SSTORE PUSH32 0xF0C57E16840DF040F15088DC2F81FE391C3923BEC73E23A9662EFC9C229C6A00 DUP1 SLOAD SWAP4 PUSH1 0xFF DUP6 DUP8 SHR AND PUSH3 0x204 JUMPI POP DUP2 DUP1 DUP6 AND SUB PUSH3 0x1C1 JUMPI JUMPDEST DUP5 MLOAD PUSH2 0x2E38 SWAP1 DUP2 PUSH3 0x40D DUP3 CODECOPY RETURN JUMPDEST PUSH1 0x1 PUSH1 0x1 PUSH1 0x40 SHL SUB NOT SWAP1 SWAP4 AND DUP2 OR SWAP1 SWAP3 SSTORE DUP3 MLOAD SWAP2 DUP3 MSTORE PUSH32 0xC7F505B2F371AE2175EE4913F4499E1F2633A7B5936321EED1CDAEB6115181D2 SWAP2 LOG1 CODESIZE DUP1 DUP1 DUP1 PUSH3 0x1B2 JUMP JUMPDEST PUSH4 0xF92EE8A9 PUSH1 0xE0 SHL DUP2 MSTORE PUSH1 0x4 SWAP1 REVERT JUMPDEST DUP5 MLOAD PUSH4 0x1E4FBDF7 PUSH1 0xE0 SHL DUP2 MSTORE PUSH1 0x4 DUP2 ADD DUP6 SWAP1 MSTORE PUSH1 0x24 SWAP1 REVERT JUMPDEST ADD MLOAD SWAP1 POP CODESIZE DUP1 PUSH3 0x10D JUMP JUMPDEST DUP5 DUP9 MSTORE DUP7 DUP9 KECCAK256 DUP6 SWAP5 POP SWAP2 SWAP1 PUSH1 0x1F NOT DUP5 AND DUP10 JUMPDEST DUP10 DUP3 DUP3 LT PUSH3 0x284 JUMPI POP POP DUP5 GT PUSH3 0x26A JUMPI JUMPDEST POP POP POP DUP2 SHL ADD DUP2 SSTORE PUSH3 0x121 JUMP JUMPDEST ADD MLOAD PUSH1 0x0 NOT PUSH1 0xF8 DUP5 PUSH1 0x3 SHL AND SHR NOT AND SWAP1 SSTORE CODESIZE DUP1 DUP1 PUSH3 0x25C JUMP JUMPDEST DUP4 DUP6 ADD MLOAD DUP7 SSTORE DUP9 SWAP8 SWAP1 SWAP6 ADD SWAP5 SWAP4 DUP5 ADD SWAP4 ADD PUSH3 0x249 JUMP JUMPDEST SWAP1 SWAP2 SWAP3 POP DUP5 DUP9 MSTORE DUP7 DUP9 KECCAK256 DUP4 DUP1 DUP7 ADD PUSH1 0x5 SHR DUP3 ADD SWAP3 DUP10 DUP8 LT PUSH3 0x2E6 JUMPI JUMPDEST SWAP2 DUP7 SWAP6 DUP9 SWAP3 SWAP6 SWAP5 SWAP4 ADD PUSH1 0x5 SHR ADD SWAP2 JUMPDEST DUP3 DUP2 LT PUSH3 0x2D7 JUMPI POP POP PUSH3 0xF8 JUMP JUMPDEST DUP11 DUP2 SSTORE DUP7 SWAP6 POP DUP8 SWAP2 ADD PUSH3 0x2C7 JUMP JUMPDEST SWAP3 POP DUP2 SWAP3 PUSH3 0x2B8 JUMP JUMPDEST PUSH4 0x4E487B71 PUSH1 0xE0 SHL DUP9 MSTORE PUSH1 0x22 PUSH1 0x4 MSTORE PUSH1 0x24 DUP9 REVERT JUMPDEST SWAP1 PUSH1 0x7F AND SWAP1 PUSH3 0xE2 JUMP JUMPDEST PUSH4 0x4E487B71 PUSH1 0xE0 SHL DUP8 MSTORE PUSH1 0x41 PUSH1 0x4 MSTORE PUSH1 0x24 DUP8 REVERT JUMPDEST ADD MLOAD SWAP1 POP CODESIZE DUP1 PUSH3 0xB3 JUMP JUMPDEST DUP10 DUP1 MSTORE DUP9 DUP11 KECCAK256 DUP8 SWAP5 POP SWAP2 SWAP1 PUSH1 0x1F NOT DUP5 AND DUP12 JUMPDEST DUP12 DUP3 DUP3 LT PUSH3 0x37C JUMPI POP POP DUP5 GT PUSH3 0x362 JUMPI JUMPDEST POP POP POP DUP2 SHL ADD DUP7 SSTORE PUSH3 0xC7 JUMP JUMPDEST ADD MLOAD PUSH1 0x0 NOT PUSH1 0xF8 DUP5 PUSH1 0x3 SHL AND SHR NOT AND SWAP1 SSTORE CODESIZE DUP1 DUP1 PUSH3 0x354 JUMP JUMPDEST DUP4 DUP6 ADD MLOAD DUP7 SSTORE DUP11 SWAP8 SWAP1 SWAP6 ADD SWAP5 SWAP4 DUP5 ADD SWAP4 ADD PUSH3 0x341 JUMP JUMPDEST SWAP1 SWAP2 POP DUP9 DUP1 MSTORE DUP8 DUP10 KECCAK256 DUP5 DUP1 DUP6 ADD PUSH1 0x5 SHR DUP3 ADD SWAP3 DUP11 DUP7 LT PUSH3 0x3DC JUMPI JUMPDEST SWAP2 DUP9 SWAP2 DUP7 SWAP6 SWAP5 SWAP4 ADD PUSH1 0x5 SHR ADD SWAP2 JUMPDEST DUP3 DUP2 LT PUSH3 0x3CD JUMPI POP POP PUSH3 0x9D JUMP JUMPDEST DUP12 DUP2 SSTORE DUP6 SWAP5 POP DUP9 SWAP2 ADD PUSH3 0x3BD JUMP JUMPDEST SWAP3 POP DUP2 SWAP3 PUSH3 0x3AF JUMP JUMPDEST SWAP3 PUSH1 0x7F AND SWAP3 PUSH3 0x86 JUMP JUMPDEST PUSH4 0x4E487B71 PUSH1 0xE0 SHL PUSH1 0x0 MSTORE PUSH1 0x41 PUSH1 0x4 MSTORE PUSH1 0x24 PUSH1 0x0 REVERT JUMPDEST PUSH1 0x0 DUP1 REVERT INVALID PUSH1 0x80 DUP1 PUSH1 0x40 MSTORE PUSH1 0x4 CALLDATASIZE LT ISZERO PUSH2 0x13 JUMPI PUSH1 0x0 DUP1 REVERT JUMPDEST PUSH1 0x0 CALLDATALOAD PUSH1 0xE0 SHR SWAP1 DUP2 PUSH4 0x1FFC9A7 EQ PUSH2 0x20E1 JUMPI POP DUP1 PUSH4 0x6FDDE03 EQ PUSH2 0x2022 JUMPI DUP1 PUSH4 0x81812FC EQ PUSH2 0x1FE4 JUMPI DUP1 PUSH4 0x95EA7B3 EQ PUSH2 0x1EFD JUMPI DUP1 PUSH4 0x1FCCF672 EQ PUSH2 0x1ED4 JUMPI DUP1 PUSH4 0x23B872DD EQ PUSH2 0x1EBD JUMPI DUP1 PUSH4 0x248A9CA3 EQ PUSH2 0x1E8E JUMPI DUP1 PUSH4 0x2F2FF15D EQ PUSH2 0x1E4F JUMPI DUP1 PUSH4 0x33A7AD76 EQ PUSH2 0x1E09 JUMPI DUP1 PUSH4 0x36568ABE EQ PUSH2 0x1DC2 JUMPI DUP1 PUSH4 0x40BD2E23 EQ PUSH2 0x1CD0 JUMPI DUP1 PUSH4 0x42842E0E EQ PUSH2 0x1CA8 JUMPI DUP1 PUSH4 0x47E7EF24 EQ PUSH2 0xE94 JUMPI DUP1 PUSH4 0x6352211E EQ PUSH2 0xE64 JUMPI DUP1 PUSH4 0x692058C2 EQ PUSH2 0xE3B JUMPI DUP1 PUSH4 0x70A08231 EQ PUSH2 0xDE2 JUMPI DUP1 PUSH4 0x715018A6 EQ PUSH2 0xD85 JUMPI DUP1 PUSH4 0x75794A3C EQ PUSH2 0xD67 JUMPI DUP1 PUSH4 0x7D1F2DE7 EQ PUSH2 0xD3E JUMPI DUP1 PUSH4 0x80A3301B EQ PUSH2 0xD18 JUMPI DUP1 PUSH4 0x8DA5CB5B EQ PUSH2 0xCEF JUMPI DUP1 PUSH4 0x91D14854 EQ PUSH2 0xCA2 JUMPI DUP1 PUSH4 0x95D89B41 EQ PUSH2 0xB97 JUMPI DUP1 PUSH4 0x99FBAB88 EQ PUSH2 0xB33 JUMPI DUP1 PUSH4 0xA217FDDF EQ PUSH2 0xB17 JUMPI DUP1 PUSH4 0xA22CB465 EQ PUSH2 0xA69 JUMPI DUP1 PUSH4 0xA7F0E342 EQ PUSH2 0xA40 JUMPI DUP1 PUSH4 0xB26DD040 EQ PUSH2 0xA06 JUMPI DUP1 PUSH4 0xB88D4FDE EQ PUSH2 0x97D JUMPI DUP1 PUSH4 0xC45A0155 EQ PUSH2 0x954 JUMPI DUP1 PUSH4 0xC87B56DD EQ PUSH2 0x8FD JUMPI DUP1 PUSH4 0xCC2A9A5B EQ PUSH2 0x5A9 JUMPI DUP1 PUSH4 0xD47CE0A6 EQ PUSH2 0x580 JUMPI DUP1 PUSH4 0xD547741F EQ PUSH2 0x541 JUMPI DUP1 PUSH4 0xDB006A75 EQ PUSH2 0x38B JUMPI DUP1 PUSH4 0xE9403256 EQ PUSH2 0x351 JUMPI DUP1 PUSH4 0xE985E9C5 EQ PUSH2 0x2FB JUMPI DUP1 PUSH4 0xF2FDE38B EQ PUSH2 0x2A7 JUMPI PUSH4 0xF4993018 EQ PUSH2 0x1CC JUMPI PUSH1 0x0 DUP1 REVERT JUMPDEST CALLVALUE PUSH2 0x2A2 JUMPI PUSH1 0x20 CALLDATASIZE PUSH1 0x3 NOT ADD SLT PUSH2 0x2A2 JUMPI PUSH1 0x4 CALLDATALOAD PUSH2 0x1E9 DUP2 PUSH2 0x2806 JUMP JUMPDEST PUSH1 0x1 PUSH1 0x1 PUSH1 0xA0 SHL SUB SWAP1 PUSH2 0x1FF SWAP1 DUP3 AND CALLER EQ PUSH2 0x28CA JUMP JUMPDEST DUP2 PUSH1 0x0 MSTORE PUSH1 0x10 PUSH1 0x20 MSTORE PUSH1 0x40 PUSH1 0x0 KECCAK256 SWAP1 DUP1 DUP3 SLOAD AND PUSH1 0x1 DUP4 ADD SWAP3 DUP4 SLOAD SWAP1 PUSH1 0x64 PUSH2 0x22E PUSH2 0x227 PUSH2 0x2B00 JUMP JUMPDEST MLOAD DUP5 PUSH2 0x2906 JUMP JUMPDEST DIV DUP1 SWAP6 SSTORE PUSH1 0x2 TIMESTAMP SWAP2 ADD SSTORE PUSH1 0x40 MLOAD SWAP1 DUP2 MSTORE DUP5 PUSH1 0x20 DUP3 ADD MSTORE PUSH32 0x91FB9D98B786C57D74C099CCD2BECA1739E9F6A81FB49001CA465C4B7591BBE2 PUSH1 0x40 CALLER SWAP3 LOG3 PUSH1 0xA SLOAD AND SWAP2 PUSH1 0x40 MLOAD SWAP2 DUP3 MSTORE PUSH1 0x20 DUP3 ADD MSTORE PUSH32 0xF5681F9D0DB1B911AC18EE83D515A1CF1051853A9EAE418316A2FDF7DEA427C5 PUSH1 0x40 CALLER SWAP3 LOG3 STOP JUMPDEST PUSH1 0x0 DUP1 REVERT JUMPDEST CALLVALUE PUSH2 0x2A2 JUMPI PUSH1 0x20 CALLDATASIZE PUSH1 0x3 NOT ADD SLT PUSH2 0x2A2 JUMPI PUSH2 0x2C0 PUSH2 0x21A6 JUMP JUMPDEST PUSH2 0x2C8 PUSH2 0x24B3 JUMP JUMPDEST PUSH1 0x1 PUSH1 0x1 PUSH1 0xA0 SHL SUB DUP2 AND ISZERO PUSH2 0x2E2 JUMPI PUSH2 0x2E0 SWAP1 PUSH2 0x24DF JUMP JUMPDEST STOP JUMPDEST PUSH1 0x40 MLOAD PUSH4 0x1E4FBDF7 PUSH1 0xE0 SHL DUP2 MSTORE PUSH1 0x0 PUSH1 0x4 DUP3 ADD MSTORE PUSH1 0x24 SWAP1 REVERT JUMPDEST CALLVALUE PUSH2 0x2A2 JUMPI PUSH1 0x40 CALLDATASIZE PUSH1 0x3 NOT ADD SLT PUSH2 0x2A2 JUMPI PUSH2 0x314 PUSH2 0x21A6 JUMP JUMPDEST PUSH2 0x31C PUSH2 0x21BC JUMP JUMPDEST SWAP1 PUSH1 0x1 DUP1 PUSH1 0xA0 SHL SUB DUP1 SWAP2 AND PUSH1 0x0 MSTORE PUSH1 0x5 PUSH1 0x20 MSTORE PUSH1 0x40 PUSH1 0x0 KECCAK256 SWAP2 AND PUSH1 0x0 MSTORE PUSH1 0x20 MSTORE PUSH1 0x20 PUSH1 0xFF PUSH1 0x40 PUSH1 0x0 KECCAK256 SLOAD AND PUSH1 0x40 MLOAD SWAP1 ISZERO ISZERO DUP2 MSTORE RETURN JUMPDEST CALLVALUE PUSH2 0x2A2 JUMPI PUSH1 0x20 CALLDATASIZE PUSH1 0x3 NOT ADD SLT PUSH2 0x2A2 JUMPI PUSH1 0x1 PUSH1 0x1 PUSH1 0xA0 SHL SUB PUSH2 0x372 PUSH2 0x21A6 JUMP JUMPDEST AND PUSH1 0x0 MSTORE PUSH1 0x11 PUSH1 0x20 MSTORE PUSH1 0x20 PUSH1 0x40 PUSH1 0x0 KECCAK256 SLOAD PUSH1 0x40 MLOAD SWAP1 DUP2 MSTORE RETURN JUMPDEST CALLVALUE PUSH2 0x2A2 JUMPI PUSH1 0x20 DUP1 PUSH1 0x3 NOT CALLDATASIZE ADD SLT PUSH2 0x2A2 JUMPI PUSH1 0x4 CALLDATALOAD SWAP1 PUSH2 0x3AA DUP3 PUSH2 0x2806 JUMP JUMPDEST PUSH1 0x1 PUSH1 0x1 PUSH1 0xA0 SHL SUB SWAP3 SWAP1 PUSH2 0x3C1 SWAP1 DUP5 AND CALLER EQ PUSH2 0x28CA JUMP JUMPDEST DUP1 PUSH1 0x0 MSTORE PUSH1 0x10 DUP3 MSTORE PUSH1 0x40 PUSH1 0x0 KECCAK256 SWAP3 PUSH1 0x40 MLOAD PUSH2 0x3DB DUP2 PUSH2 0x2207 JUMP JUMPDEST PUSH2 0x41B DUP3 DUP7 SLOAD AND DUP1 DUP4 MSTORE PUSH1 0x1 DUP8 ADD SLOAD SWAP1 PUSH1 0xFF PUSH1 0x4 DUP9 DUP7 ADD SWAP10 DUP5 DUP12 MSTORE PUSH1 0x2 DUP2 ADD SLOAD PUSH1 0x40 DUP9 ADD MSTORE PUSH1 0x3 DUP2 ADD SLOAD PUSH1 0x60 DUP9 ADD MSTORE ADD SLOAD AND ISZERO ISZERO PUSH1 0x80 DUP6 ADD MSTORE CALLER SWAP1 PUSH2 0x2A7A JUMP JUMPDEST DUP5 MLOAD DUP3 DUP3 MLOAD AND PUSH1 0x0 MSTORE PUSH1 0x11 DUP6 MSTORE PUSH2 0x438 PUSH1 0x40 PUSH1 0x0 KECCAK256 SWAP2 DUP3 SLOAD PUSH2 0x2919 JUMP JUMPDEST SWAP1 SSTORE DUP3 PUSH1 0x0 MSTORE PUSH1 0x2 DUP5 MSTORE DUP2 PUSH1 0x40 PUSH1 0x0 KECCAK256 SLOAD AND DUP4 PUSH1 0x0 DUP3 ISZERO SWAP3 DUP4 ISZERO PUSH2 0x50E JUMPI JUMPDEST DUP3 DUP3 MSTORE PUSH1 0x2 DUP9 MSTORE PUSH1 0x40 DUP3 KECCAK256 DUP1 SLOAD PUSH1 0x1 PUSH1 0x1 PUSH1 0xA0 SHL SUB NOT AND SWAP1 SSTORE PUSH32 0xDDF252AD1BE2C89B69C2B068FC378DAA952BA7F163C4A11628F55A4DF523B3EF DUP3 DUP1 LOG4 PUSH2 0x4F5 JUMPI DUP3 PUSH1 0x0 MSTORE PUSH1 0x10 DUP5 MSTORE PUSH1 0x0 PUSH1 0x4 PUSH1 0x40 DUP3 KECCAK256 DUP3 DUP2 SSTORE DUP3 PUSH1 0x1 DUP3 ADD SSTORE DUP3 PUSH1 0x2 DUP3 ADD SSTORE DUP3 PUSH1 0x3 DUP3 ADD SSTORE ADD SSTORE MLOAD AND SWAP3 MLOAD SWAP2 PUSH1 0x40 MLOAD SWAP3 DUP4 MSTORE DUP3 ADD MSTORE PUSH32 0x91FB9D98B786C57D74C099CCD2BECA1739E9F6A81FB49001CA465C4B7591BBE2 PUSH1 0x40 CALLER SWAP3 LOG3 STOP JUMPDEST PUSH1 0x40 MLOAD PUSH4 0x7E273289 PUSH1 0xE0 SHL DUP2 MSTORE PUSH1 0x4 DUP2 ADD DUP5 SWAP1 MSTORE PUSH1 0x24 SWAP1 REVERT JUMPDEST PUSH1 0x0 DUP4 DUP2 MSTORE PUSH1 0x4 PUSH1 0x20 MSTORE PUSH1 0x40 SWAP1 KECCAK256 DUP1 SLOAD PUSH1 0x1 PUSH1 0x1 PUSH1 0xA0 SHL SUB NOT AND SWAP1 SSTORE DUP1 DUP3 MSTORE PUSH1 0x3 DUP9 MSTORE PUSH1 0x40 DUP3 KECCAK256 DUP3 NOT DUP2 SLOAD ADD SWAP1 SSTORE PUSH2 0x457 JUMP JUMPDEST CALLVALUE PUSH2 0x2A2 JUMPI PUSH1 0x40 CALLDATASIZE PUSH1 0x3 NOT ADD SLT PUSH2 0x2A2 JUMPI PUSH2 0x2E0 PUSH1 0x4 CALLDATALOAD PUSH2 0x560 PUSH2 0x21BC JUMP JUMPDEST SWAP1 DUP1 PUSH1 0x0 MSTORE PUSH1 0x7 PUSH1 0x20 MSTORE PUSH2 0x57B PUSH1 0x1 PUSH1 0x40 PUSH1 0x0 KECCAK256 ADD SLOAD PUSH2 0x22E7 JUMP JUMPDEST PUSH2 0x243C JUMP JUMPDEST CALLVALUE PUSH2 0x2A2 JUMPI PUSH1 0x0 CALLDATASIZE PUSH1 0x3 NOT ADD SLT PUSH2 0x2A2 JUMPI PUSH1 0xC SLOAD PUSH1 0x40 MLOAD PUSH1 0x1 PUSH1 0x1 PUSH1 0xA0 SHL SUB SWAP1 SWAP2 AND DUP2 MSTORE PUSH1 0x20 SWAP1 RETURN JUMPDEST CALLVALUE PUSH2 0x2A2 JUMPI PUSH1 0xC0 CALLDATASIZE PUSH1 0x3 NOT ADD SLT PUSH2 0x2A2 JUMPI PUSH2 0x5C2 PUSH2 0x21A6 JUMP JUMPDEST PUSH2 0x5CA PUSH2 0x21BC JUMP JUMPDEST SWAP1 PUSH1 0x44 SWAP1 PUSH1 0x1 PUSH1 0x1 PUSH1 0xA0 SHL SUB SWAP1 DUP3 CALLDATALOAD DUP3 DUP2 AND SWAP1 DUP2 SWAP1 SUB PUSH2 0x2A2 JUMPI PUSH1 0x64 SWAP5 DUP6 CALLDATALOAD DUP5 DUP2 AND DUP1 SWAP2 SUB PUSH2 0x2A2 JUMPI PUSH1 0x84 CALLDATALOAD SWAP1 DUP6 DUP3 AND DUP1 SWAP3 SUB PUSH2 0x2A2 JUMPI PUSH1 0xA4 CALLDATALOAD SWAP4 DUP7 DUP6 AND DUP1 SWAP6 SUB PUSH2 0x2A2 JUMPI PUSH32 0xF0C57E16840DF040F15088DC2F81FE391C3923BEC73E23A9662EFC9C229C6A00 SWAP8 DUP9 SLOAD SWAP8 PUSH1 0xFF DUP10 PUSH1 0x40 SHR AND ISZERO SWAP9 PUSH8 0xFFFFFFFFFFFFFFFF DUP2 AND DUP1 ISZERO SWAP1 DUP2 PUSH2 0x8F5 JUMPI JUMPDEST PUSH1 0x1 EQ SWAP1 DUP2 PUSH2 0x8EB JUMPI JUMPDEST ISZERO SWAP1 DUP2 PUSH2 0x8E2 JUMPI JUMPDEST POP PUSH2 0x8D0 JUMPI PUSH8 0xFFFFFFFFFFFFFFFF NOT DUP2 AND PUSH1 0x1 OR DUP12 SSTORE DUP10 PUSH2 0x8B1 JUMPI JUMPDEST POP DUP1 DUP9 AND SWAP6 DUP7 ISZERO PUSH2 0x86E JUMPI AND SWAP1 DUP2 ISZERO PUSH2 0x834 JUMPI DUP3 ISZERO PUSH2 0x7FA JUMPI DUP4 ISZERO PUSH2 0x7BF JUMPI DUP5 ISZERO PUSH2 0x786 JUMPI DUP7 ISZERO PUSH2 0x74A JUMPI POP PUSH2 0x701 SWAP8 SWAP9 SWAP10 POP PUSH2 0x6BB CALLER PUSH2 0x24DF JUMP JUMPDEST PUSH1 0x1 PUSH1 0x1 PUSH1 0x60 SHL SUB PUSH1 0xA0 SHL SWAP5 DUP6 PUSH1 0x9 SLOAD AND OR PUSH1 0x9 SSTORE DUP5 PUSH1 0xA SLOAD AND OR PUSH1 0xA SSTORE DUP4 PUSH1 0xB SLOAD AND OR PUSH1 0xB SSTORE DUP3 PUSH1 0xC SLOAD AND OR PUSH1 0xC SSTORE DUP2 PUSH1 0xD SLOAD AND OR PUSH1 0xD SSTORE PUSH1 0xE SLOAD AND OR PUSH1 0xE SSTORE PUSH2 0x232B JUMP JUMPDEST POP PUSH1 0x1 PUSH1 0xF SSTORE PUSH2 0x70D JUMPI STOP JUMPDEST PUSH9 0xFF0000000000000000 NOT DUP2 SLOAD AND SWAP1 SSTORE PUSH32 0xC7F505B2F371AE2175EE4913F4499E1F2633A7B5936321EED1CDAEB6115181D2 PUSH1 0x20 PUSH1 0x40 MLOAD PUSH1 0x1 DUP2 MSTORE LOG1 STOP JUMPDEST DUP11 SWAP1 PUSH22 0x496E76616C6964206F7261636C652061646472657373 PUSH1 0x50 SHL PUSH1 0x40 MLOAD SWAP2 PUSH3 0x461BCD PUSH1 0xE5 SHL DUP4 MSTORE PUSH1 0x20 PUSH1 0x4 DUP5 ADD MSTORE PUSH1 0x16 PUSH1 0x24 DUP5 ADD MSTORE DUP3 ADD MSTORE REVERT JUMPDEST DUP11 SWAP1 PUSH19 0x496E76616C6964204445582061646472657373 PUSH1 0x68 SHL PUSH1 0x40 MLOAD SWAP2 PUSH3 0x461BCD PUSH1 0xE5 SHL DUP4 MSTORE PUSH1 0x20 PUSH1 0x4 DUP5 ADD MSTORE PUSH1 0x13 PUSH1 0x24 DUP5 ADD MSTORE DUP3 ADD MSTORE REVERT JUMPDEST DUP11 SWAP1 PUSH21 0x496E76616C696420635245414C2061646472657373 PUSH1 0x58 SHL PUSH1 0x40 MLOAD SWAP2 PUSH3 0x461BCD PUSH1 0xE5 SHL DUP4 MSTORE PUSH1 0x20 PUSH1 0x4 DUP5 ADD MSTORE PUSH1 0x15 PUSH1 0x24 DUP5 ADD MSTORE DUP3 ADD MSTORE REVERT JUMPDEST DUP11 SWAP1 PUSH20 0x496E76616C696420634555522061646472657373 PUSH1 0x60 SHL PUSH1 0x40 MLOAD SWAP2 PUSH3 0x461BCD PUSH1 0xE5 SHL DUP4 MSTORE PUSH1 0x20 PUSH1 0x4 DUP5 ADD MSTORE PUSH1 0x14 PUSH1 0x24 DUP5 ADD MSTORE DUP3 ADD MSTORE REVERT JUMPDEST DUP11 SWAP1 PUSH20 0x496E76616C696420635553442061646472657373 PUSH1 0x60 SHL PUSH1 0x40 MLOAD SWAP2 PUSH3 0x461BCD PUSH1 0xE5 SHL DUP4 MSTORE PUSH1 0x20 PUSH1 0x4 DUP5 ADD MSTORE PUSH1 0x14 PUSH1 0x24 DUP5 ADD MSTORE DUP3 ADD MSTORE REVERT JUMPDEST PUSH1 0x40 MLOAD PUSH3 0x461BCD PUSH1 0xE5 SHL DUP2 MSTORE PUSH1 0x20 PUSH1 0x4 DUP3 ADD MSTORE PUSH1 0x17 PUSH1 0x24 DUP3 ADD MSTORE PUSH32 0x496E76616C696420666163746F72792061646472657373000000000000000000 DUP2 DUP6 ADD MSTORE DUP13 SWAP1 REVERT JUMPDEST PUSH9 0xFFFFFFFFFFFFFFFFFF NOT AND PUSH9 0x10000000000000001 OR DUP11 SSTORE DUP12 PUSH2 0x67F JUMP JUMPDEST PUSH1 0x40 MLOAD PUSH4 0xF92EE8A9 PUSH1 0xE0 SHL DUP2 MSTORE PUSH1 0x4 SWAP1 REVERT JUMPDEST SWAP1 POP ISZERO DUP14 PUSH2 0x663 JUMP JUMPDEST ADDRESS EXTCODESIZE ISZERO SWAP2 POP PUSH2 0x65B JUMP JUMPDEST DUP12 SWAP2 POP PUSH2 0x651 JUMP JUMPDEST CALLVALUE PUSH2 0x2A2 JUMPI PUSH1 0x20 CALLDATASIZE PUSH1 0x3 NOT ADD SLT PUSH2 0x2A2 JUMPI PUSH2 0x919 PUSH1 0x4 CALLDATALOAD PUSH2 0x2806 JUMP JUMPDEST POP PUSH1 0x0 PUSH1 0x40 MLOAD PUSH2 0x928 DUP2 PUSH2 0x2255 JUMP JUMPDEST MSTORE PUSH2 0x950 PUSH1 0x40 MLOAD PUSH2 0x938 DUP2 PUSH2 0x2255 JUMP JUMPDEST PUSH1 0x0 DUP2 MSTORE PUSH1 0x40 MLOAD SWAP2 DUP3 SWAP2 PUSH1 0x20 DUP4 MSTORE PUSH1 0x20 DUP4 ADD SWAP1 PUSH2 0x2166 JUMP JUMPDEST SUB SWAP1 RETURN JUMPDEST CALLVALUE PUSH2 0x2A2 JUMPI PUSH1 0x0 CALLDATASIZE PUSH1 0x3 NOT ADD SLT PUSH2 0x2A2 JUMPI PUSH1 0x9 SLOAD PUSH1 0x40 MLOAD PUSH1 0x1 PUSH1 0x1 PUSH1 0xA0 SHL SUB SWAP1 SWAP2 AND DUP2 MSTORE PUSH1 0x20 SWAP1 RETURN JUMPDEST CALLVALUE PUSH2 0x2A2 JUMPI PUSH1 0x80 CALLDATASIZE PUSH1 0x3 NOT ADD SLT PUSH2 0x2A2 JUMPI PUSH2 0x996 PUSH2 0x21A6 JUMP JUMPDEST PUSH2 0x99E PUSH2 0x21BC JUMP JUMPDEST PUSH1 0x64 CALLDATALOAD SWAP2 PUSH8 0xFFFFFFFFFFFFFFFF DUP4 GT PUSH2 0x2A2 JUMPI CALLDATASIZE PUSH1 0x23 DUP5 ADD SLT ISZERO PUSH2 0x2A2 JUMPI DUP3 PUSH1 0x4 ADD CALLDATALOAD SWAP2 PUSH2 0x9CB DUP4 PUSH2 0x22CB JUMP JUMPDEST SWAP3 PUSH2 0x9D9 PUSH1 0x40 MLOAD SWAP5 DUP6 PUSH2 0x22A9 JUMP JUMPDEST DUP1 DUP5 MSTORE CALLDATASIZE PUSH1 0x24 DUP3 DUP8 ADD ADD GT PUSH2 0x2A2 JUMPI PUSH1 0x20 DUP2 PUSH1 0x0 SWAP3 PUSH1 0x24 PUSH2 0x2E0 SWAP9 ADD DUP4 DUP9 ADD CALLDATACOPY DUP6 ADD ADD MSTORE PUSH1 0x44 CALLDATALOAD SWAP2 PUSH2 0x26B1 JUMP JUMPDEST CALLVALUE PUSH2 0x2A2 JUMPI PUSH1 0x20 CALLDATASIZE PUSH1 0x3 NOT ADD SLT PUSH2 0x2A2 JUMPI PUSH1 0x1 PUSH1 0x1 PUSH1 0xA0 SHL SUB PUSH2 0xA27 PUSH2 0x21A6 JUMP JUMPDEST AND PUSH1 0x0 MSTORE PUSH1 0x12 PUSH1 0x20 MSTORE PUSH1 0x20 PUSH1 0x40 PUSH1 0x0 KECCAK256 SLOAD PUSH1 0x40 MLOAD SWAP1 DUP2 MSTORE RETURN JUMPDEST CALLVALUE PUSH2 0x2A2 JUMPI PUSH1 0x0 CALLDATASIZE PUSH1 0x3 NOT ADD SLT PUSH2 0x2A2 JUMPI PUSH1 0xE SLOAD PUSH1 0x40 MLOAD PUSH1 0x1 PUSH1 0x1 PUSH1 0xA0 SHL SUB SWAP1 SWAP2 AND DUP2 MSTORE PUSH1 0x20 SWAP1 RETURN JUMPDEST CALLVALUE PUSH2 0x2A2 JUMPI PUSH1 0x40 CALLDATASIZE PUSH1 0x3 NOT ADD SLT PUSH2 0x2A2 JUMPI PUSH2 0xA82 PUSH2 0x21A6 JUMP JUMPDEST PUSH1 0x24 CALLDATALOAD SWAP1 DUP2 ISZERO ISZERO SWAP1 DUP2 DUP4 SUB PUSH2 0x2A2 JUMPI PUSH1 0x1 PUSH1 0x1 PUSH1 0xA0 SHL SUB AND SWAP2 DUP3 ISZERO PUSH2 0xAFE JUMPI PUSH2 0xAD0 SWAP1 CALLER PUSH1 0x0 MSTORE PUSH1 0x5 PUSH1 0x20 MSTORE PUSH1 0x40 PUSH1 0x0 KECCAK256 DUP5 PUSH1 0x0 MSTORE PUSH1 0x20 MSTORE PUSH1 0x40 PUSH1 0x0 KECCAK256 SWAP1 PUSH1 0xFF DUP1 NOT DUP4 SLOAD AND SWAP2 ISZERO ISZERO AND OR SWAP1 SSTORE JUMP JUMPDEST PUSH1 0x40 MLOAD SWAP1 DUP2 MSTORE PUSH32 0x17307EAB39AB6107E8899845AD3D59BD9653F200F220920489CA2B5937696C31 PUSH1 0x20 CALLER SWAP3 LOG3 STOP JUMPDEST PUSH1 0x40 MLOAD PUSH4 0xB611743 PUSH1 0xE3 SHL DUP2 MSTORE PUSH1 0x4 DUP2 ADD DUP5 SWAP1 MSTORE PUSH1 0x24 SWAP1 REVERT JUMPDEST CALLVALUE PUSH2 0x2A2 JUMPI PUSH1 0x0 CALLDATASIZE PUSH1 0x3 NOT ADD SLT PUSH2 0x2A2 JUMPI PUSH1 0x20 PUSH1 0x40 MLOAD PUSH1 0x0 DUP2 MSTORE RETURN JUMPDEST CALLVALUE PUSH2 0x2A2 JUMPI PUSH1 0x20 CALLDATASIZE PUSH1 0x3 NOT ADD SLT PUSH2 0x2A2 JUMPI PUSH1 0x4 CALLDATALOAD PUSH1 0x0 MSTORE PUSH1 0x10 PUSH1 0x20 MSTORE PUSH1 0xA0 PUSH1 0x40 PUSH1 0x0 KECCAK256 PUSH1 0x1 DUP1 DUP4 SHL SUB DUP2 SLOAD AND SWAP1 PUSH1 0x1 DUP2 ADD SLOAD SWAP1 PUSH1 0x2 DUP2 ADD SLOAD PUSH1 0xFF PUSH1 0x4 PUSH1 0x3 DUP5 ADD SLOAD SWAP4 ADD SLOAD AND SWAP3 PUSH1 0x40 MLOAD SWAP5 DUP6 MSTORE PUSH1 0x20 DUP6 ADD MSTORE PUSH1 0x40 DUP5 ADD MSTORE PUSH1 0x60 DUP4 ADD MSTORE ISZERO ISZERO PUSH1 0x80 DUP3 ADD MSTORE RETURN JUMPDEST CALLVALUE PUSH2 0x2A2 JUMPI PUSH1 0x0 CALLDATASIZE PUSH1 0x3 NOT ADD SLT PUSH2 0x2A2 JUMPI PUSH1 0x40 MLOAD PUSH1 0x0 PUSH1 0x1 SWAP1 DUP2 SLOAD SWAP2 DUP3 DUP2 SHR SWAP2 DUP2 DUP5 AND SWAP2 DUP3 ISZERO PUSH2 0xC98 JUMPI JUMPDEST PUSH1 0x20 SWAP5 DUP6 DUP6 LT DUP5 EQ PUSH2 0xC82 JUMPI DUP6 DUP8 SWAP5 DUP7 DUP7 MSTORE SWAP2 DUP3 PUSH1 0x0 EQ PUSH2 0xC62 JUMPI POP POP PUSH1 0x1 EQ PUSH2 0xC08 JUMPI JUMPDEST POP PUSH2 0xBF4 SWAP3 POP SUB DUP4 PUSH2 0x22A9 JUMP JUMPDEST PUSH2 0x950 PUSH1 0x40 MLOAD SWAP3 DUP3 DUP5 SWAP4 DUP5 MSTORE DUP4 ADD SWAP1 PUSH2 0x2166 JUMP JUMPDEST PUSH1 0x0 DUP2 DUP2 MSTORE DUP6 SWAP3 POP SWAP1 PUSH32 0xB10E2D527612073B26EECDFD717E6A320CF44B4AFAC2B0732D9FCBE2B7FA0CF6 JUMPDEST DUP6 DUP4 LT PUSH2 0xC4A JUMPI POP POP PUSH2 0xBF4 SWAP4 POP DUP3 ADD ADD DUP6 PUSH2 0xBE7 JUMP JUMPDEST DUP1 SLOAD DUP4 DUP10 ADD DUP6 ADD MSTORE DUP8 SWAP5 POP DUP7 SWAP4 SWAP1 SWAP3 ADD SWAP2 DUP2 ADD PUSH2 0xC33 JUMP JUMPDEST PUSH1 0xFF NOT AND DUP6 DUP3 ADD MSTORE PUSH2 0xBF4 SWAP6 ISZERO ISZERO PUSH1 0x5 SHL DUP6 ADD ADD SWAP3 POP DUP8 SWAP2 POP PUSH2 0xBE7 SWAP1 POP JUMP JUMPDEST PUSH4 0x4E487B71 PUSH1 0xE0 SHL PUSH1 0x0 MSTORE PUSH1 0x22 PUSH1 0x4 MSTORE PUSH1 0x24 PUSH1 0x0 REVERT JUMPDEST SWAP3 PUSH1 0x7F AND SWAP3 PUSH2 0xBC2 JUMP JUMPDEST CALLVALUE PUSH2 0x2A2 JUMPI PUSH1 0x40 CALLDATASIZE PUSH1 0x3 NOT ADD SLT PUSH2 0x2A2 JUMPI PUSH2 0xCBB PUSH2 0x21BC JUMP JUMPDEST PUSH1 0x4 CALLDATALOAD PUSH1 0x0 MSTORE PUSH1 0x7 PUSH1 0x20 MSTORE PUSH1 0x40 PUSH1 0x0 KECCAK256 SWAP1 PUSH1 0x1 DUP1 PUSH1 0xA0 SHL SUB AND PUSH1 0x0 MSTORE PUSH1 0x20 MSTORE PUSH1 0x20 PUSH1 0xFF PUSH1 0x40 PUSH1 0x0 KECCAK256 SLOAD AND PUSH1 0x40 MLOAD SWAP1 ISZERO ISZERO DUP2 MSTORE RETURN JUMPDEST CALLVALUE PUSH2 0x2A2 JUMPI PUSH1 0x0 CALLDATASIZE PUSH1 0x3 NOT ADD SLT PUSH2 0x2A2 JUMPI PUSH1 0x6 SLOAD PUSH1 0x40 MLOAD PUSH1 0x1 PUSH1 0x1 PUSH1 0xA0 SHL SUB SWAP1 SWAP2 AND DUP2 MSTORE PUSH1 0x20 SWAP1 RETURN JUMPDEST CALLVALUE PUSH2 0x2A2 JUMPI PUSH1 0x20 CALLDATASIZE PUSH1 0x3 NOT ADD SLT PUSH2 0x2A2 JUMPI PUSH1 0x20 PUSH2 0xD36 PUSH1 0x4 CALLDATALOAD PUSH2 0x2926 JUMP JUMPDEST PUSH1 0x40 MLOAD SWAP1 DUP2 MSTORE RETURN JUMPDEST CALLVALUE PUSH2 0x2A2 JUMPI PUSH1 0x0 CALLDATASIZE PUSH1 0x3 NOT ADD SLT PUSH2 0x2A2 JUMPI PUSH1 0xB SLOAD PUSH1 0x40 MLOAD PUSH1 0x1 PUSH1 0x1 PUSH1 0xA0 SHL SUB SWAP1 SWAP2 AND DUP2 MSTORE PUSH1 0x20 SWAP1 RETURN JUMPDEST CALLVALUE PUSH2 0x2A2 JUMPI PUSH1 0x0 CALLDATASIZE PUSH1 0x3 NOT ADD SLT PUSH2 0x2A2 JUMPI PUSH1 0x20 PUSH1 0xF SLOAD PUSH1 0x40 MLOAD SWAP1 DUP2 MSTORE RETURN JUMPDEST CALLVALUE PUSH2 0x2A2 JUMPI PUSH1 0x0 CALLDATASIZE PUSH1 0x3 NOT ADD SLT PUSH2 0x2A2 JUMPI PUSH2 0xD9E PUSH2 0x24B3 JUMP JUMPDEST PUSH1 0x6 DUP1 SLOAD PUSH1 0x1 PUSH1 0x1 PUSH1 0xA0 SHL SUB NOT DUP2 AND SWAP1 SWAP2 SSTORE PUSH1 0x0 SWAP1 PUSH1 0x1 PUSH1 0x1 PUSH1 0xA0 SHL SUB AND PUSH32 0x8BE0079C531659141344CD1FD0A4F28419497F9722A3DAAFE3B4186F6B6457E0 DUP3 DUP1 LOG3 STOP JUMPDEST CALLVALUE PUSH2 0x2A2 JUMPI PUSH1 0x20 CALLDATASIZE PUSH1 0x3 NOT ADD SLT PUSH2 0x2A2 JUMPI PUSH1 0x1 PUSH1 0x1 PUSH1 0xA0 SHL SUB PUSH2 0xE03 PUSH2 0x21A6 JUMP JUMPDEST AND DUP1 ISZERO PUSH2 0xE22 JUMPI PUSH1 0x0 MSTORE PUSH1 0x3 PUSH1 0x20 MSTORE PUSH1 0x20 PUSH1 0x40 PUSH1 0x0 KECCAK256 SLOAD PUSH1 0x40 MLOAD SWAP1 DUP2 MSTORE RETURN JUMPDEST PUSH1 0x40 MLOAD PUSH4 0x22718AD9 PUSH1 0xE2 SHL DUP2 MSTORE PUSH1 0x0 PUSH1 0x4 DUP3 ADD MSTORE PUSH1 0x24 SWAP1 REVERT JUMPDEST CALLVALUE PUSH2 0x2A2 JUMPI PUSH1 0x0 CALLDATASIZE PUSH1 0x3 NOT ADD SLT PUSH2 0x2A2 JUMPI PUSH1 0xD SLOAD PUSH1 0x40 MLOAD PUSH1 0x1 PUSH1 0x1 PUSH1 0xA0 SHL SUB SWAP1 SWAP2 AND DUP2 MSTORE PUSH1 0x20 SWAP1 RETURN JUMPDEST CALLVALUE PUSH2 0x2A2 JUMPI PUSH1 0x20 CALLDATASIZE PUSH1 0x3 NOT ADD SLT PUSH2 0x2A2 JUMPI PUSH1 0x20 PUSH2 0xE82 PUSH1 0x4 CALLDATALOAD PUSH2 0x2806 JUMP JUMPDEST PUSH1 0x40 MLOAD PUSH1 0x1 PUSH1 0x1 PUSH1 0xA0 SHL SUB SWAP1 SWAP2 AND DUP2 MSTORE RETURN JUMPDEST CALLVALUE PUSH2 0x2A2 JUMPI PUSH1 0x40 CALLDATASIZE PUSH1 0x3 NOT ADD SLT PUSH2 0x2A2 JUMPI PUSH2 0xEAD PUSH2 0x21A6 JUMP JUMPDEST PUSH1 0x2 PUSH1 0x8 SLOAD EQ PUSH2 0x1C96 JUMPI PUSH1 0x2 PUSH1 0x8 SSTORE PUSH1 0xFF PUSH1 0x13 SLOAD AND ISZERO PUSH2 0x1C51 JUMPI PUSH1 0x40 MLOAD PUSH1 0x0 DUP1 MLOAD PUSH1 0x20 PUSH2 0x2DE3 DUP4 CODECOPY DUP2 MLOAD SWAP2 MSTORE PUSH2 0xF66 PUSH7 0x3A37B5B2B71D1 PUSH1 0xCD SHL SWAP3 DUP4 PUSH1 0x20 DUP3 ADD MSTORE PUSH1 0x1 PUSH1 0x1 PUSH1 0x60 SHL SUB NOT DUP6 PUSH1 0x60 SHL AND PUSH1 0x27 DUP3 ADD MSTORE PUSH9 0x1030B6B7BAB73A1D1 PUSH1 0xBD SHL PUSH1 0x3B DUP3 ADD MSTORE PUSH1 0x24 CALLDATALOAD PUSH1 0x44 DUP3 ADD MSTORE PUSH1 0x44 DUP2 MSTORE PUSH2 0xF28 DUP2 PUSH2 0x2271 JUMP JUMPDEST PUSH1 0x40 MLOAD SWAP2 DUP3 SWAP2 PUSH1 0x40 DUP4 MSTORE PUSH1 0x13 PUSH1 0x40 DUP5 ADD MSTORE PUSH19 0xC4B8814DD185C9D1A5B99C819195C1BDCDA5D PUSH1 0x6A SHL PUSH1 0x60 DUP5 ADD MSTORE PUSH1 0x80 PUSH1 0x20 DUP5 ADD MSTORE PUSH1 0x80 DUP4 ADD SWAP1 PUSH2 0x2166 JUMP JUMPDEST SUB SWAP1 LOG1 PUSH1 0x1 PUSH1 0x1 PUSH1 0xA0 SHL SUB DUP3 AND ISZERO PUSH2 0x1C02 JUMPI PUSH1 0x24 CALLDATALOAD ISZERO PUSH2 0x1BB2 JUMPI PUSH2 0x1004 PUSH1 0x0 DUP1 MLOAD PUSH1 0x20 PUSH2 0x2DE3 DUP4 CODECOPY DUP2 MLOAD SWAP2 MSTORE SWAP2 PUSH1 0x40 MLOAD SWAP1 PUSH1 0x20 DUP3 ADD MSTORE PUSH1 0x1 PUSH1 0x1 PUSH1 0x60 SHL SUB NOT DUP5 PUSH1 0x60 SHL AND PUSH1 0x27 DUP3 ADD MSTORE PUSH1 0x1B DUP2 MSTORE PUSH2 0xFBC DUP2 PUSH2 0x228D JUMP JUMPDEST PUSH1 0x40 MLOAD SWAP2 DUP3 SWAP2 PUSH1 0x40 DUP4 MSTORE PUSH1 0x19 PUSH1 0x40 DUP5 ADD MSTORE PUSH32 0x322E20436865636B696E6720746F6B656E20737570706F727400000000000000 PUSH1 0x60 DUP5 ADD MSTORE PUSH1 0x80 PUSH1 0x20 DUP5 ADD MSTORE PUSH1 0x80 DUP4 ADD SWAP1 PUSH2 0x2166 JUMP JUMPDEST SUB SWAP1 LOG1 PUSH1 0xA SLOAD PUSH1 0x1 PUSH1 0x1 PUSH1 0xA0 SHL SUB DUP3 DUP2 AND SWAP2 AND EQ DUP1 ISZERO PUSH2 0x1B9B JUMPI JUMPDEST DUP1 ISZERO PUSH2 0x1B84 JUMPI JUMPDEST ISZERO PUSH2 0x1B3F JUMPI PUSH1 0x0 DUP1 MLOAD PUSH1 0x20 PUSH2 0x2DE3 DUP4 CODECOPY DUP2 MLOAD SWAP2 MSTORE PUSH1 0xA0 PUSH1 0x40 MLOAD PUSH1 0x40 DUP2 MSTORE PUSH1 0x15 PUSH1 0x40 DUP3 ADD MSTORE PUSH21 0xCCB88151BDAD95B881A5CC81CDD5C1C1BDC9D1959 PUSH1 0x5A SHL PUSH1 0x60 DUP3 ADD MSTORE PUSH1 0x80 PUSH1 0x20 DUP3 ADD MSTORE PUSH1 0x0 PUSH1 0x80 DUP3 ADD MSTORE LOG1 PUSH1 0x0 DUP1 MLOAD PUSH1 0x20 PUSH2 0x2DE3 DUP4 CODECOPY DUP2 MLOAD SWAP2 MSTORE PUSH1 0xC0 PUSH1 0x40 MLOAD PUSH1 0x40 DUP2 MSTORE PUSH1 0x22 PUSH1 0x40 DUP3 ADD MSTORE PUSH32 0x342E2047657474696E672062616C616E6365206265666F7265207472616E7366 PUSH1 0x60 DUP3 ADD MSTORE PUSH2 0x32B9 PUSH1 0xF1 SHL PUSH1 0x80 DUP3 ADD MSTORE PUSH1 0xA0 PUSH1 0x20 DUP3 ADD MSTORE PUSH1 0x0 PUSH1 0xA0 DUP3 ADD MSTORE LOG1 PUSH1 0x40 MLOAD PUSH4 0x70A08231 PUSH1 0xE0 SHL DUP2 MSTORE ADDRESS PUSH1 0x4 DUP3 ADD MSTORE PUSH1 0x20 DUP2 PUSH1 0x24 DUP2 PUSH1 0x1 PUSH1 0x1 PUSH1 0xA0 SHL SUB DUP7 AND GAS STATICCALL SWAP1 DUP2 ISZERO PUSH2 0x1980 JUMPI PUSH1 0x0 SWAP2 PUSH2 0x1B0D JUMPI JUMPDEST POP PUSH1 0x0 DUP1 MLOAD PUSH1 0x20 PUSH2 0x2DE3 DUP4 CODECOPY DUP2 MLOAD SWAP2 MSTORE PUSH2 0x117B PUSH1 0x40 MLOAD DUP4 PUSH1 0x20 DUP3 ADD MSTORE PUSH1 0x20 DUP2 MSTORE PUSH2 0x1133 DUP2 PUSH2 0x228D JUMP JUMPDEST PUSH1 0x40 MLOAD SWAP2 DUP3 SWAP2 PUSH1 0x40 DUP4 MSTORE PUSH1 0x1A PUSH1 0x40 DUP5 ADD MSTORE PUSH32 0x352E2042616C616E6365206265666F7265207472616E73666572000000000000 PUSH1 0x60 DUP5 ADD MSTORE PUSH1 0x80 PUSH1 0x20 DUP5 ADD MSTORE PUSH1 0x80 DUP4 ADD SWAP1 PUSH2 0x2166 JUMP JUMPDEST SUB SWAP1 LOG1 PUSH1 0x0 DUP1 MLOAD PUSH1 0x20 PUSH2 0x2DE3 DUP4 CODECOPY DUP2 MLOAD SWAP2 MSTORE PUSH1 0xC0 PUSH1 0x40 MLOAD PUSH1 0x40 DUP2 MSTORE PUSH1 0x26 PUSH1 0x40 DUP3 ADD MSTORE PUSH32 0x362E20436865636B696E6720757365722062616C616E636520616E6420616C6C PUSH1 0x60 DUP3 ADD MSTORE PUSH6 0x6F77616E6365 PUSH1 0xD0 SHL PUSH1 0x80 DUP3 ADD MSTORE PUSH1 0xA0 PUSH1 0x20 DUP3 ADD MSTORE PUSH1 0x0 PUSH1 0xA0 DUP3 ADD MSTORE LOG1 PUSH1 0x40 MLOAD PUSH4 0x70A08231 PUSH1 0xE0 SHL DUP2 MSTORE CALLER PUSH1 0x4 DUP3 ADD MSTORE PUSH1 0x20 DUP2 PUSH1 0x24 DUP2 PUSH1 0x1 PUSH1 0x1 PUSH1 0xA0 SHL SUB DUP8 AND GAS STATICCALL SWAP1 DUP2 ISZERO PUSH2 0x1980 JUMPI PUSH1 0x0 SWAP2 PUSH2 0x1ADB JUMPI JUMPDEST POP PUSH1 0x40 MLOAD PUSH4 0x6EB1769F PUSH1 0xE1 SHL DUP2 MSTORE CALLER PUSH1 0x4 DUP3 ADD MSTORE ADDRESS PUSH1 0x24 DUP3 ADD MSTORE SWAP1 PUSH1 0x20 DUP3 PUSH1 0x44 DUP2 PUSH1 0x1 PUSH1 0x1 PUSH1 0xA0 SHL SUB DUP9 AND GAS STATICCALL SWAP2 DUP3 ISZERO PUSH2 0x1980 JUMPI PUSH1 0x0 SWAP3 PUSH2 0x1AA7 JUMPI JUMPDEST POP PUSH1 0x0 DUP1 MLOAD PUSH1 0x20 PUSH2 0x2DE3 DUP4 CODECOPY DUP2 MLOAD SWAP2 MSTORE PUSH2 0x130B PUSH1 0x40 MLOAD PUSH9 0x3130B630B731B29D1 PUSH1 0xBD SHL PUSH1 0x20 DUP3 ADD MSTORE DUP4 PUSH1 0x29 DUP3 ADD MSTORE PUSH12 0x1030B63637BBB0B731B29D1 PUSH1 0xA5 SHL PUSH1 0x49 DUP3 ADD MSTORE DUP5 PUSH1 0x55 DUP3 ADD MSTORE PUSH11 0x103932B8BAB4B932B21D1 PUSH1 0xAD SHL PUSH1 0x75 DUP3 ADD MSTORE PUSH1 0x24 CALLDATALOAD PUSH1 0x80 DUP3 ADD MSTORE PUSH1 0x80 DUP2 MSTORE PUSH2 0x12C3 DUP2 PUSH2 0x2207 JUMP JUMPDEST PUSH1 0x40 MLOAD SWAP2 DUP3 SWAP2 PUSH1 0x40 DUP4 MSTORE PUSH1 0x1D PUSH1 0x40 DUP5 ADD MSTORE PUSH32 0x372E20557365722062616C616E636520616E6420616C6C6F77616E6365000000 PUSH1 0x60 DUP5 ADD MSTORE PUSH1 0x80 PUSH1 0x20 DUP5 ADD MSTORE PUSH1 0x80 DUP4 ADD SWAP1 PUSH2 0x2166 JUMP JUMPDEST SUB SWAP1 LOG1 PUSH1 0x24 CALLDATALOAD GT PUSH2 0x1A62 JUMPI PUSH1 0x24 CALLDATALOAD GT PUSH2 0x1A1D JUMPI PUSH1 0x0 DUP1 MLOAD PUSH1 0x20 PUSH2 0x2DE3 DUP4 CODECOPY DUP2 MLOAD SWAP2 MSTORE PUSH1 0xA0 PUSH1 0x40 MLOAD PUSH1 0x40 DUP2 MSTORE PUSH1 0x1C PUSH1 0x40 DUP3 ADD MSTORE PUSH32 0x382E20496E6974696174696E6720746F6B656E207472616E7366657200000000 PUSH1 0x60 DUP3 ADD MSTORE PUSH1 0x80 PUSH1 0x20 DUP3 ADD MSTORE PUSH1 0x0 PUSH1 0x80 DUP3 ADD MSTORE LOG1 PUSH2 0x13B5 PUSH1 0x40 MLOAD PUSH4 0x23B872DD PUSH1 0xE0 SHL PUSH1 0x20 DUP3 ADD MSTORE CALLER PUSH1 0x24 DUP3 ADD MSTORE ADDRESS PUSH1 0x44 DUP3 ADD MSTORE PUSH1 0x24 CALLDATALOAD PUSH1 0x64 DUP3 ADD MSTORE PUSH1 0x64 DUP2 MSTORE PUSH2 0x13A6 DUP2 PUSH2 0x2207 JUMP JUMPDEST PUSH1 0x1 PUSH1 0x1 PUSH1 0xA0 SHL SUB DUP5 AND PUSH2 0x286E JUMP JUMPDEST PUSH1 0x0 DUP1 MLOAD PUSH1 0x20 PUSH2 0x2DE3 DUP4 CODECOPY DUP2 MLOAD SWAP2 MSTORE PUSH1 0xA0 PUSH1 0x40 MLOAD PUSH1 0x40 DUP2 MSTORE PUSH1 0x16 PUSH1 0x40 DUP3 ADD MSTORE PUSH22 0xE4B88151C985B9CD9995C881CDD58D8D95CDCD99D5B PUSH1 0x52 SHL PUSH1 0x60 DUP3 ADD MSTORE PUSH1 0x80 PUSH1 0x20 DUP3 ADD MSTORE PUSH1 0x0 PUSH1 0x80 DUP3 ADD MSTORE LOG1 PUSH1 0x0 DUP1 MLOAD PUSH1 0x20 PUSH2 0x2DE3 DUP4 CODECOPY DUP2 MLOAD SWAP2 MSTORE PUSH1 0xA0 PUSH1 0x40 MLOAD PUSH1 0x40 DUP2 MSTORE PUSH1 0x16 PUSH1 0x40 DUP3 ADD MSTORE PUSH22 0x189817102B32B934B33CB4B733903A3930B739B332B9 PUSH1 0x51 SHL PUSH1 0x60 DUP3 ADD MSTORE PUSH1 0x80 PUSH1 0x20 DUP3 ADD MSTORE PUSH1 0x0 PUSH1 0x80 DUP3 ADD MSTORE LOG1 PUSH1 0x40 MLOAD PUSH4 0x70A08231 PUSH1 0xE0 SHL DUP2 MSTORE ADDRESS PUSH1 0x4 DUP3 ADD MSTORE SWAP1 PUSH1 0x20 DUP3 PUSH1 0x24 DUP2 PUSH1 0x1 PUSH1 0x1 PUSH1 0xA0 SHL SUB DUP8 AND GAS STATICCALL SWAP2 DUP3 ISZERO PUSH2 0x1980 JUMPI PUSH1 0x0 SWAP3 PUSH2 0x19E7 JUMPI JUMPDEST POP PUSH2 0x153C SWAP1 PUSH1 0x0 DUP1 MLOAD PUSH1 0x20 PUSH2 0x2DE3 DUP4 CODECOPY DUP2 MLOAD SWAP2 MSTORE PUSH2 0x1530 PUSH2 0x14A7 PUSH1 0x24 CALLDATALOAD DUP5 PUSH2 0x2861 JUMP JUMPDEST PUSH1 0x40 MLOAD SWAP1 PUSH8 0x30B1BA3AB0B61D1 PUSH1 0xC5 SHL PUSH1 0x20 DUP4 ADD MSTORE DUP7 PUSH1 0x28 DUP4 ADD MSTORE PUSH11 0x1032BC3832B1BA32B21D1 PUSH1 0xAD SHL PUSH1 0x48 DUP4 ADD MSTORE PUSH1 0x53 DUP3 ADD MSTORE PUSH1 0x53 DUP2 MSTORE PUSH2 0x14E8 DUP2 PUSH2 0x2271 JUMP JUMPDEST PUSH1 0x40 MLOAD SWAP2 DUP3 SWAP2 PUSH1 0x40 DUP4 MSTORE PUSH1 0x1A PUSH1 0x40 DUP5 ADD MSTORE PUSH32 0x31312E2042616C616E6365206166746572207472616E73666572000000000000 PUSH1 0x60 DUP5 ADD MSTORE PUSH1 0x80 PUSH1 0x20 DUP5 ADD MSTORE PUSH1 0x80 DUP4 ADD SWAP1 PUSH2 0x2166 JUMP JUMPDEST SUB SWAP1 LOG1 PUSH1 0x24 CALLDATALOAD SWAP1 PUSH2 0x2861 JUMP JUMPDEST SUB PUSH2 0x19A2 JUMPI PUSH1 0x0 DUP1 MLOAD PUSH1 0x20 PUSH2 0x2DE3 DUP4 CODECOPY DUP2 MLOAD SWAP2 MSTORE PUSH1 0xA0 PUSH1 0x40 MLOAD PUSH1 0x40 DUP2 MSTORE PUSH1 0x15 PUSH1 0x40 DUP3 ADD MSTORE PUSH21 0xC4C8B88151C985B9CD9995C881D995C9A599A5959 PUSH1 0x5A SHL PUSH1 0x60 DUP3 ADD MSTORE PUSH1 0x80 PUSH1 0x20 DUP3 ADD MSTORE PUSH1 0x0 PUSH1 0x80 DUP3 ADD MSTORE LOG1 PUSH1 0xF SLOAD SWAP1 PUSH1 0x0 NOT DUP1 DUP4 EQ PUSH2 0x198C JUMPI PUSH1 0x1 DUP4 ADD PUSH1 0xF SSTORE PUSH1 0xE SLOAD PUSH1 0x40 MLOAD PUSH4 0xC4F9870B PUSH1 0xE0 SHL DUP2 MSTORE PUSH1 0x1 PUSH1 0x1 PUSH1 0xA0 SHL SUB DUP5 DUP2 AND PUSH1 0x4 DUP4 ADD MSTORE SWAP1 SWAP2 PUSH1 0x20 SWAP2 DUP4 SWAP2 PUSH1 0x24 SWAP2 DUP4 SWAP2 AND GAS STATICCALL SWAP1 DUP2 ISZERO PUSH2 0x1980 JUMPI PUSH1 0x0 SWAP2 PUSH2 0x194E JUMPI JUMPDEST POP PUSH2 0x1674 PUSH1 0x40 MLOAD PUSH2 0x15F0 DUP2 PUSH2 0x2207 JUMP JUMPDEST PUSH1 0x1 DUP1 PUSH1 0xA0 SHL SUB DUP6 AND DUP2 MSTORE PUSH1 0x4 PUSH1 0x20 DUP3 ADD SWAP4 PUSH1 0x24 CALLDATALOAD DUP6 MSTORE PUSH1 0x40 DUP4 ADD SWAP1 TIMESTAMP DUP3 MSTORE PUSH1 0x60 DUP5 ADD SWAP1 DUP2 MSTORE PUSH1 0x80 DUP5 ADD SWAP2 PUSH1 0x1 DUP4 MSTORE DUP10 PUSH1 0x0 MSTORE PUSH1 0x10 PUSH1 0x20 MSTORE PUSH1 0x40 PUSH1 0x0 KECCAK256 SWAP5 PUSH1 0x1 DUP1 PUSH1 0xA0 SHL SUB SWAP1 MLOAD AND SWAP7 PUSH1 0x1 PUSH1 0x1 PUSH1 0x60 SHL SUB PUSH1 0xA0 SHL SWAP8 DUP9 DUP8 SLOAD AND OR DUP7 SSTORE MLOAD PUSH1 0x1 DUP7 ADD SSTORE MLOAD PUSH1 0x2 DUP6 ADD SSTORE MLOAD PUSH1 0x3 DUP5 ADD SSTORE MLOAD ISZERO ISZERO SWAP2 ADD SWAP1 PUSH1 0xFF DUP1 NOT DUP4 SLOAD AND SWAP2 ISZERO ISZERO AND OR SWAP1 SSTORE JUMP JUMPDEST PUSH1 0x1 DUP1 PUSH1 0xA0 SHL SUB DUP4 AND PUSH1 0x0 MSTORE PUSH1 0x11 PUSH1 0x20 MSTORE PUSH1 0x40 PUSH1 0x0 KECCAK256 PUSH2 0x1697 PUSH1 0x24 CALLDATALOAD DUP3 SLOAD PUSH2 0x2861 JUMP JUMPDEST SWAP1 SSTORE CALLER ISZERO PUSH2 0x1935 JUMPI PUSH1 0x0 DUP5 DUP2 MSTORE PUSH1 0x2 PUSH1 0x20 MSTORE PUSH1 0x40 SWAP1 KECCAK256 SLOAD PUSH1 0x1 PUSH1 0x1 PUSH1 0xA0 SHL SUB AND DUP1 ISZERO ISZERO SWAP3 DUP6 SWAP3 SWAP1 DUP5 PUSH2 0x18FF JUMPI JUMPDEST POP CALLER PUSH1 0x0 MSTORE PUSH1 0x3 PUSH1 0x20 MSTORE PUSH1 0x40 PUSH1 0x0 KECCAK256 PUSH1 0x1 DUP2 SLOAD ADD SWAP1 SSTORE DUP3 PUSH1 0x0 MSTORE PUSH1 0x2 PUSH1 0x20 MSTORE PUSH1 0x40 PUSH1 0x0 KECCAK256 SWAP1 CALLER SWAP1 DUP3 SLOAD AND OR SWAP1 SSTORE CALLER SWAP1 PUSH32 0xDDF252AD1BE2C89B69C2B068FC378DAA952BA7F163C4A11628F55A4DF523B3EF PUSH1 0x0 DUP1 LOG4 PUSH2 0x18E6 JUMPI PUSH1 0x0 DUP1 MLOAD PUSH1 0x20 PUSH2 0x2DE3 DUP4 CODECOPY DUP2 MLOAD SWAP2 MSTORE PUSH2 0x17A0 PUSH1 0x40 MLOAD DUP5 PUSH1 0x20 DUP3 ADD MSTORE PUSH1 0x1 PUSH1 0x1 PUSH1 0x60 SHL SUB NOT DUP5 PUSH1 0x60 SHL AND PUSH1 0x40 DUP3 ADD MSTORE PUSH1 0x24 CALLDATALOAD PUSH1 0x54 DUP3 ADD MSTORE TIMESTAMP PUSH1 0x74 DUP3 ADD MSTORE PUSH1 0x74 DUP2 MSTORE PUSH2 0x1765 DUP2 PUSH2 0x2207 JUMP JUMPDEST PUSH1 0x40 MLOAD SWAP2 DUP3 SWAP2 PUSH1 0x40 DUP4 MSTORE PUSH1 0x10 PUSH1 0x40 DUP5 ADD MSTORE PUSH16 0x141BDCDA5D1A5BDB8818DC99585D1959 PUSH1 0x82 SHL PUSH1 0x60 DUP5 ADD MSTORE PUSH1 0x80 PUSH1 0x20 DUP5 ADD MSTORE PUSH1 0x80 DUP4 ADD SWAP1 PUSH2 0x2166 JUMP JUMPDEST SUB SWAP1 LOG1 PUSH1 0x1 DUP1 PUSH1 0xA0 SHL SUB DUP2 AND PUSH1 0x0 MSTORE PUSH1 0x11 PUSH1 0x20 MSTORE PUSH1 0x0 DUP1 MLOAD PUSH1 0x20 PUSH2 0x2DE3 DUP4 CODECOPY DUP2 MLOAD SWAP2 MSTORE PUSH2 0x1836 PUSH1 0x40 PUSH1 0x0 KECCAK256 SLOAD PUSH1 0x40 MLOAD SWAP1 PUSH1 0x1 PUSH1 0x1 PUSH1 0x60 SHL SUB NOT DUP6 PUSH1 0x60 SHL AND PUSH1 0x20 DUP4 ADD MSTORE PUSH1 0x34 DUP3 ADD MSTORE PUSH1 0x34 DUP2 MSTORE PUSH2 0x17F5 DUP2 PUSH2 0x2239 JUMP JUMPDEST PUSH1 0x40 MLOAD SWAP2 DUP3 SWAP2 PUSH1 0x40 DUP4 MSTORE PUSH1 0x16 PUSH1 0x40 DUP5 ADD MSTORE PUSH22 0x151BDD185B0819195C1BDCDA5D1CC81D5C19185D1959 PUSH1 0x52 SHL PUSH1 0x60 DUP5 ADD MSTORE PUSH1 0x80 PUSH1 0x20 DUP5 ADD MSTORE PUSH1 0x80 DUP4 ADD SWAP1 PUSH2 0x2166 JUMP JUMPDEST SUB SWAP1 LOG1 PUSH1 0x0 DUP1 MLOAD PUSH1 0x20 PUSH2 0x2DE3 DUP4 CODECOPY DUP2 MLOAD SWAP2 MSTORE PUSH2 0x189F PUSH1 0x40 MLOAD DUP5 PUSH1 0x20 DUP3 ADD MSTORE CALLER PUSH1 0x60 SHL PUSH1 0x40 DUP3 ADD MSTORE PUSH1 0x34 DUP2 MSTORE PUSH2 0x186A DUP2 PUSH2 0x2239 JUMP JUMPDEST PUSH1 0x40 MLOAD SWAP2 DUP3 SWAP2 PUSH1 0x40 DUP4 MSTORE PUSH1 0xA PUSH1 0x40 DUP5 ADD MSTORE PUSH10 0x139195081B5A5B9D1959 PUSH1 0xB2 SHL PUSH1 0x60 DUP5 ADD MSTORE PUSH1 0x80 PUSH1 0x20 DUP5 ADD MSTORE PUSH1 0x80 DUP4 ADD SWAP1 PUSH2 0x2166 JUMP JUMPDEST SUB SWAP1 LOG1 PUSH1 0x40 MLOAD SWAP2 PUSH1 0x24 CALLDATALOAD DUP4 MSTORE PUSH1 0x20 DUP4 ADD MSTORE PUSH1 0x1 DUP1 PUSH1 0xA0 SHL SUB AND SWAP1 PUSH32 0xF5681F9D0DB1B911AC18EE83D515A1CF1051853A9EAE418316A2FDF7DEA427C5 PUSH1 0x40 CALLER SWAP3 LOG3 PUSH1 0x1 PUSH1 0x8 SSTORE STOP JUMPDEST PUSH1 0x40 MLOAD PUSH4 0x39E35637 PUSH1 0xE1 SHL DUP2 MSTORE PUSH1 0x0 PUSH1 0x4 DUP3 ADD MSTORE PUSH1 0x24 SWAP1 REVERT JUMPDEST PUSH1 0x0 DUP5 DUP2 MSTORE PUSH1 0x4 PUSH1 0x20 MSTORE PUSH1 0x40 SWAP1 KECCAK256 DUP1 SLOAD PUSH1 0x1 PUSH1 0x1 PUSH1 0xA0 SHL SUB NOT AND SWAP1 SSTORE DUP3 PUSH1 0x0 MSTORE PUSH1 0x3 PUSH1 0x20 MSTORE PUSH1 0x40 PUSH1 0x0 KECCAK256 SWAP1 DUP2 SLOAD ADD SWAP1 SSTORE DUP7 PUSH2 0x16C4 JUMP JUMPDEST PUSH1 0x40 MLOAD PUSH4 0x32505749 PUSH1 0xE1 SHL DUP2 MSTORE PUSH1 0x0 PUSH1 0x4 DUP3 ADD MSTORE PUSH1 0x24 SWAP1 REVERT JUMPDEST SWAP1 POP PUSH1 0x20 DUP2 RETURNDATASIZE PUSH1 0x20 GT PUSH2 0x1978 JUMPI JUMPDEST DUP2 PUSH2 0x1969 PUSH1 0x20 SWAP4 DUP4 PUSH2 0x22A9 JUMP JUMPDEST DUP2 ADD SUB SLT PUSH2 0x2A2 JUMPI MLOAD DUP5 PUSH2 0x15E0 JUMP JUMPDEST RETURNDATASIZE SWAP2 POP PUSH2 0x195C JUMP JUMPDEST PUSH1 0x40 MLOAD RETURNDATASIZE PUSH1 0x0 DUP3 RETURNDATACOPY RETURNDATASIZE SWAP1 REVERT JUMPDEST PUSH4 0x4E487B71 PUSH1 0xE0 SHL PUSH1 0x0 MSTORE PUSH1 0x11 PUSH1 0x4 MSTORE PUSH1 0x24 PUSH1 0x0 REVERT JUMPDEST PUSH1 0x40 MLOAD PUSH3 0x461BCD PUSH1 0xE5 SHL DUP2 MSTORE PUSH1 0x20 PUSH1 0x4 DUP3 ADD MSTORE PUSH1 0x1A PUSH1 0x24 DUP3 ADD MSTORE PUSH32 0x584D563A20546F6B656E207472616E73666572206661696C6564000000000000 PUSH1 0x44 DUP3 ADD MSTORE PUSH1 0x64 SWAP1 REVERT JUMPDEST SWAP1 SWAP2 POP PUSH1 0x20 DUP2 RETURNDATASIZE PUSH1 0x20 GT PUSH2 0x1A15 JUMPI JUMPDEST DUP2 PUSH2 0x1A03 PUSH1 0x20 SWAP4 DUP4 PUSH2 0x22A9 JUMP JUMPDEST DUP2 ADD SUB SLT PUSH2 0x2A2 JUMPI MLOAD SWAP1 PUSH2 0x153C PUSH2 0x1484 JUMP JUMPDEST RETURNDATASIZE SWAP2 POP PUSH2 0x19F6 JUMP JUMPDEST PUSH1 0x40 MLOAD PUSH3 0x461BCD PUSH1 0xE5 SHL DUP2 MSTORE PUSH1 0x20 PUSH1 0x4 DUP3 ADD MSTORE PUSH1 0x1B PUSH1 0x24 DUP3 ADD MSTORE PUSH32 0x584D563A20496E73756666696369656E7420616C6C6F77616E63650000000000 PUSH1 0x44 DUP3 ADD MSTORE PUSH1 0x64 SWAP1 REVERT JUMPDEST PUSH1 0x40 MLOAD PUSH3 0x461BCD PUSH1 0xE5 SHL DUP2 MSTORE PUSH1 0x20 PUSH1 0x4 DUP3 ADD MSTORE PUSH1 0x19 PUSH1 0x24 DUP3 ADD MSTORE PUSH32 0x584D563A20496E73756666696369656E742062616C616E636500000000000000 PUSH1 0x44 DUP3 ADD MSTORE PUSH1 0x64 SWAP1 REVERT JUMPDEST SWAP1 SWAP2 POP PUSH1 0x20 DUP2 RETURNDATASIZE PUSH1 0x20 GT PUSH2 0x1AD3 JUMPI JUMPDEST DUP2 PUSH2 0x1AC3 PUSH1 0x20 SWAP4 DUP4 PUSH2 0x22A9 JUMP JUMPDEST DUP2 ADD SUB SLT PUSH2 0x2A2 JUMPI MLOAD SWAP1 DUP5 PUSH2 0x1251 JUMP JUMPDEST RETURNDATASIZE SWAP2 POP PUSH2 0x1AB6 JUMP JUMPDEST SWAP1 POP PUSH1 0x20 DUP2 RETURNDATASIZE PUSH1 0x20 GT PUSH2 0x1B05 JUMPI JUMPDEST DUP2 PUSH2 0x1AF6 PUSH1 0x20 SWAP4 DUP4 PUSH2 0x22A9 JUMP JUMPDEST DUP2 ADD SUB SLT PUSH2 0x2A2 JUMPI MLOAD DUP4 PUSH2 0x1215 JUMP JUMPDEST RETURNDATASIZE SWAP2 POP PUSH2 0x1AE9 JUMP JUMPDEST SWAP1 POP PUSH1 0x20 DUP2 RETURNDATASIZE PUSH1 0x20 GT PUSH2 0x1B37 JUMPI JUMPDEST DUP2 PUSH2 0x1B28 PUSH1 0x20 SWAP4 DUP4 PUSH2 0x22A9 JUMP JUMPDEST DUP2 ADD SUB SLT PUSH2 0x2A2 JUMPI MLOAD DUP3 PUSH2 0x110A JUMP JUMPDEST RETURNDATASIZE SWAP2 POP PUSH2 0x1B1B JUMP JUMPDEST PUSH1 0x40 MLOAD PUSH3 0x461BCD PUSH1 0xE5 SHL DUP2 MSTORE PUSH1 0x20 PUSH1 0x4 DUP3 ADD MSTORE PUSH1 0x18 PUSH1 0x24 DUP3 ADD MSTORE PUSH32 0x584D563A20546F6B656E206E6F7420737570706F727465640000000000000000 PUSH1 0x44 DUP3 ADD MSTORE PUSH1 0x64 SWAP1 REVERT JUMPDEST POP PUSH1 0xC SLOAD PUSH1 0x1 PUSH1 0x1 PUSH1 0xA0 SHL SUB DUP3 DUP2 AND SWAP2 AND EQ PUSH2 0x1026 JUMP JUMPDEST POP PUSH1 0xB SLOAD PUSH1 0x1 PUSH1 0x1 PUSH1 0xA0 SHL SUB DUP3 DUP2 AND SWAP2 AND EQ PUSH2 0x101F JUMP JUMPDEST PUSH1 0x40 MLOAD PUSH3 0x461BCD PUSH1 0xE5 SHL DUP2 MSTORE PUSH1 0x20 PUSH1 0x4 DUP3 ADD MSTORE PUSH1 0x22 PUSH1 0x24 DUP3 ADD MSTORE PUSH32 0x584D563A20416D6F756E74206D7573742062652067726561746572207468616E PUSH1 0x44 DUP3 ADD MSTORE PUSH2 0x203 PUSH1 0xF4 SHL PUSH1 0x64 DUP3 ADD MSTORE PUSH1 0x84 SWAP1 REVERT JUMPDEST PUSH1 0x40 MLOAD PUSH3 0x461BCD PUSH1 0xE5 SHL DUP2 MSTORE PUSH1 0x20 PUSH1 0x4 DUP3 ADD MSTORE PUSH1 0x21 PUSH1 0x24 DUP3 ADD MSTORE PUSH32 0x584D563A20546F6B656E20616464726573732063616E6E6F74206265207A6572 PUSH1 0x44 DUP3 ADD MSTORE PUSH1 0x6F PUSH1 0xF8 SHL PUSH1 0x64 DUP3 ADD MSTORE PUSH1 0x84 SWAP1 REVERT JUMPDEST PUSH1 0x40 MLOAD PUSH3 0x461BCD PUSH1 0xE5 SHL DUP2 MSTORE PUSH1 0x20 PUSH1 0x4 DUP3 ADD MSTORE PUSH1 0x18 PUSH1 0x24 DUP3 ADD MSTORE PUSH32 0x436F6E7472616374206E6F7420696E697469616C697A65640000000000000000 PUSH1 0x44 DUP3 ADD MSTORE PUSH1 0x64 SWAP1 REVERT JUMPDEST PUSH1 0x40 MLOAD PUSH4 0x3EE5AEB5 PUSH1 0xE0 SHL DUP2 MSTORE PUSH1 0x4 SWAP1 REVERT JUMPDEST CALLVALUE PUSH2 0x2A2 JUMPI PUSH2 0x2E0 PUSH2 0x1CB9 CALLDATASIZE PUSH2 0x21D2 JUMP JUMPDEST SWAP1 PUSH1 0x40 MLOAD SWAP3 PUSH2 0x1CC7 DUP5 PUSH2 0x2255 JUMP JUMPDEST PUSH1 0x0 DUP5 MSTORE PUSH2 0x26B1 JUMP JUMPDEST CALLVALUE PUSH2 0x2A2 JUMPI PUSH1 0x20 CALLDATASIZE PUSH1 0x3 NOT ADD SLT PUSH2 0x2A2 JUMPI PUSH1 0x4 CALLDATALOAD PUSH2 0x1CED DUP2 PUSH2 0x2806 JUMP JUMPDEST PUSH1 0x1 PUSH1 0x1 PUSH1 0xA0 SHL SUB SWAP1 PUSH2 0x1D03 SWAP1 DUP3 AND CALLER EQ PUSH2 0x28CA JUMP JUMPDEST PUSH2 0x1D0C DUP3 PUSH2 0x2926 JUMP JUMPDEST SWAP1 DUP2 ISZERO PUSH2 0x1D89 JUMPI DUP3 PUSH1 0x0 MSTORE PUSH1 0x10 PUSH1 0x20 MSTORE PUSH1 0x40 PUSH1 0x0 KECCAK256 TIMESTAMP PUSH1 0x2 DUP3 ADD SSTORE DUP2 DUP2 SLOAD AND PUSH1 0x0 MSTORE PUSH1 0x12 PUSH1 0x20 MSTORE PUSH1 0x40 PUSH1 0x0 KECCAK256 PUSH2 0x1D43 DUP5 DUP3 SLOAD PUSH2 0x2861 JUMP JUMPDEST SWAP1 SSTORE PUSH2 0x1D53 DUP4 CALLER DUP5 DUP5 SLOAD AND PUSH2 0x2A7A JUMP JUMPDEST SLOAD AND SWAP2 PUSH1 0x40 MLOAD SWAP2 DUP3 MSTORE PUSH1 0x20 DUP3 ADD MSTORE PUSH32 0xB10C79AA8CE52424B7676B33FE7B45EA2516B75F43F3B5C0C730E52CA8EF36A5 PUSH1 0x40 CALLER SWAP3 LOG3 STOP JUMPDEST PUSH1 0x40 MLOAD PUSH3 0x461BCD PUSH1 0xE5 SHL DUP2 MSTORE PUSH1 0x20 PUSH1 0x4 DUP3 ADD MSTORE PUSH1 0x11 PUSH1 0x24 DUP3 ADD MSTORE PUSH17 0x4E6F207969656C6420746F20636C61696D PUSH1 0x78 SHL PUSH1 0x44 DUP3 ADD MSTORE PUSH1 0x64 SWAP1 REVERT JUMPDEST CALLVALUE PUSH2 0x2A2 JUMPI PUSH1 0x40 CALLDATASIZE PUSH1 0x3 NOT ADD SLT PUSH2 0x2A2 JUMPI PUSH2 0x1DDB PUSH2 0x21BC JUMP JUMPDEST CALLER PUSH1 0x1 PUSH1 0x1 PUSH1 0xA0 SHL SUB DUP3 AND SUB PUSH2 0x1DF7 JUMPI PUSH2 0x2E0 SWAP1 PUSH1 0x4 CALLDATALOAD PUSH2 0x243C JUMP JUMPDEST PUSH1 0x40 MLOAD PUSH4 0x334BD919 PUSH1 0xE1 SHL DUP2 MSTORE PUSH1 0x4 SWAP1 REVERT JUMPDEST CALLVALUE PUSH2 0x2A2 JUMPI PUSH1 0x0 CALLDATASIZE PUSH1 0x3 NOT ADD SLT PUSH2 0x2A2 JUMPI PUSH2 0x1E22 PUSH2 0x2B00 JUMP JUMPDEST PUSH1 0x40 MLOAD SWAP1 PUSH1 0x0 SWAP1 DUP3 JUMPDEST PUSH1 0x3 DUP4 LT PUSH2 0x1E38 JUMPI PUSH1 0x60 DUP5 RETURN JUMPDEST PUSH1 0x1 SWAP1 DUP3 MLOAD DUP2 MSTORE PUSH1 0x20 DUP1 SWAP2 ADD SWAP3 ADD SWAP3 ADD SWAP2 SWAP1 PUSH2 0x1E2B JUMP JUMPDEST CALLVALUE PUSH2 0x2A2 JUMPI PUSH1 0x40 CALLDATASIZE PUSH1 0x3 NOT ADD SLT PUSH2 0x2A2 JUMPI PUSH2 0x2E0 PUSH1 0x4 CALLDATALOAD PUSH2 0x1E6E PUSH2 0x21BC JUMP JUMPDEST SWAP1 DUP1 PUSH1 0x0 MSTORE PUSH1 0x7 PUSH1 0x20 MSTORE PUSH2 0x1E89 PUSH1 0x1 PUSH1 0x40 PUSH1 0x0 KECCAK256 ADD SLOAD PUSH2 0x22E7 JUMP JUMPDEST PUSH2 0x23BC JUMP JUMPDEST CALLVALUE PUSH2 0x2A2 JUMPI PUSH1 0x20 CALLDATASIZE PUSH1 0x3 NOT ADD SLT PUSH2 0x2A2 JUMPI PUSH1 0x4 CALLDATALOAD PUSH1 0x0 MSTORE PUSH1 0x7 PUSH1 0x20 MSTORE PUSH1 0x20 PUSH1 0x1 PUSH1 0x40 PUSH1 0x0 KECCAK256 ADD SLOAD PUSH1 0x40 MLOAD SWAP1 DUP2 MSTORE RETURN JUMPDEST CALLVALUE PUSH2 0x2A2 JUMPI PUSH2 0x2E0 PUSH2 0x1ECE CALLDATASIZE PUSH2 0x21D2 JUMP JUMPDEST SWAP2 PUSH2 0x2528 JUMP JUMPDEST CALLVALUE PUSH2 0x2A2 JUMPI PUSH1 0x0 CALLDATASIZE PUSH1 0x3 NOT ADD SLT PUSH2 0x2A2 JUMPI PUSH1 0xA SLOAD PUSH1 0x40 MLOAD PUSH1 0x1 PUSH1 0x1 PUSH1 0xA0 SHL SUB SWAP1 SWAP2 AND DUP2 MSTORE PUSH1 0x20 SWAP1 RETURN JUMPDEST CALLVALUE PUSH2 0x2A2 JUMPI PUSH1 0x40 CALLDATASIZE PUSH1 0x3 NOT ADD SLT PUSH2 0x2A2 JUMPI PUSH2 0x1F16 PUSH2 0x21A6 JUMP JUMPDEST PUSH1 0x24 CALLDATALOAD PUSH2 0x1F22 DUP2 PUSH2 0x2806 JUMP JUMPDEST CALLER ISZERO ISZERO DUP1 PUSH2 0x1FD1 JUMPI JUMPDEST DUP1 PUSH2 0x1FA4 JUMPI JUMPDEST PUSH2 0x1F8C JUMPI PUSH1 0x1 PUSH1 0x1 PUSH1 0xA0 SHL SUB SWAP3 DUP4 AND SWAP3 DUP3 SWAP2 DUP5 SWAP2 AND PUSH32 0x8C5BE1E5EBEC7D5BD14F71427D1E84F3DD0314C0F7B2291E5B200AC8C7C3B925 PUSH1 0x0 DUP1 LOG4 PUSH1 0x0 SWAP1 DUP2 MSTORE PUSH1 0x4 PUSH1 0x20 MSTORE PUSH1 0x40 SWAP1 KECCAK256 DUP1 SLOAD PUSH1 0x1 PUSH1 0x1 PUSH1 0xA0 SHL SUB NOT AND SWAP1 SWAP2 OR SWAP1 SSTORE STOP JUMPDEST PUSH1 0x40 MLOAD PUSH4 0xA9FBF51F PUSH1 0xE0 SHL DUP2 MSTORE CALLER PUSH1 0x4 DUP3 ADD MSTORE PUSH1 0x24 SWAP1 REVERT JUMPDEST POP PUSH1 0x1 DUP1 PUSH1 0xA0 SHL SUB DUP2 AND PUSH1 0x0 MSTORE PUSH1 0x5 PUSH1 0x20 MSTORE PUSH1 0x40 PUSH1 0x0 KECCAK256 CALLER PUSH1 0x0 MSTORE PUSH1 0x20 MSTORE PUSH1 0xFF PUSH1 0x40 PUSH1 0x0 KECCAK256 SLOAD AND ISZERO PUSH2 0x1F31 JUMP JUMPDEST POP PUSH1 0x1 PUSH1 0x1 PUSH1 0xA0 SHL SUB DUP2 AND CALLER EQ ISZERO PUSH2 0x1F2B JUMP JUMPDEST CALLVALUE PUSH2 0x2A2 JUMPI PUSH1 0x20 CALLDATASIZE PUSH1 0x3 NOT ADD SLT PUSH2 0x2A2 JUMPI PUSH1 0x4 CALLDATALOAD PUSH2 0x2001 DUP2 PUSH2 0x2806 JUMP JUMPDEST POP PUSH1 0x0 MSTORE PUSH1 0x4 PUSH1 0x20 MSTORE PUSH1 0x20 PUSH1 0x1 DUP1 PUSH1 0xA0 SHL SUB PUSH1 0x40 PUSH1 0x0 KECCAK256 SLOAD AND PUSH1 0x40 MLOAD SWAP1 DUP2 MSTORE RETURN JUMPDEST CALLVALUE PUSH2 0x2A2 JUMPI PUSH1 0x0 CALLDATASIZE PUSH1 0x3 NOT ADD SLT PUSH2 0x2A2 JUMPI PUSH1 0x40 MLOAD PUSH1 0x0 DUP1 SLOAD SWAP1 PUSH1 0x1 DUP3 DUP2 SHR SWAP2 DUP2 DUP5 AND SWAP2 DUP3 ISZERO PUSH2 0x20D7 JUMPI JUMPDEST PUSH1 0x20 SWAP5 DUP6 DUP6 LT DUP5 EQ PUSH2 0xC82 JUMPI DUP6 DUP8 SWAP5 DUP7 DUP7 MSTORE SWAP2 DUP3 PUSH1 0x0 EQ PUSH2 0xC62 JUMPI POP POP PUSH1 0x1 EQ PUSH2 0x207D JUMPI POP PUSH2 0xBF4 SWAP3 POP SUB DUP4 PUSH2 0x22A9 JUMP JUMPDEST PUSH1 0x0 DUP1 DUP1 MSTORE DUP6 SWAP3 POP SWAP1 PUSH32 0x290DECD9548B62A8D60345A988386FC84BA6BC95484008F6362F93160EF3E563 JUMPDEST DUP6 DUP4 LT PUSH2 0x20BF JUMPI POP POP PUSH2 0xBF4 SWAP4 POP DUP3 ADD ADD DUP6 PUSH2 0xBE7 JUMP JUMPDEST DUP1 SLOAD DUP4 DUP10 ADD DUP6 ADD MSTORE DUP8 SWAP5 POP DUP7 SWAP4 SWAP1 SWAP3 ADD SWAP2 DUP2 ADD PUSH2 0x20A8 JUMP JUMPDEST SWAP3 PUSH1 0x7F AND SWAP3 PUSH2 0x204C JUMP JUMPDEST CALLVALUE PUSH2 0x2A2 JUMPI PUSH1 0x20 CALLDATASIZE PUSH1 0x3 NOT ADD SLT PUSH2 0x2A2 JUMPI PUSH1 0x4 CALLDATALOAD SWAP1 PUSH4 0xFFFFFFFF PUSH1 0xE0 SHL DUP3 AND DUP1 SWAP3 SUB PUSH2 0x2A2 JUMPI PUSH1 0x20 SWAP2 PUSH4 0x7965DB0B PUSH1 0xE0 SHL DUP2 EQ SWAP1 DUP2 ISZERO PUSH2 0x2123 JUMPI JUMPDEST POP ISZERO ISZERO DUP2 MSTORE RETURN JUMPDEST PUSH4 0x80AC58CD PUSH1 0xE0 SHL DUP2 EQ SWAP2 POP DUP2 ISZERO PUSH2 0x2155 JUMPI JUMPDEST DUP2 ISZERO PUSH2 0x2144 JUMPI JUMPDEST POP DUP4 PUSH2 0x211C JUMP JUMPDEST PUSH4 0x1FFC9A7 PUSH1 0xE0 SHL EQ SWAP1 POP DUP4 PUSH2 0x213D JUMP JUMPDEST PUSH4 0x5B5E139F PUSH1 0xE0 SHL DUP2 EQ SWAP2 POP PUSH2 0x2136 JUMP JUMPDEST SWAP2 SWAP1 DUP3 MLOAD SWAP3 DUP4 DUP3 MSTORE PUSH1 0x0 JUMPDEST DUP5 DUP2 LT PUSH2 0x2192 JUMPI POP POP DUP3 PUSH1 0x0 PUSH1 0x20 DUP1 SWAP5 SWAP6 DUP5 ADD ADD MSTORE PUSH1 0x1F DUP1 NOT SWAP2 ADD AND ADD ADD SWAP1 JUMP JUMPDEST PUSH1 0x20 DUP2 DUP4 ADD DUP2 ADD MLOAD DUP5 DUP4 ADD DUP3 ADD MSTORE ADD PUSH2 0x2171 JUMP JUMPDEST PUSH1 0x4 CALLDATALOAD SWAP1 PUSH1 0x1 PUSH1 0x1 PUSH1 0xA0 SHL SUB DUP3 AND DUP3 SUB PUSH2 0x2A2 JUMPI JUMP JUMPDEST PUSH1 0x24 CALLDATALOAD SWAP1 PUSH1 0x1 PUSH1 0x1 PUSH1 0xA0 SHL SUB DUP3 AND DUP3 SUB PUSH2 0x2A2 JUMPI JUMP JUMPDEST PUSH1 0x60 SWAP1 PUSH1 0x3 NOT ADD SLT PUSH2 0x2A2 JUMPI PUSH1 0x1 PUSH1 0x1 PUSH1 0xA0 SHL SUB SWAP1 PUSH1 0x4 CALLDATALOAD DUP3 DUP2 AND DUP2 SUB PUSH2 0x2A2 JUMPI SWAP2 PUSH1 0x24 CALLDATALOAD SWAP1 DUP2 AND DUP2 SUB PUSH2 0x2A2 JUMPI SWAP1 PUSH1 0x44 CALLDATALOAD SWAP1 JUMP JUMPDEST PUSH1 0xA0 DUP2 ADD SWAP1 DUP2 LT PUSH8 0xFFFFFFFFFFFFFFFF DUP3 GT OR PUSH2 0x2223 JUMPI PUSH1 0x40 MSTORE JUMP JUMPDEST PUSH4 0x4E487B71 PUSH1 0xE0 SHL PUSH1 0x0 MSTORE PUSH1 0x41 PUSH1 0x4 MSTORE PUSH1 0x24 PUSH1 0x0 REVERT JUMPDEST PUSH1 0x60 DUP2 ADD SWAP1 DUP2 LT PUSH8 0xFFFFFFFFFFFFFFFF DUP3 GT OR PUSH2 0x2223 JUMPI PUSH1 0x40 MSTORE JUMP JUMPDEST PUSH1 0x20 DUP2 ADD SWAP1 DUP2 LT PUSH8 0xFFFFFFFFFFFFFFFF DUP3 GT OR PUSH2 0x2223 JUMPI PUSH1 0x40 MSTORE JUMP JUMPDEST PUSH1 0x80 DUP2 ADD SWAP1 DUP2 LT PUSH8 0xFFFFFFFFFFFFFFFF DUP3 GT OR PUSH2 0x2223 JUMPI PUSH1 0x40 MSTORE JUMP JUMPDEST PUSH1 0x40 DUP2 ADD SWAP1 DUP2 LT PUSH8 0xFFFFFFFFFFFFFFFF DUP3 GT OR PUSH2 0x2223 JUMPI PUSH1 0x40 MSTORE JUMP JUMPDEST SWAP1 PUSH1 0x1F DUP1 NOT SWAP2 ADD AND DUP2 ADD SWAP1 DUP2 LT PUSH8 0xFFFFFFFFFFFFFFFF DUP3 GT OR PUSH2 0x2223 JUMPI PUSH1 0x40 MSTORE JUMP JUMPDEST PUSH8 0xFFFFFFFFFFFFFFFF DUP2 GT PUSH2 0x2223 JUMPI PUSH1 0x1F ADD PUSH1 0x1F NOT AND PUSH1 0x20 ADD SWAP1 JUMP JUMPDEST DUP1 PUSH1 0x0 MSTORE PUSH1 0x7 PUSH1 0x20 MSTORE PUSH1 0x40 PUSH1 0x0 KECCAK256 CALLER PUSH1 0x0 MSTORE PUSH1 0x20 MSTORE PUSH1 0xFF PUSH1 0x40 PUSH1 0x0 KECCAK256 SLOAD AND ISZERO PUSH2 0x230D JUMPI POP JUMP JUMPDEST PUSH1 0x44 SWAP1 PUSH1 0x40 MLOAD SWAP1 PUSH4 0xE2517D3F PUSH1 0xE0 SHL DUP3 MSTORE CALLER PUSH1 0x4 DUP4 ADD MSTORE PUSH1 0x24 DUP3 ADD MSTORE REVERT JUMPDEST PUSH1 0x1 PUSH1 0x1 PUSH1 0xA0 SHL SUB AND PUSH1 0x0 DUP2 DUP2 MSTORE PUSH32 0x6D5257204EBE7D88FD91AE87941CB2DD9D8062B64AE5A2BD2D28EC40B9FBF6DF PUSH1 0x20 MSTORE PUSH1 0x40 DUP2 KECCAK256 SLOAD SWAP1 SWAP2 SWAP1 PUSH1 0xFF AND PUSH2 0x23B8 JUMPI DUP2 DUP1 MSTORE PUSH1 0x7 PUSH1 0x20 MSTORE PUSH1 0x40 DUP3 KECCAK256 DUP2 DUP4 MSTORE PUSH1 0x20 MSTORE PUSH1 0x40 DUP3 KECCAK256 PUSH1 0x1 PUSH1 0xFF NOT DUP3 SLOAD AND OR SWAP1 SSTORE CALLER SWAP2 PUSH32 0x2F8788117E7EFF1D82E926EC794901D17C78024A50270940304540A733656F0D DUP2 DUP1 LOG4 PUSH1 0x1 SWAP1 JUMP JUMPDEST POP SWAP1 JUMP JUMPDEST SWAP1 PUSH1 0x0 SWAP2 DUP1 DUP4 MSTORE PUSH1 0x7 PUSH1 0x20 MSTORE PUSH1 0x40 DUP4 KECCAK256 SWAP2 PUSH1 0x1 DUP1 PUSH1 0xA0 SHL SUB AND SWAP2 DUP3 DUP5 MSTORE PUSH1 0x20 MSTORE PUSH1 0xFF PUSH1 0x40 DUP5 KECCAK256 SLOAD AND ISZERO PUSH1 0x0 EQ PUSH2 0x2437 JUMPI DUP1 DUP4 MSTORE PUSH1 0x7 PUSH1 0x20 MSTORE PUSH1 0x40 DUP4 KECCAK256 DUP3 DUP5 MSTORE PUSH1 0x20 MSTORE PUSH1 0x40 DUP4 KECCAK256 PUSH1 0x1 PUSH1 0xFF NOT DUP3 SLOAD AND OR SWAP1 SSTORE PUSH32 0x2F8788117E7EFF1D82E926EC794901D17C78024A50270940304540A733656F0D CALLER SWAP4 DUP1 LOG4 PUSH1 0x1 SWAP1 JUMP JUMPDEST POP POP SWAP1 JUMP JUMPDEST SWAP1 PUSH1 0x0 SWAP2 DUP1 DUP4 MSTORE PUSH1 0x7 PUSH1 0x20 MSTORE PUSH1 0x40 DUP4 KECCAK256 SWAP2 PUSH1 0x1 DUP1 PUSH1 0xA0 SHL SUB AND SWAP2 DUP3 DUP5 MSTORE PUSH1 0x20 MSTORE PUSH1 0xFF PUSH1 0x40 DUP5 KECCAK256 SLOAD AND PUSH1 0x0 EQ PUSH2 0x2437 JUMPI DUP1 DUP4 MSTORE PUSH1 0x7 PUSH1 0x20 MSTORE PUSH1 0x40 DUP4 KECCAK256 DUP3 DUP5 MSTORE PUSH1 0x20 MSTORE PUSH1 0x40 DUP4 KECCAK256 PUSH1 0xFF NOT DUP2 SLOAD AND SWAP1 SSTORE PUSH32 0xF6391F5C32D9C69D2A47EA670B442974B53935D1EDC7FD64EB21E047A839171B CALLER SWAP4 DUP1 LOG4 PUSH1 0x1 SWAP1 JUMP JUMPDEST PUSH1 0x6 SLOAD PUSH1 0x1 PUSH1 0x1 PUSH1 0xA0 SHL SUB AND CALLER SUB PUSH2 0x24C7 JUMPI JUMP JUMPDEST PUSH1 0x40 MLOAD PUSH4 0x118CDAA7 PUSH1 0xE0 SHL DUP2 MSTORE CALLER PUSH1 0x4 DUP3 ADD MSTORE PUSH1 0x24 SWAP1 REVERT JUMPDEST PUSH1 0x6 DUP1 SLOAD PUSH1 0x1 PUSH1 0x1 PUSH1 0xA0 SHL SUB SWAP3 DUP4 AND PUSH1 0x1 PUSH1 0x1 PUSH1 0xA0 SHL SUB NOT DUP3 AND DUP2 OR SWAP1 SWAP3 SSTORE SWAP1 SWAP2 AND PUSH32 0x8BE0079C531659141344CD1FD0A4F28419497F9722A3DAAFE3B4186F6B6457E0 PUSH1 0x0 DUP1 LOG3 JUMP JUMPDEST PUSH1 0x1 PUSH1 0x1 PUSH1 0xA0 SHL SUB SWAP2 DUP3 AND SWAP3 SWAP1 SWAP2 DUP4 ISZERO PUSH2 0x1935 JUMPI PUSH1 0x0 SWAP3 DUP3 DUP5 MSTORE DUP3 PUSH1 0x20 SWAP6 PUSH1 0x2 DUP8 MSTORE PUSH1 0x40 SWAP7 DUP5 DUP9 DUP9 KECCAK256 SLOAD AND SWAP7 DUP8 SWAP2 CALLER ISZERO ISZERO DUP1 PUSH2 0x2618 JUMPI JUMPDEST POP SWAP1 PUSH1 0x2 PUSH32 0xDDF252AD1BE2C89B69C2B068FC378DAA952BA7F163C4A11628F55A4DF523B3EF SWAP3 DUP5 PUSH2 0x25E5 JUMPI JUMPDEST DUP6 DUP4 MSTORE PUSH1 0x3 DUP2 MSTORE DUP12 DUP4 KECCAK256 DUP1 SLOAD PUSH1 0x1 ADD SWAP1 SSTORE DUP7 DUP4 MSTORE MSTORE DUP10 DUP2 KECCAK256 DUP1 SLOAD PUSH1 0x1 PUSH1 0x1 PUSH1 0xA0 SHL SUB NOT AND DUP6 OR SWAP1 SSTORE DUP1 LOG4 AND SWAP3 DUP4 DUP4 SUB PUSH2 0x25C4 JUMPI POP POP POP POP JUMP JUMPDEST PUSH1 0x64 SWAP5 POP MLOAD SWAP3 PUSH4 0x64283D7B PUSH1 0xE0 SHL DUP5 MSTORE PUSH1 0x4 DUP5 ADD MSTORE PUSH1 0x24 DUP4 ADD MSTORE PUSH1 0x44 DUP3 ADD MSTORE REVERT JUMPDEST PUSH1 0x0 DUP8 DUP2 MSTORE PUSH1 0x4 PUSH1 0x20 MSTORE PUSH1 0x40 SWAP1 KECCAK256 DUP1 SLOAD PUSH1 0x1 PUSH1 0x1 PUSH1 0xA0 SHL SUB NOT AND SWAP1 SSTORE DUP5 DUP4 MSTORE PUSH1 0x3 DUP2 MSTORE DUP12 DUP4 KECCAK256 DUP1 SLOAD PUSH1 0x0 NOT ADD SWAP1 SSTORE PUSH2 0x258B JUMP JUMPDEST SWAP2 SWAP4 SWAP5 POP SWAP2 POP DUP1 PUSH2 0x2670 JUMPI JUMPDEST ISZERO PUSH2 0x2634 JUMPI DUP6 SWAP3 SWAP2 DUP8 SWAP2 CODESIZE PUSH2 0x255F JUMP JUMPDEST DUP8 DUP7 DUP9 PUSH2 0x2651 JUMPI PUSH1 0x24 SWAP2 MLOAD SWAP1 PUSH4 0x7E273289 PUSH1 0xE0 SHL DUP3 MSTORE PUSH1 0x4 DUP3 ADD MSTORE REVERT JUMPDEST SWAP1 MLOAD PUSH4 0x177E802F PUSH1 0xE0 SHL DUP2 MSTORE CALLER PUSH1 0x4 DUP3 ADD MSTORE PUSH1 0x24 DUP2 ADD SWAP2 SWAP1 SWAP2 MSTORE PUSH1 0x44 SWAP1 REVERT JUMPDEST POP CALLER DUP8 EQ DUP1 ISZERO PUSH2 0x2695 JUMPI JUMPDEST DUP1 PUSH2 0x2624 JUMPI POP DUP6 DUP3 MSTORE PUSH1 0x4 DUP2 MSTORE CALLER DUP6 DUP10 DUP5 KECCAK256 SLOAD AND EQ PUSH2 0x2624 JUMP JUMPDEST POP DUP7 DUP3 MSTORE PUSH1 0x5 DUP2 MSTORE DUP8 DUP3 KECCAK256 CALLER DUP4 MSTORE DUP2 MSTORE PUSH1 0xFF DUP9 DUP4 KECCAK256 SLOAD AND PUSH2 0x267B JUMP JUMPDEST SWAP3 SWAP1 SWAP3 PUSH2 0x26BF DUP4 DUP6 DUP4 PUSH2 0x2528 JUMP JUMPDEST DUP4 EXTCODESIZE PUSH2 0x26CC JUMPI JUMPDEST POP POP POP POP JUMP JUMPDEST PUSH1 0x40 MLOAD PUSH4 0xA85BD01 PUSH1 0xE1 SHL DUP1 DUP3 MSTORE CALLER PUSH1 0x4 DUP4 ADD MSTORE PUSH1 0x1 PUSH1 0x1 PUSH1 0xA0 SHL SUB SWAP3 DUP4 AND PUSH1 0x24 DUP4 ADD MSTORE PUSH1 0x44 DUP3 ADD SWAP5 SWAP1 SWAP5 MSTORE PUSH1 0x80 PUSH1 0x64 DUP3 ADD MSTORE SWAP5 SWAP4 AND SWAP3 PUSH1 0x20 SWAP3 SWAP1 SWAP2 DUP6 SWAP1 PUSH2 0x2718 SWAP1 PUSH1 0x84 DUP4 ADD SWAP1 PUSH2 0x2166 JUMP JUMPDEST SUB SWAP5 DUP4 DUP2 PUSH1 0x0 SWAP8 DUP2 DUP10 DUP10 GAS CALL DUP7 SWAP2 DUP2 PUSH2 0x27C2 JUMPI JUMPDEST POP PUSH2 0x278D JUMPI POP POP POP RETURNDATASIZE PUSH1 0x0 EQ PUSH2 0x2784 JUMPI RETURNDATASIZE PUSH2 0x2746 DUP2 PUSH2 0x22CB JUMP JUMPDEST SWAP1 PUSH2 0x2754 PUSH1 0x40 MLOAD SWAP3 DUP4 PUSH2 0x22A9 JUMP JUMPDEST DUP2 MSTORE DUP1 SWAP4 DUP3 RETURNDATASIZE SWAP3 ADD RETURNDATACOPY JUMPDEST DUP3 MLOAD SWAP3 DUP4 PUSH2 0x277F JUMPI PUSH1 0x40 MLOAD PUSH4 0x32505749 PUSH1 0xE1 SHL DUP2 MSTORE PUSH1 0x4 DUP2 ADD DUP5 SWAP1 MSTORE PUSH1 0x24 SWAP1 REVERT JUMPDEST ADD SWAP1 POP REVERT JUMPDEST PUSH1 0x60 SWAP3 POP PUSH2 0x275E JUMP JUMPDEST SWAP2 SWAP5 POP SWAP2 POP PUSH4 0xFFFFFFFF PUSH1 0xE0 SHL AND SUB PUSH2 0x27AA JUMPI POP CODESIZE DUP1 DUP1 DUP1 PUSH2 0x26C6 JUMP JUMPDEST PUSH1 0x24 SWAP1 PUSH1 0x40 MLOAD SWAP1 PUSH4 0x32505749 PUSH1 0xE1 SHL DUP3 MSTORE PUSH1 0x4 DUP3 ADD MSTORE REVERT JUMPDEST SWAP1 SWAP2 POP DUP5 DUP2 DUP2 RETURNDATASIZE DUP4 GT PUSH2 0x27FF JUMPI JUMPDEST PUSH2 0x27DA DUP2 DUP4 PUSH2 0x22A9 JUMP JUMPDEST DUP2 ADD SUB SLT PUSH2 0x27FB JUMPI MLOAD PUSH1 0x1 PUSH1 0x1 PUSH1 0xE0 SHL SUB NOT DUP2 AND DUP2 SUB PUSH2 0x27FB JUMPI SWAP1 CODESIZE PUSH2 0x272C JUMP JUMPDEST DUP7 DUP1 REVERT JUMPDEST POP RETURNDATASIZE PUSH2 0x27D0 JUMP JUMPDEST PUSH1 0x0 DUP2 DUP2 MSTORE PUSH1 0x2 PUSH1 0x20 MSTORE PUSH1 0x40 SWAP1 KECCAK256 SLOAD PUSH1 0x1 PUSH1 0x1 PUSH1 0xA0 SHL SUB AND SWAP1 DUP2 ISZERO PUSH2 0x2829 JUMPI POP SWAP1 JUMP JUMPDEST PUSH1 0x24 SWAP1 PUSH1 0x40 MLOAD SWAP1 PUSH4 0x7E273289 PUSH1 0xE0 SHL DUP3 MSTORE PUSH1 0x4 DUP3 ADD MSTORE REVERT JUMPDEST DUP2 ISZERO PUSH2 0x284B JUMPI DIV SWAP1 JUMP JUMPDEST PUSH4 0x4E487B71 PUSH1 0xE0 SHL PUSH1 0x0 MSTORE PUSH1 0x12 PUSH1 0x4 MSTORE PUSH1 0x24 PUSH1 0x0 REVERT JUMPDEST SWAP2 SWAP1 DUP3 ADD DUP1 SWAP3 GT PUSH2 0x198C JUMPI JUMP JUMPDEST SWAP1 PUSH1 0x0 PUSH1 0x20 SWAP2 DUP3 DUP2 MLOAD SWAP2 ADD DUP3 DUP6 GAS CALL ISZERO PUSH2 0x1980 JUMPI PUSH1 0x0 MLOAD RETURNDATASIZE PUSH2 0x28C1 JUMPI POP PUSH1 0x1 PUSH1 0x1 PUSH1 0xA0 SHL SUB DUP2 AND EXTCODESIZE ISZERO JUMPDEST PUSH2 0x289F JUMPI POP JUMP JUMPDEST PUSH1 0x40 MLOAD PUSH4 0x5274AFE7 PUSH1 0xE0 SHL DUP2 MSTORE PUSH1 0x1 PUSH1 0x1 PUSH1 0xA0 SHL SUB SWAP1 SWAP2 AND PUSH1 0x4 DUP3 ADD MSTORE PUSH1 0x24 SWAP1 REVERT JUMPDEST PUSH1 0x1 EQ ISZERO PUSH2 0x2898 JUMP JUMPDEST ISZERO PUSH2 0x28D1 JUMPI JUMP JUMPDEST PUSH1 0x40 MLOAD PUSH3 0x461BCD PUSH1 0xE5 SHL DUP2 MSTORE PUSH1 0x20 PUSH1 0x4 DUP3 ADD MSTORE PUSH1 0xD PUSH1 0x24 DUP3 ADD MSTORE PUSH13 0x2737BA1027232A1037BBB732B9 PUSH1 0x99 SHL PUSH1 0x44 DUP3 ADD MSTORE PUSH1 0x64 SWAP1 REVERT JUMPDEST DUP2 DUP2 MUL SWAP3 SWAP2 DUP2 ISZERO SWAP2 DUP5 DIV EQ OR ISZERO PUSH2 0x198C JUMPI JUMP JUMPDEST SWAP2 SWAP1 DUP3 SUB SWAP2 DUP3 GT PUSH2 0x198C JUMPI JUMP JUMPDEST PUSH1 0x1 PUSH1 0x1 PUSH1 0xA0 SHL SUB SWAP1 DUP2 PUSH2 0x2939 DUP3 PUSH2 0x2806 JUMP JUMPDEST AND ISZERO PUSH2 0x2A35 JUMPI PUSH1 0x0 SWAP1 DUP2 MSTORE PUSH1 0x20 SWAP1 PUSH1 0x10 DUP3 MSTORE PUSH1 0x40 DUP2 KECCAK256 SWAP1 PUSH1 0x40 MLOAD SWAP1 PUSH2 0x295D DUP3 PUSH2 0x2207 JUMP JUMPDEST DUP5 DUP4 SLOAD AND DUP3 MSTORE DUP4 PUSH2 0x299D PUSH1 0x1 DUP6 ADD SLOAD SWAP5 DUP3 DUP6 ADD SWAP6 DUP7 MSTORE PUSH1 0xFF PUSH1 0x4 PUSH1 0x2 DUP4 ADD SLOAD SWAP3 DUP4 PUSH1 0x40 DUP10 ADD MSTORE PUSH1 0x3 DUP2 ADD SLOAD PUSH1 0x60 DUP10 ADD MSTORE ADD SLOAD AND ISZERO ISZERO PUSH1 0x80 DUP7 ADD MSTORE TIMESTAMP PUSH2 0x2919 JUMP JUMPDEST SWAP6 DUP1 PUSH1 0xE SLOAD AND SWAP4 MLOAD AND PUSH1 0x24 PUSH1 0x40 MLOAD DUP1 SWAP6 DUP2 SWAP4 PUSH4 0xC4F9870B PUSH1 0xE0 SHL DUP4 MSTORE PUSH1 0x4 DUP4 ADD MSTORE GAS STATICCALL SWAP4 DUP5 ISZERO PUSH2 0x2A28 JUMPI DUP2 SWAP5 PUSH2 0x29EE JUMPI JUMPDEST POP POP POP SWAP2 PUSH2 0x29E5 PUSH2 0x29EA SWAP3 PUSH4 0xBBF81E00 SWAP5 MLOAD PUSH2 0x2906 JUMP JUMPDEST PUSH2 0x2906 JUMP JUMPDEST DIV SWAP1 JUMP JUMPDEST SWAP1 SWAP2 DUP1 SWAP4 SWAP5 POP DUP2 RETURNDATASIZE DUP4 GT PUSH2 0x2A21 JUMPI JUMPDEST PUSH2 0x2A07 DUP2 DUP4 PUSH2 0x22A9 JUMP JUMPDEST DUP2 ADD SUB SLT PUSH2 0x2A1E JUMPI POP MLOAD SWAP1 PUSH2 0x29E5 DUP2 PUSH2 0x29EA PUSH2 0x29CE JUMP JUMPDEST DUP1 REVERT JUMPDEST POP RETURNDATASIZE PUSH2 0x29FD JUMP JUMPDEST POP PUSH1 0x40 MLOAD SWAP1 RETURNDATASIZE SWAP1 DUP3 RETURNDATACOPY RETURNDATASIZE SWAP1 REVERT JUMPDEST PUSH1 0x40 MLOAD PUSH3 0x461BCD PUSH1 0xE5 SHL DUP2 MSTORE PUSH1 0x20 PUSH1 0x4 DUP3 ADD MSTORE PUSH1 0x17 PUSH1 0x24 DUP3 ADD MSTORE PUSH32 0x506F736974696F6E20646F6573206E6F74206578697374000000000000000000 PUSH1 0x44 DUP3 ADD MSTORE PUSH1 0x64 SWAP1 REVERT JUMPDEST PUSH1 0x40 MLOAD PUSH4 0xA9059CBB PUSH1 0xE0 SHL PUSH1 0x20 DUP3 ADD MSTORE PUSH1 0x1 PUSH1 0x1 PUSH1 0xA0 SHL SUB SWAP3 SWAP1 SWAP3 AND PUSH1 0x24 DUP4 ADD MSTORE PUSH1 0x44 DUP1 DUP4 ADD SWAP4 SWAP1 SWAP4 MSTORE SWAP2 DUP2 MSTORE PUSH2 0x2ABB SWAP2 PUSH2 0x2AB6 PUSH1 0x64 DUP4 PUSH2 0x22A9 JUMP JUMPDEST PUSH2 0x286E JUMP JUMPDEST JUMP JUMPDEST DUP1 MLOAD ISZERO PUSH2 0x2ACA JUMPI PUSH1 0x20 ADD SWAP1 JUMP JUMPDEST PUSH4 0x4E487B71 PUSH1 0xE0 SHL PUSH1 0x0 MSTORE PUSH1 0x32 PUSH1 0x4 MSTORE PUSH1 0x24 PUSH1 0x0 REVERT JUMPDEST DUP1 MLOAD PUSH1 0x1 LT ISZERO PUSH2 0x2ACA JUMPI PUSH1 0x40 ADD SWAP1 JUMP JUMPDEST DUP1 MLOAD PUSH1 0x2 LT ISZERO PUSH2 0x2ACA JUMPI PUSH1 0x60 ADD SWAP1 JUMP JUMPDEST PUSH1 0x40 PUSH1 0x60 DUP2 MLOAD PUSH2 0x2B0F DUP2 PUSH2 0x2239 JUMP JUMPDEST CALLDATASIZE SWAP1 CALLDATACOPY DUP1 MLOAD SWAP1 PUSH2 0x2B1E DUP3 PUSH2 0x2271 JUMP JUMPDEST PUSH1 0x3 DUP3 MSTORE PUSH1 0x20 DUP1 DUP4 ADD SWAP1 PUSH1 0x60 CALLDATASIZE DUP4 CALLDATACOPY PUSH1 0xA SLOAD PUSH1 0x1 PUSH1 0x1 PUSH1 0xA0 SHL SUB SWAP2 SWAP1 DUP3 AND PUSH2 0x2B45 DUP7 PUSH2 0x2ABD JUMP JUMPDEST MSTORE DUP2 PUSH1 0xB SLOAD AND PUSH2 0x2B54 DUP7 PUSH2 0x2AE0 JUMP JUMPDEST MSTORE DUP2 PUSH1 0xC SLOAD AND PUSH2 0x2B63 DUP7 PUSH2 0x2AF0 JUMP JUMPDEST MSTORE DUP2 PUSH1 0xE SLOAD AND DUP5 MLOAD DUP1 SWAP5 PUSH4 0x379698E9 PUSH1 0xE2 SHL DUP3 MSTORE PUSH1 0x24 SWAP5 DUP6 DUP4 ADD PUSH1 0x4 SWAP10 DUP7 DUP12 DUP7 ADD MSTORE MLOAD DUP1 SWAP2 MSTORE PUSH1 0x44 DUP5 ADD SWAP3 SWAP2 PUSH1 0x0 SWAP1 JUMPDEST DUP8 DUP4 DUP4 LT PUSH2 0x2DC5 JUMPI POP POP POP POP POP SWAP2 DUP2 DUP1 PUSH1 0x0 SWAP5 SUB SWAP2 GAS STATICCALL SWAP3 DUP4 ISZERO PUSH2 0x2DBA JUMPI PUSH1 0x0 SWAP4 PUSH2 0x2D0D JUMPI JUMPDEST POP PUSH2 0x2BE3 PUSH2 0x2BDA PUSH2 0x2BC9 DUP6 PUSH2 0x2ABD JUMP JUMPDEST MLOAD PUSH2 0x2BD3 DUP7 PUSH2 0x2AE0 JUMP JUMPDEST MLOAD SWAP1 PUSH2 0x2861 JUMP JUMPDEST PUSH2 0x2BD3 DUP6 PUSH2 0x2AF0 JUMP JUMPDEST SWAP2 DUP3 ISZERO PUSH2 0x2CEB JUMPI DUP5 MLOAD SWAP6 PUSH2 0x2BF6 DUP8 PUSH2 0x2239 JUMP JUMPDEST PUSH2 0x2BFF DUP6 PUSH2 0x2ABD JUMP JUMPDEST MLOAD SWAP3 PUSH1 0x64 SWAP4 DUP5 DUP2 MUL SWAP1 DUP1 DUP3 DIV DUP7 EQ SWAP1 ISZERO OR ISZERO PUSH2 0x2CD7 JUMPI DUP6 PUSH2 0x2C1F SWAP2 PUSH2 0x2841 JUMP JUMPDEST DUP9 MSTORE PUSH2 0x2C2A DUP7 PUSH2 0x2AE0 JUMP JUMPDEST MLOAD DUP5 DUP2 MUL SWAP1 DUP1 DUP3 DIV DUP7 EQ SWAP1 ISZERO OR ISZERO PUSH2 0x2CD7 JUMPI DUP6 PUSH2 0x2C46 SWAP2 PUSH2 0x2841 JUMP JUMPDEST SWAP1 DUP9 ADD MSTORE PUSH2 0x2C53 DUP6 PUSH2 0x2ABD JUMP JUMPDEST MLOAD DUP4 DUP2 MUL SWAP1 DUP1 DUP3 DIV DUP6 EQ SWAP1 ISZERO OR ISZERO PUSH2 0x2CC3 JUMPI DUP5 PUSH2 0x2C6F SWAP2 PUSH2 0x2841 JUMP JUMPDEST DUP4 SUB SWAP5 DUP4 DUP7 GT PUSH2 0x2CC3 JUMPI PUSH2 0x2C82 SWAP1 PUSH2 0x2AE0 JUMP JUMPDEST MLOAD DUP4 DUP2 MUL SWAP4 DUP2 DUP6 DIV EQ SWAP1 ISZERO OR ISZERO PUSH2 0x2CB0 JUMPI POP POP PUSH2 0x2CA9 SWAP3 SWAP2 PUSH2 0x2CA3 SWAP2 PUSH2 0x2841 JUMP JUMPDEST SWAP1 PUSH2 0x2919 JUMP JUMPDEST SWAP1 DUP3 ADD MSTORE SWAP1 JUMP JUMPDEST PUSH1 0x11 SWAP1 PUSH4 0x4E487B71 PUSH1 0xE0 SHL PUSH1 0x0 MSTORE MSTORE PUSH1 0x0 REVERT JUMPDEST POP PUSH1 0x11 SWAP1 PUSH4 0x4E487B71 PUSH1 0xE0 SHL PUSH1 0x0 MSTORE MSTORE PUSH1 0x0 REVERT JUMPDEST DUP4 PUSH1 0x11 DUP5 PUSH4 0x4E487B71 PUSH1 0xE0 SHL PUSH1 0x0 MSTORE MSTORE PUSH1 0x0 REVERT JUMPDEST POP SWAP4 POP POP POP DUP1 PUSH1 0x21 PUSH1 0x22 SWAP3 MLOAD SWAP4 PUSH2 0x2D01 DUP6 PUSH2 0x2239 JUMP JUMPDEST DUP2 DUP6 MSTORE DUP5 ADD MSTORE DUP3 ADD MSTORE SWAP1 JUMP JUMPDEST SWAP1 SWAP3 RETURNDATASIZE DUP1 DUP3 DUP5 RETURNDATACOPY PUSH2 0x2D1E DUP2 DUP5 PUSH2 0x22A9 JUMP JUMPDEST DUP3 ADD SWAP1 DUP5 DUP4 DUP4 SUB SLT PUSH2 0x2A1E JUMPI DUP3 MLOAD PUSH8 0xFFFFFFFFFFFFFFFF SWAP4 DUP5 DUP3 GT PUSH2 0x2DB6 JUMPI ADD DUP3 PUSH1 0x1F DUP3 ADD SLT ISZERO PUSH2 0x2DB2 JUMPI DUP1 MLOAD SWAP4 DUP5 GT PUSH2 0x2DA0 JUMPI DUP4 PUSH1 0x5 SHL SWAP2 DUP8 MLOAD SWAP5 PUSH2 0x2D66 DUP9 DUP6 ADD DUP8 PUSH2 0x22A9 JUMP JUMPDEST DUP6 MSTORE DUP7 DUP1 DUP7 ADD SWAP4 DUP4 ADD ADD SWAP4 DUP5 GT PUSH2 0x2A1E JUMPI POP DUP6 DUP1 SWAP2 ADD SWAP2 JUMPDEST DUP4 DUP4 LT PUSH2 0x2D90 JUMPI POP POP POP POP SWAP2 CODESIZE PUSH2 0x2BB9 JUMP JUMPDEST DUP3 MLOAD DUP2 MSTORE SWAP2 DUP2 ADD SWAP2 DUP7 SWAP2 ADD PUSH2 0x2D7E JUMP JUMPDEST PUSH4 0x4E487B71 PUSH1 0xE0 SHL DUP3 MSTORE PUSH1 0x41 DUP9 MSTORE DUP5 DUP3 REVERT JUMPDEST POP DUP1 REVERT JUMPDEST DUP3 DUP1 REVERT JUMPDEST DUP5 MLOAD RETURNDATASIZE PUSH1 0x0 DUP3 RETURNDATACOPY RETURNDATASIZE SWAP1 REVERT JUMPDEST DUP5 MLOAD DUP3 AND DUP7 MSTORE DUP11 SWAP7 POP SWAP5 DUP6 ADD SWAP5 SWAP1 SWAP4 ADD SWAP3 PUSH1 0x1 SWAP2 SWAP1 SWAP2 ADD SWAP1 PUSH2 0x2B93 JUMP INVALID 0xC SLT PUSH8 0xF8B6A6608F6166EA SWAP9 0xCE SWAP2 0xE2 EXTCODEHASH 0xE3 0xBF 0xD SWAP3 CHAINID BASEFEE SLOAD 0x24 SWAP5 DUP2 0xDD PUSH30 0x7A5D464A26469706673582212203EF4BD9233C6A101CF57D17DF28B0C4A GT 0x4D PUSH2 0x916B RETURNDATASIZE DUP12 0xB7 0xEE 0xBA GT 0xD8 0xD3 0x24 RETURNDATASIZE 0x4D PUSH5 0x736F6C6343 STOP ADDMOD EQ STOP CALLER "},"methodIdentifiers":{"DEFAULT_ADMIN_ROLE()":"a217fddf","approve(address,uint256)":"095ea7b3","balanceOf(address)":"70a08231","cEUR()":"7d1f2de7","cREAL()":"d47ce0a6","cUSD()":"1fccf672","calculateYield(uint256)":"80a3301b","claimYield(uint256)":"40bd2e23","deposit(address,uint256)":"47e7ef24","dex()":"692058c2","factory()":"c45a0155","getApproved(uint256)":"081812fc","getOptimalAllocation()":"33a7ad76","getRoleAdmin(bytes32)":"248a9ca3","grantRole(bytes32,address)":"2f2ff15d","hasRole(bytes32,address)":"91d14854","initialize(address,address,address,address,address,address)":"cc2a9a5b","isApprovedForAll(address,address)":"e985e9c5","name()":"06fdde03","nextTokenId()":"75794a3c","owner()":"8da5cb5b","ownerOf(uint256)":"6352211e","positions(uint256)":"99fbab88","rebalance(uint256)":"f4993018","redeem(uint256)":"db006a75","renounceOwnership()":"715018a6","renounceRole(bytes32,address)":"36568abe","revokeRole(bytes32,address)":"d547741f","safeTransferFrom(address,address,uint256)":"42842e0e","safeTransferFrom(address,address,uint256,bytes)":"b88d4fde","setApprovalForAll(address,bool)":"a22cb465","supportsInterface(bytes4)":"01ffc9a7","symbol()":"95d89b41","tokenURI(uint256)":"c87b56dd","totalDeposits(address)":"e9403256","totalYield(address)":"b26dd040","transferFrom(address,address,uint256)":"23b872dd","transferOwnership(address)":"f2fde38b","yieldOracle()":"a7f0e342"}}}}}