{
  "_format": "hh-sol-artifact-1",
  "contractName": "DummyDex",
  "sourceName": "contracts/DummyDex.sol",
  "abi": [
    {
      "inputs": [
        {
          "internalType": "address",
          "name": "from",
          "type": "address"
        },
        {
          "internalType": "address",
          "name": "to",
          "type": "address"
        },
        {
          "internalType": "uint256",
          "name": "amount",
          "type": "uint256"
        }
      ],
      "name": "getPrice",
      "outputs": [
        {
          "internalType": "uint256",
          "name": "",
          "type": "uint256"
        }
      ],
      "stateMutability": "pure",
      "type": "function"
    },
    {
      "inputs": [
        {
          "internalType": "address",
          "name": "from",
          "type": "address"
        },
        {
          "internalType": "address",
          "name": "to",
          "type": "address"
        },
        {
          "internalType": "uint256",
          "name": "amount",
          "type": "uint256"
        }
      ],
      "name": "swap",
      "outputs": [
        {
          "internalType": "uint256",
          "name": "",
          "type": "uint256"
        }
      ],
      "stateMutability": "pure",
      "type": "function"
    }
  ],
  "bytecode": "0x608060405234801561001057600080fd5b5060e28061001f6000396000f3fe6080604052348015600f57600080fd5b506004361060325760003560e01c8063a9dd14d6146037578063df791e50146037575b600080fd5b604860423660046075565b92915050565b60405190815260200160405180910390f35b80356001600160a01b0381168114607057600080fd5b919050565b600080600060608486031215608957600080fd5b609084605a565b9250609c60208501605a565b915060408401359050925092509256fea2646970667358221220bce7cafefa780e672f3507c3648b72095c232bf0ed614d4cd9c598faa2f7dcd164736f6c63430008140033",
  "linkReferences": {},
  "deployedLinkReferences": {}
}