{
  "_format": "hh-sol-artifact-1",
  "contractName": "XmentoVaultFactoryReentrancyTest",
  "sourceName": "contracts/ReentrancyTest.sol",
  "abi": [
    {
      "inputs": [
        {
          "internalType": "address",
          "name": "_factory",
          "type": "address"
        }
      ],
      "stateMutability": "nonpayable",
      "type": "constructor"
    },
    {
      "inputs": [],
      "name": "factory",
      "outputs": [
        {
          "internalType": "contract XmentoVaultFactory",
          "name": "",
          "type": "address"
        }
      ],
      "stateMutability": "view",
      "type": "function"
    },
    {
      "inputs": [],
      "name": "maliciousVault",
      "outputs": [
        {
          "internalType": "contract MaliciousVault",
          "name": "",
          "type": "address"
        }
      ],
      "stateMutability": "view",
      "type": "function"
    },
    {
      "inputs": [],
      "name": "testReentrancy",
      "outputs": [
        {
          "internalType": "bool",
          "name": "",
          "type": "bool"
        }
      ],
      "stateMutability": "nonpayable",
      "type": "function"
    }
  ],
  "bytecode": "0x608060405234801561001057600080fd5b5060405161513c38038061513c83398101604081905261002f91610054565b600080546001600160a01b0319166001600160a01b0392909216919091179055610084565b60006020828403121561006657600080fd5b81516001600160a01b038116811461007d57600080fd5b9392505050565b6150a9806100936000396000f3fe608060405234801561001057600080fd5b50600436106100415760003560e01c80635bfb393314610046578063c45a015514610076578063f4006b8614610089575b600080fd5b600154610059906001600160a01b031681565b6040516001600160a01b0390911681526020015b60405180910390f35b600054610059906001600160a01b031681565b6100916100a1565b604051901515815260200161006d565b60006040516100af90610239565b604051809103906000f0801580156100cb573d6000803e3d6000fd5b50600180546001600160a01b0319166001600160a01b039283169081179091556000546040516353e78b6b60e01b81526004810192909252909116906353e78b6b90602401600060405180830381600087803b15801561012a57600080fd5b505af115801561013e573d6000803e3d6000fd5b5050505060008054906101000a90046001600160a01b03166001600160a01b0316635d12928b6040518163ffffffff1660e01b81526004016020604051808303816000875af19250505080156101b1575060408051601f3d908101601f191682019092526101ae91810190610246565b60015b6101bb5750600190565b50600160009054906101000a90046001600160a01b03166001600160a01b0316633f09775e6040518163ffffffff1660e01b8152600401602060405180830381865afa15801561020f573d6000803e3d6000fd5b505050506040513d601f19601f820116820180604052508101906102339190610276565b15905090565b614ddb8061029983390190565b60006020828403121561025857600080fd5b81516001600160a01b038116811461026f57600080fd5b9392505050565b60006020828403121561028857600080fd5b8151801515811461026f57600080fdfe60a0604052306080523480156200001557600080fd5b506200002062000026565b620000e7565b600054610100900460ff1615620000935760405162461bcd60e51b815260206004820152602760248201527f496e697469616c697a61626c653a20636f6e747261637420697320696e697469604482015266616c697a696e6760c81b606482015260840160405180910390fd5b60005460ff90811614620000e5576000805460ff191660ff9081179091556040519081527f7f26b83ff96e1f2b6a682f133852f6798a09c465da95921460cefb38474024989060200160405180910390a15b565b608051614cbc6200011f60003960008181610fca0152818161100a01528181611e1301528181611e530152611ee20152614cbc6000f3fe6080604052600436106102675760003560e01c806375794a3c11610144578063b88d4fde116100b6578063d547741f1161007a578063d547741f146107b9578063db006a75146107d9578063e9403256146107f9578063e985e9c514610827578063f2fde38b14610870578063f49930181461089057600080fd5b8063b88d4fde14610717578063c45a015514610737578063c87b56dd14610758578063cc2a9a5b14610778578063d47ce0a61461079857600080fd5b806395d89b411161010857806395d89b41146105f257806399fbab8814610607578063a217fddf14610693578063a22cb465146106a8578063a7f0e342146106c8578063b26dd040146106e957600080fd5b806375794a3c1461055c5780637d1f2de71461057357806380a3301b146105945780638da5cb5b146105b457806391d14854146105d257600080fd5b80633659cfe6116101dd5780634f1ef286116101a15780634f1ef286146104be57806352d1902d146104d15780636352211e146104e6578063692058c21461050657806370a0823114610527578063715018a61461054757600080fd5b80633659cfe61461041e5780633f09775e1461043e57806340bd2e231461045e57806342842e0e1461047e57806347e7ef241461049e57600080fd5b806323b872dd1161022f57806323b872dd1461033e578063248a9ca31461035e5780632e1a7d4d1461039c5780632f2ff15d146103bc57806333a7ad76146103dc57806336568abe146103fe57600080fd5b806301ffc9a71461026c57806306fdde03146102a1578063081812fc146102c3578063095ea7b3146102fb5780631fccf6721461031d575b600080fd5b34801561027857600080fd5b5061028c610287366004613f8b565b6108b0565b60405190151581526020015b60405180910390f35b3480156102ad57600080fd5b506102b66108c1565b6040516102989190613ff8565b3480156102cf57600080fd5b506102e36102de36600461400b565b610953565b6040516001600160a01b039091168152602001610298565b34801561030757600080fd5b5061031b610316366004614039565b61097a565b005b34801561032957600080fd5b50610192546102e3906001600160a01b031681565b34801561034a57600080fd5b5061031b610359366004614065565b610a94565b34801561036a57600080fd5b5061038e61037936600461400b565b600090815260c9602052604090206001015490565b604051908152602001610298565b3480156103a857600080fd5b5061031b6103b736600461400b565b610ac5565b3480156103c857600080fd5b5061031b6103d73660046140a6565b610c50565b3480156103e857600080fd5b506103f1610c75565b60405161029891906140d6565b34801561040a57600080fd5b5061031b6104193660046140a6565b610f42565b34801561042a57600080fd5b5061031b610439366004614107565b610fc0565b34801561044a57600080fd5b5061019b5461028c90610100900460ff1681565b34801561046a57600080fd5b5061031b61047936600461400b565b61109c565b34801561048a57600080fd5b5061031b610499366004614065565b6111c5565b3480156104aa57600080fd5b5061031b6104b9366004614039565b6111e0565b61031b6104cc3660046141db565b611e09565b3480156104dd57600080fd5b5061038e611ed5565b3480156104f257600080fd5b506102e361050136600461400b565b611f88565b34801561051257600080fd5b50610195546102e3906001600160a01b031681565b34801561053357600080fd5b5061038e610542366004614107565b611fe8565b34801561055357600080fd5b5061031b61206e565b34801561056857600080fd5b5061038e6101975481565b34801561057f57600080fd5b50610193546102e3906001600160a01b031681565b3480156105a057600080fd5b5061038e6105af36600461400b565b612082565b3480156105c057600080fd5b506097546001600160a01b03166102e3565b3480156105de57600080fd5b5061028c6105ed3660046140a6565b6121f2565b3480156105fe57600080fd5b506102b661221d565b34801561061357600080fd5b5061065f61062236600461400b565b61019860205260009081526040902080546001820154600283015460038401546004909401546001600160a01b0390931693919290919060ff1685565b604080516001600160a01b03909616865260208601949094529284019190915260608301521515608082015260a001610298565b34801561069f57600080fd5b5061038e600081565b3480156106b457600080fd5b5061031b6106c3366004614239565b61222c565b3480156106d457600080fd5b50610196546102e3906001600160a01b031681565b3480156106f557600080fd5b5061038e610704366004614107565b61019a6020526000908152604090205481565b34801561072357600080fd5b5061031b610732366004614267565b612237565b34801561074357600080fd5b50610191546102e3906001600160a01b031681565b34801561076457600080fd5b506102b661077336600461400b565b61226f565b34801561078457600080fd5b5061031b6107933660046142d3565b6122e3565b3480156107a457600080fd5b50610194546102e3906001600160a01b031681565b3480156107c557600080fd5b5061031b6107d43660046140a6565b612443565b3480156107e557600080fd5b5061031b6107f436600461400b565b612468565b34801561080557600080fd5b5061038e610814366004614107565b6101996020526000908152604090205481565b34801561083357600080fd5b5061028c610842366004614355565b6001600160a01b039182166000908152606a6020908152604080832093909416825291909152205460ff1690565b34801561087c57600080fd5b5061031b61088b366004614107565b6125cd565b34801561089c57600080fd5b5061031b6108ab36600461400b565b612643565b60006108bb82612768565b92915050565b6060606580546108d090614383565b80601f01602080910402602001604051908101604052809291908181526020018280546108fc90614383565b80156109495780601f1061091e57610100808354040283529160200191610949565b820191906000526020600020905b81548152906001019060200180831161092c57829003601f168201915b5050505050905090565b600061095e8261278d565b506000908152606960205260409020546001600160a01b031690565b600061098582611f88565b9050806001600160a01b0316836001600160a01b0316036109f75760405162461bcd60e51b815260206004820152602160248201527f4552433732313a20617070726f76616c20746f2063757272656e74206f776e656044820152603960f91b60648201526084015b60405180910390fd5b336001600160a01b0382161480610a135750610a138133610842565b610a855760405162461bcd60e51b815260206004820152603d60248201527f4552433732313a20617070726f76652063616c6c6572206973206e6f7420746f60448201527f6b656e206f776e6572206f7220617070726f76656420666f7220616c6c00000060648201526084016109ee565b610a8f83836127ec565b505050565b610a9e338261285a565b610aba5760405162461bcd60e51b81526004016109ee906143bd565b610a8f8383836128d9565b610acd612a3d565b33610ad782611f88565b6001600160a01b031614610afd5760405162461bcd60e51b81526004016109ee9061440a565b600081815261019860205260409020600481015460ff16610b595760405162461bcd60e51b8152602060048201526016602482015275506f736974696f6e206973206e6f742061637469766560501b60448201526064016109ee565b8054600182015460048301805460ff191690556001600160a01b039091166000818152610199602052604081208054929392839290610b99908490614447565b90915550610ba8905084612a96565b60008481526101986020526040812080546001600160a01b031916815560018101829055600281018290556003810191909155600401805460ff19169055610bfa6001600160a01b0383163383612b2b565b60408051828152602081018690526001600160a01b0384169133917f91fb9d98b786c57d74c099ccd2beca1739e9f6a81fb49001ca465c4b7591bbe2910160405180910390a3505050610c4d600160fb55565b50565b600082815260c96020526040902060010154610c6b81612b95565b610a8f8383612b9f565b610c7d613f57565b604080516003808252608082019092526000916020820160608036833750506101925482519293506001600160a01b031691839150600090610cc157610cc161445a565b6001600160a01b03928316602091820292909201015261019354825191169082906001908110610cf357610cf361445a565b6001600160a01b03928316602091820292909201015261019454825191169082906002908110610d2557610d2561445a565b6001600160a01b0392831660209182029290920101526101965460405163379698e960e21b8152600092919091169063de5a63a490610d68908590600401614470565b600060405180830381865afa158015610d85573d6000803e3d6000fd5b505050506040513d6000823e601f3d908101601f19168201604052610dad91908101906144bd565b9050600081600281518110610dc457610dc461445a565b602002602001015182600181518110610ddf57610ddf61445a565b602002602001015183600081518110610dfa57610dfa61445a565b6020026020010151610e0c9190614563565b610e169190614563565b905080600003610e4657604051806060016040528060218152602001602181526020016022815250935050505090565b60405180606001604052808284600081518110610e6557610e6561445a565b60200260200101516064610e799190614576565b610e83919061458d565b81526020018284600181518110610e9c57610e9c61445a565b60200260200101516064610eb09190614576565b610eba919061458d565b81526020018284600181518110610ed357610ed361445a565b60200260200101516064610ee79190614576565b610ef1919061458d565b8385600081518110610f0557610f0561445a565b60200260200101516064610f199190614576565b610f23919061458d565b610f2e906064614447565b610f389190614447565b9052949350505050565b6001600160a01b0381163314610fb25760405162461bcd60e51b815260206004820152602f60248201527f416363657373436f6e74726f6c3a2063616e206f6e6c792072656e6f756e636560448201526e103937b632b9903337b91039b2b63360891b60648201526084016109ee565b610fbc8282612c25565b5050565b6001600160a01b037f00000000000000000000000000000000000000000000000000000000000000001630036110085760405162461bcd60e51b81526004016109ee906145af565b7f00000000000000000000000000000000000000000000000000000000000000006001600160a01b0316611051600080516020614c20833981519152546001600160a01b031690565b6001600160a01b0316146110775760405162461bcd60e51b81526004016109ee906145fb565b61108081612c8c565b60408051600080825260208201909252610c4d91839190612c94565b336110a682611f88565b6001600160a01b0316146110cc5760405162461bcd60e51b81526004016109ee9061440a565b60006110d782612082565b90506000811161111d5760405162461bcd60e51b81526020600482015260116024820152704e6f207969656c6420746f20636c61696d60781b60448201526064016109ee565b60008281526101986020908152604080832042600282015580546001600160a01b0316845261019a909252822080549192849261115b908490614563565b90915550508054611176906001600160a01b03163384612b2b565b805460408051848152602081018690526001600160a01b039092169133917fb10c79aa8ce52424b7676b33fe7b45ea2516b75f43f3b5c0c730e52ca8ef36a591015b60405180910390a3505050565b610a8f83838360405180602001604052806000815250612237565b6111e8612a3d565b60006111fc6097546001600160a01b031690565b6001600160a01b0316036112525760405162461bcd60e51b815260206004820152601860248201527f436f6e7472616374206e6f7420696e697469616c697a6564000000000000000060448201526064016109ee565b6040516603a37b5b2b71d160cd1b60208201526001600160601b0319606084901b1660278201526801030b6b7bab73a1d160bd1b603b82015260448101829052600080516020614c678339815191529060640160408051601f19818403018152908290526112bf91614647565b60405180910390a16001600160a01b0382166113275760405162461bcd60e51b815260206004820152602160248201527f584d563a20546f6b656e20616464726573732063616e6e6f74206265207a65726044820152606f60f81b60648201526084016109ee565b600081116113825760405162461bcd60e51b815260206004820152602260248201527f584d563a20416d6f756e74206d7573742062652067726561746572207468616e604482015261020360f41b60648201526084016109ee565b6040516603a37b5b2b71d160cd1b60208201526001600160601b0319606084901b166027820152600080516020614c6783398151915290603b0160408051601f19818403018152908290526113d691614684565b60405180910390a1610192546000906001600160a01b038481169116148061140c5750610193546001600160a01b038481169116145b806114255750610194546001600160a01b038481169116145b9050806114745760405162461bcd60e51b815260206004820152601860248201527f584d563a20546f6b656e206e6f7420737570706f72746564000000000000000060448201526064016109ee565b600080516020614c678339815191526040516114c8906040808252601590820152740ccb88151bdad95b881a5cc81cdd5c1c1bdc9d1959605a1b606082015260806020820181905260009082015260a00190565b60405180910390a1600080516020614c678339815191526040516115379060408082526022908201527f342e2047657474696e672062616c616e6365206265666f7265207472616e736660608201526132b960f11b608082015260a06020820181905260009082015260c00190565b60405180910390a16040516370a0823160e01b81523060048201526000906001600160a01b038516906370a0823190602401602060405180830381865afa158015611586573d6000803e3d6000fd5b505050506040513d601f19601f820116820180604052508101906115aa91906146cb565b9050600080516020614c67833981519152816040516020016115ce91815260200190565b60408051601f19818403018152908290526115e8916146e4565b60405180910390a1600080516020614c6783398151915260405161165b9060408082526026908201527f362e20436865636b696e6720757365722062616c616e636520616e6420616c6c6060820152656f77616e636560d01b608082015260a06020820181905260009082015260c00190565b60405180910390a16040516370a0823160e01b815233600482015284906000906001600160a01b038316906370a0823190602401602060405180830381865afa1580156116ac573d6000803e3d6000fd5b505050506040513d601f19601f820116820180604052508101906116d091906146cb565b604051636eb1769f60e11b81523360048201523060248201529091506000906001600160a01b0384169063dd62ed3e90604401602060405180830381865afa158015611720573d6000803e3d6000fd5b505050506040513d601f19601f8201168201806040525081019061174491906146cb565b6040516803130b630b731b29d160bd1b6020820152602981018490526b01030b63637bbb0b731b29d160a51b6049820152605581018290526a0103932b8bab4b932b21d160ad1b607582015260808101889052909150600080516020614c678339815191529060a00160408051601f19818403018152908290526117c79161472b565b60405180910390a18582101561181f5760405162461bcd60e51b815260206004820152601960248201527f584d563a20496e73756666696369656e742062616c616e63650000000000000060448201526064016109ee565b8581101561186f5760405162461bcd60e51b815260206004820152601b60248201527f584d563a20496e73756666696369656e7420616c6c6f77616e6365000000000060448201526064016109ee565b600080516020614c678339815191526040516118cb906040808252601c908201527f382e20496e6974696174696e6720746f6b656e207472616e7366657200000000606082015260806020820181905260009082015260a00190565b60405180910390a16118e86001600160a01b038416333089612dff565b600080516020614c6783398151915260405161193d906040808252601690820152750e4b88151c985b9cd9995c881cdd58d8d95cdcd99d5b60521b606082015260806020820181905260009082015260a00190565b60405180910390a1600080516020614c6783398151915260405161199a90604080825260169082015275189817102b32b934b33cb4b733903a3930b739b332b960511b606082015260806020820181905260009082015260a00190565b60405180910390a16040516370a0823160e01b81523060048201526000906001600160a01b038516906370a0823190602401602060405180830381865afa1580156119e9573d6000803e3d6000fd5b505050506040513d601f19601f82011682018060405250810190611a0d91906146cb565b9050600080516020614c6783398151915281611a298988614563565b60405167030b1ba3ab0b61d160c51b602082015260288101929092526a01032bc3832b1ba32b21d160ad1b6048830152605382015260730160408051601f1981840301815290829052611a7b91614772565b60405180910390a1611a8d8786614563565b8114611adb5760405162461bcd60e51b815260206004820152601a60248201527f584d563a20546f6b656e207472616e73666572206661696c656400000000000060448201526064016109ee565b600080516020614c67833981519152604051611b2f906040808252601590820152740c4c8b88151c985b9cd9995c881d995c9a599a5959605a1b606082015260806020820181905260009082015260a00190565b60405180910390a1610197805460009182611b49836147b9565b909155506040805160a0810182526001600160a01b038c8116808352602083018d9052428385015261019654935163c4f9870b60e01b81526004810191909152939450909260608401929091169063c4f9870b90602401602060405180830381865afa158015611bbd573d6000803e3d6000fd5b505050506040513d601f19601f82011682018060405250810190611be191906146cb565b815260016020918201819052600084815261019883526040808220855181546001600160a01b0319166001600160a01b039182161782558686015194820194909455858201516002820155606086015160038201556080909501516004909501805460ff191695151595909517909455908c16815261019990915290812080548a9290611c6f908490614563565b90915550611c7f90503382612e37565b60408051602081018390526001600160601b031960608c901b169181019190915260548101899052426074820152600080516020614c678339815191529060940160408051601f1981840301815290829052611cda916147d2565b60405180910390a16001600160a01b03891660009081526101996020908152604091829020549151600080516020614c6783398151915292611d36928d920160609290921b6001600160601b0319168252601482015260340190565b60408051601f1981840301815290829052611d509161480c565b60405180910390a1600080516020614c678339815191528133604051602001611d9092919091825260601b6001600160601b031916602082015260340190565b60408051601f1981840301815290829052611daa9161484c565b60405180910390a160408051898152602081018390526001600160a01b038b169133917ff5681f9d0db1b911ac18ee83d515a1cf1051853a9eae418316a2fdf7dea427c5910160405180910390a350505050505050610fbc600160fb55565b6001600160a01b037f0000000000000000000000000000000000000000000000000000000000000000163003611e515760405162461bcd60e51b81526004016109ee906145af565b7f00000000000000000000000000000000000000000000000000000000000000006001600160a01b0316611e9a600080516020614c20833981519152546001600160a01b031690565b6001600160a01b031614611ec05760405162461bcd60e51b81526004016109ee906145fb565b611ec982612c8c565b610fbc82826001612c94565b6000306001600160a01b037f00000000000000000000000000000000000000000000000000000000000000001614611f755760405162461bcd60e51b815260206004820152603860248201527f555550535570677261646561626c653a206d757374206e6f742062652063616c60448201527f6c6564207468726f7567682064656c656761746563616c6c000000000000000060648201526084016109ee565b50600080516020614c2083398151915290565b6000818152606760205260408120546001600160a01b0316806108bb5760405162461bcd60e51b8152602060048201526018602482015277115490cdcc8c4e881a5b9d985b1a59081d1bdad95b88125160421b60448201526064016109ee565b60006001600160a01b0382166120525760405162461bcd60e51b815260206004820152602960248201527f4552433732313a2061646472657373207a65726f206973206e6f7420612076616044820152683634b21037bbb732b960b91b60648201526084016109ee565b506001600160a01b031660009081526068602052604090205490565b612076612fc2565b612080600061301c565b565b60008061208e83611f88565b6001600160a01b0316036120e45760405162461bcd60e51b815260206004820152601760248201527f506f736974696f6e20646f6573206e6f7420657869737400000000000000000060448201526064016109ee565b600082815261019860209081526040808320815160a08101835281546001600160a01b031681526001820154938101939093526002810154918301829052600381015460608401526004015460ff16151560808301529091906121479042614447565b61019654835160405163c4f9870b60e01b81526001600160a01b03918216600482015292935060009291169063c4f9870b90602401602060405180830381865afa158015612199573d6000803e3d6000fd5b505050506040513d601f19601f820116820180604052508101906121bd91906146cb565b905063bbf81e00828285602001516121d59190614576565b6121df9190614576565b6121e9919061458d565b95945050505050565b600091825260c9602090815260408084206001600160a01b0393909316845291905290205460ff1690565b6060606680546108d090614383565b610fbc33838361306e565b612241338361285a565b61225d5760405162461bcd60e51b81526004016109ee906143bd565b61226984848484613134565b50505050565b606061227a8261278d565b600061229160408051602081019091526000815290565b905060008151116122b157604051806020016040528060008152506122dc565b806122bb84613167565b6040516020016122cc929190614880565b6040516020818303038152906040525b9392505050565b600054610100900460ff16158080156123035750600054600160ff909116105b8061231d5750303b15801561231d575060005460ff166001145b6123395760405162461bcd60e51b81526004016109ee906148af565b6000805460ff19166001179055801561235c576000805461ff0019166101001790555b61236a8787878787876131fa565b6000879050806001600160a01b0316635d12928b6040518163ffffffff1660e01b81526004016020604051808303816000875af19250505080156123cb575060408051601f3d908101601f191682019092526123c8918101906148fd565b60015b6123e05761019b805461ff00191690556123f2565b5061019b805461ff0019166101001790555b50801561243a576000805461ff0019169055604051600181527f7f26b83ff96e1f2b6a682f133852f6798a09c465da95921460cefb3847402498906020015b60405180910390a15b50505050505050565b600082815260c9602052604090206001015461245e81612b95565b610a8f8383612c25565b3361247282611f88565b6001600160a01b0316146124985760405162461bcd60e51b81526004016109ee9061440a565b60008181526101986020908152604091829020825160a08101845281546001600160a01b031680825260018301549382018490526002830154948201949094526003820154606082015260049091015460ff1615156080820152916124fe913390612b2b565b60208082015182516001600160a01b031660009081526101999092526040822080549192909161252f908490614447565b9091555061253e905082612a96565b60008281526101986020908152604080832080546001600160a01b0319168155600181018490556002810184905560038101939093556004909201805460ff1916905582518382015183519081529182018590526001600160a01b03169133917f91fb9d98b786c57d74c099ccd2beca1739e9f6a81fb49001ca465c4b7591bbe2910160405180910390a35050565b6125d5612fc2565b6001600160a01b03811661263a5760405162461bcd60e51b815260206004820152602660248201527f4f776e61626c653a206e6577206f776e657220697320746865207a65726f206160448201526564647265737360d01b60648201526084016109ee565b610c4d8161301c565b3361264d82611f88565b6001600160a01b0316146126735760405162461bcd60e51b81526004016109ee9061440a565b6000818152610198602052604081208054600182015491926001600160a01b0390911691906126a0610c75565b80519091506000906064906126b59085614576565b6126bf919061458d565b6001860181905542600287015560408051858152602081018990529192506001600160a01b0386169133917f91fb9d98b786c57d74c099ccd2beca1739e9f6a81fb49001ca465c4b7591bbe2910160405180910390a36101925460408051838152602081018990526001600160a01b039092169133917ff5681f9d0db1b911ac18ee83d515a1cf1051853a9eae418316a2fdf7dea427c5910160405180910390a3505050505050565b60006001600160e01b03198216637965db0b60e01b14806108bb57506108bb826135df565b6000818152606760205260409020546001600160a01b0316610c4d5760405162461bcd60e51b8152602060048201526018602482015277115490cdcc8c4e881a5b9d985b1a59081d1bdad95b88125160421b60448201526064016109ee565b600081815260696020526040902080546001600160a01b0319166001600160a01b038416908117909155819061282182611f88565b6001600160a01b03167f8c5be1e5ebec7d5bd14f71427d1e84f3dd0314c0f7b2291e5b200ac8c7c3b92560405160405180910390a45050565b60008061286683611f88565b9050806001600160a01b0316846001600160a01b031614806128ad57506001600160a01b038082166000908152606a602090815260408083209388168352929052205460ff165b806128d15750836001600160a01b03166128c684610953565b6001600160a01b0316145b949350505050565b826001600160a01b03166128ec82611f88565b6001600160a01b0316146129125760405162461bcd60e51b81526004016109ee9061491a565b6001600160a01b0382166129745760405162461bcd60e51b8152602060048201526024808201527f4552433732313a207472616e7366657220746f20746865207a65726f206164646044820152637265737360e01b60648201526084016109ee565b826001600160a01b031661298782611f88565b6001600160a01b0316146129ad5760405162461bcd60e51b81526004016109ee9061491a565b600081815260696020908152604080832080546001600160a01b03199081169091556001600160a01b0387811680865260688552838620805460001901905590871680865283862080546001019055868652606790945282852080549092168417909155905184937fddf252ad1be2c89b69c2b068fc378daa952ba7f163c4a11628f55a4df523b3ef91a4505050565b600260fb5403612a8f5760405162461bcd60e51b815260206004820152601f60248201527f5265656e7472616e637947756172643a207265656e7472616e742063616c6c0060448201526064016109ee565b600260fb55565b6000612aa182611f88565b9050612aac82611f88565b600083815260696020908152604080832080546001600160a01b03199081169091556001600160a01b0385168085526068845282852080546000190190558785526067909352818420805490911690555192935084927fddf252ad1be2c89b69c2b068fc378daa952ba7f163c4a11628f55a4df523b3ef908390a45050565b6040516001600160a01b038316602482015260448101829052610a8f90849063a9059cbb60e01b906064015b60408051601f198184030181529190526020810180516001600160e01b03166001600160e01b03199093169290921790915261362f565b600160fb55565b610c4d8133613704565b612ba982826121f2565b610fbc57600082815260c9602090815260408083206001600160a01b03851684529091529020805460ff19166001179055612be13390565b6001600160a01b0316816001600160a01b0316837f2f8788117e7eff1d82e926ec794901d17c78024a50270940304540a733656f0d60405160405180910390a45050565b612c2f82826121f2565b15610fbc57600082815260c9602090815260408083206001600160a01b0385168085529252808320805460ff1916905551339285917ff6391f5c32d9c69d2a47ea670b442974b53935d1edc7fd64eb21e047a839171b9190a45050565b610c4d612fc2565b7f4910fdfa16fed3260ed0e7147f7cc6da11a60208b5b9406d12a635614ffd91435460ff1615612cc757610a8f8361375d565b826001600160a01b03166352d1902d6040518163ffffffff1660e01b8152600401602060405180830381865afa925050508015612d21575060408051601f3d908101601f19168201909252612d1e918101906146cb565b60015b612d845760405162461bcd60e51b815260206004820152602e60248201527f45524331393637557067726164653a206e657720696d706c656d656e7461746960448201526d6f6e206973206e6f74205555505360901b60648201526084016109ee565b600080516020614c208339815191528114612df35760405162461bcd60e51b815260206004820152602960248201527f45524331393637557067726164653a20756e737570706f727465642070726f786044820152681a58589b195555525160ba1b60648201526084016109ee565b50610a8f8383836137f9565b6040516001600160a01b03808516602483015283166044820152606481018290526122699085906323b872dd60e01b90608401612b57565b6001600160a01b038216612e8d5760405162461bcd60e51b815260206004820181905260248201527f4552433732313a206d696e7420746f20746865207a65726f206164647265737360448201526064016109ee565b6000818152606760205260409020546001600160a01b031615612ef25760405162461bcd60e51b815260206004820152601c60248201527f4552433732313a20746f6b656e20616c7265616479206d696e7465640000000060448201526064016109ee565b6000818152606760205260409020546001600160a01b031615612f575760405162461bcd60e51b815260206004820152601c60248201527f4552433732313a20746f6b656e20616c7265616479206d696e7465640000000060448201526064016109ee565b6001600160a01b038216600081815260686020908152604080832080546001019055848352606790915280822080546001600160a01b0319168417905551839291907fddf252ad1be2c89b69c2b068fc378daa952ba7f163c4a11628f55a4df523b3ef908290a45050565b6097546001600160a01b031633146120805760405162461bcd60e51b815260206004820181905260248201527f4f776e61626c653a2063616c6c6572206973206e6f7420746865206f776e657260448201526064016109ee565b609780546001600160a01b038381166001600160a01b0319831681179093556040519116919082907f8be0079c531659141344cd1fd0a4f28419497f9722a3daafe3b4186f6b6457e090600090a35050565b816001600160a01b0316836001600160a01b0316036130cf5760405162461bcd60e51b815260206004820152601960248201527f4552433732313a20617070726f766520746f2063616c6c65720000000000000060448201526064016109ee565b6001600160a01b038381166000818152606a6020908152604080832094871680845294825291829020805460ff191686151590811790915591519182527f17307eab39ab6107e8899845ad3d59bd9653f200f220920489ca2b5937696c3191016111b8565b61313f8484846128d9565b61314b8484848461381e565b6122695760405162461bcd60e51b81526004016109ee9061495f565b606060006131748361391f565b600101905060008167ffffffffffffffff81111561319457613194614124565b6040519080825280601f01601f1916602001820160405280156131be576020820181803683370190505b5090508181016020015b600019016f181899199a1a9b1b9c1cb0b131b232b360811b600a86061a8153600a85049450846131c857509392505050565b600054610100900460ff161580801561321a5750600054600160ff909116105b806132345750303b158015613234575060005460ff166001145b6132505760405162461bcd60e51b81526004016109ee906148af565b6000805460ff191660011790558015613273576000805461ff0019166101001790555b6132bf6040518060400160405280600b81526020016a161b595b9d1bd5985d5b1d60aa1b815250604051806040016040528060078152602001661613559055531560ca1b8152506139f7565b6132c7613a28565b6132cf613a57565b6132d7613a7e565b6132df613a57565b6001610197556001600160a01b03871661333b5760405162461bcd60e51b815260206004820152601760248201527f496e76616c696420666163746f7279206164647265737300000000000000000060448201526064016109ee565b6001600160a01b0386166133885760405162461bcd60e51b8152602060048201526014602482015273496e76616c69642063555344206164647265737360601b60448201526064016109ee565b6001600160a01b0385166133d55760405162461bcd60e51b8152602060048201526014602482015273496e76616c69642063455552206164647265737360601b60448201526064016109ee565b6001600160a01b0384166134235760405162461bcd60e51b8152602060048201526015602482015274496e76616c696420635245414c206164647265737360581b60448201526064016109ee565b6001600160a01b03831661346f5760405162461bcd60e51b8152602060048201526013602482015272496e76616c696420444558206164647265737360681b60448201526064016109ee565b6001600160a01b0382166134c55760405162461bcd60e51b815260206004820152601c60248201527f496e76616c6964207969656c64206f7261636c6520616464726573730000000060448201526064016109ee565b61019180546001600160a01b03199081166001600160a01b038a811691909117909255610192805482168984161790556101938054821688841617905561019480548216878416179055610195805482168684161790556101968054909116918416919091179055613538600033612b9f565b6135627f7edcee67725a77bfa311b39349d7e96df9b23fbdbdcb328dfc17d77926920c1333612b9f565b61019b805460ff19166001179055604051309033907f3a72e8ae02f203cb5415fd3bfacaad88fa2923e8b6210e8c033253cea65b605b90600090a3801561243a576000805461ff0019169055604051600181527f7f26b83ff96e1f2b6a682f133852f6798a09c465da95921460cefb384740249890602001612431565b60006001600160e01b031982166380ac58cd60e01b148061361057506001600160e01b03198216635b5e139f60e01b145b806108bb57506301ffc9a760e01b6001600160e01b03198316146108bb565b6000613684826040518060400160405280602081526020017f5361666545524332303a206c6f772d6c6576656c2063616c6c206661696c6564815250856001600160a01b0316613aad9092919063ffffffff16565b90508051600014806136a55750808060200190518101906136a591906149b1565b610a8f5760405162461bcd60e51b815260206004820152602a60248201527f5361666545524332303a204552433230206f7065726174696f6e20646964206e6044820152691bdd081cdd58d8d9595960b21b60648201526084016109ee565b61370e82826121f2565b610fbc5761371b81613abc565b613726836020613ace565b6040516020016137379291906149ce565b60408051601f198184030181529082905262461bcd60e51b82526109ee91600401613ff8565b6001600160a01b0381163b6137ca5760405162461bcd60e51b815260206004820152602d60248201527f455243313936373a206e657720696d706c656d656e746174696f6e206973206e60448201526c1bdd08184818dbdb9d1c9858dd609a1b60648201526084016109ee565b600080516020614c2083398151915280546001600160a01b0319166001600160a01b0392909216919091179055565b61380283613c6a565b60008251118061380f5750805b15610a8f576122698383613caa565b60006001600160a01b0384163b1561391457604051630a85bd0160e11b81526001600160a01b0385169063150b7a0290613862903390899088908890600401614a43565b6020604051808303816000875af192505050801561389d575060408051601f3d908101601f1916820190925261389a91810190614a76565b60015b6138fa573d8080156138cb576040519150601f19603f3d011682016040523d82523d6000602084013e6138d0565b606091505b5080516000036138f25760405162461bcd60e51b81526004016109ee9061495f565b805181602001fd5b6001600160e01b031916630a85bd0160e11b1490506128d1565b506001949350505050565b60008072184f03e93ff9f4daa797ed6e38ed64bf6a1f0160401b831061395e5772184f03e93ff9f4daa797ed6e38ed64bf6a1f0160401b830492506040015b6d04ee2d6d415b85acef8100000000831061398a576d04ee2d6d415b85acef8100000000830492506020015b662386f26fc1000083106139a857662386f26fc10000830492506010015b6305f5e10083106139c0576305f5e100830492506008015b61271083106139d457612710830492506004015b606483106139e6576064830492506002015b600a83106108bb5760010192915050565b600054610100900460ff16613a1e5760405162461bcd60e51b81526004016109ee90614a93565b610fbc8282613ccf565b600054610100900460ff16613a4f5760405162461bcd60e51b81526004016109ee90614a93565b612080613d0f565b600054610100900460ff166120805760405162461bcd60e51b81526004016109ee90614a93565b600054610100900460ff16613aa55760405162461bcd60e51b81526004016109ee90614a93565b612080613d3f565b60606128d18484600085613d66565b60606108bb6001600160a01b03831660145b60606000613add836002614576565b613ae8906002614563565b67ffffffffffffffff811115613b0057613b00614124565b6040519080825280601f01601f191660200182016040528015613b2a576020820181803683370190505b509050600360fc1b81600081518110613b4557613b4561445a565b60200101906001600160f81b031916908160001a905350600f60fb1b81600181518110613b7457613b7461445a565b60200101906001600160f81b031916908160001a9053506000613b98846002614576565b613ba3906001614563565b90505b6001811115613c1b576f181899199a1a9b1b9c1cb0b131b232b360811b85600f1660108110613bd757613bd761445a565b1a60f81b828281518110613bed57613bed61445a565b60200101906001600160f81b031916908160001a90535060049490941c93613c1481614ade565b9050613ba6565b5083156122dc5760405162461bcd60e51b815260206004820181905260248201527f537472696e67733a20686578206c656e67746820696e73756666696369656e7460448201526064016109ee565b613c738161375d565b6040516001600160a01b038216907fbc7cd75a20ee27fd9adebab32041f755214dbc6bffa90cc0225b39da2e5c2d3b90600090a250565b60606122dc8383604051806060016040528060278152602001614c4060279139613e41565b600054610100900460ff16613cf65760405162461bcd60e51b81526004016109ee90614a93565b6065613d028382614b43565b506066610a8f8282614b43565b600054610100900460ff16613d365760405162461bcd60e51b81526004016109ee90614a93565b6120803361301c565b600054610100900460ff16612b8e5760405162461bcd60e51b81526004016109ee90614a93565b606082471015613dc75760405162461bcd60e51b815260206004820152602660248201527f416464726573733a20696e73756666696369656e742062616c616e636520666f6044820152651c8818d85b1b60d21b60648201526084016109ee565b600080866001600160a01b03168587604051613de39190614c03565b60006040518083038185875af1925050503d8060008114613e20576040519150601f19603f3d011682016040523d82523d6000602084013e613e25565b606091505b5091509150613e3687838387613eb9565b979650505050505050565b6060600080856001600160a01b031685604051613e5e9190614c03565b600060405180830381855af49150503d8060008114613e99576040519150601f19603f3d011682016040523d82523d6000602084013e613e9e565b606091505b5091509150613eaf86838387613eb9565b9695505050505050565b60608315613f28578251600003613f21576001600160a01b0385163b613f215760405162461bcd60e51b815260206004820152601d60248201527f416464726573733a2063616c6c20746f206e6f6e2d636f6e747261637400000060448201526064016109ee565b50816128d1565b6128d18383815115613f3d5781518083602001fd5b8060405162461bcd60e51b81526004016109ee9190613ff8565b60405180606001604052806003906020820280368337509192915050565b6001600160e01b031981168114610c4d57600080fd5b600060208284031215613f9d57600080fd5b81356122dc81613f75565b60005b83811015613fc3578181015183820152602001613fab565b50506000910152565b60008151808452613fe4816020860160208601613fa8565b601f01601f19169290920160200192915050565b6020815260006122dc6020830184613fcc565b60006020828403121561401d57600080fd5b5035919050565b6001600160a01b0381168114610c4d57600080fd5b6000806040838503121561404c57600080fd5b823561405781614024565b946020939093013593505050565b60008060006060848603121561407a57600080fd5b833561408581614024565b9250602084013561409581614024565b929592945050506040919091013590565b600080604083850312156140b957600080fd5b8235915060208301356140cb81614024565b809150509250929050565b60608101818360005b60038110156140fe5781518352602092830192909101906001016140df565b50505092915050565b60006020828403121561411957600080fd5b81356122dc81614024565b634e487b7160e01b600052604160045260246000fd5b604051601f8201601f1916810167ffffffffffffffff8111828210171561416357614163614124565b604052919050565b600082601f83011261417c57600080fd5b813567ffffffffffffffff81111561419657614196614124565b6141a9601f8201601f191660200161413a565b8181528460208386010111156141be57600080fd5b816020850160208301376000918101602001919091529392505050565b600080604083850312156141ee57600080fd5b82356141f981614024565b9150602083013567ffffffffffffffff81111561421557600080fd5b6142218582860161416b565b9150509250929050565b8015158114610c4d57600080fd5b6000806040838503121561424c57600080fd5b823561425781614024565b915060208301356140cb8161422b565b6000806000806080858703121561427d57600080fd5b843561428881614024565b9350602085013561429881614024565b925060408501359150606085013567ffffffffffffffff8111156142bb57600080fd5b6142c78782880161416b565b91505092959194509250565b60008060008060008060c087890312156142ec57600080fd5b86356142f781614024565b9550602087013561430781614024565b9450604087013561431781614024565b9350606087013561432781614024565b9250608087013561433781614024565b915060a087013561434781614024565b809150509295509295509295565b6000806040838503121561436857600080fd5b823561437381614024565b915060208301356140cb81614024565b600181811c9082168061439757607f821691505b6020821081036143b757634e487b7160e01b600052602260045260246000fd5b50919050565b6020808252602d908201527f4552433732313a2063616c6c6572206973206e6f7420746f6b656e206f776e6560408201526c1c881bdc88185c1c1c9bdd9959609a1b606082015260800190565b6020808252600d908201526c2737ba1027232a1037bbb732b960991b604082015260600190565b634e487b7160e01b600052601160045260246000fd5b818103818111156108bb576108bb614431565b634e487b7160e01b600052603260045260246000fd5b6020808252825182820181905260009190848201906040850190845b818110156144b15783516001600160a01b03168352928401929184019160010161448c565b50909695505050505050565b600060208083850312156144d057600080fd5b825167ffffffffffffffff808211156144e857600080fd5b818501915085601f8301126144fc57600080fd5b81518181111561450e5761450e614124565b8060051b915061451f84830161413a565b818152918301840191848101908884111561453957600080fd5b938501935b838510156145575784518252938501939085019061453e565b98975050505050505050565b808201808211156108bb576108bb614431565b80820281158282048414176108bb576108bb614431565b6000826145aa57634e487b7160e01b600052601260045260246000fd5b500490565b6020808252602c908201527f46756e6374696f6e206d7573742062652063616c6c6564207468726f7567682060408201526b19195b1959d85d1958d85b1b60a21b606082015260800190565b6020808252602c908201527f46756e6374696f6e206d7573742062652063616c6c6564207468726f7567682060408201526b6163746976652070726f787960a01b606082015260800190565b6040815260136040820152720c4b8814dd185c9d1a5b99c819195c1bdcda5d606a1b60608201526080602082015260006122dc6080830184613fcc565b60408152601960408201527f322e20436865636b696e6720746f6b656e20737570706f72740000000000000060608201526080602082015260006122dc6080830184613fcc565b6000602082840312156146dd57600080fd5b5051919050565b60408152601a60408201527f352e2042616c616e6365206265666f7265207472616e7366657200000000000060608201526080602082015260006122dc6080830184613fcc565b60408152601d60408201527f372e20557365722062616c616e636520616e6420616c6c6f77616e636500000060608201526080602082015260006122dc6080830184613fcc565b60408152601a60408201527f31312e2042616c616e6365206166746572207472616e7366657200000000000060608201526080602082015260006122dc6080830184613fcc565b6000600182016147cb576147cb614431565b5060010190565b60408152601060408201526f141bdcda5d1a5bdb8818dc99585d195960821b60608201526080602082015260006122dc6080830184613fcc565b604081526016604082015275151bdd185b0819195c1bdcda5d1cc81d5c19185d195960521b60608201526080602082015260006122dc6080830184613fcc565b60408152600a604082015269139195081b5a5b9d195960b21b60608201526080602082015260006122dc6080830184613fcc565b60008351614892818460208801613fa8565b8351908301906148a6818360208801613fa8565b01949350505050565b6020808252602e908201527f496e697469616c697a61626c653a20636f6e747261637420697320616c72656160408201526d191e481a5b9a5d1a585b1a5e995960921b606082015260800190565b60006020828403121561490f57600080fd5b81516122dc81614024565b60208082526025908201527f4552433732313a207472616e736665722066726f6d20696e636f72726563742060408201526437bbb732b960d91b606082015260800190565b60208082526032908201527f4552433732313a207472616e7366657220746f206e6f6e20455243373231526560408201527131b2b4bb32b91034b6b83632b6b2b73a32b960711b606082015260800190565b6000602082840312156149c357600080fd5b81516122dc8161422b565b7f416363657373436f6e74726f6c3a206163636f756e7420000000000000000000815260008351614a06816017850160208801613fa8565b7001034b99036b4b9b9b4b733903937b6329607d1b6017918401918201528351614a37816028840160208801613fa8565b01602801949350505050565b6001600160a01b0385811682528416602082015260408101839052608060608201819052600090613eaf90830184613fcc565b600060208284031215614a8857600080fd5b81516122dc81613f75565b6020808252602b908201527f496e697469616c697a61626c653a20636f6e7472616374206973206e6f74206960408201526a6e697469616c697a696e6760a81b606082015260800190565b600081614aed57614aed614431565b506000190190565b601f821115610a8f57600081815260208120601f850160051c81016020861015614b1c5750805b601f850160051c820191505b81811015614b3b57828155600101614b28565b505050505050565b815167ffffffffffffffff811115614b5d57614b5d614124565b614b7181614b6b8454614383565b84614af5565b602080601f831160018114614ba65760008415614b8e5750858301515b600019600386901b1c1916600185901b178555614b3b565b600085815260208120601f198616915b82811015614bd557888601518255948401946001909101908401614bb6565b5085821015614bf35787850151600019600388901b60f8161c191681555b5050505050600190811b01905550565b60008251614c15818460208701613fa8565b919091019291505056fe360894a13ba1a3210667c828492db98dca3e2076cc3735a920a3ca505d382bbc416464726573733a206c6f772d6c6576656c2064656c65676174652063616c6c206661696c65640c1267f8b6a6608f6166ea98ce91e23fe3bf0d92464854249481dd7d07a5d464a2646970667358221220b88379444b3c1237139e3ba06a5e0a77956f35594d03879ff2cf396e4d51818464736f6c63430008140033a26469706673582212205f85e625950340a8ef326635b4502152544868b2688c7b503f50a3e487288bda64736f6c63430008140033",
  "linkReferences": {},
  "deployedLinkReferences": {}
}