{
  "_format": "hh-sol-artifact-1",
  "contractName": "XmentoVaultFactoryReentrancyTest",
  "sourceName": "contracts/ReentrancyTest.sol",
  "abi": [
    {
      "inputs": [
        {
          "internalType": "address",
          "name": "_factory",
          "type": "address"
        }
      ],
      "stateMutability": "nonpayable",
      "type": "constructor"
    },
    {
      "inputs": [],
      "name": "factory",
      "outputs": [
        {
          "internalType": "contract XmentoVaultFactory",
          "name": "",
          "type": "address"
        }
      ],
      "stateMutability": "view",
      "type": "function"
    },
    {
      "inputs": [],
      "name": "maliciousVault",
      "outputs": [
        {
          "internalType": "contract MaliciousVault",
          "name": "",
          "type": "address"
        }
      ],
      "stateMutability": "view",
      "type": "function"
    },
    {
      "inputs": [],
      "name": "testReentrancy",
      "outputs": [
        {
          "internalType": "bool",
          "name": "",
          "type": "bool"
        }
      ],
      "stateMutability": "nonpayable",
      "type": "function"
    }
  ],
  "bytecode": "0x608060405234801561001057600080fd5b506040516143bd3803806143bd83398101604081905261002f91610054565b600080546001600160a01b0319166001600160a01b0392909216919091179055610084565b60006020828403121561006657600080fd5b81516001600160a01b038116811461007d57600080fd5b9392505050565b61432a806100936000396000f3fe608060405234801561001057600080fd5b50600436106100415760003560e01c80635bfb393314610046578063c45a015514610076578063f4006b8614610089575b600080fd5b600154610059906001600160a01b031681565b6040516001600160a01b0390911681526020015b60405180910390f35b600054610059906001600160a01b031681565b6100916100a1565b604051901515815260200161006d565b60006040516100af90610239565b604051809103906000f0801580156100cb573d6000803e3d6000fd5b50600180546001600160a01b0319166001600160a01b039283169081179091556000546040516353e78b6b60e01b81526004810192909252909116906353e78b6b90602401600060405180830381600087803b15801561012a57600080fd5b505af115801561013e573d6000803e3d6000fd5b5050505060008054906101000a90046001600160a01b03166001600160a01b0316635d12928b6040518163ffffffff1660e01b81526004016020604051808303816000875af19250505080156101b1575060408051601f3d908101601f191682019092526101ae91810190610246565b60015b6101bb5750600190565b50600160009054906101000a90046001600160a01b03166001600160a01b0316633f09775e6040518163ffffffff1660e01b8152600401602060405180830381865afa15801561020f573d6000803e3d6000fd5b505050506040513d601f19601f820116820180604052508101906102339190610276565b15905090565b61405c8061029983390190565b60006020828403121561025857600080fd5b81516001600160a01b038116811461026f57600080fd5b9392505050565b60006020828403121561028857600080fd5b8151801515811461026f57600080fdfe60a06040523060805261019b805462ff00001916620100001790553480156200002757600080fd5b506200003262000038565b620000f9565b600054610100900460ff1615620000a55760405162461bcd60e51b815260206004820152602760248201527f496e697469616c697a61626c653a20636f6e747261637420697320696e697469604482015266616c697a696e6760c81b606482015260840160405180910390fd5b60005460ff90811614620000f7576000805460ff191660ff9081179091556040519081527f7f26b83ff96e1f2b6a682f133852f6798a09c465da95921460cefb38474024989060200160405180910390a15b565b608051613f2b6200013160003960008181610fca0152818161100a015281816114c50152818161150501526115940152613f2b6000f3fe6080604052600436106102675760003560e01c806375794a3c11610144578063b88d4fde116100b6578063d547741f1161007a578063d547741f146107b9578063db006a75146107d9578063e9403256146107f9578063e985e9c514610827578063f2fde38b14610870578063f49930181461089057600080fd5b8063b88d4fde14610717578063c45a015514610737578063c87b56dd14610758578063cc2a9a5b14610778578063d47ce0a61461079857600080fd5b806395d89b411161010857806395d89b41146105f257806399fbab8814610607578063a217fddf14610693578063a22cb465146106a8578063a7f0e342146106c8578063b26dd040146106e957600080fd5b806375794a3c1461055c5780637d1f2de71461057357806380a3301b146105945780638da5cb5b146105b457806391d14854146105d257600080fd5b80633659cfe6116101dd5780634f1ef286116101a15780634f1ef286146104be57806352d1902d146104d15780636352211e146104e6578063692058c21461050657806370a0823114610527578063715018a61461054757600080fd5b80633659cfe61461041e5780633f09775e1461043e57806340bd2e231461045e57806342842e0e1461047e57806347e7ef241461049e57600080fd5b806323b872dd1161022f57806323b872dd1461033e578063248a9ca31461035e5780632e1a7d4d1461039c5780632f2ff15d146103bc57806333a7ad76146103dc57806336568abe146103fe57600080fd5b806301ffc9a71461026c57806306fdde03146102a1578063081812fc146102c3578063095ea7b3146102fb5780631fccf6721461031d575b600080fd5b34801561027857600080fd5b5061028c61028736600461343a565b6108b0565b60405190151581526020015b60405180910390f35b3480156102ad57600080fd5b506102b66108c1565b60405161029891906134a7565b3480156102cf57600080fd5b506102e36102de3660046134ba565b610953565b6040516001600160a01b039091168152602001610298565b34801561030757600080fd5b5061031b6103163660046134e8565b61097a565b005b34801561032957600080fd5b50610192546102e3906001600160a01b031681565b34801561034a57600080fd5b5061031b610359366004613514565b610a94565b34801561036a57600080fd5b5061038e6103793660046134ba565b600090815260c9602052604090206001015490565b604051908152602001610298565b3480156103a857600080fd5b5061031b6103b73660046134ba565b610ac5565b3480156103c857600080fd5b5061031b6103d7366004613555565b610c50565b3480156103e857600080fd5b506103f1610c75565b6040516102989190613585565b34801561040a57600080fd5b5061031b610419366004613555565b610f42565b34801561042a57600080fd5b5061031b6104393660046135b6565b610fc0565b34801561044a57600080fd5b5061019b5461028c90610100900460ff1681565b34801561046a57600080fd5b5061031b6104793660046134ba565b61109c565b34801561048a57600080fd5b5061031b610499366004613514565b6111c5565b3480156104aa57600080fd5b5061031b6104b93660046134e8565b6111e0565b61031b6104cc36600461368a565b6114bb565b3480156104dd57600080fd5b5061038e611587565b3480156104f257600080fd5b506102e36105013660046134ba565b61163a565b34801561051257600080fd5b50610195546102e3906001600160a01b031681565b34801561053357600080fd5b5061038e6105423660046135b6565b61169a565b34801561055357600080fd5b5061031b611720565b34801561056857600080fd5b5061038e6101975481565b34801561057f57600080fd5b50610193546102e3906001600160a01b031681565b3480156105a057600080fd5b5061038e6105af3660046134ba565b611734565b3480156105c057600080fd5b506097546001600160a01b03166102e3565b3480156105de57600080fd5b5061028c6105ed366004613555565b6118a4565b3480156105fe57600080fd5b506102b66118cf565b34801561061357600080fd5b5061065f6106223660046134ba565b61019860205260009081526040902080546001820154600283015460038401546004909401546001600160a01b0390931693919290919060ff1685565b604080516001600160a01b03909616865260208601949094529284019190915260608301521515608082015260a001610298565b34801561069f57600080fd5b5061038e600081565b3480156106b457600080fd5b5061031b6106c33660046136e8565b6118de565b3480156106d457600080fd5b50610196546102e3906001600160a01b031681565b3480156106f557600080fd5b5061038e6107043660046135b6565b61019a6020526000908152604090205481565b34801561072357600080fd5b5061031b610732366004613716565b6118e9565b34801561074357600080fd5b50610191546102e3906001600160a01b031681565b34801561076457600080fd5b506102b66107733660046134ba565b611921565b34801561078457600080fd5b5061031b610793366004613782565b611995565b3480156107a457600080fd5b50610194546102e3906001600160a01b031681565b3480156107c557600080fd5b5061031b6107d4366004613555565b611a7d565b3480156107e557600080fd5b5061031b6107f43660046134ba565b611aa2565b34801561080557600080fd5b5061038e6108143660046135b6565b6101996020526000908152604090205481565b34801561083357600080fd5b5061028c610842366004613804565b6001600160a01b039182166000908152606a6020908152604080832093909416825291909152205460ff1690565b34801561087c57600080fd5b5061031b61088b3660046135b6565b611c07565b34801561089c57600080fd5b5061031b6108ab3660046134ba565b611c7d565b60006108bb82611da2565b92915050565b6060606580546108d090613832565b80601f01602080910402602001604051908101604052809291908181526020018280546108fc90613832565b80156109495780601f1061091e57610100808354040283529160200191610949565b820191906000526020600020905b81548152906001019060200180831161092c57829003601f168201915b5050505050905090565b600061095e82611dc7565b506000908152606960205260409020546001600160a01b031690565b60006109858261163a565b9050806001600160a01b0316836001600160a01b0316036109f75760405162461bcd60e51b815260206004820152602160248201527f4552433732313a20617070726f76616c20746f2063757272656e74206f776e656044820152603960f91b60648201526084015b60405180910390fd5b336001600160a01b0382161480610a135750610a138133610842565b610a855760405162461bcd60e51b815260206004820152603d60248201527f4552433732313a20617070726f76652063616c6c6572206973206e6f7420746f60448201527f6b656e206f776e6572206f7220617070726f76656420666f7220616c6c00000060648201526084016109ee565b610a8f8383611e26565b505050565b610a9e3382611e94565b610aba5760405162461bcd60e51b81526004016109ee9061386c565b610a8f838383611f13565b610acd612077565b33610ad78261163a565b6001600160a01b031614610afd5760405162461bcd60e51b81526004016109ee906138b9565b600081815261019860205260409020600481015460ff16610b595760405162461bcd60e51b8152602060048201526016602482015275506f736974696f6e206973206e6f742061637469766560501b60448201526064016109ee565b8054600182015460048301805460ff191690556001600160a01b039091166000818152610199602052604081208054929392839290610b999084906138f6565b90915550610ba89050846120d0565b60008481526101986020526040812080546001600160a01b031916815560018101829055600281018290556003810191909155600401805460ff19169055610bfa6001600160a01b0383163383612165565b60408051828152602081018690526001600160a01b0384169133917f91fb9d98b786c57d74c099ccd2beca1739e9f6a81fb49001ca465c4b7591bbe2910160405180910390a3505050610c4d600160fb55565b50565b600082815260c96020526040902060010154610c6b816121cf565b610a8f83836121d9565b610c7d613406565b604080516003808252608082019092526000916020820160608036833750506101925482519293506001600160a01b031691839150600090610cc157610cc1613909565b6001600160a01b03928316602091820292909201015261019354825191169082906001908110610cf357610cf3613909565b6001600160a01b03928316602091820292909201015261019454825191169082906002908110610d2557610d25613909565b6001600160a01b0392831660209182029290920101526101965460405163379698e960e21b8152600092919091169063de5a63a490610d6890859060040161391f565b600060405180830381865afa158015610d85573d6000803e3d6000fd5b505050506040513d6000823e601f3d908101601f19168201604052610dad919081019061396c565b9050600081600281518110610dc457610dc4613909565b602002602001015182600181518110610ddf57610ddf613909565b602002602001015183600081518110610dfa57610dfa613909565b6020026020010151610e0c9190613a12565b610e169190613a12565b905080600003610e4657604051806060016040528060218152602001602181526020016022815250935050505090565b60405180606001604052808284600081518110610e6557610e65613909565b60200260200101516064610e799190613a25565b610e839190613a3c565b81526020018284600181518110610e9c57610e9c613909565b60200260200101516064610eb09190613a25565b610eba9190613a3c565b81526020018284600181518110610ed357610ed3613909565b60200260200101516064610ee79190613a25565b610ef19190613a3c565b8385600081518110610f0557610f05613909565b60200260200101516064610f199190613a25565b610f239190613a3c565b610f2e9060646138f6565b610f3891906138f6565b9052949350505050565b6001600160a01b0381163314610fb25760405162461bcd60e51b815260206004820152602f60248201527f416363657373436f6e74726f6c3a2063616e206f6e6c792072656e6f756e636560448201526e103937b632b9903337b91039b2b63360891b60648201526084016109ee565b610fbc828261225f565b5050565b6001600160a01b037f00000000000000000000000000000000000000000000000000000000000000001630036110085760405162461bcd60e51b81526004016109ee90613a5e565b7f00000000000000000000000000000000000000000000000000000000000000006001600160a01b0316611051600080516020613eaf833981519152546001600160a01b031690565b6001600160a01b0316146110775760405162461bcd60e51b81526004016109ee90613aaa565b611080816122c6565b60408051600080825260208201909252610c4d918391906122ce565b336110a68261163a565b6001600160a01b0316146110cc5760405162461bcd60e51b81526004016109ee906138b9565b60006110d782611734565b90506000811161111d5760405162461bcd60e51b81526020600482015260116024820152704e6f207969656c6420746f20636c61696d60781b60448201526064016109ee565b60008281526101986020908152604080832042600282015580546001600160a01b0316845261019a909252822080549192849261115b908490613a12565b90915550508054611176906001600160a01b03163384612165565b805460408051848152602081018690526001600160a01b039092169133917fb10c79aa8ce52424b7676b33fe7b45ea2516b75f43f3b5c0c730e52ca8ef36a591015b60405180910390a3505050565b610a8f838383604051806020016040528060008152506118e9565b6111e8612077565b60006111fc6097546001600160a01b031690565b6001600160a01b0316036112525760405162461bcd60e51b815260206004820152601860248201527f436f6e7472616374206e6f7420696e697469616c697a6564000000000000000060448201526064016109ee565b6001600160a01b0382166112b25760405162461bcd60e51b815260206004820152602160248201527f584d563a20546f6b656e20616464726573732063616e6e6f74206265207a65726044820152606f60f81b60648201526084016109ee565b6000811161130d5760405162461bcd60e51b815260206004820152602260248201527f584d563a20416d6f756e74206d7573742062652067726561746572207468616e604482015261020360f41b60648201526084016109ee565b610192546000906001600160a01b038481169116148061133b5750610193546001600160a01b038481169116145b806113545750610194546001600160a01b038481169116145b9050806113a35760405162461bcd60e51b815260206004820152601860248201527f584d563a20546f6b656e206e6f7420737570706f72746564000000000000000060448201526064016109ee565b6113b86001600160a01b038416333085612439565b60408051838152600060208201526001600160a01b0385169133917ff5681f9d0db1b911ac18ee83d515a1cf1051853a9eae418316a2fdf7dea427c5910160405180910390a361019b5462010000900460ff16156114b05761019b805462ff0000191690556101915460408051635d12928b60e01b815290516001600160a01b03909216918291635d12928b91600480830192602092919082900301816000875af1925050508015611487575060408051601f3d908101601f1916820190925261148491810190613af6565b60015b61149c5761019b805461ff00191690556114ae565b5061019b805461ff0019166101001790555b505b50610fbc600160fb55565b6001600160a01b037f00000000000000000000000000000000000000000000000000000000000000001630036115035760405162461bcd60e51b81526004016109ee90613a5e565b7f00000000000000000000000000000000000000000000000000000000000000006001600160a01b031661154c600080516020613eaf833981519152546001600160a01b031690565b6001600160a01b0316146115725760405162461bcd60e51b81526004016109ee90613aaa565b61157b826122c6565b610fbc828260016122ce565b6000306001600160a01b037f000000000000000000000000000000000000000000000000000000000000000016146116275760405162461bcd60e51b815260206004820152603860248201527f555550535570677261646561626c653a206d757374206e6f742062652063616c60448201527f6c6564207468726f7567682064656c656761746563616c6c000000000000000060648201526084016109ee565b50600080516020613eaf83398151915290565b6000818152606760205260408120546001600160a01b0316806108bb5760405162461bcd60e51b8152602060048201526018602482015277115490cdcc8c4e881a5b9d985b1a59081d1bdad95b88125160421b60448201526064016109ee565b60006001600160a01b0382166117045760405162461bcd60e51b815260206004820152602960248201527f4552433732313a2061646472657373207a65726f206973206e6f7420612076616044820152683634b21037bbb732b960b91b60648201526084016109ee565b506001600160a01b031660009081526068602052604090205490565b611728612471565b61173260006124cb565b565b6000806117408361163a565b6001600160a01b0316036117965760405162461bcd60e51b815260206004820152601760248201527f506f736974696f6e20646f6573206e6f7420657869737400000000000000000060448201526064016109ee565b600082815261019860209081526040808320815160a08101835281546001600160a01b031681526001820154938101939093526002810154918301829052600381015460608401526004015460ff16151560808301529091906117f990426138f6565b61019654835160405163c4f9870b60e01b81526001600160a01b03918216600482015292935060009291169063c4f9870b90602401602060405180830381865afa15801561184b573d6000803e3d6000fd5b505050506040513d601f19601f8201168201806040525081019061186f9190613b13565b905063bbf81e00828285602001516118879190613a25565b6118919190613a25565b61189b9190613a3c565b95945050505050565b600091825260c9602090815260408084206001600160a01b0393909316845291905290205460ff1690565b6060606680546108d090613832565b610fbc33838361251d565b6118f33383611e94565b61190f5760405162461bcd60e51b81526004016109ee9061386c565b61191b848484846125e3565b50505050565b606061192c82611dc7565b600061194360408051602081019091526000815290565b90506000815111611963576040518060200160405280600081525061198e565b8061196d84612616565b60405160200161197e929190613b2c565b6040516020818303038152906040525b9392505050565b600054610100900460ff16158080156119b55750600054600160ff909116105b806119cf5750303b1580156119cf575060005460ff166001145b6119eb5760405162461bcd60e51b81526004016109ee90613b5b565b6000805460ff191660011790558015611a0e576000805461ff0019166101001790555b610191546001600160a01b0316611a2d57611a2d8787878787876126a9565b8015611a74576000805461ff0019169055604051600181527f7f26b83ff96e1f2b6a682f133852f6798a09c465da95921460cefb3847402498906020015b60405180910390a15b50505050505050565b600082815260c96020526040902060010154611a98816121cf565b610a8f838361225f565b33611aac8261163a565b6001600160a01b031614611ad25760405162461bcd60e51b81526004016109ee906138b9565b60008181526101986020908152604091829020825160a08101845281546001600160a01b031680825260018301549382018490526002830154948201949094526003820154606082015260049091015460ff161515608082015291611b38913390612165565b60208082015182516001600160a01b0316600090815261019990925260408220805491929091611b699084906138f6565b90915550611b789050826120d0565b60008281526101986020908152604080832080546001600160a01b0319168155600181018490556002810184905560038101939093556004909201805460ff1916905582518382015183519081529182018590526001600160a01b03169133917f91fb9d98b786c57d74c099ccd2beca1739e9f6a81fb49001ca465c4b7591bbe2910160405180910390a35050565b611c0f612471565b6001600160a01b038116611c745760405162461bcd60e51b815260206004820152602660248201527f4f776e61626c653a206e6577206f776e657220697320746865207a65726f206160448201526564647265737360d01b60648201526084016109ee565b610c4d816124cb565b33611c878261163a565b6001600160a01b031614611cad5760405162461bcd60e51b81526004016109ee906138b9565b6000818152610198602052604081208054600182015491926001600160a01b039091169190611cda610c75565b8051909150600090606490611cef9085613a25565b611cf99190613a3c565b6001860181905542600287015560408051858152602081018990529192506001600160a01b0386169133917f91fb9d98b786c57d74c099ccd2beca1739e9f6a81fb49001ca465c4b7591bbe2910160405180910390a36101925460408051838152602081018990526001600160a01b039092169133917ff5681f9d0db1b911ac18ee83d515a1cf1051853a9eae418316a2fdf7dea427c5910160405180910390a3505050505050565b60006001600160e01b03198216637965db0b60e01b14806108bb57506108bb82612a8e565b6000818152606760205260409020546001600160a01b0316610c4d5760405162461bcd60e51b8152602060048201526018602482015277115490cdcc8c4e881a5b9d985b1a59081d1bdad95b88125160421b60448201526064016109ee565b600081815260696020526040902080546001600160a01b0319166001600160a01b0384169081179091558190611e5b8261163a565b6001600160a01b03167f8c5be1e5ebec7d5bd14f71427d1e84f3dd0314c0f7b2291e5b200ac8c7c3b92560405160405180910390a45050565b600080611ea08361163a565b9050806001600160a01b0316846001600160a01b03161480611ee757506001600160a01b038082166000908152606a602090815260408083209388168352929052205460ff165b80611f0b5750836001600160a01b0316611f0084610953565b6001600160a01b0316145b949350505050565b826001600160a01b0316611f268261163a565b6001600160a01b031614611f4c5760405162461bcd60e51b81526004016109ee90613ba9565b6001600160a01b038216611fae5760405162461bcd60e51b8152602060048201526024808201527f4552433732313a207472616e7366657220746f20746865207a65726f206164646044820152637265737360e01b60648201526084016109ee565b826001600160a01b0316611fc18261163a565b6001600160a01b031614611fe75760405162461bcd60e51b81526004016109ee90613ba9565b600081815260696020908152604080832080546001600160a01b03199081169091556001600160a01b0387811680865260688552838620805460001901905590871680865283862080546001019055868652606790945282852080549092168417909155905184937fddf252ad1be2c89b69c2b068fc378daa952ba7f163c4a11628f55a4df523b3ef91a4505050565b600260fb54036120c95760405162461bcd60e51b815260206004820152601f60248201527f5265656e7472616e637947756172643a207265656e7472616e742063616c6c0060448201526064016109ee565b600260fb55565b60006120db8261163a565b90506120e68261163a565b600083815260696020908152604080832080546001600160a01b03199081169091556001600160a01b0385168085526068845282852080546000190190558785526067909352818420805490911690555192935084927fddf252ad1be2c89b69c2b068fc378daa952ba7f163c4a11628f55a4df523b3ef908390a45050565b6040516001600160a01b038316602482015260448101829052610a8f90849063a9059cbb60e01b906064015b60408051601f198184030181529190526020810180516001600160e01b03166001600160e01b031990931692909217909152612ade565b600160fb55565b610c4d8133612bb3565b6121e382826118a4565b610fbc57600082815260c9602090815260408083206001600160a01b03851684529091529020805460ff1916600117905561221b3390565b6001600160a01b0316816001600160a01b0316837f2f8788117e7eff1d82e926ec794901d17c78024a50270940304540a733656f0d60405160405180910390a45050565b61226982826118a4565b15610fbc57600082815260c9602090815260408083206001600160a01b0385168085529252808320805460ff1916905551339285917ff6391f5c32d9c69d2a47ea670b442974b53935d1edc7fd64eb21e047a839171b9190a45050565b610c4d612471565b7f4910fdfa16fed3260ed0e7147f7cc6da11a60208b5b9406d12a635614ffd91435460ff161561230157610a8f83612c0c565b826001600160a01b03166352d1902d6040518163ffffffff1660e01b8152600401602060405180830381865afa92505050801561235b575060408051601f3d908101601f1916820190925261235891810190613b13565b60015b6123be5760405162461bcd60e51b815260206004820152602e60248201527f45524331393637557067726164653a206e657720696d706c656d656e7461746960448201526d6f6e206973206e6f74205555505360901b60648201526084016109ee565b600080516020613eaf833981519152811461242d5760405162461bcd60e51b815260206004820152602960248201527f45524331393637557067726164653a20756e737570706f727465642070726f786044820152681a58589b195555525160ba1b60648201526084016109ee565b50610a8f838383612ca8565b6040516001600160a01b038085166024830152831660448201526064810182905261191b9085906323b872dd60e01b90608401612191565b6097546001600160a01b031633146117325760405162461bcd60e51b815260206004820181905260248201527f4f776e61626c653a2063616c6c6572206973206e6f7420746865206f776e657260448201526064016109ee565b609780546001600160a01b038381166001600160a01b0319831681179093556040519116919082907f8be0079c531659141344cd1fd0a4f28419497f9722a3daafe3b4186f6b6457e090600090a35050565b816001600160a01b0316836001600160a01b03160361257e5760405162461bcd60e51b815260206004820152601960248201527f4552433732313a20617070726f766520746f2063616c6c65720000000000000060448201526064016109ee565b6001600160a01b038381166000818152606a6020908152604080832094871680845294825291829020805460ff191686151590811790915591519182527f17307eab39ab6107e8899845ad3d59bd9653f200f220920489ca2b5937696c3191016111b8565b6125ee848484611f13565b6125fa84848484612ccd565b61191b5760405162461bcd60e51b81526004016109ee90613bee565b6060600061262383612dce565b600101905060008167ffffffffffffffff811115612643576126436135d3565b6040519080825280601f01601f19166020018201604052801561266d576020820181803683370190505b5090508181016020015b600019016f181899199a1a9b1b9c1cb0b131b232b360811b600a86061a8153600a850494508461267757509392505050565b600054610100900460ff16158080156126c95750600054600160ff909116105b806126e35750303b1580156126e3575060005460ff166001145b6126ff5760405162461bcd60e51b81526004016109ee90613b5b565b6000805460ff191660011790558015612722576000805461ff0019166101001790555b61276e6040518060400160405280600b81526020016a161b595b9d1bd5985d5b1d60aa1b815250604051806040016040528060078152602001661613559055531560ca1b815250612ea6565b612776612ed7565b61277e612f06565b612786612f2d565b61278e612f06565b6001610197556001600160a01b0387166127ea5760405162461bcd60e51b815260206004820152601760248201527f496e76616c696420666163746f7279206164647265737300000000000000000060448201526064016109ee565b6001600160a01b0386166128375760405162461bcd60e51b8152602060048201526014602482015273496e76616c69642063555344206164647265737360601b60448201526064016109ee565b6001600160a01b0385166128845760405162461bcd60e51b8152602060048201526014602482015273496e76616c69642063455552206164647265737360601b60448201526064016109ee565b6001600160a01b0384166128d25760405162461bcd60e51b8152602060048201526015602482015274496e76616c696420635245414c206164647265737360581b60448201526064016109ee565b6001600160a01b03831661291e5760405162461bcd60e51b8152602060048201526013602482015272496e76616c696420444558206164647265737360681b60448201526064016109ee565b6001600160a01b0382166129745760405162461bcd60e51b815260206004820152601c60248201527f496e76616c6964207969656c64206f7261636c6520616464726573730000000060448201526064016109ee565b61019180546001600160a01b03199081166001600160a01b038a8116919091179092556101928054821689841617905561019380548216888416179055610194805482168784161790556101958054821686841617905561019680549091169184169190911790556129e76000336121d9565b612a117f7edcee67725a77bfa311b39349d7e96df9b23fbdbdcb328dfc17d77926920c13336121d9565b61019b805460ff19166001179055604051309033907f3a72e8ae02f203cb5415fd3bfacaad88fa2923e8b6210e8c033253cea65b605b90600090a38015611a74576000805461ff0019169055604051600181527f7f26b83ff96e1f2b6a682f133852f6798a09c465da95921460cefb384740249890602001611a6b565b60006001600160e01b031982166380ac58cd60e01b1480612abf57506001600160e01b03198216635b5e139f60e01b145b806108bb57506301ffc9a760e01b6001600160e01b03198316146108bb565b6000612b33826040518060400160405280602081526020017f5361666545524332303a206c6f772d6c6576656c2063616c6c206661696c6564815250856001600160a01b0316612f5c9092919063ffffffff16565b9050805160001480612b54575080806020019051810190612b549190613c40565b610a8f5760405162461bcd60e51b815260206004820152602a60248201527f5361666545524332303a204552433230206f7065726174696f6e20646964206e6044820152691bdd081cdd58d8d9595960b21b60648201526084016109ee565b612bbd82826118a4565b610fbc57612bca81612f6b565b612bd5836020612f7d565b604051602001612be6929190613c5d565b60408051601f198184030181529082905262461bcd60e51b82526109ee916004016134a7565b6001600160a01b0381163b612c795760405162461bcd60e51b815260206004820152602d60248201527f455243313936373a206e657720696d706c656d656e746174696f6e206973206e60448201526c1bdd08184818dbdb9d1c9858dd609a1b60648201526084016109ee565b600080516020613eaf83398151915280546001600160a01b0319166001600160a01b0392909216919091179055565b612cb183613119565b600082511180612cbe5750805b15610a8f5761191b8383613159565b60006001600160a01b0384163b15612dc357604051630a85bd0160e11b81526001600160a01b0385169063150b7a0290612d11903390899088908890600401613cd2565b6020604051808303816000875af1925050508015612d4c575060408051601f3d908101601f19168201909252612d4991810190613d05565b60015b612da9573d808015612d7a576040519150601f19603f3d011682016040523d82523d6000602084013e612d7f565b606091505b508051600003612da15760405162461bcd60e51b81526004016109ee90613bee565b805181602001fd5b6001600160e01b031916630a85bd0160e11b149050611f0b565b506001949350505050565b60008072184f03e93ff9f4daa797ed6e38ed64bf6a1f0160401b8310612e0d5772184f03e93ff9f4daa797ed6e38ed64bf6a1f0160401b830492506040015b6d04ee2d6d415b85acef81000000008310612e39576d04ee2d6d415b85acef8100000000830492506020015b662386f26fc100008310612e5757662386f26fc10000830492506010015b6305f5e1008310612e6f576305f5e100830492506008015b6127108310612e8357612710830492506004015b60648310612e95576064830492506002015b600a83106108bb5760010192915050565b600054610100900460ff16612ecd5760405162461bcd60e51b81526004016109ee90613d22565b610fbc828261317e565b600054610100900460ff16612efe5760405162461bcd60e51b81526004016109ee90613d22565b6117326131be565b600054610100900460ff166117325760405162461bcd60e51b81526004016109ee90613d22565b600054610100900460ff16612f545760405162461bcd60e51b81526004016109ee90613d22565b6117326131ee565b6060611f0b8484600085613215565b60606108bb6001600160a01b03831660145b60606000612f8c836002613a25565b612f97906002613a12565b67ffffffffffffffff811115612faf57612faf6135d3565b6040519080825280601f01601f191660200182016040528015612fd9576020820181803683370190505b509050600360fc1b81600081518110612ff457612ff4613909565b60200101906001600160f81b031916908160001a905350600f60fb1b8160018151811061302357613023613909565b60200101906001600160f81b031916908160001a9053506000613047846002613a25565b613052906001613a12565b90505b60018111156130ca576f181899199a1a9b1b9c1cb0b131b232b360811b85600f166010811061308657613086613909565b1a60f81b82828151811061309c5761309c613909565b60200101906001600160f81b031916908160001a90535060049490941c936130c381613d6d565b9050613055565b50831561198e5760405162461bcd60e51b815260206004820181905260248201527f537472696e67733a20686578206c656e67746820696e73756666696369656e7460448201526064016109ee565b61312281612c0c565b6040516001600160a01b038216907fbc7cd75a20ee27fd9adebab32041f755214dbc6bffa90cc0225b39da2e5c2d3b90600090a250565b606061198e8383604051806060016040528060278152602001613ecf602791396132f0565b600054610100900460ff166131a55760405162461bcd60e51b81526004016109ee90613d22565b60656131b18382613dd2565b506066610a8f8282613dd2565b600054610100900460ff166131e55760405162461bcd60e51b81526004016109ee90613d22565b611732336124cb565b600054610100900460ff166121c85760405162461bcd60e51b81526004016109ee90613d22565b6060824710156132765760405162461bcd60e51b815260206004820152602660248201527f416464726573733a20696e73756666696369656e742062616c616e636520666f6044820152651c8818d85b1b60d21b60648201526084016109ee565b600080866001600160a01b031685876040516132929190613e92565b60006040518083038185875af1925050503d80600081146132cf576040519150601f19603f3d011682016040523d82523d6000602084013e6132d4565b606091505b50915091506132e587838387613368565b979650505050505050565b6060600080856001600160a01b03168560405161330d9190613e92565b600060405180830381855af49150503d8060008114613348576040519150601f19603f3d011682016040523d82523d6000602084013e61334d565b606091505b509150915061335e86838387613368565b9695505050505050565b606083156133d75782516000036133d0576001600160a01b0385163b6133d05760405162461bcd60e51b815260206004820152601d60248201527f416464726573733a2063616c6c20746f206e6f6e2d636f6e747261637400000060448201526064016109ee565b5081611f0b565b611f0b83838151156133ec5781518083602001fd5b8060405162461bcd60e51b81526004016109ee91906134a7565b60405180606001604052806003906020820280368337509192915050565b6001600160e01b031981168114610c4d57600080fd5b60006020828403121561344c57600080fd5b813561198e81613424565b60005b8381101561347257818101518382015260200161345a565b50506000910152565b60008151808452613493816020860160208601613457565b601f01601f19169290920160200192915050565b60208152600061198e602083018461347b565b6000602082840312156134cc57600080fd5b5035919050565b6001600160a01b0381168114610c4d57600080fd5b600080604083850312156134fb57600080fd5b8235613506816134d3565b946020939093013593505050565b60008060006060848603121561352957600080fd5b8335613534816134d3565b92506020840135613544816134d3565b929592945050506040919091013590565b6000806040838503121561356857600080fd5b82359150602083013561357a816134d3565b809150509250929050565b60608101818360005b60038110156135ad57815183526020928301929091019060010161358e565b50505092915050565b6000602082840312156135c857600080fd5b813561198e816134d3565b634e487b7160e01b600052604160045260246000fd5b604051601f8201601f1916810167ffffffffffffffff81118282101715613612576136126135d3565b604052919050565b600082601f83011261362b57600080fd5b813567ffffffffffffffff811115613645576136456135d3565b613658601f8201601f19166020016135e9565b81815284602083860101111561366d57600080fd5b816020850160208301376000918101602001919091529392505050565b6000806040838503121561369d57600080fd5b82356136a8816134d3565b9150602083013567ffffffffffffffff8111156136c457600080fd5b6136d08582860161361a565b9150509250929050565b8015158114610c4d57600080fd5b600080604083850312156136fb57600080fd5b8235613706816134d3565b9150602083013561357a816136da565b6000806000806080858703121561372c57600080fd5b8435613737816134d3565b93506020850135613747816134d3565b925060408501359150606085013567ffffffffffffffff81111561376a57600080fd5b6137768782880161361a565b91505092959194509250565b60008060008060008060c0878903121561379b57600080fd5b86356137a6816134d3565b955060208701356137b6816134d3565b945060408701356137c6816134d3565b935060608701356137d6816134d3565b925060808701356137e6816134d3565b915060a08701356137f6816134d3565b809150509295509295509295565b6000806040838503121561381757600080fd5b8235613822816134d3565b9150602083013561357a816134d3565b600181811c9082168061384657607f821691505b60208210810361386657634e487b7160e01b600052602260045260246000fd5b50919050565b6020808252602d908201527f4552433732313a2063616c6c6572206973206e6f7420746f6b656e206f776e6560408201526c1c881bdc88185c1c1c9bdd9959609a1b606082015260800190565b6020808252600d908201526c2737ba1027232a1037bbb732b960991b604082015260600190565b634e487b7160e01b600052601160045260246000fd5b818103818111156108bb576108bb6138e0565b634e487b7160e01b600052603260045260246000fd5b6020808252825182820181905260009190848201906040850190845b818110156139605783516001600160a01b03168352928401929184019160010161393b565b50909695505050505050565b6000602080838503121561397f57600080fd5b825167ffffffffffffffff8082111561399757600080fd5b818501915085601f8301126139ab57600080fd5b8151818111156139bd576139bd6135d3565b8060051b91506139ce8483016135e9565b81815291830184019184810190888411156139e857600080fd5b938501935b83851015613a06578451825293850193908501906139ed565b98975050505050505050565b808201808211156108bb576108bb6138e0565b80820281158282048414176108bb576108bb6138e0565b600082613a5957634e487b7160e01b600052601260045260246000fd5b500490565b6020808252602c908201527f46756e6374696f6e206d7573742062652063616c6c6564207468726f7567682060408201526b19195b1959d85d1958d85b1b60a21b606082015260800190565b6020808252602c908201527f46756e6374696f6e206d7573742062652063616c6c6564207468726f7567682060408201526b6163746976652070726f787960a01b606082015260800190565b600060208284031215613b0857600080fd5b815161198e816134d3565b600060208284031215613b2557600080fd5b5051919050565b60008351613b3e818460208801613457565b835190830190613b52818360208801613457565b01949350505050565b6020808252602e908201527f496e697469616c697a61626c653a20636f6e747261637420697320616c72656160408201526d191e481a5b9a5d1a585b1a5e995960921b606082015260800190565b60208082526025908201527f4552433732313a207472616e736665722066726f6d20696e636f72726563742060408201526437bbb732b960d91b606082015260800190565b60208082526032908201527f4552433732313a207472616e7366657220746f206e6f6e20455243373231526560408201527131b2b4bb32b91034b6b83632b6b2b73a32b960711b606082015260800190565b600060208284031215613c5257600080fd5b815161198e816136da565b7f416363657373436f6e74726f6c3a206163636f756e7420000000000000000000815260008351613c95816017850160208801613457565b7001034b99036b4b9b9b4b733903937b6329607d1b6017918401918201528351613cc6816028840160208801613457565b01602801949350505050565b6001600160a01b038581168252841660208201526040810183905260806060820181905260009061335e9083018461347b565b600060208284031215613d1757600080fd5b815161198e81613424565b6020808252602b908201527f496e697469616c697a61626c653a20636f6e7472616374206973206e6f74206960408201526a6e697469616c697a696e6760a81b606082015260800190565b600081613d7c57613d7c6138e0565b506000190190565b601f821115610a8f57600081815260208120601f850160051c81016020861015613dab5750805b601f850160051c820191505b81811015613dca57828155600101613db7565b505050505050565b815167ffffffffffffffff811115613dec57613dec6135d3565b613e0081613dfa8454613832565b84613d84565b602080601f831160018114613e355760008415613e1d5750858301515b600019600386901b1c1916600185901b178555613dca565b600085815260208120601f198616915b82811015613e6457888601518255948401946001909101908401613e45565b5085821015613e825787850151600019600388901b60f8161c191681555b5050505050600190811b01905550565b60008251613ea4818460208701613457565b919091019291505056fe360894a13ba1a3210667c828492db98dca3e2076cc3735a920a3ca505d382bbc416464726573733a206c6f772d6c6576656c2064656c65676174652063616c6c206661696c6564a26469706673582212207a94aeabab97ce3968b4463b4c58e108420e8fab78f463f0f063c2b4c126126864736f6c63430008140033a2646970667358221220c3e54a85405a94070f51f6d1ec12f0f4cce709e1d2b377454164793c924214e864736f6c63430008140033",
  "linkReferences": {},
  "deployedLinkReferences": {}
}