{
  "_format": "hh-sol-artifact-1",
  "contractName": "ERC20Mock",
  "sourceName": "contracts/ERC20Mock.sol",
  "abi": [
    {
      "inputs": [
        {
          "internalType": "string",
          "name": "_name",
          "type": "string"
        },
        {
          "internalType": "string",
          "name": "_symbol",
          "type": "string"
        }
      ],
      "stateMutability": "nonpayable",
      "type": "constructor"
    },
    {
      "anonymous": false,
      "inputs": [
        {
          "indexed": true,
          "internalType": "address",
          "name": "owner",
          "type": "address"
        },
        {
          "indexed": true,
          "internalType": "address",
          "name": "spender",
          "type": "address"
        },
        {
          "indexed": false,
          "internalType": "uint256",
          "name": "value",
          "type": "uint256"
        }
      ],
      "name": "Approval",
      "type": "event"
    },
    {
      "anonymous": false,
      "inputs": [
        {
          "indexed": true,
          "internalType": "address",
          "name": "from",
          "type": "address"
        },
        {
          "indexed": true,
          "internalType": "address",
          "name": "to",
          "type": "address"
        },
        {
          "indexed": false,
          "internalType": "uint256",
          "name": "value",
          "type": "uint256"
        }
      ],
      "name": "Transfer",
      "type": "event"
    },
    {
      "inputs": [
        {
          "internalType": "address",
          "name": "owner",
          "type": "address"
        },
        {
          "internalType": "address",
          "name": "spender",
          "type": "address"
        }
      ],
      "name": "allowance",
      "outputs": [
        {
          "internalType": "uint256",
          "name": "",
          "type": "uint256"
        }
      ],
      "stateMutability": "view",
      "type": "function"
    },
    {
      "inputs": [
        {
          "internalType": "address",
          "name": "spender",
          "type": "address"
        },
        {
          "internalType": "uint256",
          "name": "amount",
          "type": "uint256"
        }
      ],
      "name": "approve",
      "outputs": [
        {
          "internalType": "bool",
          "name": "",
          "type": "bool"
        }
      ],
      "stateMutability": "nonpayable",
      "type": "function"
    },
    {
      "inputs": [
        {
          "internalType": "address",
          "name": "account",
          "type": "address"
        }
      ],
      "name": "balanceOf",
      "outputs": [
        {
          "internalType": "uint256",
          "name": "",
          "type": "uint256"
        }
      ],
      "stateMutability": "view",
      "type": "function"
    },
    {
      "inputs": [],
      "name": "decimals",
      "outputs": [
        {
          "internalType": "uint8",
          "name": "",
          "type": "uint8"
        }
      ],
      "stateMutability": "view",
      "type": "function"
    },
    {
      "inputs": [
        {
          "internalType": "address",
          "name": "spender",
          "type": "address"
        },
        {
          "internalType": "uint256",
          "name": "subtractedValue",
          "type": "uint256"
        }
      ],
      "name": "decreaseAllowance",
      "outputs": [
        {
          "internalType": "bool",
          "name": "",
          "type": "bool"
        }
      ],
      "stateMutability": "nonpayable",
      "type": "function"
    },
    {
      "inputs": [
        {
          "internalType": "address",
          "name": "spender",
          "type": "address"
        },
        {
          "internalType": "uint256",
          "name": "addedValue",
          "type": "uint256"
        }
      ],
      "name": "increaseAllowance",
      "outputs": [
        {
          "internalType": "bool",
          "name": "",
          "type": "bool"
        }
      ],
      "stateMutability": "nonpayable",
      "type": "function"
    },
    {
      "inputs": [
        {
          "internalType": "address",
          "name": "account",
          "type": "address"
        },
        {
          "internalType": "uint256",
          "name": "amount",
          "type": "uint256"
        }
      ],
      "name": "mint",
      "outputs": [],
      "stateMutability": "nonpayable",
      "type": "function"
    },
    {
      "inputs": [],
      "name": "name",
      "outputs": [
        {
          "internalType": "string",
          "name": "",
          "type": "string"
        }
      ],
      "stateMutability": "view",
      "type": "function"
    },
    {
      "inputs": [],
      "name": "symbol",
      "outputs": [
        {
          "internalType": "string",
          "name": "",
          "type": "string"
        }
      ],
      "stateMutability": "view",
      "type": "function"
    },
    {
      "inputs": [],
      "name": "totalSupply",
      "outputs": [
        {
          "internalType": "uint256",
          "name": "",
          "type": "uint256"
        }
      ],
      "stateMutability": "view",
      "type": "function"
    },
    {
      "inputs": [
        {
          "internalType": "address",
          "name": "to",
          "type": "address"
        },
        {
          "internalType": "uint256",
          "name": "amount",
          "type": "uint256"
        }
      ],
      "name": "transfer",
      "outputs": [
        {
          "internalType": "bool",
          "name": "",
          "type": "bool"
        }
      ],
      "stateMutability": "nonpayable",
      "type": "function"
    },
    {
      "inputs": [
        {
          "internalType": "address",
          "name": "from",
          "type": "address"
        },
        {
          "internalType": "address",
          "name": "to",
          "type": "address"
        },
        {
          "internalType": "uint256",
          "name": "amount",
          "type": "uint256"
        }
      ],
      "name": "transferFrom",
      "outputs": [
        {
          "internalType": "bool",
          "name": "",
          "type": "bool"
        }
      ],
      "stateMutability": "nonpayable",
      "type": "function"
    }
  ],
  "bytecode": "0x60806040523480156200001157600080fd5b5060405162000f1b38038062000f1b833981016040819052620000349162000240565b600062000042838262000339565b50600162000051828262000339565b506002805460ff191660129081179091556200008b9033906200007690600a6200051a565b6200008590620f42406200052f565b62000093565b50506200055f565b6001600160a01b038216620000ee5760405162461bcd60e51b815260206004820152601f60248201527f45524332303a206d696e7420746f20746865207a65726f206164647265737300604482015260640160405180910390fd5b806005600082825462000102919062000549565b90915550506001600160a01b038216600090815260036020526040812080548392906200013190849062000549565b90915550506040518181526001600160a01b038316906000907fddf252ad1be2c89b69c2b068fc378daa952ba7f163c4a11628f55a4df523b3ef9060200160405180910390a35050565b634e487b7160e01b600052604160045260246000fd5b600082601f830112620001a357600080fd5b81516001600160401b0380821115620001c057620001c06200017b565b604051601f8301601f19908116603f01168101908282118183101715620001eb57620001eb6200017b565b816040528381526020925086838588010111156200020857600080fd5b600091505b838210156200022c57858201830151818301840152908201906200020d565b600093810190920192909252949350505050565b600080604083850312156200025457600080fd5b82516001600160401b03808211156200026c57600080fd5b6200027a8683870162000191565b935060208501519150808211156200029157600080fd5b50620002a08582860162000191565b9150509250929050565b600181811c90821680620002bf57607f821691505b602082108103620002e057634e487b7160e01b600052602260045260246000fd5b50919050565b601f8211156200033457600081815260208120601f850160051c810160208610156200030f5750805b601f850160051c820191505b8181101562000330578281556001016200031b565b5050505b505050565b81516001600160401b038111156200035557620003556200017b565b6200036d81620003668454620002aa565b84620002e6565b602080601f831160018114620003a557600084156200038c5750858301515b600019600386901b1c1916600185901b17855562000330565b600085815260208120601f198616915b82811015620003d657888601518255948401946001909101908401620003b5565b5085821015620003f55787850151600019600388901b60f8161c191681555b5050505050600190811b01905550565b634e487b7160e01b600052601160045260246000fd5b600181815b808511156200045c57816000190482111562000440576200044062000405565b808516156200044e57918102915b93841c939080029062000420565b509250929050565b600082620004755750600162000514565b81620004845750600062000514565b81600181146200049d5760028114620004a857620004c8565b600191505062000514565b60ff841115620004bc57620004bc62000405565b50506001821b62000514565b5060208310610133831016604e8410600b8410161715620004ed575081810a62000514565b620004f983836200041b565b806000190482111562000510576200051062000405565b0290505b92915050565b600062000528838362000464565b9392505050565b808202811582820484141762000514576200051462000405565b8082018082111562000514576200051462000405565b6109ac806200056f6000396000f3fe608060405234801561001057600080fd5b50600436106100b45760003560e01c806340c10f191161007157806340c10f191461015157806370a082311461016657806395d89b411461018f578063a457c2d714610197578063a9059cbb146101aa578063dd62ed3e146101bd57600080fd5b806306fdde03146100b9578063095ea7b3146100d757806318160ddd146100fa57806323b872dd1461010c578063313ce5671461011f578063395093511461013e575b600080fd5b6100c16101f6565b6040516100ce91906107f6565b60405180910390f35b6100ea6100e5366004610860565b610284565b60405190151581526020016100ce565b6005545b6040519081526020016100ce565b6100ea61011a36600461088a565b61029b565b60025461012c9060ff1681565b60405160ff90911681526020016100ce565b6100ea61014c366004610860565b6102bd565b61016461015f366004610860565b6102f9565b005b6100fe6101743660046108c6565b6001600160a01b031660009081526003602052604090205490565b6100c1610307565b6100ea6101a5366004610860565b610314565b6100ea6101b8366004610860565b6103a8565b6100fe6101cb3660046108e8565b6001600160a01b03918216600090815260046020908152604080832093909416825291909152205490565b600080546102039061091b565b80601f016020809104026020016040519081016040528092919081815260200182805461022f9061091b565b801561027c5780601f106102515761010080835404028352916020019161027c565b820191906000526020600020905b81548152906001019060200180831161025f57829003601f168201915b505050505081565b60006102913384846103b5565b5060015b92915050565b60006102a88433846104d9565b6102b384848461056b565b5060019392505050565b3360008181526004602090815260408083206001600160a01b038716845290915281205490916102919185906102f4908690610955565b6103b5565b6103038282610717565b5050565b600180546102039061091b565b3360009081526004602090815260408083206001600160a01b03861684529091528120548281101561039b5760405162461bcd60e51b815260206004820152602560248201527f45524332303a2064656372656173656420616c6c6f77616e63652062656c6f77604482015264207a65726f60d81b60648201526084015b60405180910390fd5b6102b333858584036103b5565b600061029133848461056b565b6001600160a01b0383166104175760405162461bcd60e51b8152602060048201526024808201527f45524332303a20617070726f76652066726f6d20746865207a65726f206164646044820152637265737360e01b6064820152608401610392565b6001600160a01b0382166104785760405162461bcd60e51b815260206004820152602260248201527f45524332303a20617070726f766520746f20746865207a65726f206164647265604482015261737360f01b6064820152608401610392565b6001600160a01b0383811660008181526004602090815260408083209487168084529482529182902085905590518481527f8c5be1e5ebec7d5bd14f71427d1e84f3dd0314c0f7b2291e5b200ac8c7c3b925910160405180910390a3505050565b6001600160a01b03808416600090815260046020908152604080832093861683529290522054600019811461056557818110156105585760405162461bcd60e51b815260206004820152601d60248201527f45524332303a20696e73756666696369656e7420616c6c6f77616e63650000006044820152606401610392565b61056584848484036103b5565b50505050565b6001600160a01b0383166105cf5760405162461bcd60e51b815260206004820152602560248201527f45524332303a207472616e736665722066726f6d20746865207a65726f206164604482015264647265737360d81b6064820152608401610392565b6001600160a01b0382166106315760405162461bcd60e51b815260206004820152602360248201527f45524332303a207472616e7366657220746f20746865207a65726f206164647260448201526265737360e81b6064820152608401610392565b6001600160a01b038316600090815260036020526040902054818110156106a95760405162461bcd60e51b815260206004820152602660248201527f45524332303a207472616e7366657220616d6f756e7420657863656564732062604482015265616c616e636560d01b6064820152608401610392565b6001600160a01b0380851660008181526003602052604080822086860390559286168082529083902080548601905591517fddf252ad1be2c89b69c2b068fc378daa952ba7f163c4a11628f55a4df523b3ef906107099086815260200190565b60405180910390a350505050565b6001600160a01b03821661076d5760405162461bcd60e51b815260206004820152601f60248201527f45524332303a206d696e7420746f20746865207a65726f2061646472657373006044820152606401610392565b806005600082825461077f9190610955565b90915550506001600160a01b038216600090815260036020526040812080548392906107ac908490610955565b90915550506040518181526001600160a01b038316906000907fddf252ad1be2c89b69c2b068fc378daa952ba7f163c4a11628f55a4df523b3ef9060200160405180910390a35050565b600060208083528351808285015260005b8181101561082357858101830151858201604001528201610807565b506000604082860101526040601f19601f8301168501019250505092915050565b80356001600160a01b038116811461085b57600080fd5b919050565b6000806040838503121561087357600080fd5b61087c83610844565b946020939093013593505050565b60008060006060848603121561089f57600080fd5b6108a884610844565b92506108b660208501610844565b9150604084013590509250925092565b6000602082840312156108d857600080fd5b6108e182610844565b9392505050565b600080604083850312156108fb57600080fd5b61090483610844565b915061091260208401610844565b90509250929050565b600181811c9082168061092f57607f821691505b60208210810361094f57634e487b7160e01b600052602260045260246000fd5b50919050565b8082018082111561029557634e487b7160e01b600052601160045260246000fdfea26469706673582212203d582d954ef7ae33fb40e049d267433e8fbc3148ac0eb6a11cdc021b0007b08f64736f6c63430008140033",
  "linkReferences": {},
  "deployedLinkReferences": {}
}