{
  "_format": "hh-sol-artifact-1",
  "contractName": "XmentoVaultFactoryV2",
  "sourceName": "contracts/XmentoVaultFactoryV2.sol",
  "abi": [
    {
      "anonymous": false,
      "inputs": [
        {
          "indexed": false,
          "internalType": "address",
          "name": "previousAdmin",
          "type": "address"
        },
        {
          "indexed": false,
          "internalType": "address",
          "name": "newAdmin",
          "type": "address"
        }
      ],
      "name": "AdminChanged",
      "type": "event"
    },
    {
      "anonymous": false,
      "inputs": [
        {
          "indexed": true,
          "internalType": "address",
          "name": "beacon",
          "type": "address"
        }
      ],
      "name": "BeaconUpgraded",
      "type": "event"
    },
    {
      "anonymous": false,
      "inputs": [
        {
          "indexed": true,
          "internalType": "address",
          "name": "newImplementation",
          "type": "address"
        }
      ],
      "name": "ImplementationUpdated",
      "type": "event"
    },
    {
      "anonymous": false,
      "inputs": [
        {
          "indexed": false,
          "internalType": "uint8",
          "name": "version",
          "type": "uint8"
        }
      ],
      "name": "Initialized",
      "type": "event"
    },
    {
      "anonymous": false,
      "inputs": [
        {
          "indexed": true,
          "internalType": "address",
          "name": "previousOwner",
          "type": "address"
        },
        {
          "indexed": true,
          "internalType": "address",
          "name": "newOwner",
          "type": "address"
        }
      ],
      "name": "OwnershipTransferred",
      "type": "event"
    },
    {
      "anonymous": false,
      "inputs": [
        {
          "indexed": true,
          "internalType": "bytes32",
          "name": "role",
          "type": "bytes32"
        },
        {
          "indexed": true,
          "internalType": "bytes32",
          "name": "previousAdminRole",
          "type": "bytes32"
        },
        {
          "indexed": true,
          "internalType": "bytes32",
          "name": "newAdminRole",
          "type": "bytes32"
        }
      ],
      "name": "RoleAdminChanged",
      "type": "event"
    },
    {
      "anonymous": false,
      "inputs": [
        {
          "indexed": true,
          "internalType": "bytes32",
          "name": "role",
          "type": "bytes32"
        },
        {
          "indexed": true,
          "internalType": "address",
          "name": "account",
          "type": "address"
        },
        {
          "indexed": true,
          "internalType": "address",
          "name": "sender",
          "type": "address"
        }
      ],
      "name": "RoleGranted",
      "type": "event"
    },
    {
      "anonymous": false,
      "inputs": [
        {
          "indexed": true,
          "internalType": "bytes32",
          "name": "role",
          "type": "bytes32"
        },
        {
          "indexed": true,
          "internalType": "address",
          "name": "account",
          "type": "address"
        },
        {
          "indexed": true,
          "internalType": "address",
          "name": "sender",
          "type": "address"
        }
      ],
      "name": "RoleRevoked",
      "type": "event"
    },
    {
      "anonymous": false,
      "inputs": [
        {
          "indexed": true,
          "internalType": "address",
          "name": "implementation",
          "type": "address"
        }
      ],
      "name": "Upgraded",
      "type": "event"
    },
    {
      "anonymous": false,
      "inputs": [
        {
          "indexed": true,
          "internalType": "address",
          "name": "user",
          "type": "address"
        },
        {
          "indexed": true,
          "internalType": "address",
          "name": "vaultAddress",
          "type": "address"
        }
      ],
      "name": "VaultCreated",
      "type": "event"
    },
    {
      "anonymous": false,
      "inputs": [
        {
          "indexed": true,
          "internalType": "address",
          "name": "user",
          "type": "address"
        },
        {
          "indexed": true,
          "internalType": "address",
          "name": "vaultAddress",
          "type": "address"
        },
        {
          "indexed": false,
          "internalType": "uint256",
          "name": "vaultIndex",
          "type": "uint256"
        }
      ],
      "name": "VaultCreatedV2",
      "type": "event"
    },
    {
      "inputs": [],
      "name": "DEFAULT_ADMIN_ROLE",
      "outputs": [
        {
          "internalType": "bytes32",
          "name": "",
          "type": "bytes32"
        }
      ],
      "stateMutability": "view",
      "type": "function"
    },
    {
      "inputs": [],
      "name": "VERSION",
      "outputs": [
        {
          "internalType": "string",
          "name": "",
          "type": "string"
        }
      ],
      "stateMutability": "view",
      "type": "function"
    },
    {
      "inputs": [
        {
          "internalType": "uint256",
          "name": "",
          "type": "uint256"
        }
      ],
      "name": "allVaults",
      "outputs": [
        {
          "internalType": "address",
          "name": "",
          "type": "address"
        }
      ],
      "stateMutability": "view",
      "type": "function"
    },
    {
      "inputs": [],
      "name": "cEUR",
      "outputs": [
        {
          "internalType": "address",
          "name": "",
          "type": "address"
        }
      ],
      "stateMutability": "view",
      "type": "function"
    },
    {
      "inputs": [],
      "name": "cREAL",
      "outputs": [
        {
          "internalType": "address",
          "name": "",
          "type": "address"
        }
      ],
      "stateMutability": "view",
      "type": "function"
    },
    {
      "inputs": [],
      "name": "cUSD",
      "outputs": [
        {
          "internalType": "address",
          "name": "",
          "type": "address"
        }
      ],
      "stateMutability": "view",
      "type": "function"
    },
    {
      "inputs": [],
      "name": "createVault",
      "outputs": [
        {
          "internalType": "address",
          "name": "",
          "type": "address"
        }
      ],
      "stateMutability": "nonpayable",
      "type": "function"
    },
    {
      "inputs": [],
      "name": "dex",
      "outputs": [
        {
          "internalType": "address",
          "name": "",
          "type": "address"
        }
      ],
      "stateMutability": "view",
      "type": "function"
    },
    {
      "inputs": [
        {
          "internalType": "bytes32",
          "name": "role",
          "type": "bytes32"
        }
      ],
      "name": "getRoleAdmin",
      "outputs": [
        {
          "internalType": "bytes32",
          "name": "",
          "type": "bytes32"
        }
      ],
      "stateMutability": "view",
      "type": "function"
    },
    {
      "inputs": [
        {
          "internalType": "address",
          "name": "user",
          "type": "address"
        },
        {
          "internalType": "uint256",
          "name": "index",
          "type": "uint256"
        }
      ],
      "name": "getUserVault",
      "outputs": [
        {
          "internalType": "address",
          "name": "",
          "type": "address"
        }
      ],
      "stateMutability": "view",
      "type": "function"
    },
    {
      "inputs": [
        {
          "internalType": "address",
          "name": "user",
          "type": "address"
        }
      ],
      "name": "getUserVaultCount",
      "outputs": [
        {
          "internalType": "uint256",
          "name": "",
          "type": "uint256"
        }
      ],
      "stateMutability": "view",
      "type": "function"
    },
    {
      "inputs": [
        {
          "internalType": "address",
          "name": "user",
          "type": "address"
        }
      ],
      "name": "getUserVaults",
      "outputs": [
        {
          "internalType": "address[]",
          "name": "",
          "type": "address[]"
        }
      ],
      "stateMutability": "view",
      "type": "function"
    },
    {
      "inputs": [],
      "name": "getVaultCount",
      "outputs": [
        {
          "internalType": "uint256",
          "name": "",
          "type": "uint256"
        }
      ],
      "stateMutability": "view",
      "type": "function"
    },
    {
      "inputs": [],
      "name": "getVaults",
      "outputs": [
        {
          "internalType": "address[]",
          "name": "",
          "type": "address[]"
        }
      ],
      "stateMutability": "view",
      "type": "function"
    },
    {
      "inputs": [
        {
          "internalType": "uint256",
          "name": "start",
          "type": "uint256"
        },
        {
          "internalType": "uint256",
          "name": "count",
          "type": "uint256"
        }
      ],
      "name": "getVaults",
      "outputs": [
        {
          "internalType": "address[]",
          "name": "",
          "type": "address[]"
        }
      ],
      "stateMutability": "view",
      "type": "function"
    },
    {
      "inputs": [],
      "name": "getVersion",
      "outputs": [
        {
          "internalType": "string",
          "name": "",
          "type": "string"
        }
      ],
      "stateMutability": "pure",
      "type": "function"
    },
    {
      "inputs": [
        {
          "internalType": "bytes32",
          "name": "role",
          "type": "bytes32"
        },
        {
          "internalType": "address",
          "name": "account",
          "type": "address"
        }
      ],
      "name": "grantRole",
      "outputs": [],
      "stateMutability": "nonpayable",
      "type": "function"
    },
    {
      "inputs": [
        {
          "internalType": "bytes32",
          "name": "role",
          "type": "bytes32"
        },
        {
          "internalType": "address",
          "name": "account",
          "type": "address"
        }
      ],
      "name": "hasRole",
      "outputs": [
        {
          "internalType": "bool",
          "name": "",
          "type": "bool"
        }
      ],
      "stateMutability": "view",
      "type": "function"
    },
    {
      "inputs": [
        {
          "internalType": "address",
          "name": "_vaultImplementation",
          "type": "address"
        },
        {
          "internalType": "address",
          "name": "_cUSD",
          "type": "address"
        },
        {
          "internalType": "address",
          "name": "_cEUR",
          "type": "address"
        },
        {
          "internalType": "address",
          "name": "_cREAL",
          "type": "address"
        },
        {
          "internalType": "address",
          "name": "_dex",
          "type": "address"
        },
        {
          "internalType": "address",
          "name": "_yieldOracle",
          "type": "address"
        }
      ],
      "name": "initialize",
      "outputs": [],
      "stateMutability": "nonpayable",
      "type": "function"
    },
    {
      "inputs": [
        {
          "internalType": "address",
          "name": "vault",
          "type": "address"
        }
      ],
      "name": "isVault",
      "outputs": [
        {
          "internalType": "bool",
          "name": "",
          "type": "bool"
        }
      ],
      "stateMutability": "view",
      "type": "function"
    },
    {
      "inputs": [],
      "name": "migrateV1Data",
      "outputs": [],
      "stateMutability": "nonpayable",
      "type": "function"
    },
    {
      "inputs": [],
      "name": "owner",
      "outputs": [
        {
          "internalType": "address",
          "name": "",
          "type": "address"
        }
      ],
      "stateMutability": "view",
      "type": "function"
    },
    {
      "inputs": [],
      "name": "proxiableUUID",
      "outputs": [
        {
          "internalType": "bytes32",
          "name": "",
          "type": "bytes32"
        }
      ],
      "stateMutability": "view",
      "type": "function"
    },
    {
      "inputs": [],
      "name": "renounceOwnership",
      "outputs": [],
      "stateMutability": "nonpayable",
      "type": "function"
    },
    {
      "inputs": [
        {
          "internalType": "bytes32",
          "name": "role",
          "type": "bytes32"
        },
        {
          "internalType": "address",
          "name": "account",
          "type": "address"
        }
      ],
      "name": "renounceRole",
      "outputs": [],
      "stateMutability": "nonpayable",
      "type": "function"
    },
    {
      "inputs": [
        {
          "internalType": "bytes32",
          "name": "role",
          "type": "bytes32"
        },
        {
          "internalType": "address",
          "name": "account",
          "type": "address"
        }
      ],
      "name": "revokeRole",
      "outputs": [],
      "stateMutability": "nonpayable",
      "type": "function"
    },
    {
      "inputs": [
        {
          "internalType": "address",
          "name": "implementation",
          "type": "address"
        }
      ],
      "name": "setVaultImplementation",
      "outputs": [],
      "stateMutability": "nonpayable",
      "type": "function"
    },
    {
      "inputs": [
        {
          "internalType": "bytes4",
          "name": "interfaceId",
          "type": "bytes4"
        }
      ],
      "name": "supportsInterface",
      "outputs": [
        {
          "internalType": "bool",
          "name": "",
          "type": "bool"
        }
      ],
      "stateMutability": "view",
      "type": "function"
    },
    {
      "inputs": [
        {
          "internalType": "address",
          "name": "newOwner",
          "type": "address"
        }
      ],
      "name": "transferOwnership",
      "outputs": [],
      "stateMutability": "nonpayable",
      "type": "function"
    },
    {
      "inputs": [
        {
          "internalType": "address",
          "name": "newImplementation",
          "type": "address"
        }
      ],
      "name": "upgradeTo",
      "outputs": [],
      "stateMutability": "nonpayable",
      "type": "function"
    },
    {
      "inputs": [
        {
          "internalType": "address",
          "name": "newImplementation",
          "type": "address"
        },
        {
          "internalType": "bytes",
          "name": "data",
          "type": "bytes"
        }
      ],
      "name": "upgradeToAndCall",
      "outputs": [],
      "stateMutability": "payable",
      "type": "function"
    },
    {
      "inputs": [
        {
          "internalType": "address",
          "name": "",
          "type": "address"
        },
        {
          "internalType": "uint256",
          "name": "",
          "type": "uint256"
        }
      ],
      "name": "userVaults",
      "outputs": [
        {
          "internalType": "address",
          "name": "",
          "type": "address"
        }
      ],
      "stateMutability": "view",
      "type": "function"
    },
    {
      "inputs": [],
      "name": "vaultImplementation",
      "outputs": [
        {
          "internalType": "address",
          "name": "",
          "type": "address"
        }
      ],
      "stateMutability": "view",
      "type": "function"
    },
    {
      "inputs": [],
      "name": "yieldOracle",
      "outputs": [
        {
          "internalType": "contract IYieldOracle",
          "name": "",
          "type": "address"
        }
      ],
      "stateMutability": "view",
      "type": "function"
    }
  ],
  "bytecode": "0x60a0604052306080523480156200001557600080fd5b506200002062000026565b620000e7565b600054610100900460ff1615620000935760405162461bcd60e51b815260206004820152602760248201527f496e697469616c697a61626c653a20636f6e747261637420697320696e697469604482015266616c697a696e6760c81b606482015260840160405180910390fd5b60005460ff90811614620000e5576000805460ff191660ff9081179091556040519081527f7f26b83ff96e1f2b6a682f133852f6798a09c465da95921460cefb38474024989060200160405180910390a15b565b6080516126aa6200011f60003960008181610b2e01528181610b6e01528181610c7001528181610cb00152610d3f01526126aa6000f3fe6080604052600436106101f95760003560e01c80637d1f2de71161010d578063b98cca37116100a0578063d47ce0a61161006f578063d47ce0a6146105ea578063d547741f1461060b578063e7f3c69c1461062b578063f2fde38b1461064b578063ffa1ad741461066b57600080fd5b8063b98cca3714610569578063bba48a9014610589578063cc2a9a5b146105aa578063d3239c22146105ca57600080fd5b806391d14854116100dc57806391d14854146104f35780639c841fef14610513578063a217fddf14610533578063a7f0e3421461054857600080fd5b80637d1f2de71461045d578063828edbe81461047e5780638da5cb5b146104b55780639094a91e146104d357600080fd5b806344d00f82116101905780635d12928b1161015f5780635d12928b146103c2578063652b9b41146103d7578063692058c214610411578063715018a61461043257806374d4e4911461044757600080fd5b806344d00f82146103585780634f1ef2861461037a57806352d1902d1461038d57806353e78b6b146103a257600080fd5b8063248a9ca3116101cc578063248a9ca3146102ba5780632f2ff15d146102f857806336568abe146103185780633659cfe61461033857600080fd5b806301ffc9a7146101fe5780630d8e6e2c146102335780631a1cb81b1461026a5780631fccf67214610281575b600080fd5b34801561020a57600080fd5b5061021e61021936600461212a565b61069c565b60405190151581526020015b60405180910390f35b34801561023f57600080fd5b506040805180820190915260058152640322e302e360dc1b60208201525b60405161022a9190612178565b34801561027657600080fd5b5061027f6106d3565b005b34801561028d57600080fd5b50610162546102a2906001600160a01b031681565b6040516001600160a01b03909116815260200161022a565b3480156102c657600080fd5b506102ea6102d53660046121ab565b600090815260c9602052604090206001015490565b60405190815260200161022a565b34801561030457600080fd5b5061027f6103133660046121db565b610a7c565b34801561032457600080fd5b5061027f6103333660046121db565b610aa1565b34801561034457600080fd5b5061027f610353366004612207565b610b24565b34801561036457600080fd5b5061036d610c03565b60405161022a9190612222565b61027f610388366004612285565b610c66565b34801561039957600080fd5b506102ea610d32565b3480156103ae57600080fd5b5061027f6103bd366004612207565b610de6565b3480156103ce57600080fd5b506102a2610e8f565b3480156103e357600080fd5b5061021e6103f2366004612207565b6001600160a01b03166000908152610161602052604090205460ff1690565b34801561041d57600080fd5b50610165546102a2906001600160a01b031681565b34801561043e57600080fd5b5061027f6110e4565b34801561045357600080fd5b50610160546102ea565b34801561046957600080fd5b50610163546102a2906001600160a01b031681565b34801561048a57600080fd5b506102ea610499366004612207565b6001600160a01b03166000908152610168602052604090205490565b3480156104c157600080fd5b506033546001600160a01b03166102a2565b3480156104df57600080fd5b506102a26104ee3660046121ab565b6110f6565b3480156104ff57600080fd5b5061021e61050e3660046121db565b611121565b34801561051f57600080fd5b506102a261052e366004612347565b61114c565b34801561053f57600080fd5b506102ea600081565b34801561055457600080fd5b50610166546102a2906001600160a01b031681565b34801561057557600080fd5b5061036d610584366004612371565b611185565b34801561059557600080fd5b50610167546102a2906001600160a01b031681565b3480156105b657600080fd5b5061027f6105c5366004612393565b611294565b3480156105d657600080fd5b506102a26105e5366004612347565b61162a565b3480156105f657600080fd5b50610164546102a2906001600160a01b031681565b34801561061757600080fd5b5061027f6106263660046121db565b6116cf565b34801561063757600080fd5b5061036d610646366004612207565b6116f4565b34801561065757600080fd5b5061027f610666366004612207565b61176b565b34801561067757600080fd5b5061025d604051806040016040528060058152602001640322e302e360dc1b81525081565b60006001600160e01b03198216637965db0b60e01b14806106cd57506301ffc9a760e01b6001600160e01b03198316145b92915050565b6106db6117e1565b6101605415610a7a576101605460009067ffffffffffffffff8111156107035761070361226f565b60405190808252806020026020018201604052801561072c578160200160208202803683370190505b5090506000805b61016054811015610815576000610160828154811061075457610754612407565b60009182526020822001546001600160a01b03169150805b848110156107c157826001600160a01b031686828151811061079057610790612407565b60200260200101516001600160a01b0316036107af57600191506107c1565b806107b981612433565b91505061076c565b508061080057818585815181106107da576107da612407565b6001600160a01b0390921660209283029190910190910152836107fc81612433565b9450505b5050808061080d90612433565b915050610733565b5060005b818110156108f157600083828151811061083557610835612407565b6020908102919091018101516001600160a01b038116600090815261015f90925260408220909250905b81548110156108db57600082828154811061087c5761087c612407565b60009182526020808320909101546001600160a01b03878116845261016883526040842080546001810182559085529290932090910180546001600160a01b0319169290911691909117905550806108d381612433565b91505061085f565b50505080806108e990612433565b915050610819565b5060005b61016054811015610a76576000610160828154811061091657610916612407565b60009182526020822001546001600160a01b03169150805b848110156109fd57600086828151811061094a5761094a612407565b6020026020010151905060005b6001600160a01b038216600090815261016860205260409020548110156109dd576001600160a01b03828116600090815261016860205260409020805491871691839081106109a8576109a8612407565b6000918252602090912001546001600160a01b0316036109cb57600193506109dd565b806109d581612433565b915050610957565b5082156109ea57506109fd565b50806109f581612433565b91505061092e565b5080610a61576101686000610a1a6033546001600160a01b031690565b6001600160a01b03908116825260208083019390935260409091016000908120805460018101825590825292902090910180546001600160a01b0319169184169190911790555b50508080610a6e90612433565b9150506108f5565b5050505b565b600082815260c96020526040902060010154610a978161183b565b610a768383611845565b6001600160a01b0381163314610b165760405162461bcd60e51b815260206004820152602f60248201527f416363657373436f6e74726f6c3a2063616e206f6e6c792072656e6f756e636560448201526e103937b632b9903337b91039b2b63360891b60648201526084015b60405180910390fd5b610b2082826118cb565b5050565b6001600160a01b037f0000000000000000000000000000000000000000000000000000000000000000163003610b6c5760405162461bcd60e51b8152600401610b0d9061244c565b7f00000000000000000000000000000000000000000000000000000000000000006001600160a01b0316610bb560008051602061262e833981519152546001600160a01b031690565b6001600160a01b031614610bdb5760405162461bcd60e51b8152600401610b0d90612498565b610be481611932565b60408051600080825260208201909252610c009183919061193a565b50565b6060610160805480602002602001604051908101604052809291908181526020018280548015610c5c57602002820191906000526020600020905b81546001600160a01b03168152600190910190602001808311610c3e575b5050505050905090565b6001600160a01b037f0000000000000000000000000000000000000000000000000000000000000000163003610cae5760405162461bcd60e51b8152600401610b0d9061244c565b7f00000000000000000000000000000000000000000000000000000000000000006001600160a01b0316610cf760008051602061262e833981519152546001600160a01b031690565b6001600160a01b031614610d1d5760405162461bcd60e51b8152600401610b0d90612498565b610d2682611932565b610b208282600161193a565b6000306001600160a01b037f00000000000000000000000000000000000000000000000000000000000000001614610dd25760405162461bcd60e51b815260206004820152603860248201527f555550535570677261646561626c653a206d757374206e6f742062652063616c60448201527f6c6564207468726f7567682064656c656761746563616c6c00000000000000006064820152608401610b0d565b5060008051602061262e8339815191525b90565b610dee6117e1565b6001600160a01b038116610e445760405162461bcd60e51b815260206004820152601e60248201527f496e76616c696420696d706c656d656e746174696f6e206164647265737300006044820152606401610b0d565b61016780546001600160a01b0319166001600160a01b0383169081179091556040517f310ba5f1d2ed074b51e2eccd052a47ae9ab7c6b800d1fca3db3999d6a592ca0390600090a250565b6000610e99611aaa565b610167546001600160a01b0316610ef25760405162461bcd60e51b815260206004820152601c60248201527f496e76616c6964207661756c7420696d706c656d656e746174696f6e000000006044820152606401610b0d565b61016754600090610f0b906001600160a01b0316611b03565b90506001600160a01b038116610f5b5760405162461bcd60e51b815260206004820152601560248201527415985d5b1d0818dc99585d1a5bdb8819985a5b1959605a1b6044820152606401610b0d565b336000908152610168602090815260408083208054600180820183559185528385200180546001600160a01b0387166001600160a01b0319918216811790925561016080548085019091557fec7e130cdeeae65215fabbcddb1de429e603c4887cc659532eda903e49339663018054909116821790558452610161909252909120805460ff19169091179055610162546101635461016454610165546101665460405163cc2a9a5b60e01b81523060048201526001600160a01b0395861660248201529385166044850152918416606484015283166084830152821660a48201529082169063cc2a9a5b9060c401600060405180830381600087803b15801561106357600080fd5b505af1158015611077573d6000803e3d6000fd5b505033600081815261016860205260409020546001600160a01b03851693509091507f890285ffbbb5fb9aeec5c09fe281acdbd6098b0822d4cc5d725ce45e649318cf906110c7906001906124e4565b60405190815260200160405180910390a39050610de36001606555565b6110ec6117e1565b610a7a6000611ba4565b610160818154811061110757600080fd5b6000918252602090912001546001600160a01b0316905081565b600091825260c9602090815260408084206001600160a01b0393909316845291905290205460ff1690565b61015f602052816000526040600020818154811061116957600080fd5b6000918252602090912001546001600160a01b03169150829050565b610160546060908084106111a95750506040805160008152602081019091526106cd565b60006111b584866124f7565b9050818111156111c25750805b60006111ce86836124e4565b67ffffffffffffffff8111156111e6576111e661226f565b60405190808252806020026020018201604052801561120f578160200160208202803683370190505b509050855b8281101561128a57610160818154811061123057611230612407565b6000918252602090912001546001600160a01b03168261125089846124e4565b8151811061126057611260612407565b6001600160a01b03909216602092830291909101909101528061128281612433565b915050611214565b5095945050505050565b600054610100900460ff16158080156112b45750600054600160ff909116105b806112ce5750303b1580156112ce575060005460ff166001145b6113315760405162461bcd60e51b815260206004820152602e60248201527f496e697469616c697a61626c653a20636f6e747261637420697320616c72656160448201526d191e481a5b9a5d1a585b1a5e995960921b6064820152608401610b0d565b6000805460ff191660011790558015611354576000805461ff0019166101001790555b61135c611bf6565b611364611c25565b61136c611c54565b611374611c54565b61137d33611ba4565b611388600033611845565b6001600160a01b0387166113de5760405162461bcd60e51b815260206004820152601e60248201527f496e76616c696420696d706c656d656e746174696f6e206164647265737300006044820152606401610b0d565b6001600160a01b03861661142b5760405162461bcd60e51b8152602060048201526014602482015273496e76616c69642063555344206164647265737360601b6044820152606401610b0d565b6001600160a01b0385166114785760405162461bcd60e51b8152602060048201526014602482015273496e76616c69642063455552206164647265737360601b6044820152606401610b0d565b6001600160a01b0384166114c65760405162461bcd60e51b8152602060048201526015602482015274496e76616c696420635245414c206164647265737360581b6044820152606401610b0d565b6001600160a01b0383166115125760405162461bcd60e51b8152602060048201526013602482015272496e76616c696420444558206164647265737360681b6044820152606401610b0d565b6001600160a01b0382166115685760405162461bcd60e51b815260206004820152601c60248201527f496e76616c6964207969656c64206f7261636c652061646472657373000000006044820152606401610b0d565b61016780546001600160a01b03199081166001600160a01b038a8116919091179092556101628054821689841617905561016380548216888416179055610164805482168784161790556101658054821686841617905561016680549091169184169190911790556115db600033611845565b8015611621576000805461ff0019169055604051600181527f7f26b83ff96e1f2b6a682f133852f6798a09c465da95921460cefb38474024989060200160405180910390a15b50505050505050565b6001600160a01b0382166000908152610168602052604081205482106116885760405162461bcd60e51b8152602060048201526013602482015272496e646578206f7574206f6620626f756e647360681b6044820152606401610b0d565b6001600160a01b0383166000908152610168602052604090208054839081106116b3576116b3612407565b6000918252602090912001546001600160a01b03169392505050565b600082815260c960205260409020600101546116ea8161183b565b610a7683836118cb565b6001600160a01b0381166000908152610168602090815260409182902080548351818402810184019094528084526060939283018282801561175f57602002820191906000526020600020905b81546001600160a01b03168152600190910190602001808311611741575b50505050509050919050565b6117736117e1565b6001600160a01b0381166117d85760405162461bcd60e51b815260206004820152602660248201527f4f776e61626c653a206e6577206f776e657220697320746865207a65726f206160448201526564647265737360d01b6064820152608401610b0d565b610c0081611ba4565b6033546001600160a01b03163314610a7a5760405162461bcd60e51b815260206004820181905260248201527f4f776e61626c653a2063616c6c6572206973206e6f7420746865206f776e65726044820152606401610b0d565b610c008133611c7b565b61184f8282611121565b610b2057600082815260c9602090815260408083206001600160a01b03851684529091529020805460ff191660011790556118873390565b6001600160a01b0316816001600160a01b0316837f2f8788117e7eff1d82e926ec794901d17c78024a50270940304540a733656f0d60405160405180910390a45050565b6118d58282611121565b15610b2057600082815260c9602090815260408083206001600160a01b0385168085529252808320805460ff1916905551339285917ff6391f5c32d9c69d2a47ea670b442974b53935d1edc7fd64eb21e047a839171b9190a45050565b610c006117e1565b7f4910fdfa16fed3260ed0e7147f7cc6da11a60208b5b9406d12a635614ffd91435460ff16156119725761196d83611cd4565b610a76565b826001600160a01b03166352d1902d6040518163ffffffff1660e01b8152600401602060405180830381865afa9250505080156119cc575060408051601f3d908101601f191682019092526119c99181019061250a565b60015b611a2f5760405162461bcd60e51b815260206004820152602e60248201527f45524331393637557067726164653a206e657720696d706c656d656e7461746960448201526d6f6e206973206e6f74205555505360901b6064820152608401610b0d565b60008051602061262e8339815191528114611a9e5760405162461bcd60e51b815260206004820152602960248201527f45524331393637557067726164653a20756e737570706f727465642070726f786044820152681a58589b195555525160ba1b6064820152608401610b0d565b50610a76838383611d70565b600260655403611afc5760405162461bcd60e51b815260206004820152601f60248201527f5265656e7472616e637947756172643a207265656e7472616e742063616c6c006044820152606401610b0d565b6002606555565b6000763d602d80600a3d3981f3363d3d373d3d3d363d730000008260601b60e81c176000526e5af43d82803e903d91602b57fd5bf38260781b17602052603760096000f090506001600160a01b038116611b985760405162461bcd60e51b8152602060048201526016602482015275115490cc4c4d8dce8818dc99585d194819985a5b195960521b6044820152606401610b0d565b919050565b6001606555565b603380546001600160a01b038381166001600160a01b0319831681179093556040519116919082907f8be0079c531659141344cd1fd0a4f28419497f9722a3daafe3b4186f6b6457e090600090a35050565b600054610100900460ff16611c1d5760405162461bcd60e51b8152600401610b0d90612523565b610a7a611d9b565b600054610100900460ff16611c4c5760405162461bcd60e51b8152600401610b0d90612523565b610a7a611dcb565b600054610100900460ff16610a7a5760405162461bcd60e51b8152600401610b0d90612523565b611c858282611121565b610b2057611c9281611df2565b611c9d836020611e04565b604051602001611cae92919061256e565b60408051601f198184030181529082905262461bcd60e51b8252610b0d91600401612178565b6001600160a01b0381163b611d415760405162461bcd60e51b815260206004820152602d60248201527f455243313936373a206e657720696d706c656d656e746174696f6e206973206e60448201526c1bdd08184818dbdb9d1c9858dd609a1b6064820152608401610b0d565b60008051602061262e83398151915280546001600160a01b0319166001600160a01b0392909216919091179055565b611d7983611fa7565b600082511180611d865750805b15610a7657611d958383611fe7565b50505050565b600054610100900460ff16611dc25760405162461bcd60e51b8152600401610b0d90612523565b610a7a33611ba4565b600054610100900460ff16611b9d5760405162461bcd60e51b8152600401610b0d90612523565b60606106cd6001600160a01b03831660145b60606000611e138360026125e3565b611e1e9060026124f7565b67ffffffffffffffff811115611e3657611e3661226f565b6040519080825280601f01601f191660200182016040528015611e60576020820181803683370190505b509050600360fc1b81600081518110611e7b57611e7b612407565b60200101906001600160f81b031916908160001a905350600f60fb1b81600181518110611eaa57611eaa612407565b60200101906001600160f81b031916908160001a9053506000611ece8460026125e3565b611ed99060016124f7565b90505b6001811115611f51576f181899199a1a9b1b9c1cb0b131b232b360811b85600f1660108110611f0d57611f0d612407565b1a60f81b828281518110611f2357611f23612407565b60200101906001600160f81b031916908160001a90535060049490941c93611f4a816125fa565b9050611edc565b508315611fa05760405162461bcd60e51b815260206004820181905260248201527f537472696e67733a20686578206c656e67746820696e73756666696369656e746044820152606401610b0d565b9392505050565b611fb081611cd4565b6040516001600160a01b038216907fbc7cd75a20ee27fd9adebab32041f755214dbc6bffa90cc0225b39da2e5c2d3b90600090a250565b6060611fa0838360405180606001604052806027815260200161264e602791396060600080856001600160a01b0316856040516120249190612611565b600060405180830381855af49150503d806000811461205f576040519150601f19603f3d011682016040523d82523d6000602084013e612064565b606091505b50915091506120758683838761207f565b9695505050505050565b606083156120ee5782516000036120e7576001600160a01b0385163b6120e75760405162461bcd60e51b815260206004820152601d60248201527f416464726573733a2063616c6c20746f206e6f6e2d636f6e74726163740000006044820152606401610b0d565b50816120f8565b6120f88383612100565b949350505050565b8151156121105781518083602001fd5b8060405162461bcd60e51b8152600401610b0d9190612178565b60006020828403121561213c57600080fd5b81356001600160e01b031981168114611fa057600080fd5b60005b8381101561216f578181015183820152602001612157565b50506000910152565b6020815260008251806020840152612197816040850160208701612154565b601f01601f19169190910160400192915050565b6000602082840312156121bd57600080fd5b5035919050565b80356001600160a01b0381168114611b9857600080fd5b600080604083850312156121ee57600080fd5b823591506121fe602084016121c4565b90509250929050565b60006020828403121561221957600080fd5b611fa0826121c4565b6020808252825182820181905260009190848201906040850190845b818110156122635783516001600160a01b03168352928401929184019160010161223e565b50909695505050505050565b634e487b7160e01b600052604160045260246000fd5b6000806040838503121561229857600080fd5b6122a1836121c4565b9150602083013567ffffffffffffffff808211156122be57600080fd5b818501915085601f8301126122d257600080fd5b8135818111156122e4576122e461226f565b604051601f8201601f19908116603f0116810190838211818310171561230c5761230c61226f565b8160405282815288602084870101111561232557600080fd5b8260208601602083013760006020848301015280955050505050509250929050565b6000806040838503121561235a57600080fd5b612363836121c4565b946020939093013593505050565b6000806040838503121561238457600080fd5b50508035926020909101359150565b60008060008060008060c087890312156123ac57600080fd5b6123b5876121c4565b95506123c3602088016121c4565b94506123d1604088016121c4565b93506123df606088016121c4565b92506123ed608088016121c4565b91506123fb60a088016121c4565b90509295509295509295565b634e487b7160e01b600052603260045260246000fd5b634e487b7160e01b600052601160045260246000fd5b6000600182016124455761244561241d565b5060010190565b6020808252602c908201527f46756e6374696f6e206d7573742062652063616c6c6564207468726f7567682060408201526b19195b1959d85d1958d85b1b60a21b606082015260800190565b6020808252602c908201527f46756e6374696f6e206d7573742062652063616c6c6564207468726f7567682060408201526b6163746976652070726f787960a01b606082015260800190565b818103818111156106cd576106cd61241d565b808201808211156106cd576106cd61241d565b60006020828403121561251c57600080fd5b5051919050565b6020808252602b908201527f496e697469616c697a61626c653a20636f6e7472616374206973206e6f74206960408201526a6e697469616c697a696e6760a81b606082015260800190565b7f416363657373436f6e74726f6c3a206163636f756e74200000000000000000008152600083516125a6816017850160208801612154565b7001034b99036b4b9b9b4b733903937b6329607d1b60179184019182015283516125d7816028840160208801612154565b01602801949350505050565b80820281158282048414176106cd576106cd61241d565b6000816126095761260961241d565b506000190190565b60008251612623818460208701612154565b919091019291505056fe360894a13ba1a3210667c828492db98dca3e2076cc3735a920a3ca505d382bbc416464726573733a206c6f772d6c6576656c2064656c65676174652063616c6c206661696c6564a26469706673582212208f76bb72c7fdd725f6efdf343f99eaa40c9dc43f6cecd19aa88eb2a286b6530f64736f6c63430008140033",
  "linkReferences": {},
  "deployedLinkReferences": {}
}