{
  "_format": "hh-sol-artifact-1",
  "contractName": "XmentoVaultFactory",
  "sourceName": "contracts/XmentoVaultFactory.sol",
  "abi": [
    {
      "inputs": [],
      "stateMutability": "nonpayable",
      "type": "constructor"
    },
    {
      "anonymous": false,
      "inputs": [
        {
          "indexed": true,
          "internalType": "address",
          "name": "newImplementation",
          "type": "address"
        }
      ],
      "name": "ImplementationUpdated",
      "type": "event"
    },
    {
      "anonymous": false,
      "inputs": [
        {
          "indexed": false,
          "internalType": "uint8",
          "name": "version",
          "type": "uint8"
        }
      ],
      "name": "Initialized",
      "type": "event"
    },
    {
      "anonymous": false,
      "inputs": [
        {
          "indexed": true,
          "internalType": "address",
          "name": "previousOwner",
          "type": "address"
        },
        {
          "indexed": true,
          "internalType": "address",
          "name": "newOwner",
          "type": "address"
        }
      ],
      "name": "OwnershipTransferred",
      "type": "event"
    },
    {
      "anonymous": false,
      "inputs": [
        {
          "indexed": true,
          "internalType": "bytes32",
          "name": "role",
          "type": "bytes32"
        },
        {
          "indexed": true,
          "internalType": "bytes32",
          "name": "previousAdminRole",
          "type": "bytes32"
        },
        {
          "indexed": true,
          "internalType": "bytes32",
          "name": "newAdminRole",
          "type": "bytes32"
        }
      ],
      "name": "RoleAdminChanged",
      "type": "event"
    },
    {
      "anonymous": false,
      "inputs": [
        {
          "indexed": true,
          "internalType": "bytes32",
          "name": "role",
          "type": "bytes32"
        },
        {
          "indexed": true,
          "internalType": "address",
          "name": "account",
          "type": "address"
        },
        {
          "indexed": true,
          "internalType": "address",
          "name": "sender",
          "type": "address"
        }
      ],
      "name": "RoleGranted",
      "type": "event"
    },
    {
      "anonymous": false,
      "inputs": [
        {
          "indexed": true,
          "internalType": "bytes32",
          "name": "role",
          "type": "bytes32"
        },
        {
          "indexed": true,
          "internalType": "address",
          "name": "account",
          "type": "address"
        },
        {
          "indexed": true,
          "internalType": "address",
          "name": "sender",
          "type": "address"
        }
      ],
      "name": "RoleRevoked",
      "type": "event"
    },
    {
      "anonymous": false,
      "inputs": [
        {
          "indexed": true,
          "internalType": "address",
          "name": "user",
          "type": "address"
        },
        {
          "indexed": true,
          "internalType": "address",
          "name": "vaultAddress",
          "type": "address"
        }
      ],
      "name": "VaultCreated",
      "type": "event"
    },
    {
      "inputs": [],
      "name": "DEFAULT_ADMIN_ROLE",
      "outputs": [
        {
          "internalType": "bytes32",
          "name": "",
          "type": "bytes32"
        }
      ],
      "stateMutability": "view",
      "type": "function"
    },
    {
      "inputs": [
        {
          "internalType": "uint256",
          "name": "",
          "type": "uint256"
        }
      ],
      "name": "allVaults",
      "outputs": [
        {
          "internalType": "address",
          "name": "",
          "type": "address"
        }
      ],
      "stateMutability": "view",
      "type": "function"
    },
    {
      "inputs": [],
      "name": "cEUR",
      "outputs": [
        {
          "internalType": "address",
          "name": "",
          "type": "address"
        }
      ],
      "stateMutability": "view",
      "type": "function"
    },
    {
      "inputs": [],
      "name": "cREAL",
      "outputs": [
        {
          "internalType": "address",
          "name": "",
          "type": "address"
        }
      ],
      "stateMutability": "view",
      "type": "function"
    },
    {
      "inputs": [],
      "name": "cUSD",
      "outputs": [
        {
          "internalType": "address",
          "name": "",
          "type": "address"
        }
      ],
      "stateMutability": "view",
      "type": "function"
    },
    {
      "inputs": [],
      "name": "createVault",
      "outputs": [
        {
          "internalType": "address",
          "name": "",
          "type": "address"
        }
      ],
      "stateMutability": "nonpayable",
      "type": "function"
    },
    {
      "inputs": [],
      "name": "dex",
      "outputs": [
        {
          "internalType": "address",
          "name": "",
          "type": "address"
        }
      ],
      "stateMutability": "view",
      "type": "function"
    },
    {
      "inputs": [
        {
          "internalType": "bytes32",
          "name": "role",
          "type": "bytes32"
        }
      ],
      "name": "getRoleAdmin",
      "outputs": [
        {
          "internalType": "bytes32",
          "name": "",
          "type": "bytes32"
        }
      ],
      "stateMutability": "view",
      "type": "function"
    },
    {
      "inputs": [
        {
          "internalType": "address",
          "name": "user",
          "type": "address"
        }
      ],
      "name": "getVaultAddress",
      "outputs": [
        {
          "internalType": "address",
          "name": "",
          "type": "address"
        }
      ],
      "stateMutability": "view",
      "type": "function"
    },
    {
      "inputs": [],
      "name": "getVaultCount",
      "outputs": [
        {
          "internalType": "uint256",
          "name": "",
          "type": "uint256"
        }
      ],
      "stateMutability": "view",
      "type": "function"
    },
    {
      "inputs": [],
      "name": "getVaults",
      "outputs": [
        {
          "internalType": "address[]",
          "name": "",
          "type": "address[]"
        }
      ],
      "stateMutability": "view",
      "type": "function"
    },
    {
      "inputs": [
        {
          "internalType": "uint256",
          "name": "start",
          "type": "uint256"
        },
        {
          "internalType": "uint256",
          "name": "count",
          "type": "uint256"
        }
      ],
      "name": "getVaults",
      "outputs": [
        {
          "internalType": "address[]",
          "name": "",
          "type": "address[]"
        }
      ],
      "stateMutability": "view",
      "type": "function"
    },
    {
      "inputs": [
        {
          "internalType": "bytes32",
          "name": "role",
          "type": "bytes32"
        },
        {
          "internalType": "address",
          "name": "account",
          "type": "address"
        }
      ],
      "name": "grantRole",
      "outputs": [],
      "stateMutability": "nonpayable",
      "type": "function"
    },
    {
      "inputs": [
        {
          "internalType": "bytes32",
          "name": "role",
          "type": "bytes32"
        },
        {
          "internalType": "address",
          "name": "account",
          "type": "address"
        }
      ],
      "name": "hasRole",
      "outputs": [
        {
          "internalType": "bool",
          "name": "",
          "type": "bool"
        }
      ],
      "stateMutability": "view",
      "type": "function"
    },
    {
      "inputs": [
        {
          "internalType": "address",
          "name": "_vaultImplementation",
          "type": "address"
        },
        {
          "internalType": "address",
          "name": "_cUSD",
          "type": "address"
        },
        {
          "internalType": "address",
          "name": "_cEUR",
          "type": "address"
        },
        {
          "internalType": "address",
          "name": "_cREAL",
          "type": "address"
        },
        {
          "internalType": "address",
          "name": "_dex",
          "type": "address"
        },
        {
          "internalType": "address",
          "name": "_yieldOracle",
          "type": "address"
        }
      ],
      "name": "initialize",
      "outputs": [],
      "stateMutability": "nonpayable",
      "type": "function"
    },
    {
      "inputs": [
        {
          "internalType": "address",
          "name": "vault",
          "type": "address"
        }
      ],
      "name": "isVault",
      "outputs": [
        {
          "internalType": "bool",
          "name": "",
          "type": "bool"
        }
      ],
      "stateMutability": "view",
      "type": "function"
    },
    {
      "inputs": [],
      "name": "owner",
      "outputs": [
        {
          "internalType": "address",
          "name": "",
          "type": "address"
        }
      ],
      "stateMutability": "view",
      "type": "function"
    },
    {
      "inputs": [],
      "name": "renounceOwnership",
      "outputs": [],
      "stateMutability": "nonpayable",
      "type": "function"
    },
    {
      "inputs": [
        {
          "internalType": "bytes32",
          "name": "role",
          "type": "bytes32"
        },
        {
          "internalType": "address",
          "name": "account",
          "type": "address"
        }
      ],
      "name": "renounceRole",
      "outputs": [],
      "stateMutability": "nonpayable",
      "type": "function"
    },
    {
      "inputs": [
        {
          "internalType": "bytes32",
          "name": "role",
          "type": "bytes32"
        },
        {
          "internalType": "address",
          "name": "account",
          "type": "address"
        }
      ],
      "name": "revokeRole",
      "outputs": [],
      "stateMutability": "nonpayable",
      "type": "function"
    },
    {
      "inputs": [
        {
          "internalType": "address",
          "name": "implementation",
          "type": "address"
        }
      ],
      "name": "setVaultImplementation",
      "outputs": [],
      "stateMutability": "nonpayable",
      "type": "function"
    },
    {
      "inputs": [
        {
          "internalType": "bytes4",
          "name": "interfaceId",
          "type": "bytes4"
        }
      ],
      "name": "supportsInterface",
      "outputs": [
        {
          "internalType": "bool",
          "name": "",
          "type": "bool"
        }
      ],
      "stateMutability": "view",
      "type": "function"
    },
    {
      "inputs": [
        {
          "internalType": "address",
          "name": "newOwner",
          "type": "address"
        }
      ],
      "name": "transferOwnership",
      "outputs": [],
      "stateMutability": "nonpayable",
      "type": "function"
    },
    {
      "inputs": [
        {
          "internalType": "address",
          "name": "",
          "type": "address"
        }
      ],
      "name": "userToVault",
      "outputs": [
        {
          "internalType": "address",
          "name": "",
          "type": "address"
        }
      ],
      "stateMutability": "view",
      "type": "function"
    },
    {
      "inputs": [],
      "name": "vaultImplementation",
      "outputs": [
        {
          "internalType": "address",
          "name": "",
          "type": "address"
        }
      ],
      "stateMutability": "view",
      "type": "function"
    },
    {
      "inputs": [],
      "name": "yieldOracle",
      "outputs": [
        {
          "internalType": "contract IYieldOracle",
          "name": "",
          "type": "address"
        }
      ],
      "stateMutability": "view",
      "type": "function"
    }
  ],
  "bytecode": "0x608060405234801561001057600080fd5b5061001961001e565b6100dd565b600054610100900460ff161561008a5760405162461bcd60e51b815260206004820152602760248201527f496e697469616c697a61626c653a20636f6e747261637420697320696e697469604482015266616c697a696e6760c81b606482015260840160405180910390fd5b60005460ff908116146100db576000805460ff191660ff9081179091556040519081527f7f26b83ff96e1f2b6a682f133852f6798a09c465da95921460cefb38474024989060200160405180910390a15b565b61174f806100ec6000396000f3fe608060405234801561001057600080fd5b506004361061018e5760003560e01c80638da5cb5b116100de578063bba48a9011610097578063d47ce0a611610071578063d47ce0a614610388578063d547741f1461039c578063ef88c31e146103af578063f2fde38b146103db57600080fd5b8063bba48a9014610338578063bc721a961461034c578063cc2a9a5b1461037557600080fd5b80638da5cb5b146102d25780639094a91e146102e357806391d14854146102f6578063a217fddf14610309578063a7f0e34214610311578063b98cca371461032557600080fd5b806353e78b6b1161014b578063692058c211610125578063692058c21461029b578063715018a6146102af57806374d4e491146102b75780637d1f2de7146102bf57600080fd5b806353e78b6b146102545780635d12928b14610267578063652b9b411461026f57600080fd5b806301ffc9a7146101935780631fccf672146101bb578063248a9ca3146101e65780632f2ff15d1461021757806336568abe1461022c57806344d00f821461023f575b600080fd5b6101a66101a13660046113cf565b6103ee565b60405190151581526020015b60405180910390f35b60fe546101ce906001600160a01b031681565b6040516001600160a01b0390911681526020016101b2565b6102096101f43660046113f9565b600090815260c9602052604090206001015490565b6040519081526020016101b2565b61022a610225366004611429565b610425565b005b61022a61023a366004611429565b61044f565b6102476104d2565b6040516101b29190611455565b61022a6102623660046114a2565b610534565b6101ce6105dd565b6101a661027d3660046114a2565b6001600160a01b0316600090815260fd602052604090205460ff1690565b610101546101ce906001600160a01b031681565b61022a6108bc565b60fc54610209565b60ff546101ce906001600160a01b031681565b6033546001600160a01b03166101ce565b6101ce6102f13660046113f9565b6108d0565b6101a6610304366004611429565b6108fa565b610209600081565b610102546101ce906001600160a01b031681565b6102476103333660046114bd565b610925565b610103546101ce906001600160a01b031681565b6101ce61035a3660046114a2565b60fb602052600090815260409020546001600160a01b031681565b61022a6103833660046114df565b610a32565b610100546101ce906001600160a01b031681565b61022a6103aa366004611429565b610daa565b6101ce6103bd3660046114a2565b6001600160a01b03908116600090815260fb60205260409020541690565b61022a6103e93660046114a2565b610dcf565b60006001600160e01b03198216637965db0b60e01b148061041f57506301ffc9a760e01b6001600160e01b03198316145b92915050565b600082815260c9602052604090206001015461044081610e48565b61044a8383610e52565b505050565b6001600160a01b03811633146104c45760405162461bcd60e51b815260206004820152602f60248201527f416363657373436f6e74726f6c3a2063616e206f6e6c792072656e6f756e636560448201526e103937b632b9903337b91039b2b63360891b60648201526084015b60405180910390fd5b6104ce8282610ed8565b5050565b606060fc80548060200260200160405190810160405280929190818152602001828054801561052a57602002820191906000526020600020905b81546001600160a01b0316815260019091019060200180831161050c575b5050505050905090565b61053c610f3f565b6001600160a01b0381166105925760405162461bcd60e51b815260206004820152601e60248201527f496e76616c696420696d706c656d656e746174696f6e2061646472657373000060448201526064016104bb565b61010380546001600160a01b0319166001600160a01b0383169081179091556040517f310ba5f1d2ed074b51e2eccd052a47ae9ab7c6b800d1fca3db3999d6a592ca0390600090a250565b60006105e7610f99565b33600090815260fb60205260409020546001600160a01b0316156106585760405162461bcd60e51b815260206004820152602260248201527f5661756c7420616c72656164792065786973747320666f72207468697320757360448201526132b960f11b60648201526084016104bb565b610103546001600160a01b03166106b15760405162461bcd60e51b815260206004820152601c60248201527f496e76616c6964207661756c7420696d706c656d656e746174696f6e0000000060448201526064016104bb565b610103546000906106ca906001600160a01b0316610ff2565b90506001600160a01b03811661071a5760405162461bcd60e51b815260206004820152601560248201527415985d5b1d0818dc99585d1a5bdb8819985a5b1959605a1b60448201526064016104bb565b33600090815260fb6020908152604080832080546001600160a01b038681166001600160a01b0319928316811790935560fc805460018181019092557f371f36870d18f32a11fea0f144b021c8b407bb50f8e0267c711123f454b963c0018054909316841790925582865260fd90945293829020805460ff191690941790935560fe5460ff54610100546101015461010254945163cc2a9a5b60e01b8152306004820152938616602485015291851660448401528416606483015283166084820152911660a482015263cc2a9a5b9060c401600060405180830381600087803b15801561080657600080fd5b505af115801561081a573d6000803e3d6000fd5b505060405163f2fde38b60e01b81523360048201526001600160a01b038416925063f2fde38b9150602401600060405180830381600087803b15801561085f57600080fd5b505af1158015610873573d6000803e3d6000fd5b50506040516001600160a01b03841692503391507f5d9c31ffa0fecffd7cf379989a3c7af252f0335e0d2a1320b55245912c781f5390600090a390506108b96001606555565b90565b6108c4610f3f565b6108ce6000611093565b565b60fc81815481106108e057600080fd5b6000918252602090912001546001600160a01b0316905081565b600091825260c9602090815260408084206001600160a01b0393909316845291905290205460ff1690565b60fc5460609080841061094857505060408051600081526020810190915261041f565b6000610954848661157f565b9050818111156109615750805b600061096d8683611592565b67ffffffffffffffff81111561098557610985611553565b6040519080825280602002602001820160405280156109ae578160200160208202803683370190505b509050855b82811015610a285760fc81815481106109ce576109ce6115a5565b6000918252602090912001546001600160a01b0316826109ee8984611592565b815181106109fe576109fe6115a5565b6001600160a01b039092166020928302919091019091015280610a20816115bb565b9150506109b3565b5095945050505050565b600054610100900460ff1615808015610a525750600054600160ff909116105b80610a6c5750303b158015610a6c575060005460ff166001145b610acf5760405162461bcd60e51b815260206004820152602e60248201527f496e697469616c697a61626c653a20636f6e747261637420697320616c72656160448201526d191e481a5b9a5d1a585b1a5e995960921b60648201526084016104bb565b6000805460ff191660011790558015610af2576000805461ff0019166101001790555b610afa6110e5565b610b02611114565b610b0a611143565b6001600160a01b038716610b605760405162461bcd60e51b815260206004820152601e60248201527f496e76616c696420696d706c656d656e746174696f6e2061646472657373000060448201526064016104bb565b6001600160a01b038616610bad5760405162461bcd60e51b8152602060048201526014602482015273496e76616c69642063555344206164647265737360601b60448201526064016104bb565b6001600160a01b038516610bfa5760405162461bcd60e51b8152602060048201526014602482015273496e76616c69642063455552206164647265737360601b60448201526064016104bb565b6001600160a01b038416610c485760405162461bcd60e51b8152602060048201526015602482015274496e76616c696420635245414c206164647265737360581b60448201526064016104bb565b6001600160a01b038316610c945760405162461bcd60e51b8152602060048201526013602482015272496e76616c696420444558206164647265737360681b60448201526064016104bb565b6001600160a01b038216610cea5760405162461bcd60e51b815260206004820152601c60248201527f496e76616c6964207969656c64206f7261636c6520616464726573730000000060448201526064016104bb565b61010380546001600160a01b03199081166001600160a01b038a81169190911790925560fe8054821689841617905560ff8054821688841617905561010080548216878416179055610101805482168684161790556101028054909116918416919091179055610d5b600033610e52565b8015610da1576000805461ff0019169055604051600181527f7f26b83ff96e1f2b6a682f133852f6798a09c465da95921460cefb38474024989060200160405180910390a15b50505050505050565b600082815260c96020526040902060010154610dc581610e48565b61044a8383610ed8565b610dd7610f3f565b6001600160a01b038116610e3c5760405162461bcd60e51b815260206004820152602660248201527f4f776e61626c653a206e6577206f776e657220697320746865207a65726f206160448201526564647265737360d01b60648201526084016104bb565b610e4581611093565b50565b610e45813361116a565b610e5c82826108fa565b6104ce57600082815260c9602090815260408083206001600160a01b03851684529091529020805460ff19166001179055610e943390565b6001600160a01b0316816001600160a01b0316837f2f8788117e7eff1d82e926ec794901d17c78024a50270940304540a733656f0d60405160405180910390a45050565b610ee282826108fa565b156104ce57600082815260c9602090815260408083206001600160a01b0385168085529252808320805460ff1916905551339285917ff6391f5c32d9c69d2a47ea670b442974b53935d1edc7fd64eb21e047a839171b9190a45050565b6033546001600160a01b031633146108ce5760405162461bcd60e51b815260206004820181905260248201527f4f776e61626c653a2063616c6c6572206973206e6f7420746865206f776e657260448201526064016104bb565b600260655403610feb5760405162461bcd60e51b815260206004820152601f60248201527f5265656e7472616e637947756172643a207265656e7472616e742063616c6c0060448201526064016104bb565b6002606555565b6000763d602d80600a3d3981f3363d3d373d3d3d363d730000008260601b60e81c176000526e5af43d82803e903d91602b57fd5bf38260781b17602052603760096000f090506001600160a01b0381166110875760405162461bcd60e51b8152602060048201526016602482015275115490cc4c4d8dce8818dc99585d194819985a5b195960521b60448201526064016104bb565b919050565b6001606555565b603380546001600160a01b038381166001600160a01b0319831681179093556040519116919082907f8be0079c531659141344cd1fd0a4f28419497f9722a3daafe3b4186f6b6457e090600090a35050565b600054610100900460ff1661110c5760405162461bcd60e51b81526004016104bb906115d4565b6108ce6111c3565b600054610100900460ff1661113b5760405162461bcd60e51b81526004016104bb906115d4565b6108ce6111f3565b600054610100900460ff166108ce5760405162461bcd60e51b81526004016104bb906115d4565b61117482826108fa565b6104ce576111818161121a565b61118c83602061122c565b60405160200161119d929190611643565b60408051601f198184030181529082905262461bcd60e51b82526104bb916004016116b8565b600054610100900460ff166111ea5760405162461bcd60e51b81526004016104bb906115d4565b6108ce33611093565b600054610100900460ff1661108c5760405162461bcd60e51b81526004016104bb906115d4565b606061041f6001600160a01b03831660145b6060600061123b8360026116eb565b61124690600261157f565b67ffffffffffffffff81111561125e5761125e611553565b6040519080825280601f01601f191660200182016040528015611288576020820181803683370190505b509050600360fc1b816000815181106112a3576112a36115a5565b60200101906001600160f81b031916908160001a905350600f60fb1b816001815181106112d2576112d26115a5565b60200101906001600160f81b031916908160001a90535060006112f68460026116eb565b61130190600161157f565b90505b6001811115611379576f181899199a1a9b1b9c1cb0b131b232b360811b85600f1660108110611335576113356115a5565b1a60f81b82828151811061134b5761134b6115a5565b60200101906001600160f81b031916908160001a90535060049490941c9361137281611702565b9050611304565b5083156113c85760405162461bcd60e51b815260206004820181905260248201527f537472696e67733a20686578206c656e67746820696e73756666696369656e7460448201526064016104bb565b9392505050565b6000602082840312156113e157600080fd5b81356001600160e01b0319811681146113c857600080fd5b60006020828403121561140b57600080fd5b5035919050565b80356001600160a01b038116811461108757600080fd5b6000806040838503121561143c57600080fd5b8235915061144c60208401611412565b90509250929050565b6020808252825182820181905260009190848201906040850190845b818110156114965783516001600160a01b031683529284019291840191600101611471565b50909695505050505050565b6000602082840312156114b457600080fd5b6113c882611412565b600080604083850312156114d057600080fd5b50508035926020909101359150565b60008060008060008060c087890312156114f857600080fd5b61150187611412565b955061150f60208801611412565b945061151d60408801611412565b935061152b60608801611412565b925061153960808801611412565b915061154760a08801611412565b90509295509295509295565b634e487b7160e01b600052604160045260246000fd5b634e487b7160e01b600052601160045260246000fd5b8082018082111561041f5761041f611569565b8181038181111561041f5761041f611569565b634e487b7160e01b600052603260045260246000fd5b6000600182016115cd576115cd611569565b5060010190565b6020808252602b908201527f496e697469616c697a61626c653a20636f6e7472616374206973206e6f74206960408201526a6e697469616c697a696e6760a81b606082015260800190565b60005b8381101561163a578181015183820152602001611622565b50506000910152565b7f416363657373436f6e74726f6c3a206163636f756e742000000000000000000081526000835161167b81601785016020880161161f565b7001034b99036b4b9b9b4b733903937b6329607d1b60179184019182015283516116ac81602884016020880161161f565b01602801949350505050565b60208152600082518060208401526116d781604085016020870161161f565b601f01601f19169190910160400192915050565b808202811582820484141761041f5761041f611569565b60008161171157611711611569565b50600019019056fea264697066735822122065592a1200389abdc9c838b4984424f194084d72417c279006dd38586c5bd92d64736f6c63430008140033",
  "linkReferences": {},
  "deployedLinkReferences": {}
}