{
  "_format": "hh-sol-artifact-1",
  "contractName": "XmentoVaultFactory",
  "sourceName": "contracts/XmentoVaultFactory.sol",
  "abi": [
    {
      "inputs": [],
      "stateMutability": "nonpayable",
      "type": "constructor"
    },
    {
      "anonymous": false,
      "inputs": [
        {
          "indexed": false,
          "internalType": "address",
          "name": "previousAdmin",
          "type": "address"
        },
        {
          "indexed": false,
          "internalType": "address",
          "name": "newAdmin",
          "type": "address"
        }
      ],
      "name": "AdminChanged",
      "type": "event"
    },
    {
      "anonymous": false,
      "inputs": [
        {
          "indexed": true,
          "internalType": "address",
          "name": "beacon",
          "type": "address"
        }
      ],
      "name": "BeaconUpgraded",
      "type": "event"
    },
    {
      "anonymous": false,
      "inputs": [
        {
          "indexed": true,
          "internalType": "address",
          "name": "newImplementation",
          "type": "address"
        }
      ],
      "name": "ImplementationUpdated",
      "type": "event"
    },
    {
      "anonymous": false,
      "inputs": [
        {
          "indexed": false,
          "internalType": "uint8",
          "name": "version",
          "type": "uint8"
        }
      ],
      "name": "Initialized",
      "type": "event"
    },
    {
      "anonymous": false,
      "inputs": [
        {
          "indexed": true,
          "internalType": "address",
          "name": "previousOwner",
          "type": "address"
        },
        {
          "indexed": true,
          "internalType": "address",
          "name": "newOwner",
          "type": "address"
        }
      ],
      "name": "OwnershipTransferred",
      "type": "event"
    },
    {
      "anonymous": false,
      "inputs": [
        {
          "indexed": true,
          "internalType": "bytes32",
          "name": "role",
          "type": "bytes32"
        },
        {
          "indexed": true,
          "internalType": "bytes32",
          "name": "previousAdminRole",
          "type": "bytes32"
        },
        {
          "indexed": true,
          "internalType": "bytes32",
          "name": "newAdminRole",
          "type": "bytes32"
        }
      ],
      "name": "RoleAdminChanged",
      "type": "event"
    },
    {
      "anonymous": false,
      "inputs": [
        {
          "indexed": true,
          "internalType": "bytes32",
          "name": "role",
          "type": "bytes32"
        },
        {
          "indexed": true,
          "internalType": "address",
          "name": "account",
          "type": "address"
        },
        {
          "indexed": true,
          "internalType": "address",
          "name": "sender",
          "type": "address"
        }
      ],
      "name": "RoleGranted",
      "type": "event"
    },
    {
      "anonymous": false,
      "inputs": [
        {
          "indexed": true,
          "internalType": "bytes32",
          "name": "role",
          "type": "bytes32"
        },
        {
          "indexed": true,
          "internalType": "address",
          "name": "account",
          "type": "address"
        },
        {
          "indexed": true,
          "internalType": "address",
          "name": "sender",
          "type": "address"
        }
      ],
      "name": "RoleRevoked",
      "type": "event"
    },
    {
      "anonymous": false,
      "inputs": [
        {
          "indexed": true,
          "internalType": "address",
          "name": "implementation",
          "type": "address"
        }
      ],
      "name": "Upgraded",
      "type": "event"
    },
    {
      "anonymous": false,
      "inputs": [
        {
          "indexed": true,
          "internalType": "address",
          "name": "user",
          "type": "address"
        },
        {
          "indexed": true,
          "internalType": "address",
          "name": "vaultAddress",
          "type": "address"
        }
      ],
      "name": "VaultCreated",
      "type": "event"
    },
    {
      "inputs": [],
      "name": "DEFAULT_ADMIN_ROLE",
      "outputs": [
        {
          "internalType": "bytes32",
          "name": "",
          "type": "bytes32"
        }
      ],
      "stateMutability": "view",
      "type": "function"
    },
    {
      "inputs": [
        {
          "internalType": "uint256",
          "name": "",
          "type": "uint256"
        }
      ],
      "name": "allVaults",
      "outputs": [
        {
          "internalType": "address",
          "name": "",
          "type": "address"
        }
      ],
      "stateMutability": "view",
      "type": "function"
    },
    {
      "inputs": [],
      "name": "cEUR",
      "outputs": [
        {
          "internalType": "address",
          "name": "",
          "type": "address"
        }
      ],
      "stateMutability": "view",
      "type": "function"
    },
    {
      "inputs": [],
      "name": "cREAL",
      "outputs": [
        {
          "internalType": "address",
          "name": "",
          "type": "address"
        }
      ],
      "stateMutability": "view",
      "type": "function"
    },
    {
      "inputs": [],
      "name": "cUSD",
      "outputs": [
        {
          "internalType": "address",
          "name": "",
          "type": "address"
        }
      ],
      "stateMutability": "view",
      "type": "function"
    },
    {
      "inputs": [],
      "name": "createVault",
      "outputs": [
        {
          "internalType": "address",
          "name": "",
          "type": "address"
        }
      ],
      "stateMutability": "nonpayable",
      "type": "function"
    },
    {
      "inputs": [],
      "name": "dex",
      "outputs": [
        {
          "internalType": "address",
          "name": "",
          "type": "address"
        }
      ],
      "stateMutability": "view",
      "type": "function"
    },
    {
      "inputs": [
        {
          "internalType": "bytes32",
          "name": "role",
          "type": "bytes32"
        }
      ],
      "name": "getRoleAdmin",
      "outputs": [
        {
          "internalType": "bytes32",
          "name": "",
          "type": "bytes32"
        }
      ],
      "stateMutability": "view",
      "type": "function"
    },
    {
      "inputs": [
        {
          "internalType": "address",
          "name": "user",
          "type": "address"
        }
      ],
      "name": "getVaultAddress",
      "outputs": [
        {
          "internalType": "address",
          "name": "",
          "type": "address"
        }
      ],
      "stateMutability": "view",
      "type": "function"
    },
    {
      "inputs": [],
      "name": "getVaultCount",
      "outputs": [
        {
          "internalType": "uint256",
          "name": "",
          "type": "uint256"
        }
      ],
      "stateMutability": "view",
      "type": "function"
    },
    {
      "inputs": [],
      "name": "getVaults",
      "outputs": [
        {
          "internalType": "address[]",
          "name": "",
          "type": "address[]"
        }
      ],
      "stateMutability": "view",
      "type": "function"
    },
    {
      "inputs": [
        {
          "internalType": "uint256",
          "name": "start",
          "type": "uint256"
        },
        {
          "internalType": "uint256",
          "name": "count",
          "type": "uint256"
        }
      ],
      "name": "getVaults",
      "outputs": [
        {
          "internalType": "address[]",
          "name": "",
          "type": "address[]"
        }
      ],
      "stateMutability": "view",
      "type": "function"
    },
    {
      "inputs": [
        {
          "internalType": "bytes32",
          "name": "role",
          "type": "bytes32"
        },
        {
          "internalType": "address",
          "name": "account",
          "type": "address"
        }
      ],
      "name": "grantRole",
      "outputs": [],
      "stateMutability": "nonpayable",
      "type": "function"
    },
    {
      "inputs": [
        {
          "internalType": "bytes32",
          "name": "role",
          "type": "bytes32"
        },
        {
          "internalType": "address",
          "name": "account",
          "type": "address"
        }
      ],
      "name": "hasRole",
      "outputs": [
        {
          "internalType": "bool",
          "name": "",
          "type": "bool"
        }
      ],
      "stateMutability": "view",
      "type": "function"
    },
    {
      "inputs": [
        {
          "internalType": "address",
          "name": "_vaultImplementation",
          "type": "address"
        },
        {
          "internalType": "address",
          "name": "_cUSD",
          "type": "address"
        },
        {
          "internalType": "address",
          "name": "_cEUR",
          "type": "address"
        },
        {
          "internalType": "address",
          "name": "_cREAL",
          "type": "address"
        },
        {
          "internalType": "address",
          "name": "_dex",
          "type": "address"
        },
        {
          "internalType": "address",
          "name": "_yieldOracle",
          "type": "address"
        }
      ],
      "name": "initialize",
      "outputs": [],
      "stateMutability": "nonpayable",
      "type": "function"
    },
    {
      "inputs": [
        {
          "internalType": "address",
          "name": "vault",
          "type": "address"
        }
      ],
      "name": "isVault",
      "outputs": [
        {
          "internalType": "bool",
          "name": "",
          "type": "bool"
        }
      ],
      "stateMutability": "view",
      "type": "function"
    },
    {
      "inputs": [],
      "name": "owner",
      "outputs": [
        {
          "internalType": "address",
          "name": "",
          "type": "address"
        }
      ],
      "stateMutability": "view",
      "type": "function"
    },
    {
      "inputs": [],
      "name": "proxiableUUID",
      "outputs": [
        {
          "internalType": "bytes32",
          "name": "",
          "type": "bytes32"
        }
      ],
      "stateMutability": "view",
      "type": "function"
    },
    {
      "inputs": [],
      "name": "renounceOwnership",
      "outputs": [],
      "stateMutability": "nonpayable",
      "type": "function"
    },
    {
      "inputs": [
        {
          "internalType": "bytes32",
          "name": "role",
          "type": "bytes32"
        },
        {
          "internalType": "address",
          "name": "account",
          "type": "address"
        }
      ],
      "name": "renounceRole",
      "outputs": [],
      "stateMutability": "nonpayable",
      "type": "function"
    },
    {
      "inputs": [
        {
          "internalType": "bytes32",
          "name": "role",
          "type": "bytes32"
        },
        {
          "internalType": "address",
          "name": "account",
          "type": "address"
        }
      ],
      "name": "revokeRole",
      "outputs": [],
      "stateMutability": "nonpayable",
      "type": "function"
    },
    {
      "inputs": [
        {
          "internalType": "address",
          "name": "implementation",
          "type": "address"
        }
      ],
      "name": "setVaultImplementation",
      "outputs": [],
      "stateMutability": "nonpayable",
      "type": "function"
    },
    {
      "inputs": [
        {
          "internalType": "bytes4",
          "name": "interfaceId",
          "type": "bytes4"
        }
      ],
      "name": "supportsInterface",
      "outputs": [
        {
          "internalType": "bool",
          "name": "",
          "type": "bool"
        }
      ],
      "stateMutability": "view",
      "type": "function"
    },
    {
      "inputs": [
        {
          "internalType": "address",
          "name": "newOwner",
          "type": "address"
        }
      ],
      "name": "transferOwnership",
      "outputs": [],
      "stateMutability": "nonpayable",
      "type": "function"
    },
    {
      "inputs": [
        {
          "internalType": "address",
          "name": "newImplementation",
          "type": "address"
        }
      ],
      "name": "upgradeTo",
      "outputs": [],
      "stateMutability": "nonpayable",
      "type": "function"
    },
    {
      "inputs": [
        {
          "internalType": "address",
          "name": "newImplementation",
          "type": "address"
        },
        {
          "internalType": "bytes",
          "name": "data",
          "type": "bytes"
        }
      ],
      "name": "upgradeToAndCall",
      "outputs": [],
      "stateMutability": "payable",
      "type": "function"
    },
    {
      "inputs": [
        {
          "internalType": "address",
          "name": "",
          "type": "address"
        }
      ],
      "name": "userToVault",
      "outputs": [
        {
          "internalType": "address",
          "name": "",
          "type": "address"
        }
      ],
      "stateMutability": "view",
      "type": "function"
    },
    {
      "inputs": [],
      "name": "vaultImplementation",
      "outputs": [
        {
          "internalType": "address",
          "name": "",
          "type": "address"
        }
      ],
      "stateMutability": "view",
      "type": "function"
    },
    {
      "inputs": [],
      "name": "yieldOracle",
      "outputs": [
        {
          "internalType": "contract IYieldOracle",
          "name": "",
          "type": "address"
        }
      ],
      "stateMutability": "view",
      "type": "function"
    }
  ],
  "bytecode": "0x60a06040523060805234801561001457600080fd5b5061001d610022565b6100e1565b600054610100900460ff161561008e5760405162461bcd60e51b815260206004820152602760248201527f496e697469616c697a61626c653a20636f6e747261637420697320696e697469604482015266616c697a696e6760c81b606482015260840160405180910390fd5b60005460ff908116146100df576000805460ff191660ff9081179091556040519081527f7f26b83ff96e1f2b6a682f133852f6798a09c465da95921460cefb38474024989060200160405180910390a15b565b60805161213762000119600039600081816106b0015281816106f0015281816107f20152818161083201526108c101526121376000f3fe6080604052600436106101c25760003560e01c806374d4e491116100f7578063b98cca3711610095578063d47ce0a611610064578063d47ce0a614610527578063d547741f14610548578063ef88c31e14610568578063f2fde38b146105a257600080fd5b8063b98cca371461048f578063bba48a90146104af578063bc721a96146104d0578063cc2a9a5b1461050757600080fd5b80639094a91e116100d15780639094a91e1461041957806391d1485414610439578063a217fddf14610459578063a7f0e3421461046e57600080fd5b806374d4e491146103c45780637d1f2de7146103da5780638da5cb5b146103fb57600080fd5b80634f1ef286116101645780635d12928b1161013e5780635d12928b1461033f578063652b9b4114610354578063692058c21461038e578063715018a6146103af57600080fd5b80634f1ef286146102f757806352d1902d1461030a57806353e78b6b1461031f57600080fd5b80632f2ff15d116101a05780632f2ff15d1461027357806336568abe146102955780633659cfe6146102b557806344d00f82146102d557600080fd5b806301ffc9a7146101c75780631fccf672146101fc578063248a9ca314610235575b600080fd5b3480156101d357600080fd5b506101e76101e2366004611be1565b6105c2565b60405190151581526020015b60405180910390f35b34801561020857600080fd5b506101625461021d906001600160a01b031681565b6040516001600160a01b0390911681526020016101f3565b34801561024157600080fd5b50610265610250366004611c0b565b600090815260c9602052604090206001015490565b6040519081526020016101f3565b34801561027f57600080fd5b5061029361028e366004611c3b565b6105f9565b005b3480156102a157600080fd5b506102936102b0366004611c3b565b610623565b3480156102c157600080fd5b506102936102d0366004611c67565b6106a6565b3480156102e157600080fd5b506102ea610785565b6040516101f39190611c82565b610293610305366004611ce5565b6107e8565b34801561031657600080fd5b506102656108b4565b34801561032b57600080fd5b5061029361033a366004611c67565b610968565b34801561034b57600080fd5b5061021d610a11565b34801561036057600080fd5b506101e761036f366004611c67565b6001600160a01b03166000908152610161602052604090205460ff1690565b34801561039a57600080fd5b506101655461021d906001600160a01b031681565b3480156103bb57600080fd5b50610293610cf3565b3480156103d057600080fd5b5061016054610265565b3480156103e657600080fd5b506101635461021d906001600160a01b031681565b34801561040757600080fd5b506033546001600160a01b031661021d565b34801561042557600080fd5b5061021d610434366004611c0b565b610d07565b34801561044557600080fd5b506101e7610454366004611c3b565b610d32565b34801561046557600080fd5b50610265600081565b34801561047a57600080fd5b506101665461021d906001600160a01b031681565b34801561049b57600080fd5b506102ea6104aa366004611da7565b610d5d565b3480156104bb57600080fd5b506101675461021d906001600160a01b031681565b3480156104dc57600080fd5b5061021d6104eb366004611c67565b61015f602052600090815260409020546001600160a01b031681565b34801561051357600080fd5b50610293610522366004611dc9565b610e6c565b34801561053357600080fd5b506101645461021d906001600160a01b031681565b34801561055457600080fd5b50610293610563366004611c3b565b611202565b34801561057457600080fd5b5061021d610583366004611c67565b6001600160a01b03908116600090815261015f60205260409020541690565b3480156105ae57600080fd5b506102936105bd366004611c67565b611227565b60006001600160e01b03198216637965db0b60e01b14806105f357506301ffc9a760e01b6001600160e01b03198316145b92915050565b600082815260c960205260409020600101546106148161129d565b61061e83836112a7565b505050565b6001600160a01b03811633146106985760405162461bcd60e51b815260206004820152602f60248201527f416363657373436f6e74726f6c3a2063616e206f6e6c792072656e6f756e636560448201526e103937b632b9903337b91039b2b63360891b60648201526084015b60405180910390fd5b6106a2828261132d565b5050565b6001600160a01b037f00000000000000000000000000000000000000000000000000000000000000001630036106ee5760405162461bcd60e51b815260040161068f90611e3d565b7f00000000000000000000000000000000000000000000000000000000000000006001600160a01b03166107376000805160206120bb833981519152546001600160a01b031690565b6001600160a01b03161461075d5760405162461bcd60e51b815260040161068f90611e89565b61076681611394565b604080516000808252602082019092526107829183919061139c565b50565b60606101608054806020026020016040519081016040528092919081815260200182805480156107de57602002820191906000526020600020905b81546001600160a01b031681526001909101906020018083116107c0575b5050505050905090565b6001600160a01b037f00000000000000000000000000000000000000000000000000000000000000001630036108305760405162461bcd60e51b815260040161068f90611e3d565b7f00000000000000000000000000000000000000000000000000000000000000006001600160a01b03166108796000805160206120bb833981519152546001600160a01b031690565b6001600160a01b03161461089f5760405162461bcd60e51b815260040161068f90611e89565b6108a882611394565b6106a28282600161139c565b6000306001600160a01b037f000000000000000000000000000000000000000000000000000000000000000016146109545760405162461bcd60e51b815260206004820152603860248201527f555550535570677261646561626c653a206d757374206e6f742062652063616c60448201527f6c6564207468726f7567682064656c656761746563616c6c0000000000000000606482015260840161068f565b506000805160206120bb8339815191525b90565b610970611507565b6001600160a01b0381166109c65760405162461bcd60e51b815260206004820152601e60248201527f496e76616c696420696d706c656d656e746174696f6e20616464726573730000604482015260640161068f565b61016780546001600160a01b0319166001600160a01b0383169081179091556040517f310ba5f1d2ed074b51e2eccd052a47ae9ab7c6b800d1fca3db3999d6a592ca0390600090a250565b6000610a1b611561565b33600090815261015f60205260409020546001600160a01b031615610a8d5760405162461bcd60e51b815260206004820152602260248201527f5661756c7420616c72656164792065786973747320666f72207468697320757360448201526132b960f11b606482015260840161068f565b610167546001600160a01b0316610ae65760405162461bcd60e51b815260206004820152601c60248201527f496e76616c6964207661756c7420696d706c656d656e746174696f6e00000000604482015260640161068f565b61016754600090610aff906001600160a01b03166115ba565b90506001600160a01b038116610b4f5760405162461bcd60e51b815260206004820152601560248201527415985d5b1d0818dc99585d1a5bdb8819985a5b1959605a1b604482015260640161068f565b33600090815261015f6020908152604080832080546001600160a01b038681166001600160a01b03199283168117909355610160805460018181019092557fec7e130cdeeae65215fabbcddb1de429e603c4887cc659532eda903e49339663018054909316841790925582865261016190945293829020805460ff19169094179093556101625461016354610164546101655461016654945163cc2a9a5b60e01b8152306004820152938616602485015291851660448401528416606483015283166084820152911660a482015263cc2a9a5b9060c401600060405180830381600087803b158015610c4057600080fd5b505af1158015610c54573d6000803e3d6000fd5b505060405163f2fde38b60e01b81523360048201526001600160a01b038416925063f2fde38b9150602401600060405180830381600087803b158015610c9957600080fd5b505af1158015610cad573d6000803e3d6000fd5b50506040516001600160a01b03841692503391507f5d9c31ffa0fecffd7cf379989a3c7af252f0335e0d2a1320b55245912c781f5390600090a390506109656001606555565b610cfb611507565b610d05600061165b565b565b6101608181548110610d1857600080fd5b6000918252602090912001546001600160a01b0316905081565b600091825260c9602090815260408084206001600160a01b0393909316845291905290205460ff1690565b61016054606090808410610d815750506040805160008152602081019091526105f3565b6000610d8d8486611eeb565b905081811115610d9a5750805b6000610da68683611efe565b67ffffffffffffffff811115610dbe57610dbe611ccf565b604051908082528060200260200182016040528015610de7578160200160208202803683370190505b509050855b82811015610e62576101608181548110610e0857610e08611f11565b6000918252602090912001546001600160a01b031682610e288984611efe565b81518110610e3857610e38611f11565b6001600160a01b039092166020928302919091019091015280610e5a81611f27565b915050610dec565b5095945050505050565b600054610100900460ff1615808015610e8c5750600054600160ff909116105b80610ea65750303b158015610ea6575060005460ff166001145b610f095760405162461bcd60e51b815260206004820152602e60248201527f496e697469616c697a61626c653a20636f6e747261637420697320616c72656160448201526d191e481a5b9a5d1a585b1a5e995960921b606482015260840161068f565b6000805460ff191660011790558015610f2c576000805461ff0019166101001790555b610f346116ad565b610f3c6116dc565b610f4461170b565b610f4c61170b565b610f553361165b565b610f606000336112a7565b6001600160a01b038716610fb65760405162461bcd60e51b815260206004820152601e60248201527f496e76616c696420696d706c656d656e746174696f6e20616464726573730000604482015260640161068f565b6001600160a01b0386166110035760405162461bcd60e51b8152602060048201526014602482015273496e76616c69642063555344206164647265737360601b604482015260640161068f565b6001600160a01b0385166110505760405162461bcd60e51b8152602060048201526014602482015273496e76616c69642063455552206164647265737360601b604482015260640161068f565b6001600160a01b03841661109e5760405162461bcd60e51b8152602060048201526015602482015274496e76616c696420635245414c206164647265737360581b604482015260640161068f565b6001600160a01b0383166110ea5760405162461bcd60e51b8152602060048201526013602482015272496e76616c696420444558206164647265737360681b604482015260640161068f565b6001600160a01b0382166111405760405162461bcd60e51b815260206004820152601c60248201527f496e76616c6964207969656c64206f7261636c65206164647265737300000000604482015260640161068f565b61016780546001600160a01b03199081166001600160a01b038a8116919091179092556101628054821689841617905561016380548216888416179055610164805482168784161790556101658054821686841617905561016680549091169184169190911790556111b36000336112a7565b80156111f9576000805461ff0019169055604051600181527f7f26b83ff96e1f2b6a682f133852f6798a09c465da95921460cefb38474024989060200160405180910390a15b50505050505050565b600082815260c9602052604090206001015461121d8161129d565b61061e838361132d565b61122f611507565b6001600160a01b0381166112945760405162461bcd60e51b815260206004820152602660248201527f4f776e61626c653a206e6577206f776e657220697320746865207a65726f206160448201526564647265737360d01b606482015260840161068f565b6107828161165b565b6107828133611732565b6112b18282610d32565b6106a257600082815260c9602090815260408083206001600160a01b03851684529091529020805460ff191660011790556112e93390565b6001600160a01b0316816001600160a01b0316837f2f8788117e7eff1d82e926ec794901d17c78024a50270940304540a733656f0d60405160405180910390a45050565b6113378282610d32565b156106a257600082815260c9602090815260408083206001600160a01b0385168085529252808320805460ff1916905551339285917ff6391f5c32d9c69d2a47ea670b442974b53935d1edc7fd64eb21e047a839171b9190a45050565b610782611507565b7f4910fdfa16fed3260ed0e7147f7cc6da11a60208b5b9406d12a635614ffd91435460ff16156113cf5761061e8361178b565b826001600160a01b03166352d1902d6040518163ffffffff1660e01b8152600401602060405180830381865afa925050508015611429575060408051601f3d908101601f1916820190925261142691810190611f40565b60015b61148c5760405162461bcd60e51b815260206004820152602e60248201527f45524331393637557067726164653a206e657720696d706c656d656e7461746960448201526d6f6e206973206e6f74205555505360901b606482015260840161068f565b6000805160206120bb83398151915281146114fb5760405162461bcd60e51b815260206004820152602960248201527f45524331393637557067726164653a20756e737570706f727465642070726f786044820152681a58589b195555525160ba1b606482015260840161068f565b5061061e838383611827565b6033546001600160a01b03163314610d055760405162461bcd60e51b815260206004820181905260248201527f4f776e61626c653a2063616c6c6572206973206e6f7420746865206f776e6572604482015260640161068f565b6002606554036115b35760405162461bcd60e51b815260206004820152601f60248201527f5265656e7472616e637947756172643a207265656e7472616e742063616c6c00604482015260640161068f565b6002606555565b6000763d602d80600a3d3981f3363d3d373d3d3d363d730000008260601b60e81c176000526e5af43d82803e903d91602b57fd5bf38260781b17602052603760096000f090506001600160a01b03811661164f5760405162461bcd60e51b8152602060048201526016602482015275115490cc4c4d8dce8818dc99585d194819985a5b195960521b604482015260640161068f565b919050565b6001606555565b603380546001600160a01b038381166001600160a01b0319831681179093556040519116919082907f8be0079c531659141344cd1fd0a4f28419497f9722a3daafe3b4186f6b6457e090600090a35050565b600054610100900460ff166116d45760405162461bcd60e51b815260040161068f90611f59565b610d05611852565b600054610100900460ff166117035760405162461bcd60e51b815260040161068f90611f59565b610d05611882565b600054610100900460ff16610d055760405162461bcd60e51b815260040161068f90611f59565b61173c8282610d32565b6106a257611749816118a9565b6117548360206118bb565b604051602001611765929190611fc8565b60408051601f198184030181529082905262461bcd60e51b825261068f9160040161203d565b6001600160a01b0381163b6117f85760405162461bcd60e51b815260206004820152602d60248201527f455243313936373a206e657720696d706c656d656e746174696f6e206973206e60448201526c1bdd08184818dbdb9d1c9858dd609a1b606482015260840161068f565b6000805160206120bb83398151915280546001600160a01b0319166001600160a01b0392909216919091179055565b61183083611a5e565b60008251118061183d5750805b1561061e5761184c8383611a9e565b50505050565b600054610100900460ff166118795760405162461bcd60e51b815260040161068f90611f59565b610d053361165b565b600054610100900460ff166116545760405162461bcd60e51b815260040161068f90611f59565b60606105f36001600160a01b03831660145b606060006118ca836002612070565b6118d5906002611eeb565b67ffffffffffffffff8111156118ed576118ed611ccf565b6040519080825280601f01601f191660200182016040528015611917576020820181803683370190505b509050600360fc1b8160008151811061193257611932611f11565b60200101906001600160f81b031916908160001a905350600f60fb1b8160018151811061196157611961611f11565b60200101906001600160f81b031916908160001a9053506000611985846002612070565b611990906001611eeb565b90505b6001811115611a08576f181899199a1a9b1b9c1cb0b131b232b360811b85600f16601081106119c4576119c4611f11565b1a60f81b8282815181106119da576119da611f11565b60200101906001600160f81b031916908160001a90535060049490941c93611a0181612087565b9050611993565b508315611a575760405162461bcd60e51b815260206004820181905260248201527f537472696e67733a20686578206c656e67746820696e73756666696369656e74604482015260640161068f565b9392505050565b611a678161178b565b6040516001600160a01b038216907fbc7cd75a20ee27fd9adebab32041f755214dbc6bffa90cc0225b39da2e5c2d3b90600090a250565b6060611a5783836040518060600160405280602781526020016120db602791396060600080856001600160a01b031685604051611adb919061209e565b600060405180830381855af49150503d8060008114611b16576040519150601f19603f3d011682016040523d82523d6000602084013e611b1b565b606091505b5091509150611b2c86838387611b36565b9695505050505050565b60608315611ba5578251600003611b9e576001600160a01b0385163b611b9e5760405162461bcd60e51b815260206004820152601d60248201527f416464726573733a2063616c6c20746f206e6f6e2d636f6e7472616374000000604482015260640161068f565b5081611baf565b611baf8383611bb7565b949350505050565b815115611bc75781518083602001fd5b8060405162461bcd60e51b815260040161068f919061203d565b600060208284031215611bf357600080fd5b81356001600160e01b031981168114611a5757600080fd5b600060208284031215611c1d57600080fd5b5035919050565b80356001600160a01b038116811461164f57600080fd5b60008060408385031215611c4e57600080fd5b82359150611c5e60208401611c24565b90509250929050565b600060208284031215611c7957600080fd5b611a5782611c24565b6020808252825182820181905260009190848201906040850190845b81811015611cc35783516001600160a01b031683529284019291840191600101611c9e565b50909695505050505050565b634e487b7160e01b600052604160045260246000fd5b60008060408385031215611cf857600080fd5b611d0183611c24565b9150602083013567ffffffffffffffff80821115611d1e57600080fd5b818501915085601f830112611d3257600080fd5b813581811115611d4457611d44611ccf565b604051601f8201601f19908116603f01168101908382118183101715611d6c57611d6c611ccf565b81604052828152886020848701011115611d8557600080fd5b8260208601602083013760006020848301015280955050505050509250929050565b60008060408385031215611dba57600080fd5b50508035926020909101359150565b60008060008060008060c08789031215611de257600080fd5b611deb87611c24565b9550611df960208801611c24565b9450611e0760408801611c24565b9350611e1560608801611c24565b9250611e2360808801611c24565b9150611e3160a08801611c24565b90509295509295509295565b6020808252602c908201527f46756e6374696f6e206d7573742062652063616c6c6564207468726f7567682060408201526b19195b1959d85d1958d85b1b60a21b606082015260800190565b6020808252602c908201527f46756e6374696f6e206d7573742062652063616c6c6564207468726f7567682060408201526b6163746976652070726f787960a01b606082015260800190565b634e487b7160e01b600052601160045260246000fd5b808201808211156105f3576105f3611ed5565b818103818111156105f3576105f3611ed5565b634e487b7160e01b600052603260045260246000fd5b600060018201611f3957611f39611ed5565b5060010190565b600060208284031215611f5257600080fd5b5051919050565b6020808252602b908201527f496e697469616c697a61626c653a20636f6e7472616374206973206e6f74206960408201526a6e697469616c697a696e6760a81b606082015260800190565b60005b83811015611fbf578181015183820152602001611fa7565b50506000910152565b7f416363657373436f6e74726f6c3a206163636f756e7420000000000000000000815260008351612000816017850160208801611fa4565b7001034b99036b4b9b9b4b733903937b6329607d1b6017918401918201528351612031816028840160208801611fa4565b01602801949350505050565b602081526000825180602084015261205c816040850160208701611fa4565b601f01601f19169190910160400192915050565b80820281158282048414176105f3576105f3611ed5565b60008161209657612096611ed5565b506000190190565b600082516120b0818460208701611fa4565b919091019291505056fe360894a13ba1a3210667c828492db98dca3e2076cc3735a920a3ca505d382bbc416464726573733a206c6f772d6c6576656c2064656c65676174652063616c6c206661696c6564a264697066735822122095fede13f2cfd0e062f27fcff76552efbdc03959df7ac780a22da7e2af6ae83364736f6c63430008140033",
  "linkReferences": {},
  "deployedLinkReferences": {}
}