{
  "_format": "hh-sol-artifact-1",
  "contractName": "XmentoVaultFactory",
  "sourceName": "contracts/XmentoVaultFactory.sol",
  "abi": [
    {
      "inputs": [],
      "stateMutability": "nonpayable",
      "type": "constructor"
    },
    {
      "anonymous": false,
      "inputs": [
        {
          "indexed": false,
          "internalType": "address",
          "name": "previousAdmin",
          "type": "address"
        },
        {
          "indexed": false,
          "internalType": "address",
          "name": "newAdmin",
          "type": "address"
        }
      ],
      "name": "AdminChanged",
      "type": "event"
    },
    {
      "anonymous": false,
      "inputs": [
        {
          "indexed": true,
          "internalType": "address",
          "name": "beacon",
          "type": "address"
        }
      ],
      "name": "BeaconUpgraded",
      "type": "event"
    },
    {
      "anonymous": false,
      "inputs": [
        {
          "indexed": true,
          "internalType": "address",
          "name": "newImplementation",
          "type": "address"
        }
      ],
      "name": "ImplementationUpdated",
      "type": "event"
    },
    {
      "anonymous": false,
      "inputs": [
        {
          "indexed": false,
          "internalType": "uint8",
          "name": "version",
          "type": "uint8"
        }
      ],
      "name": "Initialized",
      "type": "event"
    },
    {
      "anonymous": false,
      "inputs": [
        {
          "indexed": true,
          "internalType": "address",
          "name": "previousOwner",
          "type": "address"
        },
        {
          "indexed": true,
          "internalType": "address",
          "name": "newOwner",
          "type": "address"
        }
      ],
      "name": "OwnershipTransferred",
      "type": "event"
    },
    {
      "anonymous": false,
      "inputs": [
        {
          "indexed": true,
          "internalType": "bytes32",
          "name": "role",
          "type": "bytes32"
        },
        {
          "indexed": true,
          "internalType": "bytes32",
          "name": "previousAdminRole",
          "type": "bytes32"
        },
        {
          "indexed": true,
          "internalType": "bytes32",
          "name": "newAdminRole",
          "type": "bytes32"
        }
      ],
      "name": "RoleAdminChanged",
      "type": "event"
    },
    {
      "anonymous": false,
      "inputs": [
        {
          "indexed": true,
          "internalType": "bytes32",
          "name": "role",
          "type": "bytes32"
        },
        {
          "indexed": true,
          "internalType": "address",
          "name": "account",
          "type": "address"
        },
        {
          "indexed": true,
          "internalType": "address",
          "name": "sender",
          "type": "address"
        }
      ],
      "name": "RoleGranted",
      "type": "event"
    },
    {
      "anonymous": false,
      "inputs": [
        {
          "indexed": true,
          "internalType": "bytes32",
          "name": "role",
          "type": "bytes32"
        },
        {
          "indexed": true,
          "internalType": "address",
          "name": "account",
          "type": "address"
        },
        {
          "indexed": true,
          "internalType": "address",
          "name": "sender",
          "type": "address"
        }
      ],
      "name": "RoleRevoked",
      "type": "event"
    },
    {
      "anonymous": false,
      "inputs": [
        {
          "indexed": true,
          "internalType": "address",
          "name": "implementation",
          "type": "address"
        }
      ],
      "name": "Upgraded",
      "type": "event"
    },
    {
      "anonymous": false,
      "inputs": [
        {
          "indexed": true,
          "internalType": "address",
          "name": "user",
          "type": "address"
        },
        {
          "indexed": true,
          "internalType": "address",
          "name": "vaultAddress",
          "type": "address"
        }
      ],
      "name": "VaultCreated",
      "type": "event"
    },
    {
      "inputs": [],
      "name": "DEFAULT_ADMIN_ROLE",
      "outputs": [
        {
          "internalType": "bytes32",
          "name": "",
          "type": "bytes32"
        }
      ],
      "stateMutability": "view",
      "type": "function"
    },
    {
      "inputs": [
        {
          "internalType": "uint256",
          "name": "",
          "type": "uint256"
        }
      ],
      "name": "allVaults",
      "outputs": [
        {
          "internalType": "address",
          "name": "",
          "type": "address"
        }
      ],
      "stateMutability": "view",
      "type": "function"
    },
    {
      "inputs": [],
      "name": "cEUR",
      "outputs": [
        {
          "internalType": "address",
          "name": "",
          "type": "address"
        }
      ],
      "stateMutability": "view",
      "type": "function"
    },
    {
      "inputs": [],
      "name": "cREAL",
      "outputs": [
        {
          "internalType": "address",
          "name": "",
          "type": "address"
        }
      ],
      "stateMutability": "view",
      "type": "function"
    },
    {
      "inputs": [],
      "name": "cUSD",
      "outputs": [
        {
          "internalType": "address",
          "name": "",
          "type": "address"
        }
      ],
      "stateMutability": "view",
      "type": "function"
    },
    {
      "inputs": [],
      "name": "createVault",
      "outputs": [
        {
          "internalType": "address",
          "name": "",
          "type": "address"
        }
      ],
      "stateMutability": "nonpayable",
      "type": "function"
    },
    {
      "inputs": [],
      "name": "dex",
      "outputs": [
        {
          "internalType": "address",
          "name": "",
          "type": "address"
        }
      ],
      "stateMutability": "view",
      "type": "function"
    },
    {
      "inputs": [
        {
          "internalType": "bytes32",
          "name": "role",
          "type": "bytes32"
        }
      ],
      "name": "getRoleAdmin",
      "outputs": [
        {
          "internalType": "bytes32",
          "name": "",
          "type": "bytes32"
        }
      ],
      "stateMutability": "view",
      "type": "function"
    },
    {
      "inputs": [
        {
          "internalType": "address",
          "name": "user",
          "type": "address"
        },
        {
          "internalType": "uint256",
          "name": "index",
          "type": "uint256"
        }
      ],
      "name": "getUserVault",
      "outputs": [
        {
          "internalType": "address",
          "name": "",
          "type": "address"
        }
      ],
      "stateMutability": "view",
      "type": "function"
    },
    {
      "inputs": [
        {
          "internalType": "address",
          "name": "user",
          "type": "address"
        }
      ],
      "name": "getUserVaultCount",
      "outputs": [
        {
          "internalType": "uint256",
          "name": "",
          "type": "uint256"
        }
      ],
      "stateMutability": "view",
      "type": "function"
    },
    {
      "inputs": [
        {
          "internalType": "address",
          "name": "user",
          "type": "address"
        }
      ],
      "name": "getUserVaults",
      "outputs": [
        {
          "internalType": "address[]",
          "name": "",
          "type": "address[]"
        }
      ],
      "stateMutability": "view",
      "type": "function"
    },
    {
      "inputs": [],
      "name": "getVaultCount",
      "outputs": [
        {
          "internalType": "uint256",
          "name": "",
          "type": "uint256"
        }
      ],
      "stateMutability": "view",
      "type": "function"
    },
    {
      "inputs": [],
      "name": "getVaults",
      "outputs": [
        {
          "internalType": "address[]",
          "name": "",
          "type": "address[]"
        }
      ],
      "stateMutability": "view",
      "type": "function"
    },
    {
      "inputs": [
        {
          "internalType": "uint256",
          "name": "start",
          "type": "uint256"
        },
        {
          "internalType": "uint256",
          "name": "count",
          "type": "uint256"
        }
      ],
      "name": "getVaults",
      "outputs": [
        {
          "internalType": "address[]",
          "name": "",
          "type": "address[]"
        }
      ],
      "stateMutability": "view",
      "type": "function"
    },
    {
      "inputs": [
        {
          "internalType": "bytes32",
          "name": "role",
          "type": "bytes32"
        },
        {
          "internalType": "address",
          "name": "account",
          "type": "address"
        }
      ],
      "name": "grantRole",
      "outputs": [],
      "stateMutability": "nonpayable",
      "type": "function"
    },
    {
      "inputs": [
        {
          "internalType": "bytes32",
          "name": "role",
          "type": "bytes32"
        },
        {
          "internalType": "address",
          "name": "account",
          "type": "address"
        }
      ],
      "name": "hasRole",
      "outputs": [
        {
          "internalType": "bool",
          "name": "",
          "type": "bool"
        }
      ],
      "stateMutability": "view",
      "type": "function"
    },
    {
      "inputs": [
        {
          "internalType": "address",
          "name": "_vaultImplementation",
          "type": "address"
        },
        {
          "internalType": "address",
          "name": "_cUSD",
          "type": "address"
        },
        {
          "internalType": "address",
          "name": "_cEUR",
          "type": "address"
        },
        {
          "internalType": "address",
          "name": "_cREAL",
          "type": "address"
        },
        {
          "internalType": "address",
          "name": "_dex",
          "type": "address"
        },
        {
          "internalType": "address",
          "name": "_yieldOracle",
          "type": "address"
        }
      ],
      "name": "initialize",
      "outputs": [],
      "stateMutability": "nonpayable",
      "type": "function"
    },
    {
      "inputs": [
        {
          "internalType": "address",
          "name": "vault",
          "type": "address"
        }
      ],
      "name": "isVault",
      "outputs": [
        {
          "internalType": "bool",
          "name": "",
          "type": "bool"
        }
      ],
      "stateMutability": "view",
      "type": "function"
    },
    {
      "inputs": [],
      "name": "owner",
      "outputs": [
        {
          "internalType": "address",
          "name": "",
          "type": "address"
        }
      ],
      "stateMutability": "view",
      "type": "function"
    },
    {
      "inputs": [],
      "name": "proxiableUUID",
      "outputs": [
        {
          "internalType": "bytes32",
          "name": "",
          "type": "bytes32"
        }
      ],
      "stateMutability": "view",
      "type": "function"
    },
    {
      "inputs": [],
      "name": "renounceOwnership",
      "outputs": [],
      "stateMutability": "nonpayable",
      "type": "function"
    },
    {
      "inputs": [
        {
          "internalType": "bytes32",
          "name": "role",
          "type": "bytes32"
        },
        {
          "internalType": "address",
          "name": "account",
          "type": "address"
        }
      ],
      "name": "renounceRole",
      "outputs": [],
      "stateMutability": "nonpayable",
      "type": "function"
    },
    {
      "inputs": [
        {
          "internalType": "bytes32",
          "name": "role",
          "type": "bytes32"
        },
        {
          "internalType": "address",
          "name": "account",
          "type": "address"
        }
      ],
      "name": "revokeRole",
      "outputs": [],
      "stateMutability": "nonpayable",
      "type": "function"
    },
    {
      "inputs": [
        {
          "internalType": "address",
          "name": "implementation",
          "type": "address"
        }
      ],
      "name": "setVaultImplementation",
      "outputs": [],
      "stateMutability": "nonpayable",
      "type": "function"
    },
    {
      "inputs": [
        {
          "internalType": "bytes4",
          "name": "interfaceId",
          "type": "bytes4"
        }
      ],
      "name": "supportsInterface",
      "outputs": [
        {
          "internalType": "bool",
          "name": "",
          "type": "bool"
        }
      ],
      "stateMutability": "view",
      "type": "function"
    },
    {
      "inputs": [
        {
          "internalType": "address",
          "name": "newOwner",
          "type": "address"
        }
      ],
      "name": "transferOwnership",
      "outputs": [],
      "stateMutability": "nonpayable",
      "type": "function"
    },
    {
      "inputs": [
        {
          "internalType": "address",
          "name": "newImplementation",
          "type": "address"
        }
      ],
      "name": "upgradeTo",
      "outputs": [],
      "stateMutability": "nonpayable",
      "type": "function"
    },
    {
      "inputs": [
        {
          "internalType": "address",
          "name": "newImplementation",
          "type": "address"
        },
        {
          "internalType": "bytes",
          "name": "data",
          "type": "bytes"
        }
      ],
      "name": "upgradeToAndCall",
      "outputs": [],
      "stateMutability": "payable",
      "type": "function"
    },
    {
      "inputs": [
        {
          "internalType": "address",
          "name": "",
          "type": "address"
        },
        {
          "internalType": "uint256",
          "name": "",
          "type": "uint256"
        }
      ],
      "name": "userVaults",
      "outputs": [
        {
          "internalType": "address",
          "name": "",
          "type": "address"
        }
      ],
      "stateMutability": "view",
      "type": "function"
    },
    {
      "inputs": [],
      "name": "vaultImplementation",
      "outputs": [
        {
          "internalType": "address",
          "name": "",
          "type": "address"
        }
      ],
      "stateMutability": "view",
      "type": "function"
    },
    {
      "inputs": [],
      "name": "yieldOracle",
      "outputs": [
        {
          "internalType": "contract IYieldOracle",
          "name": "",
          "type": "address"
        }
      ],
      "stateMutability": "view",
      "type": "function"
    }
  ],
  "bytecode": "0x60a06040523060805234801561001457600080fd5b5061001d610022565b6100e1565b600054610100900460ff161561008e5760405162461bcd60e51b815260206004820152602760248201527f496e697469616c697a61626c653a20636f6e747261637420697320696e697469604482015266616c697a696e6760c81b606482015260840160405180910390fd5b60005460ff908116146100df576000805460ff191660ff9081179091556040519081527f7f26b83ff96e1f2b6a682f133852f6798a09c465da95921460cefb38474024989060200160405180910390a15b565b60805161223462000119600039600081816106ec0152818161072c0152818161082e0152818161086e01526108fd01526122346000f3fe6080604052600436106101d85760003560e01c80637d1f2de711610102578063b98cca3711610095578063d47ce0a611610064578063d47ce0a61461057d578063d547741f1461059e578063e7f3c69c146105be578063f2fde38b146105de57600080fd5b8063b98cca37146104fc578063bba48a901461051c578063cc2a9a5b1461053d578063d3239c221461055d57600080fd5b806391d14854116100d157806391d14854146104865780639c841fef146104a6578063a217fddf146104c6578063a7f0e342146104db57600080fd5b80637d1f2de7146103f0578063828edbe8146104115780638da5cb5b146104485780639094a91e1461046657600080fd5b80634f1ef2861161017a578063652b9b4111610149578063652b9b411461036a578063692058c2146103a4578063715018a6146103c557806374d4e491146103da57600080fd5b80634f1ef2861461030d57806352d1902d1461032057806353e78b6b146103355780635d12928b1461035557600080fd5b80632f2ff15d116101b65780632f2ff15d1461028957806336568abe146102ab5780633659cfe6146102cb57806344d00f82146102eb57600080fd5b806301ffc9a7146101dd5780631fccf67214610212578063248a9ca31461024b575b600080fd5b3480156101e957600080fd5b506101fd6101f8366004611cb4565b6105fe565b60405190151581526020015b60405180910390f35b34801561021e57600080fd5b5061016254610233906001600160a01b031681565b6040516001600160a01b039091168152602001610209565b34801561025757600080fd5b5061027b610266366004611cde565b600090815260c9602052604090206001015490565b604051908152602001610209565b34801561029557600080fd5b506102a96102a4366004611d0e565b610635565b005b3480156102b757600080fd5b506102a96102c6366004611d0e565b61065f565b3480156102d757600080fd5b506102a96102e6366004611d3a565b6106e2565b3480156102f757600080fd5b506103006107c1565b6040516102099190611d55565b6102a961031b366004611db8565b610824565b34801561032c57600080fd5b5061027b6108f0565b34801561034157600080fd5b506102a9610350366004611d3a565b6109a4565b34801561036157600080fd5b50610233610a4d565b34801561037657600080fd5b506101fd610385366004611d3a565b6001600160a01b03166000908152610161602052604090205460ff1690565b3480156103b057600080fd5b5061016554610233906001600160a01b031681565b3480156103d157600080fd5b506102a9610c71565b3480156103e657600080fd5b506101605461027b565b3480156103fc57600080fd5b5061016354610233906001600160a01b031681565b34801561041d57600080fd5b5061027b61042c366004611d3a565b6001600160a01b0316600090815261015f602052604090205490565b34801561045457600080fd5b506033546001600160a01b0316610233565b34801561047257600080fd5b50610233610481366004611cde565b610c85565b34801561049257600080fd5b506101fd6104a1366004611d0e565b610cb0565b3480156104b257600080fd5b506102336104c1366004611e7a565b610cdb565b3480156104d257600080fd5b5061027b600081565b3480156104e757600080fd5b5061016654610233906001600160a01b031681565b34801561050857600080fd5b50610300610517366004611ea4565b610d14565b34801561052857600080fd5b5061016754610233906001600160a01b031681565b34801561054957600080fd5b506102a9610558366004611ec6565b610e23565b34801561056957600080fd5b50610233610578366004611e7a565b6111b9565b34801561058957600080fd5b5061016454610233906001600160a01b031681565b3480156105aa57600080fd5b506102a96105b9366004611d0e565b61125e565b3480156105ca57600080fd5b506103006105d9366004611d3a565b611283565b3480156105ea57600080fd5b506102a96105f9366004611d3a565b6112fa565b60006001600160e01b03198216637965db0b60e01b148061062f57506301ffc9a760e01b6001600160e01b03198316145b92915050565b600082815260c9602052604090206001015461065081611370565b61065a838361137a565b505050565b6001600160a01b03811633146106d45760405162461bcd60e51b815260206004820152602f60248201527f416363657373436f6e74726f6c3a2063616e206f6e6c792072656e6f756e636560448201526e103937b632b9903337b91039b2b63360891b60648201526084015b60405180910390fd5b6106de8282611400565b5050565b6001600160a01b037f000000000000000000000000000000000000000000000000000000000000000016300361072a5760405162461bcd60e51b81526004016106cb90611f3a565b7f00000000000000000000000000000000000000000000000000000000000000006001600160a01b03166107736000805160206121b8833981519152546001600160a01b031690565b6001600160a01b0316146107995760405162461bcd60e51b81526004016106cb90611f86565b6107a281611467565b604080516000808252602082019092526107be9183919061146f565b50565b606061016080548060200260200160405190810160405280929190818152602001828054801561081a57602002820191906000526020600020905b81546001600160a01b031681526001909101906020018083116107fc575b5050505050905090565b6001600160a01b037f000000000000000000000000000000000000000000000000000000000000000016300361086c5760405162461bcd60e51b81526004016106cb90611f3a565b7f00000000000000000000000000000000000000000000000000000000000000006001600160a01b03166108b56000805160206121b8833981519152546001600160a01b031690565b6001600160a01b0316146108db5760405162461bcd60e51b81526004016106cb90611f86565b6108e482611467565b6106de8282600161146f565b6000306001600160a01b037f000000000000000000000000000000000000000000000000000000000000000016146109905760405162461bcd60e51b815260206004820152603860248201527f555550535570677261646561626c653a206d757374206e6f742062652063616c60448201527f6c6564207468726f7567682064656c656761746563616c6c000000000000000060648201526084016106cb565b506000805160206121b88339815191525b90565b6109ac6115da565b6001600160a01b038116610a025760405162461bcd60e51b815260206004820152601e60248201527f496e76616c696420696d706c656d656e746174696f6e2061646472657373000060448201526064016106cb565b61016780546001600160a01b0319166001600160a01b0383169081179091556040517f310ba5f1d2ed074b51e2eccd052a47ae9ab7c6b800d1fca3db3999d6a592ca0390600090a250565b6000610a57611634565b610167546001600160a01b0316610ab05760405162461bcd60e51b815260206004820152601c60248201527f496e76616c6964207661756c7420696d706c656d656e746174696f6e0000000060448201526064016106cb565b61016754600090610ac9906001600160a01b031661168d565b90506001600160a01b038116610b195760405162461bcd60e51b815260206004820152601560248201527415985d5b1d0818dc99585d1a5bdb8819985a5b1959605a1b60448201526064016106cb565b33600090815261015f602090815260408083208054600180820183559185528385200180546001600160a01b038781166001600160a01b0319928316811790935561016080548086019091557fec7e130cdeeae65215fabbcddb1de429e603c4887cc659532eda903e49339663018054909216831790915581865261016190945293829020805460ff191690911790556101625461016354610164546101655461016654945163cc2a9a5b60e01b8152306004820152938616602485015291851660448401528416606483015283166084820152911660a482015263cc2a9a5b9060c401600060405180830381600087803b158015610c1757600080fd5b505af1158015610c2b573d6000803e3d6000fd5b50506040516001600160a01b03841692503391507f5d9c31ffa0fecffd7cf379989a3c7af252f0335e0d2a1320b55245912c781f5390600090a390506109a16001606555565b610c796115da565b610c83600061172e565b565b6101608181548110610c9657600080fd5b6000918252602090912001546001600160a01b0316905081565b600091825260c9602090815260408084206001600160a01b0393909316845291905290205460ff1690565b61015f6020528160005260406000208181548110610cf857600080fd5b6000918252602090912001546001600160a01b03169150829050565b61016054606090808410610d3857505060408051600081526020810190915261062f565b6000610d448486611fe8565b905081811115610d515750805b6000610d5d8683611ffb565b67ffffffffffffffff811115610d7557610d75611da2565b604051908082528060200260200182016040528015610d9e578160200160208202803683370190505b509050855b82811015610e19576101608181548110610dbf57610dbf61200e565b6000918252602090912001546001600160a01b031682610ddf8984611ffb565b81518110610def57610def61200e565b6001600160a01b039092166020928302919091019091015280610e1181612024565b915050610da3565b5095945050505050565b600054610100900460ff1615808015610e435750600054600160ff909116105b80610e5d5750303b158015610e5d575060005460ff166001145b610ec05760405162461bcd60e51b815260206004820152602e60248201527f496e697469616c697a61626c653a20636f6e747261637420697320616c72656160448201526d191e481a5b9a5d1a585b1a5e995960921b60648201526084016106cb565b6000805460ff191660011790558015610ee3576000805461ff0019166101001790555b610eeb611780565b610ef36117af565b610efb6117de565b610f036117de565b610f0c3361172e565b610f1760003361137a565b6001600160a01b038716610f6d5760405162461bcd60e51b815260206004820152601e60248201527f496e76616c696420696d706c656d656e746174696f6e2061646472657373000060448201526064016106cb565b6001600160a01b038616610fba5760405162461bcd60e51b8152602060048201526014602482015273496e76616c69642063555344206164647265737360601b60448201526064016106cb565b6001600160a01b0385166110075760405162461bcd60e51b8152602060048201526014602482015273496e76616c69642063455552206164647265737360601b60448201526064016106cb565b6001600160a01b0384166110555760405162461bcd60e51b8152602060048201526015602482015274496e76616c696420635245414c206164647265737360581b60448201526064016106cb565b6001600160a01b0383166110a15760405162461bcd60e51b8152602060048201526013602482015272496e76616c696420444558206164647265737360681b60448201526064016106cb565b6001600160a01b0382166110f75760405162461bcd60e51b815260206004820152601c60248201527f496e76616c6964207969656c64206f7261636c6520616464726573730000000060448201526064016106cb565b61016780546001600160a01b03199081166001600160a01b038a81169190911790925561016280548216898416179055610163805482168884161790556101648054821687841617905561016580548216868416179055610166805490911691841691909117905561116a60003361137a565b80156111b0576000805461ff0019169055604051600181527f7f26b83ff96e1f2b6a682f133852f6798a09c465da95921460cefb38474024989060200160405180910390a15b50505050505050565b6001600160a01b038216600090815261015f602052604081205482106112175760405162461bcd60e51b8152602060048201526013602482015272496e646578206f7574206f6620626f756e647360681b60448201526064016106cb565b6001600160a01b038316600090815261015f602052604090208054839081106112425761124261200e565b6000918252602090912001546001600160a01b03169392505050565b600082815260c9602052604090206001015461127981611370565b61065a8383611400565b6001600160a01b038116600090815261015f60209081526040918290208054835181840281018401909452808452606093928301828280156112ee57602002820191906000526020600020905b81546001600160a01b031681526001909101906020018083116112d0575b50505050509050919050565b6113026115da565b6001600160a01b0381166113675760405162461bcd60e51b815260206004820152602660248201527f4f776e61626c653a206e6577206f776e657220697320746865207a65726f206160448201526564647265737360d01b60648201526084016106cb565b6107be8161172e565b6107be8133611805565b6113848282610cb0565b6106de57600082815260c9602090815260408083206001600160a01b03851684529091529020805460ff191660011790556113bc3390565b6001600160a01b0316816001600160a01b0316837f2f8788117e7eff1d82e926ec794901d17c78024a50270940304540a733656f0d60405160405180910390a45050565b61140a8282610cb0565b156106de57600082815260c9602090815260408083206001600160a01b0385168085529252808320805460ff1916905551339285917ff6391f5c32d9c69d2a47ea670b442974b53935d1edc7fd64eb21e047a839171b9190a45050565b6107be6115da565b7f4910fdfa16fed3260ed0e7147f7cc6da11a60208b5b9406d12a635614ffd91435460ff16156114a25761065a8361185e565b826001600160a01b03166352d1902d6040518163ffffffff1660e01b8152600401602060405180830381865afa9250505080156114fc575060408051601f3d908101601f191682019092526114f99181019061203d565b60015b61155f5760405162461bcd60e51b815260206004820152602e60248201527f45524331393637557067726164653a206e657720696d706c656d656e7461746960448201526d6f6e206973206e6f74205555505360901b60648201526084016106cb565b6000805160206121b883398151915281146115ce5760405162461bcd60e51b815260206004820152602960248201527f45524331393637557067726164653a20756e737570706f727465642070726f786044820152681a58589b195555525160ba1b60648201526084016106cb565b5061065a8383836118fa565b6033546001600160a01b03163314610c835760405162461bcd60e51b815260206004820181905260248201527f4f776e61626c653a2063616c6c6572206973206e6f7420746865206f776e657260448201526064016106cb565b6002606554036116865760405162461bcd60e51b815260206004820152601f60248201527f5265656e7472616e637947756172643a207265656e7472616e742063616c6c0060448201526064016106cb565b6002606555565b6000763d602d80600a3d3981f3363d3d373d3d3d363d730000008260601b60e81c176000526e5af43d82803e903d91602b57fd5bf38260781b17602052603760096000f090506001600160a01b0381166117225760405162461bcd60e51b8152602060048201526016602482015275115490cc4c4d8dce8818dc99585d194819985a5b195960521b60448201526064016106cb565b919050565b6001606555565b603380546001600160a01b038381166001600160a01b0319831681179093556040519116919082907f8be0079c531659141344cd1fd0a4f28419497f9722a3daafe3b4186f6b6457e090600090a35050565b600054610100900460ff166117a75760405162461bcd60e51b81526004016106cb90612056565b610c83611925565b600054610100900460ff166117d65760405162461bcd60e51b81526004016106cb90612056565b610c83611955565b600054610100900460ff16610c835760405162461bcd60e51b81526004016106cb90612056565b61180f8282610cb0565b6106de5761181c8161197c565b61182783602061198e565b6040516020016118389291906120c5565b60408051601f198184030181529082905262461bcd60e51b82526106cb9160040161213a565b6001600160a01b0381163b6118cb5760405162461bcd60e51b815260206004820152602d60248201527f455243313936373a206e657720696d706c656d656e746174696f6e206973206e60448201526c1bdd08184818dbdb9d1c9858dd609a1b60648201526084016106cb565b6000805160206121b883398151915280546001600160a01b0319166001600160a01b0392909216919091179055565b61190383611b31565b6000825111806119105750805b1561065a5761191f8383611b71565b50505050565b600054610100900460ff1661194c5760405162461bcd60e51b81526004016106cb90612056565b610c833361172e565b600054610100900460ff166117275760405162461bcd60e51b81526004016106cb90612056565b606061062f6001600160a01b03831660145b6060600061199d83600261216d565b6119a8906002611fe8565b67ffffffffffffffff8111156119c0576119c0611da2565b6040519080825280601f01601f1916602001820160405280156119ea576020820181803683370190505b509050600360fc1b81600081518110611a0557611a0561200e565b60200101906001600160f81b031916908160001a905350600f60fb1b81600181518110611a3457611a3461200e565b60200101906001600160f81b031916908160001a9053506000611a5884600261216d565b611a63906001611fe8565b90505b6001811115611adb576f181899199a1a9b1b9c1cb0b131b232b360811b85600f1660108110611a9757611a9761200e565b1a60f81b828281518110611aad57611aad61200e565b60200101906001600160f81b031916908160001a90535060049490941c93611ad481612184565b9050611a66565b508315611b2a5760405162461bcd60e51b815260206004820181905260248201527f537472696e67733a20686578206c656e67746820696e73756666696369656e7460448201526064016106cb565b9392505050565b611b3a8161185e565b6040516001600160a01b038216907fbc7cd75a20ee27fd9adebab32041f755214dbc6bffa90cc0225b39da2e5c2d3b90600090a250565b6060611b2a83836040518060600160405280602781526020016121d8602791396060600080856001600160a01b031685604051611bae919061219b565b600060405180830381855af49150503d8060008114611be9576040519150601f19603f3d011682016040523d82523d6000602084013e611bee565b606091505b5091509150611bff86838387611c09565b9695505050505050565b60608315611c78578251600003611c71576001600160a01b0385163b611c715760405162461bcd60e51b815260206004820152601d60248201527f416464726573733a2063616c6c20746f206e6f6e2d636f6e747261637400000060448201526064016106cb565b5081611c82565b611c828383611c8a565b949350505050565b815115611c9a5781518083602001fd5b8060405162461bcd60e51b81526004016106cb919061213a565b600060208284031215611cc657600080fd5b81356001600160e01b031981168114611b2a57600080fd5b600060208284031215611cf057600080fd5b5035919050565b80356001600160a01b038116811461172257600080fd5b60008060408385031215611d2157600080fd5b82359150611d3160208401611cf7565b90509250929050565b600060208284031215611d4c57600080fd5b611b2a82611cf7565b6020808252825182820181905260009190848201906040850190845b81811015611d965783516001600160a01b031683529284019291840191600101611d71565b50909695505050505050565b634e487b7160e01b600052604160045260246000fd5b60008060408385031215611dcb57600080fd5b611dd483611cf7565b9150602083013567ffffffffffffffff80821115611df157600080fd5b818501915085601f830112611e0557600080fd5b813581811115611e1757611e17611da2565b604051601f8201601f19908116603f01168101908382118183101715611e3f57611e3f611da2565b81604052828152886020848701011115611e5857600080fd5b8260208601602083013760006020848301015280955050505050509250929050565b60008060408385031215611e8d57600080fd5b611e9683611cf7565b946020939093013593505050565b60008060408385031215611eb757600080fd5b50508035926020909101359150565b60008060008060008060c08789031215611edf57600080fd5b611ee887611cf7565b9550611ef660208801611cf7565b9450611f0460408801611cf7565b9350611f1260608801611cf7565b9250611f2060808801611cf7565b9150611f2e60a08801611cf7565b90509295509295509295565b6020808252602c908201527f46756e6374696f6e206d7573742062652063616c6c6564207468726f7567682060408201526b19195b1959d85d1958d85b1b60a21b606082015260800190565b6020808252602c908201527f46756e6374696f6e206d7573742062652063616c6c6564207468726f7567682060408201526b6163746976652070726f787960a01b606082015260800190565b634e487b7160e01b600052601160045260246000fd5b8082018082111561062f5761062f611fd2565b8181038181111561062f5761062f611fd2565b634e487b7160e01b600052603260045260246000fd5b60006001820161203657612036611fd2565b5060010190565b60006020828403121561204f57600080fd5b5051919050565b6020808252602b908201527f496e697469616c697a61626c653a20636f6e7472616374206973206e6f74206960408201526a6e697469616c697a696e6760a81b606082015260800190565b60005b838110156120bc5781810151838201526020016120a4565b50506000910152565b7f416363657373436f6e74726f6c3a206163636f756e74200000000000000000008152600083516120fd8160178501602088016120a1565b7001034b99036b4b9b9b4b733903937b6329607d1b601791840191820152835161212e8160288401602088016120a1565b01602801949350505050565b60208152600082518060208401526121598160408501602087016120a1565b601f01601f19169190910160400192915050565b808202811582820484141761062f5761062f611fd2565b60008161219357612193611fd2565b506000190190565b600082516121ad8184602087016120a1565b919091019291505056fe360894a13ba1a3210667c828492db98dca3e2076cc3735a920a3ca505d382bbc416464726573733a206c6f772d6c6576656c2064656c65676174652063616c6c206661696c6564a264697066735822122073e6e9e5a873c490eaecb7f6728d07b658a4218a6833d20f3230d65e2531dd2964736f6c63430008140033",
  "linkReferences": {},
  "deployedLinkReferences": {}
}