{
  "_format": "hh-sol-artifact-1",
  "contractName": "YieldOracle",
  "sourceName": "contracts/YieldOracle.sol",
  "abi": [
    {
      "inputs": [
        {
          "internalType": "address",
          "name": "initialOwner",
          "type": "address"
        }
      ],
      "stateMutability": "nonpayable",
      "type": "constructor"
    },
    {
      "anonymous": false,
      "inputs": [
        {
          "indexed": true,
          "internalType": "address",
          "name": "token",
          "type": "address"
        },
        {
          "indexed": false,
          "internalType": "uint256",
          "name": "newAPY",
          "type": "uint256"
        }
      ],
      "name": "APYUpdated",
      "type": "event"
    },
    {
      "anonymous": false,
      "inputs": [
        {
          "indexed": true,
          "internalType": "address",
          "name": "previousOwner",
          "type": "address"
        },
        {
          "indexed": true,
          "internalType": "address",
          "name": "newOwner",
          "type": "address"
        }
      ],
      "name": "OwnershipTransferred",
      "type": "event"
    },
    {
      "inputs": [
        {
          "internalType": "address",
          "name": "",
          "type": "address"
        }
      ],
      "name": "apy",
      "outputs": [
        {
          "internalType": "uint256",
          "name": "",
          "type": "uint256"
        }
      ],
      "stateMutability": "view",
      "type": "function"
    },
    {
      "inputs": [
        {
          "internalType": "address",
          "name": "token",
          "type": "address"
        }
      ],
      "name": "getAPY",
      "outputs": [
        {
          "internalType": "uint256",
          "name": "",
          "type": "uint256"
        }
      ],
      "stateMutability": "view",
      "type": "function"
    },
    {
      "inputs": [
        {
          "internalType": "address[]",
          "name": "tokens",
          "type": "address[]"
        }
      ],
      "name": "getAPYs",
      "outputs": [
        {
          "internalType": "uint256[]",
          "name": "",
          "type": "uint256[]"
        }
      ],
      "stateMutability": "view",
      "type": "function"
    },
    {
      "inputs": [],
      "name": "owner",
      "outputs": [
        {
          "internalType": "address",
          "name": "",
          "type": "address"
        }
      ],
      "stateMutability": "view",
      "type": "function"
    },
    {
      "inputs": [],
      "name": "renounceOwnership",
      "outputs": [],
      "stateMutability": "nonpayable",
      "type": "function"
    },
    {
      "inputs": [
        {
          "internalType": "address",
          "name": "newOwner",
          "type": "address"
        }
      ],
      "name": "transferOwnership",
      "outputs": [],
      "stateMutability": "nonpayable",
      "type": "function"
    },
    {
      "inputs": [
        {
          "internalType": "address",
          "name": "token",
          "type": "address"
        },
        {
          "internalType": "uint256",
          "name": "newAPY",
          "type": "uint256"
        }
      ],
      "name": "updateAPY",
      "outputs": [],
      "stateMutability": "nonpayable",
      "type": "function"
    }
  ],
  "bytecode": "0x608060405234801561001057600080fd5b5060405161068b38038061068b83398101604081905261002f91610097565b61003833610047565b61004181610047565b506100c7565b600080546001600160a01b038381166001600160a01b0319831681178455604051919092169283917f8be0079c531659141344cd1fd0a4f28419497f9722a3daafe3b4186f6b6457e09190a35050565b6000602082840312156100a957600080fd5b81516001600160a01b03811681146100c057600080fd5b9392505050565b6105b5806100d66000396000f3fe608060405234801561001057600080fd5b506004361061007d5760003560e01c8063a4e6a6fb1161005b578063a4e6a6fb146100da578063c4f9870b146100ed578063de5a63a414610116578063f2fde38b1461013657600080fd5b80632b3adc1c14610082578063715018a6146100b55780638da5cb5b146100bf575b600080fd5b6100a2610090366004610427565b60016020526000908152604090205481565b6040519081526020015b60405180910390f35b6100bd610149565b005b6000546040516001600160a01b0390911681526020016100ac565b6100bd6100e8366004610449565b61015d565b6100a26100fb366004610427565b6001600160a01b031660009081526001602052604090205490565b610129610124366004610473565b610211565b6040516100ac91906104e8565b6100bd610144366004610427565b6102e8565b610151610361565b61015b60006103bb565b565b610165610361565b6001600160a01b0382166101b85760405162461bcd60e51b8152602060048201526015602482015274496e76616c696420746f6b656e206164647265737360581b60448201526064015b60405180910390fd5b6001600160a01b03821660008181526001602052604090819020839055517f95046b7fdb9bcf09cdb8b5e270934d955f51f771912290ff9a0020045195eee5906102059084815260200190565b60405180910390a25050565b606060008267ffffffffffffffff81111561022e5761022e61052c565b604051908082528060200260200182016040528015610257578160200160208202803683370190505b50905060005b838110156102e0576001600086868481811061027b5761027b610542565b90506020020160208101906102909190610427565b6001600160a01b03166001600160a01b03168152602001908152602001600020548282815181106102c3576102c3610542565b6020908102919091010152806102d881610558565b91505061025d565b509392505050565b6102f0610361565b6001600160a01b0381166103555760405162461bcd60e51b815260206004820152602660248201527f4f776e61626c653a206e6577206f776e657220697320746865207a65726f206160448201526564647265737360d01b60648201526084016101af565b61035e816103bb565b50565b6000546001600160a01b0316331461015b5760405162461bcd60e51b815260206004820181905260248201527f4f776e61626c653a2063616c6c6572206973206e6f7420746865206f776e657260448201526064016101af565b600080546001600160a01b038381166001600160a01b0319831681178455604051919092169283917f8be0079c531659141344cd1fd0a4f28419497f9722a3daafe3b4186f6b6457e09190a35050565b80356001600160a01b038116811461042257600080fd5b919050565b60006020828403121561043957600080fd5b6104428261040b565b9392505050565b6000806040838503121561045c57600080fd5b6104658361040b565b946020939093013593505050565b6000806020838503121561048657600080fd5b823567ffffffffffffffff8082111561049e57600080fd5b818501915085601f8301126104b257600080fd5b8135818111156104c157600080fd5b8660208260051b85010111156104d657600080fd5b60209290920196919550909350505050565b6020808252825182820181905260009190848201906040850190845b8181101561052057835183529284019291840191600101610504565b50909695505050505050565b634e487b7160e01b600052604160045260246000fd5b634e487b7160e01b600052603260045260246000fd5b60006001820161057857634e487b7160e01b600052601160045260246000fd5b506001019056fea2646970667358221220db3aab1a847815d318684ddae8a4fd9e3aeaf68122ba598c992121335412fcb364736f6c63430008140033",
  "linkReferences": {},
  "deployedLinkReferences": {}
}