{
  "_format": "hh-sol-artifact-1",
  "contractName": "DummyDex",
  "sourceName": "contracts/XmentoVault.sol",
  "abi": [
    {
      "inputs": [
        {
          "internalType": "address",
          "name": "fromToken",
          "type": "address"
        },
        {
          "internalType": "address",
          "name": "toToken",
          "type": "address"
        },
        {
          "internalType": "uint256",
          "name": "amount",
          "type": "uint256"
        },
        {
          "internalType": "uint256",
          "name": "minOut",
          "type": "uint256"
        }
      ],
      "name": "swap",
      "outputs": [
        {
          "internalType": "uint256",
          "name": "",
          "type": "uint256"
        }
      ],
      "stateMutability": "pure",
      "type": "function"
    }
  ],
  "bytecode": "0x608060405234801561001057600080fd5b506101cd806100206000396000f3fe608060405234801561001057600080fd5b506004361061002b5760003560e01c8063fe02915614610030575b600080fd5b61004a60048036038101906100459190610106565b610060565b604051610057919061017c565b60405180910390f35b6000829050949350505050565b600080fd5b600073ffffffffffffffffffffffffffffffffffffffff82169050919050565b600061009d82610072565b9050919050565b6100ad81610092565b81146100b857600080fd5b50565b6000813590506100ca816100a4565b92915050565b6000819050919050565b6100e3816100d0565b81146100ee57600080fd5b50565b600081359050610100816100da565b92915050565b600080600080608085870312156101205761011f61006d565b5b600061012e878288016100bb565b945050602061013f878288016100bb565b9350506040610150878288016100f1565b9250506060610161878288016100f1565b91505092959194509250565b610176816100d0565b82525050565b6000602082019050610191600083018461016d565b9291505056fea264697066735822122031f3d5c8e75c807d6738d41554c68dbcc0d196143da65cde2196c4b484ee28ca64736f6c63430008140033",
  "linkReferences": {},
  "deployedLinkReferences": {}
}