{
  "_format": "hh-sol-artifact-1",
  "contractName": "XmentoVault",
  "sourceName": "contracts/XmentoVault.sol",
  "abi": [
    {
      "inputs": [
        {
          "internalType": "address",
          "name": "_cUSD",
          "type": "address"
        },
        {
          "internalType": "address",
          "name": "_cEUR",
          "type": "address"
        },
        {
          "internalType": "address",
          "name": "_cREAL",
          "type": "address"
        },
        {
          "internalType": "address",
          "name": "_dex",
          "type": "address"
        },
        {
          "internalType": "address",
          "name": "_oracle",
          "type": "address"
        }
      ],
      "stateMutability": "nonpayable",
      "type": "constructor"
    },
    {
      "inputs": [
        {
          "internalType": "address",
          "name": "sender",
          "type": "address"
        },
        {
          "internalType": "uint256",
          "name": "tokenId",
          "type": "uint256"
        },
        {
          "internalType": "address",
          "name": "owner",
          "type": "address"
        }
      ],
      "name": "ERC721IncorrectOwner",
      "type": "error"
    },
    {
      "inputs": [
        {
          "internalType": "address",
          "name": "operator",
          "type": "address"
        },
        {
          "internalType": "uint256",
          "name": "tokenId",
          "type": "uint256"
        }
      ],
      "name": "ERC721InsufficientApproval",
      "type": "error"
    },
    {
      "inputs": [
        {
          "internalType": "address",
          "name": "approver",
          "type": "address"
        }
      ],
      "name": "ERC721InvalidApprover",
      "type": "error"
    },
    {
      "inputs": [
        {
          "internalType": "address",
          "name": "operator",
          "type": "address"
        }
      ],
      "name": "ERC721InvalidOperator",
      "type": "error"
    },
    {
      "inputs": [
        {
          "internalType": "address",
          "name": "owner",
          "type": "address"
        }
      ],
      "name": "ERC721InvalidOwner",
      "type": "error"
    },
    {
      "inputs": [
        {
          "internalType": "address",
          "name": "receiver",
          "type": "address"
        }
      ],
      "name": "ERC721InvalidReceiver",
      "type": "error"
    },
    {
      "inputs": [
        {
          "internalType": "address",
          "name": "sender",
          "type": "address"
        }
      ],
      "name": "ERC721InvalidSender",
      "type": "error"
    },
    {
      "inputs": [
        {
          "internalType": "uint256",
          "name": "tokenId",
          "type": "uint256"
        }
      ],
      "name": "ERC721NonexistentToken",
      "type": "error"
    },
    {
      "inputs": [
        {
          "internalType": "address",
          "name": "owner",
          "type": "address"
        }
      ],
      "name": "OwnableInvalidOwner",
      "type": "error"
    },
    {
      "inputs": [
        {
          "internalType": "address",
          "name": "account",
          "type": "address"
        }
      ],
      "name": "OwnableUnauthorizedAccount",
      "type": "error"
    },
    {
      "inputs": [
        {
          "internalType": "address",
          "name": "token",
          "type": "address"
        }
      ],
      "name": "SafeERC20FailedOperation",
      "type": "error"
    },
    {
      "anonymous": false,
      "inputs": [
        {
          "indexed": true,
          "internalType": "address",
          "name": "owner",
          "type": "address"
        },
        {
          "indexed": true,
          "internalType": "address",
          "name": "approved",
          "type": "address"
        },
        {
          "indexed": true,
          "internalType": "uint256",
          "name": "tokenId",
          "type": "uint256"
        }
      ],
      "name": "Approval",
      "type": "event"
    },
    {
      "anonymous": false,
      "inputs": [
        {
          "indexed": true,
          "internalType": "address",
          "name": "owner",
          "type": "address"
        },
        {
          "indexed": true,
          "internalType": "address",
          "name": "operator",
          "type": "address"
        },
        {
          "indexed": false,
          "internalType": "bool",
          "name": "approved",
          "type": "bool"
        }
      ],
      "name": "ApprovalForAll",
      "type": "event"
    },
    {
      "anonymous": false,
      "inputs": [
        {
          "indexed": true,
          "internalType": "address",
          "name": "previousOwner",
          "type": "address"
        },
        {
          "indexed": true,
          "internalType": "address",
          "name": "newOwner",
          "type": "address"
        }
      ],
      "name": "OwnershipTransferred",
      "type": "event"
    },
    {
      "anonymous": false,
      "inputs": [
        {
          "indexed": true,
          "internalType": "address",
          "name": "from",
          "type": "address"
        },
        {
          "indexed": true,
          "internalType": "address",
          "name": "to",
          "type": "address"
        },
        {
          "indexed": true,
          "internalType": "uint256",
          "name": "tokenId",
          "type": "uint256"
        }
      ],
      "name": "Transfer",
      "type": "event"
    },
    {
      "inputs": [
        {
          "internalType": "address",
          "name": "to",
          "type": "address"
        },
        {
          "internalType": "uint256",
          "name": "tokenId",
          "type": "uint256"
        }
      ],
      "name": "approve",
      "outputs": [],
      "stateMutability": "nonpayable",
      "type": "function"
    },
    {
      "inputs": [
        {
          "internalType": "address",
          "name": "owner",
          "type": "address"
        }
      ],
      "name": "balanceOf",
      "outputs": [
        {
          "internalType": "uint256",
          "name": "",
          "type": "uint256"
        }
      ],
      "stateMutability": "view",
      "type": "function"
    },
    {
      "inputs": [],
      "name": "cEUR",
      "outputs": [
        {
          "internalType": "contract IERC20",
          "name": "",
          "type": "address"
        }
      ],
      "stateMutability": "view",
      "type": "function"
    },
    {
      "inputs": [],
      "name": "cREAL",
      "outputs": [
        {
          "internalType": "contract IERC20",
          "name": "",
          "type": "address"
        }
      ],
      "stateMutability": "view",
      "type": "function"
    },
    {
      "inputs": [],
      "name": "cUSD",
      "outputs": [
        {
          "internalType": "contract IERC20",
          "name": "",
          "type": "address"
        }
      ],
      "stateMutability": "view",
      "type": "function"
    },
    {
      "inputs": [
        {
          "internalType": "uint256",
          "name": "totalAmount",
          "type": "uint256"
        }
      ],
      "name": "deposit",
      "outputs": [],
      "stateMutability": "nonpayable",
      "type": "function"
    },
    {
      "inputs": [],
      "name": "dex",
      "outputs": [
        {
          "internalType": "contract IDEX",
          "name": "",
          "type": "address"
        }
      ],
      "stateMutability": "view",
      "type": "function"
    },
    {
      "inputs": [
        {
          "internalType": "uint256",
          "name": "tokenId",
          "type": "uint256"
        }
      ],
      "name": "getApproved",
      "outputs": [
        {
          "internalType": "address",
          "name": "",
          "type": "address"
        }
      ],
      "stateMutability": "view",
      "type": "function"
    },
    {
      "inputs": [],
      "name": "getOptimalAllocation",
      "outputs": [
        {
          "internalType": "uint256[3]",
          "name": "",
          "type": "uint256[3]"
        }
      ],
      "stateMutability": "view",
      "type": "function"
    },
    {
      "inputs": [
        {
          "internalType": "address",
          "name": "owner",
          "type": "address"
        },
        {
          "internalType": "address",
          "name": "operator",
          "type": "address"
        }
      ],
      "name": "isApprovedForAll",
      "outputs": [
        {
          "internalType": "bool",
          "name": "",
          "type": "bool"
        }
      ],
      "stateMutability": "view",
      "type": "function"
    },
    {
      "inputs": [],
      "name": "name",
      "outputs": [
        {
          "internalType": "string",
          "name": "",
          "type": "string"
        }
      ],
      "stateMutability": "view",
      "type": "function"
    },
    {
      "inputs": [],
      "name": "nextId",
      "outputs": [
        {
          "internalType": "uint256",
          "name": "",
          "type": "uint256"
        }
      ],
      "stateMutability": "view",
      "type": "function"
    },
    {
      "inputs": [],
      "name": "oracle",
      "outputs": [
        {
          "internalType": "contract YieldOracle",
          "name": "",
          "type": "address"
        }
      ],
      "stateMutability": "view",
      "type": "function"
    },
    {
      "inputs": [],
      "name": "owner",
      "outputs": [
        {
          "internalType": "address",
          "name": "",
          "type": "address"
        }
      ],
      "stateMutability": "view",
      "type": "function"
    },
    {
      "inputs": [
        {
          "internalType": "uint256",
          "name": "tokenId",
          "type": "uint256"
        }
      ],
      "name": "ownerOf",
      "outputs": [
        {
          "internalType": "address",
          "name": "",
          "type": "address"
        }
      ],
      "stateMutability": "view",
      "type": "function"
    },
    {
      "inputs": [
        {
          "internalType": "uint256",
          "name": "",
          "type": "uint256"
        }
      ],
      "name": "positions",
      "outputs": [
        {
          "internalType": "address",
          "name": "owner",
          "type": "address"
        },
        {
          "internalType": "uint256",
          "name": "cUSD",
          "type": "uint256"
        },
        {
          "internalType": "uint256",
          "name": "cEUR",
          "type": "uint256"
        },
        {
          "internalType": "uint256",
          "name": "cREAL",
          "type": "uint256"
        },
        {
          "internalType": "uint256",
          "name": "mintedAt",
          "type": "uint256"
        }
      ],
      "stateMutability": "view",
      "type": "function"
    },
    {
      "inputs": [
        {
          "internalType": "uint256",
          "name": "id",
          "type": "uint256"
        }
      ],
      "name": "rebalance",
      "outputs": [],
      "stateMutability": "nonpayable",
      "type": "function"
    },
    {
      "inputs": [
        {
          "internalType": "uint256",
          "name": "id",
          "type": "uint256"
        }
      ],
      "name": "redeem",
      "outputs": [],
      "stateMutability": "nonpayable",
      "type": "function"
    },
    {
      "inputs": [],
      "name": "renounceOwnership",
      "outputs": [],
      "stateMutability": "nonpayable",
      "type": "function"
    },
    {
      "inputs": [
        {
          "internalType": "address",
          "name": "from",
          "type": "address"
        },
        {
          "internalType": "address",
          "name": "to",
          "type": "address"
        },
        {
          "internalType": "uint256",
          "name": "tokenId",
          "type": "uint256"
        }
      ],
      "name": "safeTransferFrom",
      "outputs": [],
      "stateMutability": "nonpayable",
      "type": "function"
    },
    {
      "inputs": [
        {
          "internalType": "address",
          "name": "from",
          "type": "address"
        },
        {
          "internalType": "address",
          "name": "to",
          "type": "address"
        },
        {
          "internalType": "uint256",
          "name": "tokenId",
          "type": "uint256"
        },
        {
          "internalType": "bytes",
          "name": "data",
          "type": "bytes"
        }
      ],
      "name": "safeTransferFrom",
      "outputs": [],
      "stateMutability": "nonpayable",
      "type": "function"
    },
    {
      "inputs": [
        {
          "internalType": "address",
          "name": "operator",
          "type": "address"
        },
        {
          "internalType": "bool",
          "name": "approved",
          "type": "bool"
        }
      ],
      "name": "setApprovalForAll",
      "outputs": [],
      "stateMutability": "nonpayable",
      "type": "function"
    },
    {
      "inputs": [
        {
          "internalType": "bytes4",
          "name": "interfaceId",
          "type": "bytes4"
        }
      ],
      "name": "supportsInterface",
      "outputs": [
        {
          "internalType": "bool",
          "name": "",
          "type": "bool"
        }
      ],
      "stateMutability": "view",
      "type": "function"
    },
    {
      "inputs": [],
      "name": "symbol",
      "outputs": [
        {
          "internalType": "string",
          "name": "",
          "type": "string"
        }
      ],
      "stateMutability": "view",
      "type": "function"
    },
    {
      "inputs": [
        {
          "internalType": "uint256",
          "name": "tokenId",
          "type": "uint256"
        }
      ],
      "name": "tokenURI",
      "outputs": [
        {
          "internalType": "string",
          "name": "",
          "type": "string"
        }
      ],
      "stateMutability": "view",
      "type": "function"
    },
    {
      "inputs": [
        {
          "internalType": "address",
          "name": "from",
          "type": "address"
        },
        {
          "internalType": "address",
          "name": "to",
          "type": "address"
        },
        {
          "internalType": "uint256",
          "name": "tokenId",
          "type": "uint256"
        }
      ],
      "name": "transferFrom",
      "outputs": [],
      "stateMutability": "nonpayable",
      "type": "function"
    },
    {
      "inputs": [
        {
          "internalType": "address",
          "name": "newOwner",
          "type": "address"
        }
      ],
      "name": "transferOwnership",
      "outputs": [],
      "stateMutability": "nonpayable",
      "type": "function"
    }
  ],
  "bytecode": "0x60806040523480156200001157600080fd5b5060405162003e9138038062003e918339818101604052810190620000379190620003d1565b336040518060400160405280600f81526020017f586d656e746f20506f736974696f6e00000000000000000000000000000000008152506040518060400160405280600381526020017f584d5000000000000000000000000000000000000000000000000000000000008152508160009081620000b59190620006d3565b508060019081620000c79190620006d3565b505050600073ffffffffffffffffffffffffffffffffffffffff168173ffffffffffffffffffffffffffffffffffffffff16036200013f5760006040517f1e4fbdf7000000000000000000000000000000000000000000000000000000008152600401620001369190620007cb565b60405180910390fd5b6200015081620002a160201b60201c565b5084600760006101000a81548173ffffffffffffffffffffffffffffffffffffffff021916908373ffffffffffffffffffffffffffffffffffffffff16021790555083600860006101000a81548173ffffffffffffffffffffffffffffffffffffffff021916908373ffffffffffffffffffffffffffffffffffffffff16021790555082600960006101000a81548173ffffffffffffffffffffffffffffffffffffffff021916908373ffffffffffffffffffffffffffffffffffffffff16021790555081600a60006101000a81548173ffffffffffffffffffffffffffffffffffffffff021916908373ffffffffffffffffffffffffffffffffffffffff16021790555080600b60006101000a81548173ffffffffffffffffffffffffffffffffffffffff021916908373ffffffffffffffffffffffffffffffffffffffff1602179055505050505050620007e8565b6000600660009054906101000a900473ffffffffffffffffffffffffffffffffffffffff16905081600660006101000a81548173ffffffffffffffffffffffffffffffffffffffff021916908373ffffffffffffffffffffffffffffffffffffffff1602179055508173ffffffffffffffffffffffffffffffffffffffff168173ffffffffffffffffffffffffffffffffffffffff167f8be0079c531659141344cd1fd0a4f28419497f9722a3daafe3b4186f6b6457e060405160405180910390a35050565b600080fd5b600073ffffffffffffffffffffffffffffffffffffffff82169050919050565b600062000399826200036c565b9050919050565b620003ab816200038c565b8114620003b757600080fd5b50565b600081519050620003cb81620003a0565b92915050565b600080600080600060a08688031215620003f057620003ef62000367565b5b60006200040088828901620003ba565b95505060206200041388828901620003ba565b94505060406200042688828901620003ba565b93505060606200043988828901620003ba565b92505060806200044c88828901620003ba565b9150509295509295909350565b600081519050919050565b7f4e487b7100000000000000000000000000000000000000000000000000000000600052604160045260246000fd5b7f4e487b7100000000000000000000000000000000000000000000000000000000600052602260045260246000fd5b60006002820490506001821680620004db57607f821691505b602082108103620004f157620004f062000493565b5b50919050565b60008190508160005260206000209050919050565b60006020601f8301049050919050565b600082821b905092915050565b6000600883026200055b7fffffffffffffffffffffffffffffffffffffffffffffffffffffffffffffffff826200051c565b6200056786836200051c565b95508019841693508086168417925050509392505050565b6000819050919050565b6000819050919050565b6000620005b4620005ae620005a8846200057f565b62000589565b6200057f565b9050919050565b6000819050919050565b620005d08362000593565b620005e8620005df82620005bb565b84845462000529565b825550505050565b600090565b620005ff620005f0565b6200060c818484620005c5565b505050565b5b81811015620006345762000628600082620005f5565b60018101905062000612565b5050565b601f82111562000683576200064d81620004f7565b62000658846200050c565b8101602085101562000668578190505b6200068062000677856200050c565b83018262000611565b50505b505050565b600082821c905092915050565b6000620006a86000198460080262000688565b1980831691505092915050565b6000620006c3838362000695565b9150826002028217905092915050565b620006de8262000459565b67ffffffffffffffff811115620006fa57620006f962000464565b5b620007068254620004c2565b6200071382828562000638565b600060209050601f8311600181146200074b576000841562000736578287015190505b620007428582620006b5565b865550620007b2565b601f1984166200075b86620004f7565b60005b8281101562000785578489015182556001820191506020850194506020810190506200075e565b86831015620007a55784890151620007a1601f89168262000695565b8355505b6001600288020188555050505b505050505050565b620007c5816200038c565b82525050565b6000602082019050620007e26000830184620007ba565b92915050565b61369980620007f86000396000f3fe608060405234801561001057600080fd5b50600436106101a95760003560e01c80637d1f2de7116100f9578063b88d4fde11610097578063db006a7511610071578063db006a75146104b0578063e985e9c5146104cc578063f2fde38b146104fc578063f499301814610518576101a9565b8063b88d4fde14610446578063c87b56dd14610462578063d47ce0a614610492576101a9565b806395d89b41116100d357806395d89b41146103bc57806399fbab88146103da578063a22cb4651461040e578063b6b55f251461042a576101a9565b80637d1f2de7146103625780637dc0d1d0146103805780638da5cb5b1461039e576101a9565b806333a7ad76116101665780636352211e116101405780636352211e146102da578063692058c21461030a57806370a0823114610328578063715018a614610358576101a9565b806333a7ad761461028257806342842e0e146102a057806361b8ce8c146102bc576101a9565b806301ffc9a7146101ae57806306fdde03146101de578063081812fc146101fc578063095ea7b31461022c5780631fccf6721461024857806323b872dd14610266575b600080fd5b6101c860048036038101906101c39190612842565b610534565b6040516101d5919061288a565b60405180910390f35b6101e6610616565b6040516101f39190612935565b60405180910390f35b6102166004803603810190610211919061298d565b6106a8565b60405161022391906129fb565b60405180910390f35b61024660048036038101906102419190612a42565b6106c4565b005b6102506106da565b60405161025d9190612ae1565b60405180910390f35b610280600480360381019061027b9190612afc565b610700565b005b61028a610802565b6040516102979190612bfa565b60405180910390f35b6102ba60048036038101906102b59190612afc565b610bef565b005b6102c4610c0f565b6040516102d19190612c24565b60405180910390f35b6102f460048036038101906102ef919061298d565b610c15565b60405161030191906129fb565b60405180910390f35b610312610c27565b60405161031f9190612c60565b60405180910390f35b610342600480360381019061033d9190612c7b565b610c4d565b60405161034f9190612c24565b60405180910390f35b610360610d07565b005b61036a610d1b565b6040516103779190612ae1565b60405180910390f35b610388610d41565b6040516103959190612cc9565b60405180910390f35b6103a6610d67565b6040516103b391906129fb565b60405180910390f35b6103c4610d91565b6040516103d19190612935565b60405180910390f35b6103f460048036038101906103ef919061298d565b610e23565b604051610405959493929190612ce4565b60405180910390f35b61042860048036038101906104239190612d63565b610e79565b005b610444600480360381019061043f919061298d565b610e8f565b005b610460600480360381019061045b9190612ed8565b61115b565b005b61047c6004803603810190610477919061298d565b611180565b6040516104899190612935565b60405180910390f35b61049a6111e9565b6040516104a79190612ae1565b60405180910390f35b6104ca60048036038101906104c5919061298d565b61120f565b005b6104e660048036038101906104e19190612f5b565b611482565b6040516104f3919061288a565b60405180910390f35b61051660048036038101906105119190612c7b565b611516565b005b610532600480360381019061052d919061298d565b61159c565b005b60007f80ac58cd000000000000000000000000000000000000000000000000000000007bffffffffffffffffffffffffffffffffffffffffffffffffffffffff1916827bffffffffffffffffffffffffffffffffffffffffffffffffffffffff191614806105ff57507f5b5e139f000000000000000000000000000000000000000000000000000000007bffffffffffffffffffffffffffffffffffffffffffffffffffffffff1916827bffffffffffffffffffffffffffffffffffffffffffffffffffffffff1916145b8061060f575061060e82611703565b5b9050919050565b60606000805461062590612fca565b80601f016020809104026020016040519081016040528092919081815260200182805461065190612fca565b801561069e5780601f106106735761010080835404028352916020019161069e565b820191906000526020600020905b81548152906001019060200180831161068157829003601f168201915b5050505050905090565b60006106b38261176d565b506106bd826117f5565b9050919050565b6106d682826106d1611832565b61183a565b5050565b600760009054906101000a900473ffffffffffffffffffffffffffffffffffffffff1681565b600073ffffffffffffffffffffffffffffffffffffffff168273ffffffffffffffffffffffffffffffffffffffff16036107725760006040517f64a0ae9200000000000000000000000000000000000000000000000000000000815260040161076991906129fb565b60405180910390fd5b60006107868383610781611832565b61184c565b90508373ffffffffffffffffffffffffffffffffffffffff168173ffffffffffffffffffffffffffffffffffffffff16146107fc578382826040517f64283d7b0000000000000000000000000000000000000000000000000000000081526004016107f393929190612ffb565b60405180910390fd5b50505050565b61080a6127b4565b6000600367ffffffffffffffff81111561082757610826612dad565b5b6040519080825280602002602001820160405280156108555781602001602082028036833780820191505090505b509050600760009054906101000a900473ffffffffffffffffffffffffffffffffffffffff168160008151811061088f5761088e613032565b5b602002602001019073ffffffffffffffffffffffffffffffffffffffff16908173ffffffffffffffffffffffffffffffffffffffff1681525050600860009054906101000a900473ffffffffffffffffffffffffffffffffffffffff1681600181518110610900576108ff613032565b5b602002602001019073ffffffffffffffffffffffffffffffffffffffff16908173ffffffffffffffffffffffffffffffffffffffff1681525050600960009054906101000a900473ffffffffffffffffffffffffffffffffffffffff168160028151811061097157610970613032565b5b602002602001019073ffffffffffffffffffffffffffffffffffffffff16908173ffffffffffffffffffffffffffffffffffffffff16815250506000600b60009054906101000a900473ffffffffffffffffffffffffffffffffffffffff1673ffffffffffffffffffffffffffffffffffffffff1663de5a63a4836040518263ffffffff1660e01b8152600401610a08919061311f565b600060405180830381865afa158015610a25573d6000803e3d6000fd5b505050506040513d6000823e3d601f19601f82011682018060405250810190610a4e919061321e565b9050600081600281518110610a6657610a65613032565b5b602002602001015182600181518110610a8257610a81613032565b5b602002602001015183600081518110610a9e57610a9d613032565b5b6020026020010151610ab09190613296565b610aba9190613296565b905060008103610aec576040518060600160405280602181526020016021815260200160228152509350505050610bec565b604051806060016040528082606485600081518110610b0e57610b0d613032565b5b6020026020010151610b2091906132ca565b610b2a919061333b565b815260200182606485600181518110610b4657610b45613032565b5b6020026020010151610b5891906132ca565b610b62919061333b565b815260200182606485600181518110610b7e57610b7d613032565b5b6020026020010151610b9091906132ca565b610b9a919061333b565b83606486600081518110610bb157610bb0613032565b5b6020026020010151610bc391906132ca565b610bcd919061333b565b6064610bd9919061336c565b610be3919061336c565b81525093505050505b90565b610c0a8383836040518060200160405280600081525061115b565b505050565b600c5481565b6000610c208261176d565b9050919050565b600a60009054906101000a900473ffffffffffffffffffffffffffffffffffffffff1681565b60008073ffffffffffffffffffffffffffffffffffffffff168273ffffffffffffffffffffffffffffffffffffffff1603610cc05760006040517f89c62b64000000000000000000000000000000000000000000000000000000008152600401610cb791906129fb565b60405180910390fd5b600360008373ffffffffffffffffffffffffffffffffffffffff1673ffffffffffffffffffffffffffffffffffffffff168152602001908152602001600020549050919050565b610d0f611a66565b610d196000611aed565b565b600860009054906101000a900473ffffffffffffffffffffffffffffffffffffffff1681565b600b60009054906101000a900473ffffffffffffffffffffffffffffffffffffffff1681565b6000600660009054906101000a900473ffffffffffffffffffffffffffffffffffffffff16905090565b606060018054610da090612fca565b80601f0160208091040260200160405190810160405280929190818152602001828054610dcc90612fca565b8015610e195780601f10610dee57610100808354040283529160200191610e19565b820191906000526020600020905b815481529060010190602001808311610dfc57829003601f168201915b5050505050905090565b600d6020528060005260406000206000915090508060000160009054906101000a900473ffffffffffffffffffffffffffffffffffffffff16908060010154908060020154908060030154908060040154905085565b610e8b610e84611832565b8383611bb3565b5050565b60008111610ed2576040517f08c379a0000000000000000000000000000000000000000000000000000000008152600401610ec9906133ec565b60405180910390fd5b6000610edc610802565b90506000606482600060038110610ef657610ef5613032565b5b602002015184610f0691906132ca565b610f10919061333b565b90506000606483600160038110610f2a57610f29613032565b5b602002015185610f3a91906132ca565b610f44919061333b565b90506000818386610f55919061336c565b610f5f919061336c565b90506000831115610fba57610fb9333085600760009054906101000a900473ffffffffffffffffffffffffffffffffffffffff1673ffffffffffffffffffffffffffffffffffffffff16611d22909392919063ffffffff16565b5b600082111561101357611012333084600860009054906101000a900473ffffffffffffffffffffffffffffffffffffffff1673ffffffffffffffffffffffffffffffffffffffff16611d22909392919063ffffffff16565b5b600081111561106c5761106b333083600960009054906101000a900473ffffffffffffffffffffffffffffffffffffffff1673ffffffffffffffffffffffffffffffffffffffff16611d22909392919063ffffffff16565b5b6000600c60008154809291906110819061340c565b9190505590506040518060a001604052803373ffffffffffffffffffffffffffffffffffffffff16815260200185815260200184815260200183815260200142815250600d600083815260200190815260200160002060008201518160000160006101000a81548173ffffffffffffffffffffffffffffffffffffffff021916908373ffffffffffffffffffffffffffffffffffffffff160217905550602082015181600101556040820151816002015560608201518160030155608082015181600401559050506111533382611da4565b505050505050565b611166848484610700565b61117a611171611832565b85858585611e9d565b50505050565b606061118b8261176d565b50600061119661204e565b905060008151116111b657604051806020016040528060008152506111e1565b806111c084612065565b6040516020016111d1929190613490565b6040516020818303038152906040525b915050919050565b600960009054906101000a900473ffffffffffffffffffffffffffffffffffffffff1681565b3373ffffffffffffffffffffffffffffffffffffffff1661122f82610c15565b73ffffffffffffffffffffffffffffffffffffffff1614611285576040517f08c379a000000000000000000000000000000000000000000000000000000000815260040161127c90613500565b60405180910390fd5b6000600d60008381526020019081526020016000206040518060a00160405290816000820160009054906101000a900473ffffffffffffffffffffffffffffffffffffffff1673ffffffffffffffffffffffffffffffffffffffff1673ffffffffffffffffffffffffffffffffffffffff168152602001600182015481526020016002820154815260200160038201548152602001600482015481525050905061132e82612133565b600d6000838152602001908152602001600020600080820160006101000a81549073ffffffffffffffffffffffffffffffffffffffff0219169055600182016000905560028201600090556003820160009055600482016000905550506113dc338260200151600760009054906101000a900473ffffffffffffffffffffffffffffffffffffffff1673ffffffffffffffffffffffffffffffffffffffff166121b99092919063ffffffff16565b61142d338260400151600860009054906101000a900473ffffffffffffffffffffffffffffffffffffffff1673ffffffffffffffffffffffffffffffffffffffff166121b99092919063ffffffff16565b61147e338260600151600960009054906101000a900473ffffffffffffffffffffffffffffffffffffffff1673ffffffffffffffffffffffffffffffffffffffff166121b99092919063ffffffff16565b5050565b6000600560008473ffffffffffffffffffffffffffffffffffffffff1673ffffffffffffffffffffffffffffffffffffffff16815260200190815260200160002060008373ffffffffffffffffffffffffffffffffffffffff1673ffffffffffffffffffffffffffffffffffffffff16815260200190815260200160002060009054906101000a900460ff16905092915050565b61151e611a66565b600073ffffffffffffffffffffffffffffffffffffffff168173ffffffffffffffffffffffffffffffffffffffff16036115905760006040517f1e4fbdf700000000000000000000000000000000000000000000000000000000815260040161158791906129fb565b60405180910390fd5b61159981611aed565b50565b3373ffffffffffffffffffffffffffffffffffffffff166115bc82610c15565b73ffffffffffffffffffffffffffffffffffffffff1614611612576040517f08c379a000000000000000000000000000000000000000000000000000000000815260040161160990613500565b60405180910390fd5b6000600d600083815260200190815260200160002090506000611633610802565b905060008260030154836002015484600101546116509190613296565b61165a9190613296565b9050600060648360006003811061167457611673613032565b5b60200201518361168491906132ca565b61168e919061333b565b905060006064846001600381106116a8576116a7613032565b5b6020020151846116b891906132ca565b6116c2919061333b565b905060008183856116d3919061336c565b6116dd919061336c565b905082866001018190555081866002018190555080866003018190555050505050505050565b60007f01ffc9a7000000000000000000000000000000000000000000000000000000007bffffffffffffffffffffffffffffffffffffffffffffffffffffffff1916827bffffffffffffffffffffffffffffffffffffffffffffffffffffffff1916149050919050565b60008061177983612238565b9050600073ffffffffffffffffffffffffffffffffffffffff168173ffffffffffffffffffffffffffffffffffffffff16036117ec57826040517f7e2732890000000000000000000000000000000000000000000000000000000081526004016117e39190612c24565b60405180910390fd5b80915050919050565b60006004600083815260200190815260200160002060009054906101000a900473ffffffffffffffffffffffffffffffffffffffff169050919050565b600033905090565b6118478383836001612275565b505050565b60008061185884612238565b9050600073ffffffffffffffffffffffffffffffffffffffff168373ffffffffffffffffffffffffffffffffffffffff161461189a5761189981848661243a565b5b600073ffffffffffffffffffffffffffffffffffffffff168173ffffffffffffffffffffffffffffffffffffffff161461192b576118dc600085600080612275565b6001600360008373ffffffffffffffffffffffffffffffffffffffff1673ffffffffffffffffffffffffffffffffffffffff168152602001908152602001600020600082825403925050819055505b600073ffffffffffffffffffffffffffffffffffffffff168573ffffffffffffffffffffffffffffffffffffffff16146119ae576001600360008773ffffffffffffffffffffffffffffffffffffffff1673ffffffffffffffffffffffffffffffffffffffff168152602001908152602001600020600082825401925050819055505b846002600086815260200190815260200160002060006101000a81548173ffffffffffffffffffffffffffffffffffffffff021916908373ffffffffffffffffffffffffffffffffffffffff160217905550838573ffffffffffffffffffffffffffffffffffffffff168273ffffffffffffffffffffffffffffffffffffffff167fddf252ad1be2c89b69c2b068fc378daa952ba7f163c4a11628f55a4df523b3ef60405160405180910390a4809150509392505050565b611a6e611832565b73ffffffffffffffffffffffffffffffffffffffff16611a8c610d67565b73ffffffffffffffffffffffffffffffffffffffff1614611aeb57611aaf611832565b6040517f118cdaa7000000000000000000000000000000000000000000000000000000008152600401611ae291906129fb565b60405180910390fd5b565b6000600660009054906101000a900473ffffffffffffffffffffffffffffffffffffffff16905081600660006101000a81548173ffffffffffffffffffffffffffffffffffffffff021916908373ffffffffffffffffffffffffffffffffffffffff1602179055508173ffffffffffffffffffffffffffffffffffffffff168173ffffffffffffffffffffffffffffffffffffffff167f8be0079c531659141344cd1fd0a4f28419497f9722a3daafe3b4186f6b6457e060405160405180910390a35050565b600073ffffffffffffffffffffffffffffffffffffffff168273ffffffffffffffffffffffffffffffffffffffff1603611c2457816040517f5b08ba18000000000000000000000000000000000000000000000000000000008152600401611c1b91906129fb565b60405180910390fd5b80600560008573ffffffffffffffffffffffffffffffffffffffff1673ffffffffffffffffffffffffffffffffffffffff16815260200190815260200160002060008473ffffffffffffffffffffffffffffffffffffffff1673ffffffffffffffffffffffffffffffffffffffff16815260200190815260200160002060006101000a81548160ff0219169083151502179055508173ffffffffffffffffffffffffffffffffffffffff168373ffffffffffffffffffffffffffffffffffffffff167f17307eab39ab6107e8899845ad3d59bd9653f200f220920489ca2b5937696c3183604051611d15919061288a565b60405180910390a3505050565b611d9e848573ffffffffffffffffffffffffffffffffffffffff166323b872dd868686604051602401611d5793929190613520565b604051602081830303815290604052915060e01b6020820180517bffffffffffffffffffffffffffffffffffffffffffffffffffffffff83818316178352505050506124fe565b50505050565b600073ffffffffffffffffffffffffffffffffffffffff168273ffffffffffffffffffffffffffffffffffffffff1603611e165760006040517f64a0ae92000000000000000000000000000000000000000000000000000000008152600401611e0d91906129fb565b60405180910390fd5b6000611e248383600061184c565b9050600073ffffffffffffffffffffffffffffffffffffffff168173ffffffffffffffffffffffffffffffffffffffff1614611e985760006040517f73c6ac6e000000000000000000000000000000000000000000000000000000008152600401611e8f91906129fb565b60405180910390fd5b505050565b60008373ffffffffffffffffffffffffffffffffffffffff163b1115612047578273ffffffffffffffffffffffffffffffffffffffff1663150b7a02868685856040518563ffffffff1660e01b8152600401611efc94939291906135ac565b6020604051808303816000875af1925050508015611f3857506040513d601f19601f82011682018060405250810190611f35919061360d565b60015b611fbc573d8060008114611f68576040519150601f19603f3d011682016040523d82523d6000602084013e611f6d565b606091505b506000815103611fb457836040517f64a0ae92000000000000000000000000000000000000000000000000000000008152600401611fab91906129fb565b60405180910390fd5b805160208201fd5b63150b7a0260e01b7bffffffffffffffffffffffffffffffffffffffffffffffffffffffff1916817bffffffffffffffffffffffffffffffffffffffffffffffffffffffff19161461204557836040517f64a0ae9200000000000000000000000000000000000000000000000000000000815260040161203c91906129fb565b60405180910390fd5b505b5050505050565b606060405180602001604052806000815250905090565b606060006001612074846125a0565b01905060008167ffffffffffffffff81111561209357612092612dad565b5b6040519080825280601f01601f1916602001820160405280156120c55781602001600182028036833780820191505090505b509050600082602083010190505b600115612128578080600190039150507f3031323334353637383961626364656600000000000000000000000000000000600a86061a8153600a858161211c5761211b61330c565b5b049450600085036120d3575b819350505050919050565b6000612142600083600061184c565b9050600073ffffffffffffffffffffffffffffffffffffffff168173ffffffffffffffffffffffffffffffffffffffff16036121b557816040517f7e2732890000000000000000000000000000000000000000000000000000000081526004016121ac9190612c24565b60405180910390fd5b5050565b612233838473ffffffffffffffffffffffffffffffffffffffff1663a9059cbb85856040516024016121ec92919061363a565b604051602081830303815290604052915060e01b6020820180517bffffffffffffffffffffffffffffffffffffffffffffffffffffffff83818316178352505050506124fe565b505050565b60006002600083815260200190815260200160002060009054906101000a900473ffffffffffffffffffffffffffffffffffffffff169050919050565b80806122ae5750600073ffffffffffffffffffffffffffffffffffffffff168273ffffffffffffffffffffffffffffffffffffffff1614155b156123e25760006122be8461176d565b9050600073ffffffffffffffffffffffffffffffffffffffff168373ffffffffffffffffffffffffffffffffffffffff161415801561232957508273ffffffffffffffffffffffffffffffffffffffff168173ffffffffffffffffffffffffffffffffffffffff1614155b801561233c575061233a8184611482565b155b1561237e57826040517fa9fbf51f00000000000000000000000000000000000000000000000000000000815260040161237591906129fb565b60405180910390fd5b81156123e057838573ffffffffffffffffffffffffffffffffffffffff168273ffffffffffffffffffffffffffffffffffffffff167f8c5be1e5ebec7d5bd14f71427d1e84f3dd0314c0f7b2291e5b200ac8c7c3b92560405160405180910390a45b505b836004600085815260200190815260200160002060006101000a81548173ffffffffffffffffffffffffffffffffffffffff021916908373ffffffffffffffffffffffffffffffffffffffff16021790555050505050565b6124458383836126f3565b6124f957600073ffffffffffffffffffffffffffffffffffffffff168373ffffffffffffffffffffffffffffffffffffffff16036124ba57806040517f7e2732890000000000000000000000000000000000000000000000000000000081526004016124b19190612c24565b60405180910390fd5b81816040517f177e802f0000000000000000000000000000000000000000000000000000000081526004016124f092919061363a565b60405180910390fd5b505050565b600080602060008451602086016000885af180612521576040513d6000823e3d81fd5b3d92506000519150506000821461253c576001811415612558565b60008473ffffffffffffffffffffffffffffffffffffffff163b145b1561259a57836040517f5274afe700000000000000000000000000000000000000000000000000000000815260040161259191906129fb565b60405180910390fd5b50505050565b600080600090507a184f03e93ff9f4daa797ed6e38ed64bf6a1f01000000000000000083106125fe577a184f03e93ff9f4daa797ed6e38ed64bf6a1f01000000000000000083816125f4576125f361330c565b5b0492506040810190505b6d04ee2d6d415b85acef8100000000831061263b576d04ee2d6d415b85acef810000000083816126315761263061330c565b5b0492506020810190505b662386f26fc10000831061266a57662386f26fc1000083816126605761265f61330c565b5b0492506010810190505b6305f5e1008310612693576305f5e10083816126895761268861330c565b5b0492506008810190505b61271083106126b85761271083816126ae576126ad61330c565b5b0492506004810190505b606483106126db57606483816126d1576126d061330c565b5b0492506002810190505b600a83106126ea576001810190505b80915050919050565b60008073ffffffffffffffffffffffffffffffffffffffff168373ffffffffffffffffffffffffffffffffffffffff16141580156127ab57508273ffffffffffffffffffffffffffffffffffffffff168473ffffffffffffffffffffffffffffffffffffffff16148061276c575061276b8484611482565b5b806127aa57508273ffffffffffffffffffffffffffffffffffffffff16612792836117f5565b73ffffffffffffffffffffffffffffffffffffffff16145b5b90509392505050565b6040518060600160405280600390602082028036833780820191505090505090565b6000604051905090565b600080fd5b600080fd5b60007fffffffff0000000000000000000000000000000000000000000000000000000082169050919050565b61281f816127ea565b811461282a57600080fd5b50565b60008135905061283c81612816565b92915050565b600060208284031215612858576128576127e0565b5b60006128668482850161282d565b91505092915050565b60008115159050919050565b6128848161286f565b82525050565b600060208201905061289f600083018461287b565b92915050565b600081519050919050565b600082825260208201905092915050565b60005b838110156128df5780820151818401526020810190506128c4565b60008484015250505050565b6000601f19601f8301169050919050565b6000612907826128a5565b61291181856128b0565b93506129218185602086016128c1565b61292a816128eb565b840191505092915050565b6000602082019050818103600083015261294f81846128fc565b905092915050565b6000819050919050565b61296a81612957565b811461297557600080fd5b50565b60008135905061298781612961565b92915050565b6000602082840312156129a3576129a26127e0565b5b60006129b184828501612978565b91505092915050565b600073ffffffffffffffffffffffffffffffffffffffff82169050919050565b60006129e5826129ba565b9050919050565b6129f5816129da565b82525050565b6000602082019050612a1060008301846129ec565b92915050565b612a1f816129da565b8114612a2a57600080fd5b50565b600081359050612a3c81612a16565b92915050565b60008060408385031215612a5957612a586127e0565b5b6000612a6785828601612a2d565b9250506020612a7885828601612978565b9150509250929050565b6000819050919050565b6000612aa7612aa2612a9d846129ba565b612a82565b6129ba565b9050919050565b6000612ab982612a8c565b9050919050565b6000612acb82612aae565b9050919050565b612adb81612ac0565b82525050565b6000602082019050612af66000830184612ad2565b92915050565b600080600060608486031215612b1557612b146127e0565b5b6000612b2386828701612a2d565b9350506020612b3486828701612a2d565b9250506040612b4586828701612978565b9150509250925092565b600060039050919050565b600081905092915050565b6000819050919050565b612b7881612957565b82525050565b6000612b8a8383612b6f565b60208301905092915050565b6000602082019050919050565b612bac81612b4f565b612bb68184612b5a565b9250612bc182612b65565b8060005b83811015612bf2578151612bd98782612b7e565b9650612be483612b96565b925050600181019050612bc5565b505050505050565b6000606082019050612c0f6000830184612ba3565b92915050565b612c1e81612957565b82525050565b6000602082019050612c396000830184612c15565b92915050565b6000612c4a82612aae565b9050919050565b612c5a81612c3f565b82525050565b6000602082019050612c756000830184612c51565b92915050565b600060208284031215612c9157612c906127e0565b5b6000612c9f84828501612a2d565b91505092915050565b6000612cb382612aae565b9050919050565b612cc381612ca8565b82525050565b6000602082019050612cde6000830184612cba565b92915050565b600060a082019050612cf960008301886129ec565b612d066020830187612c15565b612d136040830186612c15565b612d206060830185612c15565b612d2d6080830184612c15565b9695505050505050565b612d408161286f565b8114612d4b57600080fd5b50565b600081359050612d5d81612d37565b92915050565b60008060408385031215612d7a57612d796127e0565b5b6000612d8885828601612a2d565b9250506020612d9985828601612d4e565b9150509250929050565b600080fd5b600080fd5b7f4e487b7100000000000000000000000000000000000000000000000000000000600052604160045260246000fd5b612de5826128eb565b810181811067ffffffffffffffff82111715612e0457612e03612dad565b5b80604052505050565b6000612e176127d6565b9050612e238282612ddc565b919050565b600067ffffffffffffffff821115612e4357612e42612dad565b5b612e4c826128eb565b9050602081019050919050565b82818337600083830152505050565b6000612e7b612e7684612e28565b612e0d565b905082815260208101848484011115612e9757612e96612da8565b5b612ea2848285612e59565b509392505050565b600082601f830112612ebf57612ebe612da3565b5b8135612ecf848260208601612e68565b91505092915050565b60008060008060808587031215612ef257612ef16127e0565b5b6000612f0087828801612a2d565b9450506020612f1187828801612a2d565b9350506040612f2287828801612978565b925050606085013567ffffffffffffffff811115612f4357612f426127e5565b5b612f4f87828801612eaa565b91505092959194509250565b60008060408385031215612f7257612f716127e0565b5b6000612f8085828601612a2d565b9250506020612f9185828601612a2d565b9150509250929050565b7f4e487b7100000000000000000000000000000000000000000000000000000000600052602260045260246000fd5b60006002820490506001821680612fe257607f821691505b602082108103612ff557612ff4612f9b565b5b50919050565b600060608201905061301060008301866129ec565b61301d6020830185612c15565b61302a60408301846129ec565b949350505050565b7f4e487b7100000000000000000000000000000000000000000000000000000000600052603260045260246000fd5b600081519050919050565b600082825260208201905092915050565b6000819050602082019050919050565b613096816129da565b82525050565b60006130a8838361308d565b60208301905092915050565b6000602082019050919050565b60006130cc82613061565b6130d6818561306c565b93506130e18361307d565b8060005b838110156131125781516130f9888261309c565b9750613104836130b4565b9250506001810190506130e5565b5085935050505092915050565b6000602082019050818103600083015261313981846130c1565b905092915050565b600067ffffffffffffffff82111561315c5761315b612dad565b5b602082029050602081019050919050565b600080fd5b60008151905061318181612961565b92915050565b600061319a61319584613141565b612e0d565b905080838252602082019050602084028301858111156131bd576131bc61316d565b5b835b818110156131e657806131d28882613172565b8452602084019350506020810190506131bf565b5050509392505050565b600082601f83011261320557613204612da3565b5b8151613215848260208601613187565b91505092915050565b600060208284031215613234576132336127e0565b5b600082015167ffffffffffffffff811115613252576132516127e5565b5b61325e848285016131f0565b91505092915050565b7f4e487b7100000000000000000000000000000000000000000000000000000000600052601160045260246000fd5b60006132a182612957565b91506132ac83612957565b92508282019050808211156132c4576132c3613267565b5b92915050565b60006132d582612957565b91506132e083612957565b92508282026132ee81612957565b9150828204841483151761330557613304613267565b5b5092915050565b7f4e487b7100000000000000000000000000000000000000000000000000000000600052601260045260246000fd5b600061334682612957565b915061335183612957565b9250826133615761336061330c565b5b828204905092915050565b600061337782612957565b915061338283612957565b925082820390508181111561339a57613399613267565b5b92915050565b7f416d6f756e74206d7573742062652067726561746572207468616e2030000000600082015250565b60006133d6601d836128b0565b91506133e1826133a0565b602082019050919050565b60006020820190508181036000830152613405816133c9565b9050919050565b600061341782612957565b91507fffffffffffffffffffffffffffffffffffffffffffffffffffffffffffffffff820361344957613448613267565b5b600182019050919050565b600081905092915050565b600061346a826128a5565b6134748185613454565b93506134848185602086016128c1565b80840191505092915050565b600061349c828561345f565b91506134a8828461345f565b91508190509392505050565b7f4e6f74204e4654206f776e657200000000000000000000000000000000000000600082015250565b60006134ea600d836128b0565b91506134f5826134b4565b602082019050919050565b60006020820190508181036000830152613519816134dd565b9050919050565b600060608201905061353560008301866129ec565b61354260208301856129ec565b61354f6040830184612c15565b949350505050565b600081519050919050565b600082825260208201905092915050565b600061357e82613557565b6135888185613562565b93506135988185602086016128c1565b6135a1816128eb565b840191505092915050565b60006080820190506135c160008301876129ec565b6135ce60208301866129ec565b6135db6040830185612c15565b81810360608301526135ed8184613573565b905095945050505050565b60008151905061360781612816565b92915050565b600060208284031215613623576136226127e0565b5b6000613631848285016135f8565b91505092915050565b600060408201905061364f60008301856129ec565b61365c6020830184612c15565b939250505056fea26469706673582212202ed33c88ecedff827d8808fc88819ce9c9dc895e202a2f7b2004aec388f6417464736f6c63430008140033",
  "linkReferences": {},
  "deployedLinkReferences": {}
}