{
  "_format": "hh-sol-artifact-1",
  "contractName": "XmentoVault",
  "sourceName": "contracts/XmentoVault.sol",
  "abi": [
    {
      "inputs": [],
      "stateMutability": "nonpayable",
      "type": "constructor"
    },
    {
      "anonymous": false,
      "inputs": [
        {
          "indexed": false,
          "internalType": "address",
          "name": "previousAdmin",
          "type": "address"
        },
        {
          "indexed": false,
          "internalType": "address",
          "name": "newAdmin",
          "type": "address"
        }
      ],
      "name": "AdminChanged",
      "type": "event"
    },
    {
      "anonymous": false,
      "inputs": [
        {
          "indexed": true,
          "internalType": "address",
          "name": "owner",
          "type": "address"
        },
        {
          "indexed": true,
          "internalType": "address",
          "name": "approved",
          "type": "address"
        },
        {
          "indexed": true,
          "internalType": "uint256",
          "name": "tokenId",
          "type": "uint256"
        }
      ],
      "name": "Approval",
      "type": "event"
    },
    {
      "anonymous": false,
      "inputs": [
        {
          "indexed": true,
          "internalType": "address",
          "name": "owner",
          "type": "address"
        },
        {
          "indexed": true,
          "internalType": "address",
          "name": "operator",
          "type": "address"
        },
        {
          "indexed": false,
          "internalType": "bool",
          "name": "approved",
          "type": "bool"
        }
      ],
      "name": "ApprovalForAll",
      "type": "event"
    },
    {
      "anonymous": false,
      "inputs": [
        {
          "indexed": true,
          "internalType": "address",
          "name": "beacon",
          "type": "address"
        }
      ],
      "name": "BeaconUpgraded",
      "type": "event"
    },
    {
      "anonymous": false,
      "inputs": [
        {
          "indexed": false,
          "internalType": "string",
          "name": "message",
          "type": "string"
        },
        {
          "indexed": false,
          "internalType": "bytes",
          "name": "values",
          "type": "bytes"
        }
      ],
      "name": "DebugLog",
      "type": "event"
    },
    {
      "anonymous": false,
      "inputs": [
        {
          "indexed": true,
          "internalType": "address",
          "name": "user",
          "type": "address"
        },
        {
          "indexed": true,
          "internalType": "address",
          "name": "token",
          "type": "address"
        },
        {
          "indexed": false,
          "internalType": "uint256",
          "name": "amount",
          "type": "uint256"
        },
        {
          "indexed": false,
          "internalType": "uint256",
          "name": "tokenId",
          "type": "uint256"
        }
      ],
      "name": "Deposited",
      "type": "event"
    },
    {
      "anonymous": false,
      "inputs": [
        {
          "indexed": false,
          "internalType": "uint8",
          "name": "version",
          "type": "uint8"
        }
      ],
      "name": "Initialized",
      "type": "event"
    },
    {
      "anonymous": false,
      "inputs": [
        {
          "indexed": true,
          "internalType": "address",
          "name": "factory",
          "type": "address"
        },
        {
          "indexed": false,
          "internalType": "address",
          "name": "cUSD",
          "type": "address"
        },
        {
          "indexed": false,
          "internalType": "address",
          "name": "cEUR",
          "type": "address"
        },
        {
          "indexed": false,
          "internalType": "address",
          "name": "cREAL",
          "type": "address"
        },
        {
          "indexed": false,
          "internalType": "address",
          "name": "dex",
          "type": "address"
        },
        {
          "indexed": false,
          "internalType": "address",
          "name": "yieldOracle",
          "type": "address"
        }
      ],
      "name": "Initialized",
      "type": "event"
    },
    {
      "anonymous": false,
      "inputs": [
        {
          "indexed": true,
          "internalType": "address",
          "name": "previousOwner",
          "type": "address"
        },
        {
          "indexed": true,
          "internalType": "address",
          "name": "newOwner",
          "type": "address"
        }
      ],
      "name": "OwnershipTransferred",
      "type": "event"
    },
    {
      "anonymous": false,
      "inputs": [
        {
          "indexed": true,
          "internalType": "bytes32",
          "name": "role",
          "type": "bytes32"
        },
        {
          "indexed": true,
          "internalType": "bytes32",
          "name": "previousAdminRole",
          "type": "bytes32"
        },
        {
          "indexed": true,
          "internalType": "bytes32",
          "name": "newAdminRole",
          "type": "bytes32"
        }
      ],
      "name": "RoleAdminChanged",
      "type": "event"
    },
    {
      "anonymous": false,
      "inputs": [
        {
          "indexed": true,
          "internalType": "bytes32",
          "name": "role",
          "type": "bytes32"
        },
        {
          "indexed": true,
          "internalType": "address",
          "name": "account",
          "type": "address"
        },
        {
          "indexed": true,
          "internalType": "address",
          "name": "sender",
          "type": "address"
        }
      ],
      "name": "RoleGranted",
      "type": "event"
    },
    {
      "anonymous": false,
      "inputs": [
        {
          "indexed": true,
          "internalType": "bytes32",
          "name": "role",
          "type": "bytes32"
        },
        {
          "indexed": true,
          "internalType": "address",
          "name": "account",
          "type": "address"
        },
        {
          "indexed": true,
          "internalType": "address",
          "name": "sender",
          "type": "address"
        }
      ],
      "name": "RoleRevoked",
      "type": "event"
    },
    {
      "anonymous": false,
      "inputs": [
        {
          "indexed": true,
          "internalType": "address",
          "name": "from",
          "type": "address"
        },
        {
          "indexed": true,
          "internalType": "address",
          "name": "to",
          "type": "address"
        },
        {
          "indexed": true,
          "internalType": "uint256",
          "name": "tokenId",
          "type": "uint256"
        }
      ],
      "name": "Transfer",
      "type": "event"
    },
    {
      "anonymous": false,
      "inputs": [
        {
          "indexed": true,
          "internalType": "address",
          "name": "implementation",
          "type": "address"
        }
      ],
      "name": "Upgraded",
      "type": "event"
    },
    {
      "anonymous": false,
      "inputs": [
        {
          "indexed": true,
          "internalType": "address",
          "name": "owner",
          "type": "address"
        },
        {
          "indexed": true,
          "internalType": "address",
          "name": "vault",
          "type": "address"
        }
      ],
      "name": "VaultInitialized",
      "type": "event"
    },
    {
      "anonymous": false,
      "inputs": [
        {
          "indexed": true,
          "internalType": "address",
          "name": "user",
          "type": "address"
        },
        {
          "indexed": true,
          "internalType": "address",
          "name": "token",
          "type": "address"
        },
        {
          "indexed": false,
          "internalType": "uint256",
          "name": "amount",
          "type": "uint256"
        },
        {
          "indexed": false,
          "internalType": "uint256",
          "name": "tokenId",
          "type": "uint256"
        }
      ],
      "name": "Withdrawn",
      "type": "event"
    },
    {
      "anonymous": false,
      "inputs": [
        {
          "indexed": true,
          "internalType": "address",
          "name": "user",
          "type": "address"
        },
        {
          "indexed": true,
          "internalType": "address",
          "name": "token",
          "type": "address"
        },
        {
          "indexed": false,
          "internalType": "uint256",
          "name": "amount",
          "type": "uint256"
        },
        {
          "indexed": false,
          "internalType": "uint256",
          "name": "tokenId",
          "type": "uint256"
        }
      ],
      "name": "YieldClaimed",
      "type": "event"
    },
    {
      "inputs": [],
      "name": "DEFAULT_ADMIN_ROLE",
      "outputs": [
        {
          "internalType": "bytes32",
          "name": "",
          "type": "bytes32"
        }
      ],
      "stateMutability": "view",
      "type": "function"
    },
    {
      "inputs": [
        {
          "internalType": "address",
          "name": "to",
          "type": "address"
        },
        {
          "internalType": "uint256",
          "name": "tokenId",
          "type": "uint256"
        }
      ],
      "name": "approve",
      "outputs": [],
      "stateMutability": "nonpayable",
      "type": "function"
    },
    {
      "inputs": [
        {
          "internalType": "address",
          "name": "owner",
          "type": "address"
        }
      ],
      "name": "balanceOf",
      "outputs": [
        {
          "internalType": "uint256",
          "name": "",
          "type": "uint256"
        }
      ],
      "stateMutability": "view",
      "type": "function"
    },
    {
      "inputs": [],
      "name": "cEUR",
      "outputs": [
        {
          "internalType": "contract IERC20",
          "name": "",
          "type": "address"
        }
      ],
      "stateMutability": "view",
      "type": "function"
    },
    {
      "inputs": [],
      "name": "cREAL",
      "outputs": [
        {
          "internalType": "contract IERC20",
          "name": "",
          "type": "address"
        }
      ],
      "stateMutability": "view",
      "type": "function"
    },
    {
      "inputs": [],
      "name": "cUSD",
      "outputs": [
        {
          "internalType": "contract IERC20",
          "name": "",
          "type": "address"
        }
      ],
      "stateMutability": "view",
      "type": "function"
    },
    {
      "inputs": [
        {
          "internalType": "uint256",
          "name": "tokenId",
          "type": "uint256"
        }
      ],
      "name": "calculateYield",
      "outputs": [
        {
          "internalType": "uint256",
          "name": "",
          "type": "uint256"
        }
      ],
      "stateMutability": "view",
      "type": "function"
    },
    {
      "inputs": [
        {
          "internalType": "uint256",
          "name": "tokenId",
          "type": "uint256"
        }
      ],
      "name": "claimYield",
      "outputs": [],
      "stateMutability": "nonpayable",
      "type": "function"
    },
    {
      "inputs": [
        {
          "internalType": "address",
          "name": "token",
          "type": "address"
        },
        {
          "internalType": "uint256",
          "name": "amount",
          "type": "uint256"
        }
      ],
      "name": "deposit",
      "outputs": [],
      "stateMutability": "nonpayable",
      "type": "function"
    },
    {
      "inputs": [],
      "name": "dex",
      "outputs": [
        {
          "internalType": "contract IDEX",
          "name": "",
          "type": "address"
        }
      ],
      "stateMutability": "view",
      "type": "function"
    },
    {
      "inputs": [],
      "name": "factory",
      "outputs": [
        {
          "internalType": "contract IXmentoVaultFactory",
          "name": "",
          "type": "address"
        }
      ],
      "stateMutability": "view",
      "type": "function"
    },
    {
      "inputs": [
        {
          "internalType": "uint256",
          "name": "tokenId",
          "type": "uint256"
        }
      ],
      "name": "getApproved",
      "outputs": [
        {
          "internalType": "address",
          "name": "",
          "type": "address"
        }
      ],
      "stateMutability": "view",
      "type": "function"
    },
    {
      "inputs": [],
      "name": "getOptimalAllocation",
      "outputs": [
        {
          "internalType": "uint256[3]",
          "name": "",
          "type": "uint256[3]"
        }
      ],
      "stateMutability": "view",
      "type": "function"
    },
    {
      "inputs": [
        {
          "internalType": "bytes32",
          "name": "role",
          "type": "bytes32"
        }
      ],
      "name": "getRoleAdmin",
      "outputs": [
        {
          "internalType": "bytes32",
          "name": "",
          "type": "bytes32"
        }
      ],
      "stateMutability": "view",
      "type": "function"
    },
    {
      "inputs": [
        {
          "internalType": "bytes32",
          "name": "role",
          "type": "bytes32"
        },
        {
          "internalType": "address",
          "name": "account",
          "type": "address"
        }
      ],
      "name": "grantRole",
      "outputs": [],
      "stateMutability": "nonpayable",
      "type": "function"
    },
    {
      "inputs": [
        {
          "internalType": "bytes32",
          "name": "role",
          "type": "bytes32"
        },
        {
          "internalType": "address",
          "name": "account",
          "type": "address"
        }
      ],
      "name": "hasRole",
      "outputs": [
        {
          "internalType": "bool",
          "name": "",
          "type": "bool"
        }
      ],
      "stateMutability": "view",
      "type": "function"
    },
    {
      "inputs": [
        {
          "internalType": "address",
          "name": "_factory",
          "type": "address"
        },
        {
          "internalType": "address",
          "name": "_cUSD",
          "type": "address"
        },
        {
          "internalType": "address",
          "name": "_cEUR",
          "type": "address"
        },
        {
          "internalType": "address",
          "name": "_cREAL",
          "type": "address"
        },
        {
          "internalType": "address",
          "name": "_dex",
          "type": "address"
        },
        {
          "internalType": "address",
          "name": "_yieldOracle",
          "type": "address"
        }
      ],
      "name": "initialize",
      "outputs": [],
      "stateMutability": "nonpayable",
      "type": "function"
    },
    {
      "inputs": [
        {
          "internalType": "address",
          "name": "owner",
          "type": "address"
        },
        {
          "internalType": "address",
          "name": "operator",
          "type": "address"
        }
      ],
      "name": "isApprovedForAll",
      "outputs": [
        {
          "internalType": "bool",
          "name": "",
          "type": "bool"
        }
      ],
      "stateMutability": "view",
      "type": "function"
    },
    {
      "inputs": [],
      "name": "name",
      "outputs": [
        {
          "internalType": "string",
          "name": "",
          "type": "string"
        }
      ],
      "stateMutability": "view",
      "type": "function"
    },
    {
      "inputs": [],
      "name": "nextTokenId",
      "outputs": [
        {
          "internalType": "uint256",
          "name": "",
          "type": "uint256"
        }
      ],
      "stateMutability": "view",
      "type": "function"
    },
    {
      "inputs": [],
      "name": "owner",
      "outputs": [
        {
          "internalType": "address",
          "name": "",
          "type": "address"
        }
      ],
      "stateMutability": "view",
      "type": "function"
    },
    {
      "inputs": [
        {
          "internalType": "uint256",
          "name": "tokenId",
          "type": "uint256"
        }
      ],
      "name": "ownerOf",
      "outputs": [
        {
          "internalType": "address",
          "name": "",
          "type": "address"
        }
      ],
      "stateMutability": "view",
      "type": "function"
    },
    {
      "inputs": [
        {
          "internalType": "uint256",
          "name": "",
          "type": "uint256"
        }
      ],
      "name": "positions",
      "outputs": [
        {
          "internalType": "address",
          "name": "token",
          "type": "address"
        },
        {
          "internalType": "uint256",
          "name": "amount",
          "type": "uint256"
        },
        {
          "internalType": "uint256",
          "name": "timestamp",
          "type": "uint256"
        },
        {
          "internalType": "uint256",
          "name": "yieldRate",
          "type": "uint256"
        },
        {
          "internalType": "bool",
          "name": "isActive",
          "type": "bool"
        }
      ],
      "stateMutability": "view",
      "type": "function"
    },
    {
      "inputs": [],
      "name": "proxiableUUID",
      "outputs": [
        {
          "internalType": "bytes32",
          "name": "",
          "type": "bytes32"
        }
      ],
      "stateMutability": "view",
      "type": "function"
    },
    {
      "inputs": [
        {
          "internalType": "uint256",
          "name": "tokenId",
          "type": "uint256"
        }
      ],
      "name": "rebalance",
      "outputs": [],
      "stateMutability": "nonpayable",
      "type": "function"
    },
    {
      "inputs": [
        {
          "internalType": "uint256",
          "name": "tokenId",
          "type": "uint256"
        }
      ],
      "name": "redeem",
      "outputs": [],
      "stateMutability": "nonpayable",
      "type": "function"
    },
    {
      "inputs": [],
      "name": "renounceOwnership",
      "outputs": [],
      "stateMutability": "nonpayable",
      "type": "function"
    },
    {
      "inputs": [
        {
          "internalType": "bytes32",
          "name": "role",
          "type": "bytes32"
        },
        {
          "internalType": "address",
          "name": "account",
          "type": "address"
        }
      ],
      "name": "renounceRole",
      "outputs": [],
      "stateMutability": "nonpayable",
      "type": "function"
    },
    {
      "inputs": [
        {
          "internalType": "bytes32",
          "name": "role",
          "type": "bytes32"
        },
        {
          "internalType": "address",
          "name": "account",
          "type": "address"
        }
      ],
      "name": "revokeRole",
      "outputs": [],
      "stateMutability": "nonpayable",
      "type": "function"
    },
    {
      "inputs": [
        {
          "internalType": "address",
          "name": "from",
          "type": "address"
        },
        {
          "internalType": "address",
          "name": "to",
          "type": "address"
        },
        {
          "internalType": "uint256",
          "name": "tokenId",
          "type": "uint256"
        }
      ],
      "name": "safeTransferFrom",
      "outputs": [],
      "stateMutability": "nonpayable",
      "type": "function"
    },
    {
      "inputs": [
        {
          "internalType": "address",
          "name": "from",
          "type": "address"
        },
        {
          "internalType": "address",
          "name": "to",
          "type": "address"
        },
        {
          "internalType": "uint256",
          "name": "tokenId",
          "type": "uint256"
        },
        {
          "internalType": "bytes",
          "name": "data",
          "type": "bytes"
        }
      ],
      "name": "safeTransferFrom",
      "outputs": [],
      "stateMutability": "nonpayable",
      "type": "function"
    },
    {
      "inputs": [
        {
          "internalType": "address",
          "name": "operator",
          "type": "address"
        },
        {
          "internalType": "bool",
          "name": "approved",
          "type": "bool"
        }
      ],
      "name": "setApprovalForAll",
      "outputs": [],
      "stateMutability": "nonpayable",
      "type": "function"
    },
    {
      "inputs": [
        {
          "internalType": "bytes4",
          "name": "interfaceId",
          "type": "bytes4"
        }
      ],
      "name": "supportsInterface",
      "outputs": [
        {
          "internalType": "bool",
          "name": "",
          "type": "bool"
        }
      ],
      "stateMutability": "view",
      "type": "function"
    },
    {
      "inputs": [],
      "name": "symbol",
      "outputs": [
        {
          "internalType": "string",
          "name": "",
          "type": "string"
        }
      ],
      "stateMutability": "view",
      "type": "function"
    },
    {
      "inputs": [
        {
          "internalType": "uint256",
          "name": "tokenId",
          "type": "uint256"
        }
      ],
      "name": "tokenURI",
      "outputs": [
        {
          "internalType": "string",
          "name": "",
          "type": "string"
        }
      ],
      "stateMutability": "view",
      "type": "function"
    },
    {
      "inputs": [
        {
          "internalType": "address",
          "name": "",
          "type": "address"
        }
      ],
      "name": "totalDeposits",
      "outputs": [
        {
          "internalType": "uint256",
          "name": "",
          "type": "uint256"
        }
      ],
      "stateMutability": "view",
      "type": "function"
    },
    {
      "inputs": [
        {
          "internalType": "address",
          "name": "",
          "type": "address"
        }
      ],
      "name": "totalYield",
      "outputs": [
        {
          "internalType": "uint256",
          "name": "",
          "type": "uint256"
        }
      ],
      "stateMutability": "view",
      "type": "function"
    },
    {
      "inputs": [
        {
          "internalType": "address",
          "name": "from",
          "type": "address"
        },
        {
          "internalType": "address",
          "name": "to",
          "type": "address"
        },
        {
          "internalType": "uint256",
          "name": "tokenId",
          "type": "uint256"
        }
      ],
      "name": "transferFrom",
      "outputs": [],
      "stateMutability": "nonpayable",
      "type": "function"
    },
    {
      "inputs": [
        {
          "internalType": "address",
          "name": "newOwner",
          "type": "address"
        }
      ],
      "name": "transferOwnership",
      "outputs": [],
      "stateMutability": "nonpayable",
      "type": "function"
    },
    {
      "inputs": [
        {
          "internalType": "address",
          "name": "newImplementation",
          "type": "address"
        }
      ],
      "name": "upgradeTo",
      "outputs": [],
      "stateMutability": "nonpayable",
      "type": "function"
    },
    {
      "inputs": [
        {
          "internalType": "address",
          "name": "newImplementation",
          "type": "address"
        },
        {
          "internalType": "bytes",
          "name": "data",
          "type": "bytes"
        }
      ],
      "name": "upgradeToAndCall",
      "outputs": [],
      "stateMutability": "payable",
      "type": "function"
    },
    {
      "inputs": [
        {
          "internalType": "uint256",
          "name": "tokenId",
          "type": "uint256"
        }
      ],
      "name": "withdraw",
      "outputs": [],
      "stateMutability": "nonpayable",
      "type": "function"
    },
    {
      "inputs": [],
      "name": "yieldOracle",
      "outputs": [
        {
          "internalType": "contract IYieldOracle",
          "name": "",
          "type": "address"
        }
      ],
      "stateMutability": "view",
      "type": "function"
    }
  ],
  "bytecode": "0x60a0604052306080523480156200001557600080fd5b506200002062000026565b620000e7565b600054610100900460ff1615620000935760405162461bcd60e51b815260206004820152602760248201527f496e697469616c697a61626c653a20636f6e747261637420697320696e697469604482015266616c697a696e6760c81b606482015260840160405180910390fd5b60005460ff90811614620000e5576000805460ff191660ff9081179091556040519081527f7f26b83ff96e1f2b6a682f133852f6798a09c465da95921460cefb38474024989060200160405180910390a15b565b608051614b056200011f60003960008181610f9f01528181610fdf01528181611de801528181611e280152611eb70152614b056000f3fe60806040526004361061025c5760003560e01c806375794a3c11610144578063b88d4fde116100b6578063d547741f1161007a578063d547741f1461078e578063db006a75146107ae578063e9403256146107ce578063e985e9c5146107fc578063f2fde38b14610845578063f49930181461086557600080fd5b8063b88d4fde146106ec578063c45a01551461070c578063c87b56dd1461072d578063cc2a9a5b1461074d578063d47ce0a61461076d57600080fd5b806395d89b411161010857806395d89b41146105c757806399fbab88146105dc578063a217fddf14610668578063a22cb4651461067d578063a7f0e3421461069d578063b26dd040146106be57600080fd5b806375794a3c146105315780637d1f2de71461054857806380a3301b146105695780638da5cb5b1461058957806391d14854146105a757600080fd5b806336568abe116101dd5780634f1ef286116101a15780634f1ef2861461049357806352d1902d146104a65780636352211e146104bb578063692058c2146104db57806370a08231146104fc578063715018a61461051c57600080fd5b806336568abe146103f35780633659cfe61461041357806340bd2e231461043357806342842e0e1461045357806347e7ef241461047357600080fd5b806323b872dd1161022457806323b872dd14610333578063248a9ca3146103535780632e1a7d4d146103915780632f2ff15d146103b157806333a7ad76146103d157600080fd5b806301ffc9a71461026157806306fdde0314610296578063081812fc146102b8578063095ea7b3146102f05780631fccf67214610312575b600080fd5b34801561026d57600080fd5b5061028161027c366004613e54565b610885565b60405190151581526020015b60405180910390f35b3480156102a257600080fd5b506102ab610896565b60405161028d9190613ec1565b3480156102c457600080fd5b506102d86102d3366004613ed4565b610928565b6040516001600160a01b03909116815260200161028d565b3480156102fc57600080fd5b5061031061030b366004613f09565b61094f565b005b34801561031e57600080fd5b50610192546102d8906001600160a01b031681565b34801561033f57600080fd5b5061031061034e366004613f33565b610a69565b34801561035f57600080fd5b5061038361036e366004613ed4565b600090815260c9602052604090206001015490565b60405190815260200161028d565b34801561039d57600080fd5b506103106103ac366004613ed4565b610a9a565b3480156103bd57600080fd5b506103106103cc366004613f6f565b610c25565b3480156103dd57600080fd5b506103e6610c4a565b60405161028d9190613f9b565b3480156103ff57600080fd5b5061031061040e366004613f6f565b610f17565b34801561041f57600080fd5b5061031061042e366004613fcc565b610f95565b34801561043f57600080fd5b5061031061044e366004613ed4565b611071565b34801561045f57600080fd5b5061031061046e366004613f33565b61119a565b34801561047f57600080fd5b5061031061048e366004613f09565b6111b5565b6103106104a136600461409e565b611dde565b3480156104b257600080fd5b50610383611eaa565b3480156104c757600080fd5b506102d86104d6366004613ed4565b611f5d565b3480156104e757600080fd5b50610195546102d8906001600160a01b031681565b34801561050857600080fd5b50610383610517366004613fcc565b611fbd565b34801561052857600080fd5b50610310612043565b34801561053d57600080fd5b506103836101975481565b34801561055457600080fd5b50610193546102d8906001600160a01b031681565b34801561057557600080fd5b50610383610584366004613ed4565b612057565b34801561059557600080fd5b506097546001600160a01b03166102d8565b3480156105b357600080fd5b506102816105c2366004613f6f565b6121c7565b3480156105d357600080fd5b506102ab6121f2565b3480156105e857600080fd5b506106346105f7366004613ed4565b61019860205260009081526040902080546001820154600283015460038401546004909401546001600160a01b0390931693919290919060ff1685565b604080516001600160a01b03909616865260208601949094529284019190915260608301521515608082015260a00161028d565b34801561067457600080fd5b50610383600081565b34801561068957600080fd5b506103106106983660046140fa565b612201565b3480156106a957600080fd5b50610196546102d8906001600160a01b031681565b3480156106ca57600080fd5b506103836106d9366004613fcc565b61019a6020526000908152604090205481565b3480156106f857600080fd5b50610310610707366004614131565b61220c565b34801561071857600080fd5b50610191546102d8906001600160a01b031681565b34801561073957600080fd5b506102ab610748366004613ed4565b612244565b34801561075957600080fd5b50610310610768366004614199565b6122b8565b34801561077957600080fd5b50610194546102d8906001600160a01b031681565b34801561079a57600080fd5b506103106107a9366004613f6f565b6126f1565b3480156107ba57600080fd5b506103106107c9366004613ed4565b612716565b3480156107da57600080fd5b506103836107e9366004613fcc565b6101996020526000908152604090205481565b34801561080857600080fd5b5061028161081736600461420d565b6001600160a01b039182166000908152606a6020908152604080832093909416825291909152205460ff1690565b34801561085157600080fd5b50610310610860366004613fcc565b61287b565b34801561087157600080fd5b50610310610880366004613ed4565b6128f1565b600061089082612a16565b92915050565b6060606580546108a590614237565b80601f01602080910402602001604051908101604052809291908181526020018280546108d190614237565b801561091e5780601f106108f35761010080835404028352916020019161091e565b820191906000526020600020905b81548152906001019060200180831161090157829003601f168201915b5050505050905090565b600061093382612a3b565b506000908152606960205260409020546001600160a01b031690565b600061095a82611f5d565b9050806001600160a01b0316836001600160a01b0316036109cc5760405162461bcd60e51b815260206004820152602160248201527f4552433732313a20617070726f76616c20746f2063757272656e74206f776e656044820152603960f91b60648201526084015b60405180910390fd5b336001600160a01b03821614806109e857506109e88133610817565b610a5a5760405162461bcd60e51b815260206004820152603d60248201527f4552433732313a20617070726f76652063616c6c6572206973206e6f7420746f60448201527f6b656e206f776e6572206f7220617070726f76656420666f7220616c6c00000060648201526084016109c3565b610a648383612a9a565b505050565b610a733382612b08565b610a8f5760405162461bcd60e51b81526004016109c390614271565b610a64838383612b87565b610aa2612ceb565b33610aac82611f5d565b6001600160a01b031614610ad25760405162461bcd60e51b81526004016109c3906142be565b600081815261019860205260409020600481015460ff16610b2e5760405162461bcd60e51b8152602060048201526016602482015275506f736974696f6e206973206e6f742061637469766560501b60448201526064016109c3565b8054600182015460048301805460ff191690556001600160a01b039091166000818152610199602052604081208054929392839290610b6e9084906142fb565b90915550610b7d905084612d44565b60008481526101986020526040812080546001600160a01b031916815560018101829055600281018290556003810191909155600401805460ff19169055610bcf6001600160a01b0383163383612dd9565b60408051828152602081018690526001600160a01b0384169133917f91fb9d98b786c57d74c099ccd2beca1739e9f6a81fb49001ca465c4b7591bbe2910160405180910390a3505050610c22600160fb55565b50565b600082815260c96020526040902060010154610c4081612e43565b610a648383612e4d565b610c52613e20565b604080516003808252608082019092526000916020820160608036833750506101925482519293506001600160a01b031691839150600090610c9657610c9661430e565b6001600160a01b03928316602091820292909201015261019354825191169082906001908110610cc857610cc861430e565b6001600160a01b03928316602091820292909201015261019454825191169082906002908110610cfa57610cfa61430e565b6001600160a01b0392831660209182029290920101526101965460405163379698e960e21b8152600092919091169063de5a63a490610d3d908590600401614324565b600060405180830381865afa158015610d5a573d6000803e3d6000fd5b505050506040513d6000823e601f3d908101601f19168201604052610d829190810190614371565b9050600081600281518110610d9957610d9961430e565b602002602001015182600181518110610db457610db461430e565b602002602001015183600081518110610dcf57610dcf61430e565b6020026020010151610de19190614417565b610deb9190614417565b905080600003610e1b57604051806060016040528060218152602001602181526020016022815250935050505090565b60405180606001604052808284600081518110610e3a57610e3a61430e565b60200260200101516064610e4e919061442a565b610e589190614441565b81526020018284600181518110610e7157610e7161430e565b60200260200101516064610e85919061442a565b610e8f9190614441565b81526020018284600181518110610ea857610ea861430e565b60200260200101516064610ebc919061442a565b610ec69190614441565b8385600081518110610eda57610eda61430e565b60200260200101516064610eee919061442a565b610ef89190614441565b610f039060646142fb565b610f0d91906142fb565b9052949350505050565b6001600160a01b0381163314610f875760405162461bcd60e51b815260206004820152602f60248201527f416363657373436f6e74726f6c3a2063616e206f6e6c792072656e6f756e636560448201526e103937b632b9903337b91039b2b63360891b60648201526084016109c3565b610f918282612ed3565b5050565b6001600160a01b037f0000000000000000000000000000000000000000000000000000000000000000163003610fdd5760405162461bcd60e51b81526004016109c390614463565b7f00000000000000000000000000000000000000000000000000000000000000006001600160a01b0316611026600080516020614a69833981519152546001600160a01b031690565b6001600160a01b03161461104c5760405162461bcd60e51b81526004016109c3906144af565b61105581612f3a565b60408051600080825260208201909252610c2291839190612f42565b3361107b82611f5d565b6001600160a01b0316146110a15760405162461bcd60e51b81526004016109c3906142be565b60006110ac82612057565b9050600081116110f25760405162461bcd60e51b81526020600482015260116024820152704e6f207969656c6420746f20636c61696d60781b60448201526064016109c3565b60008281526101986020908152604080832042600282015580546001600160a01b0316845261019a9092528220805491928492611130908490614417565b9091555050805461114b906001600160a01b03163384612dd9565b805460408051848152602081018690526001600160a01b039092169133917fb10c79aa8ce52424b7676b33fe7b45ea2516b75f43f3b5c0c730e52ca8ef36a591015b60405180910390a3505050565b610a648383836040518060200160405280600081525061220c565b6111bd612ceb565b60006111d16097546001600160a01b031690565b6001600160a01b0316036112275760405162461bcd60e51b815260206004820152601860248201527f436f6e7472616374206e6f7420696e697469616c697a6564000000000000000060448201526064016109c3565b6040516603a37b5b2b71d160cd1b60208201526001600160601b0319606084901b1660278201526801030b6b7bab73a1d160bd1b603b82015260448101829052600080516020614ab08339815191529060640160408051601f1981840301815290829052611294916144fb565b60405180910390a16001600160a01b0382166112fc5760405162461bcd60e51b815260206004820152602160248201527f584d563a20546f6b656e20616464726573732063616e6e6f74206265207a65726044820152606f60f81b60648201526084016109c3565b600081116113575760405162461bcd60e51b815260206004820152602260248201527f584d563a20416d6f756e74206d7573742062652067726561746572207468616e604482015261020360f41b60648201526084016109c3565b6040516603a37b5b2b71d160cd1b60208201526001600160601b0319606084901b166027820152600080516020614ab083398151915290603b0160408051601f19818403018152908290526113ab91614538565b60405180910390a1610192546000906001600160a01b03848116911614806113e15750610193546001600160a01b038481169116145b806113fa5750610194546001600160a01b038481169116145b9050806114495760405162461bcd60e51b815260206004820152601860248201527f584d563a20546f6b656e206e6f7420737570706f72746564000000000000000060448201526064016109c3565b600080516020614ab083398151915260405161149d906040808252601590820152740ccb88151bdad95b881a5cc81cdd5c1c1bdc9d1959605a1b606082015260806020820181905260009082015260a00190565b60405180910390a1600080516020614ab083398151915260405161150c9060408082526022908201527f342e2047657474696e672062616c616e6365206265666f7265207472616e736660608201526132b960f11b608082015260a06020820181905260009082015260c00190565b60405180910390a16040516370a0823160e01b81523060048201526000906001600160a01b038516906370a0823190602401602060405180830381865afa15801561155b573d6000803e3d6000fd5b505050506040513d601f19601f8201168201806040525081019061157f919061457f565b9050600080516020614ab0833981519152816040516020016115a391815260200190565b60408051601f19818403018152908290526115bd91614598565b60405180910390a1600080516020614ab08339815191526040516116309060408082526026908201527f362e20436865636b696e6720757365722062616c616e636520616e6420616c6c6060820152656f77616e636560d01b608082015260a06020820181905260009082015260c00190565b60405180910390a16040516370a0823160e01b815233600482015284906000906001600160a01b038316906370a0823190602401602060405180830381865afa158015611681573d6000803e3d6000fd5b505050506040513d601f19601f820116820180604052508101906116a5919061457f565b604051636eb1769f60e11b81523360048201523060248201529091506000906001600160a01b0384169063dd62ed3e90604401602060405180830381865afa1580156116f5573d6000803e3d6000fd5b505050506040513d601f19601f82011682018060405250810190611719919061457f565b6040516803130b630b731b29d160bd1b6020820152602981018490526b01030b63637bbb0b731b29d160a51b6049820152605581018290526a0103932b8bab4b932b21d160ad1b607582015260808101889052909150600080516020614ab08339815191529060a00160408051601f198184030181529082905261179c916145df565b60405180910390a1858210156117f45760405162461bcd60e51b815260206004820152601960248201527f584d563a20496e73756666696369656e742062616c616e63650000000000000060448201526064016109c3565b858110156118445760405162461bcd60e51b815260206004820152601b60248201527f584d563a20496e73756666696369656e7420616c6c6f77616e6365000000000060448201526064016109c3565b600080516020614ab08339815191526040516118a0906040808252601c908201527f382e20496e6974696174696e6720746f6b656e207472616e7366657200000000606082015260806020820181905260009082015260a00190565b60405180910390a16118bd6001600160a01b0384163330896130ad565b600080516020614ab0833981519152604051611912906040808252601690820152750e4b88151c985b9cd9995c881cdd58d8d95cdcd99d5b60521b606082015260806020820181905260009082015260a00190565b60405180910390a1600080516020614ab083398151915260405161196f90604080825260169082015275189817102b32b934b33cb4b733903a3930b739b332b960511b606082015260806020820181905260009082015260a00190565b60405180910390a16040516370a0823160e01b81523060048201526000906001600160a01b038516906370a0823190602401602060405180830381865afa1580156119be573d6000803e3d6000fd5b505050506040513d601f19601f820116820180604052508101906119e2919061457f565b9050600080516020614ab0833981519152816119fe8988614417565b60405167030b1ba3ab0b61d160c51b602082015260288101929092526a01032bc3832b1ba32b21d160ad1b6048830152605382015260730160408051601f1981840301815290829052611a5091614626565b60405180910390a1611a628786614417565b8114611ab05760405162461bcd60e51b815260206004820152601a60248201527f584d563a20546f6b656e207472616e73666572206661696c656400000000000060448201526064016109c3565b600080516020614ab0833981519152604051611b04906040808252601590820152740c4c8b88151c985b9cd9995c881d995c9a599a5959605a1b606082015260806020820181905260009082015260a00190565b60405180910390a1610197805460009182611b1e8361466d565b909155506040805160a0810182526001600160a01b038c8116808352602083018d9052428385015261019654935163c4f9870b60e01b81526004810191909152939450909260608401929091169063c4f9870b90602401602060405180830381865afa158015611b92573d6000803e3d6000fd5b505050506040513d601f19601f82011682018060405250810190611bb6919061457f565b815260016020918201819052600084815261019883526040808220855181546001600160a01b0319166001600160a01b039182161782558686015194820194909455858201516002820155606086015160038201556080909501516004909501805460ff191695151595909517909455908c16815261019990915290812080548a9290611c44908490614417565b90915550611c54905033826130e5565b60408051602081018390526001600160601b031960608c901b169181019190915260548101899052426074820152600080516020614ab08339815191529060940160408051601f1981840301815290829052611caf91614686565b60405180910390a16001600160a01b03891660009081526101996020908152604091829020549151600080516020614ab083398151915292611d0b928d920160609290921b6001600160601b0319168252601482015260340190565b60408051601f1981840301815290829052611d25916146c0565b60405180910390a1600080516020614ab08339815191528133604051602001611d6592919091825260601b6001600160601b031916602082015260340190565b60408051601f1981840301815290829052611d7f91614700565b60405180910390a160408051898152602081018390526001600160a01b038b169133917ff5681f9d0db1b911ac18ee83d515a1cf1051853a9eae418316a2fdf7dea427c5910160405180910390a350505050505050610f91600160fb55565b6001600160a01b037f0000000000000000000000000000000000000000000000000000000000000000163003611e265760405162461bcd60e51b81526004016109c390614463565b7f00000000000000000000000000000000000000000000000000000000000000006001600160a01b0316611e6f600080516020614a69833981519152546001600160a01b031690565b6001600160a01b031614611e955760405162461bcd60e51b81526004016109c3906144af565b611e9e82612f3a565b610f9182826001612f42565b6000306001600160a01b037f00000000000000000000000000000000000000000000000000000000000000001614611f4a5760405162461bcd60e51b815260206004820152603860248201527f555550535570677261646561626c653a206d757374206e6f742062652063616c60448201527f6c6564207468726f7567682064656c656761746563616c6c000000000000000060648201526084016109c3565b50600080516020614a6983398151915290565b6000818152606760205260408120546001600160a01b0316806108905760405162461bcd60e51b8152602060048201526018602482015277115490cdcc8c4e881a5b9d985b1a59081d1bdad95b88125160421b60448201526064016109c3565b60006001600160a01b0382166120275760405162461bcd60e51b815260206004820152602960248201527f4552433732313a2061646472657373207a65726f206973206e6f7420612076616044820152683634b21037bbb732b960b91b60648201526084016109c3565b506001600160a01b031660009081526068602052604090205490565b61204b613270565b61205560006132ca565b565b60008061206383611f5d565b6001600160a01b0316036120b95760405162461bcd60e51b815260206004820152601760248201527f506f736974696f6e20646f6573206e6f7420657869737400000000000000000060448201526064016109c3565b600082815261019860209081526040808320815160a08101835281546001600160a01b031681526001820154938101939093526002810154918301829052600381015460608401526004015460ff161515608083015290919061211c90426142fb565b61019654835160405163c4f9870b60e01b81526001600160a01b03918216600482015292935060009291169063c4f9870b90602401602060405180830381865afa15801561216e573d6000803e3d6000fd5b505050506040513d601f19601f82011682018060405250810190612192919061457f565b905063bbf81e00828285602001516121aa919061442a565b6121b4919061442a565b6121be9190614441565b95945050505050565b600091825260c9602090815260408084206001600160a01b0393909316845291905290205460ff1690565b6060606680546108a590614237565b610f9133838361331c565b6122163383612b08565b6122325760405162461bcd60e51b81526004016109c390614271565b61223e848484846133e2565b50505050565b606061224f82612a3b565b600061226660408051602081019091526000815290565b9050600081511161228657604051806020016040528060008152506122b1565b8061229084613415565b6040516020016122a1929190614734565b6040516020818303038152906040525b9392505050565b600054610100900460ff16158080156122d85750600054600160ff909116105b806122f25750303b1580156122f2575060005460ff166001145b6123555760405162461bcd60e51b815260206004820152602e60248201527f496e697469616c697a61626c653a20636f6e747261637420697320616c72656160448201526d191e481a5b9a5d1a585b1a5e995960921b60648201526084016109c3565b6000805460ff191660011790558015612378576000805461ff0019166101001790555b6123c46040518060400160405280600b81526020016a161b595b9d1bd5985d5b1d60aa1b815250604051806040016040528060078152602001661613559055531560ca1b8152506134a8565b6123cc6134d9565b6123d4613508565b6123dc61352f565b6123e4613508565b6001610197556001600160a01b0387166124405760405162461bcd60e51b815260206004820152601760248201527f496e76616c696420666163746f7279206164647265737300000000000000000060448201526064016109c3565b6001600160a01b03861661248d5760405162461bcd60e51b8152602060048201526014602482015273496e76616c69642063555344206164647265737360601b60448201526064016109c3565b6001600160a01b0385166124da5760405162461bcd60e51b8152602060048201526014602482015273496e76616c69642063455552206164647265737360601b60448201526064016109c3565b6001600160a01b0384166125285760405162461bcd60e51b8152602060048201526015602482015274496e76616c696420635245414c206164647265737360581b60448201526064016109c3565b6001600160a01b0383166125745760405162461bcd60e51b8152602060048201526013602482015272496e76616c696420444558206164647265737360681b60448201526064016109c3565b6001600160a01b0382166125ca5760405162461bcd60e51b815260206004820152601c60248201527f496e76616c6964207969656c64206f7261636c6520616464726573730000000060448201526064016109c3565b61019180546001600160a01b03199081166001600160a01b038a81169190911790925561019280548216898416179055610193805482168884161790556101948054821687841617905561019580548216868416179055610196805490911691841691909117905561263d600033612e4d565b6126677f7edcee67725a77bfa311b39349d7e96df9b23fbdbdcb328dfc17d77926920c1333612e4d565b61019b805460ff19166001179055604051309033907f3a72e8ae02f203cb5415fd3bfacaad88fa2923e8b6210e8c033253cea65b605b90600090a380156126e8576000805461ff0019169055604051600181527f7f26b83ff96e1f2b6a682f133852f6798a09c465da95921460cefb38474024989060200160405180910390a15b50505050505050565b600082815260c9602052604090206001015461270c81612e43565b610a648383612ed3565b3361272082611f5d565b6001600160a01b0316146127465760405162461bcd60e51b81526004016109c3906142be565b60008181526101986020908152604091829020825160a08101845281546001600160a01b031680825260018301549382018490526002830154948201949094526003820154606082015260049091015460ff1615156080820152916127ac913390612dd9565b60208082015182516001600160a01b03166000908152610199909252604082208054919290916127dd9084906142fb565b909155506127ec905082612d44565b60008281526101986020908152604080832080546001600160a01b0319168155600181018490556002810184905560038101939093556004909201805460ff1916905582518382015183519081529182018590526001600160a01b03169133917f91fb9d98b786c57d74c099ccd2beca1739e9f6a81fb49001ca465c4b7591bbe2910160405180910390a35050565b612883613270565b6001600160a01b0381166128e85760405162461bcd60e51b815260206004820152602660248201527f4f776e61626c653a206e6577206f776e657220697320746865207a65726f206160448201526564647265737360d01b60648201526084016109c3565b610c22816132ca565b336128fb82611f5d565b6001600160a01b0316146129215760405162461bcd60e51b81526004016109c3906142be565b6000818152610198602052604081208054600182015491926001600160a01b03909116919061294e610c4a565b8051909150600090606490612963908561442a565b61296d9190614441565b6001860181905542600287015560408051858152602081018990529192506001600160a01b0386169133917f91fb9d98b786c57d74c099ccd2beca1739e9f6a81fb49001ca465c4b7591bbe2910160405180910390a36101925460408051838152602081018990526001600160a01b039092169133917ff5681f9d0db1b911ac18ee83d515a1cf1051853a9eae418316a2fdf7dea427c5910160405180910390a3505050505050565b60006001600160e01b03198216637965db0b60e01b148061089057506108908261355e565b6000818152606760205260409020546001600160a01b0316610c225760405162461bcd60e51b8152602060048201526018602482015277115490cdcc8c4e881a5b9d985b1a59081d1bdad95b88125160421b60448201526064016109c3565b600081815260696020526040902080546001600160a01b0319166001600160a01b0384169081179091558190612acf82611f5d565b6001600160a01b03167f8c5be1e5ebec7d5bd14f71427d1e84f3dd0314c0f7b2291e5b200ac8c7c3b92560405160405180910390a45050565b600080612b1483611f5d565b9050806001600160a01b0316846001600160a01b03161480612b5b57506001600160a01b038082166000908152606a602090815260408083209388168352929052205460ff165b80612b7f5750836001600160a01b0316612b7484610928565b6001600160a01b0316145b949350505050565b826001600160a01b0316612b9a82611f5d565b6001600160a01b031614612bc05760405162461bcd60e51b81526004016109c390614763565b6001600160a01b038216612c225760405162461bcd60e51b8152602060048201526024808201527f4552433732313a207472616e7366657220746f20746865207a65726f206164646044820152637265737360e01b60648201526084016109c3565b826001600160a01b0316612c3582611f5d565b6001600160a01b031614612c5b5760405162461bcd60e51b81526004016109c390614763565b600081815260696020908152604080832080546001600160a01b03199081169091556001600160a01b0387811680865260688552838620805460001901905590871680865283862080546001019055868652606790945282852080549092168417909155905184937fddf252ad1be2c89b69c2b068fc378daa952ba7f163c4a11628f55a4df523b3ef91a4505050565b600260fb5403612d3d5760405162461bcd60e51b815260206004820152601f60248201527f5265656e7472616e637947756172643a207265656e7472616e742063616c6c0060448201526064016109c3565b600260fb55565b6000612d4f82611f5d565b9050612d5a82611f5d565b600083815260696020908152604080832080546001600160a01b03199081169091556001600160a01b0385168085526068845282852080546000190190558785526067909352818420805490911690555192935084927fddf252ad1be2c89b69c2b068fc378daa952ba7f163c4a11628f55a4df523b3ef908390a45050565b6040516001600160a01b038316602482015260448101829052610a6490849063a9059cbb60e01b906064015b60408051601f198184030181529190526020810180516001600160e01b03166001600160e01b0319909316929092179091526135ae565b600160fb55565b610c228133613683565b612e5782826121c7565b610f9157600082815260c9602090815260408083206001600160a01b03851684529091529020805460ff19166001179055612e8f3390565b6001600160a01b0316816001600160a01b0316837f2f8788117e7eff1d82e926ec794901d17c78024a50270940304540a733656f0d60405160405180910390a45050565b612edd82826121c7565b15610f9157600082815260c9602090815260408083206001600160a01b0385168085529252808320805460ff1916905551339285917ff6391f5c32d9c69d2a47ea670b442974b53935d1edc7fd64eb21e047a839171b9190a45050565b610c22613270565b7f4910fdfa16fed3260ed0e7147f7cc6da11a60208b5b9406d12a635614ffd91435460ff1615612f7557610a64836136dc565b826001600160a01b03166352d1902d6040518163ffffffff1660e01b8152600401602060405180830381865afa925050508015612fcf575060408051601f3d908101601f19168201909252612fcc9181019061457f565b60015b6130325760405162461bcd60e51b815260206004820152602e60248201527f45524331393637557067726164653a206e657720696d706c656d656e7461746960448201526d6f6e206973206e6f74205555505360901b60648201526084016109c3565b600080516020614a6983398151915281146130a15760405162461bcd60e51b815260206004820152602960248201527f45524331393637557067726164653a20756e737570706f727465642070726f786044820152681a58589b195555525160ba1b60648201526084016109c3565b50610a64838383613778565b6040516001600160a01b038085166024830152831660448201526064810182905261223e9085906323b872dd60e01b90608401612e05565b6001600160a01b03821661313b5760405162461bcd60e51b815260206004820181905260248201527f4552433732313a206d696e7420746f20746865207a65726f206164647265737360448201526064016109c3565b6000818152606760205260409020546001600160a01b0316156131a05760405162461bcd60e51b815260206004820152601c60248201527f4552433732313a20746f6b656e20616c7265616479206d696e7465640000000060448201526064016109c3565b6000818152606760205260409020546001600160a01b0316156132055760405162461bcd60e51b815260206004820152601c60248201527f4552433732313a20746f6b656e20616c7265616479206d696e7465640000000060448201526064016109c3565b6001600160a01b038216600081815260686020908152604080832080546001019055848352606790915280822080546001600160a01b0319168417905551839291907fddf252ad1be2c89b69c2b068fc378daa952ba7f163c4a11628f55a4df523b3ef908290a45050565b6097546001600160a01b031633146120555760405162461bcd60e51b815260206004820181905260248201527f4f776e61626c653a2063616c6c6572206973206e6f7420746865206f776e657260448201526064016109c3565b609780546001600160a01b038381166001600160a01b0319831681179093556040519116919082907f8be0079c531659141344cd1fd0a4f28419497f9722a3daafe3b4186f6b6457e090600090a35050565b816001600160a01b0316836001600160a01b03160361337d5760405162461bcd60e51b815260206004820152601960248201527f4552433732313a20617070726f766520746f2063616c6c65720000000000000060448201526064016109c3565b6001600160a01b038381166000818152606a6020908152604080832094871680845294825291829020805460ff191686151590811790915591519182527f17307eab39ab6107e8899845ad3d59bd9653f200f220920489ca2b5937696c31910161118d565b6133ed848484612b87565b6133f98484848461379d565b61223e5760405162461bcd60e51b81526004016109c3906147a8565b606060006134228361389e565b600101905060008167ffffffffffffffff81111561344257613442613fe7565b6040519080825280601f01601f19166020018201604052801561346c576020820181803683370190505b5090508181016020015b600019016f181899199a1a9b1b9c1cb0b131b232b360811b600a86061a8153600a850494508461347657509392505050565b600054610100900460ff166134cf5760405162461bcd60e51b81526004016109c3906147fa565b610f918282613976565b600054610100900460ff166135005760405162461bcd60e51b81526004016109c3906147fa565b6120556139b6565b600054610100900460ff166120555760405162461bcd60e51b81526004016109c3906147fa565b600054610100900460ff166135565760405162461bcd60e51b81526004016109c3906147fa565b6120556139e6565b60006001600160e01b031982166380ac58cd60e01b148061358f57506001600160e01b03198216635b5e139f60e01b145b8061089057506301ffc9a760e01b6001600160e01b0319831614610890565b6000613603826040518060400160405280602081526020017f5361666545524332303a206c6f772d6c6576656c2063616c6c206661696c6564815250856001600160a01b0316613a0d9092919063ffffffff16565b90508051600014806136245750808060200190518101906136249190614845565b610a645760405162461bcd60e51b815260206004820152602a60248201527f5361666545524332303a204552433230206f7065726174696f6e20646964206e6044820152691bdd081cdd58d8d9595960b21b60648201526084016109c3565b61368d82826121c7565b610f915761369a81613a1c565b6136a5836020613a2e565b6040516020016136b6929190614862565b60408051601f198184030181529082905262461bcd60e51b82526109c391600401613ec1565b6001600160a01b0381163b6137495760405162461bcd60e51b815260206004820152602d60248201527f455243313936373a206e657720696d706c656d656e746174696f6e206973206e60448201526c1bdd08184818dbdb9d1c9858dd609a1b60648201526084016109c3565b600080516020614a6983398151915280546001600160a01b0319166001600160a01b0392909216919091179055565b61378183613bca565b60008251118061378e5750805b15610a645761223e8383613c0a565b60006001600160a01b0384163b1561389357604051630a85bd0160e11b81526001600160a01b0385169063150b7a02906137e19033908990889088906004016148d7565b6020604051808303816000875af192505050801561381c575060408051601f3d908101601f191682019092526138199181019061490a565b60015b613879573d80801561384a576040519150601f19603f3d011682016040523d82523d6000602084013e61384f565b606091505b5080516000036138715760405162461bcd60e51b81526004016109c3906147a8565b805181602001fd5b6001600160e01b031916630a85bd0160e11b149050612b7f565b506001949350505050565b60008072184f03e93ff9f4daa797ed6e38ed64bf6a1f0160401b83106138dd5772184f03e93ff9f4daa797ed6e38ed64bf6a1f0160401b830492506040015b6d04ee2d6d415b85acef81000000008310613909576d04ee2d6d415b85acef8100000000830492506020015b662386f26fc10000831061392757662386f26fc10000830492506010015b6305f5e100831061393f576305f5e100830492506008015b612710831061395357612710830492506004015b60648310613965576064830492506002015b600a83106108905760010192915050565b600054610100900460ff1661399d5760405162461bcd60e51b81526004016109c3906147fa565b60656139a98382614975565b506066610a648282614975565b600054610100900460ff166139dd5760405162461bcd60e51b81526004016109c3906147fa565b612055336132ca565b600054610100900460ff16612e3c5760405162461bcd60e51b81526004016109c3906147fa565b6060612b7f8484600085613c2f565b60606108906001600160a01b03831660145b60606000613a3d83600261442a565b613a48906002614417565b67ffffffffffffffff811115613a6057613a60613fe7565b6040519080825280601f01601f191660200182016040528015613a8a576020820181803683370190505b509050600360fc1b81600081518110613aa557613aa561430e565b60200101906001600160f81b031916908160001a905350600f60fb1b81600181518110613ad457613ad461430e565b60200101906001600160f81b031916908160001a9053506000613af884600261442a565b613b03906001614417565b90505b6001811115613b7b576f181899199a1a9b1b9c1cb0b131b232b360811b85600f1660108110613b3757613b3761430e565b1a60f81b828281518110613b4d57613b4d61430e565b60200101906001600160f81b031916908160001a90535060049490941c93613b7481614a35565b9050613b06565b5083156122b15760405162461bcd60e51b815260206004820181905260248201527f537472696e67733a20686578206c656e67746820696e73756666696369656e7460448201526064016109c3565b613bd3816136dc565b6040516001600160a01b038216907fbc7cd75a20ee27fd9adebab32041f755214dbc6bffa90cc0225b39da2e5c2d3b90600090a250565b60606122b18383604051806060016040528060278152602001614a8960279139613d0a565b606082471015613c905760405162461bcd60e51b815260206004820152602660248201527f416464726573733a20696e73756666696369656e742062616c616e636520666f6044820152651c8818d85b1b60d21b60648201526084016109c3565b600080866001600160a01b03168587604051613cac9190614a4c565b60006040518083038185875af1925050503d8060008114613ce9576040519150601f19603f3d011682016040523d82523d6000602084013e613cee565b606091505b5091509150613cff87838387613d82565b979650505050505050565b6060600080856001600160a01b031685604051613d279190614a4c565b600060405180830381855af49150503d8060008114613d62576040519150601f19603f3d011682016040523d82523d6000602084013e613d67565b606091505b5091509150613d7886838387613d82565b9695505050505050565b60608315613df1578251600003613dea576001600160a01b0385163b613dea5760405162461bcd60e51b815260206004820152601d60248201527f416464726573733a2063616c6c20746f206e6f6e2d636f6e747261637400000060448201526064016109c3565b5081612b7f565b612b7f8383815115613e065781518083602001fd5b8060405162461bcd60e51b81526004016109c39190613ec1565b60405180606001604052806003906020820280368337509192915050565b6001600160e01b031981168114610c2257600080fd5b600060208284031215613e6657600080fd5b81356122b181613e3e565b60005b83811015613e8c578181015183820152602001613e74565b50506000910152565b60008151808452613ead816020860160208601613e71565b601f01601f19169290920160200192915050565b6020815260006122b16020830184613e95565b600060208284031215613ee657600080fd5b5035919050565b80356001600160a01b0381168114613f0457600080fd5b919050565b60008060408385031215613f1c57600080fd5b613f2583613eed565b946020939093013593505050565b600080600060608486031215613f4857600080fd5b613f5184613eed565b9250613f5f60208501613eed565b9150604084013590509250925092565b60008060408385031215613f8257600080fd5b82359150613f9260208401613eed565b90509250929050565b60608101818360005b6003811015613fc3578151835260209283019290910190600101613fa4565b50505092915050565b600060208284031215613fde57600080fd5b6122b182613eed565b634e487b7160e01b600052604160045260246000fd5b604051601f8201601f1916810167ffffffffffffffff8111828210171561402657614026613fe7565b604052919050565b600082601f83011261403f57600080fd5b813567ffffffffffffffff81111561405957614059613fe7565b61406c601f8201601f1916602001613ffd565b81815284602083860101111561408157600080fd5b816020850160208301376000918101602001919091529392505050565b600080604083850312156140b157600080fd5b6140ba83613eed565b9150602083013567ffffffffffffffff8111156140d657600080fd5b6140e28582860161402e565b9150509250929050565b8015158114610c2257600080fd5b6000806040838503121561410d57600080fd5b61411683613eed565b91506020830135614126816140ec565b809150509250929050565b6000806000806080858703121561414757600080fd5b61415085613eed565b935061415e60208601613eed565b925060408501359150606085013567ffffffffffffffff81111561418157600080fd5b61418d8782880161402e565b91505092959194509250565b60008060008060008060c087890312156141b257600080fd5b6141bb87613eed565b95506141c960208801613eed565b94506141d760408801613eed565b93506141e560608801613eed565b92506141f360808801613eed565b915061420160a08801613eed565b90509295509295509295565b6000806040838503121561422057600080fd5b61422983613eed565b9150613f9260208401613eed565b600181811c9082168061424b57607f821691505b60208210810361426b57634e487b7160e01b600052602260045260246000fd5b50919050565b6020808252602d908201527f4552433732313a2063616c6c6572206973206e6f7420746f6b656e206f776e6560408201526c1c881bdc88185c1c1c9bdd9959609a1b606082015260800190565b6020808252600d908201526c2737ba1027232a1037bbb732b960991b604082015260600190565b634e487b7160e01b600052601160045260246000fd5b81810381811115610890576108906142e5565b634e487b7160e01b600052603260045260246000fd5b6020808252825182820181905260009190848201906040850190845b818110156143655783516001600160a01b031683529284019291840191600101614340565b50909695505050505050565b6000602080838503121561438457600080fd5b825167ffffffffffffffff8082111561439c57600080fd5b818501915085601f8301126143b057600080fd5b8151818111156143c2576143c2613fe7565b8060051b91506143d3848301613ffd565b81815291830184019184810190888411156143ed57600080fd5b938501935b8385101561440b578451825293850193908501906143f2565b98975050505050505050565b80820180821115610890576108906142e5565b8082028115828204841417610890576108906142e5565b60008261445e57634e487b7160e01b600052601260045260246000fd5b500490565b6020808252602c908201527f46756e6374696f6e206d7573742062652063616c6c6564207468726f7567682060408201526b19195b1959d85d1958d85b1b60a21b606082015260800190565b6020808252602c908201527f46756e6374696f6e206d7573742062652063616c6c6564207468726f7567682060408201526b6163746976652070726f787960a01b606082015260800190565b6040815260136040820152720c4b8814dd185c9d1a5b99c819195c1bdcda5d606a1b60608201526080602082015260006122b16080830184613e95565b60408152601960408201527f322e20436865636b696e6720746f6b656e20737570706f72740000000000000060608201526080602082015260006122b16080830184613e95565b60006020828403121561459157600080fd5b5051919050565b60408152601a60408201527f352e2042616c616e6365206265666f7265207472616e7366657200000000000060608201526080602082015260006122b16080830184613e95565b60408152601d60408201527f372e20557365722062616c616e636520616e6420616c6c6f77616e636500000060608201526080602082015260006122b16080830184613e95565b60408152601a60408201527f31312e2042616c616e6365206166746572207472616e7366657200000000000060608201526080602082015260006122b16080830184613e95565b60006001820161467f5761467f6142e5565b5060010190565b60408152601060408201526f141bdcda5d1a5bdb8818dc99585d195960821b60608201526080602082015260006122b16080830184613e95565b604081526016604082015275151bdd185b0819195c1bdcda5d1cc81d5c19185d195960521b60608201526080602082015260006122b16080830184613e95565b60408152600a604082015269139195081b5a5b9d195960b21b60608201526080602082015260006122b16080830184613e95565b60008351614746818460208801613e71565b83519083019061475a818360208801613e71565b01949350505050565b60208082526025908201527f4552433732313a207472616e736665722066726f6d20696e636f72726563742060408201526437bbb732b960d91b606082015260800190565b60208082526032908201527f4552433732313a207472616e7366657220746f206e6f6e20455243373231526560408201527131b2b4bb32b91034b6b83632b6b2b73a32b960711b606082015260800190565b6020808252602b908201527f496e697469616c697a61626c653a20636f6e7472616374206973206e6f74206960408201526a6e697469616c697a696e6760a81b606082015260800190565b60006020828403121561485757600080fd5b81516122b1816140ec565b7f416363657373436f6e74726f6c3a206163636f756e742000000000000000000081526000835161489a816017850160208801613e71565b7001034b99036b4b9b9b4b733903937b6329607d1b60179184019182015283516148cb816028840160208801613e71565b01602801949350505050565b6001600160a01b0385811682528416602082015260408101839052608060608201819052600090613d7890830184613e95565b60006020828403121561491c57600080fd5b81516122b181613e3e565b601f821115610a6457600081815260208120601f850160051c8101602086101561494e5750805b601f850160051c820191505b8181101561496d5782815560010161495a565b505050505050565b815167ffffffffffffffff81111561498f5761498f613fe7565b6149a38161499d8454614237565b84614927565b602080601f8311600181146149d857600084156149c05750858301515b600019600386901b1c1916600185901b17855561496d565b600085815260208120601f198616915b82811015614a07578886015182559484019460019091019084016149e8565b5085821015614a255787850151600019600388901b60f8161c191681555b5050505050600190811b01905550565b600081614a4457614a446142e5565b506000190190565b60008251614a5e818460208701613e71565b919091019291505056fe360894a13ba1a3210667c828492db98dca3e2076cc3735a920a3ca505d382bbc416464726573733a206c6f772d6c6576656c2064656c65676174652063616c6c206661696c65640c1267f8b6a6608f6166ea98ce91e23fe3bf0d92464854249481dd7d07a5d464a26469706673582212208bc13b06fcb22e76b342b7614f975575209e4b4c8b6b82fa8505fbba3520961664736f6c63430008140033",
  "linkReferences": {},
  "deployedLinkReferences": {}
}